{"abi":[{"inputs":[{"internalType":"string","name":"_electionName","type":"string"},{"internalType":"address","name":"_wakandaTokenAddress","type":"address"},{"internalType":"string[]","name":"_candidateNames","type":"string[]"},{"internalType":"uint8[]","name":"_candidateAges","type":"uint8[]"},{"internalType":"string[]","name":"_candidateCults","type":"string[]"}],"stateMutability":"nonpayable","type":"constructor","name":"constructor"},{"inputs":[{"internalType":"address","name":"_citizenAddress","type":"address"}],"name":"citizenHasVoted","outputs":[{"components":[{"internalType":"uint256","name":"candidateId","type":"uint256"},{"internalType":"uint256","name":"amount","type":"uint256"},{"internalType":"bool","name":"hasVoted","type":"bool"}],"internalType":"struct Voting.Vote","name":"","type":"tuple"}],"stateMutability":"view","type":"function"},{"inputs":[{"internalType":"address","name":"_citizenAddress","type":"address"}],"name":"citizenIsRegistered","outputs":[{"internalType":"bool","name":"","type":"bool"}],"stateMutability":"view","type":"function"},{"inputs":[{"internalType":"bytes","name":"signature","type":"bytes"},{"internalType":"address","name":"citizenAddress","type":"address"},{"internalType":"uint256","name":"candidateId","type":"uint256"},{"internalType":"uint256","name":"amount","type":"uint256"}],"name":"delegatedVote","outputs":[],"stateMutability":"nonpayable","type":"function"},{"inputs":[{"internalType":"address","name":"citizenAddress","type":"address"},{"internalType":"uint256","name":"candidateId","type":"uint256"},{"internalType":"uint256","name":"amount","type":"uint256"}],"name":"getDigest","outputs":[{"internalType":"bytes32","name":"","type":"bytes32"}],"stateMutability":"view","type":"function"},{"inputs":[{"internalType":"address","name":"citizenAddress","type":"address"}],"name":"getNonce","outputs":[{"internalType":"uint256","name":"","type":"uint256"}],"stateMutability":"view","type":"function"},{"inputs":[{"internalType":"bytes32","name":"digest","type":"bytes32"},{"internalType":"bytes","name":"signature","type":"bytes"}],"name":"getSigner","outputs":[{"internalType":"address","name":"","type":"address"}],"stateMutability":"pure","type":"function"},{"inputs":[{"internalType":"address","name":"_citizen","type":"address"}],"name":"register","outputs":[{"internalType":"bool","name":"","type":"bool"}],"stateMutability":"nonpayable","type":"function"},{"inputs":[],"name":"seeAllCandidates","outputs":[{"components":[{"internalType":"string","name":"name","type":"string"},{"internalType":"uint8","name":"age","type":"uint8"},{"internalType":"string","name":"cult","type":"string"},{"internalType":"uint256","name":"votes","type":"uint256"}],"internalType":"struct Voting.Candidate[]","name":"","type":"tuple[]"}],"stateMutability":"view","type":"function"},{"inputs":[{"internalType":"uint256","name":"_candidateId","type":"uint256"},{"internalType":"uint256","name":"_amount","type":"uint256"}],"name":"vote","outputs":[],"stateMutability":"nonpayable","type":"function"},{"inputs":[],"name":"winningCandidates","outputs":[{"components":[{"internalType":"string","name":"name","type":"string"},{"internalType":"uint8","name":"age","type":"uint8"},{"internalType":"string","name":"cult","type":"string"},{"internalType":"uint256","name":"votes","type":"uint256"}],"internalType":"struct Voting.Candidate[]","name":"","type":"tuple[]"}],"stateMutability":"view","type":"function"}],"bytecode":"6101406040523480156200001257600080fd5b506040516200205f3803806200205f8339810160408190526200003591620005c2565b60408051808201825260058152640312e302e360dc1b60209182015286518782012060e08190527f06c015bd22b4c69690933c1058878ebdfef31f9aaae40bbe86d8a09fe1b2972c6101008190524660a081815285517f8b73c3c69bb8fe3d512ecc4cf759cc79239f7b179b0ffacaa9a75d522b39400f81870181905281880195909552606081810194909452608080820193909352308183018190528751808303909301835260c09182019097528151919095012090529290921b905261012052600080546001600160a01b031916331790556200011683838362000142565b5050600180546001600160a01b0319166001600160a01b03939093169290921790915550620007899050565b6000546001600160a01b03163314620001ae5760405162461bcd60e51b8152602060048201526024808201527f4f6e6c79204b494e472063616e2073746172742061206e657720656c656374696044820152636f6e202160e01b60648201526084015b60405180910390fd5b8151835114620002055760405162461bcd60e51b815260206004820152602c60248201526000805160206200203f83398151915260448201526b7320616e642061676573202160a01b6064820152608401620001a5565b80518351146200025c5760405162461bcd60e51b815260206004820152602c60248201526000805160206200203f83398151915260448201526b7320616e642061676573202160a01b6064820152608401620001a5565b60005b83518110156200036957600560405180608001604052808684815181106200028b576200028b6200075d565b60200260200101518152602001858481518110620002ad57620002ad6200075d565b602002602001015160ff168152602001848481518110620002d257620002d26200075d565b60209081029190910181015182526000918101829052835460018101855593825290819020825180519394600402909101926200031392849201906200036f565b5060208281015160018301805460ff191660ff909216919091179055604083015180516200034892600285019201906200036f565b5060608201518160030155505080620003619062000733565b90506200025f565b50505050565b8280546200037d90620006f6565b90600052602060002090601f016020900481019282620003a15760008555620003ec565b82601f10620003bc57805160ff1916838001178555620003ec565b82800160010185558215620003ec579182015b82811115620003ec578251825591602001919060010190620003cf565b50620003fa929150620003fe565b5090565b5b80821115620003fa5760008155600101620003ff565b600082601f8301126200042757600080fd5b81516020620004406200043a83620006d0565b6200069d565b80838252828201915082860187848660051b89010111156200046157600080fd5b6000805b86811015620004a85782516001600160401b0381111562000484578283fd5b620004948b88838d01016200052d565b865250938501939185019160010162000465565b509198975050505050505050565b600082601f830112620004c857600080fd5b81516020620004db6200043a83620006d0565b80838252828201915082860187848660051b8901011115620004fc57600080fd5b6000805b86811015620004a857825160ff811681146200051a578283fd5b8552938501939185019160010162000500565b600082601f8301126200053f57600080fd5b81516001600160401b038111156200055b576200055b62000773565b602062000571601f8301601f191682016200069d565b82815285828487010111156200058657600080fd5b60005b83811015620005a657858101830151828201840152820162000589565b83811115620005b85760008385840101525b5095945050505050565b600080600080600060a08688031215620005db57600080fd5b85516001600160401b0380821115620005f357600080fd5b6200060189838a016200052d565b602089015190975091506001600160a01b03821682146200062157600080fd5b6040880151919550808211156200063757600080fd5b6200064589838a0162000415565b945060608801519150808211156200065c57600080fd5b6200066a89838a01620004b6565b935060808801519150808211156200068157600080fd5b50620006908882890162000415565b9150509295509295909350565b604051601f8201601f191681016001600160401b0381118282101715620006c857620006c862000773565b604052919050565b60006001600160401b03821115620006ec57620006ec62000773565b5060051b60200190565b600181811c908216806200070b57607f821691505b602082108114156200072d57634e487b7160e01b600052602260045260246000fd5b50919050565b60006000198214156200075657634e487b7160e01b600052601160045260246000fd5b5060010190565b634e487b7160e01b600052603260045260246000fd5b634e487b7160e01b600052604160045260246000fd5b60805160a05160c05160601c60e0516101005161012051611863620007dc60003960006110a4015260006110f3015260006110ce01526000611027015260006110510152600061107b01526118636000f3fe608060405234801561001057600080fd5b506004361061009e5760003560e01c80634420e486116100665780634420e4861461017c578063b384abef1461018f578063b8d06bc4146101a2578063de90bb6f146101b5578063f7b2ec0d146101bd57600080fd5b80630cf2ee64146100a35780631565507e146100e45780632d0335ab146100f957806330226efe14610130578063377968d414610167575b600080fd5b6100cf6100b13660046114e1565b6001600160a01b031660009081526002602052604090205460ff1690565b60405190151581526020015b60405180910390f35b6100f76100f236600461159d565b6101e8565b005b6101226101073660046114e1565b6001600160a01b031660009081526003602052604090205490565b6040519081526020016100db565b61014361013e3660046114e1565b610306565b604080518251815260208084015190820152918101511515908201526060016100db565b61016f610373565b6040516100db9190611672565b6100cf61018a3660046114e1565b6105c8565b6100f761019d366004611603565b61071c565b6101226101b03660046114fc565b61072b565b61016f6107bb565b6101d06101cb366004611551565b610959565b6040516001600160a01b0390911681526020016100db565b60006101f584848461072b565b90506000610204828888610959565b9050846001600160a01b0316816001600160a01b0316146102785760405162461bcd60e51b815260206004820152602360248201527f46756e6374696f6e2060766f746560203a20696e76616c6964207369676e617460448201526275726560e81b60648201526084015b60405180910390fd5b6001600160a01b0381166102c95760405162461bcd60e51b815260206004820152601860248201527745434453413a20696e76616c6964207369676e617475726560401b604482015260640161026f565b6102d48585856109a3565b6001600160a01b03851660009081526003602052604081208054916102f88361179a565b919050555050505050505050565b61032c604051806060016040528060008152602001600081526020016000151581525090565b506001600160a01b03166000908152600460209081526040918290208251606081018452815481526001820154928101929092526002015460ff1615159181019190915290565b60065460609060009067ffffffffffffffff81111561039457610394611817565b6040519080825280602002602001820160405280156103f357816020015b6103e0604051806080016040528060608152602001600060ff16815260200160608152602001600081525090565b8152602001906001900390816103b25790505b50905060005b60065460ff821610156105c257600560068260ff168154811061041e5761041e611801565b90600052602060002001548154811061043957610439611801565b906000526020600020906004020160405180608001604052908160008201805461046290611765565b80601f016020809104026020016040519081016040528092919081815260200182805461048e90611765565b80156104db5780601f106104b0576101008083540402835291602001916104db565b820191906000526020600020905b8154815290600101906020018083116104be57829003601f168201915b5050509183525050600182015460ff16602082015260028201805460409092019161050590611765565b80601f016020809104026020016040519081016040528092919081815260200182805461053190611765565b801561057e5780601f106105535761010080835404028352916020019161057e565b820191906000526020600020905b81548152906001019060200180831161056157829003601f168201915b50505050508152602001600382015481525050828260ff16815181106105a6576105a6611801565b6020026020010181905250806105bb906117b5565b90506103f9565b50919050565b6001600160a01b03811660009081526002602052604081205460ff1615156001141561066b5760405162461bcd60e51b815260206004820152604660248201527f54686520636974697a656e20686173206265656e20726567697374657265642060448201527f2d20746865726520617265206e6f206d756c7469706c652072656769737472616064820152653a34b7b7399760d11b608482015260a40161026f565b6001805460405163bc0e60e160e01b81526001600160a01b038581166004830152602482019390935291169063bc0e60e190604401602060405180830381600087803b1580156106ba57600080fd5b505af11580156106ce573d6000803e3d6000fd5b505050506040513d601f19601f820116820180604052508101906106f2919061152f565b50506001600160a01b03166000908152600260205260409020805460ff1916600190811790915590565b6107273383836109a3565b5050565b6001600160a01b03831660008181526003602090815260408083205481517fa56f781f7251d29fca13933d69c34316ea277f967c4a968f77db62d983fe11209381019390935290820193909352606081018590526080810184905260a081018390529091906107b29060c00160405160208183030381529060405280519060200120610cf0565b95945050505050565b60606005805480602002602001604051908101604052809291908181526020016000905b82821015610950578382906000526020600020906004020160405180608001604052908160008201805461081290611765565b80601f016020809104026020016040519081016040528092919081815260200182805461083e90611765565b801561088b5780601f106108605761010080835404028352916020019161088b565b820191906000526020600020905b81548152906001019060200180831161086e57829003601f168201915b5050509183525050600182015460ff1660208201526002820180546040909201916108b590611765565b80601f01602080910402602001604051908101604052809291908181526020018280546108e190611765565b801561092e5780601f106109035761010080835404028352916020019161092e565b820191906000526020600020905b81548152906001019060200180831161091157829003601f168201915b50505050508152602001600382015481525050815260200190600101906107df565b50505050905090565b600061099b8484848080601f016020809104026020016040519081016040528093929190818152602001838380828437600092019190915250610d4492505050565b949350505050565b60075460ff16151560011415610a0f5760405162461bcd60e51b815260206004820152602b60248201527f566f74696e6720666f72207468652063757272656e7420656c656374696f6e2060448201526a3430b99032b73232b2101760a91b606482015260840161026f565b6001600160a01b03831660009081526004602052604090206002015460ff16151560011415610a945760405162461bcd60e51b815260206004820152602b60248201527f54686520636974697a656e20616c726561647920766f74656420696e2074686560448201526a1032b632b1ba34b7b7101760a91b606482015260840161026f565b6001811015610b005760405162461bcd60e51b815260206004820152603260248201527f54686520616d6f756e74206973206c6573736572207468616e2074686520524560448201527123a4a9aa2920aa24a7a71020a6a7aaa72a1760711b606482015260840161026f565b6005548210610b775760405162461bcd60e51b815260206004820152603860248201527f5468652063616e6469646174652049442067726561746572207468616e20746860448201527f65206e756d626572206f662063616e6469646174657320210000000000000000606482015260840161026f565b600154604051631429461760e11b81526001600160a01b03858116600483015260248201849052909116906328528c2e90604401602060405180830381600087803b158015610bc557600080fd5b505af1158015610bd9573d6000803e3d6000fd5b505050506040513d601f19601f82011682018060405250810190610bfd919061152f565b50610c358160058481548110610c1557610c15611801565b906000526020600020906004020160030154610d6890919063ffffffff16565b60058381548110610c4857610c48611801565b60009182526020808320600492830201600301939093556001600160a01b03861682529091526040902082815560018082018390556002909101805460ff19169091179055610c9682610d7b565b610ce357610ca2610dd6565b60058381548110610cb557610cb5611801565b9060005260206000209060040201600301541180610cd557506006546003115b15610ceb57610ce382610e17565b610ceb610e88565b505050565b6000610d3e610cfd61101a565b8360405161190160f01b6020820152602281018390526042810182905260009060620160405160208183030381529060405280519060200120905092915050565b92915050565b6000806000610d538585611141565b91509150610d60816111b1565b509392505050565b6000610d748284611711565b9392505050565b6000805b60065460ff82161015610dcd5760068160ff1681548110610da257610da2611801565b9060005260206000200154831415610dbd5750600192915050565b610dc6816117b5565b9050610d7f565b50600092915050565b60065460009080610de8576000610e11565b6006610df560018361174e565b81548110610e0557610e05611801565b90600052602060002001545b91505090565b6006546003811015610e595750600680546001810182556000919091527ff652222313e28459528d920b65115c16c04f3efc82aaedc97be59f3f377c0d3f0155565b816006610e686001600361174e565b81548110610e7857610e78611801565b6000918252602090912001555050565b600654610e9157565b60005b600654610ea39060019061174e565b8160ff161015611017576000610eba826001611729565b90505b60065460ff8216101561100657600060068360ff1681548110610ee257610ee2611801565b90600052602060002001549050600060068360ff1681548110610f0757610f07611801565b9060005260206000200154905060058181548110610f2757610f27611801565b90600052602060002090600402016003015460058381548110610f4c57610f4c611801565b9060005260206000209060040201600301541015610ff357600060068560ff1681548110610f7c57610f7c611801565b9060005260206000200154905060068460ff1681548110610f9f57610f9f611801565b906000526020600020015460068660ff1681548110610fc057610fc0611801565b90600052602060002001819055508060068560ff1681548110610fe557610fe5611801565b600091825260209091200155505b505080610fff906117b5565b9050610ebd565b50611010816117b5565b9050610e94565b50565b6000306001600160a01b037f00000000000000000000000000000000000000000000000000000000000000001614801561107357507f000000000000000000000000000000000000000000000000000000000000000046145b1561109d57507f000000000000000000000000000000000000000000000000000000000000000090565b50604080517f00000000000000000000000000000000000000000000000000000000000000006020808301919091527f0000000000000000000000000000000000000000000000000000000000000000828401527f000000000000000000000000000000000000000000000000000000000000000060608301524660808301523060a0808401919091528351808403909101815260c0909201909252805191012090565b6000808251604114156111785760208301516040840151606085015160001a61116c87828585611367565b945094505050506111aa565b8251604014156111a25760208301516040840151611197868383611454565b9350935050506111aa565b506000905060025b9250929050565b60008160048111156111c5576111c56117eb565b14156111ce5750565b60018160048111156111e2576111e26117eb565b141561122b5760405162461bcd60e51b815260206004820152601860248201527745434453413a20696e76616c6964207369676e617475726560401b604482015260640161026f565b600281600481111561123f5761123f6117eb565b141561128d5760405162461bcd60e51b815260206004820152601f60248201527f45434453413a20696e76616c6964207369676e6174757265206c656e67746800604482015260640161026f565b60038160048111156112a1576112a16117eb565b14156112fa5760405162461bcd60e51b815260206004820152602260248201527f45434453413a20696e76616c6964207369676e6174757265202773272076616c604482015261756560f01b606482015260840161026f565b600481600481111561130e5761130e6117eb565b14156110175760405162461bcd60e51b815260206004820152602260248201527f45434453413a20696e76616c6964207369676e6174757265202776272076616c604482015261756560f01b606482015260840161026f565b6000807f7fffffffffffffffffffffffffffffff5d576e7357a4501ddfe92f46681b20a083111561139e575060009050600361144b565b8460ff16601b141580156113b657508460ff16601c14155b156113c7575060009050600461144b565b6040805160008082526020820180845289905260ff881692820192909252606081018690526080810185905260019060a0016020604051602081039080840390855afa15801561141b573d6000803e3d6000fd5b5050604051601f1901519150506001600160a01b0381166114445760006001925092505061144b565b9150600090505b94509492505050565b6000806001600160ff1b03831660ff84901c601b0161147587828885611367565b935093505050935093915050565b80356001600160a01b038116811461149a57600080fd5b919050565b60008083601f8401126114b157600080fd5b50813567ffffffffffffffff8111156114c957600080fd5b6020830191508360208285010111156111aa57600080fd5b6000602082840312156114f357600080fd5b610d7482611483565b60008060006060848603121561151157600080fd5b61151a84611483565b95602085013595506040909401359392505050565b60006020828403121561154157600080fd5b81518015158114610d7457600080fd5b60008060006040848603121561156657600080fd5b83359250602084013567ffffffffffffffff81111561158457600080fd5b6115908682870161149f565b9497909650939450505050565b6000806000806000608086880312156115b557600080fd5b853567ffffffffffffffff8111156115cc57600080fd5b6115d88882890161149f565b90965094506115eb905060208701611483565b94979396509394604081013594506060013592915050565b6000806040838503121561161657600080fd5b50508035926020909101359150565b6000815180845260005b8181101561164b5760208185018101518683018201520161162f565b8181111561165d576000602083870101525b50601f01601f19169290920160200192915050565b60006020808301818452808551808352604092508286019150828160051b87010184880160005b8381101561170357603f198984030185528151608081518186526116bf82870182611625565b91505060ff89830151168986015287820151858203898701526116e28282611625565b60609384015196909301959095525094870194925090860190600101611699565b509098975050505050505050565b60008219821115611724576117246117d5565b500190565b600060ff821660ff84168060ff03821115611746576117466117d5565b019392505050565b600082821015611760576117606117d5565b500390565b600181811c9082168061177957607f821691505b602082108114156105c257634e487b7160e01b600052602260045260246000fd5b60006000198214156117ae576117ae6117d5565b5060010190565b600060ff821660ff8114156117cc576117cc6117d5565b60010192915050565b634e487b7160e01b600052601160045260246000fd5b634e487b7160e01b600052602160045260246000fd5b634e487b7160e01b600052603260045260246000fd5b634e487b7160e01b600052604160045260246000fdfea264697066735822122059e5f1decb55e787b75cdd445bd09b15e60bcec976fb558e17fa817d0ab4048364736f6c634300080600334c656e677468206d69736d61746368202d2063616e646964617465206e616d65","bytecodeSha1":"da39a3ee5e6b4b0d3255bfef95601890afd80709","compiler":{"evm_version":"istanbul","optimizer":{"enabled":true,"runs":200},"version":"0.8.6+commit.11564f7e"},"contractName":"Voting","language":"Solidity","natspec":{"kind":"dev","methods":{},"notice":"Voters Register (receive 1 WKND) token, so they can particapate in the elections","title":"Voting Contract","version":1},"opcodes":"PUSH1 0x80 PUSH1 0x40 MSTORE CALLVALUE DUP1 ISZERO PUSH2 0x10 JUMPI PUSH1 0x0 DUP1 REVERT JUMPDEST POP PUSH1 0x4 CALLDATASIZE LT PUSH2 0x9E JUMPI PUSH1 0x0 CALLDATALOAD PUSH1 0xE0 SHR DUP1 PUSH4 0x4420E486 GT PUSH2 0x66 JUMPI DUP1 PUSH4 0x4420E486 EQ PUSH2 0x17C JUMPI DUP1 PUSH4 0xB384ABEF EQ PUSH2 0x18F JUMPI DUP1 PUSH4 0xB8D06BC4 EQ PUSH2 0x1A2 JUMPI DUP1 PUSH4 0xDE90BB6F EQ PUSH2 0x1B5 JUMPI DUP1 PUSH4 0xF7B2EC0D EQ PUSH2 0x1BD JUMPI PUSH1 0x0 DUP1 REVERT JUMPDEST DUP1 PUSH4 0xCF2EE64 EQ PUSH2 0xA3 JUMPI DUP1 PUSH4 0x1565507E EQ PUSH2 0xE4 JUMPI DUP1 PUSH4 0x2D0335AB EQ PUSH2 0xF9 JUMPI DUP1 PUSH4 0x30226EFE EQ PUSH2 0x130 JUMPI DUP1 PUSH4 0x377968D4 EQ PUSH2 0x167 JUMPI JUMPDEST PUSH1 0x0 DUP1 REVERT JUMPDEST PUSH2 0xCF PUSH2 0xB1 CALLDATASIZE PUSH1 0x4 PUSH2 0x14E1 JUMP JUMPDEST PUSH1 0x1 PUSH1 0x1 PUSH1 0xA0 SHL SUB AND PUSH1 0x0 SWAP1 DUP2 MSTORE PUSH1 0x2 PUSH1 0x20 MSTORE PUSH1 0x40 SWAP1 KECCAK256 SLOAD PUSH1 0xFF AND SWAP1 JUMP JUMPDEST PUSH1 0x40 MLOAD SWAP1 ISZERO ISZERO DUP2 MSTORE PUSH1 0x20 ADD JUMPDEST PUSH1 0x40 MLOAD DUP1 SWAP2 SUB SWAP1 RETURN JUMPDEST PUSH2 0xF7 PUSH2 0xF2 CALLDATASIZE PUSH1 0x4 PUSH2 0x159D JUMP JUMPDEST PUSH2 0x1E8 JUMP JUMPDEST STOP JUMPDEST PUSH2 0x122 PUSH2 0x107 CALLDATASIZE PUSH1 0x4 PUSH2 0x14E1 JUMP JUMPDEST PUSH1 0x1 PUSH1 0x1 PUSH1 0xA0 SHL SUB AND PUSH1 0x0 SWAP1 DUP2 MSTORE PUSH1 0x3 PUSH1 0x20 MSTORE PUSH1 0x40 SWAP1 KECCAK256 SLOAD SWAP1 JUMP JUMPDEST PUSH1 0x40 MLOAD SWAP1 DUP2 MSTORE PUSH1 0x20 ADD PUSH2 0xDB JUMP JUMPDEST PUSH2 0x143 PUSH2 0x13E CALLDATASIZE PUSH1 0x4 PUSH2 0x14E1 JUMP JUMPDEST PUSH2 0x306 JUMP JUMPDEST PUSH1 0x40 DUP1 MLOAD DUP3 MLOAD DUP2 MSTORE PUSH1 0x20 DUP1 DUP5 ADD MLOAD SWAP1 DUP3 ADD MSTORE SWAP2 DUP2 ADD MLOAD ISZERO ISZERO SWAP1 DUP3 ADD MSTORE PUSH1 0x60 ADD PUSH2 0xDB JUMP JUMPDEST PUSH2 0x16F PUSH2 0x373 JUMP JUMPDEST PUSH1 0x40 MLOAD PUSH2 0xDB SWAP2 SWAP1 PUSH2 0x1672 JUMP JUMPDEST PUSH2 0xCF PUSH2 0x18A CALLDATASIZE PUSH1 0x4 PUSH2 0x14E1 JUMP JUMPDEST PUSH2 0x5C8 JUMP JUMPDEST PUSH2 0xF7 PUSH2 0x19D CALLDATASIZE PUSH1 0x4 PUSH2 0x1603 JUMP JUMPDEST PUSH2 0x71C JUMP JUMPDEST PUSH2 0x122 PUSH2 0x1B0 CALLDATASIZE PUSH1 0x4 PUSH2 0x14FC JUMP JUMPDEST PUSH2 0x72B JUMP JUMPDEST PUSH2 0x16F PUSH2 0x7BB JUMP JUMPDEST PUSH2 0x1D0 PUSH2 0x1CB CALLDATASIZE PUSH1 0x4 PUSH2 0x1551 JUMP JUMPDEST PUSH2 0x959 JUMP JUMPDEST PUSH1 0x40 MLOAD PUSH1 0x1 PUSH1 0x1 PUSH1 0xA0 SHL SUB SWAP1 SWAP2 AND DUP2 MSTORE PUSH1 0x20 ADD PUSH2 0xDB JUMP JUMPDEST PUSH1 0x0 PUSH2 0x1F5 DUP5 DUP5 DUP5 PUSH2 0x72B JUMP JUMPDEST SWAP1 POP PUSH1 0x0 PUSH2 0x204 DUP3 DUP9 DUP9 PUSH2 0x959 JUMP JUMPDEST SWAP1 POP DUP5 PUSH1 0x1 PUSH1 0x1 PUSH1 0xA0 SHL SUB AND DUP2 PUSH1 0x1 PUSH1 0x1 PUSH1 0xA0 SHL SUB AND EQ PUSH2 0x278 JUMPI PUSH1 0x40 MLOAD PUSH3 0x461BCD PUSH1 0xE5 SHL DUP2 MSTORE PUSH1 0x20 PUSH1 0x4 DUP3 ADD MSTORE PUSH1 0x23 PUSH1 0x24 DUP3 ADD MSTORE PUSH32 0x46756E6374696F6E2060766F746560203A20696E76616C6964207369676E6174 PUSH1 0x44 DUP3 ADD MSTORE PUSH3 0x757265 PUSH1 0xE8 SHL PUSH1 0x64 DUP3 ADD MSTORE PUSH1 0x84 ADD JUMPDEST PUSH1 0x40 MLOAD DUP1 SWAP2 SUB SWAP1 REVERT JUMPDEST PUSH1 0x1 PUSH1 0x1 PUSH1 0xA0 SHL SUB DUP2 AND PUSH2 0x2C9 JUMPI PUSH1 0x40 MLOAD PUSH3 0x461BCD PUSH1 0xE5 SHL DUP2 MSTORE PUSH1 0x20 PUSH1 0x4 DUP3 ADD MSTORE PUSH1 0x18 PUSH1 0x24 DUP3 ADD MSTORE PUSH24 0x45434453413A20696E76616C6964207369676E6174757265 PUSH1 0x40 SHL PUSH1 0x44 DUP3 ADD MSTORE PUSH1 0x64 ADD PUSH2 0x26F JUMP JUMPDEST PUSH2 0x2D4 DUP6 DUP6 DUP6 PUSH2 0x9A3 JUMP JUMPDEST PUSH1 0x1 PUSH1 0x1 PUSH1 0xA0 SHL SUB DUP6 AND PUSH1 0x0 SWAP1 DUP2 MSTORE PUSH1 0x3 PUSH1 0x20 MSTORE PUSH1 0x40 DUP2 KECCAK256 DUP1 SLOAD SWAP2 PUSH2 0x2F8 DUP4 PUSH2 0x179A JUMP JUMPDEST SWAP2 SWAP1 POP SSTORE POP POP POP POP POP POP POP POP JUMP JUMPDEST PUSH2 0x32C PUSH1 0x40 MLOAD DUP1 PUSH1 0x60 ADD PUSH1 0x40 MSTORE DUP1 PUSH1 0x0 DUP2 MSTORE PUSH1 0x20 ADD PUSH1 0x0 DUP2 MSTORE PUSH1 0x20 ADD PUSH1 0x0 ISZERO ISZERO DUP2 MSTORE POP SWAP1 JUMP JUMPDEST POP PUSH1 0x1 PUSH1 0x1 PUSH1 0xA0 SHL SUB AND PUSH1 0x0 SWAP1 DUP2 MSTORE PUSH1 0x4 PUSH1 0x20 SWAP1 DUP2 MSTORE PUSH1 0x40 SWAP2 DUP3 SWAP1 KECCAK256 DUP3 MLOAD PUSH1 0x60 DUP2 ADD DUP5 MSTORE DUP2 SLOAD DUP2 MSTORE PUSH1 0x1 DUP3 ADD SLOAD SWAP3 DUP2 ADD SWAP3 SWAP1 SWAP3 MSTORE PUSH1 0x2 ADD SLOAD PUSH1 0xFF AND ISZERO ISZERO SWAP2 DUP2 ADD SWAP2 SWAP1 SWAP2 MSTORE SWAP1 JUMP JUMPDEST PUSH1 0x6 SLOAD PUSH1 0x60 SWAP1 PUSH1 0x0 SWAP1 PUSH8 0xFFFFFFFFFFFFFFFF DUP2 GT ISZERO PUSH2 0x394 JUMPI PUSH2 0x394 PUSH2 0x1817 JUMP JUMPDEST PUSH1 0x40 MLOAD SWAP1 DUP1 DUP3 MSTORE DUP1 PUSH1 0x20 MUL PUSH1 0x20 ADD DUP3 ADD PUSH1 0x40 MSTORE DUP1 ISZERO PUSH2 0x3F3 JUMPI DUP2 PUSH1 0x20 ADD JUMPDEST PUSH2 0x3E0 PUSH1 0x40 MLOAD DUP1 PUSH1 0x80 ADD PUSH1 0x40 MSTORE DUP1 PUSH1 0x60 DUP2 MSTORE PUSH1 0x20 ADD PUSH1 0x0 PUSH1 0xFF AND DUP2 MSTORE PUSH1 0x20 ADD PUSH1 0x60 DUP2 MSTORE PUSH1 0x20 ADD PUSH1 0x0 DUP2 MSTORE POP SWAP1 JUMP JUMPDEST DUP2 MSTORE PUSH1 0x20 ADD SWAP1 PUSH1 0x1 SWAP1 SUB SWAP1 DUP2 PUSH2 0x3B2 JUMPI SWAP1 POP JUMPDEST POP SWAP1 POP PUSH1 0x0 JUMPDEST PUSH1 0x6 SLOAD PUSH1 0xFF DUP3 AND LT ISZERO PUSH2 0x5C2 JUMPI PUSH1 0x5 PUSH1 0x6 DUP3 PUSH1 0xFF AND DUP2 SLOAD DUP2 LT PUSH2 0x41E JUMPI PUSH2 0x41E PUSH2 0x1801 JUMP JUMPDEST SWAP1 PUSH1 0x0 MSTORE PUSH1 0x20 PUSH1 0x0 KECCAK256 ADD SLOAD DUP2 SLOAD DUP2 LT PUSH2 0x439 JUMPI PUSH2 0x439 PUSH2 0x1801 JUMP JUMPDEST SWAP1 PUSH1 0x0 MSTORE PUSH1 0x20 PUSH1 0x0 KECCAK256 SWAP1 PUSH1 0x4 MUL ADD PUSH1 0x40 MLOAD DUP1 PUSH1 0x80 ADD PUSH1 0x40 MSTORE SWAP1 DUP2 PUSH1 0x0 DUP3 ADD DUP1 SLOAD PUSH2 0x462 SWAP1 PUSH2 0x1765 JUMP JUMPDEST DUP1 PUSH1 0x1F ADD PUSH1 0x20 DUP1 SWAP2 DIV MUL PUSH1 0x20 ADD PUSH1 0x40 MLOAD SWAP1 DUP2 ADD PUSH1 0x40 MSTORE DUP1 SWAP3 SWAP2 SWAP1 DUP2 DUP2 MSTORE PUSH1 0x20 ADD DUP3 DUP1 SLOAD PUSH2 0x48E SWAP1 PUSH2 0x1765 JUMP JUMPDEST DUP1 ISZERO PUSH2 0x4DB JUMPI DUP1 PUSH1 0x1F LT PUSH2 0x4B0 JUMPI PUSH2 0x100 DUP1 DUP4 SLOAD DIV MUL DUP4 MSTORE SWAP2 PUSH1 0x20 ADD SWAP2 PUSH2 0x4DB JUMP JUMPDEST DUP3 ADD SWAP2 SWAP1 PUSH1 0x0 MSTORE PUSH1 0x20 PUSH1 0x0 KECCAK256 SWAP1 JUMPDEST DUP2 SLOAD DUP2 MSTORE SWAP1 PUSH1 0x1 ADD SWAP1 PUSH1 0x20 ADD DUP1 DUP4 GT PUSH2 0x4BE JUMPI DUP3 SWAP1 SUB PUSH1 0x1F AND DUP3 ADD SWAP2 JUMPDEST POP POP POP SWAP2 DUP4 MSTORE POP POP PUSH1 0x1 DUP3 ADD SLOAD PUSH1 0xFF AND PUSH1 0x20 DUP3 ADD MSTORE PUSH1 0x2 DUP3 ADD DUP1 SLOAD PUSH1 0x40 SWAP1 SWAP3 ADD SWAP2 PUSH2 0x505 SWAP1 PUSH2 0x1765 JUMP JUMPDEST DUP1 PUSH1 0x1F ADD PUSH1 0x20 DUP1 SWAP2 DIV MUL PUSH1 0x20 ADD PUSH1 0x40 MLOAD SWAP1 DUP2 ADD PUSH1 0x40 MSTORE DUP1 SWAP3 SWAP2 SWAP1 DUP2 DUP2 MSTORE PUSH1 0x20 ADD DUP3 DUP1 SLOAD PUSH2 0x531 SWAP1 PUSH2 0x1765 JUMP JUMPDEST DUP1 ISZERO PUSH2 0x57E JUMPI DUP1 PUSH1 0x1F LT PUSH2 0x553 JUMPI PUSH2 0x100 DUP1 DUP4 SLOAD DIV MUL DUP4 MSTORE SWAP2 PUSH1 0x20 ADD SWAP2 PUSH2 0x57E JUMP JUMPDEST DUP3 ADD SWAP2 SWAP1 PUSH1 0x0 MSTORE PUSH1 0x20 PUSH1 0x0 KECCAK256 SWAP1 JUMPDEST DUP2 SLOAD DUP2 MSTORE SWAP1 PUSH1 0x1 ADD SWAP1 PUSH1 0x20 ADD DUP1 DUP4 GT PUSH2 0x561 JUMPI DUP3 SWAP1 SUB PUSH1 0x1F AND DUP3 ADD SWAP2 JUMPDEST POP POP POP POP POP DUP2 MSTORE PUSH1 0x20 ADD PUSH1 0x3 DUP3 ADD SLOAD DUP2 MSTORE POP POP DUP3 DUP3 PUSH1 0xFF AND DUP2 MLOAD DUP2 LT PUSH2 0x5A6 JUMPI PUSH2 0x5A6 PUSH2 0x1801 JUMP JUMPDEST PUSH1 0x20 MUL PUSH1 0x20 ADD ADD DUP2 SWAP1 MSTORE POP DUP1 PUSH2 0x5BB SWAP1 PUSH2 0x17B5 JUMP JUMPDEST SWAP1 POP PUSH2 0x3F9 JUMP JUMPDEST POP SWAP2 SWAP1 POP JUMP JUMPDEST PUSH1 0x1 PUSH1 0x1 PUSH1 0xA0 SHL SUB DUP2 AND PUSH1 0x0 SWAP1 DUP2 MSTORE PUSH1 0x2 PUSH1 0x20 MSTORE PUSH1 0x40 DUP2 KECCAK256 SLOAD PUSH1 0xFF AND ISZERO ISZERO PUSH1 0x1 EQ ISZERO PUSH2 0x66B JUMPI PUSH1 0x40 MLOAD PUSH3 0x461BCD PUSH1 0xE5 SHL DUP2 MSTORE PUSH1 0x20 PUSH1 0x4 DUP3 ADD MSTORE PUSH1 0x46 PUSH1 0x24 DUP3 ADD MSTORE PUSH32 0x54686520636974697A656E20686173206265656E207265676973746572656420 PUSH1 0x44 DUP3 ADD MSTORE PUSH32 0x2D20746865726520617265206E6F206D756C7469706C65207265676973747261 PUSH1 0x64 DUP3 ADD MSTORE PUSH6 0x3A34B7B73997 PUSH1 0xD1 SHL PUSH1 0x84 DUP3 ADD MSTORE PUSH1 0xA4 ADD PUSH2 0x26F JUMP JUMPDEST PUSH1 0x1 DUP1 SLOAD PUSH1 0x40 MLOAD PUSH4 0xBC0E60E1 PUSH1 0xE0 SHL DUP2 MSTORE PUSH1 0x1 PUSH1 0x1 PUSH1 0xA0 SHL SUB DUP6 DUP2 AND PUSH1 0x4 DUP4 ADD MSTORE PUSH1 0x24 DUP3 ADD SWAP4 SWAP1 SWAP4 MSTORE SWAP2 AND SWAP1 PUSH4 0xBC0E60E1 SWAP1 PUSH1 0x44 ADD PUSH1 0x20 PUSH1 0x40 MLOAD DUP1 DUP4 SUB DUP2 PUSH1 0x0 DUP8 DUP1 EXTCODESIZE ISZERO DUP1 ISZERO PUSH2 0x6BA JUMPI PUSH1 0x0 DUP1 REVERT JUMPDEST POP GAS CALL ISZERO DUP1 ISZERO PUSH2 0x6CE JUMPI RETURNDATASIZE PUSH1 0x0 DUP1 RETURNDATACOPY RETURNDATASIZE PUSH1 0x0 REVERT JUMPDEST POP POP POP POP PUSH1 0x40 MLOAD RETURNDATASIZE PUSH1 0x1F NOT PUSH1 0x1F DUP3 ADD AND DUP3 ADD DUP1 PUSH1 0x40 MSTORE POP DUP2 ADD SWAP1 PUSH2 0x6F2 SWAP2 SWAP1 PUSH2 0x152F JUMP JUMPDEST POP POP PUSH1 0x1 PUSH1 0x1 PUSH1 0xA0 SHL SUB AND PUSH1 0x0 SWAP1 DUP2 MSTORE PUSH1 0x2 PUSH1 0x20 MSTORE PUSH1 0x40 SWAP1 KECCAK256 DUP1 SLOAD PUSH1 0xFF NOT AND PUSH1 0x1 SWAP1 DUP2 OR SWAP1 SWAP2 SSTORE SWAP1 JUMP JUMPDEST PUSH2 0x727 CALLER DUP4 DUP4 PUSH2 0x9A3 JUMP JUMPDEST POP POP JUMP JUMPDEST PUSH1 0x1 PUSH1 0x1 PUSH1 0xA0 SHL SUB DUP4 AND PUSH1 0x0 DUP2 DUP2 MSTORE PUSH1 0x3 PUSH1 0x20 SWAP1 DUP2 MSTORE PUSH1 0x40 DUP1 DUP4 KECCAK256 SLOAD DUP2 MLOAD PUSH32 0xA56F781F7251D29FCA13933D69C34316EA277F967C4A968F77DB62D983FE1120 SWAP4 DUP2 ADD SWAP4 SWAP1 SWAP4 MSTORE SWAP1 DUP3 ADD SWAP4 SWAP1 SWAP4 MSTORE PUSH1 0x60 DUP2 ADD DUP6 SWAP1 MSTORE PUSH1 0x80 DUP2 ADD DUP5 SWAP1 MSTORE PUSH1 0xA0 DUP2 ADD DUP4 SWAP1 MSTORE SWAP1 SWAP2 SWAP1 PUSH2 0x7B2 SWAP1 PUSH1 0xC0 ADD PUSH1 0x40 MLOAD PUSH1 0x20 DUP2 DUP4 SUB SUB DUP2 MSTORE SWAP1 PUSH1 0x40 MSTORE DUP1 MLOAD SWAP1 PUSH1 0x20 ADD KECCAK256 PUSH2 0xCF0 JUMP JUMPDEST SWAP6 SWAP5 POP POP POP POP POP JUMP JUMPDEST PUSH1 0x60 PUSH1 0x5 DUP1 SLOAD DUP1 PUSH1 0x20 MUL PUSH1 0x20 ADD PUSH1 0x40 MLOAD SWAP1 DUP2 ADD PUSH1 0x40 MSTORE DUP1 SWAP3 SWAP2 SWAP1 DUP2 DUP2 MSTORE PUSH1 0x20 ADD PUSH1 0x0 SWAP1 JUMPDEST DUP3 DUP3 LT ISZERO PUSH2 0x950 JUMPI DUP4 DUP3 SWAP1 PUSH1 0x0 MSTORE PUSH1 0x20 PUSH1 0x0 KECCAK256 SWAP1 PUSH1 0x4 MUL ADD PUSH1 0x40 MLOAD DUP1 PUSH1 0x80 ADD PUSH1 0x40 MSTORE SWAP1 DUP2 PUSH1 0x0 DUP3 ADD DUP1 SLOAD PUSH2 0x812 SWAP1 PUSH2 0x1765 JUMP JUMPDEST DUP1 PUSH1 0x1F ADD PUSH1 0x20 DUP1 SWAP2 DIV MUL PUSH1 0x20 ADD PUSH1 0x40 MLOAD SWAP1 DUP2 ADD PUSH1 0x40 MSTORE DUP1 SWAP3 SWAP2 SWAP1 DUP2 DUP2 MSTORE PUSH1 0x20 ADD DUP3 DUP1 SLOAD PUSH2 0x83E SWAP1 PUSH2 0x1765 JUMP JUMPDEST DUP1 ISZERO PUSH2 0x88B JUMPI DUP1 PUSH1 0x1F LT PUSH2 0x860 JUMPI PUSH2 0x100 DUP1 DUP4 SLOAD DIV MUL DUP4 MSTORE SWAP2 PUSH1 0x20 ADD SWAP2 PUSH2 0x88B JUMP JUMPDEST DUP3 ADD SWAP2 SWAP1 PUSH1 0x0 MSTORE PUSH1 0x20 PUSH1 0x0 KECCAK256 SWAP1 JUMPDEST DUP2 SLOAD DUP2 MSTORE SWAP1 PUSH1 0x1 ADD SWAP1 PUSH1 0x20 ADD DUP1 DUP4 GT PUSH2 0x86E JUMPI DUP3 SWAP1 SUB PUSH1 0x1F AND DUP3 ADD SWAP2 JUMPDEST POP POP POP SWAP2 DUP4 MSTORE POP POP PUSH1 0x1 DUP3 ADD SLOAD PUSH1 0xFF AND PUSH1 0x20 DUP3 ADD MSTORE PUSH1 0x2 DUP3 ADD DUP1 SLOAD PUSH1 0x40 SWAP1 SWAP3 ADD SWAP2 PUSH2 0x8B5 SWAP1 PUSH2 0x1765 JUMP JUMPDEST DUP1 PUSH1 0x1F ADD PUSH1 0x20 DUP1 SWAP2 DIV MUL PUSH1 0x20 ADD PUSH1 0x40 MLOAD SWAP1 DUP2 ADD PUSH1 0x40 MSTORE DUP1 SWAP3 SWAP2 SWAP1 DUP2 DUP2 MSTORE PUSH1 0x20 ADD DUP3 DUP1 SLOAD PUSH2 0x8E1 SWAP1 PUSH2 0x1765 JUMP JUMPDEST DUP1 ISZERO PUSH2 0x92E JUMPI DUP1 PUSH1 0x1F LT PUSH2 0x903 JUMPI PUSH2 0x100 DUP1 DUP4 SLOAD DIV MUL DUP4 MSTORE SWAP2 PUSH1 0x20 ADD SWAP2 PUSH2 0x92E JUMP JUMPDEST DUP3 ADD SWAP2 SWAP1 PUSH1 0x0 MSTORE PUSH1 0x20 PUSH1 0x0 KECCAK256 SWAP1 JUMPDEST DUP2 SLOAD DUP2 MSTORE SWAP1 PUSH1 0x1 ADD SWAP1 PUSH1 0x20 ADD DUP1 DUP4 GT PUSH2 0x911 JUMPI DUP3 SWAP1 SUB PUSH1 0x1F AND DUP3 ADD SWAP2 JUMPDEST POP POP POP POP POP DUP2 MSTORE PUSH1 0x20 ADD PUSH1 0x3 DUP3 ADD SLOAD DUP2 MSTORE POP POP DUP2 MSTORE PUSH1 0x20 ADD SWAP1 PUSH1 0x1 ADD SWAP1 PUSH2 0x7DF JUMP JUMPDEST POP POP POP POP SWAP1 POP SWAP1 JUMP JUMPDEST PUSH1 0x0 PUSH2 0x99B DUP5 DUP5 DUP5 DUP1 DUP1 PUSH1 0x1F ADD PUSH1 0x20 DUP1 SWAP2 DIV MUL PUSH1 0x20 ADD PUSH1 0x40 MLOAD SWAP1 DUP2 ADD PUSH1 0x40 MSTORE DUP1 SWAP4 SWAP3 SWAP2 SWAP1 DUP2 DUP2 MSTORE PUSH1 0x20 ADD DUP4 DUP4 DUP1 DUP3 DUP5 CALLDATACOPY PUSH1 0x0 SWAP3 ADD SWAP2 SWAP1 SWAP2 MSTORE POP PUSH2 0xD44 SWAP3 POP POP POP JUMP JUMPDEST SWAP5 SWAP4 POP POP POP POP JUMP JUMPDEST PUSH1 0x7 SLOAD PUSH1 0xFF AND ISZERO ISZERO PUSH1 0x1 EQ ISZERO PUSH2 0xA0F JUMPI PUSH1 0x40 MLOAD PUSH3 0x461BCD PUSH1 0xE5 SHL DUP2 MSTORE PUSH1 0x20 PUSH1 0x4 DUP3 ADD MSTORE PUSH1 0x2B PUSH1 0x24 DUP3 ADD MSTORE PUSH32 0x566F74696E6720666F72207468652063757272656E7420656C656374696F6E20 PUSH1 0x44 DUP3 ADD MSTORE PUSH11 0x3430B99032B73232B21017 PUSH1 0xA9 SHL PUSH1 0x64 DUP3 ADD MSTORE PUSH1 0x84 ADD PUSH2 0x26F JUMP JUMPDEST PUSH1 0x1 PUSH1 0x1 PUSH1 0xA0 SHL SUB DUP4 AND PUSH1 0x0 SWAP1 DUP2 MSTORE PUSH1 0x4 PUSH1 0x20 MSTORE PUSH1 0x40 SWAP1 KECCAK256 PUSH1 0x2 ADD SLOAD PUSH1 0xFF AND ISZERO ISZERO PUSH1 0x1 EQ ISZERO PUSH2 0xA94 JUMPI PUSH1 0x40 MLOAD PUSH3 0x461BCD PUSH1 0xE5 SHL DUP2 MSTORE PUSH1 0x20 PUSH1 0x4 DUP3 ADD MSTORE PUSH1 0x2B PUSH1 0x24 DUP3 ADD MSTORE PUSH32 0x54686520636974697A656E20616C726561647920766F74656420696E20746865 PUSH1 0x44 DUP3 ADD MSTORE PUSH11 0x1032B632B1BA34B7B71017 PUSH1 0xA9 SHL PUSH1 0x64 DUP3 ADD MSTORE PUSH1 0x84 ADD PUSH2 0x26F JUMP JUMPDEST PUSH1 0x1 DUP2 LT ISZERO PUSH2 0xB00 JUMPI PUSH1 0x40 MLOAD PUSH3 0x461BCD PUSH1 0xE5 SHL DUP2 MSTORE PUSH1 0x20 PUSH1 0x4 DUP3 ADD MSTORE PUSH1 0x32 PUSH1 0x24 DUP3 ADD MSTORE PUSH32 0x54686520616D6F756E74206973206C6573736572207468616E20746865205245 PUSH1 0x44 DUP3 ADD MSTORE PUSH18 0x23A4A9AA2920AA24A7A71020A6A7AAA72A17 PUSH1 0x71 SHL PUSH1 0x64 DUP3 ADD MSTORE PUSH1 0x84 ADD PUSH2 0x26F JUMP JUMPDEST PUSH1 0x5 SLOAD DUP3 LT PUSH2 0xB77 JUMPI PUSH1 0x40 MLOAD PUSH3 0x461BCD PUSH1 0xE5 SHL DUP2 MSTORE PUSH1 0x20 PUSH1 0x4 DUP3 ADD MSTORE PUSH1 0x38 PUSH1 0x24 DUP3 ADD MSTORE PUSH32 0x5468652063616E6469646174652049442067726561746572207468616E207468 PUSH1 0x44 DUP3 ADD MSTORE PUSH32 0x65206E756D626572206F662063616E6469646174657320210000000000000000 PUSH1 0x64 DUP3 ADD MSTORE PUSH1 0x84 ADD PUSH2 0x26F JUMP JUMPDEST PUSH1 0x1 SLOAD PUSH1 0x40 MLOAD PUSH4 0x14294617 PUSH1 0xE1 SHL DUP2 MSTORE PUSH1 0x1 PUSH1 0x1 PUSH1 0xA0 SHL SUB DUP6 DUP2 AND PUSH1 0x4 DUP4 ADD MSTORE PUSH1 0x24 DUP3 ADD DUP5 SWAP1 MSTORE SWAP1 SWAP2 AND SWAP1 PUSH4 0x28528C2E SWAP1 PUSH1 0x44 ADD PUSH1 0x20 PUSH1 0x40 MLOAD DUP1 DUP4 SUB DUP2 PUSH1 0x0 DUP8 DUP1 EXTCODESIZE ISZERO DUP1 ISZERO PUSH2 0xBC5 JUMPI PUSH1 0x0 DUP1 REVERT JUMPDEST POP GAS CALL ISZERO DUP1 ISZERO PUSH2 0xBD9 JUMPI RETURNDATASIZE PUSH1 0x0 DUP1 RETURNDATACOPY RETURNDATASIZE PUSH1 0x0 REVERT JUMPDEST POP POP POP POP PUSH1 0x40 MLOAD RETURNDATASIZE PUSH1 0x1F NOT PUSH1 0x1F DUP3 ADD AND DUP3 ADD DUP1 PUSH1 0x40 MSTORE POP DUP2 ADD SWAP1 PUSH2 0xBFD SWAP2 SWAP1 PUSH2 0x152F JUMP JUMPDEST POP PUSH2 0xC35 DUP2 PUSH1 0x5 DUP5 DUP2 SLOAD DUP2 LT PUSH2 0xC15 JUMPI PUSH2 0xC15 PUSH2 0x1801 JUMP JUMPDEST SWAP1 PUSH1 0x0 MSTORE PUSH1 0x20 PUSH1 0x0 KECCAK256 SWAP1 PUSH1 0x4 MUL ADD PUSH1 0x3 ADD SLOAD PUSH2 0xD68 SWAP1 SWAP2 SWAP1 PUSH4 0xFFFFFFFF AND JUMP JUMPDEST PUSH1 0x5 DUP4 DUP2 SLOAD DUP2 LT PUSH2 0xC48 JUMPI PUSH2 0xC48 PUSH2 0x1801 JUMP JUMPDEST PUSH1 0x0 SWAP2 DUP3 MSTORE PUSH1 0x20 DUP1 DUP4 KECCAK256 PUSH1 0x4 SWAP3 DUP4 MUL ADD PUSH1 0x3 ADD SWAP4 SWAP1 SWAP4 SSTORE PUSH1 0x1 PUSH1 0x1 PUSH1 0xA0 SHL SUB DUP7 AND DUP3 MSTORE SWAP1 SWAP2 MSTORE PUSH1 0x40 SWAP1 KECCAK256 DUP3 DUP2 SSTORE PUSH1 0x1 DUP1 DUP3 ADD DUP4 SWAP1 SSTORE PUSH1 0x2 SWAP1 SWAP2 ADD DUP1 SLOAD PUSH1 0xFF NOT AND SWAP1 SWAP2 OR SWAP1 SSTORE PUSH2 0xC96 DUP3 PUSH2 0xD7B JUMP JUMPDEST PUSH2 0xCE3 JUMPI PUSH2 0xCA2 PUSH2 0xDD6 JUMP JUMPDEST PUSH1 0x5 DUP4 DUP2 SLOAD DUP2 LT PUSH2 0xCB5 JUMPI PUSH2 0xCB5 PUSH2 0x1801 JUMP JUMPDEST SWAP1 PUSH1 0x0 MSTORE PUSH1 0x20 PUSH1 0x0 KECCAK256 SWAP1 PUSH1 0x4 MUL ADD PUSH1 0x3 ADD SLOAD GT DUP1 PUSH2 0xCD5 JUMPI POP PUSH1 0x6 SLOAD PUSH1 0x3 GT JUMPDEST ISZERO PUSH2 0xCEB JUMPI PUSH2 0xCE3 DUP3 PUSH2 0xE17 JUMP JUMPDEST PUSH2 0xCEB PUSH2 0xE88 JUMP JUMPDEST POP POP POP JUMP JUMPDEST PUSH1 0x0 PUSH2 0xD3E PUSH2 0xCFD PUSH2 0x101A JUMP JUMPDEST DUP4 PUSH1 0x40 MLOAD PUSH2 0x1901 PUSH1 0xF0 SHL PUSH1 0x20 DUP3 ADD MSTORE PUSH1 0x22 DUP2 ADD DUP4 SWAP1 MSTORE PUSH1 0x42 DUP2 ADD DUP3 SWAP1 MSTORE PUSH1 0x0 SWAP1 PUSH1 0x62 ADD PUSH1 0x40 MLOAD PUSH1 0x20 DUP2 DUP4 SUB SUB DUP2 MSTORE SWAP1 PUSH1 0x40 MSTORE DUP1 MLOAD SWAP1 PUSH1 0x20 ADD KECCAK256 SWAP1 POP SWAP3 SWAP2 POP POP JUMP JUMPDEST SWAP3 SWAP2 POP POP JUMP JUMPDEST PUSH1 0x0 DUP1 PUSH1 0x0 PUSH2 0xD53 DUP6 DUP6 PUSH2 0x1141 JUMP JUMPDEST SWAP2 POP SWAP2 POP PUSH2 0xD60 DUP2 PUSH2 0x11B1 JUMP JUMPDEST POP SWAP4 SWAP3 POP POP POP JUMP JUMPDEST PUSH1 0x0 PUSH2 0xD74 DUP3 DUP5 PUSH2 0x1711 JUMP JUMPDEST SWAP4 SWAP3 POP POP POP JUMP JUMPDEST PUSH1 0x0 DUP1 JUMPDEST PUSH1 0x6 SLOAD PUSH1 0xFF DUP3 AND LT ISZERO PUSH2 0xDCD JUMPI PUSH1 0x6 DUP2 PUSH1 0xFF AND DUP2 SLOAD DUP2 LT PUSH2 0xDA2 JUMPI PUSH2 0xDA2 PUSH2 0x1801 JUMP JUMPDEST SWAP1 PUSH1 0x0 MSTORE PUSH1 0x20 PUSH1 0x0 KECCAK256 ADD SLOAD DUP4 EQ ISZERO PUSH2 0xDBD JUMPI POP PUSH1 0x1 SWAP3 SWAP2 POP POP JUMP JUMPDEST PUSH2 0xDC6 DUP2 PUSH2 0x17B5 JUMP JUMPDEST SWAP1 POP PUSH2 0xD7F JUMP JUMPDEST POP PUSH1 0x0 SWAP3 SWAP2 POP POP JUMP JUMPDEST PUSH1 0x6 SLOAD PUSH1 0x0 SWAP1 DUP1 PUSH2 0xDE8 JUMPI PUSH1 0x0 PUSH2 0xE11 JUMP JUMPDEST PUSH1 0x6 PUSH2 0xDF5 PUSH1 0x1 DUP4 PUSH2 0x174E JUMP JUMPDEST DUP2 SLOAD DUP2 LT PUSH2 0xE05 JUMPI PUSH2 0xE05 PUSH2 0x1801 JUMP JUMPDEST SWAP1 PUSH1 0x0 MSTORE PUSH1 0x20 PUSH1 0x0 KECCAK256 ADD SLOAD JUMPDEST SWAP2 POP POP SWAP1 JUMP JUMPDEST PUSH1 0x6 SLOAD PUSH1 0x3 DUP2 LT ISZERO PUSH2 0xE59 JUMPI POP PUSH1 0x6 DUP1 SLOAD PUSH1 0x1 DUP2 ADD DUP3 SSTORE PUSH1 0x0 SWAP2 SWAP1 SWAP2 MSTORE PUSH32 0xF652222313E28459528D920B65115C16C04F3EFC82AAEDC97BE59F3F377C0D3F ADD SSTORE JUMP JUMPDEST DUP2 PUSH1 0x6 PUSH2 0xE68 PUSH1 0x1 PUSH1 0x3 PUSH2 0x174E JUMP JUMPDEST DUP2 SLOAD DUP2 LT PUSH2 0xE78 JUMPI PUSH2 0xE78 PUSH2 0x1801 JUMP JUMPDEST PUSH1 0x0 SWAP2 DUP3 MSTORE PUSH1 0x20 SWAP1 SWAP2 KECCAK256 ADD SSTORE POP POP JUMP JUMPDEST PUSH1 0x6 SLOAD PUSH2 0xE91 JUMPI JUMP JUMPDEST PUSH1 0x0 JUMPDEST PUSH1 0x6 SLOAD PUSH2 0xEA3 SWAP1 PUSH1 0x1 SWAP1 PUSH2 0x174E JUMP JUMPDEST DUP2 PUSH1 0xFF AND LT ISZERO PUSH2 0x1017 JUMPI PUSH1 0x0 PUSH2 0xEBA DUP3 PUSH1 0x1 PUSH2 0x1729 JUMP JUMPDEST SWAP1 POP JUMPDEST PUSH1 0x6 SLOAD PUSH1 0xFF DUP3 AND LT ISZERO PUSH2 0x1006 JUMPI PUSH1 0x0 PUSH1 0x6 DUP4 PUSH1 0xFF AND DUP2 SLOAD DUP2 LT PUSH2 0xEE2 JUMPI PUSH2 0xEE2 PUSH2 0x1801 JUMP JUMPDEST SWAP1 PUSH1 0x0 MSTORE PUSH1 0x20 PUSH1 0x0 KECCAK256 ADD SLOAD SWAP1 POP PUSH1 0x0 PUSH1 0x6 DUP4 PUSH1 0xFF AND DUP2 SLOAD DUP2 LT PUSH2 0xF07 JUMPI PUSH2 0xF07 PUSH2 0x1801 JUMP JUMPDEST SWAP1 PUSH1 0x0 MSTORE PUSH1 0x20 PUSH1 0x0 KECCAK256 ADD SLOAD SWAP1 POP PUSH1 0x5 DUP2 DUP2 SLOAD DUP2 LT PUSH2 0xF27 JUMPI PUSH2 0xF27 PUSH2 0x1801 JUMP JUMPDEST SWAP1 PUSH1 0x0 MSTORE PUSH1 0x20 PUSH1 0x0 KECCAK256 SWAP1 PUSH1 0x4 MUL ADD PUSH1 0x3 ADD SLOAD PUSH1 0x5 DUP4 DUP2 SLOAD DUP2 LT PUSH2 0xF4C JUMPI PUSH2 0xF4C PUSH2 0x1801 JUMP JUMPDEST SWAP1 PUSH1 0x0 MSTORE PUSH1 0x20 PUSH1 0x0 KECCAK256 SWAP1 PUSH1 0x4 MUL ADD PUSH1 0x3 ADD SLOAD LT ISZERO PUSH2 0xFF3 JUMPI PUSH1 0x0 PUSH1 0x6 DUP6 PUSH1 0xFF AND DUP2 SLOAD DUP2 LT PUSH2 0xF7C JUMPI PUSH2 0xF7C PUSH2 0x1801 JUMP JUMPDEST SWAP1 PUSH1 0x0 MSTORE PUSH1 0x20 PUSH1 0x0 KECCAK256 ADD SLOAD SWAP1 POP PUSH1 0x6 DUP5 PUSH1 0xFF AND DUP2 SLOAD DUP2 LT PUSH2 0xF9F JUMPI PUSH2 0xF9F PUSH2 0x1801 JUMP JUMPDEST SWAP1 PUSH1 0x0 MSTORE PUSH1 0x20 PUSH1 0x0 KECCAK256 ADD SLOAD PUSH1 0x6 DUP7 PUSH1 0xFF AND DUP2 SLOAD DUP2 LT PUSH2 0xFC0 JUMPI PUSH2 0xFC0 PUSH2 0x1801 JUMP JUMPDEST SWAP1 PUSH1 0x0 MSTORE PUSH1 0x20 PUSH1 0x0 KECCAK256 ADD DUP2 SWAP1 SSTORE POP DUP1 PUSH1 0x6 DUP6 PUSH1 0xFF AND DUP2 SLOAD DUP2 LT PUSH2 0xFE5 JUMPI PUSH2 0xFE5 PUSH2 0x1801 JUMP JUMPDEST PUSH1 0x0 SWAP2 DUP3 MSTORE PUSH1 0x20 SWAP1 SWAP2 KECCAK256 ADD SSTORE POP JUMPDEST POP POP DUP1 PUSH2 0xFFF SWAP1 PUSH2 0x17B5 JUMP JUMPDEST SWAP1 POP PUSH2 0xEBD JUMP JUMPDEST POP PUSH2 0x1010 DUP2 PUSH2 0x17B5 JUMP JUMPDEST SWAP1 POP PUSH2 0xE94 JUMP JUMPDEST POP JUMP JUMPDEST PUSH1 0x0 ADDRESS PUSH1 0x1 PUSH1 0x1 PUSH1 0xA0 SHL SUB PUSH32 0x0 AND EQ DUP1 ISZERO PUSH2 0x1073 JUMPI POP PUSH32 0x0 CHAINID EQ JUMPDEST ISZERO PUSH2 0x109D JUMPI POP PUSH32 0x0 SWAP1 JUMP JUMPDEST POP PUSH1 0x40 DUP1 MLOAD PUSH32 0x0 PUSH1 0x20 DUP1 DUP4 ADD SWAP2 SWAP1 SWAP2 MSTORE PUSH32 0x0 DUP3 DUP5 ADD MSTORE PUSH32 0x0 PUSH1 0x60 DUP4 ADD MSTORE CHAINID PUSH1 0x80 DUP4 ADD MSTORE ADDRESS PUSH1 0xA0 DUP1 DUP5 ADD SWAP2 SWAP1 SWAP2 MSTORE DUP4 MLOAD DUP1 DUP5 SUB SWAP1 SWAP2 ADD DUP2 MSTORE PUSH1 0xC0 SWAP1 SWAP3 ADD SWAP1 SWAP3 MSTORE DUP1 MLOAD SWAP2 ADD KECCAK256 SWAP1 JUMP JUMPDEST PUSH1 0x0 DUP1 DUP3 MLOAD PUSH1 0x41 EQ ISZERO PUSH2 0x1178 JUMPI PUSH1 0x20 DUP4 ADD MLOAD PUSH1 0x40 DUP5 ADD MLOAD PUSH1 0x60 DUP6 ADD MLOAD PUSH1 0x0 BYTE PUSH2 0x116C DUP8 DUP3 DUP6 DUP6 PUSH2 0x1367 JUMP JUMPDEST SWAP5 POP SWAP5 POP POP POP POP PUSH2 0x11AA JUMP JUMPDEST DUP3 MLOAD PUSH1 0x40 EQ ISZERO PUSH2 0x11A2 JUMPI PUSH1 0x20 DUP4 ADD MLOAD PUSH1 0x40 DUP5 ADD MLOAD PUSH2 0x1197 DUP7 DUP4 DUP4 PUSH2 0x1454 JUMP JUMPDEST SWAP4 POP SWAP4 POP POP POP PUSH2 0x11AA JUMP JUMPDEST POP PUSH1 0x0 SWAP1 POP PUSH1 0x2 JUMPDEST SWAP3 POP SWAP3 SWAP1 POP JUMP JUMPDEST PUSH1 0x0 DUP2 PUSH1 0x4 DUP2 GT ISZERO PUSH2 0x11C5 JUMPI PUSH2 0x11C5 PUSH2 0x17EB JUMP JUMPDEST EQ ISZERO PUSH2 0x11CE JUMPI POP JUMP JUMPDEST PUSH1 0x1 DUP2 PUSH1 0x4 DUP2 GT ISZERO PUSH2 0x11E2 JUMPI PUSH2 0x11E2 PUSH2 0x17EB JUMP JUMPDEST EQ ISZERO PUSH2 0x122B JUMPI PUSH1 0x40 MLOAD PUSH3 0x461BCD PUSH1 0xE5 SHL DUP2 MSTORE PUSH1 0x20 PUSH1 0x4 DUP3 ADD MSTORE PUSH1 0x18 PUSH1 0x24 DUP3 ADD MSTORE PUSH24 0x45434453413A20696E76616C6964207369676E6174757265 PUSH1 0x40 SHL PUSH1 0x44 DUP3 ADD MSTORE PUSH1 0x64 ADD PUSH2 0x26F JUMP JUMPDEST PUSH1 0x2 DUP2 PUSH1 0x4 DUP2 GT ISZERO PUSH2 0x123F JUMPI PUSH2 0x123F PUSH2 0x17EB JUMP JUMPDEST EQ ISZERO PUSH2 0x128D JUMPI PUSH1 0x40 MLOAD PUSH3 0x461BCD PUSH1 0xE5 SHL DUP2 MSTORE PUSH1 0x20 PUSH1 0x4 DUP3 ADD MSTORE PUSH1 0x1F PUSH1 0x24 DUP3 ADD MSTORE PUSH32 0x45434453413A20696E76616C6964207369676E6174757265206C656E67746800 PUSH1 0x44 DUP3 ADD MSTORE PUSH1 0x64 ADD PUSH2 0x26F JUMP JUMPDEST PUSH1 0x3 DUP2 PUSH1 0x4 DUP2 GT ISZERO PUSH2 0x12A1 JUMPI PUSH2 0x12A1 PUSH2 0x17EB JUMP JUMPDEST EQ ISZERO PUSH2 0x12FA JUMPI PUSH1 0x40 MLOAD PUSH3 0x461BCD PUSH1 0xE5 SHL DUP2 MSTORE PUSH1 0x20 PUSH1 0x4 DUP3 ADD MSTORE PUSH1 0x22 PUSH1 0x24 DUP3 ADD MSTORE PUSH32 0x45434453413A20696E76616C6964207369676E6174757265202773272076616C PUSH1 0x44 DUP3 ADD MSTORE PUSH2 0x7565 PUSH1 0xF0 SHL PUSH1 0x64 DUP3 ADD MSTORE PUSH1 0x84 ADD PUSH2 0x26F JUMP JUMPDEST PUSH1 0x4 DUP2 PUSH1 0x4 DUP2 GT ISZERO PUSH2 0x130E JUMPI PUSH2 0x130E PUSH2 0x17EB JUMP JUMPDEST EQ ISZERO PUSH2 0x1017 JUMPI PUSH1 0x40 MLOAD PUSH3 0x461BCD PUSH1 0xE5 SHL DUP2 MSTORE PUSH1 0x20 PUSH1 0x4 DUP3 ADD MSTORE PUSH1 0x22 PUSH1 0x24 DUP3 ADD MSTORE PUSH32 0x45434453413A20696E76616C6964207369676E6174757265202776272076616C PUSH1 0x44 DUP3 ADD MSTORE PUSH2 0x7565 PUSH1 0xF0 SHL PUSH1 0x64 DUP3 ADD MSTORE PUSH1 0x84 ADD PUSH2 0x26F JUMP JUMPDEST PUSH1 0x0 DUP1 PUSH32 0x7FFFFFFFFFFFFFFFFFFFFFFFFFFFFFFF5D576E7357A4501DDFE92F46681B20A0 DUP4 GT ISZERO PUSH2 0x139E JUMPI POP PUSH1 0x0 SWAP1 POP PUSH1 0x3 PUSH2 0x144B JUMP JUMPDEST DUP5 PUSH1 0xFF AND PUSH1 0x1B EQ ISZERO DUP1 ISZERO PUSH2 0x13B6 JUMPI POP DUP5 PUSH1 0xFF AND PUSH1 0x1C EQ ISZERO JUMPDEST ISZERO PUSH2 0x13C7 JUMPI POP PUSH1 0x0 SWAP1 POP PUSH1 0x4 PUSH2 0x144B JUMP JUMPDEST PUSH1 0x40 DUP1 MLOAD PUSH1 0x0 DUP1 DUP3 MSTORE PUSH1 0x20 DUP3 ADD DUP1 DUP5 MSTORE DUP10 SWAP1 MSTORE PUSH1 0xFF DUP9 AND SWAP3 DUP3 ADD SWAP3 SWAP1 SWAP3 MSTORE PUSH1 0x60 DUP2 ADD DUP7 SWAP1 MSTORE PUSH1 0x80 DUP2 ADD DUP6 SWAP1 MSTORE PUSH1 0x1 SWAP1 PUSH1 0xA0 ADD PUSH1 0x20 PUSH1 0x40 MLOAD PUSH1 0x20 DUP2 SUB SWAP1 DUP1 DUP5 SUB SWAP1 DUP6 GAS STATICCALL ISZERO DUP1 ISZERO PUSH2 0x141B JUMPI RETURNDATASIZE PUSH1 0x0 DUP1 RETURNDATACOPY RETURNDATASIZE PUSH1 0x0 REVERT JUMPDEST POP POP PUSH1 0x40 MLOAD PUSH1 0x1F NOT ADD MLOAD SWAP2 POP POP PUSH1 0x1 PUSH1 0x1 PUSH1 0xA0 SHL SUB DUP2 AND PUSH2 0x1444 JUMPI PUSH1 0x0 PUSH1 0x1 SWAP3 POP SWAP3 POP POP PUSH2 0x144B JUMP JUMPDEST SWAP2 POP PUSH1 0x0 SWAP1 POP JUMPDEST SWAP5 POP SWAP5 SWAP3 POP POP POP JUMP JUMPDEST PUSH1 0x0 DUP1 PUSH1 0x1 PUSH1 0x1 PUSH1 0xFF SHL SUB DUP4 AND PUSH1 0xFF DUP5 SWAP1 SHR PUSH1 0x1B ADD PUSH2 0x1475 DUP8 DUP3 DUP9 DUP6 PUSH2 0x1367 JUMP JUMPDEST SWAP4 POP SWAP4 POP POP POP SWAP4 POP SWAP4 SWAP2 POP POP JUMP JUMPDEST DUP1 CALLDATALOAD PUSH1 0x1 PUSH1 0x1 PUSH1 0xA0 SHL SUB DUP2 AND DUP2 EQ PUSH2 0x149A JUMPI PUSH1 0x0 DUP1 REVERT JUMPDEST SWAP2 SWAP1 POP JUMP JUMPDEST PUSH1 0x0 DUP1 DUP4 PUSH1 0x1F DUP5 ADD SLT PUSH2 0x14B1 JUMPI PUSH1 0x0 DUP1 REVERT JUMPDEST POP DUP2 CALLDATALOAD PUSH8 0xFFFFFFFFFFFFFFFF DUP2 GT ISZERO PUSH2 0x14C9 JUMPI PUSH1 0x0 DUP1 REVERT JUMPDEST PUSH1 0x20 DUP4 ADD SWAP2 POP DUP4 PUSH1 0x20 DUP3 DUP6 ADD ADD GT ISZERO PUSH2 0x11AA JUMPI PUSH1 0x0 DUP1 REVERT JUMPDEST PUSH1 0x0 PUSH1 0x20 DUP3 DUP5 SUB SLT ISZERO PUSH2 0x14F3 JUMPI PUSH1 0x0 DUP1 REVERT JUMPDEST PUSH2 0xD74 DUP3 PUSH2 0x1483 JUMP JUMPDEST PUSH1 0x0 DUP1 PUSH1 0x0 PUSH1 0x60 DUP5 DUP7 SUB SLT ISZERO PUSH2 0x1511 JUMPI PUSH1 0x0 DUP1 REVERT JUMPDEST PUSH2 0x151A DUP5 PUSH2 0x1483 JUMP JUMPDEST SWAP6 PUSH1 0x20 DUP6 ADD CALLDATALOAD SWAP6 POP PUSH1 0x40 SWAP1 SWAP5 ADD CALLDATALOAD SWAP4 SWAP3 POP POP POP JUMP JUMPDEST PUSH1 0x0 PUSH1 0x20 DUP3 DUP5 SUB SLT ISZERO PUSH2 0x1541 JUMPI PUSH1 0x0 DUP1 REVERT JUMPDEST DUP2 MLOAD DUP1 ISZERO ISZERO DUP2 EQ PUSH2 0xD74 JUMPI PUSH1 0x0 DUP1 REVERT JUMPDEST PUSH1 0x0 DUP1 PUSH1 0x0 PUSH1 0x40 DUP5 DUP7 SUB SLT ISZERO PUSH2 0x1566 JUMPI PUSH1 0x0 DUP1 REVERT JUMPDEST DUP4 CALLDATALOAD SWAP3 POP PUSH1 0x20 DUP5 ADD CALLDATALOAD PUSH8 0xFFFFFFFFFFFFFFFF DUP2 GT ISZERO PUSH2 0x1584 JUMPI PUSH1 0x0 DUP1 REVERT JUMPDEST PUSH2 0x1590 DUP7 DUP3 DUP8 ADD PUSH2 0x149F JUMP JUMPDEST SWAP5 SWAP8 SWAP1 SWAP7 POP SWAP4 SWAP5 POP POP POP POP JUMP JUMPDEST PUSH1 0x0 DUP1 PUSH1 0x0 DUP1 PUSH1 0x0 PUSH1 0x80 DUP7 DUP9 SUB SLT ISZERO PUSH2 0x15B5 JUMPI PUSH1 0x0 DUP1 REVERT JUMPDEST DUP6 CALLDATALOAD PUSH8 0xFFFFFFFFFFFFFFFF DUP2 GT ISZERO PUSH2 0x15CC JUMPI PUSH1 0x0 DUP1 REVERT JUMPDEST PUSH2 0x15D8 DUP9 DUP3 DUP10 ADD PUSH2 0x149F JUMP JUMPDEST SWAP1 SWAP7 POP SWAP5 POP PUSH2 0x15EB SWAP1 POP PUSH1 0x20 DUP8 ADD PUSH2 0x1483 JUMP JUMPDEST SWAP5 SWAP8 SWAP4 SWAP7 POP SWAP4 SWAP5 PUSH1 0x40 DUP2 ADD CALLDATALOAD SWAP5 POP PUSH1 0x60 ADD CALLDATALOAD SWAP3 SWAP2 POP POP JUMP JUMPDEST PUSH1 0x0 DUP1 PUSH1 0x40 DUP4 DUP6 SUB SLT ISZERO PUSH2 0x1616 JUMPI PUSH1 0x0 DUP1 REVERT JUMPDEST POP POP DUP1 CALLDATALOAD SWAP3 PUSH1 0x20 SWAP1 SWAP2 ADD CALLDATALOAD SWAP2 POP JUMP JUMPDEST PUSH1 0x0 DUP2 MLOAD DUP1 DUP5 MSTORE PUSH1 0x0 JUMPDEST DUP2 DUP2 LT ISZERO PUSH2 0x164B JUMPI PUSH1 0x20 DUP2 DUP6 ADD DUP2 ADD MLOAD DUP7 DUP4 ADD DUP3 ADD MSTORE ADD PUSH2 0x162F JUMP JUMPDEST DUP2 DUP2 GT ISZERO PUSH2 0x165D JUMPI PUSH1 0x0 PUSH1 0x20 DUP4 DUP8 ADD ADD MSTORE JUMPDEST POP PUSH1 0x1F ADD PUSH1 0x1F NOT AND SWAP3 SWAP1 SWAP3 ADD PUSH1 0x20 ADD SWAP3 SWAP2 POP POP JUMP JUMPDEST PUSH1 0x0 PUSH1 0x20 DUP1 DUP4 ADD DUP2 DUP5 MSTORE DUP1 DUP6 MLOAD DUP1 DUP4 MSTORE PUSH1 0x40 SWAP3 POP DUP3 DUP7 ADD SWAP2 POP DUP3 DUP2 PUSH1 0x5 SHL DUP8 ADD ADD DUP5 DUP9 ADD PUSH1 0x0 JUMPDEST DUP4 DUP2 LT ISZERO PUSH2 0x1703 JUMPI PUSH1 0x3F NOT DUP10 DUP5 SUB ADD DUP6 MSTORE DUP2 MLOAD PUSH1 0x80 DUP2 MLOAD DUP2 DUP7 MSTORE PUSH2 0x16BF DUP3 DUP8 ADD DUP3 PUSH2 0x1625 JUMP JUMPDEST SWAP2 POP POP PUSH1 0xFF DUP10 DUP4 ADD MLOAD AND DUP10 DUP7 ADD MSTORE DUP8 DUP3 ADD MLOAD DUP6 DUP3 SUB DUP10 DUP8 ADD MSTORE PUSH2 0x16E2 DUP3 DUP3 PUSH2 0x1625 JUMP JUMPDEST PUSH1 0x60 SWAP4 DUP5 ADD MLOAD SWAP7 SWAP1 SWAP4 ADD SWAP6 SWAP1 SWAP6 MSTORE POP SWAP5 DUP8 ADD SWAP5 SWAP3 POP SWAP1 DUP7 ADD SWAP1 PUSH1 0x1 ADD PUSH2 0x1699 JUMP JUMPDEST POP SWAP1 SWAP9 SWAP8 POP POP POP POP POP POP POP POP JUMP JUMPDEST PUSH1 0x0 DUP3 NOT DUP3 GT ISZERO PUSH2 0x1724 JUMPI PUSH2 0x1724 PUSH2 0x17D5 JUMP JUMPDEST POP ADD SWAP1 JUMP JUMPDEST PUSH1 0x0 PUSH1 0xFF DUP3 AND PUSH1 0xFF DUP5 AND DUP1 PUSH1 0xFF SUB DUP3 GT ISZERO PUSH2 0x1746 JUMPI PUSH2 0x1746 PUSH2 0x17D5 JUMP JUMPDEST ADD SWAP4 SWAP3 POP POP POP JUMP JUMPDEST PUSH1 0x0 DUP3 DUP3 LT ISZERO PUSH2 0x1760 JUMPI PUSH2 0x1760 PUSH2 0x17D5 JUMP JUMPDEST POP SUB SWAP1 JUMP JUMPDEST PUSH1 0x1 DUP2 DUP2 SHR SWAP1 DUP3 AND DUP1 PUSH2 0x1779 JUMPI PUSH1 0x7F DUP3 AND SWAP2 POP JUMPDEST PUSH1 0x20 DUP3 LT DUP2 EQ ISZERO PUSH2 0x5C2 JUMPI PUSH4 0x4E487B71 PUSH1 0xE0 SHL PUSH1 0x0 MSTORE PUSH1 0x22 PUSH1 0x4 MSTORE PUSH1 0x24 PUSH1 0x0 REVERT JUMPDEST PUSH1 0x0 PUSH1 0x0 NOT DUP3 EQ ISZERO PUSH2 0x17AE JUMPI PUSH2 0x17AE PUSH2 0x17D5 JUMP JUMPDEST POP PUSH1 0x1 ADD SWAP1 JUMP JUMPDEST PUSH1 0x0 PUSH1 0xFF DUP3 AND PUSH1 0xFF DUP2 EQ ISZERO PUSH2 0x17CC JUMPI PUSH2 0x17CC PUSH2 0x17D5 JUMP JUMPDEST PUSH1 0x1 ADD SWAP3 SWAP2 POP POP JUMP JUMPDEST PUSH4 0x4E487B71 PUSH1 0xE0 SHL PUSH1 0x0 MSTORE PUSH1 0x11 PUSH1 0x4 MSTORE PUSH1 0x24 PUSH1 0x0 REVERT JUMPDEST PUSH4 0x4E487B71 PUSH1 0xE0 SHL PUSH1 0x0 MSTORE PUSH1 0x21 PUSH1 0x4 MSTORE PUSH1 0x24 PUSH1 0x0 REVERT JUMPDEST PUSH4 0x4E487B71 PUSH1 0xE0 SHL PUSH1 0x0 MSTORE PUSH1 0x32 PUSH1 0x4 MSTORE PUSH1 0x24 PUSH1 0x0 REVERT JUMPDEST PUSH4 0x4E487B71 PUSH1 0xE0 SHL PUSH1 0x0 MSTORE PUSH1 0x41 PUSH1 0x4 MSTORE PUSH1 0x24 PUSH1 0x0 REVERT INVALID LOG2 PUSH5 0x6970667358 0x22 SLT KECCAK256 MSIZE 0xE5 CALL 0xDE 0xCB SSTORE 0xE7 DUP8 0xB7 0x5C 0xDD DIFFICULTY JUMPDEST 0xD0 SWAP12 ISZERO 0xE6 SIGNEXTEND 0xCE 0xC9 PUSH23 0xFB558E17FA817D0AB4048364736F6C6343000806003300 ","sha1":"ecd912443d7fc63f673e56f964fcba07c10cab9b","source":"pragma solidity ^0.8.0;\npragma experimental ABIEncoderV2;\n// SPDX-License-Identifier: MIT\n\nimport \"./OpenZepellin/contracts/utils/math/SafeMath.sol\";\nimport \"./Token.sol\";\n\nimport \"./OpenZepellin/contracts/utils/cryptography/ECDSA.sol\";\nimport \"./OpenZepellin/contracts/utils/cryptography/draft-EIP712.sol\";\n\n/**\n    @title Voting Contract\n    @notice Voters Register (receive 1 WKND) token, so they can particapate in the elections\n\n */\ncontract Voting is EIP712{\n\n    uint256 constant ELECTION_WINNERS_LENGTH = 3;\n    uint256 constant REGISTRATION_AMOUNT = 1;\n\n    using SafeMath for uint256;\n\n    struct Candidate {\n        string name;\n        uint8 age;\n        string cult;\n        uint256 votes;\n    }\n\n    struct Vote {\n        uint256 candidateId;\n        uint256 amount;\n        bool hasVoted;\n    }\n\n    address king;\n\n    Token wakandaToken;\n\n    mapping (address => bool) isRegistered;\n    mapping (address => uint256) nonces;\n    mapping (address => Vote) votes;\n\n    Candidate[] candidates;\n\n    uint256[] electionWinners;\n\n    bool hasEnded;\n\n    constructor(string memory _electionName, address _wakandaTokenAddress, string[] memory _candidateNames, uint8[] memory _candidateAges, string[] memory _candidateCults) EIP712(_electionName, \"1.0.0\") {\n\n        king = msg.sender;\n\n        _addCandidates(_candidateNames, _candidateAges, _candidateCults);\n\n        wakandaToken = Token(_wakandaTokenAddress);\n\n    }\n\n    function register(address _citizen) public returns (bool) {\n        \n        require(isRegistered[_citizen] != true, \"The citizen has been registered - there are no multiple registrations.\");\n\n        wakandaToken.usingRegistrationRight(_citizen, REGISTRATION_AMOUNT);\n        isRegistered[_citizen] = true;\n\n        return true;\n\n    }\n\n    function citizenIsRegistered(address _citizenAddress) public view returns (bool) {\n\n        return isRegistered[_citizenAddress];\n\n    }\n\n    function vote(uint256 _candidateId, uint256 _amount) public {\n\n        _vote(msg.sender, _candidateId, _amount);\n\n    }\n\n    function citizenHasVoted(address _citizenAddress) public view returns (Vote memory) {\n\n        return votes[_citizenAddress];\n        \n    }\n\n    function winningCandidates() public view returns (Candidate[] memory){\n    \n        Candidate[] memory winners = new Candidate[](electionWinners.length);\n        for (uint8 i = 0; i < electionWinners.length; ++i) winners[i] = candidates[electionWinners[i]];\n        return winners;\n        \n    }\n\n    function seeAllCandidates() public view returns (Candidate[] memory) {\n\n        return candidates;\n\n    }\n    function getNonce(address citizenAddress) public view returns (uint256){\n\n        return nonces[citizenAddress];\n        \n    }\n\n    function getDigest(address citizenAddress, uint256 candidateId, uint256 amount) public view returns (bytes32){\n\n        uint256 nonce = nonces[citizenAddress];\n\n        return _hashTypedDataV4(\n            keccak256(\n                abi.encode(    \n                    keccak256(\"vote(address citizenAddress,uint256 candidateId,uint256 amount,uint256 nonce)\"),\n                    citizenAddress,\n                    candidateId,\n                    amount,\n                    nonce\n                )\n            )\n        );\n    }\n\n    function getSigner(bytes32 digest, bytes calldata signature) public pure returns (address){\n        return  ECDSA.recover(digest, signature);\n    }\n\n\n    function delegatedVote(bytes calldata signature, address citizenAddress, uint256 candidateId, uint256 amount) public {\n\n        bytes32 digest = getDigest(citizenAddress, candidateId, amount);\n        address signer = getSigner(digest, signature);\n        require(signer == citizenAddress, \"Function `vote` : invalid signature\");\n        require(signer != address(0), \"ECDSA: invalid signature\");\n\n        _vote(citizenAddress, candidateId, amount);\n\n        nonces[citizenAddress]++;\n    }\n\n    function _addCandidates(string[] memory _candidateNames, uint8[] memory _candidateAges, string[] memory _candidateCults) internal {\n\n        require(msg.sender == king, \"Only KING can start a new election !\");\n        require(_candidateNames.length == _candidateAges.length, \"Length mismatch - candidate names and ages !\");\n        require(_candidateNames.length == _candidateCults.length, \"Length mismatch - candidate names and ages !\");\n\n        for(uint256 i = 0; i < _candidateNames.length; ++i) {\n            candidates.push(Candidate({name: _candidateNames[i], age: _candidateAges[i], cult: _candidateCults[i], votes: 0}));\n        }\n\n    }\n\n    \n    function _vote(address _citizen, uint256 _candidateId, uint256 _amount) internal {\n\n        require(hasEnded != true, \"Voting for the current election has ended .\");\n        require(votes[_citizen].hasVoted != true, \"The citizen already voted in the election .\");\n        require(_amount >= REGISTRATION_AMOUNT, \"The amount is lesser than the REGISTRATION AMOUNT.\");\n        require(_candidateId < candidates.length, \"The candidate ID greater than the number of candidates !\");\n\n        wakandaToken.usingVotingRight(_citizen, _amount);\n\n        candidates[_candidateId].votes = candidates[_candidateId].votes.add(_amount);\n        votes[_citizen].candidateId = _candidateId;\n        votes[_citizen].amount = _amount;\n        votes[_citizen].hasVoted = true;\n\n        if(_isInElectionWinners(_candidateId) == false){ // potentially a new challenger \n         \n            if (candidates[_candidateId].votes > _getLastPlaceVotes() || electionWinners.length < ELECTION_WINNERS_LENGTH) { // entering the first N places\n   \n                _insertIntoeElectionWinners(_candidateId);\n    \n                _sortElectionWinners();\n                // TODO : emit event\n\n            } else {\n\n                // do nothing - current candidate didn't enter the first three places\n            }\n            \n        } else { // it is not a new challenger\n        \n            _sortElectionWinners(); // the order can be different now\n\n        }\n    }\n\n    function _sortElectionWinners() internal {\n\n        if(electionWinners.length == 0) return;\n\n        for(uint8 i = 0; i < electionWinners.length - 1; ++i){\n            for(uint8 j = i+1; j < electionWinners.length; ++j){\n                uint256 currPlaceId = electionWinners[i];\n                uint256 nextPlaceId = electionWinners[j];\n                if(candidates[currPlaceId].votes < candidates[nextPlaceId].votes){\n                    uint256 temp = electionWinners[i];\n                    electionWinners[i] = electionWinners[j];\n                    electionWinners[j] = temp;\n\n                }\n            }\n        }\n    }\n\n    function _isInElectionWinners(uint256 _candidateId) internal view returns (bool){\n\n        for(uint8 i = 0; i < electionWinners.length; ++i){\n            if(_candidateId == electionWinners[i]) return true;\n        }\n        return false;\n    }\n\n    function _getLastPlaceVotes() internal view returns (uint256){\n        uint256 length = electionWinners.length;\n        return length > 0 ? electionWinners[length-1]: 0;\n    }\n\n    function _insertIntoeElectionWinners(uint256 _candidateId) internal {\n        uint256 length = electionWinners.length;\n        if(length < ELECTION_WINNERS_LENGTH){\n             electionWinners.push(_candidateId);\n        } else {\n            electionWinners[ELECTION_WINNERS_LENGTH-1] = _candidateId;\n        }\n    }\n}\n","sourcePath":"contracts/Voting.sol","type":"contract","deployment":{"address":"0x2287F56B61A8D64a79Dd827F7F287A82Ef08f8Ac","chainid":"4","blockHeight":9803321}}