{"bytecode":"6101406040523480156200001257600080fd5b5060405162001da038038062001da08339810160408190526200003591620005c2565b60408051808201825260058152640312e302e360dc1b60209182015286518782012060e08190527f06c015bd22b4c69690933c1058878ebdfef31f9aaae40bbe86d8a09fe1b2972c6101008190524660a081815285517f8b73c3c69bb8fe3d512ecc4cf759cc79239f7b179b0ffacaa9a75d522b39400f81870181905281880195909552606081810194909452608080820193909352308183018190528751808303909301835260c09182019097528151919095012090529290921b905261012052600080546001600160a01b031916331790556200011683838362000142565b5050600180546001600160a01b0319166001600160a01b03939093169290921790915550620007899050565b6000546001600160a01b03163314620001ae5760405162461bcd60e51b8152602060048201526024808201527f4f6e6c79204b494e472063616e2073746172742061206e657720656c656374696044820152636f6e202160e01b60648201526084015b60405180910390fd5b8151835114620002055760405162461bcd60e51b815260206004820152602c602482015260008051602062001d8083398151915260448201526b7320616e642061676573202160a01b6064820152608401620001a5565b80518351146200025c5760405162461bcd60e51b815260206004820152602c602482015260008051602062001d8083398151915260448201526b7320616e642061676573202160a01b6064820152608401620001a5565b60005b83518110156200036957600560405180608001604052808684815181106200028b576200028b6200075d565b60200260200101518152602001858481518110620002ad57620002ad6200075d565b602002602001015160ff168152602001848481518110620002d257620002d26200075d565b60209081029190910181015182526000918101829052835460018101855593825290819020825180519394600402909101926200031392849201906200036f565b5060208281015160018301805460ff191660ff909216919091179055604083015180516200034892600285019201906200036f565b5060608201518160030155505080620003619062000733565b90506200025f565b50505050565b8280546200037d90620006f6565b90600052602060002090601f016020900481019282620003a15760008555620003ec565b82601f10620003bc57805160ff1916838001178555620003ec565b82800160010185558215620003ec579182015b82811115620003ec578251825591602001919060010190620003cf565b50620003fa929150620003fe565b5090565b5b80821115620003fa5760008155600101620003ff565b600082601f8301126200042757600080fd5b81516020620004406200043a83620006d0565b6200069d565b80838252828201915082860187848660051b89010111156200046157600080fd5b6000805b86811015620004a85782516001600160401b0381111562000484578283fd5b620004948b88838d01016200052d565b865250938501939185019160010162000465565b509198975050505050505050565b600082601f830112620004c857600080fd5b81516020620004db6200043a83620006d0565b80838252828201915082860187848660051b8901011115620004fc57600080fd5b6000805b86811015620004a857825160ff811681146200051a578283fd5b8552938501939185019160010162000500565b600082601f8301126200053f57600080fd5b81516001600160401b038111156200055b576200055b62000773565b602062000571601f8301601f191682016200069d565b82815285828487010111156200058657600080fd5b60005b83811015620005a657858101830151828201840152820162000589565b83811115620005b85760008385840101525b5095945050505050565b600080600080600060a08688031215620005db57600080fd5b85516001600160401b0380821115620005f357600080fd5b6200060189838a016200052d565b602089015190975091506001600160a01b03821682146200062157600080fd5b6040880151919550808211156200063757600080fd5b6200064589838a0162000415565b945060608801519150808211156200065c57600080fd5b6200066a89838a01620004b6565b935060808801519150808211156200068157600080fd5b50620006908882890162000415565b9150509295509295909350565b604051601f8201601f191681016001600160401b0381118282101715620006c857620006c862000773565b604052919050565b60006001600160401b03821115620006ec57620006ec62000773565b5060051b60200190565b600181811c908216806200070b57607f821691505b602082108114156200072d57634e487b7160e01b600052602260045260246000fd5b50919050565b60006000198214156200075657634e487b7160e01b600052601160045260246000fd5b5060010190565b634e487b7160e01b600052603260045260246000fd5b634e487b7160e01b600052604160045260246000fd5b60805160a05160c05160601c60e05161010051610120516115a4620007dc6000396000610db101526000610e0001526000610ddb01526000610d3401526000610d5e01526000610d8801526115a46000f3fe608060405234801561001057600080fd5b50600436106100885760003560e01c8063b384abef1161005b578063b384abef14610116578063b8d06bc414610129578063de90bb6f1461013c578063f7b2ec0d1461015157600080fd5b80631565507e1461008d5780632d0335ab146100a2578063377968d4146100de5780634420e486146100f3575b600080fd5b6100a061009b3660046112aa565b61017c565b005b6100cb6100b03660046111ee565b6001600160a01b031660009081526003602052604090205490565b6040519081526020015b60405180910390f35b6100e661028f565b6040516100d5919061141e565b6101066101013660046111ee565b6102e7565b60405190151581526020016100d5565b6100a0610124366004611310565b61043b565b6100cb610137366004611209565b61044a565b6101446104da565b6040516100d5919061137f565b61016461015f36600461125e565b610678565b6040516001600160a01b0390911681526020016100d5565b600061018984848461044a565b90506000610198828888610678565b9050846001600160a01b0316816001600160a01b03161461020c5760405162461bcd60e51b815260206004820152602360248201527f46756e6374696f6e2060766f746560203a20696e76616c6964207369676e617460448201526275726560e81b60648201526084015b60405180910390fd5b6001600160a01b03811661025d5760405162461bcd60e51b815260206004820152601860248201527745434453413a20696e76616c6964207369676e617475726560401b6044820152606401610203565b6001600160a01b0385166000908152600360205260408120805491610281836114f1565b919050555050505050505050565b606060068054806020026020016040519081016040528092919081815260200182805480156102dd57602002820191906000526020600020905b8154815260200190600101908083116102c9575b5050505050905090565b6001600160a01b03811660009081526002602052604081205460ff1615156001141561038a5760405162461bcd60e51b815260206004820152604660248201527f54686520636974697a656e20686173206265656e20726567697374657265642060448201527f2d20746865726520617265206e6f206d756c7469706c652072656769737472616064820152653a34b7b7399760d11b608482015260a401610203565b6001805460405163bc0e60e160e01b81526001600160a01b038581166004830152602482019390935291169063bc0e60e190604401602060405180830381600087803b1580156103d957600080fd5b505af11580156103ed573d6000803e3d6000fd5b505050506040513d601f19601f82011682018060405250810190610411919061123c565b50506001600160a01b03166000908152600260205260409020805460ff1916600190811790915590565b6104463383836106c2565b5050565b6001600160a01b03831660008181526003602090815260408083205481517fa56f781f7251d29fca13933d69c34316ea277f967c4a968f77db62d983fe11209381019390935290820193909352606081018590526080810184905260a081018390529091906104d19060c001604051602081830303815290604052805190602001206109fd565b95945050505050565b60606005805480602002602001604051908101604052809291908181526020016000905b8282101561066f5783829060005260206000209060040201604051806080016040529081600082018054610531906114b6565b80601f016020809104026020016040519081016040528092919081815260200182805461055d906114b6565b80156105aa5780601f1061057f576101008083540402835291602001916105aa565b820191906000526020600020905b81548152906001019060200180831161058d57829003601f168201915b5050509183525050600182015460ff1660208201526002820180546040909201916105d4906114b6565b80601f0160208091040260200160405190810160405280929190818152602001828054610600906114b6565b801561064d5780601f106106225761010080835404028352916020019161064d565b820191906000526020600020905b81548152906001019060200180831161063057829003601f168201915b50505050508152602001600382015481525050815260200190600101906104fe565b50505050905090565b60006106ba8484848080601f016020809104026020016040519081016040528093929190818152602001838380828437600092019190915250610a5192505050565b949350505050565b60075460ff1615156001141561072e5760405162461bcd60e51b815260206004820152602b60248201527f566f74696e6720666f72207468652063757272656e7420656c656374696f6e2060448201526a3430b99032b73232b2101760a91b6064820152608401610203565b6001600160a01b03831660009081526004602052604090206002015460ff161515600114156107b35760405162461bcd60e51b815260206004820152602b60248201527f54686520636974697a656e20616c726561647920766f74656420696e2074686560448201526a1032b632b1ba34b7b7101760a91b6064820152608401610203565b600181101561081f5760405162461bcd60e51b815260206004820152603260248201527f54686520616d6f756e74206973206c6573736572207468616e2074686520524560448201527123a4a9aa2920aa24a7a71020a6a7aaa72a1760711b6064820152608401610203565b60055482106108965760405162461bcd60e51b815260206004820152603860248201527f5468652063616e6469646174652049442067726561746572207468616e20746860448201527f65206e756d626572206f662063616e64696461746573202100000000000000006064820152608401610203565b600154604051631429461760e11b81526001600160a01b03858116600483015260248201849052909116906328528c2e90604401602060405180830381600087803b1580156108e457600080fd5b505af11580156108f8573d6000803e3d6000fd5b505050506040513d601f19601f8201168201806040525081019061091c919061123c565b50610954816005848154811061093457610934611558565b906000526020600020906004020160030154610a7590919063ffffffff16565b6005838154811061096757610967611558565b60009182526020808320600492830201600301939093556001600160a01b0386168252909152604090208281556001018190556109a382610a88565b6109f0576109af610ae3565b600583815481106109c2576109c2611558565b90600052602060002090600402016003015411806109e257506006546003115b156109f8576109f082610b24565b6109f8610b95565b505050565b6000610a4b610a0a610d27565b8360405161190160f01b6020820152602281018390526042810182905260009060620160405160208183030381529060405280519060200120905092915050565b92915050565b6000806000610a608585610e4e565b91509150610a6d81610ebe565b509392505050565b6000610a818284611462565b9392505050565b6000805b60065460ff82161015610ada5760068160ff1681548110610aaf57610aaf611558565b9060005260206000200154831415610aca5750600192915050565b610ad38161150c565b9050610a8c565b50600092915050565b60065460009080610af5576000610b1e565b6006610b0260018361149f565b81548110610b1257610b12611558565b90600052602060002001545b91505090565b6006546003811015610b665750600680546001810182556000919091527ff652222313e28459528d920b65115c16c04f3efc82aaedc97be59f3f377c0d3f0155565b816006610b756001600361149f565b81548110610b8557610b85611558565b6000918252602090912001555050565b600654610b9e57565b60005b600654610bb09060019061149f565b8160ff161015610d24576000610bc782600161147a565b90505b60065460ff82161015610d1357600060068360ff1681548110610bef57610bef611558565b90600052602060002001549050600060068360ff1681548110610c1457610c14611558565b9060005260206000200154905060058181548110610c3457610c34611558565b90600052602060002090600402016003015460058381548110610c5957610c59611558565b9060005260206000209060040201600301541015610d0057600060068560ff1681548110610c8957610c89611558565b9060005260206000200154905060068460ff1681548110610cac57610cac611558565b906000526020600020015460068660ff1681548110610ccd57610ccd611558565b90600052602060002001819055508060068560ff1681548110610cf257610cf2611558565b600091825260209091200155505b505080610d0c9061150c565b9050610bca565b50610d1d8161150c565b9050610ba1565b50565b6000306001600160a01b037f000000000000000000000000000000000000000000000000000000000000000016148015610d8057507f000000000000000000000000000000000000000000000000000000000000000046145b15610daa57507f000000000000000000000000000000000000000000000000000000000000000090565b50604080517f00000000000000000000000000000000000000000000000000000000000000006020808301919091527f0000000000000000000000000000000000000000000000000000000000000000828401527f000000000000000000000000000000000000000000000000000000000000000060608301524660808301523060a0808401919091528351808403909101815260c0909201909252805191012090565b600080825160411415610e855760208301516040840151606085015160001a610e7987828585611074565b94509450505050610eb7565b825160401415610eaf5760208301516040840151610ea4868383611161565b935093505050610eb7565b506000905060025b9250929050565b6000816004811115610ed257610ed2611542565b1415610edb5750565b6001816004811115610eef57610eef611542565b1415610f385760405162461bcd60e51b815260206004820152601860248201527745434453413a20696e76616c6964207369676e617475726560401b6044820152606401610203565b6002816004811115610f4c57610f4c611542565b1415610f9a5760405162461bcd60e51b815260206004820152601f60248201527f45434453413a20696e76616c6964207369676e6174757265206c656e677468006044820152606401610203565b6003816004811115610fae57610fae611542565b14156110075760405162461bcd60e51b815260206004820152602260248201527f45434453413a20696e76616c6964207369676e6174757265202773272076616c604482015261756560f01b6064820152608401610203565b600481600481111561101b5761101b611542565b1415610d245760405162461bcd60e51b815260206004820152602260248201527f45434453413a20696e76616c6964207369676e6174757265202776272076616c604482015261756560f01b6064820152608401610203565b6000807f7fffffffffffffffffffffffffffffff5d576e7357a4501ddfe92f46681b20a08311156110ab5750600090506003611158565b8460ff16601b141580156110c357508460ff16601c14155b156110d45750600090506004611158565b6040805160008082526020820180845289905260ff881692820192909252606081018690526080810185905260019060a0016020604051602081039080840390855afa158015611128573d6000803e3d6000fd5b5050604051601f1901519150506001600160a01b03811661115157600060019250925050611158565b9150600090505b94509492505050565b6000806001600160ff1b03831660ff84901c601b0161118287828885611074565b935093505050935093915050565b80356001600160a01b03811681146111a757600080fd5b919050565b60008083601f8401126111be57600080fd5b50813567ffffffffffffffff8111156111d657600080fd5b602083019150836020828501011115610eb757600080fd5b60006020828403121561120057600080fd5b610a8182611190565b60008060006060848603121561121e57600080fd5b61122784611190565b95602085013595506040909401359392505050565b60006020828403121561124e57600080fd5b81518015158114610a8157600080fd5b60008060006040848603121561127357600080fd5b83359250602084013567ffffffffffffffff81111561129157600080fd5b61129d868287016111ac565b9497909650939450505050565b6000806000806000608086880312156112c257600080fd5b853567ffffffffffffffff8111156112d957600080fd5b6112e5888289016111ac565b90965094506112f8905060208701611190565b94979396509394604081013594506060013592915050565b6000806040838503121561132357600080fd5b50508035926020909101359150565b6000815180845260005b818110156113585760208185018101518683018201520161133c565b8181111561136a576000602083870101525b50601f01601f19169290920160200192915050565b60006020808301818452808551808352604092508286019150828160051b87010184880160005b8381101561141057603f198984030185528151608081518186526113cc82870182611332565b91505060ff89830151168986015287820151858203898701526113ef8282611332565b606093840151969093019590955250948701949250908601906001016113a6565b509098975050505050505050565b6020808252825182820181905260009190848201906040850190845b818110156114565783518352928401929184019160010161143a565b50909695505050505050565b600082198211156114755761147561152c565b500190565b600060ff821660ff84168060ff038211156114975761149761152c565b019392505050565b6000828210156114b1576114b161152c565b500390565b600181811c908216806114ca57607f821691505b602082108114156114eb57634e487b7160e01b600052602260045260246000fd5b50919050565b60006000198214156115055761150561152c565b5060010190565b600060ff821660ff8114156115235761152361152c565b60010192915050565b634e487b7160e01b600052601160045260246000fd5b634e487b7160e01b600052602160045260246000fd5b634e487b7160e01b600052603260045260246000fdfea26469706673582212208f550c8cb34cdb4382fc609f16891603613813dbf4deadbbbf2de1042c938e4164736f6c634300080600334c656e677468206d69736d61746368202d2063616e646964617465206e616d65","bytecodeSha1":"da39a3ee5e6b4b0d3255bfef95601890afd80709","type":"contract","abi":[{"inputs":[{"internalType":"string","name":"_electionName","type":"string"},{"internalType":"address","name":"_wakandaTokenAddress","type":"address"},{"internalType":"string[]","name":"_candidateNames","type":"string[]"},{"internalType":"uint8[]","name":"_candidateAges","type":"uint8[]"},{"internalType":"string[]","name":"_candidateCults","type":"string[]"}],"stateMutability":"nonpayable","type":"constructor","name":"constructor"},{"inputs":[{"internalType":"bytes","name":"signature","type":"bytes"},{"internalType":"address","name":"citizenAddress","type":"address"},{"internalType":"uint256","name":"candidateId","type":"uint256"},{"internalType":"uint256","name":"amount","type":"uint256"}],"name":"delegatedVote","outputs":[],"stateMutability":"nonpayable","type":"function"},{"inputs":[{"internalType":"address","name":"citizenAddress","type":"address"},{"internalType":"uint256","name":"candidateId","type":"uint256"},{"internalType":"uint256","name":"amount","type":"uint256"}],"name":"getDigest","outputs":[{"internalType":"bytes32","name":"","type":"bytes32"}],"stateMutability":"view","type":"function"},{"inputs":[{"internalType":"address","name":"citizenAddress","type":"address"}],"name":"getNonce","outputs":[{"internalType":"uint256","name":"","type":"uint256"}],"stateMutability":"view","type":"function"},{"inputs":[{"internalType":"bytes32","name":"digest","type":"bytes32"},{"internalType":"bytes","name":"signature","type":"bytes"}],"name":"getSigner","outputs":[{"internalType":"address","name":"","type":"address"}],"stateMutability":"pure","type":"function"},{"inputs":[{"internalType":"address","name":"_citizen","type":"address"}],"name":"register","outputs":[{"internalType":"bool","name":"","type":"bool"}],"stateMutability":"nonpayable","type":"function"},{"inputs":[],"name":"seeAllCandidates","outputs":[{"components":[{"internalType":"string","name":"name","type":"string"},{"internalType":"uint8","name":"age","type":"uint8"},{"internalType":"string","name":"cult","type":"string"},{"internalType":"uint256","name":"votes","type":"uint256"}],"internalType":"struct Voting.Candidate[]","name":"","type":"tuple[]"}],"stateMutability":"view","type":"function"},{"inputs":[{"internalType":"uint256","name":"_candidateId","type":"uint256"},{"internalType":"uint256","name":"_amount","type":"uint256"}],"name":"vote","outputs":[],"stateMutability":"nonpayable","type":"function"},{"inputs":[],"name":"winningCandidates","outputs":[{"internalType":"uint256[]","name":"","type":"uint256[]"}],"stateMutability":"view","type":"function"}],"compiler":{"version":"0.8.6+commit.11564f7e","evm_version":"istanbul","optimizer":{"enabled":true,"runs":200}},"contractName":"Voting","language":"Solidity","natspec":{"methods":{},"kind":"dev","notice":"Voters Register (receive 1 WKND) token, so they can particapate in the elections","version":1,"title":"Voting Contract"},"opcodes":"PUSH1 0x80 PUSH1 0x40 MSTORE CALLVALUE DUP1 ISZERO PUSH2 0x10 JUMPI PUSH1 0x0 DUP1 REVERT JUMPDEST POP PUSH1 0x4 CALLDATASIZE LT PUSH2 0x88 JUMPI PUSH1 0x0 CALLDATALOAD PUSH1 0xE0 SHR DUP1 PUSH4 0xB384ABEF GT PUSH2 0x5B JUMPI DUP1 PUSH4 0xB384ABEF EQ PUSH2 0x116 JUMPI DUP1 PUSH4 0xB8D06BC4 EQ PUSH2 0x129 JUMPI DUP1 PUSH4 0xDE90BB6F EQ PUSH2 0x13C JUMPI DUP1 PUSH4 0xF7B2EC0D EQ PUSH2 0x151 JUMPI PUSH1 0x0 DUP1 REVERT JUMPDEST DUP1 PUSH4 0x1565507E EQ PUSH2 0x8D JUMPI DUP1 PUSH4 0x2D0335AB EQ PUSH2 0xA2 JUMPI DUP1 PUSH4 0x377968D4 EQ PUSH2 0xDE JUMPI DUP1 PUSH4 0x4420E486 EQ PUSH2 0xF3 JUMPI JUMPDEST PUSH1 0x0 DUP1 REVERT JUMPDEST PUSH2 0xA0 PUSH2 0x9B CALLDATASIZE PUSH1 0x4 PUSH2 0x12AA JUMP JUMPDEST PUSH2 0x17C JUMP JUMPDEST STOP JUMPDEST PUSH2 0xCB PUSH2 0xB0 CALLDATASIZE PUSH1 0x4 PUSH2 0x11EE JUMP JUMPDEST PUSH1 0x1 PUSH1 0x1 PUSH1 0xA0 SHL SUB AND PUSH1 0x0 SWAP1 DUP2 MSTORE PUSH1 0x3 PUSH1 0x20 MSTORE PUSH1 0x40 SWAP1 KECCAK256 SLOAD SWAP1 JUMP JUMPDEST PUSH1 0x40 MLOAD SWAP1 DUP2 MSTORE PUSH1 0x20 ADD JUMPDEST PUSH1 0x40 MLOAD DUP1 SWAP2 SUB SWAP1 RETURN JUMPDEST PUSH2 0xE6 PUSH2 0x28F JUMP JUMPDEST PUSH1 0x40 MLOAD PUSH2 0xD5 SWAP2 SWAP1 PUSH2 0x141E JUMP JUMPDEST PUSH2 0x106 PUSH2 0x101 CALLDATASIZE PUSH1 0x4 PUSH2 0x11EE JUMP JUMPDEST PUSH2 0x2E7 JUMP JUMPDEST PUSH1 0x40 MLOAD SWAP1 ISZERO ISZERO DUP2 MSTORE PUSH1 0x20 ADD PUSH2 0xD5 JUMP JUMPDEST PUSH2 0xA0 PUSH2 0x124 CALLDATASIZE PUSH1 0x4 PUSH2 0x1310 JUMP JUMPDEST PUSH2 0x43B JUMP JUMPDEST PUSH2 0xCB PUSH2 0x137 CALLDATASIZE PUSH1 0x4 PUSH2 0x1209 JUMP JUMPDEST PUSH2 0x44A JUMP JUMPDEST PUSH2 0x144 PUSH2 0x4DA JUMP JUMPDEST PUSH1 0x40 MLOAD PUSH2 0xD5 SWAP2 SWAP1 PUSH2 0x137F JUMP JUMPDEST PUSH2 0x164 PUSH2 0x15F CALLDATASIZE PUSH1 0x4 PUSH2 0x125E JUMP JUMPDEST PUSH2 0x678 JUMP JUMPDEST PUSH1 0x40 MLOAD PUSH1 0x1 PUSH1 0x1 PUSH1 0xA0 SHL SUB SWAP1 SWAP2 AND DUP2 MSTORE PUSH1 0x20 ADD PUSH2 0xD5 JUMP JUMPDEST PUSH1 0x0 PUSH2 0x189 DUP5 DUP5 DUP5 PUSH2 0x44A JUMP JUMPDEST SWAP1 POP PUSH1 0x0 PUSH2 0x198 DUP3 DUP9 DUP9 PUSH2 0x678 JUMP JUMPDEST SWAP1 POP DUP5 PUSH1 0x1 PUSH1 0x1 PUSH1 0xA0 SHL SUB AND DUP2 PUSH1 0x1 PUSH1 0x1 PUSH1 0xA0 SHL SUB AND EQ PUSH2 0x20C JUMPI PUSH1 0x40 MLOAD PUSH3 0x461BCD PUSH1 0xE5 SHL DUP2 MSTORE PUSH1 0x20 PUSH1 0x4 DUP3 ADD MSTORE PUSH1 0x23 PUSH1 0x24 DUP3 ADD MSTORE PUSH32 0x46756E6374696F6E2060766F746560203A20696E76616C6964207369676E6174 PUSH1 0x44 DUP3 ADD MSTORE PUSH3 0x757265 PUSH1 0xE8 SHL PUSH1 0x64 DUP3 ADD MSTORE PUSH1 0x84 ADD JUMPDEST PUSH1 0x40 MLOAD DUP1 SWAP2 SUB SWAP1 REVERT JUMPDEST PUSH1 0x1 PUSH1 0x1 PUSH1 0xA0 SHL SUB DUP2 AND PUSH2 0x25D JUMPI PUSH1 0x40 MLOAD PUSH3 0x461BCD PUSH1 0xE5 SHL DUP2 MSTORE PUSH1 0x20 PUSH1 0x4 DUP3 ADD MSTORE PUSH1 0x18 PUSH1 0x24 DUP3 ADD MSTORE PUSH24 0x45434453413A20696E76616C6964207369676E6174757265 PUSH1 0x40 SHL PUSH1 0x44 DUP3 ADD MSTORE PUSH1 0x64 ADD PUSH2 0x203 JUMP JUMPDEST PUSH1 0x1 PUSH1 0x1 PUSH1 0xA0 SHL SUB DUP6 AND PUSH1 0x0 SWAP1 DUP2 MSTORE PUSH1 0x3 PUSH1 0x20 MSTORE PUSH1 0x40 DUP2 KECCAK256 DUP1 SLOAD SWAP2 PUSH2 0x281 DUP4 PUSH2 0x14F1 JUMP JUMPDEST SWAP2 SWAP1 POP SSTORE POP POP POP POP POP POP POP POP JUMP JUMPDEST PUSH1 0x60 PUSH1 0x6 DUP1 SLOAD DUP1 PUSH1 0x20 MUL PUSH1 0x20 ADD PUSH1 0x40 MLOAD SWAP1 DUP2 ADD PUSH1 0x40 MSTORE DUP1 SWAP3 SWAP2 SWAP1 DUP2 DUP2 MSTORE PUSH1 0x20 ADD DUP3 DUP1 SLOAD DUP1 ISZERO PUSH2 0x2DD JUMPI PUSH1 0x20 MUL DUP3 ADD SWAP2 SWAP1 PUSH1 0x0 MSTORE PUSH1 0x20 PUSH1 0x0 KECCAK256 SWAP1 JUMPDEST DUP2 SLOAD DUP2 MSTORE PUSH1 0x20 ADD SWAP1 PUSH1 0x1 ADD SWAP1 DUP1 DUP4 GT PUSH2 0x2C9 JUMPI JUMPDEST POP POP POP POP POP SWAP1 POP SWAP1 JUMP JUMPDEST PUSH1 0x1 PUSH1 0x1 PUSH1 0xA0 SHL SUB DUP2 AND PUSH1 0x0 SWAP1 DUP2 MSTORE PUSH1 0x2 PUSH1 0x20 MSTORE PUSH1 0x40 DUP2 KECCAK256 SLOAD PUSH1 0xFF AND ISZERO ISZERO PUSH1 0x1 EQ ISZERO PUSH2 0x38A JUMPI PUSH1 0x40 MLOAD PUSH3 0x461BCD PUSH1 0xE5 SHL DUP2 MSTORE PUSH1 0x20 PUSH1 0x4 DUP3 ADD MSTORE PUSH1 0x46 PUSH1 0x24 DUP3 ADD MSTORE PUSH32 0x54686520636974697A656E20686173206265656E207265676973746572656420 PUSH1 0x44 DUP3 ADD MSTORE PUSH32 0x2D20746865726520617265206E6F206D756C7469706C65207265676973747261 PUSH1 0x64 DUP3 ADD MSTORE PUSH6 0x3A34B7B73997 PUSH1 0xD1 SHL PUSH1 0x84 DUP3 ADD MSTORE PUSH1 0xA4 ADD PUSH2 0x203 JUMP JUMPDEST PUSH1 0x1 DUP1 SLOAD PUSH1 0x40 MLOAD PUSH4 0xBC0E60E1 PUSH1 0xE0 SHL DUP2 MSTORE PUSH1 0x1 PUSH1 0x1 PUSH1 0xA0 SHL SUB DUP6 DUP2 AND PUSH1 0x4 DUP4 ADD MSTORE PUSH1 0x24 DUP3 ADD SWAP4 SWAP1 SWAP4 MSTORE SWAP2 AND SWAP1 PUSH4 0xBC0E60E1 SWAP1 PUSH1 0x44 ADD PUSH1 0x20 PUSH1 0x40 MLOAD DUP1 DUP4 SUB DUP2 PUSH1 0x0 DUP8 DUP1 EXTCODESIZE ISZERO DUP1 ISZERO PUSH2 0x3D9 JUMPI PUSH1 0x0 DUP1 REVERT JUMPDEST POP GAS CALL ISZERO DUP1 ISZERO PUSH2 0x3ED JUMPI RETURNDATASIZE PUSH1 0x0 DUP1 RETURNDATACOPY RETURNDATASIZE PUSH1 0x0 REVERT JUMPDEST POP POP POP POP PUSH1 0x40 MLOAD RETURNDATASIZE PUSH1 0x1F NOT PUSH1 0x1F DUP3 ADD AND DUP3 ADD DUP1 PUSH1 0x40 MSTORE POP DUP2 ADD SWAP1 PUSH2 0x411 SWAP2 SWAP1 PUSH2 0x123C JUMP JUMPDEST POP POP PUSH1 0x1 PUSH1 0x1 PUSH1 0xA0 SHL SUB AND PUSH1 0x0 SWAP1 DUP2 MSTORE PUSH1 0x2 PUSH1 0x20 MSTORE PUSH1 0x40 SWAP1 KECCAK256 DUP1 SLOAD PUSH1 0xFF NOT AND PUSH1 0x1 SWAP1 DUP2 OR SWAP1 SWAP2 SSTORE SWAP1 JUMP JUMPDEST PUSH2 0x446 CALLER DUP4 DUP4 PUSH2 0x6C2 JUMP JUMPDEST POP POP JUMP JUMPDEST PUSH1 0x1 PUSH1 0x1 PUSH1 0xA0 SHL SUB DUP4 AND PUSH1 0x0 DUP2 DUP2 MSTORE PUSH1 0x3 PUSH1 0x20 SWAP1 DUP2 MSTORE PUSH1 0x40 DUP1 DUP4 KECCAK256 SLOAD DUP2 MLOAD PUSH32 0xA56F781F7251D29FCA13933D69C34316EA277F967C4A968F77DB62D983FE1120 SWAP4 DUP2 ADD SWAP4 SWAP1 SWAP4 MSTORE SWAP1 DUP3 ADD SWAP4 SWAP1 SWAP4 MSTORE PUSH1 0x60 DUP2 ADD DUP6 SWAP1 MSTORE PUSH1 0x80 DUP2 ADD DUP5 SWAP1 MSTORE PUSH1 0xA0 DUP2 ADD DUP4 SWAP1 MSTORE SWAP1 SWAP2 SWAP1 PUSH2 0x4D1 SWAP1 PUSH1 0xC0 ADD PUSH1 0x40 MLOAD PUSH1 0x20 DUP2 DUP4 SUB SUB DUP2 MSTORE SWAP1 PUSH1 0x40 MSTORE DUP1 MLOAD SWAP1 PUSH1 0x20 ADD KECCAK256 PUSH2 0x9FD JUMP JUMPDEST SWAP6 SWAP5 POP POP POP POP POP JUMP JUMPDEST PUSH1 0x60 PUSH1 0x5 DUP1 SLOAD DUP1 PUSH1 0x20 MUL PUSH1 0x20 ADD PUSH1 0x40 MLOAD SWAP1 DUP2 ADD PUSH1 0x40 MSTORE DUP1 SWAP3 SWAP2 SWAP1 DUP2 DUP2 MSTORE PUSH1 0x20 ADD PUSH1 0x0 SWAP1 JUMPDEST DUP3 DUP3 LT ISZERO PUSH2 0x66F JUMPI DUP4 DUP3 SWAP1 PUSH1 0x0 MSTORE PUSH1 0x20 PUSH1 0x0 KECCAK256 SWAP1 PUSH1 0x4 MUL ADD PUSH1 0x40 MLOAD DUP1 PUSH1 0x80 ADD PUSH1 0x40 MSTORE SWAP1 DUP2 PUSH1 0x0 DUP3 ADD DUP1 SLOAD PUSH2 0x531 SWAP1 PUSH2 0x14B6 JUMP JUMPDEST DUP1 PUSH1 0x1F ADD PUSH1 0x20 DUP1 SWAP2 DIV MUL PUSH1 0x20 ADD PUSH1 0x40 MLOAD SWAP1 DUP2 ADD PUSH1 0x40 MSTORE DUP1 SWAP3 SWAP2 SWAP1 DUP2 DUP2 MSTORE PUSH1 0x20 ADD DUP3 DUP1 SLOAD PUSH2 0x55D SWAP1 PUSH2 0x14B6 JUMP JUMPDEST DUP1 ISZERO PUSH2 0x5AA JUMPI DUP1 PUSH1 0x1F LT PUSH2 0x57F JUMPI PUSH2 0x100 DUP1 DUP4 SLOAD DIV MUL DUP4 MSTORE SWAP2 PUSH1 0x20 ADD SWAP2 PUSH2 0x5AA JUMP JUMPDEST DUP3 ADD SWAP2 SWAP1 PUSH1 0x0 MSTORE PUSH1 0x20 PUSH1 0x0 KECCAK256 SWAP1 JUMPDEST DUP2 SLOAD DUP2 MSTORE SWAP1 PUSH1 0x1 ADD SWAP1 PUSH1 0x20 ADD DUP1 DUP4 GT PUSH2 0x58D JUMPI DUP3 SWAP1 SUB PUSH1 0x1F AND DUP3 ADD SWAP2 JUMPDEST POP POP POP SWAP2 DUP4 MSTORE POP POP PUSH1 0x1 DUP3 ADD SLOAD PUSH1 0xFF AND PUSH1 0x20 DUP3 ADD MSTORE PUSH1 0x2 DUP3 ADD DUP1 SLOAD PUSH1 0x40 SWAP1 SWAP3 ADD SWAP2 PUSH2 0x5D4 SWAP1 PUSH2 0x14B6 JUMP JUMPDEST DUP1 PUSH1 0x1F ADD PUSH1 0x20 DUP1 SWAP2 DIV MUL PUSH1 0x20 ADD PUSH1 0x40 MLOAD SWAP1 DUP2 ADD PUSH1 0x40 MSTORE DUP1 SWAP3 SWAP2 SWAP1 DUP2 DUP2 MSTORE PUSH1 0x20 ADD DUP3 DUP1 SLOAD PUSH2 0x600 SWAP1 PUSH2 0x14B6 JUMP JUMPDEST DUP1 ISZERO PUSH2 0x64D JUMPI DUP1 PUSH1 0x1F LT PUSH2 0x622 JUMPI PUSH2 0x100 DUP1 DUP4 SLOAD DIV MUL DUP4 MSTORE SWAP2 PUSH1 0x20 ADD SWAP2 PUSH2 0x64D JUMP JUMPDEST DUP3 ADD SWAP2 SWAP1 PUSH1 0x0 MSTORE PUSH1 0x20 PUSH1 0x0 KECCAK256 SWAP1 JUMPDEST DUP2 SLOAD DUP2 MSTORE SWAP1 PUSH1 0x1 ADD SWAP1 PUSH1 0x20 ADD DUP1 DUP4 GT PUSH2 0x630 JUMPI DUP3 SWAP1 SUB PUSH1 0x1F AND DUP3 ADD SWAP2 JUMPDEST POP POP POP POP POP DUP2 MSTORE PUSH1 0x20 ADD PUSH1 0x3 DUP3 ADD SLOAD DUP2 MSTORE POP POP DUP2 MSTORE PUSH1 0x20 ADD SWAP1 PUSH1 0x1 ADD SWAP1 PUSH2 0x4FE JUMP JUMPDEST POP POP POP POP SWAP1 POP SWAP1 JUMP JUMPDEST PUSH1 0x0 PUSH2 0x6BA DUP5 DUP5 DUP5 DUP1 DUP1 PUSH1 0x1F ADD PUSH1 0x20 DUP1 SWAP2 DIV MUL PUSH1 0x20 ADD PUSH1 0x40 MLOAD SWAP1 DUP2 ADD PUSH1 0x40 MSTORE DUP1 SWAP4 SWAP3 SWAP2 SWAP1 DUP2 DUP2 MSTORE PUSH1 0x20 ADD DUP4 DUP4 DUP1 DUP3 DUP5 CALLDATACOPY PUSH1 0x0 SWAP3 ADD SWAP2 SWAP1 SWAP2 MSTORE POP PUSH2 0xA51 SWAP3 POP POP POP JUMP JUMPDEST SWAP5 SWAP4 POP POP POP POP JUMP JUMPDEST PUSH1 0x7 SLOAD PUSH1 0xFF AND ISZERO ISZERO PUSH1 0x1 EQ ISZERO PUSH2 0x72E JUMPI PUSH1 0x40 MLOAD PUSH3 0x461BCD PUSH1 0xE5 SHL DUP2 MSTORE PUSH1 0x20 PUSH1 0x4 DUP3 ADD MSTORE PUSH1 0x2B PUSH1 0x24 DUP3 ADD MSTORE PUSH32 0x566F74696E6720666F72207468652063757272656E7420656C656374696F6E20 PUSH1 0x44 DUP3 ADD MSTORE PUSH11 0x3430B99032B73232B21017 PUSH1 0xA9 SHL PUSH1 0x64 DUP3 ADD MSTORE PUSH1 0x84 ADD PUSH2 0x203 JUMP JUMPDEST PUSH1 0x1 PUSH1 0x1 PUSH1 0xA0 SHL SUB DUP4 AND PUSH1 0x0 SWAP1 DUP2 MSTORE PUSH1 0x4 PUSH1 0x20 MSTORE PUSH1 0x40 SWAP1 KECCAK256 PUSH1 0x2 ADD SLOAD PUSH1 0xFF AND ISZERO ISZERO PUSH1 0x1 EQ ISZERO PUSH2 0x7B3 JUMPI PUSH1 0x40 MLOAD PUSH3 0x461BCD PUSH1 0xE5 SHL DUP2 MSTORE PUSH1 0x20 PUSH1 0x4 DUP3 ADD MSTORE PUSH1 0x2B PUSH1 0x24 DUP3 ADD MSTORE PUSH32 0x54686520636974697A656E20616C726561647920766F74656420696E20746865 PUSH1 0x44 DUP3 ADD MSTORE PUSH11 0x1032B632B1BA34B7B71017 PUSH1 0xA9 SHL PUSH1 0x64 DUP3 ADD MSTORE PUSH1 0x84 ADD PUSH2 0x203 JUMP JUMPDEST PUSH1 0x1 DUP2 LT ISZERO PUSH2 0x81F JUMPI PUSH1 0x40 MLOAD PUSH3 0x461BCD PUSH1 0xE5 SHL DUP2 MSTORE PUSH1 0x20 PUSH1 0x4 DUP3 ADD MSTORE PUSH1 0x32 PUSH1 0x24 DUP3 ADD MSTORE PUSH32 0x54686520616D6F756E74206973206C6573736572207468616E20746865205245 PUSH1 0x44 DUP3 ADD MSTORE PUSH18 0x23A4A9AA2920AA24A7A71020A6A7AAA72A17 PUSH1 0x71 SHL PUSH1 0x64 DUP3 ADD MSTORE PUSH1 0x84 ADD PUSH2 0x203 JUMP JUMPDEST PUSH1 0x5 SLOAD DUP3 LT PUSH2 0x896 JUMPI PUSH1 0x40 MLOAD PUSH3 0x461BCD PUSH1 0xE5 SHL DUP2 MSTORE PUSH1 0x20 PUSH1 0x4 DUP3 ADD MSTORE PUSH1 0x38 PUSH1 0x24 DUP3 ADD MSTORE PUSH32 0x5468652063616E6469646174652049442067726561746572207468616E207468 PUSH1 0x44 DUP3 ADD MSTORE PUSH32 0x65206E756D626572206F662063616E6469646174657320210000000000000000 PUSH1 0x64 DUP3 ADD MSTORE PUSH1 0x84 ADD PUSH2 0x203 JUMP JUMPDEST PUSH1 0x1 SLOAD PUSH1 0x40 MLOAD PUSH4 0x14294617 PUSH1 0xE1 SHL DUP2 MSTORE PUSH1 0x1 PUSH1 0x1 PUSH1 0xA0 SHL SUB DUP6 DUP2 AND PUSH1 0x4 DUP4 ADD MSTORE PUSH1 0x24 DUP3 ADD DUP5 SWAP1 MSTORE SWAP1 SWAP2 AND SWAP1 PUSH4 0x28528C2E SWAP1 PUSH1 0x44 ADD PUSH1 0x20 PUSH1 0x40 MLOAD DUP1 DUP4 SUB DUP2 PUSH1 0x0 DUP8 DUP1 EXTCODESIZE ISZERO DUP1 ISZERO PUSH2 0x8E4 JUMPI PUSH1 0x0 DUP1 REVERT JUMPDEST POP GAS CALL ISZERO DUP1 ISZERO PUSH2 0x8F8 JUMPI RETURNDATASIZE PUSH1 0x0 DUP1 RETURNDATACOPY RETURNDATASIZE PUSH1 0x0 REVERT JUMPDEST POP POP POP POP PUSH1 0x40 MLOAD RETURNDATASIZE PUSH1 0x1F NOT PUSH1 0x1F DUP3 ADD AND DUP3 ADD DUP1 PUSH1 0x40 MSTORE POP DUP2 ADD SWAP1 PUSH2 0x91C SWAP2 SWAP1 PUSH2 0x123C JUMP JUMPDEST POP PUSH2 0x954 DUP2 PUSH1 0x5 DUP5 DUP2 SLOAD DUP2 LT PUSH2 0x934 JUMPI PUSH2 0x934 PUSH2 0x1558 JUMP JUMPDEST SWAP1 PUSH1 0x0 MSTORE PUSH1 0x20 PUSH1 0x0 KECCAK256 SWAP1 PUSH1 0x4 MUL ADD PUSH1 0x3 ADD SLOAD PUSH2 0xA75 SWAP1 SWAP2 SWAP1 PUSH4 0xFFFFFFFF AND JUMP JUMPDEST PUSH1 0x5 DUP4 DUP2 SLOAD DUP2 LT PUSH2 0x967 JUMPI PUSH2 0x967 PUSH2 0x1558 JUMP JUMPDEST PUSH1 0x0 SWAP2 DUP3 MSTORE PUSH1 0x20 DUP1 DUP4 KECCAK256 PUSH1 0x4 SWAP3 DUP4 MUL ADD PUSH1 0x3 ADD SWAP4 SWAP1 SWAP4 SSTORE PUSH1 0x1 PUSH1 0x1 PUSH1 0xA0 SHL SUB DUP7 AND DUP3 MSTORE SWAP1 SWAP2 MSTORE PUSH1 0x40 SWAP1 KECCAK256 DUP3 DUP2 SSTORE PUSH1 0x1 ADD DUP2 SWAP1 SSTORE PUSH2 0x9A3 DUP3 PUSH2 0xA88 JUMP JUMPDEST PUSH2 0x9F0 JUMPI PUSH2 0x9AF PUSH2 0xAE3 JUMP JUMPDEST PUSH1 0x5 DUP4 DUP2 SLOAD DUP2 LT PUSH2 0x9C2 JUMPI PUSH2 0x9C2 PUSH2 0x1558 JUMP JUMPDEST SWAP1 PUSH1 0x0 MSTORE PUSH1 0x20 PUSH1 0x0 KECCAK256 SWAP1 PUSH1 0x4 MUL ADD PUSH1 0x3 ADD SLOAD GT DUP1 PUSH2 0x9E2 JUMPI POP PUSH1 0x6 SLOAD PUSH1 0x3 GT JUMPDEST ISZERO PUSH2 0x9F8 JUMPI PUSH2 0x9F0 DUP3 PUSH2 0xB24 JUMP JUMPDEST PUSH2 0x9F8 PUSH2 0xB95 JUMP JUMPDEST POP POP POP JUMP JUMPDEST PUSH1 0x0 PUSH2 0xA4B PUSH2 0xA0A PUSH2 0xD27 JUMP JUMPDEST DUP4 PUSH1 0x40 MLOAD PUSH2 0x1901 PUSH1 0xF0 SHL PUSH1 0x20 DUP3 ADD MSTORE PUSH1 0x22 DUP2 ADD DUP4 SWAP1 MSTORE PUSH1 0x42 DUP2 ADD DUP3 SWAP1 MSTORE PUSH1 0x0 SWAP1 PUSH1 0x62 ADD PUSH1 0x40 MLOAD PUSH1 0x20 DUP2 DUP4 SUB SUB DUP2 MSTORE SWAP1 PUSH1 0x40 MSTORE DUP1 MLOAD SWAP1 PUSH1 0x20 ADD KECCAK256 SWAP1 POP SWAP3 SWAP2 POP POP JUMP JUMPDEST SWAP3 SWAP2 POP POP JUMP JUMPDEST PUSH1 0x0 DUP1 PUSH1 0x0 PUSH2 0xA60 DUP6 DUP6 PUSH2 0xE4E JUMP JUMPDEST SWAP2 POP SWAP2 POP PUSH2 0xA6D DUP2 PUSH2 0xEBE JUMP JUMPDEST POP SWAP4 SWAP3 POP POP POP JUMP JUMPDEST PUSH1 0x0 PUSH2 0xA81 DUP3 DUP5 PUSH2 0x1462 JUMP JUMPDEST SWAP4 SWAP3 POP POP POP JUMP JUMPDEST PUSH1 0x0 DUP1 JUMPDEST PUSH1 0x6 SLOAD PUSH1 0xFF DUP3 AND LT ISZERO PUSH2 0xADA JUMPI PUSH1 0x6 DUP2 PUSH1 0xFF AND DUP2 SLOAD DUP2 LT PUSH2 0xAAF JUMPI PUSH2 0xAAF PUSH2 0x1558 JUMP JUMPDEST SWAP1 PUSH1 0x0 MSTORE PUSH1 0x20 PUSH1 0x0 KECCAK256 ADD SLOAD DUP4 EQ ISZERO PUSH2 0xACA JUMPI POP PUSH1 0x1 SWAP3 SWAP2 POP POP JUMP JUMPDEST PUSH2 0xAD3 DUP2 PUSH2 0x150C JUMP JUMPDEST SWAP1 POP PUSH2 0xA8C JUMP JUMPDEST POP PUSH1 0x0 SWAP3 SWAP2 POP POP JUMP JUMPDEST PUSH1 0x6 SLOAD PUSH1 0x0 SWAP1 DUP1 PUSH2 0xAF5 JUMPI PUSH1 0x0 PUSH2 0xB1E JUMP JUMPDEST PUSH1 0x6 PUSH2 0xB02 PUSH1 0x1 DUP4 PUSH2 0x149F JUMP JUMPDEST DUP2 SLOAD DUP2 LT PUSH2 0xB12 JUMPI PUSH2 0xB12 PUSH2 0x1558 JUMP JUMPDEST SWAP1 PUSH1 0x0 MSTORE PUSH1 0x20 PUSH1 0x0 KECCAK256 ADD SLOAD JUMPDEST SWAP2 POP POP SWAP1 JUMP JUMPDEST PUSH1 0x6 SLOAD PUSH1 0x3 DUP2 LT ISZERO PUSH2 0xB66 JUMPI POP PUSH1 0x6 DUP1 SLOAD PUSH1 0x1 DUP2 ADD DUP3 SSTORE PUSH1 0x0 SWAP2 SWAP1 SWAP2 MSTORE PUSH32 0xF652222313E28459528D920B65115C16C04F3EFC82AAEDC97BE59F3F377C0D3F ADD SSTORE JUMP JUMPDEST DUP2 PUSH1 0x6 PUSH2 0xB75 PUSH1 0x1 PUSH1 0x3 PUSH2 0x149F JUMP JUMPDEST DUP2 SLOAD DUP2 LT PUSH2 0xB85 JUMPI PUSH2 0xB85 PUSH2 0x1558 JUMP JUMPDEST PUSH1 0x0 SWAP2 DUP3 MSTORE PUSH1 0x20 SWAP1 SWAP2 KECCAK256 ADD SSTORE POP POP JUMP JUMPDEST PUSH1 0x6 SLOAD PUSH2 0xB9E JUMPI JUMP JUMPDEST PUSH1 0x0 JUMPDEST PUSH1 0x6 SLOAD PUSH2 0xBB0 SWAP1 PUSH1 0x1 SWAP1 PUSH2 0x149F JUMP JUMPDEST DUP2 PUSH1 0xFF AND LT ISZERO PUSH2 0xD24 JUMPI PUSH1 0x0 PUSH2 0xBC7 DUP3 PUSH1 0x1 PUSH2 0x147A JUMP JUMPDEST SWAP1 POP JUMPDEST PUSH1 0x6 SLOAD PUSH1 0xFF DUP3 AND LT ISZERO PUSH2 0xD13 JUMPI PUSH1 0x0 PUSH1 0x6 DUP4 PUSH1 0xFF AND DUP2 SLOAD DUP2 LT PUSH2 0xBEF JUMPI PUSH2 0xBEF PUSH2 0x1558 JUMP JUMPDEST SWAP1 PUSH1 0x0 MSTORE PUSH1 0x20 PUSH1 0x0 KECCAK256 ADD SLOAD SWAP1 POP PUSH1 0x0 PUSH1 0x6 DUP4 PUSH1 0xFF AND DUP2 SLOAD DUP2 LT PUSH2 0xC14 JUMPI PUSH2 0xC14 PUSH2 0x1558 JUMP JUMPDEST SWAP1 PUSH1 0x0 MSTORE PUSH1 0x20 PUSH1 0x0 KECCAK256 ADD SLOAD SWAP1 POP PUSH1 0x5 DUP2 DUP2 SLOAD DUP2 LT PUSH2 0xC34 JUMPI PUSH2 0xC34 PUSH2 0x1558 JUMP JUMPDEST SWAP1 PUSH1 0x0 MSTORE PUSH1 0x20 PUSH1 0x0 KECCAK256 SWAP1 PUSH1 0x4 MUL ADD PUSH1 0x3 ADD SLOAD PUSH1 0x5 DUP4 DUP2 SLOAD DUP2 LT PUSH2 0xC59 JUMPI PUSH2 0xC59 PUSH2 0x1558 JUMP JUMPDEST SWAP1 PUSH1 0x0 MSTORE PUSH1 0x20 PUSH1 0x0 KECCAK256 SWAP1 PUSH1 0x4 MUL ADD PUSH1 0x3 ADD SLOAD LT ISZERO PUSH2 0xD00 JUMPI PUSH1 0x0 PUSH1 0x6 DUP6 PUSH1 0xFF AND DUP2 SLOAD DUP2 LT PUSH2 0xC89 JUMPI PUSH2 0xC89 PUSH2 0x1558 JUMP JUMPDEST SWAP1 PUSH1 0x0 MSTORE PUSH1 0x20 PUSH1 0x0 KECCAK256 ADD SLOAD SWAP1 POP PUSH1 0x6 DUP5 PUSH1 0xFF AND DUP2 SLOAD DUP2 LT PUSH2 0xCAC JUMPI PUSH2 0xCAC PUSH2 0x1558 JUMP JUMPDEST SWAP1 PUSH1 0x0 MSTORE PUSH1 0x20 PUSH1 0x0 KECCAK256 ADD SLOAD PUSH1 0x6 DUP7 PUSH1 0xFF AND DUP2 SLOAD DUP2 LT PUSH2 0xCCD JUMPI PUSH2 0xCCD PUSH2 0x1558 JUMP JUMPDEST SWAP1 PUSH1 0x0 MSTORE PUSH1 0x20 PUSH1 0x0 KECCAK256 ADD DUP2 SWAP1 SSTORE POP DUP1 PUSH1 0x6 DUP6 PUSH1 0xFF AND DUP2 SLOAD DUP2 LT PUSH2 0xCF2 JUMPI PUSH2 0xCF2 PUSH2 0x1558 JUMP JUMPDEST PUSH1 0x0 SWAP2 DUP3 MSTORE PUSH1 0x20 SWAP1 SWAP2 KECCAK256 ADD SSTORE POP JUMPDEST POP POP DUP1 PUSH2 0xD0C SWAP1 PUSH2 0x150C JUMP JUMPDEST SWAP1 POP PUSH2 0xBCA JUMP JUMPDEST POP PUSH2 0xD1D DUP2 PUSH2 0x150C JUMP JUMPDEST SWAP1 POP PUSH2 0xBA1 JUMP JUMPDEST POP JUMP JUMPDEST PUSH1 0x0 ADDRESS PUSH1 0x1 PUSH1 0x1 PUSH1 0xA0 SHL SUB PUSH32 0x0 AND EQ DUP1 ISZERO PUSH2 0xD80 JUMPI POP PUSH32 0x0 CHAINID EQ JUMPDEST ISZERO PUSH2 0xDAA JUMPI POP PUSH32 0x0 SWAP1 JUMP JUMPDEST POP PUSH1 0x40 DUP1 MLOAD PUSH32 0x0 PUSH1 0x20 DUP1 DUP4 ADD SWAP2 SWAP1 SWAP2 MSTORE PUSH32 0x0 DUP3 DUP5 ADD MSTORE PUSH32 0x0 PUSH1 0x60 DUP4 ADD MSTORE CHAINID PUSH1 0x80 DUP4 ADD MSTORE ADDRESS PUSH1 0xA0 DUP1 DUP5 ADD SWAP2 SWAP1 SWAP2 MSTORE DUP4 MLOAD DUP1 DUP5 SUB SWAP1 SWAP2 ADD DUP2 MSTORE PUSH1 0xC0 SWAP1 SWAP3 ADD SWAP1 SWAP3 MSTORE DUP1 MLOAD SWAP2 ADD KECCAK256 SWAP1 JUMP JUMPDEST PUSH1 0x0 DUP1 DUP3 MLOAD PUSH1 0x41 EQ ISZERO PUSH2 0xE85 JUMPI PUSH1 0x20 DUP4 ADD MLOAD PUSH1 0x40 DUP5 ADD MLOAD PUSH1 0x60 DUP6 ADD MLOAD PUSH1 0x0 BYTE PUSH2 0xE79 DUP8 DUP3 DUP6 DUP6 PUSH2 0x1074 JUMP JUMPDEST SWAP5 POP SWAP5 POP POP POP POP PUSH2 0xEB7 JUMP JUMPDEST DUP3 MLOAD PUSH1 0x40 EQ ISZERO PUSH2 0xEAF JUMPI PUSH1 0x20 DUP4 ADD MLOAD PUSH1 0x40 DUP5 ADD MLOAD PUSH2 0xEA4 DUP7 DUP4 DUP4 PUSH2 0x1161 JUMP JUMPDEST SWAP4 POP SWAP4 POP POP POP PUSH2 0xEB7 JUMP JUMPDEST POP PUSH1 0x0 SWAP1 POP PUSH1 0x2 JUMPDEST SWAP3 POP SWAP3 SWAP1 POP JUMP JUMPDEST PUSH1 0x0 DUP2 PUSH1 0x4 DUP2 GT ISZERO PUSH2 0xED2 JUMPI PUSH2 0xED2 PUSH2 0x1542 JUMP JUMPDEST EQ ISZERO PUSH2 0xEDB JUMPI POP JUMP JUMPDEST PUSH1 0x1 DUP2 PUSH1 0x4 DUP2 GT ISZERO PUSH2 0xEEF JUMPI PUSH2 0xEEF PUSH2 0x1542 JUMP JUMPDEST EQ ISZERO PUSH2 0xF38 JUMPI PUSH1 0x40 MLOAD PUSH3 0x461BCD PUSH1 0xE5 SHL DUP2 MSTORE PUSH1 0x20 PUSH1 0x4 DUP3 ADD MSTORE PUSH1 0x18 PUSH1 0x24 DUP3 ADD MSTORE PUSH24 0x45434453413A20696E76616C6964207369676E6174757265 PUSH1 0x40 SHL PUSH1 0x44 DUP3 ADD MSTORE PUSH1 0x64 ADD PUSH2 0x203 JUMP JUMPDEST PUSH1 0x2 DUP2 PUSH1 0x4 DUP2 GT ISZERO PUSH2 0xF4C JUMPI PUSH2 0xF4C PUSH2 0x1542 JUMP JUMPDEST EQ ISZERO PUSH2 0xF9A JUMPI PUSH1 0x40 MLOAD PUSH3 0x461BCD PUSH1 0xE5 SHL DUP2 MSTORE PUSH1 0x20 PUSH1 0x4 DUP3 ADD MSTORE PUSH1 0x1F PUSH1 0x24 DUP3 ADD MSTORE PUSH32 0x45434453413A20696E76616C6964207369676E6174757265206C656E67746800 PUSH1 0x44 DUP3 ADD MSTORE PUSH1 0x64 ADD PUSH2 0x203 JUMP JUMPDEST PUSH1 0x3 DUP2 PUSH1 0x4 DUP2 GT ISZERO PUSH2 0xFAE JUMPI PUSH2 0xFAE PUSH2 0x1542 JUMP JUMPDEST EQ ISZERO PUSH2 0x1007 JUMPI PUSH1 0x40 MLOAD PUSH3 0x461BCD PUSH1 0xE5 SHL DUP2 MSTORE PUSH1 0x20 PUSH1 0x4 DUP3 ADD MSTORE PUSH1 0x22 PUSH1 0x24 DUP3 ADD MSTORE PUSH32 0x45434453413A20696E76616C6964207369676E6174757265202773272076616C PUSH1 0x44 DUP3 ADD MSTORE PUSH2 0x7565 PUSH1 0xF0 SHL PUSH1 0x64 DUP3 ADD MSTORE PUSH1 0x84 ADD PUSH2 0x203 JUMP JUMPDEST PUSH1 0x4 DUP2 PUSH1 0x4 DUP2 GT ISZERO PUSH2 0x101B JUMPI PUSH2 0x101B PUSH2 0x1542 JUMP JUMPDEST EQ ISZERO PUSH2 0xD24 JUMPI PUSH1 0x40 MLOAD PUSH3 0x461BCD PUSH1 0xE5 SHL DUP2 MSTORE PUSH1 0x20 PUSH1 0x4 DUP3 ADD MSTORE PUSH1 0x22 PUSH1 0x24 DUP3 ADD MSTORE PUSH32 0x45434453413A20696E76616C6964207369676E6174757265202776272076616C PUSH1 0x44 DUP3 ADD MSTORE PUSH2 0x7565 PUSH1 0xF0 SHL PUSH1 0x64 DUP3 ADD MSTORE PUSH1 0x84 ADD PUSH2 0x203 JUMP JUMPDEST PUSH1 0x0 DUP1 PUSH32 0x7FFFFFFFFFFFFFFFFFFFFFFFFFFFFFFF5D576E7357A4501DDFE92F46681B20A0 DUP4 GT ISZERO PUSH2 0x10AB JUMPI POP PUSH1 0x0 SWAP1 POP PUSH1 0x3 PUSH2 0x1158 JUMP JUMPDEST DUP5 PUSH1 0xFF AND PUSH1 0x1B EQ ISZERO DUP1 ISZERO PUSH2 0x10C3 JUMPI POP DUP5 PUSH1 0xFF AND PUSH1 0x1C EQ ISZERO JUMPDEST ISZERO PUSH2 0x10D4 JUMPI POP PUSH1 0x0 SWAP1 POP PUSH1 0x4 PUSH2 0x1158 JUMP JUMPDEST PUSH1 0x40 DUP1 MLOAD PUSH1 0x0 DUP1 DUP3 MSTORE PUSH1 0x20 DUP3 ADD DUP1 DUP5 MSTORE DUP10 SWAP1 MSTORE PUSH1 0xFF DUP9 AND SWAP3 DUP3 ADD SWAP3 SWAP1 SWAP3 MSTORE PUSH1 0x60 DUP2 ADD DUP7 SWAP1 MSTORE PUSH1 0x80 DUP2 ADD DUP6 SWAP1 MSTORE PUSH1 0x1 SWAP1 PUSH1 0xA0 ADD PUSH1 0x20 PUSH1 0x40 MLOAD PUSH1 0x20 DUP2 SUB SWAP1 DUP1 DUP5 SUB SWAP1 DUP6 GAS STATICCALL ISZERO DUP1 ISZERO PUSH2 0x1128 JUMPI RETURNDATASIZE PUSH1 0x0 DUP1 RETURNDATACOPY RETURNDATASIZE PUSH1 0x0 REVERT JUMPDEST POP POP PUSH1 0x40 MLOAD PUSH1 0x1F NOT ADD MLOAD SWAP2 POP POP PUSH1 0x1 PUSH1 0x1 PUSH1 0xA0 SHL SUB DUP2 AND PUSH2 0x1151 JUMPI PUSH1 0x0 PUSH1 0x1 SWAP3 POP SWAP3 POP POP PUSH2 0x1158 JUMP JUMPDEST SWAP2 POP PUSH1 0x0 SWAP1 POP JUMPDEST SWAP5 POP SWAP5 SWAP3 POP POP POP JUMP JUMPDEST PUSH1 0x0 DUP1 PUSH1 0x1 PUSH1 0x1 PUSH1 0xFF SHL SUB DUP4 AND PUSH1 0xFF DUP5 SWAP1 SHR PUSH1 0x1B ADD PUSH2 0x1182 DUP8 DUP3 DUP9 DUP6 PUSH2 0x1074 JUMP JUMPDEST SWAP4 POP SWAP4 POP POP POP SWAP4 POP SWAP4 SWAP2 POP POP JUMP JUMPDEST DUP1 CALLDATALOAD PUSH1 0x1 PUSH1 0x1 PUSH1 0xA0 SHL SUB DUP2 AND DUP2 EQ PUSH2 0x11A7 JUMPI PUSH1 0x0 DUP1 REVERT JUMPDEST SWAP2 SWAP1 POP JUMP JUMPDEST PUSH1 0x0 DUP1 DUP4 PUSH1 0x1F DUP5 ADD SLT PUSH2 0x11BE JUMPI PUSH1 0x0 DUP1 REVERT JUMPDEST POP DUP2 CALLDATALOAD PUSH8 0xFFFFFFFFFFFFFFFF DUP2 GT ISZERO PUSH2 0x11D6 JUMPI PUSH1 0x0 DUP1 REVERT JUMPDEST PUSH1 0x20 DUP4 ADD SWAP2 POP DUP4 PUSH1 0x20 DUP3 DUP6 ADD ADD GT ISZERO PUSH2 0xEB7 JUMPI PUSH1 0x0 DUP1 REVERT JUMPDEST PUSH1 0x0 PUSH1 0x20 DUP3 DUP5 SUB SLT ISZERO PUSH2 0x1200 JUMPI PUSH1 0x0 DUP1 REVERT JUMPDEST PUSH2 0xA81 DUP3 PUSH2 0x1190 JUMP JUMPDEST PUSH1 0x0 DUP1 PUSH1 0x0 PUSH1 0x60 DUP5 DUP7 SUB SLT ISZERO PUSH2 0x121E JUMPI PUSH1 0x0 DUP1 REVERT JUMPDEST PUSH2 0x1227 DUP5 PUSH2 0x1190 JUMP JUMPDEST SWAP6 PUSH1 0x20 DUP6 ADD CALLDATALOAD SWAP6 POP PUSH1 0x40 SWAP1 SWAP5 ADD CALLDATALOAD SWAP4 SWAP3 POP POP POP JUMP JUMPDEST PUSH1 0x0 PUSH1 0x20 DUP3 DUP5 SUB SLT ISZERO PUSH2 0x124E JUMPI PUSH1 0x0 DUP1 REVERT JUMPDEST DUP2 MLOAD DUP1 ISZERO ISZERO DUP2 EQ PUSH2 0xA81 JUMPI PUSH1 0x0 DUP1 REVERT JUMPDEST PUSH1 0x0 DUP1 PUSH1 0x0 PUSH1 0x40 DUP5 DUP7 SUB SLT ISZERO PUSH2 0x1273 JUMPI PUSH1 0x0 DUP1 REVERT JUMPDEST DUP4 CALLDATALOAD SWAP3 POP PUSH1 0x20 DUP5 ADD CALLDATALOAD PUSH8 0xFFFFFFFFFFFFFFFF DUP2 GT ISZERO PUSH2 0x1291 JUMPI PUSH1 0x0 DUP1 REVERT JUMPDEST PUSH2 0x129D DUP7 DUP3 DUP8 ADD PUSH2 0x11AC JUMP JUMPDEST SWAP5 SWAP8 SWAP1 SWAP7 POP SWAP4 SWAP5 POP POP POP POP JUMP JUMPDEST PUSH1 0x0 DUP1 PUSH1 0x0 DUP1 PUSH1 0x0 PUSH1 0x80 DUP7 DUP9 SUB SLT ISZERO PUSH2 0x12C2 JUMPI PUSH1 0x0 DUP1 REVERT JUMPDEST DUP6 CALLDATALOAD PUSH8 0xFFFFFFFFFFFFFFFF DUP2 GT ISZERO PUSH2 0x12D9 JUMPI PUSH1 0x0 DUP1 REVERT JUMPDEST PUSH2 0x12E5 DUP9 DUP3 DUP10 ADD PUSH2 0x11AC JUMP JUMPDEST SWAP1 SWAP7 POP SWAP5 POP PUSH2 0x12F8 SWAP1 POP PUSH1 0x20 DUP8 ADD PUSH2 0x1190 JUMP JUMPDEST SWAP5 SWAP8 SWAP4 SWAP7 POP SWAP4 SWAP5 PUSH1 0x40 DUP2 ADD CALLDATALOAD SWAP5 POP PUSH1 0x60 ADD CALLDATALOAD SWAP3 SWAP2 POP POP JUMP JUMPDEST PUSH1 0x0 DUP1 PUSH1 0x40 DUP4 DUP6 SUB SLT ISZERO PUSH2 0x1323 JUMPI PUSH1 0x0 DUP1 REVERT JUMPDEST POP POP DUP1 CALLDATALOAD SWAP3 PUSH1 0x20 SWAP1 SWAP2 ADD CALLDATALOAD SWAP2 POP JUMP JUMPDEST PUSH1 0x0 DUP2 MLOAD DUP1 DUP5 MSTORE PUSH1 0x0 JUMPDEST DUP2 DUP2 LT ISZERO PUSH2 0x1358 JUMPI PUSH1 0x20 DUP2 DUP6 ADD DUP2 ADD MLOAD DUP7 DUP4 ADD DUP3 ADD MSTORE ADD PUSH2 0x133C JUMP JUMPDEST DUP2 DUP2 GT ISZERO PUSH2 0x136A JUMPI PUSH1 0x0 PUSH1 0x20 DUP4 DUP8 ADD ADD MSTORE JUMPDEST POP PUSH1 0x1F ADD PUSH1 0x1F NOT AND SWAP3 SWAP1 SWAP3 ADD PUSH1 0x20 ADD SWAP3 SWAP2 POP POP JUMP JUMPDEST PUSH1 0x0 PUSH1 0x20 DUP1 DUP4 ADD DUP2 DUP5 MSTORE DUP1 DUP6 MLOAD DUP1 DUP4 MSTORE PUSH1 0x40 SWAP3 POP DUP3 DUP7 ADD SWAP2 POP DUP3 DUP2 PUSH1 0x5 SHL DUP8 ADD ADD DUP5 DUP9 ADD PUSH1 0x0 JUMPDEST DUP4 DUP2 LT ISZERO PUSH2 0x1410 JUMPI PUSH1 0x3F NOT DUP10 DUP5 SUB ADD DUP6 MSTORE DUP2 MLOAD PUSH1 0x80 DUP2 MLOAD DUP2 DUP7 MSTORE PUSH2 0x13CC DUP3 DUP8 ADD DUP3 PUSH2 0x1332 JUMP JUMPDEST SWAP2 POP POP PUSH1 0xFF DUP10 DUP4 ADD MLOAD AND DUP10 DUP7 ADD MSTORE DUP8 DUP3 ADD MLOAD DUP6 DUP3 SUB DUP10 DUP8 ADD MSTORE PUSH2 0x13EF DUP3 DUP3 PUSH2 0x1332 JUMP JUMPDEST PUSH1 0x60 SWAP4 DUP5 ADD MLOAD SWAP7 SWAP1 SWAP4 ADD SWAP6 SWAP1 SWAP6 MSTORE POP SWAP5 DUP8 ADD SWAP5 SWAP3 POP SWAP1 DUP7 ADD SWAP1 PUSH1 0x1 ADD PUSH2 0x13A6 JUMP JUMPDEST POP SWAP1 SWAP9 SWAP8 POP POP POP POP POP POP POP POP JUMP JUMPDEST PUSH1 0x20 DUP1 DUP3 MSTORE DUP3 MLOAD DUP3 DUP3 ADD DUP2 SWAP1 MSTORE PUSH1 0x0 SWAP2 SWAP1 DUP5 DUP3 ADD SWAP1 PUSH1 0x40 DUP6 ADD SWAP1 DUP5 JUMPDEST DUP2 DUP2 LT ISZERO PUSH2 0x1456 JUMPI DUP4 MLOAD DUP4 MSTORE SWAP3 DUP5 ADD SWAP3 SWAP2 DUP5 ADD SWAP2 PUSH1 0x1 ADD PUSH2 0x143A JUMP JUMPDEST POP SWAP1 SWAP7 SWAP6 POP POP POP POP POP POP JUMP JUMPDEST PUSH1 0x0 DUP3 NOT DUP3 GT ISZERO PUSH2 0x1475 JUMPI PUSH2 0x1475 PUSH2 0x152C JUMP JUMPDEST POP ADD SWAP1 JUMP JUMPDEST PUSH1 0x0 PUSH1 0xFF DUP3 AND PUSH1 0xFF DUP5 AND DUP1 PUSH1 0xFF SUB DUP3 GT ISZERO PUSH2 0x1497 JUMPI PUSH2 0x1497 PUSH2 0x152C JUMP JUMPDEST ADD SWAP4 SWAP3 POP POP POP JUMP JUMPDEST PUSH1 0x0 DUP3 DUP3 LT ISZERO PUSH2 0x14B1 JUMPI PUSH2 0x14B1 PUSH2 0x152C JUMP JUMPDEST POP SUB SWAP1 JUMP JUMPDEST PUSH1 0x1 DUP2 DUP2 SHR SWAP1 DUP3 AND DUP1 PUSH2 0x14CA JUMPI PUSH1 0x7F DUP3 AND SWAP2 POP JUMPDEST PUSH1 0x20 DUP3 LT DUP2 EQ ISZERO PUSH2 0x14EB JUMPI PUSH4 0x4E487B71 PUSH1 0xE0 SHL PUSH1 0x0 MSTORE PUSH1 0x22 PUSH1 0x4 MSTORE PUSH1 0x24 PUSH1 0x0 REVERT JUMPDEST POP SWAP2 SWAP1 POP JUMP JUMPDEST PUSH1 0x0 PUSH1 0x0 NOT DUP3 EQ ISZERO PUSH2 0x1505 JUMPI PUSH2 0x1505 PUSH2 0x152C JUMP JUMPDEST POP PUSH1 0x1 ADD SWAP1 JUMP JUMPDEST PUSH1 0x0 PUSH1 0xFF DUP3 AND PUSH1 0xFF DUP2 EQ ISZERO PUSH2 0x1523 JUMPI PUSH2 0x1523 PUSH2 0x152C JUMP JUMPDEST PUSH1 0x1 ADD SWAP3 SWAP2 POP POP JUMP JUMPDEST PUSH4 0x4E487B71 PUSH1 0xE0 SHL PUSH1 0x0 MSTORE PUSH1 0x11 PUSH1 0x4 MSTORE PUSH1 0x24 PUSH1 0x0 REVERT JUMPDEST PUSH4 0x4E487B71 PUSH1 0xE0 SHL PUSH1 0x0 MSTORE PUSH1 0x21 PUSH1 0x4 MSTORE PUSH1 0x24 PUSH1 0x0 REVERT JUMPDEST PUSH4 0x4E487B71 PUSH1 0xE0 SHL PUSH1 0x0 MSTORE PUSH1 0x32 PUSH1 0x4 MSTORE PUSH1 0x24 PUSH1 0x0 REVERT INVALID LOG2 PUSH5 0x6970667358 0x22 SLT KECCAK256 DUP16 SSTORE 0xC DUP13 0xB3 0x4C 0xDB NUMBER DUP3 0xFC PUSH1 0x9F AND DUP10 AND SUB PUSH2 0x3813 0xDB DELEGATECALL 0xDE 0xAD 0xBB 0xBF 0x2D 0xE1 DIV 0x2C SWAP4 DUP15 COINBASE PUSH5 0x736F6C6343 STOP ADDMOD MOD STOP CALLER ","sha1":"b78535c91c043ff8fc7b0d75a29d21b66d7d88ce","source":"pragma solidity ^0.8.0;\npragma experimental ABIEncoderV2;\n// SPDX-License-Identifier: MIT\n\nimport \"./OpenZepellin/contracts/utils/math/SafeMath.sol\";\nimport \"./Token.sol\";\n\nimport \"./OpenZepellin/contracts/utils/cryptography/ECDSA.sol\";\nimport \"./OpenZepellin/contracts/utils/cryptography/draft-EIP712.sol\";\n\n/**\n    @title Voting Contract\n    @notice Voters Register (receive 1 WKND) token, so they can particapate in the elections\n\n */\ncontract Voting is EIP712{\n\n    uint256 constant ELECTION_WINNERS_LENGTH = 3;\n    uint256 constant REGISTRATION_AMOUNT = 1;\n\n    using SafeMath for uint256;\n\n    struct Candidate {\n        string name;\n        uint8 age;\n        string cult;\n        uint256 votes;\n    }\n\n    struct Vote {\n        uint256 candidateId;\n        uint256 amount;\n        bool hasVoted;\n    }\n\n    address king;\n\n    Token wakandaToken;\n\n    mapping (address => bool) isRegistered;\n    mapping (address => uint256) nonces;\n    mapping (address => Vote) votes;\n\n    Candidate[] candidates;\n\n    uint256[] electionWinners;\n\n    bool hasEnded;\n\n    constructor(string memory _electionName, address _wakandaTokenAddress, string[] memory _candidateNames, uint8[] memory _candidateAges, string[] memory _candidateCults) EIP712(_electionName, \"1.0.0\") {\n\n        king = msg.sender;\n\n        _addCandidates(_candidateNames, _candidateAges, _candidateCults);\n\n        wakandaToken = Token(_wakandaTokenAddress);\n\n    }\n\n\n    function register(address _citizen) public returns (bool) {\n        \n        require(isRegistered[_citizen] != true, \"The citizen has been registered - there are no multiple registrations.\");\n\n        wakandaToken.usingRegistrationRight(_citizen, REGISTRATION_AMOUNT);\n        isRegistered[_citizen] = true;\n\n        return true;\n\n    }\n\n    function vote(uint256 _candidateId, uint256 _amount) public {\n\n        _vote(msg.sender, _candidateId, _amount);\n\n    }\n\n    function winningCandidates() public view returns (uint256 [] memory){\n    \n        return electionWinners;\n        \n    }\n\n    function seeAllCandidates() public view returns (Candidate[] memory) {\n\n        return candidates;\n\n    }\n    function getNonce(address citizenAddress) public view returns (uint256){\n        return nonces[citizenAddress];\n    }\n\n\n    function getDigest(address citizenAddress, uint256 candidateId, uint256 amount) public view returns (bytes32){\n\n        uint256 nonce = nonces[citizenAddress];\n        return _hashTypedDataV4(\n            keccak256(\n                abi.encode(    \n                    keccak256(\"vote(address citizenAddress,uint256 candidateId,uint256 amount,uint256 nonce)\"),\n                    citizenAddress,\n                    candidateId,\n                    amount,\n                    nonce\n                )\n            )\n        );\n    }\n\n    function getSigner(bytes32 digest, bytes calldata signature) public pure returns (address){\n        return  ECDSA.recover(digest, signature);\n    }\n\n\n    function delegatedVote(bytes calldata signature, address citizenAddress, uint256 candidateId, uint256 amount) public {\n\n        // TODO: uncomment lines bellow when deploying to testnet\n        bytes32 digest = getDigest(citizenAddress, candidateId, amount);\n        address signer = getSigner(digest, signature);\n        require(signer == citizenAddress, \"Function `vote` : invalid signature\");\n        require(signer != address(0), \"ECDSA: invalid signature\");\n\n        //_vote(citizenAddress, candidateId, amount);\n\n        nonces[citizenAddress]++;\n    }\n\n    function _addCandidates(string[] memory _candidateNames, uint8[] memory _candidateAges, string[] memory _candidateCults) internal {\n\n        require(msg.sender == king, \"Only KING can start a new election !\");\n        require(_candidateNames.length == _candidateAges.length, \"Length mismatch - candidate names and ages !\");\n        require(_candidateNames.length == _candidateCults.length, \"Length mismatch - candidate names and ages !\");\n\n        for(uint256 i = 0; i < _candidateNames.length; ++i) {\n            candidates.push(Candidate({name: _candidateNames[i], age: _candidateAges[i], cult: _candidateCults[i], votes: 0}));\n        }\n\n    }\n\n    \n    function _vote(address _citizen, uint256 _candidateId, uint256 _amount) internal {\n\n        require(hasEnded != true, \"Voting for the current election has ended .\");\n        require(votes[_citizen].hasVoted != true, \"The citizen already voted in the election .\");\n        require(_amount >= REGISTRATION_AMOUNT, \"The amount is lesser than the REGISTRATION AMOUNT.\");\n        require(_candidateId < candidates.length, \"The candidate ID greater than the number of candidates !\");\n\n        wakandaToken.usingVotingRight(_citizen, _amount);\n\n        candidates[_candidateId].votes = candidates[_candidateId].votes.add(_amount);\n        votes[_citizen].candidateId = _candidateId;\n        votes[_citizen].amount = _amount;\n\n        if(_isInElectionWinners(_candidateId) == false){ // potentially a new challenger \n         \n            if (candidates[_candidateId].votes > _getLastPlaceVotes() || electionWinners.length < ELECTION_WINNERS_LENGTH) { // entering the first N places\n   \n                _insertIntoeElectionWinners(_candidateId);\n    \n                _sortElectionWinners();\n                // TODO : emit event\n\n            } else {\n\n                // do nothing - current candidate didn't enter the first three places\n            }\n            \n        } else { // it is not a new challenger\n        \n            _sortElectionWinners(); // the order can be different now\n\n        }\n\n    }\n\n    \n    function _sortElectionWinners() internal {\n\n        if(electionWinners.length == 0) return;\n\n        for(uint8 i = 0; i < electionWinners.length - 1; ++i){\n            for(uint8 j = i+1; j < electionWinners.length; ++j){\n                uint256 currPlaceId = electionWinners[i];\n                uint256 nextPlaceId = electionWinners[j];\n                if(candidates[currPlaceId].votes < candidates[nextPlaceId].votes){\n                    uint256 temp = electionWinners[i];\n                    electionWinners[i] = electionWinners[j];\n                    electionWinners[j] = temp;\n\n                }\n            }\n        }\n\n    }\n\n    function _isInElectionWinners(uint256 _candidateId) internal view returns (bool){\n\n        for(uint8 i = 0; i < electionWinners.length; ++i){\n            if(_candidateId == electionWinners[i]) return true;\n        }\n        return false;\n    }\n\n    function _getLastPlaceVotes() internal view returns (uint256){\n        uint256 length = electionWinners.length;\n        return length > 0 ? electionWinners[length-1]: 0;\n    }\n\n    function _insertIntoeElectionWinners(uint256 _candidateId) internal {\n        uint256 length = electionWinners.length;\n        if(length < ELECTION_WINNERS_LENGTH){\n             electionWinners.push(_candidateId);\n        } else {\n            electionWinners[ELECTION_WINNERS_LENGTH-1] = _candidateId;\n        }\n    }\n}\n","sourcePath":"contracts/Voting.sol","deployment":{"address":"0x81C590dB8bD0a0d540aD912fd403f5955bE9F388","chainid":"4","blockHeight":9783292}}