{"abi":[{"inputs":[{"internalType":"string","name":"_name","type":"string"},{"internalType":"string","name":"_symbol","type":"string"},{"internalType":"uint256","name":"_decimals","type":"uint256"},{"internalType":"uint256","name":"_totalSupply","type":"uint256"}],"stateMutability":"nonpayable","type":"constructor","name":"constructor"},{"anonymous":false,"inputs":[{"indexed":false,"internalType":"address","name":"owner","type":"address"},{"indexed":false,"internalType":"address","name":"spender","type":"address"},{"indexed":false,"internalType":"uint256","name":"value","type":"uint256"}],"name":"Approval","type":"event"},{"anonymous":false,"inputs":[{"indexed":false,"internalType":"address","name":"from","type":"address"},{"indexed":false,"internalType":"address","name":"to","type":"address"},{"indexed":false,"internalType":"uint256","name":"value","type":"uint256"}],"name":"Transfer","type":"event"},{"inputs":[{"internalType":"address","name":"_owner","type":"address"},{"internalType":"address","name":"_spender","type":"address"}],"name":"allowance","outputs":[{"internalType":"uint256","name":"","type":"uint256"}],"stateMutability":"view","type":"function"},{"inputs":[{"internalType":"address","name":"_spender","type":"address"},{"internalType":"uint256","name":"_value","type":"uint256"}],"name":"approve","outputs":[{"internalType":"bool","name":"","type":"bool"}],"stateMutability":"nonpayable","type":"function"},{"inputs":[{"internalType":"address","name":"_owner","type":"address"}],"name":"balanceOf","outputs":[{"internalType":"uint256","name":"","type":"uint256"}],"stateMutability":"view","type":"function"},{"inputs":[],"name":"decimals","outputs":[{"internalType":"uint256","name":"","type":"uint256"}],"stateMutability":"view","type":"function"},{"inputs":[],"name":"name","outputs":[{"internalType":"string","name":"","type":"string"}],"stateMutability":"view","type":"function"},{"inputs":[{"internalType":"address","name":"_authority","type":"address"}],"name":"setAuthorityAddress","outputs":[{"internalType":"bool","name":"","type":"bool"}],"stateMutability":"nonpayable","type":"function"},{"inputs":[],"name":"symbol","outputs":[{"internalType":"string","name":"","type":"string"}],"stateMutability":"view","type":"function"},{"inputs":[],"name":"totalSupply","outputs":[{"internalType":"uint256","name":"","type":"uint256"}],"stateMutability":"view","type":"function"},{"inputs":[{"internalType":"address","name":"_to","type":"address"},{"internalType":"uint256","name":"_value","type":"uint256"}],"name":"transfer","outputs":[{"internalType":"bool","name":"","type":"bool"}],"stateMutability":"nonpayable","type":"function"},{"inputs":[{"internalType":"address","name":"_from","type":"address"},{"internalType":"address","name":"_to","type":"address"},{"internalType":"uint256","name":"_value","type":"uint256"}],"name":"transferFrom","outputs":[{"internalType":"bool","name":"","type":"bool"}],"stateMutability":"nonpayable","type":"function"},{"inputs":[{"internalType":"address","name":"_voter","type":"address"},{"internalType":"uint256","name":"_value","type":"uint256"}],"name":"usingRegistrationRight","outputs":[{"internalType":"bool","name":"","type":"bool"}],"stateMutability":"nonpayable","type":"function"},{"inputs":[{"internalType":"address","name":"_voter","type":"address"},{"internalType":"uint256","name":"_value","type":"uint256"}],"name":"usingVotingRight","outputs":[{"internalType":"bool","name":"","type":"bool"}],"stateMutability":"nonpayable","type":"function"}],"bytecode":"60806040523480156200001157600080fd5b5060405162000b7138038062000b71833981016040819052620000349162000240565b835162000049906001906020870190620000e3565b5082516200005f906000906020860190620000e3565b5060028290556003819055600680546001600160a01b0319163390811782556000908152600460209081526040808320859055925483519283526001600160a01b0316908201529081018290527fddf252ad1be2c89b69c2b068fc378daa952ba7f163c4a11628f55a4df523b3ef9060600160405180910390a1505050506200030d565b828054620000f190620002ba565b90600052602060002090601f01602090048101928262000115576000855562000160565b82601f106200013057805160ff191683800117855562000160565b8280016001018555821562000160579182015b828111156200016057825182559160200191906001019062000143565b506200016e92915062000172565b5090565b5b808211156200016e576000815560010162000173565b600082601f8301126200019b57600080fd5b81516001600160401b0380821115620001b857620001b8620002f7565b604051601f8301601f19908116603f01168101908282118183101715620001e357620001e3620002f7565b816040528381526020925086838588010111156200020057600080fd5b600091505b8382101562000224578582018301518183018401529082019062000205565b83821115620002365760008385830101525b9695505050505050565b600080600080608085870312156200025757600080fd5b84516001600160401b03808211156200026f57600080fd5b6200027d8883890162000189565b955060208701519150808211156200029457600080fd5b50620002a38782880162000189565b604087015160609097015195989097509350505050565b600181811c90821680620002cf57607f821691505b60208210811415620002f157634e487b7160e01b600052602260045260246000fd5b50919050565b634e487b7160e01b600052604160045260246000fd5b610854806200031d6000396000f3fe608060405234801561001057600080fd5b50600436106100b45760003560e01c806370a082311161007157806370a082311461014057806395d89b4114610169578063a9059cbb14610171578063bc0e60e114610184578063bf0780db14610197578063dd62ed3e146101aa57600080fd5b806306fdde03146100b9578063095ea7b3146100d757806318160ddd146100fa57806323b872dd1461011157806328528c2e14610124578063313ce56714610137575b600080fd5b6100c16101e3565b6040516100ce9190610704565b60405180910390f35b6100ea6100e53660046106da565b610271565b60405190151581526020016100ce565b61010360035481565b6040519081526020016100ce565b6100ea61011f36600461069e565b6102e1565b6100ea6101323660046106da565b6103b9565b61010360025481565b61010361014e366004610650565b6001600160a01b031660009081526004602052604090205490565b6100c16103fb565b6100ea61017f3660046106da565b610408565b6100ea6101923660046106da565b610415565b6100ea6101a5366004610650565b610459565b6101036101b836600461066b565b6001600160a01b03918216600090815260056020908152604080832093909416825291909152205490565b600180546101f0906107cd565b80601f016020809104026020016040519081016040528092919081815260200182805461021c906107cd565b80156102695780601f1061023e57610100808354040283529160200191610269565b820191906000526020600020905b81548152906001019060200180831161024c57829003601f168201915b505050505081565b3360008181526005602090815260408083206001600160a01b0387168085529083528184208690558151948552918401919091528201839052907f8c5be1e5ebec7d5bd14f71427d1e84f3dd0314c0f7b2291e5b200ac8c7c3b9259060600160405180910390a150600192915050565b6001600160a01b03831660009081526005602090815260408083203384529091528120548211156103525760405162461bcd60e51b8152602060048201526016602482015275496e73756666696369656e7420616c6c6f77616e636560501b60448201526064015b60405180910390fd5b6001600160a01b03841660009081526005602090815260408083203384529091529020546103809083610500565b6001600160a01b03851660009081526005602090815260408083203384529091529020556103af848484610513565b5060019392505050565b6007546000906001600160a01b031633146103e65760405162461bcd60e51b815260040161034990610759565b6103f283600084610513565b50600192915050565b600080546101f0906107cd565b60006103f2338484610513565b6007546000906001600160a01b031633146104425760405162461bcd60e51b815260040161034990610759565b6007546103f2906001600160a01b03168484610513565b6006546000906001600160a01b031633146104c25760405162461bcd60e51b8152602060048201526024808201527f4f6e6c7920746865204b494e472063616e207365742074686520417574686f7260448201526334ba3c9760e11b6064820152608401610349565b600780546001600160a01b0319166001600160a01b038481169182179092556006549091166000908152600460205260409020546103f29190610408565b600061050c82846107b6565b9392505050565b6001600160a01b0383166000908152600460205260409020548111156105725760405162461bcd60e51b8152602060048201526014602482015273496e73756666696369656e742062616c616e636560601b6044820152606401610349565b6001600160a01b0383166000908152600460205260409020546105959082610500565b6001600160a01b0380851660009081526004602052604080822093909355908416815220546105c49082610628565b6001600160a01b038381166000818152600460209081526040918290209490945580519287168352928201529081018290527fddf252ad1be2c89b69c2b068fc378daa952ba7f163c4a11628f55a4df523b3ef9060600160405180910390a1505050565b600061050c828461079e565b80356001600160a01b038116811461064b57600080fd5b919050565b60006020828403121561066257600080fd5b61050c82610634565b6000806040838503121561067e57600080fd5b61068783610634565b915061069560208401610634565b90509250929050565b6000806000606084860312156106b357600080fd5b6106bc84610634565b92506106ca60208501610634565b9150604084013590509250925092565b600080604083850312156106ed57600080fd5b6106f683610634565b946020939093013593505050565b600060208083528351808285015260005b8181101561073157858101830151858201604001528201610715565b81811115610743576000604083870101525b50601f01601f1916929092016040019392505050565b60208082526025908201527f546865206d73672e73656e646572206973206e6f742074686520417574686f7260408201526434ba3c901760d91b606082015260800190565b600082198211156107b1576107b1610808565b500190565b6000828210156107c8576107c8610808565b500390565b600181811c908216806107e157607f821691505b6020821081141561080257634e487b7160e01b600052602260045260246000fd5b50919050565b634e487b7160e01b600052601160045260246000fdfea26469706673582212207da82fb9e424e366fabbc06bcea430fbfdcb3d218574f15c283cd68ad25a709364736f6c63430008060033","bytecodeSha1":"cce97320c8a73234d9c7714c31250f9e50928596","compiler":{"evm_version":"istanbul","optimizer":{"enabled":true,"runs":200},"version":"0.8.6+commit.11564f7e"},"contractName":"Token","language":"Solidity","natspec":{"kind":"dev","methods":{"allowance(address,address)":{"notice":"Getter to check the amount of tokens that an owner allowed to a spender","params":{"_owner":"The address which owns the funds","_spender":"The address which will spend the funds"},"returns":{"_0":"The amount of tokens still available for the spender"}},"approve(address,uint256)":{"details":"Beware that changing an allowance with this method brings the risk that someone may use both the old and the new allowance by unfortunate transaction ordering. One possible solution to mitigate this race condition is to first reduce the spender's allowance to 0 and set the desired value afterwards: https://github.com/ethereum/EIPs/issues/20#issuecomment-263524729","notice":"Approve an address to spend the specified amount of tokens on behalf of msg.sender","params":{"_spender":"The address which will spend the funds.","_value":"The amount of tokens to be spent."},"returns":{"_0":"Success boolean"}},"balanceOf(address)":{"notice":"Getter to check the current balance of an address","params":{"_owner":"Address to query the balance of"},"returns":{"_0":"Token balance"}},"setAuthorityAddress(address)":{"notice":"Setter to set the authority address that will have ability to 'lock' tokens of any acount","params":{"_authority":"Authority"},"returns":{"_0":"True if successful"}},"transfer(address,uint256)":{"notice":"Transfer tokens to a specified address","params":{"_to":"The address to transfer to","_value":"The amount to be transferred"},"returns":{"_0":"Success boolean"}},"transferFrom(address,address,uint256)":{"notice":"Transfer tokens from one address to another","params":{"_from":"The address which you want to send tokens from","_to":"The address which you want to transfer to","_value":"The amount of tokens to be transferred"},"returns":{"_0":"Success boolean"}},"usingRegistrationRight(address,uint256)":{"notice":"Sets the amount of tokens that are 'locked' and cannot be used in the current election - can be called only by the authority address","params":{"_value":"The amount of tokens to be used for voting","_voter":"The address which wants to vote in the current election"},"returns":{"_0":"Success boolean"}},"usingVotingRight(address,uint256)":{"notice":"Sets the amount of tokens that are 'locked' and cannot be used in the current election - can be called only by the authority address","params":{"_value":"The amount of tokens to be used for voting","_voter":"The address which wants to vote in the current election"},"returns":{"_0":"Success boolean"}}},"notice":"Based on the ERC-20 token standard as defined at https://eips.ethereum.org/EIPS/eip-20","title":"Bare-bones Token implementation","version":1},"opcodes":"PUSH1 0x80 PUSH1 0x40 MSTORE CALLVALUE DUP1 ISZERO PUSH2 0x10 JUMPI PUSH1 0x0 DUP1 REVERT JUMPDEST POP PUSH1 0x4 CALLDATASIZE LT PUSH2 0xB4 JUMPI PUSH1 0x0 CALLDATALOAD PUSH1 0xE0 SHR DUP1 PUSH4 0x70A08231 GT PUSH2 0x71 JUMPI DUP1 PUSH4 0x70A08231 EQ PUSH2 0x140 JUMPI DUP1 PUSH4 0x95D89B41 EQ PUSH2 0x169 JUMPI DUP1 PUSH4 0xA9059CBB EQ PUSH2 0x171 JUMPI DUP1 PUSH4 0xBC0E60E1 EQ PUSH2 0x184 JUMPI DUP1 PUSH4 0xBF0780DB EQ PUSH2 0x197 JUMPI DUP1 PUSH4 0xDD62ED3E EQ PUSH2 0x1AA JUMPI PUSH1 0x0 DUP1 REVERT JUMPDEST DUP1 PUSH4 0x6FDDE03 EQ PUSH2 0xB9 JUMPI DUP1 PUSH4 0x95EA7B3 EQ PUSH2 0xD7 JUMPI DUP1 PUSH4 0x18160DDD EQ PUSH2 0xFA JUMPI DUP1 PUSH4 0x23B872DD EQ PUSH2 0x111 JUMPI DUP1 PUSH4 0x28528C2E EQ PUSH2 0x124 JUMPI DUP1 PUSH4 0x313CE567 EQ PUSH2 0x137 JUMPI JUMPDEST PUSH1 0x0 DUP1 REVERT JUMPDEST PUSH2 0xC1 PUSH2 0x1E3 JUMP JUMPDEST PUSH1 0x40 MLOAD PUSH2 0xCE SWAP2 SWAP1 PUSH2 0x704 JUMP JUMPDEST PUSH1 0x40 MLOAD DUP1 SWAP2 SUB SWAP1 RETURN JUMPDEST PUSH2 0xEA PUSH2 0xE5 CALLDATASIZE PUSH1 0x4 PUSH2 0x6DA JUMP JUMPDEST PUSH2 0x271 JUMP JUMPDEST PUSH1 0x40 MLOAD SWAP1 ISZERO ISZERO DUP2 MSTORE PUSH1 0x20 ADD PUSH2 0xCE JUMP JUMPDEST PUSH2 0x103 PUSH1 0x3 SLOAD DUP2 JUMP JUMPDEST PUSH1 0x40 MLOAD SWAP1 DUP2 MSTORE PUSH1 0x20 ADD PUSH2 0xCE JUMP JUMPDEST PUSH2 0xEA PUSH2 0x11F CALLDATASIZE PUSH1 0x4 PUSH2 0x69E JUMP JUMPDEST PUSH2 0x2E1 JUMP JUMPDEST PUSH2 0xEA PUSH2 0x132 CALLDATASIZE PUSH1 0x4 PUSH2 0x6DA JUMP JUMPDEST PUSH2 0x3B9 JUMP JUMPDEST PUSH2 0x103 PUSH1 0x2 SLOAD DUP2 JUMP JUMPDEST PUSH2 0x103 PUSH2 0x14E CALLDATASIZE PUSH1 0x4 PUSH2 0x650 JUMP JUMPDEST PUSH1 0x1 PUSH1 0x1 PUSH1 0xA0 SHL SUB AND PUSH1 0x0 SWAP1 DUP2 MSTORE PUSH1 0x4 PUSH1 0x20 MSTORE PUSH1 0x40 SWAP1 KECCAK256 SLOAD SWAP1 JUMP JUMPDEST PUSH2 0xC1 PUSH2 0x3FB JUMP JUMPDEST PUSH2 0xEA PUSH2 0x17F CALLDATASIZE PUSH1 0x4 PUSH2 0x6DA JUMP JUMPDEST PUSH2 0x408 JUMP JUMPDEST PUSH2 0xEA PUSH2 0x192 CALLDATASIZE PUSH1 0x4 PUSH2 0x6DA JUMP JUMPDEST PUSH2 0x415 JUMP JUMPDEST PUSH2 0xEA PUSH2 0x1A5 CALLDATASIZE PUSH1 0x4 PUSH2 0x650 JUMP JUMPDEST PUSH2 0x459 JUMP JUMPDEST PUSH2 0x103 PUSH2 0x1B8 CALLDATASIZE PUSH1 0x4 PUSH2 0x66B JUMP JUMPDEST PUSH1 0x1 PUSH1 0x1 PUSH1 0xA0 SHL SUB SWAP2 DUP3 AND PUSH1 0x0 SWAP1 DUP2 MSTORE PUSH1 0x5 PUSH1 0x20 SWAP1 DUP2 MSTORE PUSH1 0x40 DUP1 DUP4 KECCAK256 SWAP4 SWAP1 SWAP5 AND DUP3 MSTORE SWAP2 SWAP1 SWAP2 MSTORE KECCAK256 SLOAD SWAP1 JUMP JUMPDEST PUSH1 0x1 DUP1 SLOAD PUSH2 0x1F0 SWAP1 PUSH2 0x7CD JUMP JUMPDEST DUP1 PUSH1 0x1F ADD PUSH1 0x20 DUP1 SWAP2 DIV MUL PUSH1 0x20 ADD PUSH1 0x40 MLOAD SWAP1 DUP2 ADD PUSH1 0x40 MSTORE DUP1 SWAP3 SWAP2 SWAP1 DUP2 DUP2 MSTORE PUSH1 0x20 ADD DUP3 DUP1 SLOAD PUSH2 0x21C SWAP1 PUSH2 0x7CD JUMP JUMPDEST DUP1 ISZERO PUSH2 0x269 JUMPI DUP1 PUSH1 0x1F LT PUSH2 0x23E JUMPI PUSH2 0x100 DUP1 DUP4 SLOAD DIV MUL DUP4 MSTORE SWAP2 PUSH1 0x20 ADD SWAP2 PUSH2 0x269 JUMP JUMPDEST DUP3 ADD SWAP2 SWAP1 PUSH1 0x0 MSTORE PUSH1 0x20 PUSH1 0x0 KECCAK256 SWAP1 JUMPDEST DUP2 SLOAD DUP2 MSTORE SWAP1 PUSH1 0x1 ADD SWAP1 PUSH1 0x20 ADD DUP1 DUP4 GT PUSH2 0x24C JUMPI DUP3 SWAP1 SUB PUSH1 0x1F AND DUP3 ADD SWAP2 JUMPDEST POP POP POP POP POP DUP2 JUMP JUMPDEST CALLER PUSH1 0x0 DUP2 DUP2 MSTORE PUSH1 0x5 PUSH1 0x20 SWAP1 DUP2 MSTORE PUSH1 0x40 DUP1 DUP4 KECCAK256 PUSH1 0x1 PUSH1 0x1 PUSH1 0xA0 SHL SUB DUP8 AND DUP1 DUP6 MSTORE SWAP1 DUP4 MSTORE DUP2 DUP5 KECCAK256 DUP7 SWAP1 SSTORE DUP2 MLOAD SWAP5 DUP6 MSTORE SWAP2 DUP5 ADD SWAP2 SWAP1 SWAP2 MSTORE DUP3 ADD DUP4 SWAP1 MSTORE SWAP1 PUSH32 0x8C5BE1E5EBEC7D5BD14F71427D1E84F3DD0314C0F7B2291E5B200AC8C7C3B925 SWAP1 PUSH1 0x60 ADD PUSH1 0x40 MLOAD DUP1 SWAP2 SUB SWAP1 LOG1 POP PUSH1 0x1 SWAP3 SWAP2 POP POP JUMP JUMPDEST PUSH1 0x1 PUSH1 0x1 PUSH1 0xA0 SHL SUB DUP4 AND PUSH1 0x0 SWAP1 DUP2 MSTORE PUSH1 0x5 PUSH1 0x20 SWAP1 DUP2 MSTORE PUSH1 0x40 DUP1 DUP4 KECCAK256 CALLER DUP5 MSTORE SWAP1 SWAP2 MSTORE DUP2 KECCAK256 SLOAD DUP3 GT ISZERO PUSH2 0x352 JUMPI PUSH1 0x40 MLOAD PUSH3 0x461BCD PUSH1 0xE5 SHL DUP2 MSTORE PUSH1 0x20 PUSH1 0x4 DUP3 ADD MSTORE PUSH1 0x16 PUSH1 0x24 DUP3 ADD MSTORE PUSH22 0x496E73756666696369656E7420616C6C6F77616E6365 PUSH1 0x50 SHL PUSH1 0x44 DUP3 ADD MSTORE PUSH1 0x64 ADD JUMPDEST PUSH1 0x40 MLOAD DUP1 SWAP2 SUB SWAP1 REVERT JUMPDEST PUSH1 0x1 PUSH1 0x1 PUSH1 0xA0 SHL SUB DUP5 AND PUSH1 0x0 SWAP1 DUP2 MSTORE PUSH1 0x5 PUSH1 0x20 SWAP1 DUP2 MSTORE PUSH1 0x40 DUP1 DUP4 KECCAK256 CALLER DUP5 MSTORE SWAP1 SWAP2 MSTORE SWAP1 KECCAK256 SLOAD PUSH2 0x380 SWAP1 DUP4 PUSH2 0x500 JUMP JUMPDEST PUSH1 0x1 PUSH1 0x1 PUSH1 0xA0 SHL SUB DUP6 AND PUSH1 0x0 SWAP1 DUP2 MSTORE PUSH1 0x5 PUSH1 0x20 SWAP1 DUP2 MSTORE PUSH1 0x40 DUP1 DUP4 KECCAK256 CALLER DUP5 MSTORE SWAP1 SWAP2 MSTORE SWAP1 KECCAK256 SSTORE PUSH2 0x3AF DUP5 DUP5 DUP5 PUSH2 0x513 JUMP JUMPDEST POP PUSH1 0x1 SWAP4 SWAP3 POP POP POP JUMP JUMPDEST PUSH1 0x7 SLOAD PUSH1 0x0 SWAP1 PUSH1 0x1 PUSH1 0x1 PUSH1 0xA0 SHL SUB AND CALLER EQ PUSH2 0x3E6 JUMPI PUSH1 0x40 MLOAD PUSH3 0x461BCD PUSH1 0xE5 SHL DUP2 MSTORE PUSH1 0x4 ADD PUSH2 0x349 SWAP1 PUSH2 0x759 JUMP JUMPDEST PUSH2 0x3F2 DUP4 PUSH1 0x0 DUP5 PUSH2 0x513 JUMP JUMPDEST POP PUSH1 0x1 SWAP3 SWAP2 POP POP JUMP JUMPDEST PUSH1 0x0 DUP1 SLOAD PUSH2 0x1F0 SWAP1 PUSH2 0x7CD JUMP JUMPDEST PUSH1 0x0 PUSH2 0x3F2 CALLER DUP5 DUP5 PUSH2 0x513 JUMP JUMPDEST PUSH1 0x7 SLOAD PUSH1 0x0 SWAP1 PUSH1 0x1 PUSH1 0x1 PUSH1 0xA0 SHL SUB AND CALLER EQ PUSH2 0x442 JUMPI PUSH1 0x40 MLOAD PUSH3 0x461BCD PUSH1 0xE5 SHL DUP2 MSTORE PUSH1 0x4 ADD PUSH2 0x349 SWAP1 PUSH2 0x759 JUMP JUMPDEST PUSH1 0x7 SLOAD PUSH2 0x3F2 SWAP1 PUSH1 0x1 PUSH1 0x1 PUSH1 0xA0 SHL SUB AND DUP5 DUP5 PUSH2 0x513 JUMP JUMPDEST PUSH1 0x6 SLOAD PUSH1 0x0 SWAP1 PUSH1 0x1 PUSH1 0x1 PUSH1 0xA0 SHL SUB AND CALLER EQ PUSH2 0x4C2 JUMPI PUSH1 0x40 MLOAD PUSH3 0x461BCD PUSH1 0xE5 SHL DUP2 MSTORE PUSH1 0x20 PUSH1 0x4 DUP3 ADD MSTORE PUSH1 0x24 DUP1 DUP3 ADD MSTORE PUSH32 0x4F6E6C7920746865204B494E472063616E207365742074686520417574686F72 PUSH1 0x44 DUP3 ADD MSTORE PUSH4 0x34BA3C97 PUSH1 0xE1 SHL PUSH1 0x64 DUP3 ADD MSTORE PUSH1 0x84 ADD PUSH2 0x349 JUMP JUMPDEST PUSH1 0x7 DUP1 SLOAD PUSH1 0x1 PUSH1 0x1 PUSH1 0xA0 SHL SUB NOT AND PUSH1 0x1 PUSH1 0x1 PUSH1 0xA0 SHL SUB DUP5 DUP2 AND SWAP2 DUP3 OR SWAP1 SWAP3 SSTORE PUSH1 0x6 SLOAD SWAP1 SWAP2 AND PUSH1 0x0 SWAP1 DUP2 MSTORE PUSH1 0x4 PUSH1 0x20 MSTORE PUSH1 0x40 SWAP1 KECCAK256 SLOAD PUSH2 0x3F2 SWAP2 SWAP1 PUSH2 0x408 JUMP JUMPDEST PUSH1 0x0 PUSH2 0x50C DUP3 DUP5 PUSH2 0x7B6 JUMP JUMPDEST SWAP4 SWAP3 POP POP POP JUMP JUMPDEST PUSH1 0x1 PUSH1 0x1 PUSH1 0xA0 SHL SUB DUP4 AND PUSH1 0x0 SWAP1 DUP2 MSTORE PUSH1 0x4 PUSH1 0x20 MSTORE PUSH1 0x40 SWAP1 KECCAK256 SLOAD DUP2 GT ISZERO PUSH2 0x572 JUMPI PUSH1 0x40 MLOAD PUSH3 0x461BCD PUSH1 0xE5 SHL DUP2 MSTORE PUSH1 0x20 PUSH1 0x4 DUP3 ADD MSTORE PUSH1 0x14 PUSH1 0x24 DUP3 ADD MSTORE PUSH20 0x496E73756666696369656E742062616C616E6365 PUSH1 0x60 SHL PUSH1 0x44 DUP3 ADD MSTORE PUSH1 0x64 ADD PUSH2 0x349 JUMP JUMPDEST PUSH1 0x1 PUSH1 0x1 PUSH1 0xA0 SHL SUB DUP4 AND PUSH1 0x0 SWAP1 DUP2 MSTORE PUSH1 0x4 PUSH1 0x20 MSTORE PUSH1 0x40 SWAP1 KECCAK256 SLOAD PUSH2 0x595 SWAP1 DUP3 PUSH2 0x500 JUMP JUMPDEST PUSH1 0x1 PUSH1 0x1 PUSH1 0xA0 SHL SUB DUP1 DUP6 AND PUSH1 0x0 SWAP1 DUP2 MSTORE PUSH1 0x4 PUSH1 0x20 MSTORE PUSH1 0x40 DUP1 DUP3 KECCAK256 SWAP4 SWAP1 SWAP4 SSTORE SWAP1 DUP5 AND DUP2 MSTORE KECCAK256 SLOAD PUSH2 0x5C4 SWAP1 DUP3 PUSH2 0x628 JUMP JUMPDEST PUSH1 0x1 PUSH1 0x1 PUSH1 0xA0 SHL SUB DUP4 DUP2 AND PUSH1 0x0 DUP2 DUP2 MSTORE PUSH1 0x4 PUSH1 0x20 SWAP1 DUP2 MSTORE PUSH1 0x40 SWAP2 DUP3 SWAP1 KECCAK256 SWAP5 SWAP1 SWAP5 SSTORE DUP1 MLOAD SWAP3 DUP8 AND DUP4 MSTORE SWAP3 DUP3 ADD MSTORE SWAP1 DUP2 ADD DUP3 SWAP1 MSTORE PUSH32 0xDDF252AD1BE2C89B69C2B068FC378DAA952BA7F163C4A11628F55A4DF523B3EF SWAP1 PUSH1 0x60 ADD PUSH1 0x40 MLOAD DUP1 SWAP2 SUB SWAP1 LOG1 POP POP POP JUMP JUMPDEST PUSH1 0x0 PUSH2 0x50C DUP3 DUP5 PUSH2 0x79E JUMP JUMPDEST DUP1 CALLDATALOAD PUSH1 0x1 PUSH1 0x1 PUSH1 0xA0 SHL SUB DUP2 AND DUP2 EQ PUSH2 0x64B JUMPI PUSH1 0x0 DUP1 REVERT JUMPDEST SWAP2 SWAP1 POP JUMP JUMPDEST PUSH1 0x0 PUSH1 0x20 DUP3 DUP5 SUB SLT ISZERO PUSH2 0x662 JUMPI PUSH1 0x0 DUP1 REVERT JUMPDEST PUSH2 0x50C DUP3 PUSH2 0x634 JUMP JUMPDEST PUSH1 0x0 DUP1 PUSH1 0x40 DUP4 DUP6 SUB SLT ISZERO PUSH2 0x67E JUMPI PUSH1 0x0 DUP1 REVERT JUMPDEST PUSH2 0x687 DUP4 PUSH2 0x634 JUMP JUMPDEST SWAP2 POP PUSH2 0x695 PUSH1 0x20 DUP5 ADD PUSH2 0x634 JUMP JUMPDEST SWAP1 POP SWAP3 POP SWAP3 SWAP1 POP JUMP JUMPDEST PUSH1 0x0 DUP1 PUSH1 0x0 PUSH1 0x60 DUP5 DUP7 SUB SLT ISZERO PUSH2 0x6B3 JUMPI PUSH1 0x0 DUP1 REVERT JUMPDEST PUSH2 0x6BC DUP5 PUSH2 0x634 JUMP JUMPDEST SWAP3 POP PUSH2 0x6CA PUSH1 0x20 DUP6 ADD PUSH2 0x634 JUMP JUMPDEST SWAP2 POP PUSH1 0x40 DUP5 ADD CALLDATALOAD SWAP1 POP SWAP3 POP SWAP3 POP SWAP3 JUMP JUMPDEST PUSH1 0x0 DUP1 PUSH1 0x40 DUP4 DUP6 SUB SLT ISZERO PUSH2 0x6ED JUMPI PUSH1 0x0 DUP1 REVERT JUMPDEST PUSH2 0x6F6 DUP4 PUSH2 0x634 JUMP JUMPDEST SWAP5 PUSH1 0x20 SWAP4 SWAP1 SWAP4 ADD CALLDATALOAD SWAP4 POP POP POP JUMP JUMPDEST PUSH1 0x0 PUSH1 0x20 DUP1 DUP4 MSTORE DUP4 MLOAD DUP1 DUP3 DUP6 ADD MSTORE PUSH1 0x0 JUMPDEST DUP2 DUP2 LT ISZERO PUSH2 0x731 JUMPI DUP6 DUP2 ADD DUP4 ADD MLOAD DUP6 DUP3 ADD PUSH1 0x40 ADD MSTORE DUP3 ADD PUSH2 0x715 JUMP JUMPDEST DUP2 DUP2 GT ISZERO PUSH2 0x743 JUMPI PUSH1 0x0 PUSH1 0x40 DUP4 DUP8 ADD ADD MSTORE JUMPDEST POP PUSH1 0x1F ADD PUSH1 0x1F NOT AND SWAP3 SWAP1 SWAP3 ADD PUSH1 0x40 ADD SWAP4 SWAP3 POP POP POP JUMP JUMPDEST PUSH1 0x20 DUP1 DUP3 MSTORE PUSH1 0x25 SWAP1 DUP3 ADD MSTORE PUSH32 0x546865206D73672E73656E646572206973206E6F742074686520417574686F72 PUSH1 0x40 DUP3 ADD MSTORE PUSH5 0x34BA3C9017 PUSH1 0xD9 SHL PUSH1 0x60 DUP3 ADD MSTORE PUSH1 0x80 ADD SWAP1 JUMP JUMPDEST PUSH1 0x0 DUP3 NOT DUP3 GT ISZERO PUSH2 0x7B1 JUMPI PUSH2 0x7B1 PUSH2 0x808 JUMP JUMPDEST POP ADD SWAP1 JUMP JUMPDEST PUSH1 0x0 DUP3 DUP3 LT ISZERO PUSH2 0x7C8 JUMPI PUSH2 0x7C8 PUSH2 0x808 JUMP JUMPDEST POP SUB SWAP1 JUMP JUMPDEST PUSH1 0x1 DUP2 DUP2 SHR SWAP1 DUP3 AND DUP1 PUSH2 0x7E1 JUMPI PUSH1 0x7F DUP3 AND SWAP2 POP JUMPDEST PUSH1 0x20 DUP3 LT DUP2 EQ ISZERO PUSH2 0x802 JUMPI PUSH4 0x4E487B71 PUSH1 0xE0 SHL PUSH1 0x0 MSTORE PUSH1 0x22 PUSH1 0x4 MSTORE PUSH1 0x24 PUSH1 0x0 REVERT JUMPDEST POP SWAP2 SWAP1 POP JUMP JUMPDEST PUSH4 0x4E487B71 PUSH1 0xE0 SHL PUSH1 0x0 MSTORE PUSH1 0x11 PUSH1 0x4 MSTORE PUSH1 0x24 PUSH1 0x0 REVERT INVALID LOG2 PUSH5 0x6970667358 0x22 SLT KECCAK256 PUSH30 0xA82FB9E424E366FABBC06BCEA430FBFDCB3D218574F15C283CD68AD25A70 SWAP4 PUSH5 0x736F6C6343 STOP ADDMOD MOD STOP CALLER ","sha1":"a1bd5a80fefa57950144eee91feb892010abd46c","source":"pragma solidity ^0.8.0;\n\n// SPDX-License-Identifier: MIT\n\nimport \"./OpenZepellin/contracts/utils/math/SafeMath.sol\";\n\n\n/**\n    @title Bare-bones Token implementation\n    @notice Based on the ERC-20 token standard as defined at\n            https://eips.ethereum.org/EIPS/eip-20\n */\ncontract Token {\n\n    using SafeMath for uint256;\n\n    string public symbol;\n    string public name;\n    uint256 public decimals;\n    uint256 public totalSupply;\n\n    mapping(address => uint256) balances;\n    mapping(address => mapping(address => uint256)) allowed;\n\n    address king;\n    address authority;\n\n    event Transfer(address from, address to, uint256 value);\n    event Approval(address owner, address spender, uint256 value);\n\n    constructor(string memory _name, string memory _symbol, uint256 _decimals, uint256 _totalSupply) {\n\n        name = _name;\n        symbol = _symbol;\n        decimals = _decimals;\n        totalSupply = _totalSupply;\n        king = msg.sender;\n\n        balances[king] = _totalSupply;\n        emit Transfer(address(0), king, _totalSupply);\n        \n    }\n\n    /**\n        @notice Setter to set the authority address that will have ability to 'lock' tokens of any acount\n        @param _authority Authority\n        @return True if successful\n     */\n    function setAuthorityAddress(address _authority) public returns(bool) {\n        require(msg.sender == king, \"Only the KING can set the Authority.\");\n        \n        authority = _authority;\n        transfer(authority, balanceOf(king));\n\n        return true;\n    }\n\n\n    /**\n        @notice Getter to check the current balance of an address\n        @param _owner Address to query the balance of\n        @return Token balance\n     */\n    function balanceOf(address _owner) public view returns (uint256) {\n        return balances[_owner];\n    }\n\n\n    /**\n        @notice Getter to check the amount of tokens that an owner allowed to a spender\n        @param _owner The address which owns the funds\n        @param _spender The address which will spend the funds\n        @return The amount of tokens still available for the spender\n     */\n    function allowance(address _owner, address _spender) public view returns (uint256) {\n        return allowed[_owner][_spender];\n    }\n\n    /**\n        @notice Approve an address to spend the specified amount of tokens on behalf of msg.sender\n        @dev Beware that changing an allowance with this method brings the risk that someone may use both the old\n             and the new allowance by unfortunate transaction ordering. One possible solution to mitigate this\n             race condition is to first reduce the spender's allowance to 0 and set the desired value afterwards:\n             https://github.com/ethereum/EIPs/issues/20#issuecomment-263524729\n        @param _spender The address which will spend the funds.\n        @param _value The amount of tokens to be spent.\n        @return Success boolean\n     */\n    function approve(address _spender, uint256 _value) public returns (bool) {\n        allowed[msg.sender][_spender] = _value;\n        emit Approval(msg.sender, _spender, _value);\n        return true;\n    }\n\n    /** shared logic for transfer and transferFrom */\n    function _transfer(address _from, address _to, uint256 _value) internal {\n\n        require(balances[_from] >= _value, \"Insufficient balance\");\n\n        balances[_from] = balances[_from].sub(_value);\n        balances[_to] = balances[_to].add(_value);\n\n        emit Transfer(_from, _to, _value);\n    }\n\n    /**\n        @notice Transfer tokens to a specified address\n        @param _to The address to transfer to\n        @param _value The amount to be transferred\n        @return Success boolean\n     */\n    function transfer(address _to, uint256 _value) public returns (bool) {\n        _transfer(msg.sender, _to, _value);\n        return true;\n    }\n\n    /**\n        @notice Transfer tokens from one address to another\n        @param _from The address which you want to send tokens from\n        @param _to The address which you want to transfer to\n        @param _value The amount of tokens to be transferred\n        @return Success boolean\n     */\n    function transferFrom(address _from, address _to, uint256 _value) public returns (bool){\n\n        require(allowed[_from][msg.sender] >= _value, \"Insufficient allowance\");\n        allowed[_from][msg.sender] = allowed[_from][msg.sender].sub(_value);\n        _transfer(_from, _to, _value);\n        return true;\n    }\n\n    /**\n        @notice Sets the amount of tokens that are 'locked' and cannot be used in the current election - can be called only by the authority address\n        @param _voter The address which wants to vote in the current election\n        @param _value The amount of tokens to be used for voting\n        @return Success boolean\n     */\n    function usingRegistrationRight(address _voter, uint256 _value) public returns (bool) {\n\n        require (msg.sender == authority, \"The msg.sender is not the Authority .\");\n        \n        _transfer(authority, _voter, _value);\n\n        return true;\n    }\n\n    /**\n        @notice Sets the amount of tokens that are 'locked' and cannot be used in the current election - can be called only by the authority address\n        @param _voter The address which wants to vote in the current election\n        @param _value The amount of tokens to be used for voting\n        @return Success boolean\n     */\n    function usingVotingRight(address _voter, uint256 _value) public returns (bool) {\n\n        require (msg.sender == authority, \"The msg.sender is not the Authority .\");\n        \n        _transfer(_voter, address(0), _value);\n        \n        return true;\n    }\n\n}\n","sourcePath":"contracts/Token.sol","type":"contract","deployment":{"address":"0xdF12c3d3a9b3f99f3D1Bcd23394031b987ccC318","chainid":"4","blockHeight":9789035}}