{
  "abi": [
    {
      "anonymous": false,
      "inputs": [],
      "name": "MockFunctionCalled",
      "type": "event"
    },
    {
      "inputs": [],
      "name": "mockFunction",
      "outputs": [
        {
          "internalType": "string",
          "name": "",
          "type": "string"
        }
      ],
      "stateMutability": "payable",
      "type": "function"
    },
    {
      "inputs": [],
      "name": "mockFunctionNonPayable",
      "outputs": [
        {
          "internalType": "string",
          "name": "",
          "type": "string"
        }
      ],
      "stateMutability": "nonpayable",
      "type": "function"
    },
    {
      "inputs": [],
      "name": "mockFunctionOutOfGas",
      "outputs": [],
      "stateMutability": "payable",
      "type": "function"
    },
    {
      "inputs": [],
      "name": "mockFunctionRevertsNoReason",
      "outputs": [],
      "stateMutability": "payable",
      "type": "function"
    },
    {
      "inputs": [],
      "name": "mockFunctionRevertsReason",
      "outputs": [],
      "stateMutability": "payable",
      "type": "function"
    },
    {
      "inputs": [],
      "name": "mockFunctionThrows",
      "outputs": [],
      "stateMutability": "payable",
      "type": "function"
    },
    {
      "inputs": [],
      "name": "mockFunctionWritesStorage",
      "outputs": [
        {
          "internalType": "string",
          "name": "",
          "type": "string"
        }
      ],
      "stateMutability": "nonpayable",
      "type": "function"
    },
    {
      "inputs": [],
      "name": "mockStaticFunction",
      "outputs": [
        {
          "internalType": "string",
          "name": "",
          "type": "string"
        }
      ],
      "stateMutability": "pure",
      "type": "function"
    },
    {
      "inputs": [],
      "name": "sharedAnswer",
      "outputs": [
        {
          "internalType": "string",
          "name": "",
          "type": "string"
        }
      ],
      "stateMutability": "view",
      "type": "function"
    }
  ],
  "bytecode": "608060405234801561001057600080fd5b5061049e806100206000396000f3fe6080604052600436106100865760003560e01c80633e6fec04116100595780633e6fec04146100d0578063a793ab47146100d8578063aa04f77e146100e0578063c8fc7696146100f5578063fc40cf731461012457600080fd5b80630c0349681461008b5780630f63e42c146100955780632c81d638146100c05780633bcfaa14146100c8575b600080fd5b610093610139565b005b3480156100a157600080fd5b506100aa610185565b6040516100b79190610399565b60405180910390f35b610093600080fd5b6100936101d2565b6100aa610185565b6100936101dc565b3480156100ec57600080fd5b506100aa610223565b34801561010157600080fd5b506040805180820190915260068152650c1e0c4c8ccd60d21b60208201526100aa565b34801561013057600080fd5b506100aa610272565b60405162461bcd60e51b815260206004820152601b60248201527f43616c6c52656365697665724d6f636b3a20726576657274696e670000000000604482015260640160405180910390fd5b6040516060907f52c66ed6ec9ca819cba26fe2b2650059270d8981b295af300187a964f54a8c2390600090a1506040805180820190915260068152650c1e0c4c8ccd60d21b602082015290565b6101da610452565b565b60005b6001805480820182556000919091527fb10e2d527612073b26eecdfd717e6a320cf44b4afac2b0732d9fcbe2b7fa0cf60181905561021c81610429565b90506101df565b604080518082019091526002808252611a1960f11b60209092019182526060916102509160009190610300565b50506040805180820190915260068152650c1e0c4c8ccd60d21b602082015290565b6000805461027f906103ee565b80601f01602080910402602001604051908101604052809291908181526020018280546102ab906103ee565b80156102f85780601f106102cd576101008083540402835291602001916102f8565b820191906000526020600020905b8154815290600101906020018083116102db57829003601f168201915b505050505081565b82805461030c906103ee565b90600052602060002090601f01602090048101928261032e5760008555610374565b82601f1061034757805160ff1916838001178555610374565b82800160010185558215610374579182015b82811115610374578251825591602001919060010190610359565b50610380929150610384565b5090565b5b808211156103805760008155600101610385565b600060208083528351808285015260005b818110156103c6578581018301518582016040015282016103aa565b818111156103d8576000604083870101525b50601f01601f1916929092016040019392505050565b600181811c9082168061040257607f821691505b6020821081141561042357634e487b7160e01b600052602260045260246000fd5b50919050565b600060001982141561044b57634e487b7160e01b600052601160045260246000fd5b5060010190565b634e487b7160e01b600052600160045260246000fdfea264697066735822122051cc23455fc12d038551253d6f14aa5f4f0625d3bf5c06212bd69f7303fc798f64736f6c63430008060033",
  "bytecodeSha1": "8b42d4e10763fceafa574d3c9bc9ed6851c6eaa9",
  "compiler": {
    "evm_version": "istanbul",
    "optimizer": {
      "enabled": true,
      "runs": 200
    },
    "version": "0.8.6+commit.11564f7e"
  },
  "contractName": "CallReceiverMock",
  "language": "Solidity",
  "natspec": {
    "kind": "dev",
    "methods": {},
    "version": 1
  },
  "opcodes": "PUSH1 0x80 PUSH1 0x40 MSTORE PUSH1 0x4 CALLDATASIZE LT PUSH2 0x86 JUMPI PUSH1 0x0 CALLDATALOAD PUSH1 0xE0 SHR DUP1 PUSH4 0x3E6FEC04 GT PUSH2 0x59 JUMPI DUP1 PUSH4 0x3E6FEC04 EQ PUSH2 0xD0 JUMPI DUP1 PUSH4 0xA793AB47 EQ PUSH2 0xD8 JUMPI DUP1 PUSH4 0xAA04F77E EQ PUSH2 0xE0 JUMPI DUP1 PUSH4 0xC8FC7696 EQ PUSH2 0xF5 JUMPI DUP1 PUSH4 0xFC40CF73 EQ PUSH2 0x124 JUMPI PUSH1 0x0 DUP1 REVERT JUMPDEST DUP1 PUSH4 0xC034968 EQ PUSH2 0x8B JUMPI DUP1 PUSH4 0xF63E42C EQ PUSH2 0x95 JUMPI DUP1 PUSH4 0x2C81D638 EQ PUSH2 0xC0 JUMPI DUP1 PUSH4 0x3BCFAA14 EQ PUSH2 0xC8 JUMPI JUMPDEST PUSH1 0x0 DUP1 REVERT JUMPDEST PUSH2 0x93 PUSH2 0x139 JUMP JUMPDEST STOP JUMPDEST CALLVALUE DUP1 ISZERO PUSH2 0xA1 JUMPI PUSH1 0x0 DUP1 REVERT JUMPDEST POP PUSH2 0xAA PUSH2 0x185 JUMP JUMPDEST PUSH1 0x40 MLOAD PUSH2 0xB7 SWAP2 SWAP1 PUSH2 0x399 JUMP JUMPDEST PUSH1 0x40 MLOAD DUP1 SWAP2 SUB SWAP1 RETURN JUMPDEST PUSH2 0x93 PUSH1 0x0 DUP1 REVERT JUMPDEST PUSH2 0x93 PUSH2 0x1D2 JUMP JUMPDEST PUSH2 0xAA PUSH2 0x185 JUMP JUMPDEST PUSH2 0x93 PUSH2 0x1DC JUMP JUMPDEST CALLVALUE DUP1 ISZERO PUSH2 0xEC JUMPI PUSH1 0x0 DUP1 REVERT JUMPDEST POP PUSH2 0xAA PUSH2 0x223 JUMP JUMPDEST CALLVALUE DUP1 ISZERO PUSH2 0x101 JUMPI PUSH1 0x0 DUP1 REVERT JUMPDEST POP PUSH1 0x40 DUP1 MLOAD DUP1 DUP3 ADD SWAP1 SWAP2 MSTORE PUSH1 0x6 DUP2 MSTORE PUSH6 0xC1E0C4C8CCD PUSH1 0xD2 SHL PUSH1 0x20 DUP3 ADD MSTORE PUSH2 0xAA JUMP JUMPDEST CALLVALUE DUP1 ISZERO PUSH2 0x130 JUMPI PUSH1 0x0 DUP1 REVERT JUMPDEST POP PUSH2 0xAA PUSH2 0x272 JUMP JUMPDEST PUSH1 0x40 MLOAD PUSH3 0x461BCD PUSH1 0xE5 SHL DUP2 MSTORE PUSH1 0x20 PUSH1 0x4 DUP3 ADD MSTORE PUSH1 0x1B PUSH1 0x24 DUP3 ADD MSTORE PUSH32 0x43616C6C52656365697665724D6F636B3A20726576657274696E670000000000 PUSH1 0x44 DUP3 ADD MSTORE PUSH1 0x64 ADD PUSH1 0x40 MLOAD DUP1 SWAP2 SUB SWAP1 REVERT JUMPDEST PUSH1 0x40 MLOAD PUSH1 0x60 SWAP1 PUSH32 0x52C66ED6EC9CA819CBA26FE2B2650059270D8981B295AF300187A964F54A8C23 SWAP1 PUSH1 0x0 SWAP1 LOG1 POP PUSH1 0x40 DUP1 MLOAD DUP1 DUP3 ADD SWAP1 SWAP2 MSTORE PUSH1 0x6 DUP2 MSTORE PUSH6 0xC1E0C4C8CCD PUSH1 0xD2 SHL PUSH1 0x20 DUP3 ADD MSTORE SWAP1 JUMP JUMPDEST PUSH2 0x1DA PUSH2 0x452 JUMP JUMPDEST JUMP JUMPDEST PUSH1 0x0 JUMPDEST PUSH1 0x1 DUP1 SLOAD DUP1 DUP3 ADD DUP3 SSTORE PUSH1 0x0 SWAP2 SWAP1 SWAP2 MSTORE PUSH32 0xB10E2D527612073B26EECDFD717E6A320CF44B4AFAC2B0732D9FCBE2B7FA0CF6 ADD DUP2 SWAP1 SSTORE PUSH2 0x21C DUP2 PUSH2 0x429 JUMP JUMPDEST SWAP1 POP PUSH2 0x1DF JUMP JUMPDEST PUSH1 0x40 DUP1 MLOAD DUP1 DUP3 ADD SWAP1 SWAP2 MSTORE PUSH1 0x2 DUP1 DUP3 MSTORE PUSH2 0x1A19 PUSH1 0xF1 SHL PUSH1 0x20 SWAP1 SWAP3 ADD SWAP2 DUP3 MSTORE PUSH1 0x60 SWAP2 PUSH2 0x250 SWAP2 PUSH1 0x0 SWAP2 SWAP1 PUSH2 0x300 JUMP JUMPDEST POP POP PUSH1 0x40 DUP1 MLOAD DUP1 DUP3 ADD SWAP1 SWAP2 MSTORE PUSH1 0x6 DUP2 MSTORE PUSH6 0xC1E0C4C8CCD PUSH1 0xD2 SHL PUSH1 0x20 DUP3 ADD MSTORE SWAP1 JUMP JUMPDEST PUSH1 0x0 DUP1 SLOAD PUSH2 0x27F SWAP1 PUSH2 0x3EE JUMP JUMPDEST DUP1 PUSH1 0x1F ADD PUSH1 0x20 DUP1 SWAP2 DIV MUL PUSH1 0x20 ADD PUSH1 0x40 MLOAD SWAP1 DUP2 ADD PUSH1 0x40 MSTORE DUP1 SWAP3 SWAP2 SWAP1 DUP2 DUP2 MSTORE PUSH1 0x20 ADD DUP3 DUP1 SLOAD PUSH2 0x2AB SWAP1 PUSH2 0x3EE JUMP JUMPDEST DUP1 ISZERO PUSH2 0x2F8 JUMPI DUP1 PUSH1 0x1F LT PUSH2 0x2CD JUMPI PUSH2 0x100 DUP1 DUP4 SLOAD DIV MUL DUP4 MSTORE SWAP2 PUSH1 0x20 ADD SWAP2 PUSH2 0x2F8 JUMP JUMPDEST DUP3 ADD SWAP2 SWAP1 PUSH1 0x0 MSTORE PUSH1 0x20 PUSH1 0x0 KECCAK256 SWAP1 JUMPDEST DUP2 SLOAD DUP2 MSTORE SWAP1 PUSH1 0x1 ADD SWAP1 PUSH1 0x20 ADD DUP1 DUP4 GT PUSH2 0x2DB JUMPI DUP3 SWAP1 SUB PUSH1 0x1F AND DUP3 ADD SWAP2 JUMPDEST POP POP POP POP POP DUP2 JUMP JUMPDEST DUP3 DUP1 SLOAD PUSH2 0x30C SWAP1 PUSH2 0x3EE JUMP JUMPDEST SWAP1 PUSH1 0x0 MSTORE PUSH1 0x20 PUSH1 0x0 KECCAK256 SWAP1 PUSH1 0x1F ADD PUSH1 0x20 SWAP1 DIV DUP2 ADD SWAP3 DUP3 PUSH2 0x32E JUMPI PUSH1 0x0 DUP6 SSTORE PUSH2 0x374 JUMP JUMPDEST DUP3 PUSH1 0x1F LT PUSH2 0x347 JUMPI DUP1 MLOAD PUSH1 0xFF NOT AND DUP4 DUP1 ADD OR DUP6 SSTORE PUSH2 0x374 JUMP JUMPDEST DUP3 DUP1 ADD PUSH1 0x1 ADD DUP6 SSTORE DUP3 ISZERO PUSH2 0x374 JUMPI SWAP2 DUP3 ADD JUMPDEST DUP3 DUP2 GT ISZERO PUSH2 0x374 JUMPI DUP3 MLOAD DUP3 SSTORE SWAP2 PUSH1 0x20 ADD SWAP2 SWAP1 PUSH1 0x1 ADD SWAP1 PUSH2 0x359 JUMP JUMPDEST POP PUSH2 0x380 SWAP3 SWAP2 POP PUSH2 0x384 JUMP JUMPDEST POP SWAP1 JUMP JUMPDEST JUMPDEST DUP1 DUP3 GT ISZERO PUSH2 0x380 JUMPI PUSH1 0x0 DUP2 SSTORE PUSH1 0x1 ADD PUSH2 0x385 JUMP JUMPDEST PUSH1 0x0 PUSH1 0x20 DUP1 DUP4 MSTORE DUP4 MLOAD DUP1 DUP3 DUP6 ADD MSTORE PUSH1 0x0 JUMPDEST DUP2 DUP2 LT ISZERO PUSH2 0x3C6 JUMPI DUP6 DUP2 ADD DUP4 ADD MLOAD DUP6 DUP3 ADD PUSH1 0x40 ADD MSTORE DUP3 ADD PUSH2 0x3AA JUMP JUMPDEST DUP2 DUP2 GT ISZERO PUSH2 0x3D8 JUMPI PUSH1 0x0 PUSH1 0x40 DUP4 DUP8 ADD ADD MSTORE JUMPDEST POP PUSH1 0x1F ADD PUSH1 0x1F NOT AND SWAP3 SWAP1 SWAP3 ADD PUSH1 0x40 ADD SWAP4 SWAP3 POP POP POP JUMP JUMPDEST PUSH1 0x1 DUP2 DUP2 SHR SWAP1 DUP3 AND DUP1 PUSH2 0x402 JUMPI PUSH1 0x7F DUP3 AND SWAP2 POP JUMPDEST PUSH1 0x20 DUP3 LT DUP2 EQ ISZERO PUSH2 0x423 JUMPI PUSH4 0x4E487B71 PUSH1 0xE0 SHL PUSH1 0x0 MSTORE PUSH1 0x22 PUSH1 0x4 MSTORE PUSH1 0x24 PUSH1 0x0 REVERT JUMPDEST POP SWAP2 SWAP1 POP JUMP JUMPDEST PUSH1 0x0 PUSH1 0x0 NOT DUP3 EQ ISZERO PUSH2 0x44B JUMPI PUSH4 0x4E487B71 PUSH1 0xE0 SHL PUSH1 0x0 MSTORE PUSH1 0x11 PUSH1 0x4 MSTORE PUSH1 0x24 PUSH1 0x0 REVERT JUMPDEST POP PUSH1 0x1 ADD SWAP1 JUMP JUMPDEST PUSH4 0x4E487B71 PUSH1 0xE0 SHL PUSH1 0x0 MSTORE PUSH1 0x1 PUSH1 0x4 MSTORE PUSH1 0x24 PUSH1 0x0 REVERT INVALID LOG2 PUSH5 0x6970667358 0x22 SLT KECCAK256 MLOAD 0xCC 0x23 GASLIMIT 0x5F 0xC1 0x2D SUB DUP6 MLOAD 0x25 RETURNDATASIZE PUSH16 0x14AA5F4F0625D3BF5C06212BD69F7303 0xFC PUSH26 0x8F64736F6C634300080600330000000000000000000000000000 ",
  "sha1": "378b7f4d207d9e8cf25405f39bfeb4de40452cb1",
  "source": "// SPDX-License-Identifier: MIT\n\npragma solidity ^0.8.0;\n\ncontract CallReceiverMock {\n    string public sharedAnswer;\n\n    event MockFunctionCalled();\n\n    uint256[] private _array;\n\n    function mockFunction() public payable returns (string memory) {\n        emit MockFunctionCalled();\n\n        return \"0x1234\";\n    }\n\n    function mockFunctionNonPayable() public returns (string memory) {\n        emit MockFunctionCalled();\n\n        return \"0x1234\";\n    }\n\n    function mockStaticFunction() public pure returns (string memory) {\n        return \"0x1234\";\n    }\n\n    function mockFunctionRevertsNoReason() public payable {\n        revert();\n    }\n\n    function mockFunctionRevertsReason() public payable {\n        revert(\"CallReceiverMock: reverting\");\n    }\n\n    function mockFunctionThrows() public payable {\n        assert(false);\n    }\n\n    function mockFunctionOutOfGas() public payable {\n        for (uint256 i = 0; ; ++i) {\n            _array.push(i);\n        }\n    }\n\n    function mockFunctionWritesStorage() public returns (string memory) {\n        sharedAnswer = \"42\";\n        return \"0x1234\";\n    }\n}\n",
  "sourcePath": "contracts/OpenZepellin/contracts/mocks/CallReceiverMock.sol",
  "type": "contract"
}