{
  "abi": [
    {
      "inputs": [
        {
          "internalType": "contract ContextMock",
          "name": "context",
          "type": "address"
        },
        {
          "internalType": "uint256",
          "name": "integerValue",
          "type": "uint256"
        },
        {
          "internalType": "string",
          "name": "stringValue",
          "type": "string"
        }
      ],
      "name": "callData",
      "outputs": [],
      "stateMutability": "nonpayable",
      "type": "function"
    },
    {
      "inputs": [
        {
          "internalType": "contract ContextMock",
          "name": "context",
          "type": "address"
        }
      ],
      "name": "callSender",
      "outputs": [],
      "stateMutability": "nonpayable",
      "type": "function"
    }
  ],
  "bytecode": "608060405234801561001057600080fd5b506102cf806100206000396000f3fe608060405234801561001057600080fd5b50600436106100355760003560e01c80628604591461003a5780633207ad961461004f575b600080fd5b61004d61004836600461015b565b610062565b005b61004d61005d366004610139565b6100c7565b604051631bb5f93160e11b81526001600160a01b0384169063376bf262906100909085908590600401610226565b600060405180830381600087803b1580156100aa57600080fd5b505af11580156100be573d6000803e3d6000fd5b50505050505050565b806001600160a01b031663d737d0c76040518163ffffffff1660e01b8152600401600060405180830381600087803b15801561010257600080fd5b505af1158015610116573d6000803e3d6000fd5b5050505050565b80356001600160a01b038116811461013457600080fd5b919050565b60006020828403121561014b57600080fd5b6101548261011d565b9392505050565b60008060006060848603121561017057600080fd5b6101798461011d565b925060208401359150604084013567ffffffffffffffff8082111561019d57600080fd5b818601915086601f8301126101b157600080fd5b8135818111156101c3576101c3610283565b604051601f8201601f19908116603f011681019083821181831017156101eb576101eb610283565b8160405282815289602084870101111561020457600080fd5b8260208601602083013760006020848301015280955050505050509250925092565b82815260006020604081840152835180604085015260005b8181101561025a5785810183015185820160600152820161023e565b8181111561026c576000606083870101525b50601f01601f191692909201606001949350505050565b634e487b7160e01b600052604160045260246000fdfea2646970667358221220ef8bec22b10b9d32132d3eef41946f625354bd7b677134340216dd1a4865b3c064736f6c63430008060033",
  "bytecodeSha1": "d7af27a460243e44681d16891db49ddb5dc1b233",
  "compiler": {
    "evm_version": "istanbul",
    "optimizer": {
      "enabled": true,
      "runs": 200
    },
    "version": "0.8.6+commit.11564f7e"
  },
  "contractName": "ContextMockCaller",
  "language": "Solidity",
  "natspec": {
    "kind": "dev",
    "methods": {},
    "version": 1
  },
  "opcodes": "PUSH1 0x80 PUSH1 0x40 MSTORE CALLVALUE DUP1 ISZERO PUSH2 0x10 JUMPI PUSH1 0x0 DUP1 REVERT JUMPDEST POP PUSH1 0x4 CALLDATASIZE LT PUSH2 0x35 JUMPI PUSH1 0x0 CALLDATALOAD PUSH1 0xE0 SHR DUP1 PUSH3 0x860459 EQ PUSH2 0x3A JUMPI DUP1 PUSH4 0x3207AD96 EQ PUSH2 0x4F JUMPI JUMPDEST PUSH1 0x0 DUP1 REVERT JUMPDEST PUSH2 0x4D PUSH2 0x48 CALLDATASIZE PUSH1 0x4 PUSH2 0x15B JUMP JUMPDEST PUSH2 0x62 JUMP JUMPDEST STOP JUMPDEST PUSH2 0x4D PUSH2 0x5D CALLDATASIZE PUSH1 0x4 PUSH2 0x139 JUMP JUMPDEST PUSH2 0xC7 JUMP JUMPDEST PUSH1 0x40 MLOAD PUSH4 0x1BB5F931 PUSH1 0xE1 SHL DUP2 MSTORE PUSH1 0x1 PUSH1 0x1 PUSH1 0xA0 SHL SUB DUP5 AND SWAP1 PUSH4 0x376BF262 SWAP1 PUSH2 0x90 SWAP1 DUP6 SWAP1 DUP6 SWAP1 PUSH1 0x4 ADD PUSH2 0x226 JUMP JUMPDEST PUSH1 0x0 PUSH1 0x40 MLOAD DUP1 DUP4 SUB DUP2 PUSH1 0x0 DUP8 DUP1 EXTCODESIZE ISZERO DUP1 ISZERO PUSH2 0xAA JUMPI PUSH1 0x0 DUP1 REVERT JUMPDEST POP GAS CALL ISZERO DUP1 ISZERO PUSH2 0xBE JUMPI RETURNDATASIZE PUSH1 0x0 DUP1 RETURNDATACOPY RETURNDATASIZE PUSH1 0x0 REVERT JUMPDEST POP POP POP POP POP POP POP JUMP JUMPDEST DUP1 PUSH1 0x1 PUSH1 0x1 PUSH1 0xA0 SHL SUB AND PUSH4 0xD737D0C7 PUSH1 0x40 MLOAD DUP2 PUSH4 0xFFFFFFFF AND PUSH1 0xE0 SHL DUP2 MSTORE PUSH1 0x4 ADD PUSH1 0x0 PUSH1 0x40 MLOAD DUP1 DUP4 SUB DUP2 PUSH1 0x0 DUP8 DUP1 EXTCODESIZE ISZERO DUP1 ISZERO PUSH2 0x102 JUMPI PUSH1 0x0 DUP1 REVERT JUMPDEST POP GAS CALL ISZERO DUP1 ISZERO PUSH2 0x116 JUMPI RETURNDATASIZE PUSH1 0x0 DUP1 RETURNDATACOPY RETURNDATASIZE PUSH1 0x0 REVERT JUMPDEST POP POP POP POP POP JUMP JUMPDEST DUP1 CALLDATALOAD PUSH1 0x1 PUSH1 0x1 PUSH1 0xA0 SHL SUB DUP2 AND DUP2 EQ PUSH2 0x134 JUMPI PUSH1 0x0 DUP1 REVERT JUMPDEST SWAP2 SWAP1 POP JUMP JUMPDEST PUSH1 0x0 PUSH1 0x20 DUP3 DUP5 SUB SLT ISZERO PUSH2 0x14B JUMPI PUSH1 0x0 DUP1 REVERT JUMPDEST PUSH2 0x154 DUP3 PUSH2 0x11D JUMP JUMPDEST SWAP4 SWAP3 POP POP POP JUMP JUMPDEST PUSH1 0x0 DUP1 PUSH1 0x0 PUSH1 0x60 DUP5 DUP7 SUB SLT ISZERO PUSH2 0x170 JUMPI PUSH1 0x0 DUP1 REVERT JUMPDEST PUSH2 0x179 DUP5 PUSH2 0x11D JUMP JUMPDEST SWAP3 POP PUSH1 0x20 DUP5 ADD CALLDATALOAD SWAP2 POP PUSH1 0x40 DUP5 ADD CALLDATALOAD PUSH8 0xFFFFFFFFFFFFFFFF DUP1 DUP3 GT ISZERO PUSH2 0x19D JUMPI PUSH1 0x0 DUP1 REVERT JUMPDEST DUP2 DUP7 ADD SWAP2 POP DUP7 PUSH1 0x1F DUP4 ADD SLT PUSH2 0x1B1 JUMPI PUSH1 0x0 DUP1 REVERT JUMPDEST DUP2 CALLDATALOAD DUP2 DUP2 GT ISZERO PUSH2 0x1C3 JUMPI PUSH2 0x1C3 PUSH2 0x283 JUMP JUMPDEST PUSH1 0x40 MLOAD PUSH1 0x1F DUP3 ADD PUSH1 0x1F NOT SWAP1 DUP2 AND PUSH1 0x3F ADD AND DUP2 ADD SWAP1 DUP4 DUP3 GT DUP2 DUP4 LT OR ISZERO PUSH2 0x1EB JUMPI PUSH2 0x1EB PUSH2 0x283 JUMP JUMPDEST DUP2 PUSH1 0x40 MSTORE DUP3 DUP2 MSTORE DUP10 PUSH1 0x20 DUP5 DUP8 ADD ADD GT ISZERO PUSH2 0x204 JUMPI PUSH1 0x0 DUP1 REVERT JUMPDEST DUP3 PUSH1 0x20 DUP7 ADD PUSH1 0x20 DUP4 ADD CALLDATACOPY PUSH1 0x0 PUSH1 0x20 DUP5 DUP4 ADD ADD MSTORE DUP1 SWAP6 POP POP POP POP POP POP SWAP3 POP SWAP3 POP SWAP3 JUMP JUMPDEST DUP3 DUP2 MSTORE PUSH1 0x0 PUSH1 0x20 PUSH1 0x40 DUP2 DUP5 ADD MSTORE DUP4 MLOAD DUP1 PUSH1 0x40 DUP6 ADD MSTORE PUSH1 0x0 JUMPDEST DUP2 DUP2 LT ISZERO PUSH2 0x25A JUMPI DUP6 DUP2 ADD DUP4 ADD MLOAD DUP6 DUP3 ADD PUSH1 0x60 ADD MSTORE DUP3 ADD PUSH2 0x23E JUMP JUMPDEST DUP2 DUP2 GT ISZERO PUSH2 0x26C JUMPI PUSH1 0x0 PUSH1 0x60 DUP4 DUP8 ADD ADD MSTORE JUMPDEST POP PUSH1 0x1F ADD PUSH1 0x1F NOT AND SWAP3 SWAP1 SWAP3 ADD PUSH1 0x60 ADD SWAP5 SWAP4 POP POP POP POP JUMP JUMPDEST PUSH4 0x4E487B71 PUSH1 0xE0 SHL PUSH1 0x0 MSTORE PUSH1 0x41 PUSH1 0x4 MSTORE PUSH1 0x24 PUSH1 0x0 REVERT INVALID LOG2 PUSH5 0x6970667358 0x22 SLT KECCAK256 0xEF DUP12 0xEC 0x22 0xB1 SIGNEXTEND SWAP14 ORIGIN SGT 0x2D RETURNDATACOPY 0xEF COINBASE SWAP5 PUSH16 0x625354BD7B677134340216DD1A4865B3 0xC0 PUSH5 0x736F6C6343 STOP ADDMOD MOD STOP CALLER ",
  "sha1": "4cf4a7ed6dca4ceb4af7bd3b71c0923a85f54976",
  "source": "// SPDX-License-Identifier: MIT\n\npragma solidity ^0.8.0;\n\nimport \"../utils/Context.sol\";\n\ncontract ContextMock is Context {\n    event Sender(address sender);\n\n    function msgSender() public {\n        emit Sender(_msgSender());\n    }\n\n    event Data(bytes data, uint256 integerValue, string stringValue);\n\n    function msgData(uint256 integerValue, string memory stringValue) public {\n        emit Data(_msgData(), integerValue, stringValue);\n    }\n}\n\ncontract ContextMockCaller {\n    function callSender(ContextMock context) public {\n        context.msgSender();\n    }\n\n    function callData(\n        ContextMock context,\n        uint256 integerValue,\n        string memory stringValue\n    ) public {\n        context.msgData(integerValue, stringValue);\n    }\n}\n",
  "sourcePath": "contracts/OpenZepellin/contracts/mocks/ContextMock.sol",
  "type": "contract"
}