{
  "abi": [
    {
      "anonymous": false,
      "inputs": [
        {
          "indexed": false,
          "internalType": "bytes",
          "name": "data",
          "type": "bytes"
        },
        {
          "indexed": false,
          "internalType": "uint256",
          "name": "integerValue",
          "type": "uint256"
        },
        {
          "indexed": false,
          "internalType": "string",
          "name": "stringValue",
          "type": "string"
        }
      ],
      "name": "Data",
      "type": "event"
    },
    {
      "anonymous": false,
      "inputs": [
        {
          "indexed": false,
          "internalType": "address",
          "name": "sender",
          "type": "address"
        }
      ],
      "name": "Sender",
      "type": "event"
    },
    {
      "inputs": [
        {
          "internalType": "uint256",
          "name": "integerValue",
          "type": "uint256"
        },
        {
          "internalType": "string",
          "name": "stringValue",
          "type": "string"
        }
      ],
      "name": "msgData",
      "outputs": [],
      "stateMutability": "nonpayable",
      "type": "function"
    },
    {
      "inputs": [],
      "name": "msgSender",
      "outputs": [],
      "stateMutability": "nonpayable",
      "type": "function"
    }
  ],
  "bytecode": "608060405234801561001057600080fd5b5061025e806100206000396000f3fe608060405234801561001057600080fd5b50600436106100365760003560e01c8063376bf2621461003b578063d737d0c714610050575b600080fd5b61004e6100493660046100cf565b610058565b005b61004e61009a565b7faf235354a0a47c91ee171961326335cb2d1a8e55b8a89859b0e61eb049e50ea0600036848460405161008e949392919061018a565b60405180910390a15050565b6040805133815290517fd6558c3ed910d959271054471fd1c326679d9fece99c5091b00ed89627cf2bfc9181900360200190a1565b600080604083850312156100e257600080fd5b82359150602083013567ffffffffffffffff8082111561010157600080fd5b818501915085601f83011261011557600080fd5b81358181111561012757610127610212565b604051601f8201601f19908116603f0116810190838211818310171561014f5761014f610212565b8160405282815288602084870101111561016857600080fd5b8260208601602083013760006020848301015280955050505050509250929050565b60608152836060820152838560808301376000608085830101526000601f1980601f8701168301602086818601526080858303016040860152855180608084015260005b818110156101ea5787810183015184820160a0015282016101ce565b818111156101fc57600060a083860101525b50601f019092160160a001979650505050505050565b634e487b7160e01b600052604160045260246000fdfea264697066735822122064dd666a83194d8e09e1f5f92beb673c4a741c1eb0edf5cdce5707a6ed11280964736f6c63430008060033",
  "bytecodeSha1": "9258387b54560717ba6b64b001611a006d491037",
  "compiler": {
    "evm_version": "istanbul",
    "optimizer": {
      "enabled": true,
      "runs": 200
    },
    "version": "0.8.6+commit.11564f7e"
  },
  "contractName": "ContextMock",
  "language": "Solidity",
  "natspec": {
    "kind": "dev",
    "methods": {},
    "version": 1
  },
  "opcodes": "PUSH1 0x80 PUSH1 0x40 MSTORE CALLVALUE DUP1 ISZERO PUSH2 0x10 JUMPI PUSH1 0x0 DUP1 REVERT JUMPDEST POP PUSH1 0x4 CALLDATASIZE LT PUSH2 0x36 JUMPI PUSH1 0x0 CALLDATALOAD PUSH1 0xE0 SHR DUP1 PUSH4 0x376BF262 EQ PUSH2 0x3B JUMPI DUP1 PUSH4 0xD737D0C7 EQ PUSH2 0x50 JUMPI JUMPDEST PUSH1 0x0 DUP1 REVERT JUMPDEST PUSH2 0x4E PUSH2 0x49 CALLDATASIZE PUSH1 0x4 PUSH2 0xCF JUMP JUMPDEST PUSH2 0x58 JUMP JUMPDEST STOP JUMPDEST PUSH2 0x4E PUSH2 0x9A JUMP JUMPDEST PUSH32 0xAF235354A0A47C91EE171961326335CB2D1A8E55B8A89859B0E61EB049E50EA0 PUSH1 0x0 CALLDATASIZE DUP5 DUP5 PUSH1 0x40 MLOAD PUSH2 0x8E SWAP5 SWAP4 SWAP3 SWAP2 SWAP1 PUSH2 0x18A JUMP JUMPDEST PUSH1 0x40 MLOAD DUP1 SWAP2 SUB SWAP1 LOG1 POP POP JUMP JUMPDEST PUSH1 0x40 DUP1 MLOAD CALLER DUP2 MSTORE SWAP1 MLOAD PUSH32 0xD6558C3ED910D959271054471FD1C326679D9FECE99C5091B00ED89627CF2BFC SWAP2 DUP2 SWAP1 SUB PUSH1 0x20 ADD SWAP1 LOG1 JUMP JUMPDEST PUSH1 0x0 DUP1 PUSH1 0x40 DUP4 DUP6 SUB SLT ISZERO PUSH2 0xE2 JUMPI PUSH1 0x0 DUP1 REVERT JUMPDEST DUP3 CALLDATALOAD SWAP2 POP PUSH1 0x20 DUP4 ADD CALLDATALOAD PUSH8 0xFFFFFFFFFFFFFFFF DUP1 DUP3 GT ISZERO PUSH2 0x101 JUMPI PUSH1 0x0 DUP1 REVERT JUMPDEST DUP2 DUP6 ADD SWAP2 POP DUP6 PUSH1 0x1F DUP4 ADD SLT PUSH2 0x115 JUMPI PUSH1 0x0 DUP1 REVERT JUMPDEST DUP2 CALLDATALOAD DUP2 DUP2 GT ISZERO PUSH2 0x127 JUMPI PUSH2 0x127 PUSH2 0x212 JUMP JUMPDEST PUSH1 0x40 MLOAD PUSH1 0x1F DUP3 ADD PUSH1 0x1F NOT SWAP1 DUP2 AND PUSH1 0x3F ADD AND DUP2 ADD SWAP1 DUP4 DUP3 GT DUP2 DUP4 LT OR ISZERO PUSH2 0x14F JUMPI PUSH2 0x14F PUSH2 0x212 JUMP JUMPDEST DUP2 PUSH1 0x40 MSTORE DUP3 DUP2 MSTORE DUP9 PUSH1 0x20 DUP5 DUP8 ADD ADD GT ISZERO PUSH2 0x168 JUMPI PUSH1 0x0 DUP1 REVERT JUMPDEST DUP3 PUSH1 0x20 DUP7 ADD PUSH1 0x20 DUP4 ADD CALLDATACOPY PUSH1 0x0 PUSH1 0x20 DUP5 DUP4 ADD ADD MSTORE DUP1 SWAP6 POP POP POP POP POP POP SWAP3 POP SWAP3 SWAP1 POP JUMP JUMPDEST PUSH1 0x60 DUP2 MSTORE DUP4 PUSH1 0x60 DUP3 ADD MSTORE DUP4 DUP6 PUSH1 0x80 DUP4 ADD CALLDATACOPY PUSH1 0x0 PUSH1 0x80 DUP6 DUP4 ADD ADD MSTORE PUSH1 0x0 PUSH1 0x1F NOT DUP1 PUSH1 0x1F DUP8 ADD AND DUP4 ADD PUSH1 0x20 DUP7 DUP2 DUP7 ADD MSTORE PUSH1 0x80 DUP6 DUP4 SUB ADD PUSH1 0x40 DUP7 ADD MSTORE DUP6 MLOAD DUP1 PUSH1 0x80 DUP5 ADD MSTORE PUSH1 0x0 JUMPDEST DUP2 DUP2 LT ISZERO PUSH2 0x1EA JUMPI DUP8 DUP2 ADD DUP4 ADD MLOAD DUP5 DUP3 ADD PUSH1 0xA0 ADD MSTORE DUP3 ADD PUSH2 0x1CE JUMP JUMPDEST DUP2 DUP2 GT ISZERO PUSH2 0x1FC JUMPI PUSH1 0x0 PUSH1 0xA0 DUP4 DUP7 ADD ADD MSTORE JUMPDEST POP PUSH1 0x1F ADD SWAP1 SWAP3 AND ADD PUSH1 0xA0 ADD SWAP8 SWAP7 POP POP POP POP POP POP POP JUMP JUMPDEST PUSH4 0x4E487B71 PUSH1 0xE0 SHL PUSH1 0x0 MSTORE PUSH1 0x41 PUSH1 0x4 MSTORE PUSH1 0x24 PUSH1 0x0 REVERT INVALID LOG2 PUSH5 0x6970667358 0x22 SLT KECCAK256 PUSH5 0xDD666A8319 0x4D DUP15 MULMOD 0xE1 CREATE2 0xF9 0x2B 0xEB PUSH8 0x3C4A741C1EB0EDF5 0xCD 0xCE JUMPI SMOD 0xA6 0xED GT 0x28 MULMOD PUSH5 0x736F6C6343 STOP ADDMOD MOD STOP CALLER ",
  "sha1": "4cf4a7ed6dca4ceb4af7bd3b71c0923a85f54976",
  "source": "// SPDX-License-Identifier: MIT\n\npragma solidity ^0.8.0;\n\nimport \"../utils/Context.sol\";\n\ncontract ContextMock is Context {\n    event Sender(address sender);\n\n    function msgSender() public {\n        emit Sender(_msgSender());\n    }\n\n    event Data(bytes data, uint256 integerValue, string stringValue);\n\n    function msgData(uint256 integerValue, string memory stringValue) public {\n        emit Data(_msgData(), integerValue, stringValue);\n    }\n}\n\ncontract ContextMockCaller {\n    function callSender(ContextMock context) public {\n        context.msgSender();\n    }\n\n    function callData(\n        ContextMock context,\n        uint256 integerValue,\n        string memory stringValue\n    ) public {\n        context.msgData(integerValue, stringValue);\n    }\n}\n",
  "sourcePath": "contracts/OpenZepellin/contracts/mocks/ContextMock.sol",
  "type": "contract"
}