{
  "abi": [
    {
      "inputs": [],
      "name": "current",
      "outputs": [
        {
          "internalType": "uint256",
          "name": "",
          "type": "uint256"
        }
      ],
      "stateMutability": "view",
      "type": "function"
    },
    {
      "inputs": [],
      "name": "decrement",
      "outputs": [],
      "stateMutability": "nonpayable",
      "type": "function"
    },
    {
      "inputs": [],
      "name": "increment",
      "outputs": [],
      "stateMutability": "nonpayable",
      "type": "function"
    },
    {
      "inputs": [],
      "name": "reset",
      "outputs": [],
      "stateMutability": "nonpayable",
      "type": "function"
    }
  ],
  "bytecode": "608060405234801561001057600080fd5b50610123806100206000396000f3fe6080604052348015600f57600080fd5b506004361060465760003560e01c80632baeceb714604b5780639fa6a6e3146053578063d09de08a146068578063d826f88f14606e575b600080fd5b60516074565b005b60005460405190815260200160405180910390f35b6051607e565b6051608b565b607c60006093565b565b607c600080546001019055565b607c60008055565b80548060e55760405162461bcd60e51b815260206004820152601b60248201527f436f756e7465723a2064656372656d656e74206f766572666c6f770000000000604482015260640160405180910390fd5b60001901905556fea2646970667358221220621cec65bca2ded0d8ccad454c93fb08b237c28d49a9e9330156d3cf2ae2346a64736f6c63430008060033",
  "bytecodeSha1": "f441b2e9caf9d3b765aff9ab1693df57144a6a15",
  "compiler": {
    "evm_version": "istanbul",
    "optimizer": {
      "enabled": true,
      "runs": 200
    },
    "version": "0.8.6+commit.11564f7e"
  },
  "contractName": "CountersImpl",
  "language": "Solidity",
  "natspec": {
    "kind": "dev",
    "methods": {},
    "version": 1
  },
  "opcodes": "PUSH1 0x80 PUSH1 0x40 MSTORE CALLVALUE DUP1 ISZERO PUSH1 0xF JUMPI PUSH1 0x0 DUP1 REVERT JUMPDEST POP PUSH1 0x4 CALLDATASIZE LT PUSH1 0x46 JUMPI PUSH1 0x0 CALLDATALOAD PUSH1 0xE0 SHR DUP1 PUSH4 0x2BAECEB7 EQ PUSH1 0x4B JUMPI DUP1 PUSH4 0x9FA6A6E3 EQ PUSH1 0x53 JUMPI DUP1 PUSH4 0xD09DE08A EQ PUSH1 0x68 JUMPI DUP1 PUSH4 0xD826F88F EQ PUSH1 0x6E JUMPI JUMPDEST PUSH1 0x0 DUP1 REVERT JUMPDEST PUSH1 0x51 PUSH1 0x74 JUMP JUMPDEST STOP JUMPDEST PUSH1 0x0 SLOAD PUSH1 0x40 MLOAD SWAP1 DUP2 MSTORE PUSH1 0x20 ADD PUSH1 0x40 MLOAD DUP1 SWAP2 SUB SWAP1 RETURN JUMPDEST PUSH1 0x51 PUSH1 0x7E JUMP JUMPDEST PUSH1 0x51 PUSH1 0x8B JUMP JUMPDEST PUSH1 0x7C PUSH1 0x0 PUSH1 0x93 JUMP JUMPDEST JUMP JUMPDEST PUSH1 0x7C PUSH1 0x0 DUP1 SLOAD PUSH1 0x1 ADD SWAP1 SSTORE JUMP JUMPDEST PUSH1 0x7C PUSH1 0x0 DUP1 SSTORE JUMP JUMPDEST DUP1 SLOAD DUP1 PUSH1 0xE5 JUMPI PUSH1 0x40 MLOAD PUSH3 0x461BCD PUSH1 0xE5 SHL DUP2 MSTORE PUSH1 0x20 PUSH1 0x4 DUP3 ADD MSTORE PUSH1 0x1B PUSH1 0x24 DUP3 ADD MSTORE PUSH32 0x436F756E7465723A2064656372656D656E74206F766572666C6F770000000000 PUSH1 0x44 DUP3 ADD MSTORE PUSH1 0x64 ADD PUSH1 0x40 MLOAD DUP1 SWAP2 SUB SWAP1 REVERT JUMPDEST PUSH1 0x0 NOT ADD SWAP1 SSTORE JUMP INVALID LOG2 PUSH5 0x6970667358 0x22 SLT KECCAK256 PUSH3 0x1CEC65 0xBC LOG2 0xDE 0xD0 0xD8 0xCC 0xAD GASLIMIT 0x4C SWAP4 0xFB ADDMOD 0xB2 CALLDATACOPY 0xC2 DUP14 0x49 0xA9 0xE9 CALLER ADD JUMP 0xD3 0xCF 0x2A 0xE2 CALLVALUE PUSH11 0x64736F6C63430008060033 ",
  "sha1": "02bcba01d2944cf92d7bbe45be4ce5f62bb94a6d",
  "source": "// SPDX-License-Identifier: MIT\n\npragma solidity ^0.8.0;\n\nimport \"../utils/Counters.sol\";\n\ncontract CountersImpl {\n    using Counters for Counters.Counter;\n\n    Counters.Counter private _counter;\n\n    function current() public view returns (uint256) {\n        return _counter.current();\n    }\n\n    function increment() public {\n        _counter.increment();\n    }\n\n    function decrement() public {\n        _counter.decrement();\n    }\n\n    function reset() public {\n        _counter.reset();\n    }\n}\n",
  "sourcePath": "contracts/OpenZepellin/contracts/mocks/CountersImpl.sol",
  "type": "contract"
}