{
  "abi": [
    {
      "inputs": [
        {
          "internalType": "bytes32",
          "name": "hash",
          "type": "bytes32"
        },
        {
          "internalType": "bytes",
          "name": "signature",
          "type": "bytes"
        }
      ],
      "name": "recover",
      "outputs": [
        {
          "internalType": "address",
          "name": "",
          "type": "address"
        }
      ],
      "stateMutability": "pure",
      "type": "function"
    },
    {
      "inputs": [
        {
          "internalType": "bytes32",
          "name": "hash",
          "type": "bytes32"
        },
        {
          "internalType": "bytes32",
          "name": "r",
          "type": "bytes32"
        },
        {
          "internalType": "bytes32",
          "name": "vs",
          "type": "bytes32"
        }
      ],
      "name": "recover_r_vs",
      "outputs": [
        {
          "internalType": "address",
          "name": "",
          "type": "address"
        }
      ],
      "stateMutability": "pure",
      "type": "function"
    },
    {
      "inputs": [
        {
          "internalType": "bytes32",
          "name": "hash",
          "type": "bytes32"
        },
        {
          "internalType": "uint8",
          "name": "v",
          "type": "uint8"
        },
        {
          "internalType": "bytes32",
          "name": "r",
          "type": "bytes32"
        },
        {
          "internalType": "bytes32",
          "name": "s",
          "type": "bytes32"
        }
      ],
      "name": "recover_v_r_s",
      "outputs": [
        {
          "internalType": "address",
          "name": "",
          "type": "address"
        }
      ],
      "stateMutability": "pure",
      "type": "function"
    },
    {
      "inputs": [
        {
          "internalType": "bytes32",
          "name": "hash",
          "type": "bytes32"
        }
      ],
      "name": "toEthSignedMessageHash",
      "outputs": [
        {
          "internalType": "bytes32",
          "name": "",
          "type": "bytes32"
        }
      ],
      "stateMutability": "pure",
      "type": "function"
    },
    {
      "inputs": [
        {
          "internalType": "bytes",
          "name": "s",
          "type": "bytes"
        }
      ],
      "name": "toEthSignedMessageHash",
      "outputs": [
        {
          "internalType": "bytes32",
          "name": "",
          "type": "bytes32"
        }
      ],
      "stateMutability": "pure",
      "type": "function"
    }
  ],
  "bytecode": "608060405234801561001057600080fd5b506109a4806100206000396000f3fe608060405234801561001057600080fd5b50600436106100575760003560e01c8063126442731461005c57806319045a251461008c578063918a15cf1461009f57806392bd87b5146100c0578063a005410b146100d3575b600080fd5b61006f61006a36600461078b565b6100e6565b6040516001600160a01b0390911681526020015b60405180910390f35b61006f61009a366004610744565b6100fd565b6100b26100ad3660046106ff565b610110565b604051908152602001610083565b6100b26100ce3660046107ce565b610121565b61006f6100e1366004610718565b61012c565b60006100f485858585610141565b95945050505050565b60006101098383610169565b9392505050565b600061011b8261018d565b92915050565b600061011b826101e1565b60006101398484846101ff565b949350505050565b600080600061015287878787610225565b9150915061015f81610312565b5095945050505050565b600080600061017885856104d5565b9150915061018581610312565b509392505050565b6040517f19457468657265756d205369676e6564204d6573736167653a0a3332000000006020820152603c8101829052600090605c015b604051602081830303815290604052805190602001209050919050565b60006101ed8251610545565b826040516020016101c4929190610803565b600080600061020f868686610643565b9150915061021c81610312565b50949350505050565b6000807f7fffffffffffffffffffffffffffffff5d576e7357a4501ddfe92f46681b20a083111561025c5750600090506003610309565b8460ff16601b1415801561027457508460ff16601c14155b156102855750600090506004610309565b6040805160008082526020820180845289905260ff881692820192909252606081018690526080810185905260019060a0016020604051602081039080840390855afa1580156102d9573d6000803e3d6000fd5b5050604051601f1901519150506001600160a01b03811661030257600060019250925050610309565b9150600090505b94509492505050565b60008160048111156103265761032661092c565b141561032f5750565b60018160048111156103435761034361092c565b14156103965760405162461bcd60e51b815260206004820152601860248201527f45434453413a20696e76616c6964207369676e6174757265000000000000000060448201526064015b60405180910390fd5b60028160048111156103aa576103aa61092c565b14156103f85760405162461bcd60e51b815260206004820152601f60248201527f45434453413a20696e76616c6964207369676e6174757265206c656e67746800604482015260640161038d565b600381600481111561040c5761040c61092c565b14156104655760405162461bcd60e51b815260206004820152602260248201527f45434453413a20696e76616c6964207369676e6174757265202773272076616c604482015261756560f01b606482015260840161038d565b60048160048111156104795761047961092c565b14156104d25760405162461bcd60e51b815260206004820152602260248201527f45434453413a20696e76616c6964207369676e6174757265202776272076616c604482015261756560f01b606482015260840161038d565b50565b60008082516041141561050c5760208301516040840151606085015160001a61050087828585610225565b9450945050505061053e565b825160401415610536576020830151604084015161052b868383610643565b93509350505061053e565b506000905060025b9250929050565b6060816105695750506040805180820190915260018152600360fc1b602082015290565b8160005b8115610593578061057d816108d1565b915061058c9050600a83610876565b915061056d565b60008167ffffffffffffffff8111156105ae576105ae610958565b6040519080825280601f01601f1916602001820160405280156105d8576020820181803683370190505b5090505b8415610139576105ed60018361088a565b91506105fa600a866108ec565b61060590603061085e565b60f81b81838151811061061a5761061a610942565b60200101906001600160f81b031916908160001a90535061063c600a86610876565b94506105dc565b6000806001600160ff1b03831660ff84901c601b0161066487828885610225565b935093505050935093915050565b600082601f83011261068357600080fd5b813567ffffffffffffffff8082111561069e5761069e610958565b604051601f8301601f19908116603f011681019082821181831017156106c6576106c6610958565b816040528381528660208588010111156106df57600080fd5b836020870160208301376000602085830101528094505050505092915050565b60006020828403121561071157600080fd5b5035919050565b60008060006060848603121561072d57600080fd5b505081359360208301359350604090920135919050565b6000806040838503121561075757600080fd5b82359150602083013567ffffffffffffffff81111561077557600080fd5b61078185828601610672565b9150509250929050565b600080600080608085870312156107a157600080fd5b84359350602085013560ff811681146107b957600080fd5b93969395505050506040820135916060013590565b6000602082840312156107e057600080fd5b813567ffffffffffffffff8111156107f757600080fd5b61013984828501610672565b7f19457468657265756d205369676e6564204d6573736167653a0a00000000000081526000835161083b81601a8501602088016108a1565b83519083019061085281601a8401602088016108a1565b01601a01949350505050565b6000821982111561087157610871610900565b500190565b60008261088557610885610916565b500490565b60008282101561089c5761089c610900565b500390565b60005b838110156108bc5781810151838201526020016108a4565b838111156108cb576000848401525b50505050565b60006000198214156108e5576108e5610900565b5060010190565b6000826108fb576108fb610916565b500690565b634e487b7160e01b600052601160045260246000fd5b634e487b7160e01b600052601260045260246000fd5b634e487b7160e01b600052602160045260246000fd5b634e487b7160e01b600052603260045260246000fd5b634e487b7160e01b600052604160045260246000fdfea2646970667358221220df24387ddbc4c7270afde56be73c534f4ed5d742dd1b49b3b03b81e622a7f12c64736f6c63430008060033",
  "bytecodeSha1": "caeb8adc0115fa9041ec144711beb176466363a0",
  "compiler": {
    "evm_version": "istanbul",
    "optimizer": {
      "enabled": true,
      "runs": 200
    },
    "version": "0.8.6+commit.11564f7e"
  },
  "contractName": "ECDSAMock",
  "language": "Solidity",
  "natspec": {
    "kind": "dev",
    "methods": {},
    "version": 1
  },
  "opcodes": "PUSH1 0x80 PUSH1 0x40 MSTORE CALLVALUE DUP1 ISZERO PUSH2 0x10 JUMPI PUSH1 0x0 DUP1 REVERT JUMPDEST POP PUSH1 0x4 CALLDATASIZE LT PUSH2 0x57 JUMPI PUSH1 0x0 CALLDATALOAD PUSH1 0xE0 SHR DUP1 PUSH4 0x12644273 EQ PUSH2 0x5C JUMPI DUP1 PUSH4 0x19045A25 EQ PUSH2 0x8C JUMPI DUP1 PUSH4 0x918A15CF EQ PUSH2 0x9F JUMPI DUP1 PUSH4 0x92BD87B5 EQ PUSH2 0xC0 JUMPI DUP1 PUSH4 0xA005410B EQ PUSH2 0xD3 JUMPI JUMPDEST PUSH1 0x0 DUP1 REVERT JUMPDEST PUSH2 0x6F PUSH2 0x6A CALLDATASIZE PUSH1 0x4 PUSH2 0x78B JUMP JUMPDEST PUSH2 0xE6 JUMP JUMPDEST PUSH1 0x40 MLOAD PUSH1 0x1 PUSH1 0x1 PUSH1 0xA0 SHL SUB SWAP1 SWAP2 AND DUP2 MSTORE PUSH1 0x20 ADD JUMPDEST PUSH1 0x40 MLOAD DUP1 SWAP2 SUB SWAP1 RETURN JUMPDEST PUSH2 0x6F PUSH2 0x9A CALLDATASIZE PUSH1 0x4 PUSH2 0x744 JUMP JUMPDEST PUSH2 0xFD JUMP JUMPDEST PUSH2 0xB2 PUSH2 0xAD CALLDATASIZE PUSH1 0x4 PUSH2 0x6FF JUMP JUMPDEST PUSH2 0x110 JUMP JUMPDEST PUSH1 0x40 MLOAD SWAP1 DUP2 MSTORE PUSH1 0x20 ADD PUSH2 0x83 JUMP JUMPDEST PUSH2 0xB2 PUSH2 0xCE CALLDATASIZE PUSH1 0x4 PUSH2 0x7CE JUMP JUMPDEST PUSH2 0x121 JUMP JUMPDEST PUSH2 0x6F PUSH2 0xE1 CALLDATASIZE PUSH1 0x4 PUSH2 0x718 JUMP JUMPDEST PUSH2 0x12C JUMP JUMPDEST PUSH1 0x0 PUSH2 0xF4 DUP6 DUP6 DUP6 DUP6 PUSH2 0x141 JUMP JUMPDEST SWAP6 SWAP5 POP POP POP POP POP JUMP JUMPDEST PUSH1 0x0 PUSH2 0x109 DUP4 DUP4 PUSH2 0x169 JUMP JUMPDEST SWAP4 SWAP3 POP POP POP JUMP JUMPDEST PUSH1 0x0 PUSH2 0x11B DUP3 PUSH2 0x18D JUMP JUMPDEST SWAP3 SWAP2 POP POP JUMP JUMPDEST PUSH1 0x0 PUSH2 0x11B DUP3 PUSH2 0x1E1 JUMP JUMPDEST PUSH1 0x0 PUSH2 0x139 DUP5 DUP5 DUP5 PUSH2 0x1FF JUMP JUMPDEST SWAP5 SWAP4 POP POP POP POP JUMP JUMPDEST PUSH1 0x0 DUP1 PUSH1 0x0 PUSH2 0x152 DUP8 DUP8 DUP8 DUP8 PUSH2 0x225 JUMP JUMPDEST SWAP2 POP SWAP2 POP PUSH2 0x15F DUP2 PUSH2 0x312 JUMP JUMPDEST POP SWAP6 SWAP5 POP POP POP POP POP JUMP JUMPDEST PUSH1 0x0 DUP1 PUSH1 0x0 PUSH2 0x178 DUP6 DUP6 PUSH2 0x4D5 JUMP JUMPDEST SWAP2 POP SWAP2 POP PUSH2 0x185 DUP2 PUSH2 0x312 JUMP JUMPDEST POP SWAP4 SWAP3 POP POP POP JUMP JUMPDEST PUSH1 0x40 MLOAD PUSH32 0x19457468657265756D205369676E6564204D6573736167653A0A333200000000 PUSH1 0x20 DUP3 ADD MSTORE PUSH1 0x3C DUP2 ADD DUP3 SWAP1 MSTORE PUSH1 0x0 SWAP1 PUSH1 0x5C ADD JUMPDEST PUSH1 0x40 MLOAD PUSH1 0x20 DUP2 DUP4 SUB SUB DUP2 MSTORE SWAP1 PUSH1 0x40 MSTORE DUP1 MLOAD SWAP1 PUSH1 0x20 ADD KECCAK256 SWAP1 POP SWAP2 SWAP1 POP JUMP JUMPDEST PUSH1 0x0 PUSH2 0x1ED DUP3 MLOAD PUSH2 0x545 JUMP JUMPDEST DUP3 PUSH1 0x40 MLOAD PUSH1 0x20 ADD PUSH2 0x1C4 SWAP3 SWAP2 SWAP1 PUSH2 0x803 JUMP JUMPDEST PUSH1 0x0 DUP1 PUSH1 0x0 PUSH2 0x20F DUP7 DUP7 DUP7 PUSH2 0x643 JUMP JUMPDEST SWAP2 POP SWAP2 POP PUSH2 0x21C DUP2 PUSH2 0x312 JUMP JUMPDEST POP SWAP5 SWAP4 POP POP POP POP JUMP JUMPDEST PUSH1 0x0 DUP1 PUSH32 0x7FFFFFFFFFFFFFFFFFFFFFFFFFFFFFFF5D576E7357A4501DDFE92F46681B20A0 DUP4 GT ISZERO PUSH2 0x25C JUMPI POP PUSH1 0x0 SWAP1 POP PUSH1 0x3 PUSH2 0x309 JUMP JUMPDEST DUP5 PUSH1 0xFF AND PUSH1 0x1B EQ ISZERO DUP1 ISZERO PUSH2 0x274 JUMPI POP DUP5 PUSH1 0xFF AND PUSH1 0x1C EQ ISZERO JUMPDEST ISZERO PUSH2 0x285 JUMPI POP PUSH1 0x0 SWAP1 POP PUSH1 0x4 PUSH2 0x309 JUMP JUMPDEST PUSH1 0x40 DUP1 MLOAD PUSH1 0x0 DUP1 DUP3 MSTORE PUSH1 0x20 DUP3 ADD DUP1 DUP5 MSTORE DUP10 SWAP1 MSTORE PUSH1 0xFF DUP9 AND SWAP3 DUP3 ADD SWAP3 SWAP1 SWAP3 MSTORE PUSH1 0x60 DUP2 ADD DUP7 SWAP1 MSTORE PUSH1 0x80 DUP2 ADD DUP6 SWAP1 MSTORE PUSH1 0x1 SWAP1 PUSH1 0xA0 ADD PUSH1 0x20 PUSH1 0x40 MLOAD PUSH1 0x20 DUP2 SUB SWAP1 DUP1 DUP5 SUB SWAP1 DUP6 GAS STATICCALL ISZERO DUP1 ISZERO PUSH2 0x2D9 JUMPI RETURNDATASIZE PUSH1 0x0 DUP1 RETURNDATACOPY RETURNDATASIZE PUSH1 0x0 REVERT JUMPDEST POP POP PUSH1 0x40 MLOAD PUSH1 0x1F NOT ADD MLOAD SWAP2 POP POP PUSH1 0x1 PUSH1 0x1 PUSH1 0xA0 SHL SUB DUP2 AND PUSH2 0x302 JUMPI PUSH1 0x0 PUSH1 0x1 SWAP3 POP SWAP3 POP POP PUSH2 0x309 JUMP JUMPDEST SWAP2 POP PUSH1 0x0 SWAP1 POP JUMPDEST SWAP5 POP SWAP5 SWAP3 POP POP POP JUMP JUMPDEST PUSH1 0x0 DUP2 PUSH1 0x4 DUP2 GT ISZERO PUSH2 0x326 JUMPI PUSH2 0x326 PUSH2 0x92C JUMP JUMPDEST EQ ISZERO PUSH2 0x32F JUMPI POP JUMP JUMPDEST PUSH1 0x1 DUP2 PUSH1 0x4 DUP2 GT ISZERO PUSH2 0x343 JUMPI PUSH2 0x343 PUSH2 0x92C JUMP JUMPDEST EQ ISZERO PUSH2 0x396 JUMPI PUSH1 0x40 MLOAD PUSH3 0x461BCD PUSH1 0xE5 SHL DUP2 MSTORE PUSH1 0x20 PUSH1 0x4 DUP3 ADD MSTORE PUSH1 0x18 PUSH1 0x24 DUP3 ADD MSTORE PUSH32 0x45434453413A20696E76616C6964207369676E61747572650000000000000000 PUSH1 0x44 DUP3 ADD MSTORE PUSH1 0x64 ADD JUMPDEST PUSH1 0x40 MLOAD DUP1 SWAP2 SUB SWAP1 REVERT JUMPDEST PUSH1 0x2 DUP2 PUSH1 0x4 DUP2 GT ISZERO PUSH2 0x3AA JUMPI PUSH2 0x3AA PUSH2 0x92C JUMP JUMPDEST EQ ISZERO PUSH2 0x3F8 JUMPI PUSH1 0x40 MLOAD PUSH3 0x461BCD PUSH1 0xE5 SHL DUP2 MSTORE PUSH1 0x20 PUSH1 0x4 DUP3 ADD MSTORE PUSH1 0x1F PUSH1 0x24 DUP3 ADD MSTORE PUSH32 0x45434453413A20696E76616C6964207369676E6174757265206C656E67746800 PUSH1 0x44 DUP3 ADD MSTORE PUSH1 0x64 ADD PUSH2 0x38D JUMP JUMPDEST PUSH1 0x3 DUP2 PUSH1 0x4 DUP2 GT ISZERO PUSH2 0x40C JUMPI PUSH2 0x40C PUSH2 0x92C JUMP JUMPDEST EQ ISZERO PUSH2 0x465 JUMPI PUSH1 0x40 MLOAD PUSH3 0x461BCD PUSH1 0xE5 SHL DUP2 MSTORE PUSH1 0x20 PUSH1 0x4 DUP3 ADD MSTORE PUSH1 0x22 PUSH1 0x24 DUP3 ADD MSTORE PUSH32 0x45434453413A20696E76616C6964207369676E6174757265202773272076616C PUSH1 0x44 DUP3 ADD MSTORE PUSH2 0x7565 PUSH1 0xF0 SHL PUSH1 0x64 DUP3 ADD MSTORE PUSH1 0x84 ADD PUSH2 0x38D JUMP JUMPDEST PUSH1 0x4 DUP2 PUSH1 0x4 DUP2 GT ISZERO PUSH2 0x479 JUMPI PUSH2 0x479 PUSH2 0x92C JUMP JUMPDEST EQ ISZERO PUSH2 0x4D2 JUMPI PUSH1 0x40 MLOAD PUSH3 0x461BCD PUSH1 0xE5 SHL DUP2 MSTORE PUSH1 0x20 PUSH1 0x4 DUP3 ADD MSTORE PUSH1 0x22 PUSH1 0x24 DUP3 ADD MSTORE PUSH32 0x45434453413A20696E76616C6964207369676E6174757265202776272076616C PUSH1 0x44 DUP3 ADD MSTORE PUSH2 0x7565 PUSH1 0xF0 SHL PUSH1 0x64 DUP3 ADD MSTORE PUSH1 0x84 ADD PUSH2 0x38D JUMP JUMPDEST POP JUMP JUMPDEST PUSH1 0x0 DUP1 DUP3 MLOAD PUSH1 0x41 EQ ISZERO PUSH2 0x50C JUMPI PUSH1 0x20 DUP4 ADD MLOAD PUSH1 0x40 DUP5 ADD MLOAD PUSH1 0x60 DUP6 ADD MLOAD PUSH1 0x0 BYTE PUSH2 0x500 DUP8 DUP3 DUP6 DUP6 PUSH2 0x225 JUMP JUMPDEST SWAP5 POP SWAP5 POP POP POP POP PUSH2 0x53E JUMP JUMPDEST DUP3 MLOAD PUSH1 0x40 EQ ISZERO PUSH2 0x536 JUMPI PUSH1 0x20 DUP4 ADD MLOAD PUSH1 0x40 DUP5 ADD MLOAD PUSH2 0x52B DUP7 DUP4 DUP4 PUSH2 0x643 JUMP JUMPDEST SWAP4 POP SWAP4 POP POP POP PUSH2 0x53E JUMP JUMPDEST POP PUSH1 0x0 SWAP1 POP PUSH1 0x2 JUMPDEST SWAP3 POP SWAP3 SWAP1 POP JUMP JUMPDEST PUSH1 0x60 DUP2 PUSH2 0x569 JUMPI POP POP PUSH1 0x40 DUP1 MLOAD DUP1 DUP3 ADD SWAP1 SWAP2 MSTORE PUSH1 0x1 DUP2 MSTORE PUSH1 0x3 PUSH1 0xFC SHL PUSH1 0x20 DUP3 ADD MSTORE SWAP1 JUMP JUMPDEST DUP2 PUSH1 0x0 JUMPDEST DUP2 ISZERO PUSH2 0x593 JUMPI DUP1 PUSH2 0x57D DUP2 PUSH2 0x8D1 JUMP JUMPDEST SWAP2 POP PUSH2 0x58C SWAP1 POP PUSH1 0xA DUP4 PUSH2 0x876 JUMP JUMPDEST SWAP2 POP PUSH2 0x56D JUMP JUMPDEST PUSH1 0x0 DUP2 PUSH8 0xFFFFFFFFFFFFFFFF DUP2 GT ISZERO PUSH2 0x5AE JUMPI PUSH2 0x5AE PUSH2 0x958 JUMP JUMPDEST PUSH1 0x40 MLOAD SWAP1 DUP1 DUP3 MSTORE DUP1 PUSH1 0x1F ADD PUSH1 0x1F NOT AND PUSH1 0x20 ADD DUP3 ADD PUSH1 0x40 MSTORE DUP1 ISZERO PUSH2 0x5D8 JUMPI PUSH1 0x20 DUP3 ADD DUP2 DUP1 CALLDATASIZE DUP4 CALLDATACOPY ADD SWAP1 POP JUMPDEST POP SWAP1 POP JUMPDEST DUP5 ISZERO PUSH2 0x139 JUMPI PUSH2 0x5ED PUSH1 0x1 DUP4 PUSH2 0x88A JUMP JUMPDEST SWAP2 POP PUSH2 0x5FA PUSH1 0xA DUP7 PUSH2 0x8EC JUMP JUMPDEST PUSH2 0x605 SWAP1 PUSH1 0x30 PUSH2 0x85E JUMP JUMPDEST PUSH1 0xF8 SHL DUP2 DUP4 DUP2 MLOAD DUP2 LT PUSH2 0x61A JUMPI PUSH2 0x61A PUSH2 0x942 JUMP JUMPDEST PUSH1 0x20 ADD ADD SWAP1 PUSH1 0x1 PUSH1 0x1 PUSH1 0xF8 SHL SUB NOT AND SWAP1 DUP2 PUSH1 0x0 BYTE SWAP1 MSTORE8 POP PUSH2 0x63C PUSH1 0xA DUP7 PUSH2 0x876 JUMP JUMPDEST SWAP5 POP PUSH2 0x5DC JUMP JUMPDEST PUSH1 0x0 DUP1 PUSH1 0x1 PUSH1 0x1 PUSH1 0xFF SHL SUB DUP4 AND PUSH1 0xFF DUP5 SWAP1 SHR PUSH1 0x1B ADD PUSH2 0x664 DUP8 DUP3 DUP9 DUP6 PUSH2 0x225 JUMP JUMPDEST SWAP4 POP SWAP4 POP POP POP SWAP4 POP SWAP4 SWAP2 POP POP JUMP JUMPDEST PUSH1 0x0 DUP3 PUSH1 0x1F DUP4 ADD SLT PUSH2 0x683 JUMPI PUSH1 0x0 DUP1 REVERT JUMPDEST DUP2 CALLDATALOAD PUSH8 0xFFFFFFFFFFFFFFFF DUP1 DUP3 GT ISZERO PUSH2 0x69E JUMPI PUSH2 0x69E PUSH2 0x958 JUMP JUMPDEST PUSH1 0x40 MLOAD PUSH1 0x1F DUP4 ADD PUSH1 0x1F NOT SWAP1 DUP2 AND PUSH1 0x3F ADD AND DUP2 ADD SWAP1 DUP3 DUP3 GT DUP2 DUP4 LT OR ISZERO PUSH2 0x6C6 JUMPI PUSH2 0x6C6 PUSH2 0x958 JUMP JUMPDEST DUP2 PUSH1 0x40 MSTORE DUP4 DUP2 MSTORE DUP7 PUSH1 0x20 DUP6 DUP9 ADD ADD GT ISZERO PUSH2 0x6DF JUMPI PUSH1 0x0 DUP1 REVERT JUMPDEST DUP4 PUSH1 0x20 DUP8 ADD PUSH1 0x20 DUP4 ADD CALLDATACOPY PUSH1 0x0 PUSH1 0x20 DUP6 DUP4 ADD ADD MSTORE DUP1 SWAP5 POP POP POP POP POP SWAP3 SWAP2 POP POP JUMP JUMPDEST PUSH1 0x0 PUSH1 0x20 DUP3 DUP5 SUB SLT ISZERO PUSH2 0x711 JUMPI PUSH1 0x0 DUP1 REVERT JUMPDEST POP CALLDATALOAD SWAP2 SWAP1 POP JUMP JUMPDEST PUSH1 0x0 DUP1 PUSH1 0x0 PUSH1 0x60 DUP5 DUP7 SUB SLT ISZERO PUSH2 0x72D JUMPI PUSH1 0x0 DUP1 REVERT JUMPDEST POP POP DUP2 CALLDATALOAD SWAP4 PUSH1 0x20 DUP4 ADD CALLDATALOAD SWAP4 POP PUSH1 0x40 SWAP1 SWAP3 ADD CALLDATALOAD SWAP2 SWAP1 POP JUMP JUMPDEST PUSH1 0x0 DUP1 PUSH1 0x40 DUP4 DUP6 SUB SLT ISZERO PUSH2 0x757 JUMPI PUSH1 0x0 DUP1 REVERT JUMPDEST DUP3 CALLDATALOAD SWAP2 POP PUSH1 0x20 DUP4 ADD CALLDATALOAD PUSH8 0xFFFFFFFFFFFFFFFF DUP2 GT ISZERO PUSH2 0x775 JUMPI PUSH1 0x0 DUP1 REVERT JUMPDEST PUSH2 0x781 DUP6 DUP3 DUP7 ADD PUSH2 0x672 JUMP JUMPDEST SWAP2 POP POP SWAP3 POP SWAP3 SWAP1 POP JUMP JUMPDEST PUSH1 0x0 DUP1 PUSH1 0x0 DUP1 PUSH1 0x80 DUP6 DUP8 SUB SLT ISZERO PUSH2 0x7A1 JUMPI PUSH1 0x0 DUP1 REVERT JUMPDEST DUP5 CALLDATALOAD SWAP4 POP PUSH1 0x20 DUP6 ADD CALLDATALOAD PUSH1 0xFF DUP2 AND DUP2 EQ PUSH2 0x7B9 JUMPI PUSH1 0x0 DUP1 REVERT JUMPDEST SWAP4 SWAP7 SWAP4 SWAP6 POP POP POP POP PUSH1 0x40 DUP3 ADD CALLDATALOAD SWAP2 PUSH1 0x60 ADD CALLDATALOAD SWAP1 JUMP JUMPDEST PUSH1 0x0 PUSH1 0x20 DUP3 DUP5 SUB SLT ISZERO PUSH2 0x7E0 JUMPI PUSH1 0x0 DUP1 REVERT JUMPDEST DUP2 CALLDATALOAD PUSH8 0xFFFFFFFFFFFFFFFF DUP2 GT ISZERO PUSH2 0x7F7 JUMPI PUSH1 0x0 DUP1 REVERT JUMPDEST PUSH2 0x139 DUP5 DUP3 DUP6 ADD PUSH2 0x672 JUMP JUMPDEST PUSH32 0x19457468657265756D205369676E6564204D6573736167653A0A000000000000 DUP2 MSTORE PUSH1 0x0 DUP4 MLOAD PUSH2 0x83B DUP2 PUSH1 0x1A DUP6 ADD PUSH1 0x20 DUP9 ADD PUSH2 0x8A1 JUMP JUMPDEST DUP4 MLOAD SWAP1 DUP4 ADD SWAP1 PUSH2 0x852 DUP2 PUSH1 0x1A DUP5 ADD PUSH1 0x20 DUP9 ADD PUSH2 0x8A1 JUMP JUMPDEST ADD PUSH1 0x1A ADD SWAP5 SWAP4 POP POP POP POP JUMP JUMPDEST PUSH1 0x0 DUP3 NOT DUP3 GT ISZERO PUSH2 0x871 JUMPI PUSH2 0x871 PUSH2 0x900 JUMP JUMPDEST POP ADD SWAP1 JUMP JUMPDEST PUSH1 0x0 DUP3 PUSH2 0x885 JUMPI PUSH2 0x885 PUSH2 0x916 JUMP JUMPDEST POP DIV SWAP1 JUMP JUMPDEST PUSH1 0x0 DUP3 DUP3 LT ISZERO PUSH2 0x89C JUMPI PUSH2 0x89C PUSH2 0x900 JUMP JUMPDEST POP SUB SWAP1 JUMP JUMPDEST PUSH1 0x0 JUMPDEST DUP4 DUP2 LT ISZERO PUSH2 0x8BC JUMPI DUP2 DUP2 ADD MLOAD DUP4 DUP3 ADD MSTORE PUSH1 0x20 ADD PUSH2 0x8A4 JUMP JUMPDEST DUP4 DUP2 GT ISZERO PUSH2 0x8CB JUMPI PUSH1 0x0 DUP5 DUP5 ADD MSTORE JUMPDEST POP POP POP POP JUMP JUMPDEST PUSH1 0x0 PUSH1 0x0 NOT DUP3 EQ ISZERO PUSH2 0x8E5 JUMPI PUSH2 0x8E5 PUSH2 0x900 JUMP JUMPDEST POP PUSH1 0x1 ADD SWAP1 JUMP JUMPDEST PUSH1 0x0 DUP3 PUSH2 0x8FB JUMPI PUSH2 0x8FB PUSH2 0x916 JUMP JUMPDEST POP MOD SWAP1 JUMP JUMPDEST PUSH4 0x4E487B71 PUSH1 0xE0 SHL PUSH1 0x0 MSTORE PUSH1 0x11 PUSH1 0x4 MSTORE PUSH1 0x24 PUSH1 0x0 REVERT JUMPDEST PUSH4 0x4E487B71 PUSH1 0xE0 SHL PUSH1 0x0 MSTORE PUSH1 0x12 PUSH1 0x4 MSTORE PUSH1 0x24 PUSH1 0x0 REVERT JUMPDEST PUSH4 0x4E487B71 PUSH1 0xE0 SHL PUSH1 0x0 MSTORE PUSH1 0x21 PUSH1 0x4 MSTORE PUSH1 0x24 PUSH1 0x0 REVERT JUMPDEST PUSH4 0x4E487B71 PUSH1 0xE0 SHL PUSH1 0x0 MSTORE PUSH1 0x32 PUSH1 0x4 MSTORE PUSH1 0x24 PUSH1 0x0 REVERT JUMPDEST PUSH4 0x4E487B71 PUSH1 0xE0 SHL PUSH1 0x0 MSTORE PUSH1 0x41 PUSH1 0x4 MSTORE PUSH1 0x24 PUSH1 0x0 REVERT INVALID LOG2 PUSH5 0x6970667358 0x22 SLT KECCAK256 0xDF 0x24 CODESIZE PUSH30 0xDBC4C7270AFDE56BE73C534F4ED5D742DD1B49B3B03B81E622A7F12C6473 PUSH16 0x6C634300080600330000000000000000 ",
  "sha1": "6b22e2c099b2ada80b311b457e84aa20154dbfc1",
  "source": "// SPDX-License-Identifier: MIT\n\npragma solidity ^0.8.0;\n\nimport \"../utils/cryptography/ECDSA.sol\";\n\ncontract ECDSAMock {\n    using ECDSA for bytes32;\n    using ECDSA for bytes;\n\n    function recover(bytes32 hash, bytes memory signature) public pure returns (address) {\n        return hash.recover(signature);\n    }\n\n    // solhint-disable-next-line func-name-mixedcase\n    function recover_v_r_s(\n        bytes32 hash,\n        uint8 v,\n        bytes32 r,\n        bytes32 s\n    ) public pure returns (address) {\n        return hash.recover(v, r, s);\n    }\n\n    // solhint-disable-next-line func-name-mixedcase\n    function recover_r_vs(\n        bytes32 hash,\n        bytes32 r,\n        bytes32 vs\n    ) public pure returns (address) {\n        return hash.recover(r, vs);\n    }\n\n    function toEthSignedMessageHash(bytes32 hash) public pure returns (bytes32) {\n        return hash.toEthSignedMessageHash();\n    }\n\n    function toEthSignedMessageHash(bytes memory s) public pure returns (bytes32) {\n        return s.toEthSignedMessageHash();\n    }\n}\n",
  "sourcePath": "contracts/OpenZepellin/contracts/mocks/ECDSAMock.sol",
  "type": "contract"
}