{
  "abi": [
    {
      "inputs": [
        {
          "internalType": "bytes4[]",
          "name": "interfaceIds",
          "type": "bytes4[]"
        }
      ],
      "stateMutability": "nonpayable",
      "type": "constructor"
    },
    {
      "inputs": [],
      "name": "INTERFACE_ID_ERC165",
      "outputs": [
        {
          "internalType": "bytes4",
          "name": "",
          "type": "bytes4"
        }
      ],
      "stateMutability": "view",
      "type": "function"
    },
    {
      "inputs": [
        {
          "internalType": "bytes4",
          "name": "interfaceId",
          "type": "bytes4"
        }
      ],
      "name": "supportsInterface",
      "outputs": [
        {
          "internalType": "bool",
          "name": "",
          "type": "bool"
        }
      ],
      "stateMutability": "view",
      "type": "function"
    }
  ],
  "bytecode": "608060405234801561001057600080fd5b5060405161037338038061037383398101604081905261002f91610144565b61003f6301ffc9a760e01b61008c565b60005b81518110156100855761007382828151811061006057610060610238565b602002602001015161008c60201b60201c565b8061007d8161020f565b915050610042565b5050610264565b6001600160e01b031980821614156101025760405162461bcd60e51b815260206004820152602f60248201527f455243313635496e7465726661636573537570706f727465643a20696e76616c60448201526e1a59081a5b9d195c999858d9481a59608a1b606482015260840160405180910390fd5b6001600160e01b0319166000908152602081905260409020805460ff19166001179055565b80516001600160e01b03198116811461013f57600080fd5b919050565b6000602080838503121561015757600080fd5b82516001600160401b038082111561016e57600080fd5b818501915085601f83011261018257600080fd5b8151818111156101945761019461024e565b8060051b604051601f19603f830116810181811085821117156101b9576101b961024e565b604052828152858101935084860182860187018a10156101d857600080fd5b600095505b83861015610202576101ee81610127565b8552600195909501949386019386016101dd565b5098975050505050505050565b600060001982141561023157634e487b7160e01b600052601160045260246000fd5b5060010190565b634e487b7160e01b600052603260045260246000fd5b634e487b7160e01b600052604160045260246000fd5b610100806102736000396000f3fe6080604052348015600f57600080fd5b506004361060325760003560e01c806301ffc9a714603757806334d7006c146076575b600080fd5b60616042366004609b565b6001600160e01b03191660009081526020819052604090205460ff1690565b60405190151581526020015b60405180910390f35b60836301ffc9a760e01b81565b6040516001600160e01b03199091168152602001606d565b60006020828403121560ac57600080fd5b81356001600160e01b03198116811460c357600080fd5b939250505056fea2646970667358221220ebedb9d99c160df7e13a6f29d88c72d6317a451c867e6edb7e71d9580ab6b74764736f6c63430008060033",
  "bytecodeSha1": "047e6b559c561bcacb888d761c94ff76a19e7eee",
  "compiler": {
    "evm_version": "istanbul",
    "optimizer": {
      "enabled": true,
      "runs": 200
    },
    "version": "0.8.6+commit.11564f7e"
  },
  "contractName": "ERC165InterfacesSupported",
  "language": "Solidity",
  "natspec": {
    "kind": "dev",
    "methods": {
      "supportsInterface(bytes4)": {
        "details": "Implement supportsInterface(bytes4) using a lookup table."
      }
    },
    "version": 1
  },
  "opcodes": "PUSH1 0x80 PUSH1 0x40 MSTORE CALLVALUE DUP1 ISZERO PUSH1 0xF JUMPI PUSH1 0x0 DUP1 REVERT JUMPDEST POP PUSH1 0x4 CALLDATASIZE LT PUSH1 0x32 JUMPI PUSH1 0x0 CALLDATALOAD PUSH1 0xE0 SHR DUP1 PUSH4 0x1FFC9A7 EQ PUSH1 0x37 JUMPI DUP1 PUSH4 0x34D7006C EQ PUSH1 0x76 JUMPI JUMPDEST PUSH1 0x0 DUP1 REVERT JUMPDEST PUSH1 0x61 PUSH1 0x42 CALLDATASIZE PUSH1 0x4 PUSH1 0x9B JUMP JUMPDEST PUSH1 0x1 PUSH1 0x1 PUSH1 0xE0 SHL SUB NOT AND PUSH1 0x0 SWAP1 DUP2 MSTORE PUSH1 0x20 DUP2 SWAP1 MSTORE PUSH1 0x40 SWAP1 KECCAK256 SLOAD PUSH1 0xFF AND SWAP1 JUMP JUMPDEST PUSH1 0x40 MLOAD SWAP1 ISZERO ISZERO DUP2 MSTORE PUSH1 0x20 ADD JUMPDEST PUSH1 0x40 MLOAD DUP1 SWAP2 SUB SWAP1 RETURN JUMPDEST PUSH1 0x83 PUSH4 0x1FFC9A7 PUSH1 0xE0 SHL DUP2 JUMP JUMPDEST PUSH1 0x40 MLOAD PUSH1 0x1 PUSH1 0x1 PUSH1 0xE0 SHL SUB NOT SWAP1 SWAP2 AND DUP2 MSTORE PUSH1 0x20 ADD PUSH1 0x6D JUMP JUMPDEST PUSH1 0x0 PUSH1 0x20 DUP3 DUP5 SUB SLT ISZERO PUSH1 0xAC JUMPI PUSH1 0x0 DUP1 REVERT JUMPDEST DUP2 CALLDATALOAD PUSH1 0x1 PUSH1 0x1 PUSH1 0xE0 SHL SUB NOT DUP2 AND DUP2 EQ PUSH1 0xC3 JUMPI PUSH1 0x0 DUP1 REVERT JUMPDEST SWAP4 SWAP3 POP POP POP JUMP INVALID LOG2 PUSH5 0x6970667358 0x22 SLT KECCAK256 0xEB 0xED 0xB9 0xD9 SWAP13 AND 0xD 0xF7 0xE1 GASPRICE PUSH16 0x29D88C72D6317A451C867E6EDB7E71D9 PC EXP 0xB6 0xB7 SELFBALANCE PUSH5 0x736F6C6343 STOP ADDMOD MOD STOP CALLER ",
  "sha1": "34070d8d1ea112a1995f2e2b1113462796af396e",
  "source": "// SPDX-License-Identifier: MIT\n\npragma solidity ^0.8.0;\n\nimport \"../../utils/introspection/IERC165.sol\";\n\n/**\n * https://eips.ethereum.org/EIPS/eip-214#specification\n * From the specification:\n * > Any attempts to make state-changing operations inside an execution instance with STATIC set to true will instead\n * throw an exception.\n * > These operations include [...], LOG0, LOG1, LOG2, [...]\n *\n * therefore, because this contract is staticcall'd we need to not emit events (which is how solidity-coverage works)\n * solidity-coverage ignores the /mocks folder, so we duplicate its implementation here to avoid instrumenting it\n */\ncontract SupportsInterfaceWithLookupMock is IERC165 {\n    /*\n     * bytes4(keccak256('supportsInterface(bytes4)')) == 0x01ffc9a7\n     */\n    bytes4 public constant INTERFACE_ID_ERC165 = 0x01ffc9a7;\n\n    /**\n     * @dev A mapping of interface id to whether or not it's supported.\n     */\n    mapping(bytes4 => bool) private _supportedInterfaces;\n\n    /**\n     * @dev A contract implementing SupportsInterfaceWithLookup\n     * implement ERC165 itself.\n     */\n    constructor() {\n        _registerInterface(INTERFACE_ID_ERC165);\n    }\n\n    /**\n     * @dev Implement supportsInterface(bytes4) using a lookup table.\n     */\n    function supportsInterface(bytes4 interfaceId) public view override returns (bool) {\n        return _supportedInterfaces[interfaceId];\n    }\n\n    /**\n     * @dev Private method for registering an interface.\n     */\n    function _registerInterface(bytes4 interfaceId) internal {\n        require(interfaceId != 0xffffffff, \"ERC165InterfacesSupported: invalid interface id\");\n        _supportedInterfaces[interfaceId] = true;\n    }\n}\n\ncontract ERC165InterfacesSupported is SupportsInterfaceWithLookupMock {\n    constructor(bytes4[] memory interfaceIds) {\n        for (uint256 i = 0; i < interfaceIds.length; i++) {\n            _registerInterface(interfaceIds[i]);\n        }\n    }\n}\n",
  "sourcePath": "contracts/OpenZepellin/contracts/mocks/ERC165/ERC165InterfacesSupported.sol",
  "type": "contract"
}