{
  "abi": [
    {
      "inputs": [
        {
          "internalType": "address",
          "name": "account",
          "type": "address"
        },
        {
          "internalType": "bytes4[]",
          "name": "interfaceIds",
          "type": "bytes4[]"
        }
      ],
      "name": "getSupportedInterfaces",
      "outputs": [
        {
          "internalType": "bool[]",
          "name": "",
          "type": "bool[]"
        }
      ],
      "stateMutability": "view",
      "type": "function"
    },
    {
      "inputs": [
        {
          "internalType": "address",
          "name": "account",
          "type": "address"
        },
        {
          "internalType": "bytes4[]",
          "name": "interfaceIds",
          "type": "bytes4[]"
        }
      ],
      "name": "supportsAllInterfaces",
      "outputs": [
        {
          "internalType": "bool",
          "name": "",
          "type": "bool"
        }
      ],
      "stateMutability": "view",
      "type": "function"
    },
    {
      "inputs": [
        {
          "internalType": "address",
          "name": "account",
          "type": "address"
        }
      ],
      "name": "supportsERC165",
      "outputs": [
        {
          "internalType": "bool",
          "name": "",
          "type": "bool"
        }
      ],
      "stateMutability": "view",
      "type": "function"
    },
    {
      "inputs": [
        {
          "internalType": "address",
          "name": "account",
          "type": "address"
        },
        {
          "internalType": "bytes4",
          "name": "interfaceId",
          "type": "bytes4"
        }
      ],
      "name": "supportsInterface",
      "outputs": [
        {
          "internalType": "bool",
          "name": "",
          "type": "bool"
        }
      ],
      "stateMutability": "view",
      "type": "function"
    }
  ],
  "bytecode": "608060405234801561001057600080fd5b50610604806100206000396000f3fe608060405234801561001057600080fd5b506004361061004c5760003560e01c80634b9dd9041461005157806377e6b4cc14610079578063c398a92514610099578063d9057007146100ac575b600080fd5b61006461005f3660046103c4565b6100bf565b60405190151581526020015b60405180910390f35b61008c6100873660046103c4565b6100dd565b6040516100709190610533565b6100646100a73660046103a9565b6100f2565b6100646100ba3660046104a3565b610106565b60006100d46001600160a01b0384168361011b565b90505b92915050565b60606100d46001600160a01b0384168361018b565b60006100d7826001600160a01b0316610241565b60006100d46001600160a01b03841683610274565b600061012683610241565b610132575060006100d7565b60005b82518110156101815761016184848381518110610154576101546105a2565b602002602001015161028c565b61016f5760009150506100d7565b8061017981610579565b915050610135565b5060019392505050565b60606000825167ffffffffffffffff8111156101a9576101a96105b8565b6040519080825280602002602001820160405280156101d2578160200160208202803683370190505b5090506101de84610241565b156100d45760005b83518110156102395761020585858381518110610154576101546105a2565b828281518110610217576102176105a2565b911515602092830291909101909101528061023181610579565b9150506101e6565b509392505050565b6000610254826301ffc9a760e01b61028c565b80156100d7575061026d826001600160e01b031961028c565b1592915050565b600061027f83610241565b80156100d457506100d483835b604080516001600160e01b0319831660248083019190915282518083039091018152604490910182526020810180516001600160e01b03166301ffc9a760e01b179052905160009190829081906001600160a01b03871690617530906102f39086906104f8565b6000604051808303818686fa925050503d806000811461032f576040519150601f19603f3d011682016040523d82523d6000602084013e610334565b606091505b509150915060208151101561034f57600093505050506100d7565b81801561036b57508080602001905181019061036b91906104d6565b9695505050505050565b80356001600160a01b038116811461038c57600080fd5b919050565b80356001600160e01b03198116811461038c57600080fd5b6000602082840312156103bb57600080fd5b6100d482610375565b600080604083850312156103d757600080fd5b6103e083610375565b915060208084013567ffffffffffffffff808211156103fe57600080fd5b818601915086601f83011261041257600080fd5b813581811115610424576104246105b8565b8060051b604051601f19603f83011681018181108582111715610449576104496105b8565b604052828152858101935084860182860187018b101561046857600080fd5b600095505b838610156104925761047e81610391565b85526001959095019493860193860161046d565b508096505050505050509250929050565b600080604083850312156104b657600080fd5b6104bf83610375565b91506104cd60208401610391565b90509250929050565b6000602082840312156104e857600080fd5b815180151581146100d457600080fd5b6000825160005b8181101561051957602081860181015185830152016104ff565b81811115610528576000828501525b509190910192915050565b6020808252825182820181905260009190848201906040850190845b8181101561056d57835115158352928401929184019160010161054f565b50909695505050505050565b600060001982141561059b57634e487b7160e01b600052601160045260246000fd5b5060010190565b634e487b7160e01b600052603260045260246000fd5b634e487b7160e01b600052604160045260246000fdfea2646970667358221220a56d5b91cf7272a3f20237885a788eb6191ba7112d7e458e8c39f5960b3d9cbb64736f6c63430008060033",
  "bytecodeSha1": "67e7c6deee6f03493433ba19e349f0880094109f",
  "compiler": {
    "evm_version": "istanbul",
    "optimizer": {
      "enabled": true,
      "runs": 200
    },
    "version": "0.8.6+commit.11564f7e"
  },
  "contractName": "ERC165CheckerMock",
  "language": "Solidity",
  "natspec": {
    "kind": "dev",
    "methods": {},
    "version": 1
  },
  "opcodes": "PUSH1 0x80 PUSH1 0x40 MSTORE CALLVALUE DUP1 ISZERO PUSH2 0x10 JUMPI PUSH1 0x0 DUP1 REVERT JUMPDEST POP PUSH1 0x4 CALLDATASIZE LT PUSH2 0x4C JUMPI PUSH1 0x0 CALLDATALOAD PUSH1 0xE0 SHR DUP1 PUSH4 0x4B9DD904 EQ PUSH2 0x51 JUMPI DUP1 PUSH4 0x77E6B4CC EQ PUSH2 0x79 JUMPI DUP1 PUSH4 0xC398A925 EQ PUSH2 0x99 JUMPI DUP1 PUSH4 0xD9057007 EQ PUSH2 0xAC JUMPI JUMPDEST PUSH1 0x0 DUP1 REVERT JUMPDEST PUSH2 0x64 PUSH2 0x5F CALLDATASIZE PUSH1 0x4 PUSH2 0x3C4 JUMP JUMPDEST PUSH2 0xBF JUMP JUMPDEST PUSH1 0x40 MLOAD SWAP1 ISZERO ISZERO DUP2 MSTORE PUSH1 0x20 ADD JUMPDEST PUSH1 0x40 MLOAD DUP1 SWAP2 SUB SWAP1 RETURN JUMPDEST PUSH2 0x8C PUSH2 0x87 CALLDATASIZE PUSH1 0x4 PUSH2 0x3C4 JUMP JUMPDEST PUSH2 0xDD JUMP JUMPDEST PUSH1 0x40 MLOAD PUSH2 0x70 SWAP2 SWAP1 PUSH2 0x533 JUMP JUMPDEST PUSH2 0x64 PUSH2 0xA7 CALLDATASIZE PUSH1 0x4 PUSH2 0x3A9 JUMP JUMPDEST PUSH2 0xF2 JUMP JUMPDEST PUSH2 0x64 PUSH2 0xBA CALLDATASIZE PUSH1 0x4 PUSH2 0x4A3 JUMP JUMPDEST PUSH2 0x106 JUMP JUMPDEST PUSH1 0x0 PUSH2 0xD4 PUSH1 0x1 PUSH1 0x1 PUSH1 0xA0 SHL SUB DUP5 AND DUP4 PUSH2 0x11B JUMP JUMPDEST SWAP1 POP JUMPDEST SWAP3 SWAP2 POP POP JUMP JUMPDEST PUSH1 0x60 PUSH2 0xD4 PUSH1 0x1 PUSH1 0x1 PUSH1 0xA0 SHL SUB DUP5 AND DUP4 PUSH2 0x18B JUMP JUMPDEST PUSH1 0x0 PUSH2 0xD7 DUP3 PUSH1 0x1 PUSH1 0x1 PUSH1 0xA0 SHL SUB AND PUSH2 0x241 JUMP JUMPDEST PUSH1 0x0 PUSH2 0xD4 PUSH1 0x1 PUSH1 0x1 PUSH1 0xA0 SHL SUB DUP5 AND DUP4 PUSH2 0x274 JUMP JUMPDEST PUSH1 0x0 PUSH2 0x126 DUP4 PUSH2 0x241 JUMP JUMPDEST PUSH2 0x132 JUMPI POP PUSH1 0x0 PUSH2 0xD7 JUMP JUMPDEST PUSH1 0x0 JUMPDEST DUP3 MLOAD DUP2 LT ISZERO PUSH2 0x181 JUMPI PUSH2 0x161 DUP5 DUP5 DUP4 DUP2 MLOAD DUP2 LT PUSH2 0x154 JUMPI PUSH2 0x154 PUSH2 0x5A2 JUMP JUMPDEST PUSH1 0x20 MUL PUSH1 0x20 ADD ADD MLOAD PUSH2 0x28C JUMP JUMPDEST PUSH2 0x16F JUMPI PUSH1 0x0 SWAP2 POP POP PUSH2 0xD7 JUMP JUMPDEST DUP1 PUSH2 0x179 DUP2 PUSH2 0x579 JUMP JUMPDEST SWAP2 POP POP PUSH2 0x135 JUMP JUMPDEST POP PUSH1 0x1 SWAP4 SWAP3 POP POP POP JUMP JUMPDEST PUSH1 0x60 PUSH1 0x0 DUP3 MLOAD PUSH8 0xFFFFFFFFFFFFFFFF DUP2 GT ISZERO PUSH2 0x1A9 JUMPI PUSH2 0x1A9 PUSH2 0x5B8 JUMP JUMPDEST PUSH1 0x40 MLOAD SWAP1 DUP1 DUP3 MSTORE DUP1 PUSH1 0x20 MUL PUSH1 0x20 ADD DUP3 ADD PUSH1 0x40 MSTORE DUP1 ISZERO PUSH2 0x1D2 JUMPI DUP2 PUSH1 0x20 ADD PUSH1 0x20 DUP3 MUL DUP1 CALLDATASIZE DUP4 CALLDATACOPY ADD SWAP1 POP JUMPDEST POP SWAP1 POP PUSH2 0x1DE DUP5 PUSH2 0x241 JUMP JUMPDEST ISZERO PUSH2 0xD4 JUMPI PUSH1 0x0 JUMPDEST DUP4 MLOAD DUP2 LT ISZERO PUSH2 0x239 JUMPI PUSH2 0x205 DUP6 DUP6 DUP4 DUP2 MLOAD DUP2 LT PUSH2 0x154 JUMPI PUSH2 0x154 PUSH2 0x5A2 JUMP JUMPDEST DUP3 DUP3 DUP2 MLOAD DUP2 LT PUSH2 0x217 JUMPI PUSH2 0x217 PUSH2 0x5A2 JUMP JUMPDEST SWAP2 ISZERO ISZERO PUSH1 0x20 SWAP3 DUP4 MUL SWAP2 SWAP1 SWAP2 ADD SWAP1 SWAP2 ADD MSTORE DUP1 PUSH2 0x231 DUP2 PUSH2 0x579 JUMP JUMPDEST SWAP2 POP POP PUSH2 0x1E6 JUMP JUMPDEST POP SWAP4 SWAP3 POP POP POP JUMP JUMPDEST PUSH1 0x0 PUSH2 0x254 DUP3 PUSH4 0x1FFC9A7 PUSH1 0xE0 SHL PUSH2 0x28C JUMP JUMPDEST DUP1 ISZERO PUSH2 0xD7 JUMPI POP PUSH2 0x26D DUP3 PUSH1 0x1 PUSH1 0x1 PUSH1 0xE0 SHL SUB NOT PUSH2 0x28C JUMP JUMPDEST ISZERO SWAP3 SWAP2 POP POP JUMP JUMPDEST PUSH1 0x0 PUSH2 0x27F DUP4 PUSH2 0x241 JUMP JUMPDEST DUP1 ISZERO PUSH2 0xD4 JUMPI POP PUSH2 0xD4 DUP4 DUP4 JUMPDEST PUSH1 0x40 DUP1 MLOAD PUSH1 0x1 PUSH1 0x1 PUSH1 0xE0 SHL SUB NOT DUP4 AND PUSH1 0x24 DUP1 DUP4 ADD SWAP2 SWAP1 SWAP2 MSTORE DUP3 MLOAD DUP1 DUP4 SUB SWAP1 SWAP2 ADD DUP2 MSTORE PUSH1 0x44 SWAP1 SWAP2 ADD DUP3 MSTORE PUSH1 0x20 DUP2 ADD DUP1 MLOAD PUSH1 0x1 PUSH1 0x1 PUSH1 0xE0 SHL SUB AND PUSH4 0x1FFC9A7 PUSH1 0xE0 SHL OR SWAP1 MSTORE SWAP1 MLOAD PUSH1 0x0 SWAP2 SWAP1 DUP3 SWAP1 DUP2 SWAP1 PUSH1 0x1 PUSH1 0x1 PUSH1 0xA0 SHL SUB DUP8 AND SWAP1 PUSH2 0x7530 SWAP1 PUSH2 0x2F3 SWAP1 DUP7 SWAP1 PUSH2 0x4F8 JUMP JUMPDEST PUSH1 0x0 PUSH1 0x40 MLOAD DUP1 DUP4 SUB DUP2 DUP7 DUP7 STATICCALL SWAP3 POP POP POP RETURNDATASIZE DUP1 PUSH1 0x0 DUP2 EQ PUSH2 0x32F JUMPI PUSH1 0x40 MLOAD SWAP2 POP PUSH1 0x1F NOT PUSH1 0x3F RETURNDATASIZE ADD AND DUP3 ADD PUSH1 0x40 MSTORE RETURNDATASIZE DUP3 MSTORE RETURNDATASIZE PUSH1 0x0 PUSH1 0x20 DUP5 ADD RETURNDATACOPY PUSH2 0x334 JUMP JUMPDEST PUSH1 0x60 SWAP2 POP JUMPDEST POP SWAP2 POP SWAP2 POP PUSH1 0x20 DUP2 MLOAD LT ISZERO PUSH2 0x34F JUMPI PUSH1 0x0 SWAP4 POP POP POP POP PUSH2 0xD7 JUMP JUMPDEST DUP2 DUP1 ISZERO PUSH2 0x36B JUMPI POP DUP1 DUP1 PUSH1 0x20 ADD SWAP1 MLOAD DUP2 ADD SWAP1 PUSH2 0x36B SWAP2 SWAP1 PUSH2 0x4D6 JUMP JUMPDEST SWAP7 SWAP6 POP POP POP POP POP POP JUMP JUMPDEST DUP1 CALLDATALOAD PUSH1 0x1 PUSH1 0x1 PUSH1 0xA0 SHL SUB DUP2 AND DUP2 EQ PUSH2 0x38C JUMPI PUSH1 0x0 DUP1 REVERT JUMPDEST SWAP2 SWAP1 POP JUMP JUMPDEST DUP1 CALLDATALOAD PUSH1 0x1 PUSH1 0x1 PUSH1 0xE0 SHL SUB NOT DUP2 AND DUP2 EQ PUSH2 0x38C JUMPI PUSH1 0x0 DUP1 REVERT JUMPDEST PUSH1 0x0 PUSH1 0x20 DUP3 DUP5 SUB SLT ISZERO PUSH2 0x3BB JUMPI PUSH1 0x0 DUP1 REVERT JUMPDEST PUSH2 0xD4 DUP3 PUSH2 0x375 JUMP JUMPDEST PUSH1 0x0 DUP1 PUSH1 0x40 DUP4 DUP6 SUB SLT ISZERO PUSH2 0x3D7 JUMPI PUSH1 0x0 DUP1 REVERT JUMPDEST PUSH2 0x3E0 DUP4 PUSH2 0x375 JUMP JUMPDEST SWAP2 POP PUSH1 0x20 DUP1 DUP5 ADD CALLDATALOAD PUSH8 0xFFFFFFFFFFFFFFFF DUP1 DUP3 GT ISZERO PUSH2 0x3FE JUMPI PUSH1 0x0 DUP1 REVERT JUMPDEST DUP2 DUP7 ADD SWAP2 POP DUP7 PUSH1 0x1F DUP4 ADD SLT PUSH2 0x412 JUMPI PUSH1 0x0 DUP1 REVERT JUMPDEST DUP2 CALLDATALOAD DUP2 DUP2 GT ISZERO PUSH2 0x424 JUMPI PUSH2 0x424 PUSH2 0x5B8 JUMP JUMPDEST DUP1 PUSH1 0x5 SHL PUSH1 0x40 MLOAD PUSH1 0x1F NOT PUSH1 0x3F DUP4 ADD AND DUP2 ADD DUP2 DUP2 LT DUP6 DUP3 GT OR ISZERO PUSH2 0x449 JUMPI PUSH2 0x449 PUSH2 0x5B8 JUMP JUMPDEST PUSH1 0x40 MSTORE DUP3 DUP2 MSTORE DUP6 DUP2 ADD SWAP4 POP DUP5 DUP7 ADD DUP3 DUP7 ADD DUP8 ADD DUP12 LT ISZERO PUSH2 0x468 JUMPI PUSH1 0x0 DUP1 REVERT JUMPDEST PUSH1 0x0 SWAP6 POP JUMPDEST DUP4 DUP7 LT ISZERO PUSH2 0x492 JUMPI PUSH2 0x47E DUP2 PUSH2 0x391 JUMP JUMPDEST DUP6 MSTORE PUSH1 0x1 SWAP6 SWAP1 SWAP6 ADD SWAP5 SWAP4 DUP7 ADD SWAP4 DUP7 ADD PUSH2 0x46D JUMP JUMPDEST POP DUP1 SWAP7 POP POP POP POP POP POP POP SWAP3 POP SWAP3 SWAP1 POP JUMP JUMPDEST PUSH1 0x0 DUP1 PUSH1 0x40 DUP4 DUP6 SUB SLT ISZERO PUSH2 0x4B6 JUMPI PUSH1 0x0 DUP1 REVERT JUMPDEST PUSH2 0x4BF DUP4 PUSH2 0x375 JUMP JUMPDEST SWAP2 POP PUSH2 0x4CD PUSH1 0x20 DUP5 ADD PUSH2 0x391 JUMP JUMPDEST SWAP1 POP SWAP3 POP SWAP3 SWAP1 POP JUMP JUMPDEST PUSH1 0x0 PUSH1 0x20 DUP3 DUP5 SUB SLT ISZERO PUSH2 0x4E8 JUMPI PUSH1 0x0 DUP1 REVERT JUMPDEST DUP2 MLOAD DUP1 ISZERO ISZERO DUP2 EQ PUSH2 0xD4 JUMPI PUSH1 0x0 DUP1 REVERT JUMPDEST PUSH1 0x0 DUP3 MLOAD PUSH1 0x0 JUMPDEST DUP2 DUP2 LT ISZERO PUSH2 0x519 JUMPI PUSH1 0x20 DUP2 DUP7 ADD DUP2 ADD MLOAD DUP6 DUP4 ADD MSTORE ADD PUSH2 0x4FF JUMP JUMPDEST DUP2 DUP2 GT ISZERO PUSH2 0x528 JUMPI PUSH1 0x0 DUP3 DUP6 ADD MSTORE JUMPDEST POP SWAP2 SWAP1 SWAP2 ADD SWAP3 SWAP2 POP POP JUMP JUMPDEST PUSH1 0x20 DUP1 DUP3 MSTORE DUP3 MLOAD DUP3 DUP3 ADD DUP2 SWAP1 MSTORE PUSH1 0x0 SWAP2 SWAP1 DUP5 DUP3 ADD SWAP1 PUSH1 0x40 DUP6 ADD SWAP1 DUP5 JUMPDEST DUP2 DUP2 LT ISZERO PUSH2 0x56D JUMPI DUP4 MLOAD ISZERO ISZERO DUP4 MSTORE SWAP3 DUP5 ADD SWAP3 SWAP2 DUP5 ADD SWAP2 PUSH1 0x1 ADD PUSH2 0x54F JUMP JUMPDEST POP SWAP1 SWAP7 SWAP6 POP POP POP POP POP POP JUMP JUMPDEST PUSH1 0x0 PUSH1 0x0 NOT DUP3 EQ ISZERO PUSH2 0x59B JUMPI PUSH4 0x4E487B71 PUSH1 0xE0 SHL PUSH1 0x0 MSTORE PUSH1 0x11 PUSH1 0x4 MSTORE PUSH1 0x24 PUSH1 0x0 REVERT JUMPDEST POP PUSH1 0x1 ADD SWAP1 JUMP JUMPDEST PUSH4 0x4E487B71 PUSH1 0xE0 SHL PUSH1 0x0 MSTORE PUSH1 0x32 PUSH1 0x4 MSTORE PUSH1 0x24 PUSH1 0x0 REVERT JUMPDEST PUSH4 0x4E487B71 PUSH1 0xE0 SHL PUSH1 0x0 MSTORE PUSH1 0x41 PUSH1 0x4 MSTORE PUSH1 0x24 PUSH1 0x0 REVERT INVALID LOG2 PUSH5 0x6970667358 0x22 SLT KECCAK256 0xA5 PUSH14 0x5B91CF7272A3F20237885A788EB6 NOT SHL 0xA7 GT 0x2D PUSH31 0x458E8C39F5960B3D9CBB64736F6C6343000806003300000000000000000000 ",
  "sha1": "856947e50415f111dacea6e27ae2020f718f6050",
  "source": "// SPDX-License-Identifier: MIT\n\npragma solidity ^0.8.0;\n\nimport \"../utils/introspection/ERC165Checker.sol\";\n\ncontract ERC165CheckerMock {\n    using ERC165Checker for address;\n\n    function supportsERC165(address account) public view returns (bool) {\n        return account.supportsERC165();\n    }\n\n    function supportsInterface(address account, bytes4 interfaceId) public view returns (bool) {\n        return account.supportsInterface(interfaceId);\n    }\n\n    function supportsAllInterfaces(address account, bytes4[] memory interfaceIds) public view returns (bool) {\n        return account.supportsAllInterfaces(interfaceIds);\n    }\n\n    function getSupportedInterfaces(address account, bytes4[] memory interfaceIds) public view returns (bool[] memory) {\n        return account.getSupportedInterfaces(interfaceIds);\n    }\n}\n",
  "sourcePath": "contracts/OpenZepellin/contracts/mocks/ERC165CheckerMock.sol",
  "type": "contract"
}