{
  "abi": [
    {
      "inputs": [
        {
          "internalType": "string",
          "name": "name",
          "type": "string"
        },
        {
          "internalType": "string",
          "name": "symbol",
          "type": "string"
        }
      ],
      "stateMutability": "nonpayable",
      "type": "constructor"
    },
    {
      "anonymous": false,
      "inputs": [
        {
          "indexed": true,
          "internalType": "address",
          "name": "owner",
          "type": "address"
        },
        {
          "indexed": true,
          "internalType": "address",
          "name": "approved",
          "type": "address"
        },
        {
          "indexed": true,
          "internalType": "uint256",
          "name": "tokenId",
          "type": "uint256"
        }
      ],
      "name": "Approval",
      "type": "event"
    },
    {
      "anonymous": false,
      "inputs": [
        {
          "indexed": true,
          "internalType": "address",
          "name": "owner",
          "type": "address"
        },
        {
          "indexed": true,
          "internalType": "address",
          "name": "operator",
          "type": "address"
        },
        {
          "indexed": false,
          "internalType": "bool",
          "name": "approved",
          "type": "bool"
        }
      ],
      "name": "ApprovalForAll",
      "type": "event"
    },
    {
      "anonymous": false,
      "inputs": [
        {
          "indexed": true,
          "internalType": "address",
          "name": "from",
          "type": "address"
        },
        {
          "indexed": true,
          "internalType": "address",
          "name": "to",
          "type": "address"
        },
        {
          "indexed": true,
          "internalType": "uint256",
          "name": "tokenId",
          "type": "uint256"
        }
      ],
      "name": "Transfer",
      "type": "event"
    },
    {
      "inputs": [
        {
          "internalType": "address",
          "name": "to",
          "type": "address"
        },
        {
          "internalType": "uint256",
          "name": "tokenId",
          "type": "uint256"
        }
      ],
      "name": "approve",
      "outputs": [],
      "stateMutability": "nonpayable",
      "type": "function"
    },
    {
      "inputs": [
        {
          "internalType": "address",
          "name": "owner",
          "type": "address"
        }
      ],
      "name": "balanceOf",
      "outputs": [
        {
          "internalType": "uint256",
          "name": "",
          "type": "uint256"
        }
      ],
      "stateMutability": "view",
      "type": "function"
    },
    {
      "inputs": [],
      "name": "baseURI",
      "outputs": [
        {
          "internalType": "string",
          "name": "",
          "type": "string"
        }
      ],
      "stateMutability": "view",
      "type": "function"
    },
    {
      "inputs": [
        {
          "internalType": "uint256",
          "name": "tokenId",
          "type": "uint256"
        }
      ],
      "name": "burn",
      "outputs": [],
      "stateMutability": "nonpayable",
      "type": "function"
    },
    {
      "inputs": [
        {
          "internalType": "uint256",
          "name": "tokenId",
          "type": "uint256"
        }
      ],
      "name": "exists",
      "outputs": [
        {
          "internalType": "bool",
          "name": "",
          "type": "bool"
        }
      ],
      "stateMutability": "view",
      "type": "function"
    },
    {
      "inputs": [
        {
          "internalType": "uint256",
          "name": "tokenId",
          "type": "uint256"
        }
      ],
      "name": "getApproved",
      "outputs": [
        {
          "internalType": "address",
          "name": "",
          "type": "address"
        }
      ],
      "stateMutability": "view",
      "type": "function"
    },
    {
      "inputs": [
        {
          "internalType": "address",
          "name": "owner",
          "type": "address"
        },
        {
          "internalType": "address",
          "name": "operator",
          "type": "address"
        }
      ],
      "name": "isApprovedForAll",
      "outputs": [
        {
          "internalType": "bool",
          "name": "",
          "type": "bool"
        }
      ],
      "stateMutability": "view",
      "type": "function"
    },
    {
      "inputs": [
        {
          "internalType": "address",
          "name": "to",
          "type": "address"
        },
        {
          "internalType": "uint256",
          "name": "tokenId",
          "type": "uint256"
        }
      ],
      "name": "mint",
      "outputs": [],
      "stateMutability": "nonpayable",
      "type": "function"
    },
    {
      "inputs": [],
      "name": "name",
      "outputs": [
        {
          "internalType": "string",
          "name": "",
          "type": "string"
        }
      ],
      "stateMutability": "view",
      "type": "function"
    },
    {
      "inputs": [
        {
          "internalType": "uint256",
          "name": "tokenId",
          "type": "uint256"
        }
      ],
      "name": "ownerOf",
      "outputs": [
        {
          "internalType": "address",
          "name": "",
          "type": "address"
        }
      ],
      "stateMutability": "view",
      "type": "function"
    },
    {
      "inputs": [
        {
          "internalType": "address",
          "name": "to",
          "type": "address"
        },
        {
          "internalType": "uint256",
          "name": "tokenId",
          "type": "uint256"
        },
        {
          "internalType": "bytes",
          "name": "_data",
          "type": "bytes"
        }
      ],
      "name": "safeMint",
      "outputs": [],
      "stateMutability": "nonpayable",
      "type": "function"
    },
    {
      "inputs": [
        {
          "internalType": "address",
          "name": "to",
          "type": "address"
        },
        {
          "internalType": "uint256",
          "name": "tokenId",
          "type": "uint256"
        }
      ],
      "name": "safeMint",
      "outputs": [],
      "stateMutability": "nonpayable",
      "type": "function"
    },
    {
      "inputs": [
        {
          "internalType": "address",
          "name": "from",
          "type": "address"
        },
        {
          "internalType": "address",
          "name": "to",
          "type": "address"
        },
        {
          "internalType": "uint256",
          "name": "tokenId",
          "type": "uint256"
        }
      ],
      "name": "safeTransferFrom",
      "outputs": [],
      "stateMutability": "nonpayable",
      "type": "function"
    },
    {
      "inputs": [
        {
          "internalType": "address",
          "name": "from",
          "type": "address"
        },
        {
          "internalType": "address",
          "name": "to",
          "type": "address"
        },
        {
          "internalType": "uint256",
          "name": "tokenId",
          "type": "uint256"
        },
        {
          "internalType": "bytes",
          "name": "_data",
          "type": "bytes"
        }
      ],
      "name": "safeTransferFrom",
      "outputs": [],
      "stateMutability": "nonpayable",
      "type": "function"
    },
    {
      "inputs": [
        {
          "internalType": "address",
          "name": "operator",
          "type": "address"
        },
        {
          "internalType": "bool",
          "name": "approved",
          "type": "bool"
        }
      ],
      "name": "setApprovalForAll",
      "outputs": [],
      "stateMutability": "nonpayable",
      "type": "function"
    },
    {
      "inputs": [
        {
          "internalType": "bytes4",
          "name": "interfaceId",
          "type": "bytes4"
        }
      ],
      "name": "supportsInterface",
      "outputs": [
        {
          "internalType": "bool",
          "name": "",
          "type": "bool"
        }
      ],
      "stateMutability": "view",
      "type": "function"
    },
    {
      "inputs": [],
      "name": "symbol",
      "outputs": [
        {
          "internalType": "string",
          "name": "",
          "type": "string"
        }
      ],
      "stateMutability": "view",
      "type": "function"
    },
    {
      "inputs": [
        {
          "internalType": "uint256",
          "name": "tokenId",
          "type": "uint256"
        }
      ],
      "name": "tokenURI",
      "outputs": [
        {
          "internalType": "string",
          "name": "",
          "type": "string"
        }
      ],
      "stateMutability": "view",
      "type": "function"
    },
    {
      "inputs": [
        {
          "internalType": "address",
          "name": "from",
          "type": "address"
        },
        {
          "internalType": "address",
          "name": "to",
          "type": "address"
        },
        {
          "internalType": "uint256",
          "name": "tokenId",
          "type": "uint256"
        }
      ],
      "name": "transferFrom",
      "outputs": [],
      "stateMutability": "nonpayable",
      "type": "function"
    }
  ],
  "bytecode": "60806040523480156200001157600080fd5b50604051620018ad380380620018ad8339810160408190526200003491620001cb565b8151829082906200004d9060009060208501906200006e565b508051620000639060019060208401906200006e565b505050505062000288565b8280546200007c9062000235565b90600052602060002090601f016020900481019282620000a05760008555620000eb565b82601f10620000bb57805160ff1916838001178555620000eb565b82800160010185558215620000eb579182015b82811115620000eb578251825591602001919060010190620000ce565b50620000f9929150620000fd565b5090565b5b80821115620000f95760008155600101620000fe565b600082601f8301126200012657600080fd5b81516001600160401b038082111562000143576200014362000272565b604051601f8301601f19908116603f011681019082821181831017156200016e576200016e62000272565b816040528381526020925086838588010111156200018b57600080fd5b600091505b83821015620001af578582018301518183018401529082019062000190565b83821115620001c15760008385830101525b9695505050505050565b60008060408385031215620001df57600080fd5b82516001600160401b0380821115620001f757600080fd5b620002058683870162000114565b935060208501519150808211156200021c57600080fd5b506200022b8582860162000114565b9150509250929050565b600181811c908216806200024a57607f821691505b602082108114156200026c57634e487b7160e01b600052602260045260246000fd5b50919050565b634e487b7160e01b600052604160045260246000fd5b61161580620002986000396000f3fe608060405234801561001057600080fd5b50600436106101215760003560e01c80636352211e116100ad578063a144819411610071578063a144819414610259578063a22cb4651461026c578063b88d4fde1461027f578063c87b56dd14610292578063e985e9c5146102a557600080fd5b80636352211e146102025780636c0360eb1461021557806370a082311461021d5780638832e6e31461023e57806395d89b411461025157600080fd5b806323b872dd116100f457806323b872dd146101a357806340c10f19146101b657806342842e0e146101c957806342966c68146101dc5780634f558e79146101ef57600080fd5b806301ffc9a71461012657806306fdde031461014e578063081812fc14610163578063095ea7b31461018e575b600080fd5b6101396101343660046112f7565b6102e1565b60405190151581526020015b60405180910390f35b610156610333565b60405161014591906113e2565b610176610171366004611331565b6103c5565b6040516001600160a01b039091168152602001610145565b6101a161019c366004611276565b61045f565b005b6101a16101b1366004611196565b610575565b6101a16101c4366004611276565b6105a6565b6101a16101d7366004611196565b6105b4565b6101a16101ea366004611331565b6105cf565b6101396101fd366004611331565b6105db565b610176610210366004611331565b6105fa565b610156610671565b61023061022b366004611148565b61068d565b604051908152602001610145565b6101a161024c3660046112a0565b610714565b61015661071f565b6101a1610267366004611276565b61072e565b6101a161027a36600461123a565b610738565b6101a161028d3660046111d2565b610743565b6101566102a0366004611331565b61077b565b6101396102b3366004611163565b6001600160a01b03918216600090815260056020908152604080832093909416825291909152205460ff1690565b60006001600160e01b031982166380ac58cd60e01b148061031257506001600160e01b03198216635b5e139f60e01b145b8061032d57506301ffc9a760e01b6001600160e01b03198316145b92915050565b60606000805461034290611507565b80601f016020809104026020016040519081016040528092919081815260200182805461036e90611507565b80156103bb5780601f10610390576101008083540402835291602001916103bb565b820191906000526020600020905b81548152906001019060200180831161039e57829003601f168201915b5050505050905090565b6000818152600260205260408120546001600160a01b03166104435760405162461bcd60e51b815260206004820152602c60248201527f4552433732313a20617070726f76656420717565727920666f72206e6f6e657860448201526b34b9ba32b73a103a37b5b2b760a11b60648201526084015b60405180910390fd5b506000908152600460205260409020546001600160a01b031690565b600061046a826105fa565b9050806001600160a01b0316836001600160a01b031614156104d85760405162461bcd60e51b815260206004820152602160248201527f4552433732313a20617070726f76616c20746f2063757272656e74206f776e656044820152603960f91b606482015260840161043a565b336001600160a01b03821614806104f457506104f481336102b3565b6105665760405162461bcd60e51b815260206004820152603860248201527f4552433732313a20617070726f76652063616c6c6572206973206e6f74206f7760448201527f6e6572206e6f7220617070726f76656420666f7220616c6c0000000000000000606482015260840161043a565b6105708383610863565b505050565b61057f33826108d1565b61059b5760405162461bcd60e51b815260040161043a90611447565b6105708383836109c8565b6105b08282610b68565b5050565b61057083838360405180602001604052806000815250610743565b6105d881610caa565b50565b6000818152600260205260408120546001600160a01b0316151561032d565b6000818152600260205260408120546001600160a01b03168061032d5760405162461bcd60e51b815260206004820152602960248201527f4552433732313a206f776e657220717565727920666f72206e6f6e657869737460448201526832b73a103a37b5b2b760b91b606482015260840161043a565b606061068860408051602081019091526000815290565b905090565b60006001600160a01b0382166106f85760405162461bcd60e51b815260206004820152602a60248201527f4552433732313a2062616c616e636520717565727920666f7220746865207a65604482015269726f206164647265737360b01b606482015260840161043a565b506001600160a01b031660009081526003602052604090205490565b610570838383610d45565b60606001805461034290611507565b6105b08282610d78565b6105b0338383610d92565b61074d33836108d1565b6107695760405162461bcd60e51b815260040161043a90611447565b61077584848484610e61565b50505050565b6000818152600260205260409020546060906001600160a01b03166107fa5760405162461bcd60e51b815260206004820152602f60248201527f4552433732314d657461646174613a2055524920717565727920666f72206e6f60448201526e3732bc34b9ba32b73a103a37b5b2b760891b606482015260840161043a565b600061081160408051602081019091526000815290565b90506000815111610831576040518060200160405280600081525061085c565b8061083b84610e94565b60405160200161084c929190611376565b6040516020818303038152906040525b9392505050565b600081815260046020526040902080546001600160a01b0319166001600160a01b0384169081179091558190610898826105fa565b6001600160a01b03167f8c5be1e5ebec7d5bd14f71427d1e84f3dd0314c0f7b2291e5b200ac8c7c3b92560405160405180910390a45050565b6000818152600260205260408120546001600160a01b031661094a5760405162461bcd60e51b815260206004820152602c60248201527f4552433732313a206f70657261746f7220717565727920666f72206e6f6e657860448201526b34b9ba32b73a103a37b5b2b760a11b606482015260840161043a565b6000610955836105fa565b9050806001600160a01b0316846001600160a01b031614806109905750836001600160a01b0316610985846103c5565b6001600160a01b0316145b806109c057506001600160a01b0380821660009081526005602090815260408083209388168352929052205460ff165b949350505050565b826001600160a01b03166109db826105fa565b6001600160a01b031614610a435760405162461bcd60e51b815260206004820152602960248201527f4552433732313a207472616e73666572206f6620746f6b656e2074686174206960448201526839903737ba1037bbb760b91b606482015260840161043a565b6001600160a01b038216610aa55760405162461bcd60e51b8152602060048201526024808201527f4552433732313a207472616e7366657220746f20746865207a65726f206164646044820152637265737360e01b606482015260840161043a565b610ab0600082610863565b6001600160a01b0383166000908152600360205260408120805460019290610ad99084906114c4565b90915550506001600160a01b0382166000908152600360205260408120805460019290610b07908490611498565b909155505060008181526002602052604080822080546001600160a01b0319166001600160a01b0386811691821790925591518493918716917fddf252ad1be2c89b69c2b068fc378daa952ba7f163c4a11628f55a4df523b3ef91a4505050565b6001600160a01b038216610bbe5760405162461bcd60e51b815260206004820181905260248201527f4552433732313a206d696e7420746f20746865207a65726f2061646472657373604482015260640161043a565b6000818152600260205260409020546001600160a01b031615610c235760405162461bcd60e51b815260206004820152601c60248201527f4552433732313a20746f6b656e20616c7265616479206d696e74656400000000604482015260640161043a565b6001600160a01b0382166000908152600360205260408120805460019290610c4c908490611498565b909155505060008181526002602052604080822080546001600160a01b0319166001600160a01b03861690811790915590518392907fddf252ad1be2c89b69c2b068fc378daa952ba7f163c4a11628f55a4df523b3ef908290a45050565b6000610cb5826105fa565b9050610cc2600083610863565b6001600160a01b0381166000908152600360205260408120805460019290610ceb9084906114c4565b909155505060008281526002602052604080822080546001600160a01b0319169055518391906001600160a01b038416907fddf252ad1be2c89b69c2b068fc378daa952ba7f163c4a11628f55a4df523b3ef908390a45050565b610d4f8383610b68565b610d5c6000848484610f92565b6105705760405162461bcd60e51b815260040161043a906113f5565b6105b0828260405180602001604052806000815250610d45565b816001600160a01b0316836001600160a01b03161415610df45760405162461bcd60e51b815260206004820152601960248201527f4552433732313a20617070726f766520746f2063616c6c657200000000000000604482015260640161043a565b6001600160a01b03838116600081815260056020908152604080832094871680845294825291829020805460ff191686151590811790915591519182527f17307eab39ab6107e8899845ad3d59bd9653f200f220920489ca2b5937696c31910160405180910390a3505050565b610e6c8484846109c8565b610e7884848484610f92565b6107755760405162461bcd60e51b815260040161043a906113f5565b606081610eb85750506040805180820190915260018152600360fc1b602082015290565b8160005b8115610ee25780610ecc81611542565b9150610edb9050600a836114b0565b9150610ebc565b60008167ffffffffffffffff811115610efd57610efd6115b3565b6040519080825280601f01601f191660200182016040528015610f27576020820181803683370190505b5090505b84156109c057610f3c6001836114c4565b9150610f49600a8661155d565b610f54906030611498565b60f81b818381518110610f6957610f6961159d565b60200101906001600160f81b031916908160001a905350610f8b600a866114b0565b9450610f2b565b60006001600160a01b0384163b1561109457604051630a85bd0160e11b81526001600160a01b0385169063150b7a0290610fd69033908990889088906004016113a5565b602060405180830381600087803b158015610ff057600080fd5b505af1925050508015611020575060408051601f3d908101601f1916820190925261101d91810190611314565b60015b61107a573d80801561104e576040519150601f19603f3d011682016040523d82523d6000602084013e611053565b606091505b5080516110725760405162461bcd60e51b815260040161043a906113f5565b805181602001fd5b6001600160e01b031916630a85bd0160e11b1490506109c0565b506001949350505050565b80356001600160a01b03811681146110b657600080fd5b919050565b600082601f8301126110cc57600080fd5b813567ffffffffffffffff808211156110e7576110e76115b3565b604051601f8301601f19908116603f0116810190828211818310171561110f5761110f6115b3565b8160405283815286602085880101111561112857600080fd5b836020870160208301376000602085830101528094505050505092915050565b60006020828403121561115a57600080fd5b61085c8261109f565b6000806040838503121561117657600080fd5b61117f8361109f565b915061118d6020840161109f565b90509250929050565b6000806000606084860312156111ab57600080fd5b6111b48461109f565b92506111c26020850161109f565b9150604084013590509250925092565b600080600080608085870312156111e857600080fd5b6111f18561109f565b93506111ff6020860161109f565b925060408501359150606085013567ffffffffffffffff81111561122257600080fd5b61122e878288016110bb565b91505092959194509250565b6000806040838503121561124d57600080fd5b6112568361109f565b91506020830135801515811461126b57600080fd5b809150509250929050565b6000806040838503121561128957600080fd5b6112928361109f565b946020939093013593505050565b6000806000606084860312156112b557600080fd5b6112be8461109f565b925060208401359150604084013567ffffffffffffffff8111156112e157600080fd5b6112ed868287016110bb565b9150509250925092565b60006020828403121561130957600080fd5b813561085c816115c9565b60006020828403121561132657600080fd5b815161085c816115c9565b60006020828403121561134357600080fd5b5035919050565b600081518084526113628160208601602086016114db565b601f01601f19169290920160200192915050565b600083516113888184602088016114db565b83519083019061139c8183602088016114db565b01949350505050565b6001600160a01b03858116825284166020820152604081018390526080606082018190526000906113d89083018461134a565b9695505050505050565b60208152600061085c602083018461134a565b60208082526032908201527f4552433732313a207472616e7366657220746f206e6f6e20455243373231526560408201527131b2b4bb32b91034b6b83632b6b2b73a32b960711b606082015260800190565b60208082526031908201527f4552433732313a207472616e736665722063616c6c6572206973206e6f74206f6040820152701ddb995c881b9bdc88185c1c1c9bdd9959607a1b606082015260800190565b600082198211156114ab576114ab611571565b500190565b6000826114bf576114bf611587565b500490565b6000828210156114d6576114d6611571565b500390565b60005b838110156114f65781810151838201526020016114de565b838111156107755750506000910152565b600181811c9082168061151b57607f821691505b6020821081141561153c57634e487b7160e01b600052602260045260246000fd5b50919050565b600060001982141561155657611556611571565b5060010190565b60008261156c5761156c611587565b500690565b634e487b7160e01b600052601160045260246000fd5b634e487b7160e01b600052601260045260246000fd5b634e487b7160e01b600052603260045260246000fd5b634e487b7160e01b600052604160045260246000fd5b6001600160e01b0319811681146105d857600080fdfea26469706673582212205784dbf40129515aff6c9171819d993958952e302b14ea93013c89a55c08775c64736f6c63430008060033",
  "bytecodeSha1": "e878246e5edd17b82977de024253320ad42e1ce1",
  "compiler": {
    "evm_version": "istanbul",
    "optimizer": {
      "enabled": true,
      "runs": 200
    },
    "version": "0.8.6+commit.11564f7e"
  },
  "contractName": "ERC721Mock",
  "language": "Solidity",
  "natspec": {
    "kind": "dev",
    "methods": {
      "approve(address,uint256)": {
        "details": "See {IERC721-approve}."
      },
      "balanceOf(address)": {
        "details": "See {IERC721-balanceOf}."
      },
      "getApproved(uint256)": {
        "details": "See {IERC721-getApproved}."
      },
      "isApprovedForAll(address,address)": {
        "details": "See {IERC721-isApprovedForAll}."
      },
      "name()": {
        "details": "See {IERC721Metadata-name}."
      },
      "ownerOf(uint256)": {
        "details": "See {IERC721-ownerOf}."
      },
      "safeTransferFrom(address,address,uint256)": {
        "details": "See {IERC721-safeTransferFrom}."
      },
      "safeTransferFrom(address,address,uint256,bytes)": {
        "details": "See {IERC721-safeTransferFrom}."
      },
      "setApprovalForAll(address,bool)": {
        "details": "See {IERC721-setApprovalForAll}."
      },
      "supportsInterface(bytes4)": {
        "details": "See {IERC165-supportsInterface}."
      },
      "symbol()": {
        "details": "See {IERC721Metadata-symbol}."
      },
      "tokenURI(uint256)": {
        "details": "See {IERC721Metadata-tokenURI}."
      },
      "transferFrom(address,address,uint256)": {
        "details": "See {IERC721-transferFrom}."
      }
    },
    "title": "ERC721Mock This mock just provides a public safeMint, mint, and burn functions for testing purposes",
    "version": 1
  },
  "opcodes": "PUSH1 0x80 PUSH1 0x40 MSTORE CALLVALUE DUP1 ISZERO PUSH2 0x10 JUMPI PUSH1 0x0 DUP1 REVERT JUMPDEST POP PUSH1 0x4 CALLDATASIZE LT PUSH2 0x121 JUMPI PUSH1 0x0 CALLDATALOAD PUSH1 0xE0 SHR DUP1 PUSH4 0x6352211E GT PUSH2 0xAD JUMPI DUP1 PUSH4 0xA1448194 GT PUSH2 0x71 JUMPI DUP1 PUSH4 0xA1448194 EQ PUSH2 0x259 JUMPI DUP1 PUSH4 0xA22CB465 EQ PUSH2 0x26C JUMPI DUP1 PUSH4 0xB88D4FDE EQ PUSH2 0x27F JUMPI DUP1 PUSH4 0xC87B56DD EQ PUSH2 0x292 JUMPI DUP1 PUSH4 0xE985E9C5 EQ PUSH2 0x2A5 JUMPI PUSH1 0x0 DUP1 REVERT JUMPDEST DUP1 PUSH4 0x6352211E EQ PUSH2 0x202 JUMPI DUP1 PUSH4 0x6C0360EB EQ PUSH2 0x215 JUMPI DUP1 PUSH4 0x70A08231 EQ PUSH2 0x21D JUMPI DUP1 PUSH4 0x8832E6E3 EQ PUSH2 0x23E JUMPI DUP1 PUSH4 0x95D89B41 EQ PUSH2 0x251 JUMPI PUSH1 0x0 DUP1 REVERT JUMPDEST DUP1 PUSH4 0x23B872DD GT PUSH2 0xF4 JUMPI DUP1 PUSH4 0x23B872DD EQ PUSH2 0x1A3 JUMPI DUP1 PUSH4 0x40C10F19 EQ PUSH2 0x1B6 JUMPI DUP1 PUSH4 0x42842E0E EQ PUSH2 0x1C9 JUMPI DUP1 PUSH4 0x42966C68 EQ PUSH2 0x1DC JUMPI DUP1 PUSH4 0x4F558E79 EQ PUSH2 0x1EF JUMPI PUSH1 0x0 DUP1 REVERT JUMPDEST DUP1 PUSH4 0x1FFC9A7 EQ PUSH2 0x126 JUMPI DUP1 PUSH4 0x6FDDE03 EQ PUSH2 0x14E JUMPI DUP1 PUSH4 0x81812FC EQ PUSH2 0x163 JUMPI DUP1 PUSH4 0x95EA7B3 EQ PUSH2 0x18E JUMPI JUMPDEST PUSH1 0x0 DUP1 REVERT JUMPDEST PUSH2 0x139 PUSH2 0x134 CALLDATASIZE PUSH1 0x4 PUSH2 0x12F7 JUMP JUMPDEST PUSH2 0x2E1 JUMP JUMPDEST PUSH1 0x40 MLOAD SWAP1 ISZERO ISZERO DUP2 MSTORE PUSH1 0x20 ADD JUMPDEST PUSH1 0x40 MLOAD DUP1 SWAP2 SUB SWAP1 RETURN JUMPDEST PUSH2 0x156 PUSH2 0x333 JUMP JUMPDEST PUSH1 0x40 MLOAD PUSH2 0x145 SWAP2 SWAP1 PUSH2 0x13E2 JUMP JUMPDEST PUSH2 0x176 PUSH2 0x171 CALLDATASIZE PUSH1 0x4 PUSH2 0x1331 JUMP JUMPDEST PUSH2 0x3C5 JUMP JUMPDEST PUSH1 0x40 MLOAD PUSH1 0x1 PUSH1 0x1 PUSH1 0xA0 SHL SUB SWAP1 SWAP2 AND DUP2 MSTORE PUSH1 0x20 ADD PUSH2 0x145 JUMP JUMPDEST PUSH2 0x1A1 PUSH2 0x19C CALLDATASIZE PUSH1 0x4 PUSH2 0x1276 JUMP JUMPDEST PUSH2 0x45F JUMP JUMPDEST STOP JUMPDEST PUSH2 0x1A1 PUSH2 0x1B1 CALLDATASIZE PUSH1 0x4 PUSH2 0x1196 JUMP JUMPDEST PUSH2 0x575 JUMP JUMPDEST PUSH2 0x1A1 PUSH2 0x1C4 CALLDATASIZE PUSH1 0x4 PUSH2 0x1276 JUMP JUMPDEST PUSH2 0x5A6 JUMP JUMPDEST PUSH2 0x1A1 PUSH2 0x1D7 CALLDATASIZE PUSH1 0x4 PUSH2 0x1196 JUMP JUMPDEST PUSH2 0x5B4 JUMP JUMPDEST PUSH2 0x1A1 PUSH2 0x1EA CALLDATASIZE PUSH1 0x4 PUSH2 0x1331 JUMP JUMPDEST PUSH2 0x5CF JUMP JUMPDEST PUSH2 0x139 PUSH2 0x1FD CALLDATASIZE PUSH1 0x4 PUSH2 0x1331 JUMP JUMPDEST PUSH2 0x5DB JUMP JUMPDEST PUSH2 0x176 PUSH2 0x210 CALLDATASIZE PUSH1 0x4 PUSH2 0x1331 JUMP JUMPDEST PUSH2 0x5FA JUMP JUMPDEST PUSH2 0x156 PUSH2 0x671 JUMP JUMPDEST PUSH2 0x230 PUSH2 0x22B CALLDATASIZE PUSH1 0x4 PUSH2 0x1148 JUMP JUMPDEST PUSH2 0x68D JUMP JUMPDEST PUSH1 0x40 MLOAD SWAP1 DUP2 MSTORE PUSH1 0x20 ADD PUSH2 0x145 JUMP JUMPDEST PUSH2 0x1A1 PUSH2 0x24C CALLDATASIZE PUSH1 0x4 PUSH2 0x12A0 JUMP JUMPDEST PUSH2 0x714 JUMP JUMPDEST PUSH2 0x156 PUSH2 0x71F JUMP JUMPDEST PUSH2 0x1A1 PUSH2 0x267 CALLDATASIZE PUSH1 0x4 PUSH2 0x1276 JUMP JUMPDEST PUSH2 0x72E JUMP JUMPDEST PUSH2 0x1A1 PUSH2 0x27A CALLDATASIZE PUSH1 0x4 PUSH2 0x123A JUMP JUMPDEST PUSH2 0x738 JUMP JUMPDEST PUSH2 0x1A1 PUSH2 0x28D CALLDATASIZE PUSH1 0x4 PUSH2 0x11D2 JUMP JUMPDEST PUSH2 0x743 JUMP JUMPDEST PUSH2 0x156 PUSH2 0x2A0 CALLDATASIZE PUSH1 0x4 PUSH2 0x1331 JUMP JUMPDEST PUSH2 0x77B JUMP JUMPDEST PUSH2 0x139 PUSH2 0x2B3 CALLDATASIZE PUSH1 0x4 PUSH2 0x1163 JUMP JUMPDEST PUSH1 0x1 PUSH1 0x1 PUSH1 0xA0 SHL SUB SWAP2 DUP3 AND PUSH1 0x0 SWAP1 DUP2 MSTORE PUSH1 0x5 PUSH1 0x20 SWAP1 DUP2 MSTORE PUSH1 0x40 DUP1 DUP4 KECCAK256 SWAP4 SWAP1 SWAP5 AND DUP3 MSTORE SWAP2 SWAP1 SWAP2 MSTORE KECCAK256 SLOAD PUSH1 0xFF AND SWAP1 JUMP JUMPDEST PUSH1 0x0 PUSH1 0x1 PUSH1 0x1 PUSH1 0xE0 SHL SUB NOT DUP3 AND PUSH4 0x80AC58CD PUSH1 0xE0 SHL EQ DUP1 PUSH2 0x312 JUMPI POP PUSH1 0x1 PUSH1 0x1 PUSH1 0xE0 SHL SUB NOT DUP3 AND PUSH4 0x5B5E139F PUSH1 0xE0 SHL EQ JUMPDEST DUP1 PUSH2 0x32D JUMPI POP PUSH4 0x1FFC9A7 PUSH1 0xE0 SHL PUSH1 0x1 PUSH1 0x1 PUSH1 0xE0 SHL SUB NOT DUP4 AND EQ JUMPDEST SWAP3 SWAP2 POP POP JUMP JUMPDEST PUSH1 0x60 PUSH1 0x0 DUP1 SLOAD PUSH2 0x342 SWAP1 PUSH2 0x1507 JUMP JUMPDEST DUP1 PUSH1 0x1F ADD PUSH1 0x20 DUP1 SWAP2 DIV MUL PUSH1 0x20 ADD PUSH1 0x40 MLOAD SWAP1 DUP2 ADD PUSH1 0x40 MSTORE DUP1 SWAP3 SWAP2 SWAP1 DUP2 DUP2 MSTORE PUSH1 0x20 ADD DUP3 DUP1 SLOAD PUSH2 0x36E SWAP1 PUSH2 0x1507 JUMP JUMPDEST DUP1 ISZERO PUSH2 0x3BB JUMPI DUP1 PUSH1 0x1F LT PUSH2 0x390 JUMPI PUSH2 0x100 DUP1 DUP4 SLOAD DIV MUL DUP4 MSTORE SWAP2 PUSH1 0x20 ADD SWAP2 PUSH2 0x3BB JUMP JUMPDEST DUP3 ADD SWAP2 SWAP1 PUSH1 0x0 MSTORE PUSH1 0x20 PUSH1 0x0 KECCAK256 SWAP1 JUMPDEST DUP2 SLOAD DUP2 MSTORE SWAP1 PUSH1 0x1 ADD SWAP1 PUSH1 0x20 ADD DUP1 DUP4 GT PUSH2 0x39E JUMPI DUP3 SWAP1 SUB PUSH1 0x1F AND DUP3 ADD SWAP2 JUMPDEST POP POP POP POP POP SWAP1 POP SWAP1 JUMP JUMPDEST PUSH1 0x0 DUP2 DUP2 MSTORE PUSH1 0x2 PUSH1 0x20 MSTORE PUSH1 0x40 DUP2 KECCAK256 SLOAD PUSH1 0x1 PUSH1 0x1 PUSH1 0xA0 SHL SUB AND PUSH2 0x443 JUMPI PUSH1 0x40 MLOAD PUSH3 0x461BCD PUSH1 0xE5 SHL DUP2 MSTORE PUSH1 0x20 PUSH1 0x4 DUP3 ADD MSTORE PUSH1 0x2C PUSH1 0x24 DUP3 ADD MSTORE PUSH32 0x4552433732313A20617070726F76656420717565727920666F72206E6F6E6578 PUSH1 0x44 DUP3 ADD MSTORE PUSH12 0x34B9BA32B73A103A37B5B2B7 PUSH1 0xA1 SHL PUSH1 0x64 DUP3 ADD MSTORE PUSH1 0x84 ADD JUMPDEST PUSH1 0x40 MLOAD DUP1 SWAP2 SUB SWAP1 REVERT JUMPDEST POP PUSH1 0x0 SWAP1 DUP2 MSTORE PUSH1 0x4 PUSH1 0x20 MSTORE PUSH1 0x40 SWAP1 KECCAK256 SLOAD PUSH1 0x1 PUSH1 0x1 PUSH1 0xA0 SHL SUB AND SWAP1 JUMP JUMPDEST PUSH1 0x0 PUSH2 0x46A DUP3 PUSH2 0x5FA JUMP JUMPDEST SWAP1 POP DUP1 PUSH1 0x1 PUSH1 0x1 PUSH1 0xA0 SHL SUB AND DUP4 PUSH1 0x1 PUSH1 0x1 PUSH1 0xA0 SHL SUB AND EQ ISZERO PUSH2 0x4D8 JUMPI PUSH1 0x40 MLOAD PUSH3 0x461BCD PUSH1 0xE5 SHL DUP2 MSTORE PUSH1 0x20 PUSH1 0x4 DUP3 ADD MSTORE PUSH1 0x21 PUSH1 0x24 DUP3 ADD MSTORE PUSH32 0x4552433732313A20617070726F76616C20746F2063757272656E74206F776E65 PUSH1 0x44 DUP3 ADD MSTORE PUSH1 0x39 PUSH1 0xF9 SHL PUSH1 0x64 DUP3 ADD MSTORE PUSH1 0x84 ADD PUSH2 0x43A JUMP JUMPDEST CALLER PUSH1 0x1 PUSH1 0x1 PUSH1 0xA0 SHL SUB DUP3 AND EQ DUP1 PUSH2 0x4F4 JUMPI POP PUSH2 0x4F4 DUP2 CALLER PUSH2 0x2B3 JUMP JUMPDEST PUSH2 0x566 JUMPI PUSH1 0x40 MLOAD PUSH3 0x461BCD PUSH1 0xE5 SHL DUP2 MSTORE PUSH1 0x20 PUSH1 0x4 DUP3 ADD MSTORE PUSH1 0x38 PUSH1 0x24 DUP3 ADD MSTORE PUSH32 0x4552433732313A20617070726F76652063616C6C6572206973206E6F74206F77 PUSH1 0x44 DUP3 ADD MSTORE PUSH32 0x6E6572206E6F7220617070726F76656420666F7220616C6C0000000000000000 PUSH1 0x64 DUP3 ADD MSTORE PUSH1 0x84 ADD PUSH2 0x43A JUMP JUMPDEST PUSH2 0x570 DUP4 DUP4 PUSH2 0x863 JUMP JUMPDEST POP POP POP JUMP JUMPDEST PUSH2 0x57F CALLER DUP3 PUSH2 0x8D1 JUMP JUMPDEST PUSH2 0x59B JUMPI PUSH1 0x40 MLOAD PUSH3 0x461BCD PUSH1 0xE5 SHL DUP2 MSTORE PUSH1 0x4 ADD PUSH2 0x43A SWAP1 PUSH2 0x1447 JUMP JUMPDEST PUSH2 0x570 DUP4 DUP4 DUP4 PUSH2 0x9C8 JUMP JUMPDEST PUSH2 0x5B0 DUP3 DUP3 PUSH2 0xB68 JUMP JUMPDEST POP POP JUMP JUMPDEST PUSH2 0x570 DUP4 DUP4 DUP4 PUSH1 0x40 MLOAD DUP1 PUSH1 0x20 ADD PUSH1 0x40 MSTORE DUP1 PUSH1 0x0 DUP2 MSTORE POP PUSH2 0x743 JUMP JUMPDEST PUSH2 0x5D8 DUP2 PUSH2 0xCAA JUMP JUMPDEST POP JUMP JUMPDEST PUSH1 0x0 DUP2 DUP2 MSTORE PUSH1 0x2 PUSH1 0x20 MSTORE PUSH1 0x40 DUP2 KECCAK256 SLOAD PUSH1 0x1 PUSH1 0x1 PUSH1 0xA0 SHL SUB AND ISZERO ISZERO PUSH2 0x32D JUMP JUMPDEST PUSH1 0x0 DUP2 DUP2 MSTORE PUSH1 0x2 PUSH1 0x20 MSTORE PUSH1 0x40 DUP2 KECCAK256 SLOAD PUSH1 0x1 PUSH1 0x1 PUSH1 0xA0 SHL SUB AND DUP1 PUSH2 0x32D JUMPI PUSH1 0x40 MLOAD PUSH3 0x461BCD PUSH1 0xE5 SHL DUP2 MSTORE PUSH1 0x20 PUSH1 0x4 DUP3 ADD MSTORE PUSH1 0x29 PUSH1 0x24 DUP3 ADD MSTORE PUSH32 0x4552433732313A206F776E657220717565727920666F72206E6F6E6578697374 PUSH1 0x44 DUP3 ADD MSTORE PUSH9 0x32B73A103A37B5B2B7 PUSH1 0xB9 SHL PUSH1 0x64 DUP3 ADD MSTORE PUSH1 0x84 ADD PUSH2 0x43A JUMP JUMPDEST PUSH1 0x60 PUSH2 0x688 PUSH1 0x40 DUP1 MLOAD PUSH1 0x20 DUP2 ADD SWAP1 SWAP2 MSTORE PUSH1 0x0 DUP2 MSTORE SWAP1 JUMP JUMPDEST SWAP1 POP SWAP1 JUMP JUMPDEST PUSH1 0x0 PUSH1 0x1 PUSH1 0x1 PUSH1 0xA0 SHL SUB DUP3 AND PUSH2 0x6F8 JUMPI PUSH1 0x40 MLOAD PUSH3 0x461BCD PUSH1 0xE5 SHL DUP2 MSTORE PUSH1 0x20 PUSH1 0x4 DUP3 ADD MSTORE PUSH1 0x2A PUSH1 0x24 DUP3 ADD MSTORE PUSH32 0x4552433732313A2062616C616E636520717565727920666F7220746865207A65 PUSH1 0x44 DUP3 ADD MSTORE PUSH10 0x726F2061646472657373 PUSH1 0xB0 SHL PUSH1 0x64 DUP3 ADD MSTORE PUSH1 0x84 ADD PUSH2 0x43A JUMP JUMPDEST POP PUSH1 0x1 PUSH1 0x1 PUSH1 0xA0 SHL SUB AND PUSH1 0x0 SWAP1 DUP2 MSTORE PUSH1 0x3 PUSH1 0x20 MSTORE PUSH1 0x40 SWAP1 KECCAK256 SLOAD SWAP1 JUMP JUMPDEST PUSH2 0x570 DUP4 DUP4 DUP4 PUSH2 0xD45 JUMP JUMPDEST PUSH1 0x60 PUSH1 0x1 DUP1 SLOAD PUSH2 0x342 SWAP1 PUSH2 0x1507 JUMP JUMPDEST PUSH2 0x5B0 DUP3 DUP3 PUSH2 0xD78 JUMP JUMPDEST PUSH2 0x5B0 CALLER DUP4 DUP4 PUSH2 0xD92 JUMP JUMPDEST PUSH2 0x74D CALLER DUP4 PUSH2 0x8D1 JUMP JUMPDEST PUSH2 0x769 JUMPI PUSH1 0x40 MLOAD PUSH3 0x461BCD PUSH1 0xE5 SHL DUP2 MSTORE PUSH1 0x4 ADD PUSH2 0x43A SWAP1 PUSH2 0x1447 JUMP JUMPDEST PUSH2 0x775 DUP5 DUP5 DUP5 DUP5 PUSH2 0xE61 JUMP JUMPDEST POP POP POP POP JUMP JUMPDEST PUSH1 0x0 DUP2 DUP2 MSTORE PUSH1 0x2 PUSH1 0x20 MSTORE PUSH1 0x40 SWAP1 KECCAK256 SLOAD PUSH1 0x60 SWAP1 PUSH1 0x1 PUSH1 0x1 PUSH1 0xA0 SHL SUB AND PUSH2 0x7FA JUMPI PUSH1 0x40 MLOAD PUSH3 0x461BCD PUSH1 0xE5 SHL DUP2 MSTORE PUSH1 0x20 PUSH1 0x4 DUP3 ADD MSTORE PUSH1 0x2F PUSH1 0x24 DUP3 ADD MSTORE PUSH32 0x4552433732314D657461646174613A2055524920717565727920666F72206E6F PUSH1 0x44 DUP3 ADD MSTORE PUSH15 0x3732BC34B9BA32B73A103A37B5B2B7 PUSH1 0x89 SHL PUSH1 0x64 DUP3 ADD MSTORE PUSH1 0x84 ADD PUSH2 0x43A JUMP JUMPDEST PUSH1 0x0 PUSH2 0x811 PUSH1 0x40 DUP1 MLOAD PUSH1 0x20 DUP2 ADD SWAP1 SWAP2 MSTORE PUSH1 0x0 DUP2 MSTORE SWAP1 JUMP JUMPDEST SWAP1 POP PUSH1 0x0 DUP2 MLOAD GT PUSH2 0x831 JUMPI PUSH1 0x40 MLOAD DUP1 PUSH1 0x20 ADD PUSH1 0x40 MSTORE DUP1 PUSH1 0x0 DUP2 MSTORE POP PUSH2 0x85C JUMP JUMPDEST DUP1 PUSH2 0x83B DUP5 PUSH2 0xE94 JUMP JUMPDEST PUSH1 0x40 MLOAD PUSH1 0x20 ADD PUSH2 0x84C SWAP3 SWAP2 SWAP1 PUSH2 0x1376 JUMP JUMPDEST PUSH1 0x40 MLOAD PUSH1 0x20 DUP2 DUP4 SUB SUB DUP2 MSTORE SWAP1 PUSH1 0x40 MSTORE JUMPDEST SWAP4 SWAP3 POP POP POP JUMP JUMPDEST PUSH1 0x0 DUP2 DUP2 MSTORE PUSH1 0x4 PUSH1 0x20 MSTORE PUSH1 0x40 SWAP1 KECCAK256 DUP1 SLOAD PUSH1 0x1 PUSH1 0x1 PUSH1 0xA0 SHL SUB NOT AND PUSH1 0x1 PUSH1 0x1 PUSH1 0xA0 SHL SUB DUP5 AND SWAP1 DUP2 OR SWAP1 SWAP2 SSTORE DUP2 SWAP1 PUSH2 0x898 DUP3 PUSH2 0x5FA JUMP JUMPDEST PUSH1 0x1 PUSH1 0x1 PUSH1 0xA0 SHL SUB AND PUSH32 0x8C5BE1E5EBEC7D5BD14F71427D1E84F3DD0314C0F7B2291E5B200AC8C7C3B925 PUSH1 0x40 MLOAD PUSH1 0x40 MLOAD DUP1 SWAP2 SUB SWAP1 LOG4 POP POP JUMP JUMPDEST PUSH1 0x0 DUP2 DUP2 MSTORE PUSH1 0x2 PUSH1 0x20 MSTORE PUSH1 0x40 DUP2 KECCAK256 SLOAD PUSH1 0x1 PUSH1 0x1 PUSH1 0xA0 SHL SUB AND PUSH2 0x94A JUMPI PUSH1 0x40 MLOAD PUSH3 0x461BCD PUSH1 0xE5 SHL DUP2 MSTORE PUSH1 0x20 PUSH1 0x4 DUP3 ADD MSTORE PUSH1 0x2C PUSH1 0x24 DUP3 ADD MSTORE PUSH32 0x4552433732313A206F70657261746F7220717565727920666F72206E6F6E6578 PUSH1 0x44 DUP3 ADD MSTORE PUSH12 0x34B9BA32B73A103A37B5B2B7 PUSH1 0xA1 SHL PUSH1 0x64 DUP3 ADD MSTORE PUSH1 0x84 ADD PUSH2 0x43A JUMP JUMPDEST PUSH1 0x0 PUSH2 0x955 DUP4 PUSH2 0x5FA JUMP JUMPDEST SWAP1 POP DUP1 PUSH1 0x1 PUSH1 0x1 PUSH1 0xA0 SHL SUB AND DUP5 PUSH1 0x1 PUSH1 0x1 PUSH1 0xA0 SHL SUB AND EQ DUP1 PUSH2 0x990 JUMPI POP DUP4 PUSH1 0x1 PUSH1 0x1 PUSH1 0xA0 SHL SUB AND PUSH2 0x985 DUP5 PUSH2 0x3C5 JUMP JUMPDEST PUSH1 0x1 PUSH1 0x1 PUSH1 0xA0 SHL SUB AND EQ JUMPDEST DUP1 PUSH2 0x9C0 JUMPI POP PUSH1 0x1 PUSH1 0x1 PUSH1 0xA0 SHL SUB DUP1 DUP3 AND PUSH1 0x0 SWAP1 DUP2 MSTORE PUSH1 0x5 PUSH1 0x20 SWAP1 DUP2 MSTORE PUSH1 0x40 DUP1 DUP4 KECCAK256 SWAP4 DUP9 AND DUP4 MSTORE SWAP3 SWAP1 MSTORE KECCAK256 SLOAD PUSH1 0xFF AND JUMPDEST SWAP5 SWAP4 POP POP POP POP JUMP JUMPDEST DUP3 PUSH1 0x1 PUSH1 0x1 PUSH1 0xA0 SHL SUB AND PUSH2 0x9DB DUP3 PUSH2 0x5FA JUMP JUMPDEST PUSH1 0x1 PUSH1 0x1 PUSH1 0xA0 SHL SUB AND EQ PUSH2 0xA43 JUMPI PUSH1 0x40 MLOAD PUSH3 0x461BCD PUSH1 0xE5 SHL DUP2 MSTORE PUSH1 0x20 PUSH1 0x4 DUP3 ADD MSTORE PUSH1 0x29 PUSH1 0x24 DUP3 ADD MSTORE PUSH32 0x4552433732313A207472616E73666572206F6620746F6B656E20746861742069 PUSH1 0x44 DUP3 ADD MSTORE PUSH9 0x39903737BA1037BBB7 PUSH1 0xB9 SHL PUSH1 0x64 DUP3 ADD MSTORE PUSH1 0x84 ADD PUSH2 0x43A JUMP JUMPDEST PUSH1 0x1 PUSH1 0x1 PUSH1 0xA0 SHL SUB DUP3 AND PUSH2 0xAA5 JUMPI PUSH1 0x40 MLOAD PUSH3 0x461BCD PUSH1 0xE5 SHL DUP2 MSTORE PUSH1 0x20 PUSH1 0x4 DUP3 ADD MSTORE PUSH1 0x24 DUP1 DUP3 ADD MSTORE PUSH32 0x4552433732313A207472616E7366657220746F20746865207A65726F20616464 PUSH1 0x44 DUP3 ADD MSTORE PUSH4 0x72657373 PUSH1 0xE0 SHL PUSH1 0x64 DUP3 ADD MSTORE PUSH1 0x84 ADD PUSH2 0x43A JUMP JUMPDEST PUSH2 0xAB0 PUSH1 0x0 DUP3 PUSH2 0x863 JUMP JUMPDEST PUSH1 0x1 PUSH1 0x1 PUSH1 0xA0 SHL SUB DUP4 AND PUSH1 0x0 SWAP1 DUP2 MSTORE PUSH1 0x3 PUSH1 0x20 MSTORE PUSH1 0x40 DUP2 KECCAK256 DUP1 SLOAD PUSH1 0x1 SWAP3 SWAP1 PUSH2 0xAD9 SWAP1 DUP5 SWAP1 PUSH2 0x14C4 JUMP JUMPDEST SWAP1 SWAP2 SSTORE POP POP PUSH1 0x1 PUSH1 0x1 PUSH1 0xA0 SHL SUB DUP3 AND PUSH1 0x0 SWAP1 DUP2 MSTORE PUSH1 0x3 PUSH1 0x20 MSTORE PUSH1 0x40 DUP2 KECCAK256 DUP1 SLOAD PUSH1 0x1 SWAP3 SWAP1 PUSH2 0xB07 SWAP1 DUP5 SWAP1 PUSH2 0x1498 JUMP JUMPDEST SWAP1 SWAP2 SSTORE POP POP PUSH1 0x0 DUP2 DUP2 MSTORE PUSH1 0x2 PUSH1 0x20 MSTORE PUSH1 0x40 DUP1 DUP3 KECCAK256 DUP1 SLOAD PUSH1 0x1 PUSH1 0x1 PUSH1 0xA0 SHL SUB NOT AND PUSH1 0x1 PUSH1 0x1 PUSH1 0xA0 SHL SUB DUP7 DUP2 AND SWAP2 DUP3 OR SWAP1 SWAP3 SSTORE SWAP2 MLOAD DUP5 SWAP4 SWAP2 DUP8 AND SWAP2 PUSH32 0xDDF252AD1BE2C89B69C2B068FC378DAA952BA7F163C4A11628F55A4DF523B3EF SWAP2 LOG4 POP POP POP JUMP JUMPDEST PUSH1 0x1 PUSH1 0x1 PUSH1 0xA0 SHL SUB DUP3 AND PUSH2 0xBBE JUMPI PUSH1 0x40 MLOAD PUSH3 0x461BCD PUSH1 0xE5 SHL DUP2 MSTORE PUSH1 0x20 PUSH1 0x4 DUP3 ADD DUP2 SWAP1 MSTORE PUSH1 0x24 DUP3 ADD MSTORE PUSH32 0x4552433732313A206D696E7420746F20746865207A65726F2061646472657373 PUSH1 0x44 DUP3 ADD MSTORE PUSH1 0x64 ADD PUSH2 0x43A JUMP JUMPDEST PUSH1 0x0 DUP2 DUP2 MSTORE PUSH1 0x2 PUSH1 0x20 MSTORE PUSH1 0x40 SWAP1 KECCAK256 SLOAD PUSH1 0x1 PUSH1 0x1 PUSH1 0xA0 SHL SUB AND ISZERO PUSH2 0xC23 JUMPI PUSH1 0x40 MLOAD PUSH3 0x461BCD PUSH1 0xE5 SHL DUP2 MSTORE PUSH1 0x20 PUSH1 0x4 DUP3 ADD MSTORE PUSH1 0x1C PUSH1 0x24 DUP3 ADD MSTORE PUSH32 0x4552433732313A20746F6B656E20616C7265616479206D696E74656400000000 PUSH1 0x44 DUP3 ADD MSTORE PUSH1 0x64 ADD PUSH2 0x43A JUMP JUMPDEST PUSH1 0x1 PUSH1 0x1 PUSH1 0xA0 SHL SUB DUP3 AND PUSH1 0x0 SWAP1 DUP2 MSTORE PUSH1 0x3 PUSH1 0x20 MSTORE PUSH1 0x40 DUP2 KECCAK256 DUP1 SLOAD PUSH1 0x1 SWAP3 SWAP1 PUSH2 0xC4C SWAP1 DUP5 SWAP1 PUSH2 0x1498 JUMP JUMPDEST SWAP1 SWAP2 SSTORE POP POP PUSH1 0x0 DUP2 DUP2 MSTORE PUSH1 0x2 PUSH1 0x20 MSTORE PUSH1 0x40 DUP1 DUP3 KECCAK256 DUP1 SLOAD PUSH1 0x1 PUSH1 0x1 PUSH1 0xA0 SHL SUB NOT AND PUSH1 0x1 PUSH1 0x1 PUSH1 0xA0 SHL SUB DUP7 AND SWAP1 DUP2 OR SWAP1 SWAP2 SSTORE SWAP1 MLOAD DUP4 SWAP3 SWAP1 PUSH32 0xDDF252AD1BE2C89B69C2B068FC378DAA952BA7F163C4A11628F55A4DF523B3EF SWAP1 DUP3 SWAP1 LOG4 POP POP JUMP JUMPDEST PUSH1 0x0 PUSH2 0xCB5 DUP3 PUSH2 0x5FA JUMP JUMPDEST SWAP1 POP PUSH2 0xCC2 PUSH1 0x0 DUP4 PUSH2 0x863 JUMP JUMPDEST PUSH1 0x1 PUSH1 0x1 PUSH1 0xA0 SHL SUB DUP2 AND PUSH1 0x0 SWAP1 DUP2 MSTORE PUSH1 0x3 PUSH1 0x20 MSTORE PUSH1 0x40 DUP2 KECCAK256 DUP1 SLOAD PUSH1 0x1 SWAP3 SWAP1 PUSH2 0xCEB SWAP1 DUP5 SWAP1 PUSH2 0x14C4 JUMP JUMPDEST SWAP1 SWAP2 SSTORE POP POP PUSH1 0x0 DUP3 DUP2 MSTORE PUSH1 0x2 PUSH1 0x20 MSTORE PUSH1 0x40 DUP1 DUP3 KECCAK256 DUP1 SLOAD PUSH1 0x1 PUSH1 0x1 PUSH1 0xA0 SHL SUB NOT AND SWAP1 SSTORE MLOAD DUP4 SWAP2 SWAP1 PUSH1 0x1 PUSH1 0x1 PUSH1 0xA0 SHL SUB DUP5 AND SWAP1 PUSH32 0xDDF252AD1BE2C89B69C2B068FC378DAA952BA7F163C4A11628F55A4DF523B3EF SWAP1 DUP4 SWAP1 LOG4 POP POP JUMP JUMPDEST PUSH2 0xD4F DUP4 DUP4 PUSH2 0xB68 JUMP JUMPDEST PUSH2 0xD5C PUSH1 0x0 DUP5 DUP5 DUP5 PUSH2 0xF92 JUMP JUMPDEST PUSH2 0x570 JUMPI PUSH1 0x40 MLOAD PUSH3 0x461BCD PUSH1 0xE5 SHL DUP2 MSTORE PUSH1 0x4 ADD PUSH2 0x43A SWAP1 PUSH2 0x13F5 JUMP JUMPDEST PUSH2 0x5B0 DUP3 DUP3 PUSH1 0x40 MLOAD DUP1 PUSH1 0x20 ADD PUSH1 0x40 MSTORE DUP1 PUSH1 0x0 DUP2 MSTORE POP PUSH2 0xD45 JUMP JUMPDEST DUP2 PUSH1 0x1 PUSH1 0x1 PUSH1 0xA0 SHL SUB AND DUP4 PUSH1 0x1 PUSH1 0x1 PUSH1 0xA0 SHL SUB AND EQ ISZERO PUSH2 0xDF4 JUMPI PUSH1 0x40 MLOAD PUSH3 0x461BCD PUSH1 0xE5 SHL DUP2 MSTORE PUSH1 0x20 PUSH1 0x4 DUP3 ADD MSTORE PUSH1 0x19 PUSH1 0x24 DUP3 ADD MSTORE PUSH32 0x4552433732313A20617070726F766520746F2063616C6C657200000000000000 PUSH1 0x44 DUP3 ADD MSTORE PUSH1 0x64 ADD PUSH2 0x43A JUMP JUMPDEST PUSH1 0x1 PUSH1 0x1 PUSH1 0xA0 SHL SUB DUP4 DUP2 AND PUSH1 0x0 DUP2 DUP2 MSTORE PUSH1 0x5 PUSH1 0x20 SWAP1 DUP2 MSTORE PUSH1 0x40 DUP1 DUP4 KECCAK256 SWAP5 DUP8 AND DUP1 DUP5 MSTORE SWAP5 DUP3 MSTORE SWAP2 DUP3 SWAP1 KECCAK256 DUP1 SLOAD PUSH1 0xFF NOT AND DUP7 ISZERO ISZERO SWAP1 DUP2 OR SWAP1 SWAP2 SSTORE SWAP2 MLOAD SWAP2 DUP3 MSTORE PUSH32 0x17307EAB39AB6107E8899845AD3D59BD9653F200F220920489CA2B5937696C31 SWAP2 ADD PUSH1 0x40 MLOAD DUP1 SWAP2 SUB SWAP1 LOG3 POP POP POP JUMP JUMPDEST PUSH2 0xE6C DUP5 DUP5 DUP5 PUSH2 0x9C8 JUMP JUMPDEST PUSH2 0xE78 DUP5 DUP5 DUP5 DUP5 PUSH2 0xF92 JUMP JUMPDEST PUSH2 0x775 JUMPI PUSH1 0x40 MLOAD PUSH3 0x461BCD PUSH1 0xE5 SHL DUP2 MSTORE PUSH1 0x4 ADD PUSH2 0x43A SWAP1 PUSH2 0x13F5 JUMP JUMPDEST PUSH1 0x60 DUP2 PUSH2 0xEB8 JUMPI POP POP PUSH1 0x40 DUP1 MLOAD DUP1 DUP3 ADD SWAP1 SWAP2 MSTORE PUSH1 0x1 DUP2 MSTORE PUSH1 0x3 PUSH1 0xFC SHL PUSH1 0x20 DUP3 ADD MSTORE SWAP1 JUMP JUMPDEST DUP2 PUSH1 0x0 JUMPDEST DUP2 ISZERO PUSH2 0xEE2 JUMPI DUP1 PUSH2 0xECC DUP2 PUSH2 0x1542 JUMP JUMPDEST SWAP2 POP PUSH2 0xEDB SWAP1 POP PUSH1 0xA DUP4 PUSH2 0x14B0 JUMP JUMPDEST SWAP2 POP PUSH2 0xEBC JUMP JUMPDEST PUSH1 0x0 DUP2 PUSH8 0xFFFFFFFFFFFFFFFF DUP2 GT ISZERO PUSH2 0xEFD JUMPI PUSH2 0xEFD PUSH2 0x15B3 JUMP JUMPDEST PUSH1 0x40 MLOAD SWAP1 DUP1 DUP3 MSTORE DUP1 PUSH1 0x1F ADD PUSH1 0x1F NOT AND PUSH1 0x20 ADD DUP3 ADD PUSH1 0x40 MSTORE DUP1 ISZERO PUSH2 0xF27 JUMPI PUSH1 0x20 DUP3 ADD DUP2 DUP1 CALLDATASIZE DUP4 CALLDATACOPY ADD SWAP1 POP JUMPDEST POP SWAP1 POP JUMPDEST DUP5 ISZERO PUSH2 0x9C0 JUMPI PUSH2 0xF3C PUSH1 0x1 DUP4 PUSH2 0x14C4 JUMP JUMPDEST SWAP2 POP PUSH2 0xF49 PUSH1 0xA DUP7 PUSH2 0x155D JUMP JUMPDEST PUSH2 0xF54 SWAP1 PUSH1 0x30 PUSH2 0x1498 JUMP JUMPDEST PUSH1 0xF8 SHL DUP2 DUP4 DUP2 MLOAD DUP2 LT PUSH2 0xF69 JUMPI PUSH2 0xF69 PUSH2 0x159D JUMP JUMPDEST PUSH1 0x20 ADD ADD SWAP1 PUSH1 0x1 PUSH1 0x1 PUSH1 0xF8 SHL SUB NOT AND SWAP1 DUP2 PUSH1 0x0 BYTE SWAP1 MSTORE8 POP PUSH2 0xF8B PUSH1 0xA DUP7 PUSH2 0x14B0 JUMP JUMPDEST SWAP5 POP PUSH2 0xF2B JUMP JUMPDEST PUSH1 0x0 PUSH1 0x1 PUSH1 0x1 PUSH1 0xA0 SHL SUB DUP5 AND EXTCODESIZE ISZERO PUSH2 0x1094 JUMPI PUSH1 0x40 MLOAD PUSH4 0xA85BD01 PUSH1 0xE1 SHL DUP2 MSTORE PUSH1 0x1 PUSH1 0x1 PUSH1 0xA0 SHL SUB DUP6 AND SWAP1 PUSH4 0x150B7A02 SWAP1 PUSH2 0xFD6 SWAP1 CALLER SWAP1 DUP10 SWAP1 DUP9 SWAP1 DUP9 SWAP1 PUSH1 0x4 ADD PUSH2 0x13A5 JUMP JUMPDEST PUSH1 0x20 PUSH1 0x40 MLOAD DUP1 DUP4 SUB DUP2 PUSH1 0x0 DUP8 DUP1 EXTCODESIZE ISZERO DUP1 ISZERO PUSH2 0xFF0 JUMPI PUSH1 0x0 DUP1 REVERT JUMPDEST POP GAS CALL SWAP3 POP POP POP DUP1 ISZERO PUSH2 0x1020 JUMPI POP PUSH1 0x40 DUP1 MLOAD PUSH1 0x1F RETURNDATASIZE SWAP1 DUP2 ADD PUSH1 0x1F NOT AND DUP3 ADD SWAP1 SWAP3 MSTORE PUSH2 0x101D SWAP2 DUP2 ADD SWAP1 PUSH2 0x1314 JUMP JUMPDEST PUSH1 0x1 JUMPDEST PUSH2 0x107A JUMPI RETURNDATASIZE DUP1 DUP1 ISZERO PUSH2 0x104E JUMPI PUSH1 0x40 MLOAD SWAP2 POP PUSH1 0x1F NOT PUSH1 0x3F RETURNDATASIZE ADD AND DUP3 ADD PUSH1 0x40 MSTORE RETURNDATASIZE DUP3 MSTORE RETURNDATASIZE PUSH1 0x0 PUSH1 0x20 DUP5 ADD RETURNDATACOPY PUSH2 0x1053 JUMP JUMPDEST PUSH1 0x60 SWAP2 POP JUMPDEST POP DUP1 MLOAD PUSH2 0x1072 JUMPI PUSH1 0x40 MLOAD PUSH3 0x461BCD PUSH1 0xE5 SHL DUP2 MSTORE PUSH1 0x4 ADD PUSH2 0x43A SWAP1 PUSH2 0x13F5 JUMP JUMPDEST DUP1 MLOAD DUP2 PUSH1 0x20 ADD REVERT JUMPDEST PUSH1 0x1 PUSH1 0x1 PUSH1 0xE0 SHL SUB NOT AND PUSH4 0xA85BD01 PUSH1 0xE1 SHL EQ SWAP1 POP PUSH2 0x9C0 JUMP JUMPDEST POP PUSH1 0x1 SWAP5 SWAP4 POP POP POP POP JUMP JUMPDEST DUP1 CALLDATALOAD PUSH1 0x1 PUSH1 0x1 PUSH1 0xA0 SHL SUB DUP2 AND DUP2 EQ PUSH2 0x10B6 JUMPI PUSH1 0x0 DUP1 REVERT JUMPDEST SWAP2 SWAP1 POP JUMP JUMPDEST PUSH1 0x0 DUP3 PUSH1 0x1F DUP4 ADD SLT PUSH2 0x10CC JUMPI PUSH1 0x0 DUP1 REVERT JUMPDEST DUP2 CALLDATALOAD PUSH8 0xFFFFFFFFFFFFFFFF DUP1 DUP3 GT ISZERO PUSH2 0x10E7 JUMPI PUSH2 0x10E7 PUSH2 0x15B3 JUMP JUMPDEST PUSH1 0x40 MLOAD PUSH1 0x1F DUP4 ADD PUSH1 0x1F NOT SWAP1 DUP2 AND PUSH1 0x3F ADD AND DUP2 ADD SWAP1 DUP3 DUP3 GT DUP2 DUP4 LT OR ISZERO PUSH2 0x110F JUMPI PUSH2 0x110F PUSH2 0x15B3 JUMP JUMPDEST DUP2 PUSH1 0x40 MSTORE DUP4 DUP2 MSTORE DUP7 PUSH1 0x20 DUP6 DUP9 ADD ADD GT ISZERO PUSH2 0x1128 JUMPI PUSH1 0x0 DUP1 REVERT JUMPDEST DUP4 PUSH1 0x20 DUP8 ADD PUSH1 0x20 DUP4 ADD CALLDATACOPY PUSH1 0x0 PUSH1 0x20 DUP6 DUP4 ADD ADD MSTORE DUP1 SWAP5 POP POP POP POP POP SWAP3 SWAP2 POP POP JUMP JUMPDEST PUSH1 0x0 PUSH1 0x20 DUP3 DUP5 SUB SLT ISZERO PUSH2 0x115A JUMPI PUSH1 0x0 DUP1 REVERT JUMPDEST PUSH2 0x85C DUP3 PUSH2 0x109F JUMP JUMPDEST PUSH1 0x0 DUP1 PUSH1 0x40 DUP4 DUP6 SUB SLT ISZERO PUSH2 0x1176 JUMPI PUSH1 0x0 DUP1 REVERT JUMPDEST PUSH2 0x117F DUP4 PUSH2 0x109F JUMP JUMPDEST SWAP2 POP PUSH2 0x118D PUSH1 0x20 DUP5 ADD PUSH2 0x109F JUMP JUMPDEST SWAP1 POP SWAP3 POP SWAP3 SWAP1 POP JUMP JUMPDEST PUSH1 0x0 DUP1 PUSH1 0x0 PUSH1 0x60 DUP5 DUP7 SUB SLT ISZERO PUSH2 0x11AB JUMPI PUSH1 0x0 DUP1 REVERT JUMPDEST PUSH2 0x11B4 DUP5 PUSH2 0x109F JUMP JUMPDEST SWAP3 POP PUSH2 0x11C2 PUSH1 0x20 DUP6 ADD PUSH2 0x109F JUMP JUMPDEST SWAP2 POP PUSH1 0x40 DUP5 ADD CALLDATALOAD SWAP1 POP SWAP3 POP SWAP3 POP SWAP3 JUMP JUMPDEST PUSH1 0x0 DUP1 PUSH1 0x0 DUP1 PUSH1 0x80 DUP6 DUP8 SUB SLT ISZERO PUSH2 0x11E8 JUMPI PUSH1 0x0 DUP1 REVERT JUMPDEST PUSH2 0x11F1 DUP6 PUSH2 0x109F JUMP JUMPDEST SWAP4 POP PUSH2 0x11FF PUSH1 0x20 DUP7 ADD PUSH2 0x109F JUMP JUMPDEST SWAP3 POP PUSH1 0x40 DUP6 ADD CALLDATALOAD SWAP2 POP PUSH1 0x60 DUP6 ADD CALLDATALOAD PUSH8 0xFFFFFFFFFFFFFFFF DUP2 GT ISZERO PUSH2 0x1222 JUMPI PUSH1 0x0 DUP1 REVERT JUMPDEST PUSH2 0x122E DUP8 DUP3 DUP9 ADD PUSH2 0x10BB JUMP JUMPDEST SWAP2 POP POP SWAP3 SWAP6 SWAP2 SWAP5 POP SWAP3 POP JUMP JUMPDEST PUSH1 0x0 DUP1 PUSH1 0x40 DUP4 DUP6 SUB SLT ISZERO PUSH2 0x124D JUMPI PUSH1 0x0 DUP1 REVERT JUMPDEST PUSH2 0x1256 DUP4 PUSH2 0x109F JUMP JUMPDEST SWAP2 POP PUSH1 0x20 DUP4 ADD CALLDATALOAD DUP1 ISZERO ISZERO DUP2 EQ PUSH2 0x126B JUMPI PUSH1 0x0 DUP1 REVERT JUMPDEST DUP1 SWAP2 POP POP SWAP3 POP SWAP3 SWAP1 POP JUMP JUMPDEST PUSH1 0x0 DUP1 PUSH1 0x40 DUP4 DUP6 SUB SLT ISZERO PUSH2 0x1289 JUMPI PUSH1 0x0 DUP1 REVERT JUMPDEST PUSH2 0x1292 DUP4 PUSH2 0x109F JUMP JUMPDEST SWAP5 PUSH1 0x20 SWAP4 SWAP1 SWAP4 ADD CALLDATALOAD SWAP4 POP POP POP JUMP JUMPDEST PUSH1 0x0 DUP1 PUSH1 0x0 PUSH1 0x60 DUP5 DUP7 SUB SLT ISZERO PUSH2 0x12B5 JUMPI PUSH1 0x0 DUP1 REVERT JUMPDEST PUSH2 0x12BE DUP5 PUSH2 0x109F JUMP JUMPDEST SWAP3 POP PUSH1 0x20 DUP5 ADD CALLDATALOAD SWAP2 POP PUSH1 0x40 DUP5 ADD CALLDATALOAD PUSH8 0xFFFFFFFFFFFFFFFF DUP2 GT ISZERO PUSH2 0x12E1 JUMPI PUSH1 0x0 DUP1 REVERT JUMPDEST PUSH2 0x12ED DUP7 DUP3 DUP8 ADD PUSH2 0x10BB JUMP JUMPDEST SWAP2 POP POP SWAP3 POP SWAP3 POP SWAP3 JUMP JUMPDEST PUSH1 0x0 PUSH1 0x20 DUP3 DUP5 SUB SLT ISZERO PUSH2 0x1309 JUMPI PUSH1 0x0 DUP1 REVERT JUMPDEST DUP2 CALLDATALOAD PUSH2 0x85C DUP2 PUSH2 0x15C9 JUMP JUMPDEST PUSH1 0x0 PUSH1 0x20 DUP3 DUP5 SUB SLT ISZERO PUSH2 0x1326 JUMPI PUSH1 0x0 DUP1 REVERT JUMPDEST DUP2 MLOAD PUSH2 0x85C DUP2 PUSH2 0x15C9 JUMP JUMPDEST PUSH1 0x0 PUSH1 0x20 DUP3 DUP5 SUB SLT ISZERO PUSH2 0x1343 JUMPI PUSH1 0x0 DUP1 REVERT JUMPDEST POP CALLDATALOAD SWAP2 SWAP1 POP JUMP JUMPDEST PUSH1 0x0 DUP2 MLOAD DUP1 DUP5 MSTORE PUSH2 0x1362 DUP2 PUSH1 0x20 DUP7 ADD PUSH1 0x20 DUP7 ADD PUSH2 0x14DB JUMP JUMPDEST PUSH1 0x1F ADD PUSH1 0x1F NOT AND SWAP3 SWAP1 SWAP3 ADD PUSH1 0x20 ADD SWAP3 SWAP2 POP POP JUMP JUMPDEST PUSH1 0x0 DUP4 MLOAD PUSH2 0x1388 DUP2 DUP5 PUSH1 0x20 DUP9 ADD PUSH2 0x14DB JUMP JUMPDEST DUP4 MLOAD SWAP1 DUP4 ADD SWAP1 PUSH2 0x139C DUP2 DUP4 PUSH1 0x20 DUP9 ADD PUSH2 0x14DB JUMP JUMPDEST ADD SWAP5 SWAP4 POP POP POP POP JUMP JUMPDEST PUSH1 0x1 PUSH1 0x1 PUSH1 0xA0 SHL SUB DUP6 DUP2 AND DUP3 MSTORE DUP5 AND PUSH1 0x20 DUP3 ADD MSTORE PUSH1 0x40 DUP2 ADD DUP4 SWAP1 MSTORE PUSH1 0x80 PUSH1 0x60 DUP3 ADD DUP2 SWAP1 MSTORE PUSH1 0x0 SWAP1 PUSH2 0x13D8 SWAP1 DUP4 ADD DUP5 PUSH2 0x134A JUMP JUMPDEST SWAP7 SWAP6 POP POP POP POP POP POP JUMP JUMPDEST PUSH1 0x20 DUP2 MSTORE PUSH1 0x0 PUSH2 0x85C PUSH1 0x20 DUP4 ADD DUP5 PUSH2 0x134A JUMP JUMPDEST PUSH1 0x20 DUP1 DUP3 MSTORE PUSH1 0x32 SWAP1 DUP3 ADD MSTORE PUSH32 0x4552433732313A207472616E7366657220746F206E6F6E204552433732315265 PUSH1 0x40 DUP3 ADD MSTORE PUSH18 0x31B2B4BB32B91034B6B83632B6B2B73A32B9 PUSH1 0x71 SHL PUSH1 0x60 DUP3 ADD MSTORE PUSH1 0x80 ADD SWAP1 JUMP JUMPDEST PUSH1 0x20 DUP1 DUP3 MSTORE PUSH1 0x31 SWAP1 DUP3 ADD MSTORE PUSH32 0x4552433732313A207472616E736665722063616C6C6572206973206E6F74206F PUSH1 0x40 DUP3 ADD MSTORE PUSH17 0x1DDB995C881B9BDC88185C1C1C9BDD9959 PUSH1 0x7A SHL PUSH1 0x60 DUP3 ADD MSTORE PUSH1 0x80 ADD SWAP1 JUMP JUMPDEST PUSH1 0x0 DUP3 NOT DUP3 GT ISZERO PUSH2 0x14AB JUMPI PUSH2 0x14AB PUSH2 0x1571 JUMP JUMPDEST POP ADD SWAP1 JUMP JUMPDEST PUSH1 0x0 DUP3 PUSH2 0x14BF JUMPI PUSH2 0x14BF PUSH2 0x1587 JUMP JUMPDEST POP DIV SWAP1 JUMP JUMPDEST PUSH1 0x0 DUP3 DUP3 LT ISZERO PUSH2 0x14D6 JUMPI PUSH2 0x14D6 PUSH2 0x1571 JUMP JUMPDEST POP SUB SWAP1 JUMP JUMPDEST PUSH1 0x0 JUMPDEST DUP4 DUP2 LT ISZERO PUSH2 0x14F6 JUMPI DUP2 DUP2 ADD MLOAD DUP4 DUP3 ADD MSTORE PUSH1 0x20 ADD PUSH2 0x14DE JUMP JUMPDEST DUP4 DUP2 GT ISZERO PUSH2 0x775 JUMPI POP POP PUSH1 0x0 SWAP2 ADD MSTORE JUMP JUMPDEST PUSH1 0x1 DUP2 DUP2 SHR SWAP1 DUP3 AND DUP1 PUSH2 0x151B JUMPI PUSH1 0x7F DUP3 AND SWAP2 POP JUMPDEST PUSH1 0x20 DUP3 LT DUP2 EQ ISZERO PUSH2 0x153C JUMPI PUSH4 0x4E487B71 PUSH1 0xE0 SHL PUSH1 0x0 MSTORE PUSH1 0x22 PUSH1 0x4 MSTORE PUSH1 0x24 PUSH1 0x0 REVERT JUMPDEST POP SWAP2 SWAP1 POP JUMP JUMPDEST PUSH1 0x0 PUSH1 0x0 NOT DUP3 EQ ISZERO PUSH2 0x1556 JUMPI PUSH2 0x1556 PUSH2 0x1571 JUMP JUMPDEST POP PUSH1 0x1 ADD SWAP1 JUMP JUMPDEST PUSH1 0x0 DUP3 PUSH2 0x156C JUMPI PUSH2 0x156C PUSH2 0x1587 JUMP JUMPDEST POP MOD SWAP1 JUMP JUMPDEST PUSH4 0x4E487B71 PUSH1 0xE0 SHL PUSH1 0x0 MSTORE PUSH1 0x11 PUSH1 0x4 MSTORE PUSH1 0x24 PUSH1 0x0 REVERT JUMPDEST PUSH4 0x4E487B71 PUSH1 0xE0 SHL PUSH1 0x0 MSTORE PUSH1 0x12 PUSH1 0x4 MSTORE PUSH1 0x24 PUSH1 0x0 REVERT JUMPDEST PUSH4 0x4E487B71 PUSH1 0xE0 SHL PUSH1 0x0 MSTORE PUSH1 0x32 PUSH1 0x4 MSTORE PUSH1 0x24 PUSH1 0x0 REVERT JUMPDEST PUSH4 0x4E487B71 PUSH1 0xE0 SHL PUSH1 0x0 MSTORE PUSH1 0x41 PUSH1 0x4 MSTORE PUSH1 0x24 PUSH1 0x0 REVERT JUMPDEST PUSH1 0x1 PUSH1 0x1 PUSH1 0xE0 SHL SUB NOT DUP2 AND DUP2 EQ PUSH2 0x5D8 JUMPI PUSH1 0x0 DUP1 REVERT INVALID LOG2 PUSH5 0x6970667358 0x22 SLT KECCAK256 JUMPI DUP5 0xDB DELEGATECALL ADD 0x29 MLOAD GAS SELFDESTRUCT PUSH13 0x9171819D993958952E302B14EA SWAP4 ADD EXTCODECOPY DUP10 0xA5 0x5C ADDMOD PUSH24 0x5C64736F6C63430008060033000000000000000000000000 ",
  "sha1": "db311cbe8cdfd2c03f41002c70cd044e84f8dc74",
  "source": "// SPDX-License-Identifier: MIT\n\npragma solidity ^0.8.0;\n\nimport \"../token/ERC721/ERC721.sol\";\n\n/**\n * @title ERC721Mock\n * This mock just provides a public safeMint, mint, and burn functions for testing purposes\n */\ncontract ERC721Mock is ERC721 {\n    constructor(string memory name, string memory symbol) ERC721(name, symbol) {}\n\n    function baseURI() public view returns (string memory) {\n        return _baseURI();\n    }\n\n    function exists(uint256 tokenId) public view returns (bool) {\n        return _exists(tokenId);\n    }\n\n    function mint(address to, uint256 tokenId) public {\n        _mint(to, tokenId);\n    }\n\n    function safeMint(address to, uint256 tokenId) public {\n        _safeMint(to, tokenId);\n    }\n\n    function safeMint(\n        address to,\n        uint256 tokenId,\n        bytes memory _data\n    ) public {\n        _safeMint(to, tokenId, _data);\n    }\n\n    function burn(uint256 tokenId) public {\n        _burn(tokenId);\n    }\n}\n",
  "sourcePath": "contracts/OpenZepellin/contracts/mocks/ERC721Mock.sol",
  "type": "contract"
}