{
  "abi": [
    {
      "inputs": [
        {
          "internalType": "string",
          "name": "name_",
          "type": "string"
        },
        {
          "internalType": "contract ERC20VotesComp",
          "name": "token_",
          "type": "address"
        },
        {
          "internalType": "uint256",
          "name": "votingDelay_",
          "type": "uint256"
        },
        {
          "internalType": "uint256",
          "name": "votingPeriod_",
          "type": "uint256"
        },
        {
          "internalType": "uint256",
          "name": "proposalThreshold_",
          "type": "uint256"
        },
        {
          "internalType": "contract ICompoundTimelock",
          "name": "timelock_",
          "type": "address"
        }
      ],
      "stateMutability": "nonpayable",
      "type": "constructor"
    },
    {
      "anonymous": false,
      "inputs": [
        {
          "indexed": false,
          "internalType": "uint256",
          "name": "proposalId",
          "type": "uint256"
        }
      ],
      "name": "ProposalCanceled",
      "type": "event"
    },
    {
      "anonymous": false,
      "inputs": [
        {
          "indexed": false,
          "internalType": "uint256",
          "name": "proposalId",
          "type": "uint256"
        },
        {
          "indexed": false,
          "internalType": "address",
          "name": "proposer",
          "type": "address"
        },
        {
          "indexed": false,
          "internalType": "address[]",
          "name": "targets",
          "type": "address[]"
        },
        {
          "indexed": false,
          "internalType": "uint256[]",
          "name": "values",
          "type": "uint256[]"
        },
        {
          "indexed": false,
          "internalType": "string[]",
          "name": "signatures",
          "type": "string[]"
        },
        {
          "indexed": false,
          "internalType": "bytes[]",
          "name": "calldatas",
          "type": "bytes[]"
        },
        {
          "indexed": false,
          "internalType": "uint256",
          "name": "startBlock",
          "type": "uint256"
        },
        {
          "indexed": false,
          "internalType": "uint256",
          "name": "endBlock",
          "type": "uint256"
        },
        {
          "indexed": false,
          "internalType": "string",
          "name": "description",
          "type": "string"
        }
      ],
      "name": "ProposalCreated",
      "type": "event"
    },
    {
      "anonymous": false,
      "inputs": [
        {
          "indexed": false,
          "internalType": "uint256",
          "name": "proposalId",
          "type": "uint256"
        }
      ],
      "name": "ProposalExecuted",
      "type": "event"
    },
    {
      "anonymous": false,
      "inputs": [
        {
          "indexed": false,
          "internalType": "uint256",
          "name": "proposalId",
          "type": "uint256"
        },
        {
          "indexed": false,
          "internalType": "uint256",
          "name": "eta",
          "type": "uint256"
        }
      ],
      "name": "ProposalQueued",
      "type": "event"
    },
    {
      "anonymous": false,
      "inputs": [
        {
          "indexed": false,
          "internalType": "uint256",
          "name": "oldProposalThreshold",
          "type": "uint256"
        },
        {
          "indexed": false,
          "internalType": "uint256",
          "name": "newProposalThreshold",
          "type": "uint256"
        }
      ],
      "name": "ProposalThresholdSet",
      "type": "event"
    },
    {
      "anonymous": false,
      "inputs": [
        {
          "indexed": false,
          "internalType": "address",
          "name": "oldTimelock",
          "type": "address"
        },
        {
          "indexed": false,
          "internalType": "address",
          "name": "newTimelock",
          "type": "address"
        }
      ],
      "name": "TimelockChange",
      "type": "event"
    },
    {
      "anonymous": false,
      "inputs": [
        {
          "indexed": true,
          "internalType": "address",
          "name": "voter",
          "type": "address"
        },
        {
          "indexed": false,
          "internalType": "uint256",
          "name": "proposalId",
          "type": "uint256"
        },
        {
          "indexed": false,
          "internalType": "uint8",
          "name": "support",
          "type": "uint8"
        },
        {
          "indexed": false,
          "internalType": "uint256",
          "name": "weight",
          "type": "uint256"
        },
        {
          "indexed": false,
          "internalType": "string",
          "name": "reason",
          "type": "string"
        }
      ],
      "name": "VoteCast",
      "type": "event"
    },
    {
      "anonymous": false,
      "inputs": [
        {
          "indexed": false,
          "internalType": "uint256",
          "name": "oldVotingDelay",
          "type": "uint256"
        },
        {
          "indexed": false,
          "internalType": "uint256",
          "name": "newVotingDelay",
          "type": "uint256"
        }
      ],
      "name": "VotingDelaySet",
      "type": "event"
    },
    {
      "anonymous": false,
      "inputs": [
        {
          "indexed": false,
          "internalType": "uint256",
          "name": "oldVotingPeriod",
          "type": "uint256"
        },
        {
          "indexed": false,
          "internalType": "uint256",
          "name": "newVotingPeriod",
          "type": "uint256"
        }
      ],
      "name": "VotingPeriodSet",
      "type": "event"
    },
    {
      "inputs": [],
      "name": "BALLOT_TYPEHASH",
      "outputs": [
        {
          "internalType": "bytes32",
          "name": "",
          "type": "bytes32"
        }
      ],
      "stateMutability": "view",
      "type": "function"
    },
    {
      "inputs": [],
      "name": "COUNTING_MODE",
      "outputs": [
        {
          "internalType": "string",
          "name": "",
          "type": "string"
        }
      ],
      "stateMutability": "pure",
      "type": "function"
    },
    {
      "inputs": [],
      "name": "__acceptAdmin",
      "outputs": [],
      "stateMutability": "nonpayable",
      "type": "function"
    },
    {
      "inputs": [
        {
          "internalType": "uint256",
          "name": "proposalId",
          "type": "uint256"
        }
      ],
      "name": "cancel",
      "outputs": [],
      "stateMutability": "nonpayable",
      "type": "function"
    },
    {
      "inputs": [
        {
          "internalType": "address[]",
          "name": "targets",
          "type": "address[]"
        },
        {
          "internalType": "uint256[]",
          "name": "values",
          "type": "uint256[]"
        },
        {
          "internalType": "bytes[]",
          "name": "calldatas",
          "type": "bytes[]"
        },
        {
          "internalType": "bytes32",
          "name": "salt",
          "type": "bytes32"
        }
      ],
      "name": "cancel",
      "outputs": [
        {
          "internalType": "uint256",
          "name": "proposalId",
          "type": "uint256"
        }
      ],
      "stateMutability": "nonpayable",
      "type": "function"
    },
    {
      "inputs": [
        {
          "internalType": "uint256",
          "name": "proposalId",
          "type": "uint256"
        },
        {
          "internalType": "uint8",
          "name": "support",
          "type": "uint8"
        }
      ],
      "name": "castVote",
      "outputs": [
        {
          "internalType": "uint256",
          "name": "",
          "type": "uint256"
        }
      ],
      "stateMutability": "nonpayable",
      "type": "function"
    },
    {
      "inputs": [
        {
          "internalType": "uint256",
          "name": "proposalId",
          "type": "uint256"
        },
        {
          "internalType": "uint8",
          "name": "support",
          "type": "uint8"
        },
        {
          "internalType": "uint8",
          "name": "v",
          "type": "uint8"
        },
        {
          "internalType": "bytes32",
          "name": "r",
          "type": "bytes32"
        },
        {
          "internalType": "bytes32",
          "name": "s",
          "type": "bytes32"
        }
      ],
      "name": "castVoteBySig",
      "outputs": [
        {
          "internalType": "uint256",
          "name": "",
          "type": "uint256"
        }
      ],
      "stateMutability": "nonpayable",
      "type": "function"
    },
    {
      "inputs": [
        {
          "internalType": "uint256",
          "name": "proposalId",
          "type": "uint256"
        },
        {
          "internalType": "uint8",
          "name": "support",
          "type": "uint8"
        },
        {
          "internalType": "string",
          "name": "reason",
          "type": "string"
        }
      ],
      "name": "castVoteWithReason",
      "outputs": [
        {
          "internalType": "uint256",
          "name": "",
          "type": "uint256"
        }
      ],
      "stateMutability": "nonpayable",
      "type": "function"
    },
    {
      "inputs": [
        {
          "internalType": "address[]",
          "name": "targets",
          "type": "address[]"
        },
        {
          "internalType": "uint256[]",
          "name": "values",
          "type": "uint256[]"
        },
        {
          "internalType": "bytes[]",
          "name": "calldatas",
          "type": "bytes[]"
        },
        {
          "internalType": "bytes32",
          "name": "salt",
          "type": "bytes32"
        }
      ],
      "name": "execute",
      "outputs": [
        {
          "internalType": "uint256",
          "name": "",
          "type": "uint256"
        }
      ],
      "stateMutability": "payable",
      "type": "function"
    },
    {
      "inputs": [
        {
          "internalType": "uint256",
          "name": "proposalId",
          "type": "uint256"
        }
      ],
      "name": "execute",
      "outputs": [],
      "stateMutability": "payable",
      "type": "function"
    },
    {
      "inputs": [
        {
          "internalType": "uint256",
          "name": "proposalId",
          "type": "uint256"
        }
      ],
      "name": "getActions",
      "outputs": [
        {
          "internalType": "address[]",
          "name": "targets",
          "type": "address[]"
        },
        {
          "internalType": "uint256[]",
          "name": "values",
          "type": "uint256[]"
        },
        {
          "internalType": "string[]",
          "name": "signatures",
          "type": "string[]"
        },
        {
          "internalType": "bytes[]",
          "name": "calldatas",
          "type": "bytes[]"
        }
      ],
      "stateMutability": "view",
      "type": "function"
    },
    {
      "inputs": [
        {
          "internalType": "uint256",
          "name": "proposalId",
          "type": "uint256"
        },
        {
          "internalType": "address",
          "name": "voter",
          "type": "address"
        }
      ],
      "name": "getReceipt",
      "outputs": [
        {
          "components": [
            {
              "internalType": "bool",
              "name": "hasVoted",
              "type": "bool"
            },
            {
              "internalType": "uint8",
              "name": "support",
              "type": "uint8"
            },
            {
              "internalType": "uint96",
              "name": "votes",
              "type": "uint96"
            }
          ],
          "internalType": "struct IGovernorCompatibilityBravo.Receipt",
          "name": "",
          "type": "tuple"
        }
      ],
      "stateMutability": "view",
      "type": "function"
    },
    {
      "inputs": [
        {
          "internalType": "address",
          "name": "account",
          "type": "address"
        },
        {
          "internalType": "uint256",
          "name": "blockNumber",
          "type": "uint256"
        }
      ],
      "name": "getVotes",
      "outputs": [
        {
          "internalType": "uint256",
          "name": "",
          "type": "uint256"
        }
      ],
      "stateMutability": "view",
      "type": "function"
    },
    {
      "inputs": [
        {
          "internalType": "uint256",
          "name": "proposalId",
          "type": "uint256"
        },
        {
          "internalType": "address",
          "name": "account",
          "type": "address"
        }
      ],
      "name": "hasVoted",
      "outputs": [
        {
          "internalType": "bool",
          "name": "",
          "type": "bool"
        }
      ],
      "stateMutability": "view",
      "type": "function"
    },
    {
      "inputs": [
        {
          "internalType": "address[]",
          "name": "targets",
          "type": "address[]"
        },
        {
          "internalType": "uint256[]",
          "name": "values",
          "type": "uint256[]"
        },
        {
          "internalType": "bytes[]",
          "name": "calldatas",
          "type": "bytes[]"
        },
        {
          "internalType": "bytes32",
          "name": "descriptionHash",
          "type": "bytes32"
        }
      ],
      "name": "hashProposal",
      "outputs": [
        {
          "internalType": "uint256",
          "name": "",
          "type": "uint256"
        }
      ],
      "stateMutability": "pure",
      "type": "function"
    },
    {
      "inputs": [],
      "name": "name",
      "outputs": [
        {
          "internalType": "string",
          "name": "",
          "type": "string"
        }
      ],
      "stateMutability": "view",
      "type": "function"
    },
    {
      "inputs": [
        {
          "internalType": "uint256",
          "name": "proposalId",
          "type": "uint256"
        }
      ],
      "name": "proposalDeadline",
      "outputs": [
        {
          "internalType": "uint256",
          "name": "",
          "type": "uint256"
        }
      ],
      "stateMutability": "view",
      "type": "function"
    },
    {
      "inputs": [
        {
          "internalType": "uint256",
          "name": "proposalId",
          "type": "uint256"
        }
      ],
      "name": "proposalEta",
      "outputs": [
        {
          "internalType": "uint256",
          "name": "",
          "type": "uint256"
        }
      ],
      "stateMutability": "view",
      "type": "function"
    },
    {
      "inputs": [
        {
          "internalType": "uint256",
          "name": "proposalId",
          "type": "uint256"
        }
      ],
      "name": "proposalSnapshot",
      "outputs": [
        {
          "internalType": "uint256",
          "name": "",
          "type": "uint256"
        }
      ],
      "stateMutability": "view",
      "type": "function"
    },
    {
      "inputs": [],
      "name": "proposalThreshold",
      "outputs": [
        {
          "internalType": "uint256",
          "name": "",
          "type": "uint256"
        }
      ],
      "stateMutability": "view",
      "type": "function"
    },
    {
      "inputs": [
        {
          "internalType": "uint256",
          "name": "proposalId",
          "type": "uint256"
        }
      ],
      "name": "proposals",
      "outputs": [
        {
          "internalType": "uint256",
          "name": "id",
          "type": "uint256"
        },
        {
          "internalType": "address",
          "name": "proposer",
          "type": "address"
        },
        {
          "internalType": "uint256",
          "name": "eta",
          "type": "uint256"
        },
        {
          "internalType": "uint256",
          "name": "startBlock",
          "type": "uint256"
        },
        {
          "internalType": "uint256",
          "name": "endBlock",
          "type": "uint256"
        },
        {
          "internalType": "uint256",
          "name": "forVotes",
          "type": "uint256"
        },
        {
          "internalType": "uint256",
          "name": "againstVotes",
          "type": "uint256"
        },
        {
          "internalType": "uint256",
          "name": "abstainVotes",
          "type": "uint256"
        },
        {
          "internalType": "bool",
          "name": "canceled",
          "type": "bool"
        },
        {
          "internalType": "bool",
          "name": "executed",
          "type": "bool"
        }
      ],
      "stateMutability": "view",
      "type": "function"
    },
    {
      "inputs": [
        {
          "internalType": "address[]",
          "name": "targets",
          "type": "address[]"
        },
        {
          "internalType": "uint256[]",
          "name": "values",
          "type": "uint256[]"
        },
        {
          "internalType": "bytes[]",
          "name": "calldatas",
          "type": "bytes[]"
        },
        {
          "internalType": "string",
          "name": "description",
          "type": "string"
        }
      ],
      "name": "propose",
      "outputs": [
        {
          "internalType": "uint256",
          "name": "",
          "type": "uint256"
        }
      ],
      "stateMutability": "nonpayable",
      "type": "function"
    },
    {
      "inputs": [
        {
          "internalType": "address[]",
          "name": "targets",
          "type": "address[]"
        },
        {
          "internalType": "uint256[]",
          "name": "values",
          "type": "uint256[]"
        },
        {
          "internalType": "string[]",
          "name": "signatures",
          "type": "string[]"
        },
        {
          "internalType": "bytes[]",
          "name": "calldatas",
          "type": "bytes[]"
        },
        {
          "internalType": "string",
          "name": "description",
          "type": "string"
        }
      ],
      "name": "propose",
      "outputs": [
        {
          "internalType": "uint256",
          "name": "",
          "type": "uint256"
        }
      ],
      "stateMutability": "nonpayable",
      "type": "function"
    },
    {
      "inputs": [
        {
          "internalType": "address[]",
          "name": "targets",
          "type": "address[]"
        },
        {
          "internalType": "uint256[]",
          "name": "values",
          "type": "uint256[]"
        },
        {
          "internalType": "bytes[]",
          "name": "calldatas",
          "type": "bytes[]"
        },
        {
          "internalType": "bytes32",
          "name": "salt",
          "type": "bytes32"
        }
      ],
      "name": "queue",
      "outputs": [
        {
          "internalType": "uint256",
          "name": "",
          "type": "uint256"
        }
      ],
      "stateMutability": "nonpayable",
      "type": "function"
    },
    {
      "inputs": [
        {
          "internalType": "uint256",
          "name": "proposalId",
          "type": "uint256"
        }
      ],
      "name": "queue",
      "outputs": [],
      "stateMutability": "nonpayable",
      "type": "function"
    },
    {
      "inputs": [
        {
          "internalType": "uint256",
          "name": "",
          "type": "uint256"
        }
      ],
      "name": "quorum",
      "outputs": [
        {
          "internalType": "uint256",
          "name": "",
          "type": "uint256"
        }
      ],
      "stateMutability": "pure",
      "type": "function"
    },
    {
      "inputs": [],
      "name": "quorumVotes",
      "outputs": [
        {
          "internalType": "uint256",
          "name": "",
          "type": "uint256"
        }
      ],
      "stateMutability": "view",
      "type": "function"
    },
    {
      "inputs": [
        {
          "internalType": "address",
          "name": "target",
          "type": "address"
        },
        {
          "internalType": "uint256",
          "name": "value",
          "type": "uint256"
        },
        {
          "internalType": "bytes",
          "name": "data",
          "type": "bytes"
        }
      ],
      "name": "relay",
      "outputs": [],
      "stateMutability": "nonpayable",
      "type": "function"
    },
    {
      "inputs": [
        {
          "internalType": "uint256",
          "name": "newProposalThreshold",
          "type": "uint256"
        }
      ],
      "name": "setProposalThreshold",
      "outputs": [],
      "stateMutability": "nonpayable",
      "type": "function"
    },
    {
      "inputs": [
        {
          "internalType": "uint256",
          "name": "newVotingDelay",
          "type": "uint256"
        }
      ],
      "name": "setVotingDelay",
      "outputs": [],
      "stateMutability": "nonpayable",
      "type": "function"
    },
    {
      "inputs": [
        {
          "internalType": "uint256",
          "name": "newVotingPeriod",
          "type": "uint256"
        }
      ],
      "name": "setVotingPeriod",
      "outputs": [],
      "stateMutability": "nonpayable",
      "type": "function"
    },
    {
      "inputs": [
        {
          "internalType": "uint256",
          "name": "proposalId",
          "type": "uint256"
        }
      ],
      "name": "state",
      "outputs": [
        {
          "internalType": "enum IGovernor.ProposalState",
          "name": "",
          "type": "uint8"
        }
      ],
      "stateMutability": "view",
      "type": "function"
    },
    {
      "inputs": [
        {
          "internalType": "bytes4",
          "name": "interfaceId",
          "type": "bytes4"
        }
      ],
      "name": "supportsInterface",
      "outputs": [
        {
          "internalType": "bool",
          "name": "",
          "type": "bool"
        }
      ],
      "stateMutability": "view",
      "type": "function"
    },
    {
      "inputs": [],
      "name": "timelock",
      "outputs": [
        {
          "internalType": "address",
          "name": "",
          "type": "address"
        }
      ],
      "stateMutability": "view",
      "type": "function"
    },
    {
      "inputs": [],
      "name": "token",
      "outputs": [
        {
          "internalType": "contract ERC20VotesComp",
          "name": "",
          "type": "address"
        }
      ],
      "stateMutability": "view",
      "type": "function"
    },
    {
      "inputs": [
        {
          "internalType": "contract ICompoundTimelock",
          "name": "newTimelock",
          "type": "address"
        }
      ],
      "name": "updateTimelock",
      "outputs": [],
      "stateMutability": "nonpayable",
      "type": "function"
    },
    {
      "inputs": [],
      "name": "version",
      "outputs": [
        {
          "internalType": "string",
          "name": "",
          "type": "string"
        }
      ],
      "stateMutability": "view",
      "type": "function"
    },
    {
      "inputs": [],
      "name": "votingDelay",
      "outputs": [
        {
          "internalType": "uint256",
          "name": "",
          "type": "uint256"
        }
      ],
      "stateMutability": "view",
      "type": "function"
    },
    {
      "inputs": [],
      "name": "votingPeriod",
      "outputs": [
        {
          "internalType": "uint256",
          "name": "",
          "type": "uint256"
        }
      ],
      "stateMutability": "view",
      "type": "function"
    },
    {
      "stateMutability": "payable",
      "type": "receive"
    }
  ],
  "bytecode": "6101606040523480156200001257600080fd5b5060405162004aef38038062004aef8339810160408190526200003591620003af565b84818585858a806200005b6040805180820190915260018152603160f81b602082015290565b815160208084019190912082518383012060e08290526101008190524660a0818152604080517f8b73c3c69bb8fe3d512ecc4cf759cc79239f7b179b0ffacaa9a75d522b39400f81880181905281830187905260608201869052608082019490945230818401528151808203909301835260c00190528051940193909320919290916080523060601b60c0526101205250508251620001049250600091506020840190620002ec565b50620001129050836200015b565b6200011d826200019c565b620001288162000242565b5050506200013c816200028360201b60201c565b5060601b6001600160601b031916610140525062000521945050505050565b60035460408051918252602082018390527fc565b045403dc03c2eea82b81a0465edad9e2e7fc4d97e11421c209da93d7a93910160405180910390a1600355565b60008111620002015760405162461bcd60e51b815260206004820152602760248201527f476f7665726e6f7253657474696e67733a20766f74696e6720706572696f6420604482015266746f6f206c6f7760c81b606482015260840160405180910390fd5b60045460408051918252602082018390527f7e3f7f0708a84de9203036abaa450dccc85ad5ff52f78c170f3edb55cf5e8828910160405180910390a1600455565b60055460408051918252602082018390527fccb45da8d5717e6c4544694297c4ba5cf151d455c9bb0ed4fc7a38411bc05461910160405180910390a1600555565b600654604080516001600160a01b03928316815291831660208301527f08f74ea46ef7894f65eabfb5e6e695de773a000b47c529ab559178069b226401910160405180910390a1600680546001600160a01b0319166001600160a01b0392909216919091179055565b828054620002fa90620004ce565b90600052602060002090601f0160209004810192826200031e576000855562000369565b82601f106200033957805160ff191683800117855562000369565b8280016001018555821562000369579182015b82811115620003695782518255916020019190600101906200034c565b50620003779291506200037b565b5090565b5b808211156200037757600081556001016200037c565b80516001600160a01b0381168114620003aa57600080fd5b919050565b60008060008060008060c08789031215620003c957600080fd5b86516001600160401b0380821115620003e157600080fd5b818901915089601f830112620003f657600080fd5b8151818111156200040b576200040b6200050b565b604051601f8201601f19908116603f011681019083821181831017156200043657620004366200050b565b81604052828152602093508c848487010111156200045357600080fd5b600091505b8282101562000477578482018401518183018501529083019062000458565b82821115620004895760008484830101525b99506200049b91505089820162000392565b96505050604087015193506060870151925060808701519150620004c260a0880162000392565b90509295509295509295565b600181811c90821680620004e357607f821691505b602082108114156200050557634e487b7160e01b600052602260045260246000fd5b50919050565b634e487b7160e01b600052604160045260246000fd5b60805160a05160c05160601c60e05161010051610120516101405160601c614566620005896000396000818161088901526124570152600061267a015260006126c9015260006126a4015260006125fd015260006126270152600061265101526145666000f3fe6080604052600436106102345760003560e01c80637d5e81e21161012e578063dd4e2ba5116100ab578063eb9019d41161006f578063eb9019d414610816578063ece40cc114610836578063f8ce560a14610856578063fc0c546a14610877578063fe0d94c1146108ab57600080fd5b8063dd4e2ba514610692578063ddf0b009146106d8578063deaaa7cc146106f8578063e23a9a521461072c578063ea0217cf146107f657600080fd5b8063c01f9e37116100f2578063c01f9e37146105e0578063c28bc2fa14610600578063c59057e414610620578063d33219b414610640578063da95691a1461067257600080fd5b80637d5e81e214610556578063a890c91014610576578063ab58fb8e14610596578063b58131b0146105b6578063b9a61961146105cb57600080fd5b80633932abb1116101bc578063452115d611610180578063452115d6146104ac57806354fd4d50146104cc57806356781388146104f657806370b0f660146105165780637b3c71d31461053657600080fd5b80633932abb1146103e05780633bccf4fd146103f55780633e4f49e61461041557806340e58ee514610442578063438596321461046257600080fd5b8063160cbed711610203578063160cbed71461034857806324bc1a64146103685780632656227d1461037d5780632d63f69314610390578063328dd982146103b057600080fd5b8063013cf08b1461025c57806301ffc9a7146102d757806302a251a31461030757806306fdde031461032657600080fd5b3661025757306102426108be565b6001600160a01b03161461025557600080fd5b005b600080fd5b34801561026857600080fd5b5061027c610277366004613e69565b6108d7565b604080519a8b526001600160a01b0390991660208b0152978901969096526060880194909452608087019290925260a086015260c085015260e084015215156101008301521515610120820152610140015b60405180910390f35b3480156102e357600080fd5b506102f76102f2366004613db5565b610980565b60405190151581526020016102ce565b34801561031357600080fd5b506004545b6040519081526020016102ce565b34801561033257600080fd5b5061033b610991565b6040516102ce9190614185565b34801561035457600080fd5b50610318610363366004613b6e565b610a23565b34801561037457600080fd5b50610318610a3a565b61031861038b366004613b6e565b610a4a565b34801561039c57600080fd5b506103186103ab366004613e69565b610a58565b3480156103bc57600080fd5b506103d06103cb366004613e69565b610a8f565b6040516102ce9493929190614138565b3480156103ec57600080fd5b50600354610318565b34801561040157600080fd5b50610318610410366004613f1f565b610d20565b34801561042157600080fd5b50610435610430366004613e69565b610db4565b6040516102ce9190614198565b34801561044e57600080fd5b5061025561045d366004613e69565b610dbf565b34801561046e57600080fd5b506102f761047d366004613e82565b60008281526002602090815260408083206001600160a01b038516845260080190915290205460ff1692915050565b3480156104b857600080fd5b506103186104c7366004613b6e565b6110dc565b3480156104d857600080fd5b506040805180820190915260018152603160f81b602082015261033b565b34801561050257600080fd5b50610318610511366004613eb2565b6110ea565b34801561052257600080fd5b50610255610531366004613e69565b611113565b34801561054257600080fd5b50610318610551366004613ede565b611157565b34801561056257600080fd5b50610318610571366004613bfd565b6111a9565b34801561058257600080fd5b50610255610591366004613e4c565b6111b7565b3480156105a257600080fd5b506103186105b1366004613e69565b6111f8565b3480156105c257600080fd5b50610318611203565b3480156105d757600080fd5b5061025561120e565b3480156105ec57600080fd5b506103186105fb366004613e69565b611278565b34801561060c57600080fd5b5061025561061b366004613b13565b6112a7565b34801561062c57600080fd5b5061031861063b366004613b6e565b611328565b34801561064c57600080fd5b506006546001600160a01b03165b6040516001600160a01b0390911681526020016102ce565b34801561067e57600080fd5b5061031861068d366004613ca9565b611362565b34801561069e57600080fd5b5060408051808201909152601a81527f737570706f72743d627261766f2671756f72756d3d627261766f000000000000602082015261033b565b3480156106e457600080fd5b506102556106f3366004613e69565b611387565b34801561070457600080fd5b506103187f150214d74d59b7d1e90c73fc22ef3d991dd0a76b046543d4d80ab92d2a50328f81565b34801561073857600080fd5b506107c6610747366004613e82565b60408051606081018252600080825260208201819052918101919091525060009182526002602090815260408084206001600160a01b0393909316845260089092018152918190208151606081018352905460ff8082161515835261010082041693820193909352620100009092046001600160601b03169082015290565b6040805182511515815260208084015160ff1690820152918101516001600160601b0316908201526060016102ce565b34801561080257600080fd5b50610255610811366004613e69565b6115f5565b34801561082257600080fd5b50610318610831366004613ae7565b611636565b34801561084257600080fd5b50610255610851366004613e69565b611649565b34801561086257600080fd5b50610318610871366004613e69565b50600090565b34801561088357600080fd5b5061065a7f000000000000000000000000000000000000000000000000000000000000000081565b6102556108b9366004613e69565b61168a565b60006108d26006546001600160a01b031690565b905090565b80600080808080808080806108eb8a6111f8565b97506108f68b610a58565b96506109018b611278565b60008c815260026020526040812080546005820154600683015460078401546001600160a01b039093169e50949a5098509296509194506109418d610db4565b90506002816007811115610957576109576144b0565b149350600781600781111561096e5761096e6144b0565b14925050509193959799509193959799565b600061098b826118f8565b92915050565b6060600080546109a090614444565b80601f01602080910402602001604051908101604052809291908181526020018280546109cc90614444565b8015610a195780601f106109ee57610100808354040283529160200191610a19565b820191906000526020600020905b8154815290600101906020018083116109fc57829003601f168201915b5050505050905090565b6000610a318585858561191d565b95945050505050565b60006108d2610871600143614401565b6000610a3185858585611cc4565b60008181526001602090815260408083208151928301909152546001600160401b0316908190525b6001600160401b031692915050565b60608060608060006002600087815260200190815260200160002090508060010181600201826003018360040183805480602002602001604051908101604052809291908181526020018280548015610b1157602002820191906000526020600020905b81546001600160a01b03168152600190910190602001808311610af3575b5050505050935082805480602002602001604051908101604052809291908181526020018280548015610b6357602002820191906000526020600020905b815481526020019060010190808311610b4f575b5050505050925081805480602002602001604051908101604052809291908181526020016000905b82821015610c37578382906000526020600020018054610baa90614444565b80601f0160208091040260200160405190810160405280929190818152602001828054610bd690614444565b8015610c235780601f10610bf857610100808354040283529160200191610c23565b820191906000526020600020905b815481529060010190602001808311610c0657829003601f168201915b505050505081526020019060010190610b8b565b50505050915080805480602002602001604051908101604052809291908181526020016000905b82821015610d0a578382906000526020600020018054610c7d90614444565b80601f0160208091040260200160405190810160405280929190818152602001828054610ca990614444565b8015610cf65780601f10610ccb57610100808354040283529160200191610cf6565b820191906000526020600020905b815481529060010190602001808311610cd957829003601f168201915b505050505081526020019060010190610c5e565b5050505090509450945094509450509193509193565b604080517f150214d74d59b7d1e90c73fc22ef3d991dd0a76b046543d4d80ab92d2a50328f602082015290810186905260ff851660608201526000908190610d8c90610d849060800160405160208183030381529060405280519060200120611d97565b868686611de5565b9050610da987828860405180602001604052806000815250611e03565b979650505050505050565b600061098b82611f0e565b600081815260026020526040902080546001600160a01b0316336001600160a01b03161480610e0d5750610df1611203565b8154610e0b906001600160a01b0316610831600143614401565b105b610e6e5760405162461bcd60e51b815260206004820152602760248201527f476f7665726e6f72427261766f3a2070726f706f7365722061626f76652074686044820152661c995cda1bdb1960ca1b60648201526084015b60405180910390fd5b6110d781600101805480602002602001604051908101604052809291908181526020018280548015610ec957602002820191906000526020600020905b81546001600160a01b03168152600190910190602001808311610eab575b505050505082600201805480602002602001604051908101604052809291908181526020018280548015610f1c57602002820191906000526020600020905b815481526020019060010190808311610f08575b50505050506110cd84600301805480602002602001604051908101604052809291908181526020016000905b82821015610ff4578382906000526020600020018054610f6790614444565b80601f0160208091040260200160405190810160405280929190818152602001828054610f9390614444565b8015610fe05780601f10610fb557610100808354040283529160200191610fe0565b820191906000526020600020905b815481529060010190602001808311610fc357829003601f168201915b505050505081526020019060010190610f48565b50505060048701805460408051602080840282018101909252828152935060009084015b828210156110c457838290600052602060002001805461103790614444565b80601f016020809104026020016040519081016040528092919081815260200182805461106390614444565b80156110b05780601f10611085576101008083540402835291602001916110b0565b820191906000526020600020905b81548152906001019060200180831161109357829003601f168201915b505050505081526020019060010190611018565b50505050611ffe565b846009015461215e565b505050565b6000610a318585858561215e565b60008033905061110b84828560405180602001604052806000815250611e03565b949350505050565b61111b6108be565b6001600160a01b0316336001600160a01b03161461114b5760405162461bcd60e51b8152600401610e65906141c0565b6111548161216c565b50565b60008033905061119f86828787878080601f016020809104026020016040519081016040528093929190818152602001838380828437600092019190915250611e0392505050565b9695505050505050565b6000610a31858585856121ad565b6111bf6108be565b6001600160a01b0316336001600160a01b0316146111ef5760405162461bcd60e51b8152600401610e65906141c0565b61115481612215565b600061098b8261227e565b60006108d260055490565b600660009054906101000a90046001600160a01b03166001600160a01b0316630e18b6816040518163ffffffff1660e01b8152600401600060405180830381600087803b15801561125e57600080fd5b505af1158015611272573d6000803e3d6000fd5b50505050565b60008181526001602081815260408084208151928301909152909101546001600160401b031690819052610a80565b6112af6108be565b6001600160a01b0316336001600160a01b0316146112df5760405162461bcd60e51b8152600401610e65906141c0565b6113218483838080601f0160208091040260200160405190810160405280939291908181526020018383808284376000920191909152508892506122aa915050565b5050505050565b60008484848460405160200161134194939291906140ed565b60408051601f19818403018152919052805160209091012095945050505050565b60006113723387878787876122d0565b61119f86866113818787611ffe565b856111a9565b60008181526002602090815260409182902060018101805484518185028101850190955280855291936110d7939092908301828280156113f057602002820191906000526020600020905b81546001600160a01b031681526001909101906020018083116113d2575b50505050508260020180548060200260200160405190810160405280929190818152602001828054801561144357602002820191906000526020600020905b81548152602001906001019080831161142f575b50505050506115eb84600301805480602002602001604051908101604052809291908181526020016000905b8282101561151b57838290600052602060002001805461148e90614444565b80601f01602080910402602001604051908101604052809291908181526020018280546114ba90614444565b80156115075780601f106114dc57610100808354040283529160200191611507565b820191906000526020600020905b8154815290600101906020018083116114ea57829003601f168201915b50505050508152602001906001019061146f565b50505060048701805460408051602080840282018101909252828152935060009084015b828210156110c457838290600052602060002001805461155e90614444565b80601f016020809104026020016040519081016040528092919081815260200182805461158a90614444565b80156115d75780601f106115ac576101008083540402835291602001916115d7565b820191906000526020600020905b8154815290600101906020018083116115ba57829003601f168201915b50505050508152602001906001019061153f565b8460090154610a23565b6115fd6108be565b6001600160a01b0316336001600160a01b03161461162d5760405162461bcd60e51b8152600401610e65906141c0565b6111548161238d565b6000611642838361242e565b9392505050565b6116516108be565b6001600160a01b0316336001600160a01b0316146116815760405162461bcd60e51b8152600401610e65906141c0565b611154816124e3565b60008181526002602090815260409182902060018101805484518185028101850190955280855291936110d7939092908301828280156116f357602002820191906000526020600020905b81546001600160a01b031681526001909101906020018083116116d5575b50505050508260020180548060200260200160405190810160405280929190818152602001828054801561174657602002820191906000526020600020905b815481526020019060010190808311611732575b50505050506118ee84600301805480602002602001604051908101604052809291908181526020016000905b8282101561181e57838290600052602060002001805461179190614444565b80601f01602080910402602001604051908101604052809291908181526020018280546117bd90614444565b801561180a5780601f106117df5761010080835404028352916020019161180a565b820191906000526020600020905b8154815290600101906020018083116117ed57829003601f168201915b505050505081526020019060010190611772565b50505060048701805460408051602080840282018101909252828152935060009084015b828210156110c457838290600052602060002001805461186190614444565b80601f016020809104026020016040519081016040528092919081815260200182805461188d90614444565b80156118da5780601f106118af576101008083540402835291602001916118da565b820191906000526020600020905b8154815290600101906020018083116118bd57829003601f168201915b505050505081526020019060010190611842565b8460090154610a4a565b60006001600160e01b03198216636e665ced60e01b148061098b575061098b82612524565b60008061192c86868686611328565b9050600461193982610db4565b600781111561194a5761194a6144b0565b146119675760405162461bcd60e51b8152600401610e6590614238565b60065460408051630d48571f60e31b815290516000926001600160a01b031691636a42b8f8916004808301926020929190829003018186803b1580156119ac57600080fd5b505afa1580156119c0573d6000803e3d6000fd5b505050506040513d601f19601f820116820180604052508101906119e49190613d9c565b6119ee90426143be565b9050611a106119fc82612559565b6000848152600760205260409020906125c5565b60005b8751811015611c7f5760065488516001600160a01b039091169063f2b06537908a9084908110611a4557611a456144c6565b6020026020010151898481518110611a5f57611a5f6144c6565b6020026020010151898581518110611a7957611a796144c6565b602002602001015186604051602001611a9594939291906140a7565b604051602081830303815290604052805190602001206040518263ffffffff1660e01b8152600401611ac991815260200190565b60206040518083038186803b158015611ae157600080fd5b505afa158015611af5573d6000803e3d6000fd5b505050506040513d601f19601f82011682018060405250810190611b199190613d7a565b15611b975760405162461bcd60e51b815260206004820152604260248201527f476f7665726e6f7254696d656c6f636b436f6d706f756e643a206964656e746960448201527f63616c2070726f706f73616c20616374696f6e20616c72656164792071756575606482015261195960f21b608482015260a401610e65565b60065488516001600160a01b0390911690633a66f901908a9084908110611bc057611bc06144c6565b6020026020010151898481518110611bda57611bda6144c6565b6020026020010151898581518110611bf457611bf46144c6565b6020026020010151866040518563ffffffff1660e01b8152600401611c1c94939291906140a7565b602060405180830381600087803b158015611c3657600080fd5b505af1158015611c4a573d6000803e3d6000fd5b505050506040513d601f19601f82011682018060405250810190611c6e9190613d9c565b50611c788161447f565b9050611a13565b5060408051838152602081018390527f9a2e42fd6722813d69113e7d0079d3d940171428df7373df9c7f7617cfda289291015b60405180910390a15095945050505050565b600080611cd386868686611328565b90506000611ce082610db4565b90506004816007811115611cf657611cf66144b0565b1480611d1357506005816007811115611d1157611d116144b0565b145b611d2f5760405162461bcd60e51b8152600401610e6590614238565b600082815260016020818152604092839020600201805460ff191690921790915590518381527f712ae1383f79ac853f8d882153778e0260ef8f03b504e2866e0593e04d2b291f910160405180910390a1611d8d82888888886125e3565b5095945050505050565b600061098b611da46125f0565b8360405161190160f01b6020820152602281018390526042810182905260009060620160405160208183030381529060405280519060200120905092915050565b6000806000611df687878787612717565b91509150611d8d81612804565b6000848152600160208190526040822090611e1d87610db4565b6007811115611e2e57611e2e6144b0565b14611e875760405162461bcd60e51b815260206004820152602360248201527f476f7665726e6f723a20766f7465206e6f742063757272656e746c792061637460448201526269766560e81b6064820152608401610e65565b604080516020810190915281546001600160401b031690819052600090611eaf908790611636565b9050611ebd878787846129bf565b856001600160a01b03167fb8e138887d0aa13bab447e82de9d5c1777041ecd21ca36ba824ff1e6c07ddda488878488604051611efc949392919061431c565b60405180910390a29695505050505050565b600080611f1a83612b64565b90506004816007811115611f3057611f306144b0565b14611f3b5792915050565b6000611f46846111f8565b905080611f54575092915050565b600660009054906101000a90046001600160a01b03166001600160a01b031663c1a287e26040518163ffffffff1660e01b815260040160206040518083038186803b158015611fa257600080fd5b505afa158015611fb6573d6000803e3d6000fd5b505050506040513d601f19601f82011682018060405250810190611fda9190613d9c565b611fe490826143be565b4210611ff4575060069392505050565b5060059392505050565b6060600082516001600160401b0381111561201b5761201b6144dc565b60405190808252806020026020018201604052801561204e57816020015b60608152602001906001900390816120395790505b50905060005b84518110156121565784818151811061206f5761206f6144c6565b60200260200101515160001461210d57848181518110612091576120916144c6565b60200260200101518482815181106120ab576120ab6144c6565b60200260200101516040516024016120c39190614185565b60408051601f1981840301815290829052916120de9161408b565b6040519081900390206020820180516001600160e01b03166001600160e01b0319909216919091179052612128565b83818151811061211f5761211f6144c6565b60200260200101515b82828151811061213a5761213a6144c6565b60200260200101819052508061214f9061447f565b9050612054565b509392505050565b6000610a3185858585612c73565b60035460408051918252602082018390527fc565b045403dc03c2eea82b81a0465edad9e2e7fc4d97e11421c209da93d7a93910160405180910390a1600355565b600061220933868686516001600160401b038111156121ce576121ce6144dc565b60405190808252806020026020018201604052801561220157816020015b60608152602001906001900390816121ec5790505b5087876122d0565b610a3185858585612d8e565b600654604080516001600160a01b03928316815291831660208301527f08f74ea46ef7894f65eabfb5e6e695de773a000b47c529ab559178069b226401910160405180910390a1600680546001600160a01b0319166001600160a01b0392909216919091179055565b60008181526007602090815260408083208151928301909152546001600160401b031690819052610a80565b606061110b8484846040518060600160405280602981526020016145086029913961304a565b8051602082012060006122ee87876122e88888611ffe565b85611328565b60008181526002602052604090206009810154919250906123825780546001600160a01b0319166001600160a01b038a16178155875161233790600183019060208b01906135e3565b50865161234d90600283019060208a0190613644565b508551612363906003830190602089019061367f565b50845161237990600483019060208801906136d8565b50600981018390555b505050505050505050565b600081116123ed5760405162461bcd60e51b815260206004820152602760248201527f476f7665726e6f7253657474696e67733a20766f74696e6720706572696f6420604482015266746f6f206c6f7760c81b6064820152608401610e65565b60045460408051918252602082018390527f7e3f7f0708a84de9203036abaa450dccc85ad5ff52f78c170f3edb55cf5e8828910160405180910390a1600455565b60405163782d6fe160e01b81526001600160a01b038381166004830152602482018390526000917f00000000000000000000000000000000000000000000000000000000000000009091169063782d6fe19060440160206040518083038186803b15801561249b57600080fd5b505afa1580156124af573d6000803e3d6000fd5b505050506040513d601f19601f820116820180604052508101906124d39190613f6d565b6001600160601b03169392505050565b60055460408051918252602082018390527fccb45da8d5717e6c4544694297c4ba5cf151d455c9bb0ed4fc7a38411bc05461910160405180910390a1600555565b60006001600160e01b0319821663bf26d89760e01b148061098b57506301ffc9a760e01b6001600160e01b031983161461098b565b60006001600160401b038211156125c15760405162461bcd60e51b815260206004820152602660248201527f53616665436173743a2076616c756520646f65736e27742066697420696e203660448201526534206269747360d01b6064820152608401610e65565b5090565b815467ffffffffffffffff19166001600160401b0391909116179055565b6113218585858585613167565b6000306001600160a01b037f00000000000000000000000000000000000000000000000000000000000000001614801561264957507f000000000000000000000000000000000000000000000000000000000000000046145b1561267357507f000000000000000000000000000000000000000000000000000000000000000090565b50604080517f00000000000000000000000000000000000000000000000000000000000000006020808301919091527f0000000000000000000000000000000000000000000000000000000000000000828401527f000000000000000000000000000000000000000000000000000000000000000060608301524660808301523060a0808401919091528351808403909101815260c0909201909252805191012090565b6000807f7fffffffffffffffffffffffffffffff5d576e7357a4501ddfe92f46681b20a083111561274e57506000905060036127fb565b8460ff16601b1415801561276657508460ff16601c14155b1561277757506000905060046127fb565b6040805160008082526020820180845289905260ff881692820192909252606081018690526080810185905260019060a0016020604051602081039080840390855afa1580156127cb573d6000803e3d6000fd5b5050604051601f1901519150506001600160a01b0381166127f4576000600192509250506127fb565b9150600090505b94509492505050565b6000816004811115612818576128186144b0565b14156128215750565b6001816004811115612835576128356144b0565b14156128835760405162461bcd60e51b815260206004820152601860248201527f45434453413a20696e76616c6964207369676e617475726500000000000000006044820152606401610e65565b6002816004811115612897576128976144b0565b14156128e55760405162461bcd60e51b815260206004820152601f60248201527f45434453413a20696e76616c6964207369676e6174757265206c656e677468006044820152606401610e65565b60038160048111156128f9576128f96144b0565b14156129525760405162461bcd60e51b815260206004820152602260248201527f45434453413a20696e76616c6964207369676e6174757265202773272076616c604482015261756560f01b6064820152608401610e65565b6004816004811115612966576129666144b0565b14156111545760405162461bcd60e51b815260206004820152602260248201527f45434453413a20696e76616c6964207369676e6174757265202776272076616c604482015261756560f01b6064820152608401610e65565b60008481526002602090815260408083206001600160a01b038716845260088101909252909120805460ff1615612a4e5760405162461bcd60e51b815260206004820152602d60248201527f476f7665726e6f72436f6d7061746962696c697479427261766f3a20766f746560448201526c08185b1c9958591e4818d85cdd609a1b6064820152608401610e65565b805460ff85166101000261ffff19909116176001178155612a6e836132f5565b81546001600160601b039190911662010000026dffffffffffffffffffffffff00001990911617815560ff8416612abe5782826006016000828254612ab391906143be565b90915550612b5c9050565b60ff841660011415612ade5782826005016000828254612ab391906143be565b60ff841660021415612afe5782826007016000828254612ab391906143be565b60405162461bcd60e51b815260206004820152602d60248201527f476f7665726e6f72436f6d7061746962696c697479427261766f3a20696e766160448201526c6c696420766f7465207479706560981b6064820152608401610e65565b505050505050565b6000818152600160205260408120600281015460ff1615612b885750600792915050565b6002810154610100900460ff1615612ba35750600292915050565b6000612bae84610a58565b905080612bfd5760405162461bcd60e51b815260206004820152601d60248201527f476f7665726e6f723a20756e6b6e6f776e2070726f706f73616c2069640000006044820152606401610e65565b438110612c0e575060009392505050565b6000612c1985611278565b9050438110612c2d57506001949350505050565b612c368561335d565b8015612c58575060008581526002602052604090206006810154600590910154115b15612c6857506004949350505050565b506003949350505050565b600080612c8286868686613385565b90506000612c8f826111f8565b90508015611d8d5760005b8751811015612d6b5760065488516001600160a01b039091169063591fcdfe908a9084908110612ccc57612ccc6144c6565b6020026020010151898481518110612ce657612ce66144c6565b6020026020010151898581518110612d0057612d006144c6565b6020026020010151866040518563ffffffff1660e01b8152600401612d2894939291906140a7565b600060405180830381600087803b158015612d4257600080fd5b505af1158015612d56573d6000803e3d6000fd5b5050505080612d649061447f565b9050612c9a565b506000828152600760205260409020805467ffffffffffffffff19169055611d8d565b6000612d98611203565b612da733610831600143614401565b1015612e275760405162461bcd60e51b815260206004820152604360248201527f476f7665726e6f72436f6d7061746962696c697479427261766f3a2070726f7060448201527f6f73657220766f7465732062656c6f772070726f706f73616c207468726573686064820152621bdb1960ea1b608482015260a401610e65565b6000612e3c8686868680519060200120611328565b90508451865114612e5f5760405162461bcd60e51b8152600401610e65906141f7565b8351865114612e805760405162461bcd60e51b8152600401610e65906141f7565b6000865111612ed15760405162461bcd60e51b815260206004820152601860248201527f476f7665726e6f723a20656d7074792070726f706f73616c00000000000000006044820152606401610e65565b600081815260016020908152604091829020825191820190925281546001600160401b03169081905215612f515760405162461bcd60e51b815260206004820152602160248201527f476f7665726e6f723a2070726f706f73616c20616c72656164792065786973746044820152607360f81b6064820152608401610e65565b6000612f64612f5f60035490565b612559565b612f6d43612559565b612f7791906143d6565b90506000612f87612f5f60045490565b612f9190836143d6565b9050612f9d83836125c5565b612faa60018401826125c5565b7f7d84a6263ae0d98d3329bd7b46bb4e8d6f98cd35a7adb45c274c8b7fd5ebd5e084338b8b8d516001600160401b03811115612fe857612fe86144dc565b60405190808252806020026020018201604052801561301b57816020015b60608152602001906001900390816130065790505b508c88888e60405161303599989796959493929190614279565b60405180910390a15091979650505050505050565b6060824710156130ab5760405162461bcd60e51b815260206004820152602660248201527f416464726573733a20696e73756666696369656e742062616c616e636520666f6044820152651c8818d85b1b60d21b6064820152608401610e65565b843b6130f95760405162461bcd60e51b815260206004820152601d60248201527f416464726573733a2063616c6c20746f206e6f6e2d636f6e74726163740000006044820152606401610e65565b600080866001600160a01b03168587604051613115919061408b565b60006040518083038185875af1925050503d8060008114613152576040519150601f19603f3d011682016040523d82523d6000602084013e613157565b606091505b5091509150610da9828286613491565b6000613172866111f8565b9050600081116131de5760405162461bcd60e51b815260206004820152603160248201527f476f7665726e6f7254696d656c6f636b436f6d706f756e643a2070726f706f73604482015270185b081b9bdd081e595d081c5d595d5959607a1b6064820152608401610e65565b6006546131f4906001600160a01b0316346134ca565b60005b85518110156132ec5760065486516001600160a01b0390911690630825f38f90889084908110613229576132296144c6565b6020026020010151878481518110613243576132436144c6565b602002602001015187858151811061325d5761325d6144c6565b6020026020010151866040518563ffffffff1660e01b815260040161328594939291906140a7565b600060405180830381600087803b15801561329f57600080fd5b505af11580156132b3573d6000803e3d6000fd5b505050506040513d6000823e601f3d908101601f191682016040526132db9190810190613ddf565b506132e58161447f565b90506131f7565b50505050505050565b60006001600160601b038211156125c15760405162461bcd60e51b815260206004820152602660248201527f53616665436173743a2076616c756520646f65736e27742066697420696e203960448201526536206269747360d01b6064820152608401610e65565b6000818152600260205260408120600581015461337c61087185610a58565b11159392505050565b60008061339486868686611328565b905060006133a182610db4565b905060028160078111156133b7576133b76144b0565b141580156133d7575060068160078111156133d4576133d46144b0565b14155b80156133f5575060078160078111156133f2576133f26144b0565b14155b6134415760405162461bcd60e51b815260206004820152601d60248201527f476f7665726e6f723a2070726f706f73616c206e6f74206163746976650000006044820152606401610e65565b60008281526001602052604090819020600201805461ff001916610100179055517f789cf55be980739dad1d0699b93b58e806b51c9d96619bfa8fe0a28abaa7b30c90611cb29084815260200190565b606083156134a0575081611642565b8251156134b05782518084602001fd5b8160405162461bcd60e51b8152600401610e659190614185565b8047101561351a5760405162461bcd60e51b815260206004820152601d60248201527f416464726573733a20696e73756666696369656e742062616c616e63650000006044820152606401610e65565b6000826001600160a01b03168260405160006040518083038185875af1925050503d8060008114613567576040519150601f19603f3d011682016040523d82523d6000602084013e61356c565b606091505b50509050806110d75760405162461bcd60e51b815260206004820152603a60248201527f416464726573733a20756e61626c6520746f2073656e642076616c75652c207260448201527f6563697069656e74206d617920686176652072657665727465640000000000006064820152608401610e65565b828054828255906000526020600020908101928215613638579160200282015b8281111561363857825182546001600160a01b0319166001600160a01b03909116178255602090920191600190910190613603565b506125c1929150613731565b828054828255906000526020600020908101928215613638579160200282015b82811115613638578251825591602001919060010190613664565b8280548282559060005260206000209081019282156136cc579160200282015b828111156136cc57825180516136bc918491602090910190613746565b509160200191906001019061369f565b506125c19291506137b9565b828054828255906000526020600020908101928215613725579160200282015b828111156137255782518051613715918491602090910190613746565b50916020019190600101906136f8565b506125c19291506137d6565b5b808211156125c15760008155600101613732565b82805461375290614444565b90600052602060002090601f0160209004810192826137745760008555613638565b82601f1061378d57805160ff1916838001178555613638565b828001600101855582156136385791820182811115613638578251825591602001919060010190613664565b808211156125c15760006137cd82826137f3565b506001016137b9565b808211156125c15760006137ea82826137f3565b506001016137d6565b5080546137ff90614444565b6000825580601f1061380f575050565b601f0160209004906000526020600020908101906111549190613731565b600061384061383b84614397565b614344565b905082815283838301111561385457600080fd5b828260208301376000602084830101529392505050565b600082601f83011261387c57600080fd5b8135602061388c61383b83614374565b80838252828201915082860187848660051b89010111156138ac57600080fd5b60005b858110156138d45781356138c2816144f2565b845292840192908401906001016138af565b5090979650505050505050565b600082601f8301126138f257600080fd5b8135602061390261383b83614374565b80838252828201915082860187848660051b890101111561392257600080fd5b60005b858110156138d45781356001600160401b0381111561394357600080fd5b8801603f81018a1361395457600080fd5b6139658a878301356040840161382d565b8552509284019290840190600101613925565b600082601f83011261398957600080fd5b8135602061399961383b83614374565b80838252828201915082860187848660051b89010111156139b957600080fd5b6000805b868110156139fb5782356001600160401b038111156139da578283fd5b6139e88b88838d0101613ab1565b86525093850193918501916001016139bd565b509198975050505050505050565b600082601f830112613a1a57600080fd5b81356020613a2a61383b83614374565b80838252828201915082860187848660051b8901011115613a4a57600080fd5b60005b858110156138d457813584529284019290840190600101613a4d565b60008083601f840112613a7b57600080fd5b5081356001600160401b03811115613a9257600080fd5b602083019150836020828501011115613aaa57600080fd5b9250929050565b600082601f830112613ac257600080fd5b6116428383356020850161382d565b803560ff81168114613ae257600080fd5b919050565b60008060408385031215613afa57600080fd5b8235613b05816144f2565b946020939093013593505050565b60008060008060608587031215613b2957600080fd5b8435613b34816144f2565b93506020850135925060408501356001600160401b03811115613b5657600080fd5b613b6287828801613a69565b95989497509550505050565b60008060008060808587031215613b8457600080fd5b84356001600160401b0380821115613b9b57600080fd5b613ba78883890161386b565b95506020870135915080821115613bbd57600080fd5b613bc988838901613a09565b94506040870135915080821115613bdf57600080fd5b50613bec878288016138e1565b949793965093946060013593505050565b60008060008060808587031215613c1357600080fd5b84356001600160401b0380821115613c2a57600080fd5b613c368883890161386b565b95506020870135915080821115613c4c57600080fd5b613c5888838901613a09565b94506040870135915080821115613c6e57600080fd5b613c7a888389016138e1565b93506060870135915080821115613c9057600080fd5b50613c9d87828801613ab1565b91505092959194509250565b600080600080600060a08688031215613cc157600080fd5b85356001600160401b0380821115613cd857600080fd5b613ce489838a0161386b565b96506020880135915080821115613cfa57600080fd5b613d0689838a01613a09565b95506040880135915080821115613d1c57600080fd5b613d2889838a01613978565b94506060880135915080821115613d3e57600080fd5b613d4a89838a016138e1565b93506080880135915080821115613d6057600080fd5b50613d6d88828901613ab1565b9150509295509295909350565b600060208284031215613d8c57600080fd5b8151801515811461164257600080fd5b600060208284031215613dae57600080fd5b5051919050565b600060208284031215613dc757600080fd5b81356001600160e01b03198116811461164257600080fd5b600060208284031215613df157600080fd5b81516001600160401b03811115613e0757600080fd5b8201601f81018413613e1857600080fd5b8051613e2661383b82614397565b818152856020838501011115613e3b57600080fd5b610a31826020830160208601614418565b600060208284031215613e5e57600080fd5b8135611642816144f2565b600060208284031215613e7b57600080fd5b5035919050565b60008060408385031215613e9557600080fd5b823591506020830135613ea7816144f2565b809150509250929050565b60008060408385031215613ec557600080fd5b82359150613ed560208401613ad1565b90509250929050565b60008060008060608587031215613ef457600080fd5b84359350613f0460208601613ad1565b925060408501356001600160401b03811115613b5657600080fd5b600080600080600060a08688031215613f3757600080fd5b85359450613f4760208701613ad1565b9350613f5560408701613ad1565b94979396509394606081013594506080013592915050565b600060208284031215613f7f57600080fd5b81516001600160601b038116811461164257600080fd5b600081518084526020808501945080840160005b83811015613fcf5781516001600160a01b031687529582019590820190600101613faa565b509495945050505050565b600081518084526020808501808196508360051b8101915082860160005b8581101561402257828403895261401084835161405f565b98850198935090840190600101613ff8565b5091979650505050505050565b600081518084526020808501945080840160005b83811015613fcf57815187529582019590820190600101614043565b60008151808452614077816020860160208601614418565b601f01601f19169290920160200192915050565b6000825161409d818460208701614418565b9190910192915050565b60018060a01b038516815283602082015260a06040820152600060a082015260c0606082015260006140dc60c083018561405f565b905082608083015295945050505050565b6080815260006141006080830187613f96565b8281036020840152614112818761402f565b905082810360408401526141268186613fda565b91505082606083015295945050505050565b60808152600061414b6080830187613f96565b828103602084015261415d818761402f565b905082810360408401526141718186613fda565b90508281036060840152610da98185613fda565b602081526000611642602083018461405f565b60208101600883106141ba57634e487b7160e01b600052602160045260246000fd5b91905290565b60208082526018908201527f476f7665726e6f723a206f6e6c79476f7665726e616e63650000000000000000604082015260600190565b60208082526021908201527f476f7665726e6f723a20696e76616c69642070726f706f73616c206c656e67746040820152600d60fb1b606082015260800190565b60208082526021908201527f476f7665726e6f723a2070726f706f73616c206e6f74207375636365737366756040820152601b60fa1b606082015260800190565b8981526001600160a01b0389166020820152610120604082018190526000906142a48382018b613f96565b905082810360608401526142b8818a61402f565b905082810360808401526142cc8189613fda565b905082810360a08401526142e08188613fda565b6001600160401b0387811660c0860152861660e0850152838103610100850152905061430c818561405f565b9c9b505050505050505050505050565b84815260ff8416602082015282604082015260806060820152600061119f608083018461405f565b604051601f8201601f191681016001600160401b038111828210171561436c5761436c6144dc565b604052919050565b60006001600160401b0382111561438d5761438d6144dc565b5060051b60200190565b60006001600160401b038211156143b0576143b06144dc565b50601f01601f191660200190565b600082198211156143d1576143d161449a565b500190565b60006001600160401b038083168185168083038211156143f8576143f861449a565b01949350505050565b6000828210156144135761441361449a565b500390565b60005b8381101561443357818101518382015260200161441b565b838111156112725750506000910152565b600181811c9082168061445857607f821691505b6020821081141561447957634e487b7160e01b600052602260045260246000fd5b50919050565b60006000198214156144935761449361449a565b5060010190565b634e487b7160e01b600052601160045260246000fd5b634e487b7160e01b600052602160045260246000fd5b634e487b7160e01b600052603260045260246000fd5b634e487b7160e01b600052604160045260246000fd5b6001600160a01b038116811461115457600080fdfe416464726573733a206c6f772d6c6576656c2063616c6c20776974682076616c7565206661696c6564a2646970667358221220db8631e2bd6c32a794dd9f3477db72a2f488d5852cdd6c33de25dbfb4df7d39964736f6c63430008060033",
  "bytecodeSha1": "a3e2a98df46af5739e99dcf61dec77fda68d5993",
  "compiler": {
    "evm_version": "istanbul",
    "optimizer": {
      "enabled": true,
      "runs": 200
    },
    "version": "0.8.6+commit.11564f7e"
  },
  "contractName": "GovernorCompatibilityBravoMock",
  "language": "Solidity",
  "natspec": {
    "kind": "dev",
    "methods": {
      "COUNTING_MODE()": {
        "details": "A description of the possible `support` values for {castVote} and the way these votes are counted, meant to be consumed by UIs to show correct vote options and interpret the results. The string is a URL-encoded sequence of key-value pairs that each describe one aspect, for example `support=bravo&quorum=for,abstain`. There are 2 standard keys: `support` and `quorum`. - `support=bravo` refers to the vote options 0 = Against, 1 = For, 2 = Abstain, as in `GovernorBravo`. - `quorum=bravo` means that only For votes are counted towards quorum. - `quorum=for,abstain` means that both For and Abstain votes are counted towards quorum. NOTE: The string can be decoded by the standard https://developer.mozilla.org/en-US/docs/Web/API/URLSearchParams[`URLSearchParams`] JavaScript class.",
        "notice": "module:voting"
      },
      "__acceptAdmin()": {
        "details": "Accept admin right over the timelock."
      },
      "cancel(address[],uint256[],bytes[],bytes32)": {
        "notice": "WARNING: this is for mock purposes only. Ability to the _cancel function should be restricted for live deployments."
      },
      "cancel(uint256)": {
        "details": "Cancels a proposal only if sender is the proposer, or proposer delegates dropped below proposal threshold."
      },
      "castVote(uint256,uint8)": {
        "details": "See {IGovernor-castVote}."
      },
      "castVoteBySig(uint256,uint8,uint8,bytes32,bytes32)": {
        "details": "See {IGovernor-castVoteBySig}."
      },
      "castVoteWithReason(uint256,uint8,string)": {
        "details": "See {IGovernor-castVoteWithReason}."
      },
      "execute(uint256)": {
        "details": "See {IGovernorCompatibilityBravo-execute}."
      },
      "getActions(uint256)": {
        "details": "See {IGovernorCompatibilityBravo-getActions}."
      },
      "getReceipt(uint256,address)": {
        "details": "See {IGovernorCompatibilityBravo-getReceipt}."
      },
      "hasVoted(uint256,address)": {
        "details": "See {IGovernor-hasVoted}."
      },
      "hashProposal(address[],uint256[],bytes[],bytes32)": {
        "details": "See {IGovernor-hashProposal}. The proposal id is produced by hashing the RLC encoded `targets` array, the `values` array, the `calldatas` array and the descriptionHash (bytes32 which itself is the keccak256 hash of the description string). This proposal id can be produced from the proposal data which is part of the {ProposalCreated} event. It can even be computed in advance, before the proposal is submitted. Note that the chainId and the governor address are not part of the proposal id computation. Consequently, the same proposal (with same operation and same description) will have the same id if submitted on multiple governors accross multiple networks. This also means that in order to execute the same operation twice (on the same governor) the proposer will have to change the description in order to avoid proposal id conflicts."
      },
      "name()": {
        "details": "See {IGovernor-name}."
      },
      "proposalDeadline(uint256)": {
        "details": "See {IGovernor-proposalDeadline}."
      },
      "proposalSnapshot(uint256)": {
        "details": "See {IGovernor-proposalSnapshot}."
      },
      "proposals(uint256)": {
        "details": "See {IGovernorCompatibilityBravo-proposals}."
      },
      "propose(address[],uint256[],string[],bytes[],string)": {
        "details": "See {IGovernorCompatibilityBravo-propose}."
      },
      "queue(uint256)": {
        "details": "See {IGovernorCompatibilityBravo-queue}."
      },
      "quorumVotes()": {
        "details": "See {IGovernorCompatibilityBravo-quorumVotes}."
      },
      "relay(address,uint256,bytes)": {
        "details": "Relays a transaction or function call to an arbitrary target. In cases where the governance executor is some contract other than the governor itself, like when using a timelock, this function can be invoked in a governance proposal to recover tokens or Ether that was sent to the governor contract by mistake. Note that if the executor is simply the governor itself, use of `relay` is redundant."
      },
      "setProposalThreshold(uint256)": {
        "details": "Update the proposal threshold. This operation can only be performed through a governance proposal. Emits a {ProposalThresholdSet} event."
      },
      "setVotingDelay(uint256)": {
        "details": "Update the voting delay. This operation can only be performed through a governance proposal. Emits a {VotingDelaySet} event."
      },
      "setVotingPeriod(uint256)": {
        "details": "Update the voting period. This operation can only be performed through a governance proposal. Emits a {VotingPeriodSet} event."
      },
      "timelock()": {
        "details": "Public accessor to check the address of the timelock"
      },
      "updateTimelock(address)": {
        "details": "Public endpoint to update the underlying timelock instance. Restricted to the timelock itself, so updates must be proposed, scheduled and executed using the {Governor} workflow. For security reason, the timelock must be handed over to another admin before setting up a new one. The two operations (hand over the timelock) and do the update can be batched in a single proposal. Note that if the timelock admin has been handed over in a previous operation, we refuse updates made through the timelock if admin of the timelock has already been accepted and the operation is executed outside the scope of governance."
      },
      "version()": {
        "details": "See {IGovernor-version}."
      },
      "votingDelay()": {
        "details": "See {IGovernor-votingDelay}."
      },
      "votingPeriod()": {
        "details": "See {IGovernor-votingPeriod}."
      }
    },
    "version": 1
  },
  "opcodes": "PUSH1 0x80 PUSH1 0x40 MSTORE PUSH1 0x4 CALLDATASIZE LT PUSH2 0x234 JUMPI PUSH1 0x0 CALLDATALOAD PUSH1 0xE0 SHR DUP1 PUSH4 0x7D5E81E2 GT PUSH2 0x12E JUMPI DUP1 PUSH4 0xDD4E2BA5 GT PUSH2 0xAB JUMPI DUP1 PUSH4 0xEB9019D4 GT PUSH2 0x6F JUMPI DUP1 PUSH4 0xEB9019D4 EQ PUSH2 0x816 JUMPI DUP1 PUSH4 0xECE40CC1 EQ PUSH2 0x836 JUMPI DUP1 PUSH4 0xF8CE560A EQ PUSH2 0x856 JUMPI DUP1 PUSH4 0xFC0C546A EQ PUSH2 0x877 JUMPI DUP1 PUSH4 0xFE0D94C1 EQ PUSH2 0x8AB JUMPI PUSH1 0x0 DUP1 REVERT JUMPDEST DUP1 PUSH4 0xDD4E2BA5 EQ PUSH2 0x692 JUMPI DUP1 PUSH4 0xDDF0B009 EQ PUSH2 0x6D8 JUMPI DUP1 PUSH4 0xDEAAA7CC EQ PUSH2 0x6F8 JUMPI DUP1 PUSH4 0xE23A9A52 EQ PUSH2 0x72C JUMPI DUP1 PUSH4 0xEA0217CF EQ PUSH2 0x7F6 JUMPI PUSH1 0x0 DUP1 REVERT JUMPDEST DUP1 PUSH4 0xC01F9E37 GT PUSH2 0xF2 JUMPI DUP1 PUSH4 0xC01F9E37 EQ PUSH2 0x5E0 JUMPI DUP1 PUSH4 0xC28BC2FA EQ PUSH2 0x600 JUMPI DUP1 PUSH4 0xC59057E4 EQ PUSH2 0x620 JUMPI DUP1 PUSH4 0xD33219B4 EQ PUSH2 0x640 JUMPI DUP1 PUSH4 0xDA95691A EQ PUSH2 0x672 JUMPI PUSH1 0x0 DUP1 REVERT JUMPDEST DUP1 PUSH4 0x7D5E81E2 EQ PUSH2 0x556 JUMPI DUP1 PUSH4 0xA890C910 EQ PUSH2 0x576 JUMPI DUP1 PUSH4 0xAB58FB8E EQ PUSH2 0x596 JUMPI DUP1 PUSH4 0xB58131B0 EQ PUSH2 0x5B6 JUMPI DUP1 PUSH4 0xB9A61961 EQ PUSH2 0x5CB JUMPI PUSH1 0x0 DUP1 REVERT JUMPDEST DUP1 PUSH4 0x3932ABB1 GT PUSH2 0x1BC JUMPI DUP1 PUSH4 0x452115D6 GT PUSH2 0x180 JUMPI DUP1 PUSH4 0x452115D6 EQ PUSH2 0x4AC JUMPI DUP1 PUSH4 0x54FD4D50 EQ PUSH2 0x4CC JUMPI DUP1 PUSH4 0x56781388 EQ PUSH2 0x4F6 JUMPI DUP1 PUSH4 0x70B0F660 EQ PUSH2 0x516 JUMPI DUP1 PUSH4 0x7B3C71D3 EQ PUSH2 0x536 JUMPI PUSH1 0x0 DUP1 REVERT JUMPDEST DUP1 PUSH4 0x3932ABB1 EQ PUSH2 0x3E0 JUMPI DUP1 PUSH4 0x3BCCF4FD EQ PUSH2 0x3F5 JUMPI DUP1 PUSH4 0x3E4F49E6 EQ PUSH2 0x415 JUMPI DUP1 PUSH4 0x40E58EE5 EQ PUSH2 0x442 JUMPI DUP1 PUSH4 0x43859632 EQ PUSH2 0x462 JUMPI PUSH1 0x0 DUP1 REVERT JUMPDEST DUP1 PUSH4 0x160CBED7 GT PUSH2 0x203 JUMPI DUP1 PUSH4 0x160CBED7 EQ PUSH2 0x348 JUMPI DUP1 PUSH4 0x24BC1A64 EQ PUSH2 0x368 JUMPI DUP1 PUSH4 0x2656227D EQ PUSH2 0x37D JUMPI DUP1 PUSH4 0x2D63F693 EQ PUSH2 0x390 JUMPI DUP1 PUSH4 0x328DD982 EQ PUSH2 0x3B0 JUMPI PUSH1 0x0 DUP1 REVERT JUMPDEST DUP1 PUSH4 0x13CF08B EQ PUSH2 0x25C JUMPI DUP1 PUSH4 0x1FFC9A7 EQ PUSH2 0x2D7 JUMPI DUP1 PUSH4 0x2A251A3 EQ PUSH2 0x307 JUMPI DUP1 PUSH4 0x6FDDE03 EQ PUSH2 0x326 JUMPI PUSH1 0x0 DUP1 REVERT JUMPDEST CALLDATASIZE PUSH2 0x257 JUMPI ADDRESS PUSH2 0x242 PUSH2 0x8BE JUMP JUMPDEST PUSH1 0x1 PUSH1 0x1 PUSH1 0xA0 SHL SUB AND EQ PUSH2 0x255 JUMPI PUSH1 0x0 DUP1 REVERT JUMPDEST STOP JUMPDEST PUSH1 0x0 DUP1 REVERT JUMPDEST CALLVALUE DUP1 ISZERO PUSH2 0x268 JUMPI PUSH1 0x0 DUP1 REVERT JUMPDEST POP PUSH2 0x27C PUSH2 0x277 CALLDATASIZE PUSH1 0x4 PUSH2 0x3E69 JUMP JUMPDEST PUSH2 0x8D7 JUMP JUMPDEST PUSH1 0x40 DUP1 MLOAD SWAP11 DUP12 MSTORE PUSH1 0x1 PUSH1 0x1 PUSH1 0xA0 SHL SUB SWAP1 SWAP10 AND PUSH1 0x20 DUP12 ADD MSTORE SWAP8 DUP10 ADD SWAP7 SWAP1 SWAP7 MSTORE PUSH1 0x60 DUP9 ADD SWAP5 SWAP1 SWAP5 MSTORE PUSH1 0x80 DUP8 ADD SWAP3 SWAP1 SWAP3 MSTORE PUSH1 0xA0 DUP7 ADD MSTORE PUSH1 0xC0 DUP6 ADD MSTORE PUSH1 0xE0 DUP5 ADD MSTORE ISZERO ISZERO PUSH2 0x100 DUP4 ADD MSTORE ISZERO ISZERO PUSH2 0x120 DUP3 ADD MSTORE PUSH2 0x140 ADD JUMPDEST PUSH1 0x40 MLOAD DUP1 SWAP2 SUB SWAP1 RETURN JUMPDEST CALLVALUE DUP1 ISZERO PUSH2 0x2E3 JUMPI PUSH1 0x0 DUP1 REVERT JUMPDEST POP PUSH2 0x2F7 PUSH2 0x2F2 CALLDATASIZE PUSH1 0x4 PUSH2 0x3DB5 JUMP JUMPDEST PUSH2 0x980 JUMP JUMPDEST PUSH1 0x40 MLOAD SWAP1 ISZERO ISZERO DUP2 MSTORE PUSH1 0x20 ADD PUSH2 0x2CE JUMP JUMPDEST CALLVALUE DUP1 ISZERO PUSH2 0x313 JUMPI PUSH1 0x0 DUP1 REVERT JUMPDEST POP PUSH1 0x4 SLOAD JUMPDEST PUSH1 0x40 MLOAD SWAP1 DUP2 MSTORE PUSH1 0x20 ADD PUSH2 0x2CE JUMP JUMPDEST CALLVALUE DUP1 ISZERO PUSH2 0x332 JUMPI PUSH1 0x0 DUP1 REVERT JUMPDEST POP PUSH2 0x33B PUSH2 0x991 JUMP JUMPDEST PUSH1 0x40 MLOAD PUSH2 0x2CE SWAP2 SWAP1 PUSH2 0x4185 JUMP JUMPDEST CALLVALUE DUP1 ISZERO PUSH2 0x354 JUMPI PUSH1 0x0 DUP1 REVERT JUMPDEST POP PUSH2 0x318 PUSH2 0x363 CALLDATASIZE PUSH1 0x4 PUSH2 0x3B6E JUMP JUMPDEST PUSH2 0xA23 JUMP JUMPDEST CALLVALUE DUP1 ISZERO PUSH2 0x374 JUMPI PUSH1 0x0 DUP1 REVERT JUMPDEST POP PUSH2 0x318 PUSH2 0xA3A JUMP JUMPDEST PUSH2 0x318 PUSH2 0x38B CALLDATASIZE PUSH1 0x4 PUSH2 0x3B6E JUMP JUMPDEST PUSH2 0xA4A JUMP JUMPDEST CALLVALUE DUP1 ISZERO PUSH2 0x39C JUMPI PUSH1 0x0 DUP1 REVERT JUMPDEST POP PUSH2 0x318 PUSH2 0x3AB CALLDATASIZE PUSH1 0x4 PUSH2 0x3E69 JUMP JUMPDEST PUSH2 0xA58 JUMP JUMPDEST CALLVALUE DUP1 ISZERO PUSH2 0x3BC JUMPI PUSH1 0x0 DUP1 REVERT JUMPDEST POP PUSH2 0x3D0 PUSH2 0x3CB CALLDATASIZE PUSH1 0x4 PUSH2 0x3E69 JUMP JUMPDEST PUSH2 0xA8F JUMP JUMPDEST PUSH1 0x40 MLOAD PUSH2 0x2CE SWAP5 SWAP4 SWAP3 SWAP2 SWAP1 PUSH2 0x4138 JUMP JUMPDEST CALLVALUE DUP1 ISZERO PUSH2 0x3EC JUMPI PUSH1 0x0 DUP1 REVERT JUMPDEST POP PUSH1 0x3 SLOAD PUSH2 0x318 JUMP JUMPDEST CALLVALUE DUP1 ISZERO PUSH2 0x401 JUMPI PUSH1 0x0 DUP1 REVERT JUMPDEST POP PUSH2 0x318 PUSH2 0x410 CALLDATASIZE PUSH1 0x4 PUSH2 0x3F1F JUMP JUMPDEST PUSH2 0xD20 JUMP JUMPDEST CALLVALUE DUP1 ISZERO PUSH2 0x421 JUMPI PUSH1 0x0 DUP1 REVERT JUMPDEST POP PUSH2 0x435 PUSH2 0x430 CALLDATASIZE PUSH1 0x4 PUSH2 0x3E69 JUMP JUMPDEST PUSH2 0xDB4 JUMP JUMPDEST PUSH1 0x40 MLOAD PUSH2 0x2CE SWAP2 SWAP1 PUSH2 0x4198 JUMP JUMPDEST CALLVALUE DUP1 ISZERO PUSH2 0x44E JUMPI PUSH1 0x0 DUP1 REVERT JUMPDEST POP PUSH2 0x255 PUSH2 0x45D CALLDATASIZE PUSH1 0x4 PUSH2 0x3E69 JUMP JUMPDEST PUSH2 0xDBF JUMP JUMPDEST CALLVALUE DUP1 ISZERO PUSH2 0x46E JUMPI PUSH1 0x0 DUP1 REVERT JUMPDEST POP PUSH2 0x2F7 PUSH2 0x47D CALLDATASIZE PUSH1 0x4 PUSH2 0x3E82 JUMP JUMPDEST PUSH1 0x0 DUP3 DUP2 MSTORE PUSH1 0x2 PUSH1 0x20 SWAP1 DUP2 MSTORE PUSH1 0x40 DUP1 DUP4 KECCAK256 PUSH1 0x1 PUSH1 0x1 PUSH1 0xA0 SHL SUB DUP6 AND DUP5 MSTORE PUSH1 0x8 ADD SWAP1 SWAP2 MSTORE SWAP1 KECCAK256 SLOAD PUSH1 0xFF AND SWAP3 SWAP2 POP POP JUMP JUMPDEST CALLVALUE DUP1 ISZERO PUSH2 0x4B8 JUMPI PUSH1 0x0 DUP1 REVERT JUMPDEST POP PUSH2 0x318 PUSH2 0x4C7 CALLDATASIZE PUSH1 0x4 PUSH2 0x3B6E JUMP JUMPDEST PUSH2 0x10DC JUMP JUMPDEST CALLVALUE DUP1 ISZERO PUSH2 0x4D8 JUMPI PUSH1 0x0 DUP1 REVERT JUMPDEST POP PUSH1 0x40 DUP1 MLOAD DUP1 DUP3 ADD SWAP1 SWAP2 MSTORE PUSH1 0x1 DUP2 MSTORE PUSH1 0x31 PUSH1 0xF8 SHL PUSH1 0x20 DUP3 ADD MSTORE PUSH2 0x33B JUMP JUMPDEST CALLVALUE DUP1 ISZERO PUSH2 0x502 JUMPI PUSH1 0x0 DUP1 REVERT JUMPDEST POP PUSH2 0x318 PUSH2 0x511 CALLDATASIZE PUSH1 0x4 PUSH2 0x3EB2 JUMP JUMPDEST PUSH2 0x10EA JUMP JUMPDEST CALLVALUE DUP1 ISZERO PUSH2 0x522 JUMPI PUSH1 0x0 DUP1 REVERT JUMPDEST POP PUSH2 0x255 PUSH2 0x531 CALLDATASIZE PUSH1 0x4 PUSH2 0x3E69 JUMP JUMPDEST PUSH2 0x1113 JUMP JUMPDEST CALLVALUE DUP1 ISZERO PUSH2 0x542 JUMPI PUSH1 0x0 DUP1 REVERT JUMPDEST POP PUSH2 0x318 PUSH2 0x551 CALLDATASIZE PUSH1 0x4 PUSH2 0x3EDE JUMP JUMPDEST PUSH2 0x1157 JUMP JUMPDEST CALLVALUE DUP1 ISZERO PUSH2 0x562 JUMPI PUSH1 0x0 DUP1 REVERT JUMPDEST POP PUSH2 0x318 PUSH2 0x571 CALLDATASIZE PUSH1 0x4 PUSH2 0x3BFD JUMP JUMPDEST PUSH2 0x11A9 JUMP JUMPDEST CALLVALUE DUP1 ISZERO PUSH2 0x582 JUMPI PUSH1 0x0 DUP1 REVERT JUMPDEST POP PUSH2 0x255 PUSH2 0x591 CALLDATASIZE PUSH1 0x4 PUSH2 0x3E4C JUMP JUMPDEST PUSH2 0x11B7 JUMP JUMPDEST CALLVALUE DUP1 ISZERO PUSH2 0x5A2 JUMPI PUSH1 0x0 DUP1 REVERT JUMPDEST POP PUSH2 0x318 PUSH2 0x5B1 CALLDATASIZE PUSH1 0x4 PUSH2 0x3E69 JUMP JUMPDEST PUSH2 0x11F8 JUMP JUMPDEST CALLVALUE DUP1 ISZERO PUSH2 0x5C2 JUMPI PUSH1 0x0 DUP1 REVERT JUMPDEST POP PUSH2 0x318 PUSH2 0x1203 JUMP JUMPDEST CALLVALUE DUP1 ISZERO PUSH2 0x5D7 JUMPI PUSH1 0x0 DUP1 REVERT JUMPDEST POP PUSH2 0x255 PUSH2 0x120E JUMP JUMPDEST CALLVALUE DUP1 ISZERO PUSH2 0x5EC JUMPI PUSH1 0x0 DUP1 REVERT JUMPDEST POP PUSH2 0x318 PUSH2 0x5FB CALLDATASIZE PUSH1 0x4 PUSH2 0x3E69 JUMP JUMPDEST PUSH2 0x1278 JUMP JUMPDEST CALLVALUE DUP1 ISZERO PUSH2 0x60C JUMPI PUSH1 0x0 DUP1 REVERT JUMPDEST POP PUSH2 0x255 PUSH2 0x61B CALLDATASIZE PUSH1 0x4 PUSH2 0x3B13 JUMP JUMPDEST PUSH2 0x12A7 JUMP JUMPDEST CALLVALUE DUP1 ISZERO PUSH2 0x62C JUMPI PUSH1 0x0 DUP1 REVERT JUMPDEST POP PUSH2 0x318 PUSH2 0x63B CALLDATASIZE PUSH1 0x4 PUSH2 0x3B6E JUMP JUMPDEST PUSH2 0x1328 JUMP JUMPDEST CALLVALUE DUP1 ISZERO PUSH2 0x64C JUMPI PUSH1 0x0 DUP1 REVERT JUMPDEST POP PUSH1 0x6 SLOAD PUSH1 0x1 PUSH1 0x1 PUSH1 0xA0 SHL SUB AND JUMPDEST PUSH1 0x40 MLOAD PUSH1 0x1 PUSH1 0x1 PUSH1 0xA0 SHL SUB SWAP1 SWAP2 AND DUP2 MSTORE PUSH1 0x20 ADD PUSH2 0x2CE JUMP JUMPDEST CALLVALUE DUP1 ISZERO PUSH2 0x67E JUMPI PUSH1 0x0 DUP1 REVERT JUMPDEST POP PUSH2 0x318 PUSH2 0x68D CALLDATASIZE PUSH1 0x4 PUSH2 0x3CA9 JUMP JUMPDEST PUSH2 0x1362 JUMP JUMPDEST CALLVALUE DUP1 ISZERO PUSH2 0x69E JUMPI PUSH1 0x0 DUP1 REVERT JUMPDEST POP PUSH1 0x40 DUP1 MLOAD DUP1 DUP3 ADD SWAP1 SWAP2 MSTORE PUSH1 0x1A DUP2 MSTORE PUSH32 0x737570706F72743D627261766F2671756F72756D3D627261766F000000000000 PUSH1 0x20 DUP3 ADD MSTORE PUSH2 0x33B JUMP JUMPDEST CALLVALUE DUP1 ISZERO PUSH2 0x6E4 JUMPI PUSH1 0x0 DUP1 REVERT JUMPDEST POP PUSH2 0x255 PUSH2 0x6F3 CALLDATASIZE PUSH1 0x4 PUSH2 0x3E69 JUMP JUMPDEST PUSH2 0x1387 JUMP JUMPDEST CALLVALUE DUP1 ISZERO PUSH2 0x704 JUMPI PUSH1 0x0 DUP1 REVERT JUMPDEST POP PUSH2 0x318 PUSH32 0x150214D74D59B7D1E90C73FC22EF3D991DD0A76B046543D4D80AB92D2A50328F DUP2 JUMP JUMPDEST CALLVALUE DUP1 ISZERO PUSH2 0x738 JUMPI PUSH1 0x0 DUP1 REVERT JUMPDEST POP PUSH2 0x7C6 PUSH2 0x747 CALLDATASIZE PUSH1 0x4 PUSH2 0x3E82 JUMP JUMPDEST PUSH1 0x40 DUP1 MLOAD PUSH1 0x60 DUP2 ADD DUP3 MSTORE PUSH1 0x0 DUP1 DUP3 MSTORE PUSH1 0x20 DUP3 ADD DUP2 SWAP1 MSTORE SWAP2 DUP2 ADD SWAP2 SWAP1 SWAP2 MSTORE POP PUSH1 0x0 SWAP2 DUP3 MSTORE PUSH1 0x2 PUSH1 0x20 SWAP1 DUP2 MSTORE PUSH1 0x40 DUP1 DUP5 KECCAK256 PUSH1 0x1 PUSH1 0x1 PUSH1 0xA0 SHL SUB SWAP4 SWAP1 SWAP4 AND DUP5 MSTORE PUSH1 0x8 SWAP1 SWAP3 ADD DUP2 MSTORE SWAP2 DUP2 SWAP1 KECCAK256 DUP2 MLOAD PUSH1 0x60 DUP2 ADD DUP4 MSTORE SWAP1 SLOAD PUSH1 0xFF DUP1 DUP3 AND ISZERO ISZERO DUP4 MSTORE PUSH2 0x100 DUP3 DIV AND SWAP4 DUP3 ADD SWAP4 SWAP1 SWAP4 MSTORE PUSH3 0x10000 SWAP1 SWAP3 DIV PUSH1 0x1 PUSH1 0x1 PUSH1 0x60 SHL SUB AND SWAP1 DUP3 ADD MSTORE SWAP1 JUMP JUMPDEST PUSH1 0x40 DUP1 MLOAD DUP3 MLOAD ISZERO ISZERO DUP2 MSTORE PUSH1 0x20 DUP1 DUP5 ADD MLOAD PUSH1 0xFF AND SWAP1 DUP3 ADD MSTORE SWAP2 DUP2 ADD MLOAD PUSH1 0x1 PUSH1 0x1 PUSH1 0x60 SHL SUB AND SWAP1 DUP3 ADD MSTORE PUSH1 0x60 ADD PUSH2 0x2CE JUMP JUMPDEST CALLVALUE DUP1 ISZERO PUSH2 0x802 JUMPI PUSH1 0x0 DUP1 REVERT JUMPDEST POP PUSH2 0x255 PUSH2 0x811 CALLDATASIZE PUSH1 0x4 PUSH2 0x3E69 JUMP JUMPDEST PUSH2 0x15F5 JUMP JUMPDEST CALLVALUE DUP1 ISZERO PUSH2 0x822 JUMPI PUSH1 0x0 DUP1 REVERT JUMPDEST POP PUSH2 0x318 PUSH2 0x831 CALLDATASIZE PUSH1 0x4 PUSH2 0x3AE7 JUMP JUMPDEST PUSH2 0x1636 JUMP JUMPDEST CALLVALUE DUP1 ISZERO PUSH2 0x842 JUMPI PUSH1 0x0 DUP1 REVERT JUMPDEST POP PUSH2 0x255 PUSH2 0x851 CALLDATASIZE PUSH1 0x4 PUSH2 0x3E69 JUMP JUMPDEST PUSH2 0x1649 JUMP JUMPDEST CALLVALUE DUP1 ISZERO PUSH2 0x862 JUMPI PUSH1 0x0 DUP1 REVERT JUMPDEST POP PUSH2 0x318 PUSH2 0x871 CALLDATASIZE PUSH1 0x4 PUSH2 0x3E69 JUMP JUMPDEST POP PUSH1 0x0 SWAP1 JUMP JUMPDEST CALLVALUE DUP1 ISZERO PUSH2 0x883 JUMPI PUSH1 0x0 DUP1 REVERT JUMPDEST POP PUSH2 0x65A PUSH32 0x0 DUP2 JUMP JUMPDEST PUSH2 0x255 PUSH2 0x8B9 CALLDATASIZE PUSH1 0x4 PUSH2 0x3E69 JUMP JUMPDEST PUSH2 0x168A JUMP JUMPDEST PUSH1 0x0 PUSH2 0x8D2 PUSH1 0x6 SLOAD PUSH1 0x1 PUSH1 0x1 PUSH1 0xA0 SHL SUB AND SWAP1 JUMP JUMPDEST SWAP1 POP SWAP1 JUMP JUMPDEST DUP1 PUSH1 0x0 DUP1 DUP1 DUP1 DUP1 DUP1 DUP1 DUP1 DUP1 PUSH2 0x8EB DUP11 PUSH2 0x11F8 JUMP JUMPDEST SWAP8 POP PUSH2 0x8F6 DUP12 PUSH2 0xA58 JUMP JUMPDEST SWAP7 POP PUSH2 0x901 DUP12 PUSH2 0x1278 JUMP JUMPDEST PUSH1 0x0 DUP13 DUP2 MSTORE PUSH1 0x2 PUSH1 0x20 MSTORE PUSH1 0x40 DUP2 KECCAK256 DUP1 SLOAD PUSH1 0x5 DUP3 ADD SLOAD PUSH1 0x6 DUP4 ADD SLOAD PUSH1 0x7 DUP5 ADD SLOAD PUSH1 0x1 PUSH1 0x1 PUSH1 0xA0 SHL SUB SWAP1 SWAP4 AND SWAP15 POP SWAP5 SWAP11 POP SWAP9 POP SWAP3 SWAP7 POP SWAP2 SWAP5 POP PUSH2 0x941 DUP14 PUSH2 0xDB4 JUMP JUMPDEST SWAP1 POP PUSH1 0x2 DUP2 PUSH1 0x7 DUP2 GT ISZERO PUSH2 0x957 JUMPI PUSH2 0x957 PUSH2 0x44B0 JUMP JUMPDEST EQ SWAP4 POP PUSH1 0x7 DUP2 PUSH1 0x7 DUP2 GT ISZERO PUSH2 0x96E JUMPI PUSH2 0x96E PUSH2 0x44B0 JUMP JUMPDEST EQ SWAP3 POP POP POP SWAP2 SWAP4 SWAP6 SWAP8 SWAP10 POP SWAP2 SWAP4 SWAP6 SWAP8 SWAP10 JUMP JUMPDEST PUSH1 0x0 PUSH2 0x98B DUP3 PUSH2 0x18F8 JUMP JUMPDEST SWAP3 SWAP2 POP POP JUMP JUMPDEST PUSH1 0x60 PUSH1 0x0 DUP1 SLOAD PUSH2 0x9A0 SWAP1 PUSH2 0x4444 JUMP JUMPDEST DUP1 PUSH1 0x1F ADD PUSH1 0x20 DUP1 SWAP2 DIV MUL PUSH1 0x20 ADD PUSH1 0x40 MLOAD SWAP1 DUP2 ADD PUSH1 0x40 MSTORE DUP1 SWAP3 SWAP2 SWAP1 DUP2 DUP2 MSTORE PUSH1 0x20 ADD DUP3 DUP1 SLOAD PUSH2 0x9CC SWAP1 PUSH2 0x4444 JUMP JUMPDEST DUP1 ISZERO PUSH2 0xA19 JUMPI DUP1 PUSH1 0x1F LT PUSH2 0x9EE JUMPI PUSH2 0x100 DUP1 DUP4 SLOAD DIV MUL DUP4 MSTORE SWAP2 PUSH1 0x20 ADD SWAP2 PUSH2 0xA19 JUMP JUMPDEST DUP3 ADD SWAP2 SWAP1 PUSH1 0x0 MSTORE PUSH1 0x20 PUSH1 0x0 KECCAK256 SWAP1 JUMPDEST DUP2 SLOAD DUP2 MSTORE SWAP1 PUSH1 0x1 ADD SWAP1 PUSH1 0x20 ADD DUP1 DUP4 GT PUSH2 0x9FC JUMPI DUP3 SWAP1 SUB PUSH1 0x1F AND DUP3 ADD SWAP2 JUMPDEST POP POP POP POP POP SWAP1 POP SWAP1 JUMP JUMPDEST PUSH1 0x0 PUSH2 0xA31 DUP6 DUP6 DUP6 DUP6 PUSH2 0x191D JUMP JUMPDEST SWAP6 SWAP5 POP POP POP POP POP JUMP JUMPDEST PUSH1 0x0 PUSH2 0x8D2 PUSH2 0x871 PUSH1 0x1 NUMBER PUSH2 0x4401 JUMP JUMPDEST PUSH1 0x0 PUSH2 0xA31 DUP6 DUP6 DUP6 DUP6 PUSH2 0x1CC4 JUMP JUMPDEST PUSH1 0x0 DUP2 DUP2 MSTORE PUSH1 0x1 PUSH1 0x20 SWAP1 DUP2 MSTORE PUSH1 0x40 DUP1 DUP4 KECCAK256 DUP2 MLOAD SWAP3 DUP4 ADD SWAP1 SWAP2 MSTORE SLOAD PUSH1 0x1 PUSH1 0x1 PUSH1 0x40 SHL SUB AND SWAP1 DUP2 SWAP1 MSTORE JUMPDEST PUSH1 0x1 PUSH1 0x1 PUSH1 0x40 SHL SUB AND SWAP3 SWAP2 POP POP JUMP JUMPDEST PUSH1 0x60 DUP1 PUSH1 0x60 DUP1 PUSH1 0x0 PUSH1 0x2 PUSH1 0x0 DUP8 DUP2 MSTORE PUSH1 0x20 ADD SWAP1 DUP2 MSTORE PUSH1 0x20 ADD PUSH1 0x0 KECCAK256 SWAP1 POP DUP1 PUSH1 0x1 ADD DUP2 PUSH1 0x2 ADD DUP3 PUSH1 0x3 ADD DUP4 PUSH1 0x4 ADD DUP4 DUP1 SLOAD DUP1 PUSH1 0x20 MUL PUSH1 0x20 ADD PUSH1 0x40 MLOAD SWAP1 DUP2 ADD PUSH1 0x40 MSTORE DUP1 SWAP3 SWAP2 SWAP1 DUP2 DUP2 MSTORE PUSH1 0x20 ADD DUP3 DUP1 SLOAD DUP1 ISZERO PUSH2 0xB11 JUMPI PUSH1 0x20 MUL DUP3 ADD SWAP2 SWAP1 PUSH1 0x0 MSTORE PUSH1 0x20 PUSH1 0x0 KECCAK256 SWAP1 JUMPDEST DUP2 SLOAD PUSH1 0x1 PUSH1 0x1 PUSH1 0xA0 SHL SUB AND DUP2 MSTORE PUSH1 0x1 SWAP1 SWAP2 ADD SWAP1 PUSH1 0x20 ADD DUP1 DUP4 GT PUSH2 0xAF3 JUMPI JUMPDEST POP POP POP POP POP SWAP4 POP DUP3 DUP1 SLOAD DUP1 PUSH1 0x20 MUL PUSH1 0x20 ADD PUSH1 0x40 MLOAD SWAP1 DUP2 ADD PUSH1 0x40 MSTORE DUP1 SWAP3 SWAP2 SWAP1 DUP2 DUP2 MSTORE PUSH1 0x20 ADD DUP3 DUP1 SLOAD DUP1 ISZERO PUSH2 0xB63 JUMPI PUSH1 0x20 MUL DUP3 ADD SWAP2 SWAP1 PUSH1 0x0 MSTORE PUSH1 0x20 PUSH1 0x0 KECCAK256 SWAP1 JUMPDEST DUP2 SLOAD DUP2 MSTORE PUSH1 0x20 ADD SWAP1 PUSH1 0x1 ADD SWAP1 DUP1 DUP4 GT PUSH2 0xB4F JUMPI JUMPDEST POP POP POP POP POP SWAP3 POP DUP2 DUP1 SLOAD DUP1 PUSH1 0x20 MUL PUSH1 0x20 ADD PUSH1 0x40 MLOAD SWAP1 DUP2 ADD PUSH1 0x40 MSTORE DUP1 SWAP3 SWAP2 SWAP1 DUP2 DUP2 MSTORE PUSH1 0x20 ADD PUSH1 0x0 SWAP1 JUMPDEST DUP3 DUP3 LT ISZERO PUSH2 0xC37 JUMPI DUP4 DUP3 SWAP1 PUSH1 0x0 MSTORE PUSH1 0x20 PUSH1 0x0 KECCAK256 ADD DUP1 SLOAD PUSH2 0xBAA SWAP1 PUSH2 0x4444 JUMP JUMPDEST DUP1 PUSH1 0x1F ADD PUSH1 0x20 DUP1 SWAP2 DIV MUL PUSH1 0x20 ADD PUSH1 0x40 MLOAD SWAP1 DUP2 ADD PUSH1 0x40 MSTORE DUP1 SWAP3 SWAP2 SWAP1 DUP2 DUP2 MSTORE PUSH1 0x20 ADD DUP3 DUP1 SLOAD PUSH2 0xBD6 SWAP1 PUSH2 0x4444 JUMP JUMPDEST DUP1 ISZERO PUSH2 0xC23 JUMPI DUP1 PUSH1 0x1F LT PUSH2 0xBF8 JUMPI PUSH2 0x100 DUP1 DUP4 SLOAD DIV MUL DUP4 MSTORE SWAP2 PUSH1 0x20 ADD SWAP2 PUSH2 0xC23 JUMP JUMPDEST DUP3 ADD SWAP2 SWAP1 PUSH1 0x0 MSTORE PUSH1 0x20 PUSH1 0x0 KECCAK256 SWAP1 JUMPDEST DUP2 SLOAD DUP2 MSTORE SWAP1 PUSH1 0x1 ADD SWAP1 PUSH1 0x20 ADD DUP1 DUP4 GT PUSH2 0xC06 JUMPI DUP3 SWAP1 SUB PUSH1 0x1F AND DUP3 ADD SWAP2 JUMPDEST POP POP POP POP POP DUP2 MSTORE PUSH1 0x20 ADD SWAP1 PUSH1 0x1 ADD SWAP1 PUSH2 0xB8B JUMP JUMPDEST POP POP POP POP SWAP2 POP DUP1 DUP1 SLOAD DUP1 PUSH1 0x20 MUL PUSH1 0x20 ADD PUSH1 0x40 MLOAD SWAP1 DUP2 ADD PUSH1 0x40 MSTORE DUP1 SWAP3 SWAP2 SWAP1 DUP2 DUP2 MSTORE PUSH1 0x20 ADD PUSH1 0x0 SWAP1 JUMPDEST DUP3 DUP3 LT ISZERO PUSH2 0xD0A JUMPI DUP4 DUP3 SWAP1 PUSH1 0x0 MSTORE PUSH1 0x20 PUSH1 0x0 KECCAK256 ADD DUP1 SLOAD PUSH2 0xC7D SWAP1 PUSH2 0x4444 JUMP JUMPDEST DUP1 PUSH1 0x1F ADD PUSH1 0x20 DUP1 SWAP2 DIV MUL PUSH1 0x20 ADD PUSH1 0x40 MLOAD SWAP1 DUP2 ADD PUSH1 0x40 MSTORE DUP1 SWAP3 SWAP2 SWAP1 DUP2 DUP2 MSTORE PUSH1 0x20 ADD DUP3 DUP1 SLOAD PUSH2 0xCA9 SWAP1 PUSH2 0x4444 JUMP JUMPDEST DUP1 ISZERO PUSH2 0xCF6 JUMPI DUP1 PUSH1 0x1F LT PUSH2 0xCCB JUMPI PUSH2 0x100 DUP1 DUP4 SLOAD DIV MUL DUP4 MSTORE SWAP2 PUSH1 0x20 ADD SWAP2 PUSH2 0xCF6 JUMP JUMPDEST DUP3 ADD SWAP2 SWAP1 PUSH1 0x0 MSTORE PUSH1 0x20 PUSH1 0x0 KECCAK256 SWAP1 JUMPDEST DUP2 SLOAD DUP2 MSTORE SWAP1 PUSH1 0x1 ADD SWAP1 PUSH1 0x20 ADD DUP1 DUP4 GT PUSH2 0xCD9 JUMPI DUP3 SWAP1 SUB PUSH1 0x1F AND DUP3 ADD SWAP2 JUMPDEST POP POP POP POP POP DUP2 MSTORE PUSH1 0x20 ADD SWAP1 PUSH1 0x1 ADD SWAP1 PUSH2 0xC5E JUMP JUMPDEST POP POP POP POP SWAP1 POP SWAP5 POP SWAP5 POP SWAP5 POP SWAP5 POP POP SWAP2 SWAP4 POP SWAP2 SWAP4 JUMP JUMPDEST PUSH1 0x40 DUP1 MLOAD PUSH32 0x150214D74D59B7D1E90C73FC22EF3D991DD0A76B046543D4D80AB92D2A50328F PUSH1 0x20 DUP3 ADD MSTORE SWAP1 DUP2 ADD DUP7 SWAP1 MSTORE PUSH1 0xFF DUP6 AND PUSH1 0x60 DUP3 ADD MSTORE PUSH1 0x0 SWAP1 DUP2 SWAP1 PUSH2 0xD8C SWAP1 PUSH2 0xD84 SWAP1 PUSH1 0x80 ADD PUSH1 0x40 MLOAD PUSH1 0x20 DUP2 DUP4 SUB SUB DUP2 MSTORE SWAP1 PUSH1 0x40 MSTORE DUP1 MLOAD SWAP1 PUSH1 0x20 ADD KECCAK256 PUSH2 0x1D97 JUMP JUMPDEST DUP7 DUP7 DUP7 PUSH2 0x1DE5 JUMP JUMPDEST SWAP1 POP PUSH2 0xDA9 DUP8 DUP3 DUP9 PUSH1 0x40 MLOAD DUP1 PUSH1 0x20 ADD PUSH1 0x40 MSTORE DUP1 PUSH1 0x0 DUP2 MSTORE POP PUSH2 0x1E03 JUMP JUMPDEST SWAP8 SWAP7 POP POP POP POP POP POP POP JUMP JUMPDEST PUSH1 0x0 PUSH2 0x98B DUP3 PUSH2 0x1F0E JUMP JUMPDEST PUSH1 0x0 DUP2 DUP2 MSTORE PUSH1 0x2 PUSH1 0x20 MSTORE PUSH1 0x40 SWAP1 KECCAK256 DUP1 SLOAD PUSH1 0x1 PUSH1 0x1 PUSH1 0xA0 SHL SUB AND CALLER PUSH1 0x1 PUSH1 0x1 PUSH1 0xA0 SHL SUB AND EQ DUP1 PUSH2 0xE0D JUMPI POP PUSH2 0xDF1 PUSH2 0x1203 JUMP JUMPDEST DUP2 SLOAD PUSH2 0xE0B SWAP1 PUSH1 0x1 PUSH1 0x1 PUSH1 0xA0 SHL SUB AND PUSH2 0x831 PUSH1 0x1 NUMBER PUSH2 0x4401 JUMP JUMPDEST LT JUMPDEST PUSH2 0xE6E JUMPI PUSH1 0x40 MLOAD PUSH3 0x461BCD PUSH1 0xE5 SHL DUP2 MSTORE PUSH1 0x20 PUSH1 0x4 DUP3 ADD MSTORE PUSH1 0x27 PUSH1 0x24 DUP3 ADD MSTORE PUSH32 0x476F7665726E6F72427261766F3A2070726F706F7365722061626F7665207468 PUSH1 0x44 DUP3 ADD MSTORE PUSH7 0x1C995CDA1BDB19 PUSH1 0xCA SHL PUSH1 0x64 DUP3 ADD MSTORE PUSH1 0x84 ADD JUMPDEST PUSH1 0x40 MLOAD DUP1 SWAP2 SUB SWAP1 REVERT JUMPDEST PUSH2 0x10D7 DUP2 PUSH1 0x1 ADD DUP1 SLOAD DUP1 PUSH1 0x20 MUL PUSH1 0x20 ADD PUSH1 0x40 MLOAD SWAP1 DUP2 ADD PUSH1 0x40 MSTORE DUP1 SWAP3 SWAP2 SWAP1 DUP2 DUP2 MSTORE PUSH1 0x20 ADD DUP3 DUP1 SLOAD DUP1 ISZERO PUSH2 0xEC9 JUMPI PUSH1 0x20 MUL DUP3 ADD SWAP2 SWAP1 PUSH1 0x0 MSTORE PUSH1 0x20 PUSH1 0x0 KECCAK256 SWAP1 JUMPDEST DUP2 SLOAD PUSH1 0x1 PUSH1 0x1 PUSH1 0xA0 SHL SUB AND DUP2 MSTORE PUSH1 0x1 SWAP1 SWAP2 ADD SWAP1 PUSH1 0x20 ADD DUP1 DUP4 GT PUSH2 0xEAB JUMPI JUMPDEST POP POP POP POP POP DUP3 PUSH1 0x2 ADD DUP1 SLOAD DUP1 PUSH1 0x20 MUL PUSH1 0x20 ADD PUSH1 0x40 MLOAD SWAP1 DUP2 ADD PUSH1 0x40 MSTORE DUP1 SWAP3 SWAP2 SWAP1 DUP2 DUP2 MSTORE PUSH1 0x20 ADD DUP3 DUP1 SLOAD DUP1 ISZERO PUSH2 0xF1C JUMPI PUSH1 0x20 MUL DUP3 ADD SWAP2 SWAP1 PUSH1 0x0 MSTORE PUSH1 0x20 PUSH1 0x0 KECCAK256 SWAP1 JUMPDEST DUP2 SLOAD DUP2 MSTORE PUSH1 0x20 ADD SWAP1 PUSH1 0x1 ADD SWAP1 DUP1 DUP4 GT PUSH2 0xF08 JUMPI JUMPDEST POP POP POP POP POP PUSH2 0x10CD DUP5 PUSH1 0x3 ADD DUP1 SLOAD DUP1 PUSH1 0x20 MUL PUSH1 0x20 ADD PUSH1 0x40 MLOAD SWAP1 DUP2 ADD PUSH1 0x40 MSTORE DUP1 SWAP3 SWAP2 SWAP1 DUP2 DUP2 MSTORE PUSH1 0x20 ADD PUSH1 0x0 SWAP1 JUMPDEST DUP3 DUP3 LT ISZERO PUSH2 0xFF4 JUMPI DUP4 DUP3 SWAP1 PUSH1 0x0 MSTORE PUSH1 0x20 PUSH1 0x0 KECCAK256 ADD DUP1 SLOAD PUSH2 0xF67 SWAP1 PUSH2 0x4444 JUMP JUMPDEST DUP1 PUSH1 0x1F ADD PUSH1 0x20 DUP1 SWAP2 DIV MUL PUSH1 0x20 ADD PUSH1 0x40 MLOAD SWAP1 DUP2 ADD PUSH1 0x40 MSTORE DUP1 SWAP3 SWAP2 SWAP1 DUP2 DUP2 MSTORE PUSH1 0x20 ADD DUP3 DUP1 SLOAD PUSH2 0xF93 SWAP1 PUSH2 0x4444 JUMP JUMPDEST DUP1 ISZERO PUSH2 0xFE0 JUMPI DUP1 PUSH1 0x1F LT PUSH2 0xFB5 JUMPI PUSH2 0x100 DUP1 DUP4 SLOAD DIV MUL DUP4 MSTORE SWAP2 PUSH1 0x20 ADD SWAP2 PUSH2 0xFE0 JUMP JUMPDEST DUP3 ADD SWAP2 SWAP1 PUSH1 0x0 MSTORE PUSH1 0x20 PUSH1 0x0 KECCAK256 SWAP1 JUMPDEST DUP2 SLOAD DUP2 MSTORE SWAP1 PUSH1 0x1 ADD SWAP1 PUSH1 0x20 ADD DUP1 DUP4 GT PUSH2 0xFC3 JUMPI DUP3 SWAP1 SUB PUSH1 0x1F AND DUP3 ADD SWAP2 JUMPDEST POP POP POP POP POP DUP2 MSTORE PUSH1 0x20 ADD SWAP1 PUSH1 0x1 ADD SWAP1 PUSH2 0xF48 JUMP JUMPDEST POP POP POP PUSH1 0x4 DUP8 ADD DUP1 SLOAD PUSH1 0x40 DUP1 MLOAD PUSH1 0x20 DUP1 DUP5 MUL DUP3 ADD DUP2 ADD SWAP1 SWAP3 MSTORE DUP3 DUP2 MSTORE SWAP4 POP PUSH1 0x0 SWAP1 DUP5 ADD JUMPDEST DUP3 DUP3 LT ISZERO PUSH2 0x10C4 JUMPI DUP4 DUP3 SWAP1 PUSH1 0x0 MSTORE PUSH1 0x20 PUSH1 0x0 KECCAK256 ADD DUP1 SLOAD PUSH2 0x1037 SWAP1 PUSH2 0x4444 JUMP JUMPDEST DUP1 PUSH1 0x1F ADD PUSH1 0x20 DUP1 SWAP2 DIV MUL PUSH1 0x20 ADD PUSH1 0x40 MLOAD SWAP1 DUP2 ADD PUSH1 0x40 MSTORE DUP1 SWAP3 SWAP2 SWAP1 DUP2 DUP2 MSTORE PUSH1 0x20 ADD DUP3 DUP1 SLOAD PUSH2 0x1063 SWAP1 PUSH2 0x4444 JUMP JUMPDEST DUP1 ISZERO PUSH2 0x10B0 JUMPI DUP1 PUSH1 0x1F LT PUSH2 0x1085 JUMPI PUSH2 0x100 DUP1 DUP4 SLOAD DIV MUL DUP4 MSTORE SWAP2 PUSH1 0x20 ADD SWAP2 PUSH2 0x10B0 JUMP JUMPDEST DUP3 ADD SWAP2 SWAP1 PUSH1 0x0 MSTORE PUSH1 0x20 PUSH1 0x0 KECCAK256 SWAP1 JUMPDEST DUP2 SLOAD DUP2 MSTORE SWAP1 PUSH1 0x1 ADD SWAP1 PUSH1 0x20 ADD DUP1 DUP4 GT PUSH2 0x1093 JUMPI DUP3 SWAP1 SUB PUSH1 0x1F AND DUP3 ADD SWAP2 JUMPDEST POP POP POP POP POP DUP2 MSTORE PUSH1 0x20 ADD SWAP1 PUSH1 0x1 ADD SWAP1 PUSH2 0x1018 JUMP JUMPDEST POP POP POP POP PUSH2 0x1FFE JUMP JUMPDEST DUP5 PUSH1 0x9 ADD SLOAD PUSH2 0x215E JUMP JUMPDEST POP POP POP JUMP JUMPDEST PUSH1 0x0 PUSH2 0xA31 DUP6 DUP6 DUP6 DUP6 PUSH2 0x215E JUMP JUMPDEST PUSH1 0x0 DUP1 CALLER SWAP1 POP PUSH2 0x110B DUP5 DUP3 DUP6 PUSH1 0x40 MLOAD DUP1 PUSH1 0x20 ADD PUSH1 0x40 MSTORE DUP1 PUSH1 0x0 DUP2 MSTORE POP PUSH2 0x1E03 JUMP JUMPDEST SWAP5 SWAP4 POP POP POP POP JUMP JUMPDEST PUSH2 0x111B PUSH2 0x8BE JUMP JUMPDEST PUSH1 0x1 PUSH1 0x1 PUSH1 0xA0 SHL SUB AND CALLER PUSH1 0x1 PUSH1 0x1 PUSH1 0xA0 SHL SUB AND EQ PUSH2 0x114B JUMPI PUSH1 0x40 MLOAD PUSH3 0x461BCD PUSH1 0xE5 SHL DUP2 MSTORE PUSH1 0x4 ADD PUSH2 0xE65 SWAP1 PUSH2 0x41C0 JUMP JUMPDEST PUSH2 0x1154 DUP2 PUSH2 0x216C JUMP JUMPDEST POP JUMP JUMPDEST PUSH1 0x0 DUP1 CALLER SWAP1 POP PUSH2 0x119F DUP7 DUP3 DUP8 DUP8 DUP8 DUP1 DUP1 PUSH1 0x1F ADD PUSH1 0x20 DUP1 SWAP2 DIV MUL PUSH1 0x20 ADD PUSH1 0x40 MLOAD SWAP1 DUP2 ADD PUSH1 0x40 MSTORE DUP1 SWAP4 SWAP3 SWAP2 SWAP1 DUP2 DUP2 MSTORE PUSH1 0x20 ADD DUP4 DUP4 DUP1 DUP3 DUP5 CALLDATACOPY PUSH1 0x0 SWAP3 ADD SWAP2 SWAP1 SWAP2 MSTORE POP PUSH2 0x1E03 SWAP3 POP POP POP JUMP JUMPDEST SWAP7 SWAP6 POP POP POP POP POP POP JUMP JUMPDEST PUSH1 0x0 PUSH2 0xA31 DUP6 DUP6 DUP6 DUP6 PUSH2 0x21AD JUMP JUMPDEST PUSH2 0x11BF PUSH2 0x8BE JUMP JUMPDEST PUSH1 0x1 PUSH1 0x1 PUSH1 0xA0 SHL SUB AND CALLER PUSH1 0x1 PUSH1 0x1 PUSH1 0xA0 SHL SUB AND EQ PUSH2 0x11EF JUMPI PUSH1 0x40 MLOAD PUSH3 0x461BCD PUSH1 0xE5 SHL DUP2 MSTORE PUSH1 0x4 ADD PUSH2 0xE65 SWAP1 PUSH2 0x41C0 JUMP JUMPDEST PUSH2 0x1154 DUP2 PUSH2 0x2215 JUMP JUMPDEST PUSH1 0x0 PUSH2 0x98B DUP3 PUSH2 0x227E JUMP JUMPDEST PUSH1 0x0 PUSH2 0x8D2 PUSH1 0x5 SLOAD SWAP1 JUMP JUMPDEST PUSH1 0x6 PUSH1 0x0 SWAP1 SLOAD SWAP1 PUSH2 0x100 EXP SWAP1 DIV PUSH1 0x1 PUSH1 0x1 PUSH1 0xA0 SHL SUB AND PUSH1 0x1 PUSH1 0x1 PUSH1 0xA0 SHL SUB AND PUSH4 0xE18B681 PUSH1 0x40 MLOAD DUP2 PUSH4 0xFFFFFFFF AND PUSH1 0xE0 SHL DUP2 MSTORE PUSH1 0x4 ADD PUSH1 0x0 PUSH1 0x40 MLOAD DUP1 DUP4 SUB DUP2 PUSH1 0x0 DUP8 DUP1 EXTCODESIZE ISZERO DUP1 ISZERO PUSH2 0x125E JUMPI PUSH1 0x0 DUP1 REVERT JUMPDEST POP GAS CALL ISZERO DUP1 ISZERO PUSH2 0x1272 JUMPI RETURNDATASIZE PUSH1 0x0 DUP1 RETURNDATACOPY RETURNDATASIZE PUSH1 0x0 REVERT JUMPDEST POP POP POP POP JUMP JUMPDEST PUSH1 0x0 DUP2 DUP2 MSTORE PUSH1 0x1 PUSH1 0x20 DUP2 DUP2 MSTORE PUSH1 0x40 DUP1 DUP5 KECCAK256 DUP2 MLOAD SWAP3 DUP4 ADD SWAP1 SWAP2 MSTORE SWAP1 SWAP2 ADD SLOAD PUSH1 0x1 PUSH1 0x1 PUSH1 0x40 SHL SUB AND SWAP1 DUP2 SWAP1 MSTORE PUSH2 0xA80 JUMP JUMPDEST PUSH2 0x12AF PUSH2 0x8BE JUMP JUMPDEST PUSH1 0x1 PUSH1 0x1 PUSH1 0xA0 SHL SUB AND CALLER PUSH1 0x1 PUSH1 0x1 PUSH1 0xA0 SHL SUB AND EQ PUSH2 0x12DF JUMPI PUSH1 0x40 MLOAD PUSH3 0x461BCD PUSH1 0xE5 SHL DUP2 MSTORE PUSH1 0x4 ADD PUSH2 0xE65 SWAP1 PUSH2 0x41C0 JUMP JUMPDEST PUSH2 0x1321 DUP5 DUP4 DUP4 DUP1 DUP1 PUSH1 0x1F ADD PUSH1 0x20 DUP1 SWAP2 DIV MUL PUSH1 0x20 ADD PUSH1 0x40 MLOAD SWAP1 DUP2 ADD PUSH1 0x40 MSTORE DUP1 SWAP4 SWAP3 SWAP2 SWAP1 DUP2 DUP2 MSTORE PUSH1 0x20 ADD DUP4 DUP4 DUP1 DUP3 DUP5 CALLDATACOPY PUSH1 0x0 SWAP3 ADD SWAP2 SWAP1 SWAP2 MSTORE POP DUP9 SWAP3 POP PUSH2 0x22AA SWAP2 POP POP JUMP JUMPDEST POP POP POP POP POP JUMP JUMPDEST PUSH1 0x0 DUP5 DUP5 DUP5 DUP5 PUSH1 0x40 MLOAD PUSH1 0x20 ADD PUSH2 0x1341 SWAP5 SWAP4 SWAP3 SWAP2 SWAP1 PUSH2 0x40ED JUMP JUMPDEST PUSH1 0x40 DUP1 MLOAD PUSH1 0x1F NOT DUP2 DUP5 SUB ADD DUP2 MSTORE SWAP2 SWAP1 MSTORE DUP1 MLOAD PUSH1 0x20 SWAP1 SWAP2 ADD KECCAK256 SWAP6 SWAP5 POP POP POP POP POP JUMP JUMPDEST PUSH1 0x0 PUSH2 0x1372 CALLER DUP8 DUP8 DUP8 DUP8 DUP8 PUSH2 0x22D0 JUMP JUMPDEST PUSH2 0x119F DUP7 DUP7 PUSH2 0x1381 DUP8 DUP8 PUSH2 0x1FFE JUMP JUMPDEST DUP6 PUSH2 0x11A9 JUMP JUMPDEST PUSH1 0x0 DUP2 DUP2 MSTORE PUSH1 0x2 PUSH1 0x20 SWAP1 DUP2 MSTORE PUSH1 0x40 SWAP2 DUP3 SWAP1 KECCAK256 PUSH1 0x1 DUP2 ADD DUP1 SLOAD DUP5 MLOAD DUP2 DUP6 MUL DUP2 ADD DUP6 ADD SWAP1 SWAP6 MSTORE DUP1 DUP6 MSTORE SWAP2 SWAP4 PUSH2 0x10D7 SWAP4 SWAP1 SWAP3 SWAP1 DUP4 ADD DUP3 DUP3 DUP1 ISZERO PUSH2 0x13F0 JUMPI PUSH1 0x20 MUL DUP3 ADD SWAP2 SWAP1 PUSH1 0x0 MSTORE PUSH1 0x20 PUSH1 0x0 KECCAK256 SWAP1 JUMPDEST DUP2 SLOAD PUSH1 0x1 PUSH1 0x1 PUSH1 0xA0 SHL SUB AND DUP2 MSTORE PUSH1 0x1 SWAP1 SWAP2 ADD SWAP1 PUSH1 0x20 ADD DUP1 DUP4 GT PUSH2 0x13D2 JUMPI JUMPDEST POP POP POP POP POP DUP3 PUSH1 0x2 ADD DUP1 SLOAD DUP1 PUSH1 0x20 MUL PUSH1 0x20 ADD PUSH1 0x40 MLOAD SWAP1 DUP2 ADD PUSH1 0x40 MSTORE DUP1 SWAP3 SWAP2 SWAP1 DUP2 DUP2 MSTORE PUSH1 0x20 ADD DUP3 DUP1 SLOAD DUP1 ISZERO PUSH2 0x1443 JUMPI PUSH1 0x20 MUL DUP3 ADD SWAP2 SWAP1 PUSH1 0x0 MSTORE PUSH1 0x20 PUSH1 0x0 KECCAK256 SWAP1 JUMPDEST DUP2 SLOAD DUP2 MSTORE PUSH1 0x20 ADD SWAP1 PUSH1 0x1 ADD SWAP1 DUP1 DUP4 GT PUSH2 0x142F JUMPI JUMPDEST POP POP POP POP POP PUSH2 0x15EB DUP5 PUSH1 0x3 ADD DUP1 SLOAD DUP1 PUSH1 0x20 MUL PUSH1 0x20 ADD PUSH1 0x40 MLOAD SWAP1 DUP2 ADD PUSH1 0x40 MSTORE DUP1 SWAP3 SWAP2 SWAP1 DUP2 DUP2 MSTORE PUSH1 0x20 ADD PUSH1 0x0 SWAP1 JUMPDEST DUP3 DUP3 LT ISZERO PUSH2 0x151B JUMPI DUP4 DUP3 SWAP1 PUSH1 0x0 MSTORE PUSH1 0x20 PUSH1 0x0 KECCAK256 ADD DUP1 SLOAD PUSH2 0x148E SWAP1 PUSH2 0x4444 JUMP JUMPDEST DUP1 PUSH1 0x1F ADD PUSH1 0x20 DUP1 SWAP2 DIV MUL PUSH1 0x20 ADD PUSH1 0x40 MLOAD SWAP1 DUP2 ADD PUSH1 0x40 MSTORE DUP1 SWAP3 SWAP2 SWAP1 DUP2 DUP2 MSTORE PUSH1 0x20 ADD DUP3 DUP1 SLOAD PUSH2 0x14BA SWAP1 PUSH2 0x4444 JUMP JUMPDEST DUP1 ISZERO PUSH2 0x1507 JUMPI DUP1 PUSH1 0x1F LT PUSH2 0x14DC JUMPI PUSH2 0x100 DUP1 DUP4 SLOAD DIV MUL DUP4 MSTORE SWAP2 PUSH1 0x20 ADD SWAP2 PUSH2 0x1507 JUMP JUMPDEST DUP3 ADD SWAP2 SWAP1 PUSH1 0x0 MSTORE PUSH1 0x20 PUSH1 0x0 KECCAK256 SWAP1 JUMPDEST DUP2 SLOAD DUP2 MSTORE SWAP1 PUSH1 0x1 ADD SWAP1 PUSH1 0x20 ADD DUP1 DUP4 GT PUSH2 0x14EA JUMPI DUP3 SWAP1 SUB PUSH1 0x1F AND DUP3 ADD SWAP2 JUMPDEST POP POP POP POP POP DUP2 MSTORE PUSH1 0x20 ADD SWAP1 PUSH1 0x1 ADD SWAP1 PUSH2 0x146F JUMP JUMPDEST POP POP POP PUSH1 0x4 DUP8 ADD DUP1 SLOAD PUSH1 0x40 DUP1 MLOAD PUSH1 0x20 DUP1 DUP5 MUL DUP3 ADD DUP2 ADD SWAP1 SWAP3 MSTORE DUP3 DUP2 MSTORE SWAP4 POP PUSH1 0x0 SWAP1 DUP5 ADD JUMPDEST DUP3 DUP3 LT ISZERO PUSH2 0x10C4 JUMPI DUP4 DUP3 SWAP1 PUSH1 0x0 MSTORE PUSH1 0x20 PUSH1 0x0 KECCAK256 ADD DUP1 SLOAD PUSH2 0x155E SWAP1 PUSH2 0x4444 JUMP JUMPDEST DUP1 PUSH1 0x1F ADD PUSH1 0x20 DUP1 SWAP2 DIV MUL PUSH1 0x20 ADD PUSH1 0x40 MLOAD SWAP1 DUP2 ADD PUSH1 0x40 MSTORE DUP1 SWAP3 SWAP2 SWAP1 DUP2 DUP2 MSTORE PUSH1 0x20 ADD DUP3 DUP1 SLOAD PUSH2 0x158A SWAP1 PUSH2 0x4444 JUMP JUMPDEST DUP1 ISZERO PUSH2 0x15D7 JUMPI DUP1 PUSH1 0x1F LT PUSH2 0x15AC JUMPI PUSH2 0x100 DUP1 DUP4 SLOAD DIV MUL DUP4 MSTORE SWAP2 PUSH1 0x20 ADD SWAP2 PUSH2 0x15D7 JUMP JUMPDEST DUP3 ADD SWAP2 SWAP1 PUSH1 0x0 MSTORE PUSH1 0x20 PUSH1 0x0 KECCAK256 SWAP1 JUMPDEST DUP2 SLOAD DUP2 MSTORE SWAP1 PUSH1 0x1 ADD SWAP1 PUSH1 0x20 ADD DUP1 DUP4 GT PUSH2 0x15BA JUMPI DUP3 SWAP1 SUB PUSH1 0x1F AND DUP3 ADD SWAP2 JUMPDEST POP POP POP POP POP DUP2 MSTORE PUSH1 0x20 ADD SWAP1 PUSH1 0x1 ADD SWAP1 PUSH2 0x153F JUMP JUMPDEST DUP5 PUSH1 0x9 ADD SLOAD PUSH2 0xA23 JUMP JUMPDEST PUSH2 0x15FD PUSH2 0x8BE JUMP JUMPDEST PUSH1 0x1 PUSH1 0x1 PUSH1 0xA0 SHL SUB AND CALLER PUSH1 0x1 PUSH1 0x1 PUSH1 0xA0 SHL SUB AND EQ PUSH2 0x162D JUMPI PUSH1 0x40 MLOAD PUSH3 0x461BCD PUSH1 0xE5 SHL DUP2 MSTORE PUSH1 0x4 ADD PUSH2 0xE65 SWAP1 PUSH2 0x41C0 JUMP JUMPDEST PUSH2 0x1154 DUP2 PUSH2 0x238D JUMP JUMPDEST PUSH1 0x0 PUSH2 0x1642 DUP4 DUP4 PUSH2 0x242E JUMP JUMPDEST SWAP4 SWAP3 POP POP POP JUMP JUMPDEST PUSH2 0x1651 PUSH2 0x8BE JUMP JUMPDEST PUSH1 0x1 PUSH1 0x1 PUSH1 0xA0 SHL SUB AND CALLER PUSH1 0x1 PUSH1 0x1 PUSH1 0xA0 SHL SUB AND EQ PUSH2 0x1681 JUMPI PUSH1 0x40 MLOAD PUSH3 0x461BCD PUSH1 0xE5 SHL DUP2 MSTORE PUSH1 0x4 ADD PUSH2 0xE65 SWAP1 PUSH2 0x41C0 JUMP JUMPDEST PUSH2 0x1154 DUP2 PUSH2 0x24E3 JUMP JUMPDEST PUSH1 0x0 DUP2 DUP2 MSTORE PUSH1 0x2 PUSH1 0x20 SWAP1 DUP2 MSTORE PUSH1 0x40 SWAP2 DUP3 SWAP1 KECCAK256 PUSH1 0x1 DUP2 ADD DUP1 SLOAD DUP5 MLOAD DUP2 DUP6 MUL DUP2 ADD DUP6 ADD SWAP1 SWAP6 MSTORE DUP1 DUP6 MSTORE SWAP2 SWAP4 PUSH2 0x10D7 SWAP4 SWAP1 SWAP3 SWAP1 DUP4 ADD DUP3 DUP3 DUP1 ISZERO PUSH2 0x16F3 JUMPI PUSH1 0x20 MUL DUP3 ADD SWAP2 SWAP1 PUSH1 0x0 MSTORE PUSH1 0x20 PUSH1 0x0 KECCAK256 SWAP1 JUMPDEST DUP2 SLOAD PUSH1 0x1 PUSH1 0x1 PUSH1 0xA0 SHL SUB AND DUP2 MSTORE PUSH1 0x1 SWAP1 SWAP2 ADD SWAP1 PUSH1 0x20 ADD DUP1 DUP4 GT PUSH2 0x16D5 JUMPI JUMPDEST POP POP POP POP POP DUP3 PUSH1 0x2 ADD DUP1 SLOAD DUP1 PUSH1 0x20 MUL PUSH1 0x20 ADD PUSH1 0x40 MLOAD SWAP1 DUP2 ADD PUSH1 0x40 MSTORE DUP1 SWAP3 SWAP2 SWAP1 DUP2 DUP2 MSTORE PUSH1 0x20 ADD DUP3 DUP1 SLOAD DUP1 ISZERO PUSH2 0x1746 JUMPI PUSH1 0x20 MUL DUP3 ADD SWAP2 SWAP1 PUSH1 0x0 MSTORE PUSH1 0x20 PUSH1 0x0 KECCAK256 SWAP1 JUMPDEST DUP2 SLOAD DUP2 MSTORE PUSH1 0x20 ADD SWAP1 PUSH1 0x1 ADD SWAP1 DUP1 DUP4 GT PUSH2 0x1732 JUMPI JUMPDEST POP POP POP POP POP PUSH2 0x18EE DUP5 PUSH1 0x3 ADD DUP1 SLOAD DUP1 PUSH1 0x20 MUL PUSH1 0x20 ADD PUSH1 0x40 MLOAD SWAP1 DUP2 ADD PUSH1 0x40 MSTORE DUP1 SWAP3 SWAP2 SWAP1 DUP2 DUP2 MSTORE PUSH1 0x20 ADD PUSH1 0x0 SWAP1 JUMPDEST DUP3 DUP3 LT ISZERO PUSH2 0x181E JUMPI DUP4 DUP3 SWAP1 PUSH1 0x0 MSTORE PUSH1 0x20 PUSH1 0x0 KECCAK256 ADD DUP1 SLOAD PUSH2 0x1791 SWAP1 PUSH2 0x4444 JUMP JUMPDEST DUP1 PUSH1 0x1F ADD PUSH1 0x20 DUP1 SWAP2 DIV MUL PUSH1 0x20 ADD PUSH1 0x40 MLOAD SWAP1 DUP2 ADD PUSH1 0x40 MSTORE DUP1 SWAP3 SWAP2 SWAP1 DUP2 DUP2 MSTORE PUSH1 0x20 ADD DUP3 DUP1 SLOAD PUSH2 0x17BD SWAP1 PUSH2 0x4444 JUMP JUMPDEST DUP1 ISZERO PUSH2 0x180A JUMPI DUP1 PUSH1 0x1F LT PUSH2 0x17DF JUMPI PUSH2 0x100 DUP1 DUP4 SLOAD DIV MUL DUP4 MSTORE SWAP2 PUSH1 0x20 ADD SWAP2 PUSH2 0x180A JUMP JUMPDEST DUP3 ADD SWAP2 SWAP1 PUSH1 0x0 MSTORE PUSH1 0x20 PUSH1 0x0 KECCAK256 SWAP1 JUMPDEST DUP2 SLOAD DUP2 MSTORE SWAP1 PUSH1 0x1 ADD SWAP1 PUSH1 0x20 ADD DUP1 DUP4 GT PUSH2 0x17ED JUMPI DUP3 SWAP1 SUB PUSH1 0x1F AND DUP3 ADD SWAP2 JUMPDEST POP POP POP POP POP DUP2 MSTORE PUSH1 0x20 ADD SWAP1 PUSH1 0x1 ADD SWAP1 PUSH2 0x1772 JUMP JUMPDEST POP POP POP PUSH1 0x4 DUP8 ADD DUP1 SLOAD PUSH1 0x40 DUP1 MLOAD PUSH1 0x20 DUP1 DUP5 MUL DUP3 ADD DUP2 ADD SWAP1 SWAP3 MSTORE DUP3 DUP2 MSTORE SWAP4 POP PUSH1 0x0 SWAP1 DUP5 ADD JUMPDEST DUP3 DUP3 LT ISZERO PUSH2 0x10C4 JUMPI DUP4 DUP3 SWAP1 PUSH1 0x0 MSTORE PUSH1 0x20 PUSH1 0x0 KECCAK256 ADD DUP1 SLOAD PUSH2 0x1861 SWAP1 PUSH2 0x4444 JUMP JUMPDEST DUP1 PUSH1 0x1F ADD PUSH1 0x20 DUP1 SWAP2 DIV MUL PUSH1 0x20 ADD PUSH1 0x40 MLOAD SWAP1 DUP2 ADD PUSH1 0x40 MSTORE DUP1 SWAP3 SWAP2 SWAP1 DUP2 DUP2 MSTORE PUSH1 0x20 ADD DUP3 DUP1 SLOAD PUSH2 0x188D SWAP1 PUSH2 0x4444 JUMP JUMPDEST DUP1 ISZERO PUSH2 0x18DA JUMPI DUP1 PUSH1 0x1F LT PUSH2 0x18AF JUMPI PUSH2 0x100 DUP1 DUP4 SLOAD DIV MUL DUP4 MSTORE SWAP2 PUSH1 0x20 ADD SWAP2 PUSH2 0x18DA JUMP JUMPDEST DUP3 ADD SWAP2 SWAP1 PUSH1 0x0 MSTORE PUSH1 0x20 PUSH1 0x0 KECCAK256 SWAP1 JUMPDEST DUP2 SLOAD DUP2 MSTORE SWAP1 PUSH1 0x1 ADD SWAP1 PUSH1 0x20 ADD DUP1 DUP4 GT PUSH2 0x18BD JUMPI DUP3 SWAP1 SUB PUSH1 0x1F AND DUP3 ADD SWAP2 JUMPDEST POP POP POP POP POP DUP2 MSTORE PUSH1 0x20 ADD SWAP1 PUSH1 0x1 ADD SWAP1 PUSH2 0x1842 JUMP JUMPDEST DUP5 PUSH1 0x9 ADD SLOAD PUSH2 0xA4A JUMP JUMPDEST PUSH1 0x0 PUSH1 0x1 PUSH1 0x1 PUSH1 0xE0 SHL SUB NOT DUP3 AND PUSH4 0x6E665CED PUSH1 0xE0 SHL EQ DUP1 PUSH2 0x98B JUMPI POP PUSH2 0x98B DUP3 PUSH2 0x2524 JUMP JUMPDEST PUSH1 0x0 DUP1 PUSH2 0x192C DUP7 DUP7 DUP7 DUP7 PUSH2 0x1328 JUMP JUMPDEST SWAP1 POP PUSH1 0x4 PUSH2 0x1939 DUP3 PUSH2 0xDB4 JUMP JUMPDEST PUSH1 0x7 DUP2 GT ISZERO PUSH2 0x194A JUMPI PUSH2 0x194A PUSH2 0x44B0 JUMP JUMPDEST EQ PUSH2 0x1967 JUMPI PUSH1 0x40 MLOAD PUSH3 0x461BCD PUSH1 0xE5 SHL DUP2 MSTORE PUSH1 0x4 ADD PUSH2 0xE65 SWAP1 PUSH2 0x4238 JUMP JUMPDEST PUSH1 0x6 SLOAD PUSH1 0x40 DUP1 MLOAD PUSH4 0xD48571F PUSH1 0xE3 SHL DUP2 MSTORE SWAP1 MLOAD PUSH1 0x0 SWAP3 PUSH1 0x1 PUSH1 0x1 PUSH1 0xA0 SHL SUB AND SWAP2 PUSH4 0x6A42B8F8 SWAP2 PUSH1 0x4 DUP1 DUP4 ADD SWAP3 PUSH1 0x20 SWAP3 SWAP2 SWAP1 DUP3 SWAP1 SUB ADD DUP2 DUP7 DUP1 EXTCODESIZE ISZERO DUP1 ISZERO PUSH2 0x19AC JUMPI PUSH1 0x0 DUP1 REVERT JUMPDEST POP GAS STATICCALL ISZERO DUP1 ISZERO PUSH2 0x19C0 JUMPI RETURNDATASIZE PUSH1 0x0 DUP1 RETURNDATACOPY RETURNDATASIZE PUSH1 0x0 REVERT JUMPDEST POP POP POP POP PUSH1 0x40 MLOAD RETURNDATASIZE PUSH1 0x1F NOT PUSH1 0x1F DUP3 ADD AND DUP3 ADD DUP1 PUSH1 0x40 MSTORE POP DUP2 ADD SWAP1 PUSH2 0x19E4 SWAP2 SWAP1 PUSH2 0x3D9C JUMP JUMPDEST PUSH2 0x19EE SWAP1 TIMESTAMP PUSH2 0x43BE JUMP JUMPDEST SWAP1 POP PUSH2 0x1A10 PUSH2 0x19FC DUP3 PUSH2 0x2559 JUMP JUMPDEST PUSH1 0x0 DUP5 DUP2 MSTORE PUSH1 0x7 PUSH1 0x20 MSTORE PUSH1 0x40 SWAP1 KECCAK256 SWAP1 PUSH2 0x25C5 JUMP JUMPDEST PUSH1 0x0 JUMPDEST DUP8 MLOAD DUP2 LT ISZERO PUSH2 0x1C7F JUMPI PUSH1 0x6 SLOAD DUP9 MLOAD PUSH1 0x1 PUSH1 0x1 PUSH1 0xA0 SHL SUB SWAP1 SWAP2 AND SWAP1 PUSH4 0xF2B06537 SWAP1 DUP11 SWAP1 DUP5 SWAP1 DUP2 LT PUSH2 0x1A45 JUMPI PUSH2 0x1A45 PUSH2 0x44C6 JUMP JUMPDEST PUSH1 0x20 MUL PUSH1 0x20 ADD ADD MLOAD DUP10 DUP5 DUP2 MLOAD DUP2 LT PUSH2 0x1A5F JUMPI PUSH2 0x1A5F PUSH2 0x44C6 JUMP JUMPDEST PUSH1 0x20 MUL PUSH1 0x20 ADD ADD MLOAD DUP10 DUP6 DUP2 MLOAD DUP2 LT PUSH2 0x1A79 JUMPI PUSH2 0x1A79 PUSH2 0x44C6 JUMP JUMPDEST PUSH1 0x20 MUL PUSH1 0x20 ADD ADD MLOAD DUP7 PUSH1 0x40 MLOAD PUSH1 0x20 ADD PUSH2 0x1A95 SWAP5 SWAP4 SWAP3 SWAP2 SWAP1 PUSH2 0x40A7 JUMP JUMPDEST PUSH1 0x40 MLOAD PUSH1 0x20 DUP2 DUP4 SUB SUB DUP2 MSTORE SWAP1 PUSH1 0x40 MSTORE DUP1 MLOAD SWAP1 PUSH1 0x20 ADD KECCAK256 PUSH1 0x40 MLOAD DUP3 PUSH4 0xFFFFFFFF AND PUSH1 0xE0 SHL DUP2 MSTORE PUSH1 0x4 ADD PUSH2 0x1AC9 SWAP2 DUP2 MSTORE PUSH1 0x20 ADD SWAP1 JUMP JUMPDEST PUSH1 0x20 PUSH1 0x40 MLOAD DUP1 DUP4 SUB DUP2 DUP7 DUP1 EXTCODESIZE ISZERO DUP1 ISZERO PUSH2 0x1AE1 JUMPI PUSH1 0x0 DUP1 REVERT JUMPDEST POP GAS STATICCALL ISZERO DUP1 ISZERO PUSH2 0x1AF5 JUMPI RETURNDATASIZE PUSH1 0x0 DUP1 RETURNDATACOPY RETURNDATASIZE PUSH1 0x0 REVERT JUMPDEST POP POP POP POP PUSH1 0x40 MLOAD RETURNDATASIZE PUSH1 0x1F NOT PUSH1 0x1F DUP3 ADD AND DUP3 ADD DUP1 PUSH1 0x40 MSTORE POP DUP2 ADD SWAP1 PUSH2 0x1B19 SWAP2 SWAP1 PUSH2 0x3D7A JUMP JUMPDEST ISZERO PUSH2 0x1B97 JUMPI PUSH1 0x40 MLOAD PUSH3 0x461BCD PUSH1 0xE5 SHL DUP2 MSTORE PUSH1 0x20 PUSH1 0x4 DUP3 ADD MSTORE PUSH1 0x42 PUSH1 0x24 DUP3 ADD MSTORE PUSH32 0x476F7665726E6F7254696D656C6F636B436F6D706F756E643A206964656E7469 PUSH1 0x44 DUP3 ADD MSTORE PUSH32 0x63616C2070726F706F73616C20616374696F6E20616C72656164792071756575 PUSH1 0x64 DUP3 ADD MSTORE PUSH2 0x1959 PUSH1 0xF2 SHL PUSH1 0x84 DUP3 ADD MSTORE PUSH1 0xA4 ADD PUSH2 0xE65 JUMP JUMPDEST PUSH1 0x6 SLOAD DUP9 MLOAD PUSH1 0x1 PUSH1 0x1 PUSH1 0xA0 SHL SUB SWAP1 SWAP2 AND SWAP1 PUSH4 0x3A66F901 SWAP1 DUP11 SWAP1 DUP5 SWAP1 DUP2 LT PUSH2 0x1BC0 JUMPI PUSH2 0x1BC0 PUSH2 0x44C6 JUMP JUMPDEST PUSH1 0x20 MUL PUSH1 0x20 ADD ADD MLOAD DUP10 DUP5 DUP2 MLOAD DUP2 LT PUSH2 0x1BDA JUMPI PUSH2 0x1BDA PUSH2 0x44C6 JUMP JUMPDEST PUSH1 0x20 MUL PUSH1 0x20 ADD ADD MLOAD DUP10 DUP6 DUP2 MLOAD DUP2 LT PUSH2 0x1BF4 JUMPI PUSH2 0x1BF4 PUSH2 0x44C6 JUMP JUMPDEST PUSH1 0x20 MUL PUSH1 0x20 ADD ADD MLOAD DUP7 PUSH1 0x40 MLOAD DUP6 PUSH4 0xFFFFFFFF AND PUSH1 0xE0 SHL DUP2 MSTORE PUSH1 0x4 ADD PUSH2 0x1C1C SWAP5 SWAP4 SWAP3 SWAP2 SWAP1 PUSH2 0x40A7 JUMP JUMPDEST PUSH1 0x20 PUSH1 0x40 MLOAD DUP1 DUP4 SUB DUP2 PUSH1 0x0 DUP8 DUP1 EXTCODESIZE ISZERO DUP1 ISZERO PUSH2 0x1C36 JUMPI PUSH1 0x0 DUP1 REVERT JUMPDEST POP GAS CALL ISZERO DUP1 ISZERO PUSH2 0x1C4A JUMPI RETURNDATASIZE PUSH1 0x0 DUP1 RETURNDATACOPY RETURNDATASIZE PUSH1 0x0 REVERT JUMPDEST POP POP POP POP PUSH1 0x40 MLOAD RETURNDATASIZE PUSH1 0x1F NOT PUSH1 0x1F DUP3 ADD AND DUP3 ADD DUP1 PUSH1 0x40 MSTORE POP DUP2 ADD SWAP1 PUSH2 0x1C6E SWAP2 SWAP1 PUSH2 0x3D9C JUMP JUMPDEST POP PUSH2 0x1C78 DUP2 PUSH2 0x447F JUMP JUMPDEST SWAP1 POP PUSH2 0x1A13 JUMP JUMPDEST POP PUSH1 0x40 DUP1 MLOAD DUP4 DUP2 MSTORE PUSH1 0x20 DUP2 ADD DUP4 SWAP1 MSTORE PUSH32 0x9A2E42FD6722813D69113E7D0079D3D940171428DF7373DF9C7F7617CFDA2892 SWAP2 ADD JUMPDEST PUSH1 0x40 MLOAD DUP1 SWAP2 SUB SWAP1 LOG1 POP SWAP6 SWAP5 POP POP POP POP POP JUMP JUMPDEST PUSH1 0x0 DUP1 PUSH2 0x1CD3 DUP7 DUP7 DUP7 DUP7 PUSH2 0x1328 JUMP JUMPDEST SWAP1 POP PUSH1 0x0 PUSH2 0x1CE0 DUP3 PUSH2 0xDB4 JUMP JUMPDEST SWAP1 POP PUSH1 0x4 DUP2 PUSH1 0x7 DUP2 GT ISZERO PUSH2 0x1CF6 JUMPI PUSH2 0x1CF6 PUSH2 0x44B0 JUMP JUMPDEST EQ DUP1 PUSH2 0x1D13 JUMPI POP PUSH1 0x5 DUP2 PUSH1 0x7 DUP2 GT ISZERO PUSH2 0x1D11 JUMPI PUSH2 0x1D11 PUSH2 0x44B0 JUMP JUMPDEST EQ JUMPDEST PUSH2 0x1D2F JUMPI PUSH1 0x40 MLOAD PUSH3 0x461BCD PUSH1 0xE5 SHL DUP2 MSTORE PUSH1 0x4 ADD PUSH2 0xE65 SWAP1 PUSH2 0x4238 JUMP JUMPDEST PUSH1 0x0 DUP3 DUP2 MSTORE PUSH1 0x1 PUSH1 0x20 DUP2 DUP2 MSTORE PUSH1 0x40 SWAP3 DUP4 SWAP1 KECCAK256 PUSH1 0x2 ADD DUP1 SLOAD PUSH1 0xFF NOT AND SWAP1 SWAP3 OR SWAP1 SWAP2 SSTORE SWAP1 MLOAD DUP4 DUP2 MSTORE PUSH32 0x712AE1383F79AC853F8D882153778E0260EF8F03B504E2866E0593E04D2B291F SWAP2 ADD PUSH1 0x40 MLOAD DUP1 SWAP2 SUB SWAP1 LOG1 PUSH2 0x1D8D DUP3 DUP9 DUP9 DUP9 DUP9 PUSH2 0x25E3 JUMP JUMPDEST POP SWAP6 SWAP5 POP POP POP POP POP JUMP JUMPDEST PUSH1 0x0 PUSH2 0x98B PUSH2 0x1DA4 PUSH2 0x25F0 JUMP JUMPDEST DUP4 PUSH1 0x40 MLOAD PUSH2 0x1901 PUSH1 0xF0 SHL PUSH1 0x20 DUP3 ADD MSTORE PUSH1 0x22 DUP2 ADD DUP4 SWAP1 MSTORE PUSH1 0x42 DUP2 ADD DUP3 SWAP1 MSTORE PUSH1 0x0 SWAP1 PUSH1 0x62 ADD PUSH1 0x40 MLOAD PUSH1 0x20 DUP2 DUP4 SUB SUB DUP2 MSTORE SWAP1 PUSH1 0x40 MSTORE DUP1 MLOAD SWAP1 PUSH1 0x20 ADD KECCAK256 SWAP1 POP SWAP3 SWAP2 POP POP JUMP JUMPDEST PUSH1 0x0 DUP1 PUSH1 0x0 PUSH2 0x1DF6 DUP8 DUP8 DUP8 DUP8 PUSH2 0x2717 JUMP JUMPDEST SWAP2 POP SWAP2 POP PUSH2 0x1D8D DUP2 PUSH2 0x2804 JUMP JUMPDEST PUSH1 0x0 DUP5 DUP2 MSTORE PUSH1 0x1 PUSH1 0x20 DUP2 SWAP1 MSTORE PUSH1 0x40 DUP3 KECCAK256 SWAP1 PUSH2 0x1E1D DUP8 PUSH2 0xDB4 JUMP JUMPDEST PUSH1 0x7 DUP2 GT ISZERO PUSH2 0x1E2E JUMPI PUSH2 0x1E2E PUSH2 0x44B0 JUMP JUMPDEST EQ PUSH2 0x1E87 JUMPI PUSH1 0x40 MLOAD PUSH3 0x461BCD PUSH1 0xE5 SHL DUP2 MSTORE PUSH1 0x20 PUSH1 0x4 DUP3 ADD MSTORE PUSH1 0x23 PUSH1 0x24 DUP3 ADD MSTORE PUSH32 0x476F7665726E6F723A20766F7465206E6F742063757272656E746C7920616374 PUSH1 0x44 DUP3 ADD MSTORE PUSH3 0x697665 PUSH1 0xE8 SHL PUSH1 0x64 DUP3 ADD MSTORE PUSH1 0x84 ADD PUSH2 0xE65 JUMP JUMPDEST PUSH1 0x40 DUP1 MLOAD PUSH1 0x20 DUP2 ADD SWAP1 SWAP2 MSTORE DUP2 SLOAD PUSH1 0x1 PUSH1 0x1 PUSH1 0x40 SHL SUB AND SWAP1 DUP2 SWAP1 MSTORE PUSH1 0x0 SWAP1 PUSH2 0x1EAF SWAP1 DUP8 SWAP1 PUSH2 0x1636 JUMP JUMPDEST SWAP1 POP PUSH2 0x1EBD DUP8 DUP8 DUP8 DUP5 PUSH2 0x29BF JUMP JUMPDEST DUP6 PUSH1 0x1 PUSH1 0x1 PUSH1 0xA0 SHL SUB AND PUSH32 0xB8E138887D0AA13BAB447E82DE9D5C1777041ECD21CA36BA824FF1E6C07DDDA4 DUP9 DUP8 DUP5 DUP9 PUSH1 0x40 MLOAD PUSH2 0x1EFC SWAP5 SWAP4 SWAP3 SWAP2 SWAP1 PUSH2 0x431C JUMP JUMPDEST PUSH1 0x40 MLOAD DUP1 SWAP2 SUB SWAP1 LOG2 SWAP7 SWAP6 POP POP POP POP POP POP JUMP JUMPDEST PUSH1 0x0 DUP1 PUSH2 0x1F1A DUP4 PUSH2 0x2B64 JUMP JUMPDEST SWAP1 POP PUSH1 0x4 DUP2 PUSH1 0x7 DUP2 GT ISZERO PUSH2 0x1F30 JUMPI PUSH2 0x1F30 PUSH2 0x44B0 JUMP JUMPDEST EQ PUSH2 0x1F3B JUMPI SWAP3 SWAP2 POP POP JUMP JUMPDEST PUSH1 0x0 PUSH2 0x1F46 DUP5 PUSH2 0x11F8 JUMP JUMPDEST SWAP1 POP DUP1 PUSH2 0x1F54 JUMPI POP SWAP3 SWAP2 POP POP JUMP JUMPDEST PUSH1 0x6 PUSH1 0x0 SWAP1 SLOAD SWAP1 PUSH2 0x100 EXP SWAP1 DIV PUSH1 0x1 PUSH1 0x1 PUSH1 0xA0 SHL SUB AND PUSH1 0x1 PUSH1 0x1 PUSH1 0xA0 SHL SUB AND PUSH4 0xC1A287E2 PUSH1 0x40 MLOAD DUP2 PUSH4 0xFFFFFFFF AND PUSH1 0xE0 SHL DUP2 MSTORE PUSH1 0x4 ADD PUSH1 0x20 PUSH1 0x40 MLOAD DUP1 DUP4 SUB DUP2 DUP7 DUP1 EXTCODESIZE ISZERO DUP1 ISZERO PUSH2 0x1FA2 JUMPI PUSH1 0x0 DUP1 REVERT JUMPDEST POP GAS STATICCALL ISZERO DUP1 ISZERO PUSH2 0x1FB6 JUMPI RETURNDATASIZE PUSH1 0x0 DUP1 RETURNDATACOPY RETURNDATASIZE PUSH1 0x0 REVERT JUMPDEST POP POP POP POP PUSH1 0x40 MLOAD RETURNDATASIZE PUSH1 0x1F NOT PUSH1 0x1F DUP3 ADD AND DUP3 ADD DUP1 PUSH1 0x40 MSTORE POP DUP2 ADD SWAP1 PUSH2 0x1FDA SWAP2 SWAP1 PUSH2 0x3D9C JUMP JUMPDEST PUSH2 0x1FE4 SWAP1 DUP3 PUSH2 0x43BE JUMP JUMPDEST TIMESTAMP LT PUSH2 0x1FF4 JUMPI POP PUSH1 0x6 SWAP4 SWAP3 POP POP POP JUMP JUMPDEST POP PUSH1 0x5 SWAP4 SWAP3 POP POP POP JUMP JUMPDEST PUSH1 0x60 PUSH1 0x0 DUP3 MLOAD PUSH1 0x1 PUSH1 0x1 PUSH1 0x40 SHL SUB DUP2 GT ISZERO PUSH2 0x201B JUMPI PUSH2 0x201B PUSH2 0x44DC JUMP JUMPDEST PUSH1 0x40 MLOAD SWAP1 DUP1 DUP3 MSTORE DUP1 PUSH1 0x20 MUL PUSH1 0x20 ADD DUP3 ADD PUSH1 0x40 MSTORE DUP1 ISZERO PUSH2 0x204E JUMPI DUP2 PUSH1 0x20 ADD JUMPDEST PUSH1 0x60 DUP2 MSTORE PUSH1 0x20 ADD SWAP1 PUSH1 0x1 SWAP1 SUB SWAP1 DUP2 PUSH2 0x2039 JUMPI SWAP1 POP JUMPDEST POP SWAP1 POP PUSH1 0x0 JUMPDEST DUP5 MLOAD DUP2 LT ISZERO PUSH2 0x2156 JUMPI DUP5 DUP2 DUP2 MLOAD DUP2 LT PUSH2 0x206F JUMPI PUSH2 0x206F PUSH2 0x44C6 JUMP JUMPDEST PUSH1 0x20 MUL PUSH1 0x20 ADD ADD MLOAD MLOAD PUSH1 0x0 EQ PUSH2 0x210D JUMPI DUP5 DUP2 DUP2 MLOAD DUP2 LT PUSH2 0x2091 JUMPI PUSH2 0x2091 PUSH2 0x44C6 JUMP JUMPDEST PUSH1 0x20 MUL PUSH1 0x20 ADD ADD MLOAD DUP5 DUP3 DUP2 MLOAD DUP2 LT PUSH2 0x20AB JUMPI PUSH2 0x20AB PUSH2 0x44C6 JUMP JUMPDEST PUSH1 0x20 MUL PUSH1 0x20 ADD ADD MLOAD PUSH1 0x40 MLOAD PUSH1 0x24 ADD PUSH2 0x20C3 SWAP2 SWAP1 PUSH2 0x4185 JUMP JUMPDEST PUSH1 0x40 DUP1 MLOAD PUSH1 0x1F NOT DUP2 DUP5 SUB ADD DUP2 MSTORE SWAP1 DUP3 SWAP1 MSTORE SWAP2 PUSH2 0x20DE SWAP2 PUSH2 0x408B JUMP JUMPDEST PUSH1 0x40 MLOAD SWAP1 DUP2 SWAP1 SUB SWAP1 KECCAK256 PUSH1 0x20 DUP3 ADD DUP1 MLOAD PUSH1 0x1 PUSH1 0x1 PUSH1 0xE0 SHL SUB AND PUSH1 0x1 PUSH1 0x1 PUSH1 0xE0 SHL SUB NOT SWAP1 SWAP3 AND SWAP2 SWAP1 SWAP2 OR SWAP1 MSTORE PUSH2 0x2128 JUMP JUMPDEST DUP4 DUP2 DUP2 MLOAD DUP2 LT PUSH2 0x211F JUMPI PUSH2 0x211F PUSH2 0x44C6 JUMP JUMPDEST PUSH1 0x20 MUL PUSH1 0x20 ADD ADD MLOAD JUMPDEST DUP3 DUP3 DUP2 MLOAD DUP2 LT PUSH2 0x213A JUMPI PUSH2 0x213A PUSH2 0x44C6 JUMP JUMPDEST PUSH1 0x20 MUL PUSH1 0x20 ADD ADD DUP2 SWAP1 MSTORE POP DUP1 PUSH2 0x214F SWAP1 PUSH2 0x447F JUMP JUMPDEST SWAP1 POP PUSH2 0x2054 JUMP JUMPDEST POP SWAP4 SWAP3 POP POP POP JUMP JUMPDEST PUSH1 0x0 PUSH2 0xA31 DUP6 DUP6 DUP6 DUP6 PUSH2 0x2C73 JUMP JUMPDEST PUSH1 0x3 SLOAD PUSH1 0x40 DUP1 MLOAD SWAP2 DUP3 MSTORE PUSH1 0x20 DUP3 ADD DUP4 SWAP1 MSTORE PUSH32 0xC565B045403DC03C2EEA82B81A0465EDAD9E2E7FC4D97E11421C209DA93D7A93 SWAP2 ADD PUSH1 0x40 MLOAD DUP1 SWAP2 SUB SWAP1 LOG1 PUSH1 0x3 SSTORE JUMP JUMPDEST PUSH1 0x0 PUSH2 0x2209 CALLER DUP7 DUP7 DUP7 MLOAD PUSH1 0x1 PUSH1 0x1 PUSH1 0x40 SHL SUB DUP2 GT ISZERO PUSH2 0x21CE JUMPI PUSH2 0x21CE PUSH2 0x44DC JUMP JUMPDEST PUSH1 0x40 MLOAD SWAP1 DUP1 DUP3 MSTORE DUP1 PUSH1 0x20 MUL PUSH1 0x20 ADD DUP3 ADD PUSH1 0x40 MSTORE DUP1 ISZERO PUSH2 0x2201 JUMPI DUP2 PUSH1 0x20 ADD JUMPDEST PUSH1 0x60 DUP2 MSTORE PUSH1 0x20 ADD SWAP1 PUSH1 0x1 SWAP1 SUB SWAP1 DUP2 PUSH2 0x21EC JUMPI SWAP1 POP JUMPDEST POP DUP8 DUP8 PUSH2 0x22D0 JUMP JUMPDEST PUSH2 0xA31 DUP6 DUP6 DUP6 DUP6 PUSH2 0x2D8E JUMP JUMPDEST PUSH1 0x6 SLOAD PUSH1 0x40 DUP1 MLOAD PUSH1 0x1 PUSH1 0x1 PUSH1 0xA0 SHL SUB SWAP3 DUP4 AND DUP2 MSTORE SWAP2 DUP4 AND PUSH1 0x20 DUP4 ADD MSTORE PUSH32 0x8F74EA46EF7894F65EABFB5E6E695DE773A000B47C529AB559178069B226401 SWAP2 ADD PUSH1 0x40 MLOAD DUP1 SWAP2 SUB SWAP1 LOG1 PUSH1 0x6 DUP1 SLOAD PUSH1 0x1 PUSH1 0x1 PUSH1 0xA0 SHL SUB NOT AND PUSH1 0x1 PUSH1 0x1 PUSH1 0xA0 SHL SUB SWAP3 SWAP1 SWAP3 AND SWAP2 SWAP1 SWAP2 OR SWAP1 SSTORE JUMP JUMPDEST PUSH1 0x0 DUP2 DUP2 MSTORE PUSH1 0x7 PUSH1 0x20 SWAP1 DUP2 MSTORE PUSH1 0x40 DUP1 DUP4 KECCAK256 DUP2 MLOAD SWAP3 DUP4 ADD SWAP1 SWAP2 MSTORE SLOAD PUSH1 0x1 PUSH1 0x1 PUSH1 0x40 SHL SUB AND SWAP1 DUP2 SWAP1 MSTORE PUSH2 0xA80 JUMP JUMPDEST PUSH1 0x60 PUSH2 0x110B DUP5 DUP5 DUP5 PUSH1 0x40 MLOAD DUP1 PUSH1 0x60 ADD PUSH1 0x40 MSTORE DUP1 PUSH1 0x29 DUP2 MSTORE PUSH1 0x20 ADD PUSH2 0x4508 PUSH1 0x29 SWAP2 CODECOPY PUSH2 0x304A JUMP JUMPDEST DUP1 MLOAD PUSH1 0x20 DUP3 ADD KECCAK256 PUSH1 0x0 PUSH2 0x22EE DUP8 DUP8 PUSH2 0x22E8 DUP9 DUP9 PUSH2 0x1FFE JUMP JUMPDEST DUP6 PUSH2 0x1328 JUMP JUMPDEST PUSH1 0x0 DUP2 DUP2 MSTORE PUSH1 0x2 PUSH1 0x20 MSTORE PUSH1 0x40 SWAP1 KECCAK256 PUSH1 0x9 DUP2 ADD SLOAD SWAP2 SWAP3 POP SWAP1 PUSH2 0x2382 JUMPI DUP1 SLOAD PUSH1 0x1 PUSH1 0x1 PUSH1 0xA0 SHL SUB NOT AND PUSH1 0x1 PUSH1 0x1 PUSH1 0xA0 SHL SUB DUP11 AND OR DUP2 SSTORE DUP8 MLOAD PUSH2 0x2337 SWAP1 PUSH1 0x1 DUP4 ADD SWAP1 PUSH1 0x20 DUP12 ADD SWAP1 PUSH2 0x35E3 JUMP JUMPDEST POP DUP7 MLOAD PUSH2 0x234D SWAP1 PUSH1 0x2 DUP4 ADD SWAP1 PUSH1 0x20 DUP11 ADD SWAP1 PUSH2 0x3644 JUMP JUMPDEST POP DUP6 MLOAD PUSH2 0x2363 SWAP1 PUSH1 0x3 DUP4 ADD SWAP1 PUSH1 0x20 DUP10 ADD SWAP1 PUSH2 0x367F JUMP JUMPDEST POP DUP5 MLOAD PUSH2 0x2379 SWAP1 PUSH1 0x4 DUP4 ADD SWAP1 PUSH1 0x20 DUP9 ADD SWAP1 PUSH2 0x36D8 JUMP JUMPDEST POP PUSH1 0x9 DUP2 ADD DUP4 SWAP1 SSTORE JUMPDEST POP POP POP POP POP POP POP POP POP JUMP JUMPDEST PUSH1 0x0 DUP2 GT PUSH2 0x23ED JUMPI PUSH1 0x40 MLOAD PUSH3 0x461BCD PUSH1 0xE5 SHL DUP2 MSTORE PUSH1 0x20 PUSH1 0x4 DUP3 ADD MSTORE PUSH1 0x27 PUSH1 0x24 DUP3 ADD MSTORE PUSH32 0x476F7665726E6F7253657474696E67733A20766F74696E6720706572696F6420 PUSH1 0x44 DUP3 ADD MSTORE PUSH7 0x746F6F206C6F77 PUSH1 0xC8 SHL PUSH1 0x64 DUP3 ADD MSTORE PUSH1 0x84 ADD PUSH2 0xE65 JUMP JUMPDEST PUSH1 0x4 SLOAD PUSH1 0x40 DUP1 MLOAD SWAP2 DUP3 MSTORE PUSH1 0x20 DUP3 ADD DUP4 SWAP1 MSTORE PUSH32 0x7E3F7F0708A84DE9203036ABAA450DCCC85AD5FF52F78C170F3EDB55CF5E8828 SWAP2 ADD PUSH1 0x40 MLOAD DUP1 SWAP2 SUB SWAP1 LOG1 PUSH1 0x4 SSTORE JUMP JUMPDEST PUSH1 0x40 MLOAD PUSH4 0x782D6FE1 PUSH1 0xE0 SHL DUP2 MSTORE PUSH1 0x1 PUSH1 0x1 PUSH1 0xA0 SHL SUB DUP4 DUP2 AND PUSH1 0x4 DUP4 ADD MSTORE PUSH1 0x24 DUP3 ADD DUP4 SWAP1 MSTORE PUSH1 0x0 SWAP2 PUSH32 0x0 SWAP1 SWAP2 AND SWAP1 PUSH4 0x782D6FE1 SWAP1 PUSH1 0x44 ADD PUSH1 0x20 PUSH1 0x40 MLOAD DUP1 DUP4 SUB DUP2 DUP7 DUP1 EXTCODESIZE ISZERO DUP1 ISZERO PUSH2 0x249B JUMPI PUSH1 0x0 DUP1 REVERT JUMPDEST POP GAS STATICCALL ISZERO DUP1 ISZERO PUSH2 0x24AF JUMPI RETURNDATASIZE PUSH1 0x0 DUP1 RETURNDATACOPY RETURNDATASIZE PUSH1 0x0 REVERT JUMPDEST POP POP POP POP PUSH1 0x40 MLOAD RETURNDATASIZE PUSH1 0x1F NOT PUSH1 0x1F DUP3 ADD AND DUP3 ADD DUP1 PUSH1 0x40 MSTORE POP DUP2 ADD SWAP1 PUSH2 0x24D3 SWAP2 SWAP1 PUSH2 0x3F6D JUMP JUMPDEST PUSH1 0x1 PUSH1 0x1 PUSH1 0x60 SHL SUB AND SWAP4 SWAP3 POP POP POP JUMP JUMPDEST PUSH1 0x5 SLOAD PUSH1 0x40 DUP1 MLOAD SWAP2 DUP3 MSTORE PUSH1 0x20 DUP3 ADD DUP4 SWAP1 MSTORE PUSH32 0xCCB45DA8D5717E6C4544694297C4BA5CF151D455C9BB0ED4FC7A38411BC05461 SWAP2 ADD PUSH1 0x40 MLOAD DUP1 SWAP2 SUB SWAP1 LOG1 PUSH1 0x5 SSTORE JUMP JUMPDEST PUSH1 0x0 PUSH1 0x1 PUSH1 0x1 PUSH1 0xE0 SHL SUB NOT DUP3 AND PUSH4 0xBF26D897 PUSH1 0xE0 SHL EQ DUP1 PUSH2 0x98B JUMPI POP PUSH4 0x1FFC9A7 PUSH1 0xE0 SHL PUSH1 0x1 PUSH1 0x1 PUSH1 0xE0 SHL SUB NOT DUP4 AND EQ PUSH2 0x98B JUMP JUMPDEST PUSH1 0x0 PUSH1 0x1 PUSH1 0x1 PUSH1 0x40 SHL SUB DUP3 GT ISZERO PUSH2 0x25C1 JUMPI PUSH1 0x40 MLOAD PUSH3 0x461BCD PUSH1 0xE5 SHL DUP2 MSTORE PUSH1 0x20 PUSH1 0x4 DUP3 ADD MSTORE PUSH1 0x26 PUSH1 0x24 DUP3 ADD MSTORE PUSH32 0x53616665436173743A2076616C756520646F65736E27742066697420696E2036 PUSH1 0x44 DUP3 ADD MSTORE PUSH6 0x342062697473 PUSH1 0xD0 SHL PUSH1 0x64 DUP3 ADD MSTORE PUSH1 0x84 ADD PUSH2 0xE65 JUMP JUMPDEST POP SWAP1 JUMP JUMPDEST DUP2 SLOAD PUSH8 0xFFFFFFFFFFFFFFFF NOT AND PUSH1 0x1 PUSH1 0x1 PUSH1 0x40 SHL SUB SWAP2 SWAP1 SWAP2 AND OR SWAP1 SSTORE JUMP JUMPDEST PUSH2 0x1321 DUP6 DUP6 DUP6 DUP6 DUP6 PUSH2 0x3167 JUMP JUMPDEST PUSH1 0x0 ADDRESS PUSH1 0x1 PUSH1 0x1 PUSH1 0xA0 SHL SUB PUSH32 0x0 AND EQ DUP1 ISZERO PUSH2 0x2649 JUMPI POP PUSH32 0x0 CHAINID EQ JUMPDEST ISZERO PUSH2 0x2673 JUMPI POP PUSH32 0x0 SWAP1 JUMP JUMPDEST POP PUSH1 0x40 DUP1 MLOAD PUSH32 0x0 PUSH1 0x20 DUP1 DUP4 ADD SWAP2 SWAP1 SWAP2 MSTORE PUSH32 0x0 DUP3 DUP5 ADD MSTORE PUSH32 0x0 PUSH1 0x60 DUP4 ADD MSTORE CHAINID PUSH1 0x80 DUP4 ADD MSTORE ADDRESS PUSH1 0xA0 DUP1 DUP5 ADD SWAP2 SWAP1 SWAP2 MSTORE DUP4 MLOAD DUP1 DUP5 SUB SWAP1 SWAP2 ADD DUP2 MSTORE PUSH1 0xC0 SWAP1 SWAP3 ADD SWAP1 SWAP3 MSTORE DUP1 MLOAD SWAP2 ADD KECCAK256 SWAP1 JUMP JUMPDEST PUSH1 0x0 DUP1 PUSH32 0x7FFFFFFFFFFFFFFFFFFFFFFFFFFFFFFF5D576E7357A4501DDFE92F46681B20A0 DUP4 GT ISZERO PUSH2 0x274E JUMPI POP PUSH1 0x0 SWAP1 POP PUSH1 0x3 PUSH2 0x27FB JUMP JUMPDEST DUP5 PUSH1 0xFF AND PUSH1 0x1B EQ ISZERO DUP1 ISZERO PUSH2 0x2766 JUMPI POP DUP5 PUSH1 0xFF AND PUSH1 0x1C EQ ISZERO JUMPDEST ISZERO PUSH2 0x2777 JUMPI POP PUSH1 0x0 SWAP1 POP PUSH1 0x4 PUSH2 0x27FB JUMP JUMPDEST PUSH1 0x40 DUP1 MLOAD PUSH1 0x0 DUP1 DUP3 MSTORE PUSH1 0x20 DUP3 ADD DUP1 DUP5 MSTORE DUP10 SWAP1 MSTORE PUSH1 0xFF DUP9 AND SWAP3 DUP3 ADD SWAP3 SWAP1 SWAP3 MSTORE PUSH1 0x60 DUP2 ADD DUP7 SWAP1 MSTORE PUSH1 0x80 DUP2 ADD DUP6 SWAP1 MSTORE PUSH1 0x1 SWAP1 PUSH1 0xA0 ADD PUSH1 0x20 PUSH1 0x40 MLOAD PUSH1 0x20 DUP2 SUB SWAP1 DUP1 DUP5 SUB SWAP1 DUP6 GAS STATICCALL ISZERO DUP1 ISZERO PUSH2 0x27CB JUMPI RETURNDATASIZE PUSH1 0x0 DUP1 RETURNDATACOPY RETURNDATASIZE PUSH1 0x0 REVERT JUMPDEST POP POP PUSH1 0x40 MLOAD PUSH1 0x1F NOT ADD MLOAD SWAP2 POP POP PUSH1 0x1 PUSH1 0x1 PUSH1 0xA0 SHL SUB DUP2 AND PUSH2 0x27F4 JUMPI PUSH1 0x0 PUSH1 0x1 SWAP3 POP SWAP3 POP POP PUSH2 0x27FB JUMP JUMPDEST SWAP2 POP PUSH1 0x0 SWAP1 POP JUMPDEST SWAP5 POP SWAP5 SWAP3 POP POP POP JUMP JUMPDEST PUSH1 0x0 DUP2 PUSH1 0x4 DUP2 GT ISZERO PUSH2 0x2818 JUMPI PUSH2 0x2818 PUSH2 0x44B0 JUMP JUMPDEST EQ ISZERO PUSH2 0x2821 JUMPI POP JUMP JUMPDEST PUSH1 0x1 DUP2 PUSH1 0x4 DUP2 GT ISZERO PUSH2 0x2835 JUMPI PUSH2 0x2835 PUSH2 0x44B0 JUMP JUMPDEST EQ ISZERO PUSH2 0x2883 JUMPI PUSH1 0x40 MLOAD PUSH3 0x461BCD PUSH1 0xE5 SHL DUP2 MSTORE PUSH1 0x20 PUSH1 0x4 DUP3 ADD MSTORE PUSH1 0x18 PUSH1 0x24 DUP3 ADD MSTORE PUSH32 0x45434453413A20696E76616C6964207369676E61747572650000000000000000 PUSH1 0x44 DUP3 ADD MSTORE PUSH1 0x64 ADD PUSH2 0xE65 JUMP JUMPDEST PUSH1 0x2 DUP2 PUSH1 0x4 DUP2 GT ISZERO PUSH2 0x2897 JUMPI PUSH2 0x2897 PUSH2 0x44B0 JUMP JUMPDEST EQ ISZERO PUSH2 0x28E5 JUMPI PUSH1 0x40 MLOAD PUSH3 0x461BCD PUSH1 0xE5 SHL DUP2 MSTORE PUSH1 0x20 PUSH1 0x4 DUP3 ADD MSTORE PUSH1 0x1F PUSH1 0x24 DUP3 ADD MSTORE PUSH32 0x45434453413A20696E76616C6964207369676E6174757265206C656E67746800 PUSH1 0x44 DUP3 ADD MSTORE PUSH1 0x64 ADD PUSH2 0xE65 JUMP JUMPDEST PUSH1 0x3 DUP2 PUSH1 0x4 DUP2 GT ISZERO PUSH2 0x28F9 JUMPI PUSH2 0x28F9 PUSH2 0x44B0 JUMP JUMPDEST EQ ISZERO PUSH2 0x2952 JUMPI PUSH1 0x40 MLOAD PUSH3 0x461BCD PUSH1 0xE5 SHL DUP2 MSTORE PUSH1 0x20 PUSH1 0x4 DUP3 ADD MSTORE PUSH1 0x22 PUSH1 0x24 DUP3 ADD MSTORE PUSH32 0x45434453413A20696E76616C6964207369676E6174757265202773272076616C PUSH1 0x44 DUP3 ADD MSTORE PUSH2 0x7565 PUSH1 0xF0 SHL PUSH1 0x64 DUP3 ADD MSTORE PUSH1 0x84 ADD PUSH2 0xE65 JUMP JUMPDEST PUSH1 0x4 DUP2 PUSH1 0x4 DUP2 GT ISZERO PUSH2 0x2966 JUMPI PUSH2 0x2966 PUSH2 0x44B0 JUMP JUMPDEST EQ ISZERO PUSH2 0x1154 JUMPI PUSH1 0x40 MLOAD PUSH3 0x461BCD PUSH1 0xE5 SHL DUP2 MSTORE PUSH1 0x20 PUSH1 0x4 DUP3 ADD MSTORE PUSH1 0x22 PUSH1 0x24 DUP3 ADD MSTORE PUSH32 0x45434453413A20696E76616C6964207369676E6174757265202776272076616C PUSH1 0x44 DUP3 ADD MSTORE PUSH2 0x7565 PUSH1 0xF0 SHL PUSH1 0x64 DUP3 ADD MSTORE PUSH1 0x84 ADD PUSH2 0xE65 JUMP JUMPDEST PUSH1 0x0 DUP5 DUP2 MSTORE PUSH1 0x2 PUSH1 0x20 SWAP1 DUP2 MSTORE PUSH1 0x40 DUP1 DUP4 KECCAK256 PUSH1 0x1 PUSH1 0x1 PUSH1 0xA0 SHL SUB DUP8 AND DUP5 MSTORE PUSH1 0x8 DUP2 ADD SWAP1 SWAP3 MSTORE SWAP1 SWAP2 KECCAK256 DUP1 SLOAD PUSH1 0xFF AND ISZERO PUSH2 0x2A4E JUMPI PUSH1 0x40 MLOAD PUSH3 0x461BCD PUSH1 0xE5 SHL DUP2 MSTORE PUSH1 0x20 PUSH1 0x4 DUP3 ADD MSTORE PUSH1 0x2D PUSH1 0x24 DUP3 ADD MSTORE PUSH32 0x476F7665726E6F72436F6D7061746962696C697479427261766F3A20766F7465 PUSH1 0x44 DUP3 ADD MSTORE PUSH13 0x8185B1C9958591E4818D85CDD PUSH1 0x9A SHL PUSH1 0x64 DUP3 ADD MSTORE PUSH1 0x84 ADD PUSH2 0xE65 JUMP JUMPDEST DUP1 SLOAD PUSH1 0xFF DUP6 AND PUSH2 0x100 MUL PUSH2 0xFFFF NOT SWAP1 SWAP2 AND OR PUSH1 0x1 OR DUP2 SSTORE PUSH2 0x2A6E DUP4 PUSH2 0x32F5 JUMP JUMPDEST DUP2 SLOAD PUSH1 0x1 PUSH1 0x1 PUSH1 0x60 SHL SUB SWAP2 SWAP1 SWAP2 AND PUSH3 0x10000 MUL PUSH14 0xFFFFFFFFFFFFFFFFFFFFFFFF0000 NOT SWAP1 SWAP2 AND OR DUP2 SSTORE PUSH1 0xFF DUP5 AND PUSH2 0x2ABE JUMPI DUP3 DUP3 PUSH1 0x6 ADD PUSH1 0x0 DUP3 DUP3 SLOAD PUSH2 0x2AB3 SWAP2 SWAP1 PUSH2 0x43BE JUMP JUMPDEST SWAP1 SWAP2 SSTORE POP PUSH2 0x2B5C SWAP1 POP JUMP JUMPDEST PUSH1 0xFF DUP5 AND PUSH1 0x1 EQ ISZERO PUSH2 0x2ADE JUMPI DUP3 DUP3 PUSH1 0x5 ADD PUSH1 0x0 DUP3 DUP3 SLOAD PUSH2 0x2AB3 SWAP2 SWAP1 PUSH2 0x43BE JUMP JUMPDEST PUSH1 0xFF DUP5 AND PUSH1 0x2 EQ ISZERO PUSH2 0x2AFE JUMPI DUP3 DUP3 PUSH1 0x7 ADD PUSH1 0x0 DUP3 DUP3 SLOAD PUSH2 0x2AB3 SWAP2 SWAP1 PUSH2 0x43BE JUMP JUMPDEST PUSH1 0x40 MLOAD PUSH3 0x461BCD PUSH1 0xE5 SHL DUP2 MSTORE PUSH1 0x20 PUSH1 0x4 DUP3 ADD MSTORE PUSH1 0x2D PUSH1 0x24 DUP3 ADD MSTORE PUSH32 0x476F7665726E6F72436F6D7061746962696C697479427261766F3A20696E7661 PUSH1 0x44 DUP3 ADD MSTORE PUSH13 0x6C696420766F74652074797065 PUSH1 0x98 SHL PUSH1 0x64 DUP3 ADD MSTORE PUSH1 0x84 ADD PUSH2 0xE65 JUMP JUMPDEST POP POP POP POP POP POP JUMP JUMPDEST PUSH1 0x0 DUP2 DUP2 MSTORE PUSH1 0x1 PUSH1 0x20 MSTORE PUSH1 0x40 DUP2 KECCAK256 PUSH1 0x2 DUP2 ADD SLOAD PUSH1 0xFF AND ISZERO PUSH2 0x2B88 JUMPI POP PUSH1 0x7 SWAP3 SWAP2 POP POP JUMP JUMPDEST PUSH1 0x2 DUP2 ADD SLOAD PUSH2 0x100 SWAP1 DIV PUSH1 0xFF AND ISZERO PUSH2 0x2BA3 JUMPI POP PUSH1 0x2 SWAP3 SWAP2 POP POP JUMP JUMPDEST PUSH1 0x0 PUSH2 0x2BAE DUP5 PUSH2 0xA58 JUMP JUMPDEST SWAP1 POP DUP1 PUSH2 0x2BFD JUMPI PUSH1 0x40 MLOAD PUSH3 0x461BCD PUSH1 0xE5 SHL DUP2 MSTORE PUSH1 0x20 PUSH1 0x4 DUP3 ADD MSTORE PUSH1 0x1D PUSH1 0x24 DUP3 ADD MSTORE PUSH32 0x476F7665726E6F723A20756E6B6E6F776E2070726F706F73616C206964000000 PUSH1 0x44 DUP3 ADD MSTORE PUSH1 0x64 ADD PUSH2 0xE65 JUMP JUMPDEST NUMBER DUP2 LT PUSH2 0x2C0E JUMPI POP PUSH1 0x0 SWAP4 SWAP3 POP POP POP JUMP JUMPDEST PUSH1 0x0 PUSH2 0x2C19 DUP6 PUSH2 0x1278 JUMP JUMPDEST SWAP1 POP NUMBER DUP2 LT PUSH2 0x2C2D JUMPI POP PUSH1 0x1 SWAP5 SWAP4 POP POP POP POP JUMP JUMPDEST PUSH2 0x2C36 DUP6 PUSH2 0x335D JUMP JUMPDEST DUP1 ISZERO PUSH2 0x2C58 JUMPI POP PUSH1 0x0 DUP6 DUP2 MSTORE PUSH1 0x2 PUSH1 0x20 MSTORE PUSH1 0x40 SWAP1 KECCAK256 PUSH1 0x6 DUP2 ADD SLOAD PUSH1 0x5 SWAP1 SWAP2 ADD SLOAD GT JUMPDEST ISZERO PUSH2 0x2C68 JUMPI POP PUSH1 0x4 SWAP5 SWAP4 POP POP POP POP JUMP JUMPDEST POP PUSH1 0x3 SWAP5 SWAP4 POP POP POP POP JUMP JUMPDEST PUSH1 0x0 DUP1 PUSH2 0x2C82 DUP7 DUP7 DUP7 DUP7 PUSH2 0x3385 JUMP JUMPDEST SWAP1 POP PUSH1 0x0 PUSH2 0x2C8F DUP3 PUSH2 0x11F8 JUMP JUMPDEST SWAP1 POP DUP1 ISZERO PUSH2 0x1D8D JUMPI PUSH1 0x0 JUMPDEST DUP8 MLOAD DUP2 LT ISZERO PUSH2 0x2D6B JUMPI PUSH1 0x6 SLOAD DUP9 MLOAD PUSH1 0x1 PUSH1 0x1 PUSH1 0xA0 SHL SUB SWAP1 SWAP2 AND SWAP1 PUSH4 0x591FCDFE SWAP1 DUP11 SWAP1 DUP5 SWAP1 DUP2 LT PUSH2 0x2CCC JUMPI PUSH2 0x2CCC PUSH2 0x44C6 JUMP JUMPDEST PUSH1 0x20 MUL PUSH1 0x20 ADD ADD MLOAD DUP10 DUP5 DUP2 MLOAD DUP2 LT PUSH2 0x2CE6 JUMPI PUSH2 0x2CE6 PUSH2 0x44C6 JUMP JUMPDEST PUSH1 0x20 MUL PUSH1 0x20 ADD ADD MLOAD DUP10 DUP6 DUP2 MLOAD DUP2 LT PUSH2 0x2D00 JUMPI PUSH2 0x2D00 PUSH2 0x44C6 JUMP JUMPDEST PUSH1 0x20 MUL PUSH1 0x20 ADD ADD MLOAD DUP7 PUSH1 0x40 MLOAD DUP6 PUSH4 0xFFFFFFFF AND PUSH1 0xE0 SHL DUP2 MSTORE PUSH1 0x4 ADD PUSH2 0x2D28 SWAP5 SWAP4 SWAP3 SWAP2 SWAP1 PUSH2 0x40A7 JUMP JUMPDEST PUSH1 0x0 PUSH1 0x40 MLOAD DUP1 DUP4 SUB DUP2 PUSH1 0x0 DUP8 DUP1 EXTCODESIZE ISZERO DUP1 ISZERO PUSH2 0x2D42 JUMPI PUSH1 0x0 DUP1 REVERT JUMPDEST POP GAS CALL ISZERO DUP1 ISZERO PUSH2 0x2D56 JUMPI RETURNDATASIZE PUSH1 0x0 DUP1 RETURNDATACOPY RETURNDATASIZE PUSH1 0x0 REVERT JUMPDEST POP POP POP POP DUP1 PUSH2 0x2D64 SWAP1 PUSH2 0x447F JUMP JUMPDEST SWAP1 POP PUSH2 0x2C9A JUMP JUMPDEST POP PUSH1 0x0 DUP3 DUP2 MSTORE PUSH1 0x7 PUSH1 0x20 MSTORE PUSH1 0x40 SWAP1 KECCAK256 DUP1 SLOAD PUSH8 0xFFFFFFFFFFFFFFFF NOT AND SWAP1 SSTORE PUSH2 0x1D8D JUMP JUMPDEST PUSH1 0x0 PUSH2 0x2D98 PUSH2 0x1203 JUMP JUMPDEST PUSH2 0x2DA7 CALLER PUSH2 0x831 PUSH1 0x1 NUMBER PUSH2 0x4401 JUMP JUMPDEST LT ISZERO PUSH2 0x2E27 JUMPI PUSH1 0x40 MLOAD PUSH3 0x461BCD PUSH1 0xE5 SHL DUP2 MSTORE PUSH1 0x20 PUSH1 0x4 DUP3 ADD MSTORE PUSH1 0x43 PUSH1 0x24 DUP3 ADD MSTORE PUSH32 0x476F7665726E6F72436F6D7061746962696C697479427261766F3A2070726F70 PUSH1 0x44 DUP3 ADD MSTORE PUSH32 0x6F73657220766F7465732062656C6F772070726F706F73616C20746872657368 PUSH1 0x64 DUP3 ADD MSTORE PUSH3 0x1BDB19 PUSH1 0xEA SHL PUSH1 0x84 DUP3 ADD MSTORE PUSH1 0xA4 ADD PUSH2 0xE65 JUMP JUMPDEST PUSH1 0x0 PUSH2 0x2E3C DUP7 DUP7 DUP7 DUP7 DUP1 MLOAD SWAP1 PUSH1 0x20 ADD KECCAK256 PUSH2 0x1328 JUMP JUMPDEST SWAP1 POP DUP5 MLOAD DUP7 MLOAD EQ PUSH2 0x2E5F JUMPI PUSH1 0x40 MLOAD PUSH3 0x461BCD PUSH1 0xE5 SHL DUP2 MSTORE PUSH1 0x4 ADD PUSH2 0xE65 SWAP1 PUSH2 0x41F7 JUMP JUMPDEST DUP4 MLOAD DUP7 MLOAD EQ PUSH2 0x2E80 JUMPI PUSH1 0x40 MLOAD PUSH3 0x461BCD PUSH1 0xE5 SHL DUP2 MSTORE PUSH1 0x4 ADD PUSH2 0xE65 SWAP1 PUSH2 0x41F7 JUMP JUMPDEST PUSH1 0x0 DUP7 MLOAD GT PUSH2 0x2ED1 JUMPI PUSH1 0x40 MLOAD PUSH3 0x461BCD PUSH1 0xE5 SHL DUP2 MSTORE PUSH1 0x20 PUSH1 0x4 DUP3 ADD MSTORE PUSH1 0x18 PUSH1 0x24 DUP3 ADD MSTORE PUSH32 0x476F7665726E6F723A20656D7074792070726F706F73616C0000000000000000 PUSH1 0x44 DUP3 ADD MSTORE PUSH1 0x64 ADD PUSH2 0xE65 JUMP JUMPDEST PUSH1 0x0 DUP2 DUP2 MSTORE PUSH1 0x1 PUSH1 0x20 SWAP1 DUP2 MSTORE PUSH1 0x40 SWAP2 DUP3 SWAP1 KECCAK256 DUP3 MLOAD SWAP2 DUP3 ADD SWAP1 SWAP3 MSTORE DUP2 SLOAD PUSH1 0x1 PUSH1 0x1 PUSH1 0x40 SHL SUB AND SWAP1 DUP2 SWAP1 MSTORE ISZERO PUSH2 0x2F51 JUMPI PUSH1 0x40 MLOAD PUSH3 0x461BCD PUSH1 0xE5 SHL DUP2 MSTORE PUSH1 0x20 PUSH1 0x4 DUP3 ADD MSTORE PUSH1 0x21 PUSH1 0x24 DUP3 ADD MSTORE PUSH32 0x476F7665726E6F723A2070726F706F73616C20616C7265616479206578697374 PUSH1 0x44 DUP3 ADD MSTORE PUSH1 0x73 PUSH1 0xF8 SHL PUSH1 0x64 DUP3 ADD MSTORE PUSH1 0x84 ADD PUSH2 0xE65 JUMP JUMPDEST PUSH1 0x0 PUSH2 0x2F64 PUSH2 0x2F5F PUSH1 0x3 SLOAD SWAP1 JUMP JUMPDEST PUSH2 0x2559 JUMP JUMPDEST PUSH2 0x2F6D NUMBER PUSH2 0x2559 JUMP JUMPDEST PUSH2 0x2F77 SWAP2 SWAP1 PUSH2 0x43D6 JUMP JUMPDEST SWAP1 POP PUSH1 0x0 PUSH2 0x2F87 PUSH2 0x2F5F PUSH1 0x4 SLOAD SWAP1 JUMP JUMPDEST PUSH2 0x2F91 SWAP1 DUP4 PUSH2 0x43D6 JUMP JUMPDEST SWAP1 POP PUSH2 0x2F9D DUP4 DUP4 PUSH2 0x25C5 JUMP JUMPDEST PUSH2 0x2FAA PUSH1 0x1 DUP5 ADD DUP3 PUSH2 0x25C5 JUMP JUMPDEST PUSH32 0x7D84A6263AE0D98D3329BD7B46BB4E8D6F98CD35A7ADB45C274C8B7FD5EBD5E0 DUP5 CALLER DUP12 DUP12 DUP14 MLOAD PUSH1 0x1 PUSH1 0x1 PUSH1 0x40 SHL SUB DUP2 GT ISZERO PUSH2 0x2FE8 JUMPI PUSH2 0x2FE8 PUSH2 0x44DC JUMP JUMPDEST PUSH1 0x40 MLOAD SWAP1 DUP1 DUP3 MSTORE DUP1 PUSH1 0x20 MUL PUSH1 0x20 ADD DUP3 ADD PUSH1 0x40 MSTORE DUP1 ISZERO PUSH2 0x301B JUMPI DUP2 PUSH1 0x20 ADD JUMPDEST PUSH1 0x60 DUP2 MSTORE PUSH1 0x20 ADD SWAP1 PUSH1 0x1 SWAP1 SUB SWAP1 DUP2 PUSH2 0x3006 JUMPI SWAP1 POP JUMPDEST POP DUP13 DUP9 DUP9 DUP15 PUSH1 0x40 MLOAD PUSH2 0x3035 SWAP10 SWAP9 SWAP8 SWAP7 SWAP6 SWAP5 SWAP4 SWAP3 SWAP2 SWAP1 PUSH2 0x4279 JUMP JUMPDEST PUSH1 0x40 MLOAD DUP1 SWAP2 SUB SWAP1 LOG1 POP SWAP2 SWAP8 SWAP7 POP POP POP POP POP POP POP JUMP JUMPDEST PUSH1 0x60 DUP3 SELFBALANCE LT ISZERO PUSH2 0x30AB JUMPI PUSH1 0x40 MLOAD PUSH3 0x461BCD PUSH1 0xE5 SHL DUP2 MSTORE PUSH1 0x20 PUSH1 0x4 DUP3 ADD MSTORE PUSH1 0x26 PUSH1 0x24 DUP3 ADD MSTORE PUSH32 0x416464726573733A20696E73756666696369656E742062616C616E636520666F PUSH1 0x44 DUP3 ADD MSTORE PUSH6 0x1C8818D85B1B PUSH1 0xD2 SHL PUSH1 0x64 DUP3 ADD MSTORE PUSH1 0x84 ADD PUSH2 0xE65 JUMP JUMPDEST DUP5 EXTCODESIZE PUSH2 0x30F9 JUMPI PUSH1 0x40 MLOAD PUSH3 0x461BCD PUSH1 0xE5 SHL DUP2 MSTORE PUSH1 0x20 PUSH1 0x4 DUP3 ADD MSTORE PUSH1 0x1D PUSH1 0x24 DUP3 ADD MSTORE PUSH32 0x416464726573733A2063616C6C20746F206E6F6E2D636F6E7472616374000000 PUSH1 0x44 DUP3 ADD MSTORE PUSH1 0x64 ADD PUSH2 0xE65 JUMP JUMPDEST PUSH1 0x0 DUP1 DUP7 PUSH1 0x1 PUSH1 0x1 PUSH1 0xA0 SHL SUB AND DUP6 DUP8 PUSH1 0x40 MLOAD PUSH2 0x3115 SWAP2 SWAP1 PUSH2 0x408B JUMP JUMPDEST PUSH1 0x0 PUSH1 0x40 MLOAD DUP1 DUP4 SUB DUP2 DUP6 DUP8 GAS CALL SWAP3 POP POP POP RETURNDATASIZE DUP1 PUSH1 0x0 DUP2 EQ PUSH2 0x3152 JUMPI PUSH1 0x40 MLOAD SWAP2 POP PUSH1 0x1F NOT PUSH1 0x3F RETURNDATASIZE ADD AND DUP3 ADD PUSH1 0x40 MSTORE RETURNDATASIZE DUP3 MSTORE RETURNDATASIZE PUSH1 0x0 PUSH1 0x20 DUP5 ADD RETURNDATACOPY PUSH2 0x3157 JUMP JUMPDEST PUSH1 0x60 SWAP2 POP JUMPDEST POP SWAP2 POP SWAP2 POP PUSH2 0xDA9 DUP3 DUP3 DUP7 PUSH2 0x3491 JUMP JUMPDEST PUSH1 0x0 PUSH2 0x3172 DUP7 PUSH2 0x11F8 JUMP JUMPDEST SWAP1 POP PUSH1 0x0 DUP2 GT PUSH2 0x31DE JUMPI PUSH1 0x40 MLOAD PUSH3 0x461BCD PUSH1 0xE5 SHL DUP2 MSTORE PUSH1 0x20 PUSH1 0x4 DUP3 ADD MSTORE PUSH1 0x31 PUSH1 0x24 DUP3 ADD MSTORE PUSH32 0x476F7665726E6F7254696D656C6F636B436F6D706F756E643A2070726F706F73 PUSH1 0x44 DUP3 ADD MSTORE PUSH17 0x185B081B9BDD081E595D081C5D595D5959 PUSH1 0x7A SHL PUSH1 0x64 DUP3 ADD MSTORE PUSH1 0x84 ADD PUSH2 0xE65 JUMP JUMPDEST PUSH1 0x6 SLOAD PUSH2 0x31F4 SWAP1 PUSH1 0x1 PUSH1 0x1 PUSH1 0xA0 SHL SUB AND CALLVALUE PUSH2 0x34CA JUMP JUMPDEST PUSH1 0x0 JUMPDEST DUP6 MLOAD DUP2 LT ISZERO PUSH2 0x32EC JUMPI PUSH1 0x6 SLOAD DUP7 MLOAD PUSH1 0x1 PUSH1 0x1 PUSH1 0xA0 SHL SUB SWAP1 SWAP2 AND SWAP1 PUSH4 0x825F38F SWAP1 DUP9 SWAP1 DUP5 SWAP1 DUP2 LT PUSH2 0x3229 JUMPI PUSH2 0x3229 PUSH2 0x44C6 JUMP JUMPDEST PUSH1 0x20 MUL PUSH1 0x20 ADD ADD MLOAD DUP8 DUP5 DUP2 MLOAD DUP2 LT PUSH2 0x3243 JUMPI PUSH2 0x3243 PUSH2 0x44C6 JUMP JUMPDEST PUSH1 0x20 MUL PUSH1 0x20 ADD ADD MLOAD DUP8 DUP6 DUP2 MLOAD DUP2 LT PUSH2 0x325D JUMPI PUSH2 0x325D PUSH2 0x44C6 JUMP JUMPDEST PUSH1 0x20 MUL PUSH1 0x20 ADD ADD MLOAD DUP7 PUSH1 0x40 MLOAD DUP6 PUSH4 0xFFFFFFFF AND PUSH1 0xE0 SHL DUP2 MSTORE PUSH1 0x4 ADD PUSH2 0x3285 SWAP5 SWAP4 SWAP3 SWAP2 SWAP1 PUSH2 0x40A7 JUMP JUMPDEST PUSH1 0x0 PUSH1 0x40 MLOAD DUP1 DUP4 SUB DUP2 PUSH1 0x0 DUP8 DUP1 EXTCODESIZE ISZERO DUP1 ISZERO PUSH2 0x329F JUMPI PUSH1 0x0 DUP1 REVERT JUMPDEST POP GAS CALL ISZERO DUP1 ISZERO PUSH2 0x32B3 JUMPI RETURNDATASIZE PUSH1 0x0 DUP1 RETURNDATACOPY RETURNDATASIZE PUSH1 0x0 REVERT JUMPDEST POP POP POP POP PUSH1 0x40 MLOAD RETURNDATASIZE PUSH1 0x0 DUP3 RETURNDATACOPY PUSH1 0x1F RETURNDATASIZE SWAP1 DUP2 ADD PUSH1 0x1F NOT AND DUP3 ADD PUSH1 0x40 MSTORE PUSH2 0x32DB SWAP2 SWAP1 DUP2 ADD SWAP1 PUSH2 0x3DDF JUMP JUMPDEST POP PUSH2 0x32E5 DUP2 PUSH2 0x447F JUMP JUMPDEST SWAP1 POP PUSH2 0x31F7 JUMP JUMPDEST POP POP POP POP POP POP POP JUMP JUMPDEST PUSH1 0x0 PUSH1 0x1 PUSH1 0x1 PUSH1 0x60 SHL SUB DUP3 GT ISZERO PUSH2 0x25C1 JUMPI PUSH1 0x40 MLOAD PUSH3 0x461BCD PUSH1 0xE5 SHL DUP2 MSTORE PUSH1 0x20 PUSH1 0x4 DUP3 ADD MSTORE PUSH1 0x26 PUSH1 0x24 DUP3 ADD MSTORE PUSH32 0x53616665436173743A2076616C756520646F65736E27742066697420696E2039 PUSH1 0x44 DUP3 ADD MSTORE PUSH6 0x362062697473 PUSH1 0xD0 SHL PUSH1 0x64 DUP3 ADD MSTORE PUSH1 0x84 ADD PUSH2 0xE65 JUMP JUMPDEST PUSH1 0x0 DUP2 DUP2 MSTORE PUSH1 0x2 PUSH1 0x20 MSTORE PUSH1 0x40 DUP2 KECCAK256 PUSH1 0x5 DUP2 ADD SLOAD PUSH2 0x337C PUSH2 0x871 DUP6 PUSH2 0xA58 JUMP JUMPDEST GT ISZERO SWAP4 SWAP3 POP POP POP JUMP JUMPDEST PUSH1 0x0 DUP1 PUSH2 0x3394 DUP7 DUP7 DUP7 DUP7 PUSH2 0x1328 JUMP JUMPDEST SWAP1 POP PUSH1 0x0 PUSH2 0x33A1 DUP3 PUSH2 0xDB4 JUMP JUMPDEST SWAP1 POP PUSH1 0x2 DUP2 PUSH1 0x7 DUP2 GT ISZERO PUSH2 0x33B7 JUMPI PUSH2 0x33B7 PUSH2 0x44B0 JUMP JUMPDEST EQ ISZERO DUP1 ISZERO PUSH2 0x33D7 JUMPI POP PUSH1 0x6 DUP2 PUSH1 0x7 DUP2 GT ISZERO PUSH2 0x33D4 JUMPI PUSH2 0x33D4 PUSH2 0x44B0 JUMP JUMPDEST EQ ISZERO JUMPDEST DUP1 ISZERO PUSH2 0x33F5 JUMPI POP PUSH1 0x7 DUP2 PUSH1 0x7 DUP2 GT ISZERO PUSH2 0x33F2 JUMPI PUSH2 0x33F2 PUSH2 0x44B0 JUMP JUMPDEST EQ ISZERO JUMPDEST PUSH2 0x3441 JUMPI PUSH1 0x40 MLOAD PUSH3 0x461BCD PUSH1 0xE5 SHL DUP2 MSTORE PUSH1 0x20 PUSH1 0x4 DUP3 ADD MSTORE PUSH1 0x1D PUSH1 0x24 DUP3 ADD MSTORE PUSH32 0x476F7665726E6F723A2070726F706F73616C206E6F7420616374697665000000 PUSH1 0x44 DUP3 ADD MSTORE PUSH1 0x64 ADD PUSH2 0xE65 JUMP JUMPDEST PUSH1 0x0 DUP3 DUP2 MSTORE PUSH1 0x1 PUSH1 0x20 MSTORE PUSH1 0x40 SWAP1 DUP2 SWAP1 KECCAK256 PUSH1 0x2 ADD DUP1 SLOAD PUSH2 0xFF00 NOT AND PUSH2 0x100 OR SWAP1 SSTORE MLOAD PUSH32 0x789CF55BE980739DAD1D0699B93B58E806B51C9D96619BFA8FE0A28ABAA7B30C SWAP1 PUSH2 0x1CB2 SWAP1 DUP5 DUP2 MSTORE PUSH1 0x20 ADD SWAP1 JUMP JUMPDEST PUSH1 0x60 DUP4 ISZERO PUSH2 0x34A0 JUMPI POP DUP2 PUSH2 0x1642 JUMP JUMPDEST DUP3 MLOAD ISZERO PUSH2 0x34B0 JUMPI DUP3 MLOAD DUP1 DUP5 PUSH1 0x20 ADD REVERT JUMPDEST DUP2 PUSH1 0x40 MLOAD PUSH3 0x461BCD PUSH1 0xE5 SHL DUP2 MSTORE PUSH1 0x4 ADD PUSH2 0xE65 SWAP2 SWAP1 PUSH2 0x4185 JUMP JUMPDEST DUP1 SELFBALANCE LT ISZERO PUSH2 0x351A JUMPI PUSH1 0x40 MLOAD PUSH3 0x461BCD PUSH1 0xE5 SHL DUP2 MSTORE PUSH1 0x20 PUSH1 0x4 DUP3 ADD MSTORE PUSH1 0x1D PUSH1 0x24 DUP3 ADD MSTORE PUSH32 0x416464726573733A20696E73756666696369656E742062616C616E6365000000 PUSH1 0x44 DUP3 ADD MSTORE PUSH1 0x64 ADD PUSH2 0xE65 JUMP JUMPDEST PUSH1 0x0 DUP3 PUSH1 0x1 PUSH1 0x1 PUSH1 0xA0 SHL SUB AND DUP3 PUSH1 0x40 MLOAD PUSH1 0x0 PUSH1 0x40 MLOAD DUP1 DUP4 SUB DUP2 DUP6 DUP8 GAS CALL SWAP3 POP POP POP RETURNDATASIZE DUP1 PUSH1 0x0 DUP2 EQ PUSH2 0x3567 JUMPI PUSH1 0x40 MLOAD SWAP2 POP PUSH1 0x1F NOT PUSH1 0x3F RETURNDATASIZE ADD AND DUP3 ADD PUSH1 0x40 MSTORE RETURNDATASIZE DUP3 MSTORE RETURNDATASIZE PUSH1 0x0 PUSH1 0x20 DUP5 ADD RETURNDATACOPY PUSH2 0x356C JUMP JUMPDEST PUSH1 0x60 SWAP2 POP JUMPDEST POP POP SWAP1 POP DUP1 PUSH2 0x10D7 JUMPI PUSH1 0x40 MLOAD PUSH3 0x461BCD PUSH1 0xE5 SHL DUP2 MSTORE PUSH1 0x20 PUSH1 0x4 DUP3 ADD MSTORE PUSH1 0x3A PUSH1 0x24 DUP3 ADD MSTORE PUSH32 0x416464726573733A20756E61626C6520746F2073656E642076616C75652C2072 PUSH1 0x44 DUP3 ADD MSTORE PUSH32 0x6563697069656E74206D61792068617665207265766572746564000000000000 PUSH1 0x64 DUP3 ADD MSTORE PUSH1 0x84 ADD PUSH2 0xE65 JUMP JUMPDEST DUP3 DUP1 SLOAD DUP3 DUP3 SSTORE SWAP1 PUSH1 0x0 MSTORE PUSH1 0x20 PUSH1 0x0 KECCAK256 SWAP1 DUP2 ADD SWAP3 DUP3 ISZERO PUSH2 0x3638 JUMPI SWAP2 PUSH1 0x20 MUL DUP3 ADD JUMPDEST DUP3 DUP2 GT ISZERO PUSH2 0x3638 JUMPI DUP3 MLOAD DUP3 SLOAD PUSH1 0x1 PUSH1 0x1 PUSH1 0xA0 SHL SUB NOT AND PUSH1 0x1 PUSH1 0x1 PUSH1 0xA0 SHL SUB SWAP1 SWAP2 AND OR DUP3 SSTORE PUSH1 0x20 SWAP1 SWAP3 ADD SWAP2 PUSH1 0x1 SWAP1 SWAP2 ADD SWAP1 PUSH2 0x3603 JUMP JUMPDEST POP PUSH2 0x25C1 SWAP3 SWAP2 POP PUSH2 0x3731 JUMP JUMPDEST DUP3 DUP1 SLOAD DUP3 DUP3 SSTORE SWAP1 PUSH1 0x0 MSTORE PUSH1 0x20 PUSH1 0x0 KECCAK256 SWAP1 DUP2 ADD SWAP3 DUP3 ISZERO PUSH2 0x3638 JUMPI SWAP2 PUSH1 0x20 MUL DUP3 ADD JUMPDEST DUP3 DUP2 GT ISZERO PUSH2 0x3638 JUMPI DUP3 MLOAD DUP3 SSTORE SWAP2 PUSH1 0x20 ADD SWAP2 SWAP1 PUSH1 0x1 ADD SWAP1 PUSH2 0x3664 JUMP JUMPDEST DUP3 DUP1 SLOAD DUP3 DUP3 SSTORE SWAP1 PUSH1 0x0 MSTORE PUSH1 0x20 PUSH1 0x0 KECCAK256 SWAP1 DUP2 ADD SWAP3 DUP3 ISZERO PUSH2 0x36CC JUMPI SWAP2 PUSH1 0x20 MUL DUP3 ADD JUMPDEST DUP3 DUP2 GT ISZERO PUSH2 0x36CC JUMPI DUP3 MLOAD DUP1 MLOAD PUSH2 0x36BC SWAP2 DUP5 SWAP2 PUSH1 0x20 SWAP1 SWAP2 ADD SWAP1 PUSH2 0x3746 JUMP JUMPDEST POP SWAP2 PUSH1 0x20 ADD SWAP2 SWAP1 PUSH1 0x1 ADD SWAP1 PUSH2 0x369F JUMP JUMPDEST POP PUSH2 0x25C1 SWAP3 SWAP2 POP PUSH2 0x37B9 JUMP JUMPDEST DUP3 DUP1 SLOAD DUP3 DUP3 SSTORE SWAP1 PUSH1 0x0 MSTORE PUSH1 0x20 PUSH1 0x0 KECCAK256 SWAP1 DUP2 ADD SWAP3 DUP3 ISZERO PUSH2 0x3725 JUMPI SWAP2 PUSH1 0x20 MUL DUP3 ADD JUMPDEST DUP3 DUP2 GT ISZERO PUSH2 0x3725 JUMPI DUP3 MLOAD DUP1 MLOAD PUSH2 0x3715 SWAP2 DUP5 SWAP2 PUSH1 0x20 SWAP1 SWAP2 ADD SWAP1 PUSH2 0x3746 JUMP JUMPDEST POP SWAP2 PUSH1 0x20 ADD SWAP2 SWAP1 PUSH1 0x1 ADD SWAP1 PUSH2 0x36F8 JUMP JUMPDEST POP PUSH2 0x25C1 SWAP3 SWAP2 POP PUSH2 0x37D6 JUMP JUMPDEST JUMPDEST DUP1 DUP3 GT ISZERO PUSH2 0x25C1 JUMPI PUSH1 0x0 DUP2 SSTORE PUSH1 0x1 ADD PUSH2 0x3732 JUMP JUMPDEST DUP3 DUP1 SLOAD PUSH2 0x3752 SWAP1 PUSH2 0x4444 JUMP JUMPDEST SWAP1 PUSH1 0x0 MSTORE PUSH1 0x20 PUSH1 0x0 KECCAK256 SWAP1 PUSH1 0x1F ADD PUSH1 0x20 SWAP1 DIV DUP2 ADD SWAP3 DUP3 PUSH2 0x3774 JUMPI PUSH1 0x0 DUP6 SSTORE PUSH2 0x3638 JUMP JUMPDEST DUP3 PUSH1 0x1F LT PUSH2 0x378D JUMPI DUP1 MLOAD PUSH1 0xFF NOT AND DUP4 DUP1 ADD OR DUP6 SSTORE PUSH2 0x3638 JUMP JUMPDEST DUP3 DUP1 ADD PUSH1 0x1 ADD DUP6 SSTORE DUP3 ISZERO PUSH2 0x3638 JUMPI SWAP2 DUP3 ADD DUP3 DUP2 GT ISZERO PUSH2 0x3638 JUMPI DUP3 MLOAD DUP3 SSTORE SWAP2 PUSH1 0x20 ADD SWAP2 SWAP1 PUSH1 0x1 ADD SWAP1 PUSH2 0x3664 JUMP JUMPDEST DUP1 DUP3 GT ISZERO PUSH2 0x25C1 JUMPI PUSH1 0x0 PUSH2 0x37CD DUP3 DUP3 PUSH2 0x37F3 JUMP JUMPDEST POP PUSH1 0x1 ADD PUSH2 0x37B9 JUMP JUMPDEST DUP1 DUP3 GT ISZERO PUSH2 0x25C1 JUMPI PUSH1 0x0 PUSH2 0x37EA DUP3 DUP3 PUSH2 0x37F3 JUMP JUMPDEST POP PUSH1 0x1 ADD PUSH2 0x37D6 JUMP JUMPDEST POP DUP1 SLOAD PUSH2 0x37FF SWAP1 PUSH2 0x4444 JUMP JUMPDEST PUSH1 0x0 DUP3 SSTORE DUP1 PUSH1 0x1F LT PUSH2 0x380F JUMPI POP POP JUMP JUMPDEST PUSH1 0x1F ADD PUSH1 0x20 SWAP1 DIV SWAP1 PUSH1 0x0 MSTORE PUSH1 0x20 PUSH1 0x0 KECCAK256 SWAP1 DUP2 ADD SWAP1 PUSH2 0x1154 SWAP2 SWAP1 PUSH2 0x3731 JUMP JUMPDEST PUSH1 0x0 PUSH2 0x3840 PUSH2 0x383B DUP5 PUSH2 0x4397 JUMP JUMPDEST PUSH2 0x4344 JUMP JUMPDEST SWAP1 POP DUP3 DUP2 MSTORE DUP4 DUP4 DUP4 ADD GT ISZERO PUSH2 0x3854 JUMPI PUSH1 0x0 DUP1 REVERT JUMPDEST DUP3 DUP3 PUSH1 0x20 DUP4 ADD CALLDATACOPY PUSH1 0x0 PUSH1 0x20 DUP5 DUP4 ADD ADD MSTORE SWAP4 SWAP3 POP POP POP JUMP JUMPDEST PUSH1 0x0 DUP3 PUSH1 0x1F DUP4 ADD SLT PUSH2 0x387C JUMPI PUSH1 0x0 DUP1 REVERT JUMPDEST DUP2 CALLDATALOAD PUSH1 0x20 PUSH2 0x388C PUSH2 0x383B DUP4 PUSH2 0x4374 JUMP JUMPDEST DUP1 DUP4 DUP3 MSTORE DUP3 DUP3 ADD SWAP2 POP DUP3 DUP7 ADD DUP8 DUP5 DUP7 PUSH1 0x5 SHL DUP10 ADD ADD GT ISZERO PUSH2 0x38AC JUMPI PUSH1 0x0 DUP1 REVERT JUMPDEST PUSH1 0x0 JUMPDEST DUP6 DUP2 LT ISZERO PUSH2 0x38D4 JUMPI DUP2 CALLDATALOAD PUSH2 0x38C2 DUP2 PUSH2 0x44F2 JUMP JUMPDEST DUP5 MSTORE SWAP3 DUP5 ADD SWAP3 SWAP1 DUP5 ADD SWAP1 PUSH1 0x1 ADD PUSH2 0x38AF JUMP JUMPDEST POP SWAP1 SWAP8 SWAP7 POP POP POP POP POP POP POP JUMP JUMPDEST PUSH1 0x0 DUP3 PUSH1 0x1F DUP4 ADD SLT PUSH2 0x38F2 JUMPI PUSH1 0x0 DUP1 REVERT JUMPDEST DUP2 CALLDATALOAD PUSH1 0x20 PUSH2 0x3902 PUSH2 0x383B DUP4 PUSH2 0x4374 JUMP JUMPDEST DUP1 DUP4 DUP3 MSTORE DUP3 DUP3 ADD SWAP2 POP DUP3 DUP7 ADD DUP8 DUP5 DUP7 PUSH1 0x5 SHL DUP10 ADD ADD GT ISZERO PUSH2 0x3922 JUMPI PUSH1 0x0 DUP1 REVERT JUMPDEST PUSH1 0x0 JUMPDEST DUP6 DUP2 LT ISZERO PUSH2 0x38D4 JUMPI DUP2 CALLDATALOAD PUSH1 0x1 PUSH1 0x1 PUSH1 0x40 SHL SUB DUP2 GT ISZERO PUSH2 0x3943 JUMPI PUSH1 0x0 DUP1 REVERT JUMPDEST DUP9 ADD PUSH1 0x3F DUP2 ADD DUP11 SGT PUSH2 0x3954 JUMPI PUSH1 0x0 DUP1 REVERT JUMPDEST PUSH2 0x3965 DUP11 DUP8 DUP4 ADD CALLDATALOAD PUSH1 0x40 DUP5 ADD PUSH2 0x382D JUMP JUMPDEST DUP6 MSTORE POP SWAP3 DUP5 ADD SWAP3 SWAP1 DUP5 ADD SWAP1 PUSH1 0x1 ADD PUSH2 0x3925 JUMP JUMPDEST PUSH1 0x0 DUP3 PUSH1 0x1F DUP4 ADD SLT PUSH2 0x3989 JUMPI PUSH1 0x0 DUP1 REVERT JUMPDEST DUP2 CALLDATALOAD PUSH1 0x20 PUSH2 0x3999 PUSH2 0x383B DUP4 PUSH2 0x4374 JUMP JUMPDEST DUP1 DUP4 DUP3 MSTORE DUP3 DUP3 ADD SWAP2 POP DUP3 DUP7 ADD DUP8 DUP5 DUP7 PUSH1 0x5 SHL DUP10 ADD ADD GT ISZERO PUSH2 0x39B9 JUMPI PUSH1 0x0 DUP1 REVERT JUMPDEST PUSH1 0x0 DUP1 JUMPDEST DUP7 DUP2 LT ISZERO PUSH2 0x39FB JUMPI DUP3 CALLDATALOAD PUSH1 0x1 PUSH1 0x1 PUSH1 0x40 SHL SUB DUP2 GT ISZERO PUSH2 0x39DA JUMPI DUP3 DUP4 REVERT JUMPDEST PUSH2 0x39E8 DUP12 DUP9 DUP4 DUP14 ADD ADD PUSH2 0x3AB1 JUMP JUMPDEST DUP7 MSTORE POP SWAP4 DUP6 ADD SWAP4 SWAP2 DUP6 ADD SWAP2 PUSH1 0x1 ADD PUSH2 0x39BD JUMP JUMPDEST POP SWAP2 SWAP9 SWAP8 POP POP POP POP POP POP POP POP JUMP JUMPDEST PUSH1 0x0 DUP3 PUSH1 0x1F DUP4 ADD SLT PUSH2 0x3A1A JUMPI PUSH1 0x0 DUP1 REVERT JUMPDEST DUP2 CALLDATALOAD PUSH1 0x20 PUSH2 0x3A2A PUSH2 0x383B DUP4 PUSH2 0x4374 JUMP JUMPDEST DUP1 DUP4 DUP3 MSTORE DUP3 DUP3 ADD SWAP2 POP DUP3 DUP7 ADD DUP8 DUP5 DUP7 PUSH1 0x5 SHL DUP10 ADD ADD GT ISZERO PUSH2 0x3A4A JUMPI PUSH1 0x0 DUP1 REVERT JUMPDEST PUSH1 0x0 JUMPDEST DUP6 DUP2 LT ISZERO PUSH2 0x38D4 JUMPI DUP2 CALLDATALOAD DUP5 MSTORE SWAP3 DUP5 ADD SWAP3 SWAP1 DUP5 ADD SWAP1 PUSH1 0x1 ADD PUSH2 0x3A4D JUMP JUMPDEST PUSH1 0x0 DUP1 DUP4 PUSH1 0x1F DUP5 ADD SLT PUSH2 0x3A7B JUMPI PUSH1 0x0 DUP1 REVERT JUMPDEST POP DUP2 CALLDATALOAD PUSH1 0x1 PUSH1 0x1 PUSH1 0x40 SHL SUB DUP2 GT ISZERO PUSH2 0x3A92 JUMPI PUSH1 0x0 DUP1 REVERT JUMPDEST PUSH1 0x20 DUP4 ADD SWAP2 POP DUP4 PUSH1 0x20 DUP3 DUP6 ADD ADD GT ISZERO PUSH2 0x3AAA JUMPI PUSH1 0x0 DUP1 REVERT JUMPDEST SWAP3 POP SWAP3 SWAP1 POP JUMP JUMPDEST PUSH1 0x0 DUP3 PUSH1 0x1F DUP4 ADD SLT PUSH2 0x3AC2 JUMPI PUSH1 0x0 DUP1 REVERT JUMPDEST PUSH2 0x1642 DUP4 DUP4 CALLDATALOAD PUSH1 0x20 DUP6 ADD PUSH2 0x382D JUMP JUMPDEST DUP1 CALLDATALOAD PUSH1 0xFF DUP2 AND DUP2 EQ PUSH2 0x3AE2 JUMPI PUSH1 0x0 DUP1 REVERT JUMPDEST SWAP2 SWAP1 POP JUMP JUMPDEST PUSH1 0x0 DUP1 PUSH1 0x40 DUP4 DUP6 SUB SLT ISZERO PUSH2 0x3AFA JUMPI PUSH1 0x0 DUP1 REVERT JUMPDEST DUP3 CALLDATALOAD PUSH2 0x3B05 DUP2 PUSH2 0x44F2 JUMP JUMPDEST SWAP5 PUSH1 0x20 SWAP4 SWAP1 SWAP4 ADD CALLDATALOAD SWAP4 POP POP POP JUMP JUMPDEST PUSH1 0x0 DUP1 PUSH1 0x0 DUP1 PUSH1 0x60 DUP6 DUP8 SUB SLT ISZERO PUSH2 0x3B29 JUMPI PUSH1 0x0 DUP1 REVERT JUMPDEST DUP5 CALLDATALOAD PUSH2 0x3B34 DUP2 PUSH2 0x44F2 JUMP JUMPDEST SWAP4 POP PUSH1 0x20 DUP6 ADD CALLDATALOAD SWAP3 POP PUSH1 0x40 DUP6 ADD CALLDATALOAD PUSH1 0x1 PUSH1 0x1 PUSH1 0x40 SHL SUB DUP2 GT ISZERO PUSH2 0x3B56 JUMPI PUSH1 0x0 DUP1 REVERT JUMPDEST PUSH2 0x3B62 DUP8 DUP3 DUP9 ADD PUSH2 0x3A69 JUMP JUMPDEST SWAP6 SWAP9 SWAP5 SWAP8 POP SWAP6 POP POP POP POP JUMP JUMPDEST PUSH1 0x0 DUP1 PUSH1 0x0 DUP1 PUSH1 0x80 DUP6 DUP8 SUB SLT ISZERO PUSH2 0x3B84 JUMPI PUSH1 0x0 DUP1 REVERT JUMPDEST DUP5 CALLDATALOAD PUSH1 0x1 PUSH1 0x1 PUSH1 0x40 SHL SUB DUP1 DUP3 GT ISZERO PUSH2 0x3B9B JUMPI PUSH1 0x0 DUP1 REVERT JUMPDEST PUSH2 0x3BA7 DUP9 DUP4 DUP10 ADD PUSH2 0x386B JUMP JUMPDEST SWAP6 POP PUSH1 0x20 DUP8 ADD CALLDATALOAD SWAP2 POP DUP1 DUP3 GT ISZERO PUSH2 0x3BBD JUMPI PUSH1 0x0 DUP1 REVERT JUMPDEST PUSH2 0x3BC9 DUP9 DUP4 DUP10 ADD PUSH2 0x3A09 JUMP JUMPDEST SWAP5 POP PUSH1 0x40 DUP8 ADD CALLDATALOAD SWAP2 POP DUP1 DUP3 GT ISZERO PUSH2 0x3BDF JUMPI PUSH1 0x0 DUP1 REVERT JUMPDEST POP PUSH2 0x3BEC DUP8 DUP3 DUP9 ADD PUSH2 0x38E1 JUMP JUMPDEST SWAP5 SWAP8 SWAP4 SWAP7 POP SWAP4 SWAP5 PUSH1 0x60 ADD CALLDATALOAD SWAP4 POP POP POP JUMP JUMPDEST PUSH1 0x0 DUP1 PUSH1 0x0 DUP1 PUSH1 0x80 DUP6 DUP8 SUB SLT ISZERO PUSH2 0x3C13 JUMPI PUSH1 0x0 DUP1 REVERT JUMPDEST DUP5 CALLDATALOAD PUSH1 0x1 PUSH1 0x1 PUSH1 0x40 SHL SUB DUP1 DUP3 GT ISZERO PUSH2 0x3C2A JUMPI PUSH1 0x0 DUP1 REVERT JUMPDEST PUSH2 0x3C36 DUP9 DUP4 DUP10 ADD PUSH2 0x386B JUMP JUMPDEST SWAP6 POP PUSH1 0x20 DUP8 ADD CALLDATALOAD SWAP2 POP DUP1 DUP3 GT ISZERO PUSH2 0x3C4C JUMPI PUSH1 0x0 DUP1 REVERT JUMPDEST PUSH2 0x3C58 DUP9 DUP4 DUP10 ADD PUSH2 0x3A09 JUMP JUMPDEST SWAP5 POP PUSH1 0x40 DUP8 ADD CALLDATALOAD SWAP2 POP DUP1 DUP3 GT ISZERO PUSH2 0x3C6E JUMPI PUSH1 0x0 DUP1 REVERT JUMPDEST PUSH2 0x3C7A DUP9 DUP4 DUP10 ADD PUSH2 0x38E1 JUMP JUMPDEST SWAP4 POP PUSH1 0x60 DUP8 ADD CALLDATALOAD SWAP2 POP DUP1 DUP3 GT ISZERO PUSH2 0x3C90 JUMPI PUSH1 0x0 DUP1 REVERT JUMPDEST POP PUSH2 0x3C9D DUP8 DUP3 DUP9 ADD PUSH2 0x3AB1 JUMP JUMPDEST SWAP2 POP POP SWAP3 SWAP6 SWAP2 SWAP5 POP SWAP3 POP JUMP JUMPDEST PUSH1 0x0 DUP1 PUSH1 0x0 DUP1 PUSH1 0x0 PUSH1 0xA0 DUP7 DUP9 SUB SLT ISZERO PUSH2 0x3CC1 JUMPI PUSH1 0x0 DUP1 REVERT JUMPDEST DUP6 CALLDATALOAD PUSH1 0x1 PUSH1 0x1 PUSH1 0x40 SHL SUB DUP1 DUP3 GT ISZERO PUSH2 0x3CD8 JUMPI PUSH1 0x0 DUP1 REVERT JUMPDEST PUSH2 0x3CE4 DUP10 DUP4 DUP11 ADD PUSH2 0x386B JUMP JUMPDEST SWAP7 POP PUSH1 0x20 DUP9 ADD CALLDATALOAD SWAP2 POP DUP1 DUP3 GT ISZERO PUSH2 0x3CFA JUMPI PUSH1 0x0 DUP1 REVERT JUMPDEST PUSH2 0x3D06 DUP10 DUP4 DUP11 ADD PUSH2 0x3A09 JUMP JUMPDEST SWAP6 POP PUSH1 0x40 DUP9 ADD CALLDATALOAD SWAP2 POP DUP1 DUP3 GT ISZERO PUSH2 0x3D1C JUMPI PUSH1 0x0 DUP1 REVERT JUMPDEST PUSH2 0x3D28 DUP10 DUP4 DUP11 ADD PUSH2 0x3978 JUMP JUMPDEST SWAP5 POP PUSH1 0x60 DUP9 ADD CALLDATALOAD SWAP2 POP DUP1 DUP3 GT ISZERO PUSH2 0x3D3E JUMPI PUSH1 0x0 DUP1 REVERT JUMPDEST PUSH2 0x3D4A DUP10 DUP4 DUP11 ADD PUSH2 0x38E1 JUMP JUMPDEST SWAP4 POP PUSH1 0x80 DUP9 ADD CALLDATALOAD SWAP2 POP DUP1 DUP3 GT ISZERO PUSH2 0x3D60 JUMPI PUSH1 0x0 DUP1 REVERT JUMPDEST POP PUSH2 0x3D6D DUP9 DUP3 DUP10 ADD PUSH2 0x3AB1 JUMP JUMPDEST SWAP2 POP POP SWAP3 SWAP6 POP SWAP3 SWAP6 SWAP1 SWAP4 POP JUMP JUMPDEST PUSH1 0x0 PUSH1 0x20 DUP3 DUP5 SUB SLT ISZERO PUSH2 0x3D8C JUMPI PUSH1 0x0 DUP1 REVERT JUMPDEST DUP2 MLOAD DUP1 ISZERO ISZERO DUP2 EQ PUSH2 0x1642 JUMPI PUSH1 0x0 DUP1 REVERT JUMPDEST PUSH1 0x0 PUSH1 0x20 DUP3 DUP5 SUB SLT ISZERO PUSH2 0x3DAE JUMPI PUSH1 0x0 DUP1 REVERT JUMPDEST POP MLOAD SWAP2 SWAP1 POP JUMP JUMPDEST PUSH1 0x0 PUSH1 0x20 DUP3 DUP5 SUB SLT ISZERO PUSH2 0x3DC7 JUMPI PUSH1 0x0 DUP1 REVERT JUMPDEST DUP2 CALLDATALOAD PUSH1 0x1 PUSH1 0x1 PUSH1 0xE0 SHL SUB NOT DUP2 AND DUP2 EQ PUSH2 0x1642 JUMPI PUSH1 0x0 DUP1 REVERT JUMPDEST PUSH1 0x0 PUSH1 0x20 DUP3 DUP5 SUB SLT ISZERO PUSH2 0x3DF1 JUMPI PUSH1 0x0 DUP1 REVERT JUMPDEST DUP2 MLOAD PUSH1 0x1 PUSH1 0x1 PUSH1 0x40 SHL SUB DUP2 GT ISZERO PUSH2 0x3E07 JUMPI PUSH1 0x0 DUP1 REVERT JUMPDEST DUP3 ADD PUSH1 0x1F DUP2 ADD DUP5 SGT PUSH2 0x3E18 JUMPI PUSH1 0x0 DUP1 REVERT JUMPDEST DUP1 MLOAD PUSH2 0x3E26 PUSH2 0x383B DUP3 PUSH2 0x4397 JUMP JUMPDEST DUP2 DUP2 MSTORE DUP6 PUSH1 0x20 DUP4 DUP6 ADD ADD GT ISZERO PUSH2 0x3E3B JUMPI PUSH1 0x0 DUP1 REVERT JUMPDEST PUSH2 0xA31 DUP3 PUSH1 0x20 DUP4 ADD PUSH1 0x20 DUP7 ADD PUSH2 0x4418 JUMP JUMPDEST PUSH1 0x0 PUSH1 0x20 DUP3 DUP5 SUB SLT ISZERO PUSH2 0x3E5E JUMPI PUSH1 0x0 DUP1 REVERT JUMPDEST DUP2 CALLDATALOAD PUSH2 0x1642 DUP2 PUSH2 0x44F2 JUMP JUMPDEST PUSH1 0x0 PUSH1 0x20 DUP3 DUP5 SUB SLT ISZERO PUSH2 0x3E7B JUMPI PUSH1 0x0 DUP1 REVERT JUMPDEST POP CALLDATALOAD SWAP2 SWAP1 POP JUMP JUMPDEST PUSH1 0x0 DUP1 PUSH1 0x40 DUP4 DUP6 SUB SLT ISZERO PUSH2 0x3E95 JUMPI PUSH1 0x0 DUP1 REVERT JUMPDEST DUP3 CALLDATALOAD SWAP2 POP PUSH1 0x20 DUP4 ADD CALLDATALOAD PUSH2 0x3EA7 DUP2 PUSH2 0x44F2 JUMP JUMPDEST DUP1 SWAP2 POP POP SWAP3 POP SWAP3 SWAP1 POP JUMP JUMPDEST PUSH1 0x0 DUP1 PUSH1 0x40 DUP4 DUP6 SUB SLT ISZERO PUSH2 0x3EC5 JUMPI PUSH1 0x0 DUP1 REVERT JUMPDEST DUP3 CALLDATALOAD SWAP2 POP PUSH2 0x3ED5 PUSH1 0x20 DUP5 ADD PUSH2 0x3AD1 JUMP JUMPDEST SWAP1 POP SWAP3 POP SWAP3 SWAP1 POP JUMP JUMPDEST PUSH1 0x0 DUP1 PUSH1 0x0 DUP1 PUSH1 0x60 DUP6 DUP8 SUB SLT ISZERO PUSH2 0x3EF4 JUMPI PUSH1 0x0 DUP1 REVERT JUMPDEST DUP5 CALLDATALOAD SWAP4 POP PUSH2 0x3F04 PUSH1 0x20 DUP7 ADD PUSH2 0x3AD1 JUMP JUMPDEST SWAP3 POP PUSH1 0x40 DUP6 ADD CALLDATALOAD PUSH1 0x1 PUSH1 0x1 PUSH1 0x40 SHL SUB DUP2 GT ISZERO PUSH2 0x3B56 JUMPI PUSH1 0x0 DUP1 REVERT JUMPDEST PUSH1 0x0 DUP1 PUSH1 0x0 DUP1 PUSH1 0x0 PUSH1 0xA0 DUP7 DUP9 SUB SLT ISZERO PUSH2 0x3F37 JUMPI PUSH1 0x0 DUP1 REVERT JUMPDEST DUP6 CALLDATALOAD SWAP5 POP PUSH2 0x3F47 PUSH1 0x20 DUP8 ADD PUSH2 0x3AD1 JUMP JUMPDEST SWAP4 POP PUSH2 0x3F55 PUSH1 0x40 DUP8 ADD PUSH2 0x3AD1 JUMP JUMPDEST SWAP5 SWAP8 SWAP4 SWAP7 POP SWAP4 SWAP5 PUSH1 0x60 DUP2 ADD CALLDATALOAD SWAP5 POP PUSH1 0x80 ADD CALLDATALOAD SWAP3 SWAP2 POP POP JUMP JUMPDEST PUSH1 0x0 PUSH1 0x20 DUP3 DUP5 SUB SLT ISZERO PUSH2 0x3F7F JUMPI PUSH1 0x0 DUP1 REVERT JUMPDEST DUP2 MLOAD PUSH1 0x1 PUSH1 0x1 PUSH1 0x60 SHL SUB DUP2 AND DUP2 EQ PUSH2 0x1642 JUMPI PUSH1 0x0 DUP1 REVERT JUMPDEST PUSH1 0x0 DUP2 MLOAD DUP1 DUP5 MSTORE PUSH1 0x20 DUP1 DUP6 ADD SWAP5 POP DUP1 DUP5 ADD PUSH1 0x0 JUMPDEST DUP4 DUP2 LT ISZERO PUSH2 0x3FCF JUMPI DUP2 MLOAD PUSH1 0x1 PUSH1 0x1 PUSH1 0xA0 SHL SUB AND DUP8 MSTORE SWAP6 DUP3 ADD SWAP6 SWAP1 DUP3 ADD SWAP1 PUSH1 0x1 ADD PUSH2 0x3FAA JUMP JUMPDEST POP SWAP5 SWAP6 SWAP5 POP POP POP POP POP JUMP JUMPDEST PUSH1 0x0 DUP2 MLOAD DUP1 DUP5 MSTORE PUSH1 0x20 DUP1 DUP6 ADD DUP1 DUP2 SWAP7 POP DUP4 PUSH1 0x5 SHL DUP2 ADD SWAP2 POP DUP3 DUP7 ADD PUSH1 0x0 JUMPDEST DUP6 DUP2 LT ISZERO PUSH2 0x4022 JUMPI DUP3 DUP5 SUB DUP10 MSTORE PUSH2 0x4010 DUP5 DUP4 MLOAD PUSH2 0x405F JUMP JUMPDEST SWAP9 DUP6 ADD SWAP9 SWAP4 POP SWAP1 DUP5 ADD SWAP1 PUSH1 0x1 ADD PUSH2 0x3FF8 JUMP JUMPDEST POP SWAP2 SWAP8 SWAP7 POP POP POP POP POP POP POP JUMP JUMPDEST PUSH1 0x0 DUP2 MLOAD DUP1 DUP5 MSTORE PUSH1 0x20 DUP1 DUP6 ADD SWAP5 POP DUP1 DUP5 ADD PUSH1 0x0 JUMPDEST DUP4 DUP2 LT ISZERO PUSH2 0x3FCF JUMPI DUP2 MLOAD DUP8 MSTORE SWAP6 DUP3 ADD SWAP6 SWAP1 DUP3 ADD SWAP1 PUSH1 0x1 ADD PUSH2 0x4043 JUMP JUMPDEST PUSH1 0x0 DUP2 MLOAD DUP1 DUP5 MSTORE PUSH2 0x4077 DUP2 PUSH1 0x20 DUP7 ADD PUSH1 0x20 DUP7 ADD PUSH2 0x4418 JUMP JUMPDEST PUSH1 0x1F ADD PUSH1 0x1F NOT AND SWAP3 SWAP1 SWAP3 ADD PUSH1 0x20 ADD SWAP3 SWAP2 POP POP JUMP JUMPDEST PUSH1 0x0 DUP3 MLOAD PUSH2 0x409D DUP2 DUP5 PUSH1 0x20 DUP8 ADD PUSH2 0x4418 JUMP JUMPDEST SWAP2 SWAP1 SWAP2 ADD SWAP3 SWAP2 POP POP JUMP JUMPDEST PUSH1 0x1 DUP1 PUSH1 0xA0 SHL SUB DUP6 AND DUP2 MSTORE DUP4 PUSH1 0x20 DUP3 ADD MSTORE PUSH1 0xA0 PUSH1 0x40 DUP3 ADD MSTORE PUSH1 0x0 PUSH1 0xA0 DUP3 ADD MSTORE PUSH1 0xC0 PUSH1 0x60 DUP3 ADD MSTORE PUSH1 0x0 PUSH2 0x40DC PUSH1 0xC0 DUP4 ADD DUP6 PUSH2 0x405F JUMP JUMPDEST SWAP1 POP DUP3 PUSH1 0x80 DUP4 ADD MSTORE SWAP6 SWAP5 POP POP POP POP POP JUMP JUMPDEST PUSH1 0x80 DUP2 MSTORE PUSH1 0x0 PUSH2 0x4100 PUSH1 0x80 DUP4 ADD DUP8 PUSH2 0x3F96 JUMP JUMPDEST DUP3 DUP2 SUB PUSH1 0x20 DUP5 ADD MSTORE PUSH2 0x4112 DUP2 DUP8 PUSH2 0x402F JUMP JUMPDEST SWAP1 POP DUP3 DUP2 SUB PUSH1 0x40 DUP5 ADD MSTORE PUSH2 0x4126 DUP2 DUP7 PUSH2 0x3FDA JUMP JUMPDEST SWAP2 POP POP DUP3 PUSH1 0x60 DUP4 ADD MSTORE SWAP6 SWAP5 POP POP POP POP POP JUMP JUMPDEST PUSH1 0x80 DUP2 MSTORE PUSH1 0x0 PUSH2 0x414B PUSH1 0x80 DUP4 ADD DUP8 PUSH2 0x3F96 JUMP JUMPDEST DUP3 DUP2 SUB PUSH1 0x20 DUP5 ADD MSTORE PUSH2 0x415D DUP2 DUP8 PUSH2 0x402F JUMP JUMPDEST SWAP1 POP DUP3 DUP2 SUB PUSH1 0x40 DUP5 ADD MSTORE PUSH2 0x4171 DUP2 DUP7 PUSH2 0x3FDA JUMP JUMPDEST SWAP1 POP DUP3 DUP2 SUB PUSH1 0x60 DUP5 ADD MSTORE PUSH2 0xDA9 DUP2 DUP6 PUSH2 0x3FDA JUMP JUMPDEST PUSH1 0x20 DUP2 MSTORE PUSH1 0x0 PUSH2 0x1642 PUSH1 0x20 DUP4 ADD DUP5 PUSH2 0x405F JUMP JUMPDEST PUSH1 0x20 DUP2 ADD PUSH1 0x8 DUP4 LT PUSH2 0x41BA JUMPI PUSH4 0x4E487B71 PUSH1 0xE0 SHL PUSH1 0x0 MSTORE PUSH1 0x21 PUSH1 0x4 MSTORE PUSH1 0x24 PUSH1 0x0 REVERT JUMPDEST SWAP2 SWAP1 MSTORE SWAP1 JUMP JUMPDEST PUSH1 0x20 DUP1 DUP3 MSTORE PUSH1 0x18 SWAP1 DUP3 ADD MSTORE PUSH32 0x476F7665726E6F723A206F6E6C79476F7665726E616E63650000000000000000 PUSH1 0x40 DUP3 ADD MSTORE PUSH1 0x60 ADD SWAP1 JUMP JUMPDEST PUSH1 0x20 DUP1 DUP3 MSTORE PUSH1 0x21 SWAP1 DUP3 ADD MSTORE PUSH32 0x476F7665726E6F723A20696E76616C69642070726F706F73616C206C656E6774 PUSH1 0x40 DUP3 ADD MSTORE PUSH1 0xD PUSH1 0xFB SHL PUSH1 0x60 DUP3 ADD MSTORE PUSH1 0x80 ADD SWAP1 JUMP JUMPDEST PUSH1 0x20 DUP1 DUP3 MSTORE PUSH1 0x21 SWAP1 DUP3 ADD MSTORE PUSH32 0x476F7665726E6F723A2070726F706F73616C206E6F7420737563636573736675 PUSH1 0x40 DUP3 ADD MSTORE PUSH1 0x1B PUSH1 0xFA SHL PUSH1 0x60 DUP3 ADD MSTORE PUSH1 0x80 ADD SWAP1 JUMP JUMPDEST DUP10 DUP2 MSTORE PUSH1 0x1 PUSH1 0x1 PUSH1 0xA0 SHL SUB DUP10 AND PUSH1 0x20 DUP3 ADD MSTORE PUSH2 0x120 PUSH1 0x40 DUP3 ADD DUP2 SWAP1 MSTORE PUSH1 0x0 SWAP1 PUSH2 0x42A4 DUP4 DUP3 ADD DUP12 PUSH2 0x3F96 JUMP JUMPDEST SWAP1 POP DUP3 DUP2 SUB PUSH1 0x60 DUP5 ADD MSTORE PUSH2 0x42B8 DUP2 DUP11 PUSH2 0x402F JUMP JUMPDEST SWAP1 POP DUP3 DUP2 SUB PUSH1 0x80 DUP5 ADD MSTORE PUSH2 0x42CC DUP2 DUP10 PUSH2 0x3FDA JUMP JUMPDEST SWAP1 POP DUP3 DUP2 SUB PUSH1 0xA0 DUP5 ADD MSTORE PUSH2 0x42E0 DUP2 DUP9 PUSH2 0x3FDA JUMP JUMPDEST PUSH1 0x1 PUSH1 0x1 PUSH1 0x40 SHL SUB DUP8 DUP2 AND PUSH1 0xC0 DUP7 ADD MSTORE DUP7 AND PUSH1 0xE0 DUP6 ADD MSTORE DUP4 DUP2 SUB PUSH2 0x100 DUP6 ADD MSTORE SWAP1 POP PUSH2 0x430C DUP2 DUP6 PUSH2 0x405F JUMP JUMPDEST SWAP13 SWAP12 POP POP POP POP POP POP POP POP POP POP POP POP JUMP JUMPDEST DUP5 DUP2 MSTORE PUSH1 0xFF DUP5 AND PUSH1 0x20 DUP3 ADD MSTORE DUP3 PUSH1 0x40 DUP3 ADD MSTORE PUSH1 0x80 PUSH1 0x60 DUP3 ADD MSTORE PUSH1 0x0 PUSH2 0x119F PUSH1 0x80 DUP4 ADD DUP5 PUSH2 0x405F JUMP JUMPDEST PUSH1 0x40 MLOAD PUSH1 0x1F DUP3 ADD PUSH1 0x1F NOT AND DUP2 ADD PUSH1 0x1 PUSH1 0x1 PUSH1 0x40 SHL SUB DUP2 GT DUP3 DUP3 LT OR ISZERO PUSH2 0x436C JUMPI PUSH2 0x436C PUSH2 0x44DC JUMP JUMPDEST PUSH1 0x40 MSTORE SWAP2 SWAP1 POP JUMP JUMPDEST PUSH1 0x0 PUSH1 0x1 PUSH1 0x1 PUSH1 0x40 SHL SUB DUP3 GT ISZERO PUSH2 0x438D JUMPI PUSH2 0x438D PUSH2 0x44DC JUMP JUMPDEST POP PUSH1 0x5 SHL PUSH1 0x20 ADD SWAP1 JUMP JUMPDEST PUSH1 0x0 PUSH1 0x1 PUSH1 0x1 PUSH1 0x40 SHL SUB DUP3 GT ISZERO PUSH2 0x43B0 JUMPI PUSH2 0x43B0 PUSH2 0x44DC JUMP JUMPDEST POP PUSH1 0x1F ADD PUSH1 0x1F NOT AND PUSH1 0x20 ADD SWAP1 JUMP JUMPDEST PUSH1 0x0 DUP3 NOT DUP3 GT ISZERO PUSH2 0x43D1 JUMPI PUSH2 0x43D1 PUSH2 0x449A JUMP JUMPDEST POP ADD SWAP1 JUMP JUMPDEST PUSH1 0x0 PUSH1 0x1 PUSH1 0x1 PUSH1 0x40 SHL SUB DUP1 DUP4 AND DUP2 DUP6 AND DUP1 DUP4 SUB DUP3 GT ISZERO PUSH2 0x43F8 JUMPI PUSH2 0x43F8 PUSH2 0x449A JUMP JUMPDEST ADD SWAP5 SWAP4 POP POP POP POP JUMP JUMPDEST PUSH1 0x0 DUP3 DUP3 LT ISZERO PUSH2 0x4413 JUMPI PUSH2 0x4413 PUSH2 0x449A JUMP JUMPDEST POP SUB SWAP1 JUMP JUMPDEST PUSH1 0x0 JUMPDEST DUP4 DUP2 LT ISZERO PUSH2 0x4433 JUMPI DUP2 DUP2 ADD MLOAD DUP4 DUP3 ADD MSTORE PUSH1 0x20 ADD PUSH2 0x441B JUMP JUMPDEST DUP4 DUP2 GT ISZERO PUSH2 0x1272 JUMPI POP POP PUSH1 0x0 SWAP2 ADD MSTORE JUMP JUMPDEST PUSH1 0x1 DUP2 DUP2 SHR SWAP1 DUP3 AND DUP1 PUSH2 0x4458 JUMPI PUSH1 0x7F DUP3 AND SWAP2 POP JUMPDEST PUSH1 0x20 DUP3 LT DUP2 EQ ISZERO PUSH2 0x4479 JUMPI PUSH4 0x4E487B71 PUSH1 0xE0 SHL PUSH1 0x0 MSTORE PUSH1 0x22 PUSH1 0x4 MSTORE PUSH1 0x24 PUSH1 0x0 REVERT JUMPDEST POP SWAP2 SWAP1 POP JUMP JUMPDEST PUSH1 0x0 PUSH1 0x0 NOT DUP3 EQ ISZERO PUSH2 0x4493 JUMPI PUSH2 0x4493 PUSH2 0x449A JUMP JUMPDEST POP PUSH1 0x1 ADD SWAP1 JUMP JUMPDEST PUSH4 0x4E487B71 PUSH1 0xE0 SHL PUSH1 0x0 MSTORE PUSH1 0x11 PUSH1 0x4 MSTORE PUSH1 0x24 PUSH1 0x0 REVERT JUMPDEST PUSH4 0x4E487B71 PUSH1 0xE0 SHL PUSH1 0x0 MSTORE PUSH1 0x21 PUSH1 0x4 MSTORE PUSH1 0x24 PUSH1 0x0 REVERT JUMPDEST PUSH4 0x4E487B71 PUSH1 0xE0 SHL PUSH1 0x0 MSTORE PUSH1 0x32 PUSH1 0x4 MSTORE PUSH1 0x24 PUSH1 0x0 REVERT JUMPDEST PUSH4 0x4E487B71 PUSH1 0xE0 SHL PUSH1 0x0 MSTORE PUSH1 0x41 PUSH1 0x4 MSTORE PUSH1 0x24 PUSH1 0x0 REVERT JUMPDEST PUSH1 0x1 PUSH1 0x1 PUSH1 0xA0 SHL SUB DUP2 AND DUP2 EQ PUSH2 0x1154 JUMPI PUSH1 0x0 DUP1 REVERT INVALID COINBASE PUSH5 0x6472657373 GASPRICE KECCAK256 PUSH13 0x6F772D6C6576656C2063616C6C KECCAK256 PUSH24 0x6974682076616C7565206661696C6564A264697066735822 SLT KECCAK256 0xDB DUP7 BALANCE 0xE2 0xBD PUSH13 0x32A794DD9F3477DB72A2F488D5 DUP6 0x2C 0xDD PUSH13 0x33DE25DBFB4DF7D39964736F6C PUSH4 0x43000806 STOP CALLER ",
  "sha1": "4234fc29219f78cbbcd42adcafb8c01c2b34a445",
  "source": "// SPDX-License-Identifier: MIT\n\npragma solidity ^0.8.0;\n\nimport \"../governance/compatibility/GovernorCompatibilityBravo.sol\";\nimport \"../governance/extensions/GovernorTimelockCompound.sol\";\nimport \"../governance/extensions/GovernorSettings.sol\";\nimport \"../governance/extensions/GovernorVotesComp.sol\";\n\ncontract GovernorCompatibilityBravoMock is\n    GovernorCompatibilityBravo,\n    GovernorSettings,\n    GovernorTimelockCompound,\n    GovernorVotesComp\n{\n    constructor(\n        string memory name_,\n        ERC20VotesComp token_,\n        uint256 votingDelay_,\n        uint256 votingPeriod_,\n        uint256 proposalThreshold_,\n        ICompoundTimelock timelock_\n    )\n        Governor(name_)\n        GovernorTimelockCompound(timelock_)\n        GovernorSettings(votingDelay_, votingPeriod_, proposalThreshold_)\n        GovernorVotesComp(token_)\n    {}\n\n    function supportsInterface(bytes4 interfaceId)\n        public\n        view\n        virtual\n        override(IERC165, Governor, GovernorTimelockCompound)\n        returns (bool)\n    {\n        return super.supportsInterface(interfaceId);\n    }\n\n    function quorum(uint256) public pure override returns (uint256) {\n        return 0;\n    }\n\n    function state(uint256 proposalId)\n        public\n        view\n        virtual\n        override(IGovernor, Governor, GovernorTimelockCompound)\n        returns (ProposalState)\n    {\n        return super.state(proposalId);\n    }\n\n    function proposalEta(uint256 proposalId)\n        public\n        view\n        virtual\n        override(IGovernorTimelock, GovernorTimelockCompound)\n        returns (uint256)\n    {\n        return super.proposalEta(proposalId);\n    }\n\n    function proposalThreshold() public view override(Governor, GovernorSettings) returns (uint256) {\n        return super.proposalThreshold();\n    }\n\n    function propose(\n        address[] memory targets,\n        uint256[] memory values,\n        bytes[] memory calldatas,\n        string memory description\n    ) public virtual override(IGovernor, Governor, GovernorCompatibilityBravo) returns (uint256) {\n        return super.propose(targets, values, calldatas, description);\n    }\n\n    function queue(\n        address[] memory targets,\n        uint256[] memory values,\n        bytes[] memory calldatas,\n        bytes32 salt\n    ) public virtual override(IGovernorTimelock, GovernorTimelockCompound) returns (uint256) {\n        return super.queue(targets, values, calldatas, salt);\n    }\n\n    function execute(\n        address[] memory targets,\n        uint256[] memory values,\n        bytes[] memory calldatas,\n        bytes32 salt\n    ) public payable virtual override(IGovernor, Governor) returns (uint256) {\n        return super.execute(targets, values, calldatas, salt);\n    }\n\n    function _execute(\n        uint256 proposalId,\n        address[] memory targets,\n        uint256[] memory values,\n        bytes[] memory calldatas,\n        bytes32 descriptionHash\n    ) internal virtual override(Governor, GovernorTimelockCompound) {\n        super._execute(proposalId, targets, values, calldatas, descriptionHash);\n    }\n\n    /**\n     * @notice WARNING: this is for mock purposes only. Ability to the _cancel function should be restricted for live\n     * deployments.\n     */\n    function cancel(\n        address[] memory targets,\n        uint256[] memory values,\n        bytes[] memory calldatas,\n        bytes32 salt\n    ) public returns (uint256 proposalId) {\n        return _cancel(targets, values, calldatas, salt);\n    }\n\n    function _cancel(\n        address[] memory targets,\n        uint256[] memory values,\n        bytes[] memory calldatas,\n        bytes32 salt\n    ) internal virtual override(Governor, GovernorTimelockCompound) returns (uint256 proposalId) {\n        return super._cancel(targets, values, calldatas, salt);\n    }\n\n    function getVotes(address account, uint256 blockNumber)\n        public\n        view\n        virtual\n        override(IGovernor, GovernorVotesComp)\n        returns (uint256)\n    {\n        return super.getVotes(account, blockNumber);\n    }\n\n    function _executor() internal view virtual override(Governor, GovernorTimelockCompound) returns (address) {\n        return super._executor();\n    }\n}\n",
  "sourcePath": "contracts/OpenZepellin/contracts/mocks/GovernorCompatibilityBravoMock.sol",
  "type": "contract"
}