{
  "abi": [
    {
      "inputs": [
        {
          "internalType": "string",
          "name": "name_",
          "type": "string"
        },
        {
          "internalType": "contract ERC20Votes",
          "name": "token_",
          "type": "address"
        },
        {
          "internalType": "uint256",
          "name": "votingDelay_",
          "type": "uint256"
        },
        {
          "internalType": "uint256",
          "name": "votingPeriod_",
          "type": "uint256"
        },
        {
          "internalType": "uint256",
          "name": "quorum_",
          "type": "uint256"
        },
        {
          "internalType": "uint64",
          "name": "voteExtension_",
          "type": "uint64"
        }
      ],
      "stateMutability": "nonpayable",
      "type": "constructor"
    },
    {
      "anonymous": false,
      "inputs": [
        {
          "indexed": false,
          "internalType": "uint64",
          "name": "oldVoteExtension",
          "type": "uint64"
        },
        {
          "indexed": false,
          "internalType": "uint64",
          "name": "newVoteExtension",
          "type": "uint64"
        }
      ],
      "name": "LateQuorumVoteExtensionSet",
      "type": "event"
    },
    {
      "anonymous": false,
      "inputs": [
        {
          "indexed": false,
          "internalType": "uint256",
          "name": "proposalId",
          "type": "uint256"
        }
      ],
      "name": "ProposalCanceled",
      "type": "event"
    },
    {
      "anonymous": false,
      "inputs": [
        {
          "indexed": false,
          "internalType": "uint256",
          "name": "proposalId",
          "type": "uint256"
        },
        {
          "indexed": false,
          "internalType": "address",
          "name": "proposer",
          "type": "address"
        },
        {
          "indexed": false,
          "internalType": "address[]",
          "name": "targets",
          "type": "address[]"
        },
        {
          "indexed": false,
          "internalType": "uint256[]",
          "name": "values",
          "type": "uint256[]"
        },
        {
          "indexed": false,
          "internalType": "string[]",
          "name": "signatures",
          "type": "string[]"
        },
        {
          "indexed": false,
          "internalType": "bytes[]",
          "name": "calldatas",
          "type": "bytes[]"
        },
        {
          "indexed": false,
          "internalType": "uint256",
          "name": "startBlock",
          "type": "uint256"
        },
        {
          "indexed": false,
          "internalType": "uint256",
          "name": "endBlock",
          "type": "uint256"
        },
        {
          "indexed": false,
          "internalType": "string",
          "name": "description",
          "type": "string"
        }
      ],
      "name": "ProposalCreated",
      "type": "event"
    },
    {
      "anonymous": false,
      "inputs": [
        {
          "indexed": false,
          "internalType": "uint256",
          "name": "proposalId",
          "type": "uint256"
        }
      ],
      "name": "ProposalExecuted",
      "type": "event"
    },
    {
      "anonymous": false,
      "inputs": [
        {
          "indexed": true,
          "internalType": "uint256",
          "name": "proposalId",
          "type": "uint256"
        },
        {
          "indexed": false,
          "internalType": "uint64",
          "name": "extendedDeadline",
          "type": "uint64"
        }
      ],
      "name": "ProposalExtended",
      "type": "event"
    },
    {
      "anonymous": false,
      "inputs": [
        {
          "indexed": false,
          "internalType": "uint256",
          "name": "oldProposalThreshold",
          "type": "uint256"
        },
        {
          "indexed": false,
          "internalType": "uint256",
          "name": "newProposalThreshold",
          "type": "uint256"
        }
      ],
      "name": "ProposalThresholdSet",
      "type": "event"
    },
    {
      "anonymous": false,
      "inputs": [
        {
          "indexed": true,
          "internalType": "address",
          "name": "voter",
          "type": "address"
        },
        {
          "indexed": false,
          "internalType": "uint256",
          "name": "proposalId",
          "type": "uint256"
        },
        {
          "indexed": false,
          "internalType": "uint8",
          "name": "support",
          "type": "uint8"
        },
        {
          "indexed": false,
          "internalType": "uint256",
          "name": "weight",
          "type": "uint256"
        },
        {
          "indexed": false,
          "internalType": "string",
          "name": "reason",
          "type": "string"
        }
      ],
      "name": "VoteCast",
      "type": "event"
    },
    {
      "anonymous": false,
      "inputs": [
        {
          "indexed": false,
          "internalType": "uint256",
          "name": "oldVotingDelay",
          "type": "uint256"
        },
        {
          "indexed": false,
          "internalType": "uint256",
          "name": "newVotingDelay",
          "type": "uint256"
        }
      ],
      "name": "VotingDelaySet",
      "type": "event"
    },
    {
      "anonymous": false,
      "inputs": [
        {
          "indexed": false,
          "internalType": "uint256",
          "name": "oldVotingPeriod",
          "type": "uint256"
        },
        {
          "indexed": false,
          "internalType": "uint256",
          "name": "newVotingPeriod",
          "type": "uint256"
        }
      ],
      "name": "VotingPeriodSet",
      "type": "event"
    },
    {
      "inputs": [],
      "name": "BALLOT_TYPEHASH",
      "outputs": [
        {
          "internalType": "bytes32",
          "name": "",
          "type": "bytes32"
        }
      ],
      "stateMutability": "view",
      "type": "function"
    },
    {
      "inputs": [],
      "name": "COUNTING_MODE",
      "outputs": [
        {
          "internalType": "string",
          "name": "",
          "type": "string"
        }
      ],
      "stateMutability": "pure",
      "type": "function"
    },
    {
      "inputs": [
        {
          "internalType": "uint256",
          "name": "proposalId",
          "type": "uint256"
        },
        {
          "internalType": "uint8",
          "name": "support",
          "type": "uint8"
        }
      ],
      "name": "castVote",
      "outputs": [
        {
          "internalType": "uint256",
          "name": "",
          "type": "uint256"
        }
      ],
      "stateMutability": "nonpayable",
      "type": "function"
    },
    {
      "inputs": [
        {
          "internalType": "uint256",
          "name": "proposalId",
          "type": "uint256"
        },
        {
          "internalType": "uint8",
          "name": "support",
          "type": "uint8"
        },
        {
          "internalType": "uint8",
          "name": "v",
          "type": "uint8"
        },
        {
          "internalType": "bytes32",
          "name": "r",
          "type": "bytes32"
        },
        {
          "internalType": "bytes32",
          "name": "s",
          "type": "bytes32"
        }
      ],
      "name": "castVoteBySig",
      "outputs": [
        {
          "internalType": "uint256",
          "name": "",
          "type": "uint256"
        }
      ],
      "stateMutability": "nonpayable",
      "type": "function"
    },
    {
      "inputs": [
        {
          "internalType": "uint256",
          "name": "proposalId",
          "type": "uint256"
        },
        {
          "internalType": "uint8",
          "name": "support",
          "type": "uint8"
        },
        {
          "internalType": "string",
          "name": "reason",
          "type": "string"
        }
      ],
      "name": "castVoteWithReason",
      "outputs": [
        {
          "internalType": "uint256",
          "name": "",
          "type": "uint256"
        }
      ],
      "stateMutability": "nonpayable",
      "type": "function"
    },
    {
      "inputs": [
        {
          "internalType": "address[]",
          "name": "targets",
          "type": "address[]"
        },
        {
          "internalType": "uint256[]",
          "name": "values",
          "type": "uint256[]"
        },
        {
          "internalType": "bytes[]",
          "name": "calldatas",
          "type": "bytes[]"
        },
        {
          "internalType": "bytes32",
          "name": "descriptionHash",
          "type": "bytes32"
        }
      ],
      "name": "execute",
      "outputs": [
        {
          "internalType": "uint256",
          "name": "",
          "type": "uint256"
        }
      ],
      "stateMutability": "payable",
      "type": "function"
    },
    {
      "inputs": [
        {
          "internalType": "address",
          "name": "account",
          "type": "address"
        },
        {
          "internalType": "uint256",
          "name": "blockNumber",
          "type": "uint256"
        }
      ],
      "name": "getVotes",
      "outputs": [
        {
          "internalType": "uint256",
          "name": "",
          "type": "uint256"
        }
      ],
      "stateMutability": "view",
      "type": "function"
    },
    {
      "inputs": [
        {
          "internalType": "uint256",
          "name": "proposalId",
          "type": "uint256"
        },
        {
          "internalType": "address",
          "name": "account",
          "type": "address"
        }
      ],
      "name": "hasVoted",
      "outputs": [
        {
          "internalType": "bool",
          "name": "",
          "type": "bool"
        }
      ],
      "stateMutability": "view",
      "type": "function"
    },
    {
      "inputs": [
        {
          "internalType": "address[]",
          "name": "targets",
          "type": "address[]"
        },
        {
          "internalType": "uint256[]",
          "name": "values",
          "type": "uint256[]"
        },
        {
          "internalType": "bytes[]",
          "name": "calldatas",
          "type": "bytes[]"
        },
        {
          "internalType": "bytes32",
          "name": "descriptionHash",
          "type": "bytes32"
        }
      ],
      "name": "hashProposal",
      "outputs": [
        {
          "internalType": "uint256",
          "name": "",
          "type": "uint256"
        }
      ],
      "stateMutability": "pure",
      "type": "function"
    },
    {
      "inputs": [],
      "name": "lateQuorumVoteExtension",
      "outputs": [
        {
          "internalType": "uint64",
          "name": "",
          "type": "uint64"
        }
      ],
      "stateMutability": "view",
      "type": "function"
    },
    {
      "inputs": [],
      "name": "name",
      "outputs": [
        {
          "internalType": "string",
          "name": "",
          "type": "string"
        }
      ],
      "stateMutability": "view",
      "type": "function"
    },
    {
      "inputs": [
        {
          "internalType": "uint256",
          "name": "proposalId",
          "type": "uint256"
        }
      ],
      "name": "proposalDeadline",
      "outputs": [
        {
          "internalType": "uint256",
          "name": "",
          "type": "uint256"
        }
      ],
      "stateMutability": "view",
      "type": "function"
    },
    {
      "inputs": [
        {
          "internalType": "uint256",
          "name": "proposalId",
          "type": "uint256"
        }
      ],
      "name": "proposalSnapshot",
      "outputs": [
        {
          "internalType": "uint256",
          "name": "",
          "type": "uint256"
        }
      ],
      "stateMutability": "view",
      "type": "function"
    },
    {
      "inputs": [],
      "name": "proposalThreshold",
      "outputs": [
        {
          "internalType": "uint256",
          "name": "",
          "type": "uint256"
        }
      ],
      "stateMutability": "view",
      "type": "function"
    },
    {
      "inputs": [
        {
          "internalType": "uint256",
          "name": "proposalId",
          "type": "uint256"
        }
      ],
      "name": "proposalVotes",
      "outputs": [
        {
          "internalType": "uint256",
          "name": "againstVotes",
          "type": "uint256"
        },
        {
          "internalType": "uint256",
          "name": "forVotes",
          "type": "uint256"
        },
        {
          "internalType": "uint256",
          "name": "abstainVotes",
          "type": "uint256"
        }
      ],
      "stateMutability": "view",
      "type": "function"
    },
    {
      "inputs": [
        {
          "internalType": "address[]",
          "name": "targets",
          "type": "address[]"
        },
        {
          "internalType": "uint256[]",
          "name": "values",
          "type": "uint256[]"
        },
        {
          "internalType": "bytes[]",
          "name": "calldatas",
          "type": "bytes[]"
        },
        {
          "internalType": "string",
          "name": "description",
          "type": "string"
        }
      ],
      "name": "propose",
      "outputs": [
        {
          "internalType": "uint256",
          "name": "",
          "type": "uint256"
        }
      ],
      "stateMutability": "nonpayable",
      "type": "function"
    },
    {
      "inputs": [
        {
          "internalType": "uint256",
          "name": "",
          "type": "uint256"
        }
      ],
      "name": "quorum",
      "outputs": [
        {
          "internalType": "uint256",
          "name": "",
          "type": "uint256"
        }
      ],
      "stateMutability": "view",
      "type": "function"
    },
    {
      "inputs": [
        {
          "internalType": "address",
          "name": "target",
          "type": "address"
        },
        {
          "internalType": "uint256",
          "name": "value",
          "type": "uint256"
        },
        {
          "internalType": "bytes",
          "name": "data",
          "type": "bytes"
        }
      ],
      "name": "relay",
      "outputs": [],
      "stateMutability": "nonpayable",
      "type": "function"
    },
    {
      "inputs": [
        {
          "internalType": "uint64",
          "name": "newVoteExtension",
          "type": "uint64"
        }
      ],
      "name": "setLateQuorumVoteExtension",
      "outputs": [],
      "stateMutability": "nonpayable",
      "type": "function"
    },
    {
      "inputs": [
        {
          "internalType": "uint256",
          "name": "newProposalThreshold",
          "type": "uint256"
        }
      ],
      "name": "setProposalThreshold",
      "outputs": [],
      "stateMutability": "nonpayable",
      "type": "function"
    },
    {
      "inputs": [
        {
          "internalType": "uint256",
          "name": "newVotingDelay",
          "type": "uint256"
        }
      ],
      "name": "setVotingDelay",
      "outputs": [],
      "stateMutability": "nonpayable",
      "type": "function"
    },
    {
      "inputs": [
        {
          "internalType": "uint256",
          "name": "newVotingPeriod",
          "type": "uint256"
        }
      ],
      "name": "setVotingPeriod",
      "outputs": [],
      "stateMutability": "nonpayable",
      "type": "function"
    },
    {
      "inputs": [
        {
          "internalType": "uint256",
          "name": "proposalId",
          "type": "uint256"
        }
      ],
      "name": "state",
      "outputs": [
        {
          "internalType": "enum IGovernor.ProposalState",
          "name": "",
          "type": "uint8"
        }
      ],
      "stateMutability": "view",
      "type": "function"
    },
    {
      "inputs": [
        {
          "internalType": "bytes4",
          "name": "interfaceId",
          "type": "bytes4"
        }
      ],
      "name": "supportsInterface",
      "outputs": [
        {
          "internalType": "bool",
          "name": "",
          "type": "bool"
        }
      ],
      "stateMutability": "view",
      "type": "function"
    },
    {
      "inputs": [],
      "name": "token",
      "outputs": [
        {
          "internalType": "contract ERC20Votes",
          "name": "",
          "type": "address"
        }
      ],
      "stateMutability": "view",
      "type": "function"
    },
    {
      "inputs": [],
      "name": "version",
      "outputs": [
        {
          "internalType": "string",
          "name": "",
          "type": "string"
        }
      ],
      "stateMutability": "view",
      "type": "function"
    },
    {
      "inputs": [],
      "name": "votingDelay",
      "outputs": [
        {
          "internalType": "uint256",
          "name": "",
          "type": "uint256"
        }
      ],
      "stateMutability": "view",
      "type": "function"
    },
    {
      "inputs": [],
      "name": "votingPeriod",
      "outputs": [
        {
          "internalType": "uint256",
          "name": "",
          "type": "uint256"
        }
      ],
      "stateMutability": "view",
      "type": "function"
    },
    {
      "stateMutability": "payable",
      "type": "receive"
    }
  ],
  "bytecode": "6101606040523480156200001257600080fd5b5060405162002c6d38038062002c6d8339810160408190526200003591620003c4565b8085858560008a806200005c6040805180820190915260018152603160f81b602082015290565b815160208084019190912082518383012060e08290526101008190524660a0818152604080517f8b73c3c69bb8fe3d512ecc4cf759cc79239f7b179b0ffacaa9a75d522b39400f81880181905281830187905260608201869052608082019490945230818401528151808203909301835260c00190528051940193909320919290916080523060601b60c0526101205250508251620001059250600091506020840190620002e9565b506200011390508362000158565b6200011e8262000199565b62000129816200023f565b50505060601b6001600160601b03191661014052620001488162000280565b5050600855506200053692505050565b60025460408051918252602082018390527fc565b045403dc03c2eea82b81a0465edad9e2e7fc4d97e11421c209da93d7a93910160405180910390a1600255565b60008111620001fe5760405162461bcd60e51b815260206004820152602760248201527f476f7665726e6f7253657474696e67733a20766f74696e6720706572696f6420604482015266746f6f206c6f7760c81b606482015260840160405180910390fd5b60035460408051918252602082018390527f7e3f7f0708a84de9203036abaa450dccc85ad5ff52f78c170f3edb55cf5e8828910160405180910390a1600355565b60045460408051918252602082018390527fccb45da8d5717e6c4544694297c4ba5cf151d455c9bb0ed4fc7a38411bc05461910160405180910390a1600455565b600654604080516001600160401b03928316815291831660208301527f7ca4ac117ed3cdce75c1161d8207c440389b1a15d69d096831664657c07dafc2910160405180910390a1600680546001600160401b0319166001600160401b0392909216919091179055565b828054620002f790620004e3565b90600052602060002090601f0160209004810192826200031b576000855562000366565b82601f106200033657805160ff191683800117855562000366565b8280016001018555821562000366579182015b828111156200036657825182559160200191906001019062000349565b506200037492915062000378565b5090565b5b8082111562000374576000815560010162000379565b80516001600160a01b0381168114620003a757600080fd5b919050565b80516001600160401b0381168114620003a757600080fd5b60008060008060008060c08789031215620003de57600080fd5b86516001600160401b0380821115620003f657600080fd5b818901915089601f8301126200040b57600080fd5b81518181111562000420576200042062000520565b604051601f8201601f19908116603f011681019083821181831017156200044b576200044b62000520565b81604052828152602093508c848487010111156200046857600080fd5b600091505b828210156200048c57848201840151818301850152908301906200046d565b828211156200049e5760008484830101525b9950620004b09150508982016200038f565b96505050604087015193506060870151925060808701519150620004d760a08801620003ac565b90509295509295509295565b600181811c90821680620004f857607f821691505b602082108114156200051a57634e487b7160e01b600052602260045260246000fd5b50919050565b634e487b7160e01b600052604160045260246000fd5b60805160a05160c05160601c60e05161010051610120516101405160601c6126cf6200059e600039600081816105e80152610e6c0152600061140c0152600061145b015260006114360152600061138f015260006113b9015260006113e301526126cf6000f3fe6080604052600436106101bb5760003560e01c80637b3c71d3116100ec578063dd4e2ba51161008a578063eb9019d411610064578063eb9019d414610574578063ece40cc114610594578063f8ce560a146105b4578063fc0c546a146105d657600080fd5b8063dd4e2ba5146104da578063deaaa7cc14610520578063ea0217cf1461055457600080fd5b8063c01f9e37116100c6578063c01f9e371461045a578063c28bc2fa1461047a578063c59057e41461049a578063d07f91e9146104ba57600080fd5b80637b3c71d3146104055780637d5e81e214610425578063b58131b01461044557600080fd5b80633bccf4fd11610159578063544ffc9c11610133578063544ffc9c1461034657806354fd4d501461039b57806356781388146103c557806370b0f660146103e557600080fd5b80633bccf4fd146102af5780633e4f49e6146102cf57806343859632146102fc57600080fd5b80632656227d116101955780632656227d1461023f5780632d63f6931461025257806332b8113e146102725780633932abb11461029a57600080fd5b806301ffc9a7146101c957806302a251a3146101fe57806306fdde031461021d57600080fd5b366101c457005b005b600080fd5b3480156101d557600080fd5b506101e96101e4366004612035565b610622565b60405190151581526020015b60405180910390f35b34801561020a57600080fd5b506003545b6040519081526020016101f5565b34801561022957600080fd5b50610232610659565b6040516101f5919061231c565b61020f61024d366004611ee6565b6106eb565b34801561025e57600080fd5b5061020f61026d36600461205f565b6107fd565b34801561027e57600080fd5b506006546040516001600160401b0390911681526020016101f5565b3480156102a657600080fd5b5060025461020f565b3480156102bb57600080fd5b5061020f6102ca366004612121565b610834565b3480156102db57600080fd5b506102ef6102ea36600461205f565b6108c8565b6040516101f591906122f4565b34801561030857600080fd5b506101e9610317366004612091565b60008281526005602090815260408083206001600160a01b038516845260030190915290205460ff1692915050565b34801561035257600080fd5b5061038061036136600461205f565b6000908152600560205260409020805460018201546002909201549092565b604080519384526020840192909252908201526060016101f5565b3480156103a757600080fd5b506040805180820190915260018152603160f81b6020820152610232565b3480156103d157600080fd5b5061020f6103e03660046120bd565b6109d4565b3480156103f157600080fd5b506101c261040036600461205f565b6109fd565b34801561041157600080fd5b5061020f6104203660046120e0565b610a28565b34801561043157600080fd5b5061020f610440366004611f75565b610a7a565b34801561045157600080fd5b5061020f610d36565b34801561046657600080fd5b5061020f61047536600461205f565b610d46565b34801561048657600080fd5b506101c2610495366004611e8d565b610d51565b3480156104a657600080fd5b5061020f6104b5366004611ee6565b610db9565b3480156104c657600080fd5b506101c26104d536600461216f565b610df3565b3480156104e657600080fd5b506040805180820190915260208082527f737570706f72743d627261766f2671756f72756d3d666f722c6162737461696e90820152610232565b34801561052c57600080fd5b5061020f7f150214d74d59b7d1e90c73fc22ef3d991dd0a76b046543d4d80ab92d2a50328f81565b34801561056057600080fd5b506101c261056f36600461205f565b610e1b565b34801561058057600080fd5b5061020f61058f366004611e63565b610e43565b3480156105a057600080fd5b506101c26105af36600461205f565b610eef565b3480156105c057600080fd5b5061020f6105cf36600461205f565b5060085490565b3480156105e257600080fd5b5061060a7f000000000000000000000000000000000000000000000000000000000000000081565b6040516001600160a01b0390911681526020016101f5565b60006001600160e01b0319821663bf26d89760e01b148061065357506301ffc9a760e01b6001600160e01b03198316145b92915050565b6060600080546106689061259b565b80601f01602080910402602001604051908101604052809291908181526020018280546106949061259b565b80156106e15780601f106106b6576101008083540402835291602001916106e1565b820191906000526020600020905b8154815290600101906020018083116106c457829003601f168201915b5050505050905090565b6000806106fa86868686610db9565b90506000610707826108c8565b9050600481600781111561071d5761071d612607565b148061073a5750600581600781111561073857610738612607565b145b6107955760405162461bcd60e51b815260206004820152602160248201527f476f7665726e6f723a2070726f706f73616c206e6f74207375636365737366756044820152601b60fa1b60648201526084015b60405180910390fd5b600082815260016020818152604092839020600201805460ff191690921790915590518381527f712ae1383f79ac853f8d882153778e0260ef8f03b504e2866e0593e04d2b291f910160405180910390a16107f38288888888610f17565b5095945050505050565b60008181526001602090815260408083208151928301909152546001600160401b0316908190525b6001600160401b031692915050565b604080517f150214d74d59b7d1e90c73fc22ef3d991dd0a76b046543d4d80ab92d2a50328f602082015290810186905260ff8516606082015260009081906108a0906108989060800160405160208183030381529060405280519060200120611016565b868686611064565b90506108bd87828860405180602001604052806000815250611082565b979650505050505050565b6000818152600160205260408120600281015460ff16156108ec5750600792915050565b6002810154610100900460ff16156109075750600292915050565b6000610912846107fd565b9050806109615760405162461bcd60e51b815260206004820152601d60248201527f476f7665726e6f723a20756e6b6e6f776e2070726f706f73616c206964000000604482015260640161078c565b438110610972575060009392505050565b600061097d85610d46565b905043811061099157506001949350505050565b61099a85611099565b80156109b9575060008581526005602052604090208054600190910154115b156109c957506004949350505050565b506003949350505050565b6000803390506109f584828560405180602001604052806000815250611082565b949350505050565b333014610a1c5760405162461bcd60e51b815260040161078c9061232f565b610a25816110d0565b50565b600080339050610a7086828787878080601f01602080910402602001604051908101604052809392919081815260200183838082843760009201919091525061108292505050565b9695505050505050565b6000610a84610d36565b610a933361058f600143612554565b1015610b135760405162461bcd60e51b815260206004820152604360248201527f476f7665726e6f72436f6d7061746962696c697479427261766f3a2070726f7060448201527f6f73657220766f7465732062656c6f772070726f706f73616c207468726573686064820152621bdb1960ea1b608482015260a40161078c565b6000610b288686868680519060200120610db9565b90508451865114610b4b5760405162461bcd60e51b815260040161078c90612366565b8351865114610b6c5760405162461bcd60e51b815260040161078c90612366565b6000865111610bbd5760405162461bcd60e51b815260206004820152601860248201527f476f7665726e6f723a20656d7074792070726f706f73616c0000000000000000604482015260640161078c565b600081815260016020908152604091829020825191820190925281546001600160401b03169081905215610c3d5760405162461bcd60e51b815260206004820152602160248201527f476f7665726e6f723a2070726f706f73616c20616c72656164792065786973746044820152607360f81b606482015260840161078c565b6000610c50610c4b60025490565b611111565b610c5943611111565b610c639190612529565b90506000610c73610c4b60035490565b610c7d9083612529565b9050610c89838361117d565b610c96600184018261117d565b7f7d84a6263ae0d98d3329bd7b46bb4e8d6f98cd35a7adb45c274c8b7fd5ebd5e084338b8b8d516001600160401b03811115610cd457610cd4612633565b604051908082528060200260200182016040528015610d0757816020015b6060815260200190600190039081610cf25790505b508c88888e604051610d21999897969594939291906123a7565b60405180910390a15091979650505050505050565b6000610d4160045490565b905090565b60006106538261119b565b333014610d705760405162461bcd60e51b815260040161078c9061232f565b610db28483838080601f0160208091040260200160405190810160405280939291908181526020018383808284376000920191909152508892506111d7915050565b5050505050565b600084848484604051602001610dd294939291906122a9565b60408051601f19818403018152919052805160209091012095945050505050565b333014610e125760405162461bcd60e51b815260040161078c9061232f565b610a25816111fd565b333014610e3a5760405162461bcd60e51b815260040161078c9061232f565b610a2581611267565b604051630748d63560e31b81526001600160a01b038381166004830152602482018390526000917f000000000000000000000000000000000000000000000000000000000000000090911690633a46b1a89060440160206040518083038186803b158015610eb057600080fd5b505afa158015610ec4573d6000803e3d6000fd5b505050506040513d601f19601f82011682018060405250810190610ee89190612078565b9392505050565b333014610f0e5760405162461bcd60e51b815260040161078c9061232f565b610a2581611308565b600060405180606001604052806027815260200161264a60279139905060005b855181101561100d57600080878381518110610f5557610f5561261d565b60200260200101516001600160a01b0316878481518110610f7857610f7861261d565b6020026020010151878581518110610f9257610f9261261d565b6020026020010151604051610fa7919061228d565b60006040518083038185875af1925050503d8060008114610fe4576040519150601f19603f3d011682016040523d82523d6000602084013e610fe9565b606091505b5091509150610ff9828286611349565b50505080611006906125d6565b9050610f37565b50505050505050565b6000610653611023611382565b8360405161190160f01b6020820152602281018390526042810182905260009060620160405160208183030381529060405280519060200120905092915050565b6000806000611075878787876114a9565b915091506107f381611596565b600061109085858585611751565b95945050505050565b6000818152600560205260408120600281015460018201546110bb9190612511565b6110c76105cf856107fd565b11159392505050565b60025460408051918252602082018390527fc565b045403dc03c2eea82b81a0465edad9e2e7fc4d97e11421c209da93d7a93910160405180910390a1600255565b60006001600160401b038211156111795760405162461bcd60e51b815260206004820152602660248201527f53616665436173743a2076616c756520646f65736e27742066697420696e203660448201526534206269747360d01b606482015260840161078c565b5090565b815467ffffffffffffffff19166001600160401b0391909116179055565b60006106536111a98361183a565b600084815260076020908152604091829020825191820190925290546001600160401b031690819052611869565b60606109f584848460405180606001604052806029815260200161267160299139611880565b600654604080516001600160401b03928316815291831660208301527f7ca4ac117ed3cdce75c1161d8207c440389b1a15d69d096831664657c07dafc2910160405180910390a16006805467ffffffffffffffff19166001600160401b0392909216919091179055565b600081116112c75760405162461bcd60e51b815260206004820152602760248201527f476f7665726e6f7253657474696e67733a20766f74696e6720706572696f6420604482015266746f6f206c6f7760c81b606482015260840161078c565b60035460408051918252602082018390527f7e3f7f0708a84de9203036abaa450dccc85ad5ff52f78c170f3edb55cf5e8828910160405180910390a1600355565b60045460408051918252602082018390527fccb45da8d5717e6c4544694297c4ba5cf151d455c9bb0ed4fc7a38411bc05461910160405180910390a1600455565b60608315611358575081610ee8565b8251156113685782518084602001fd5b8160405162461bcd60e51b815260040161078c919061231c565b6000306001600160a01b037f0000000000000000000000000000000000000000000000000000000000000000161480156113db57507f000000000000000000000000000000000000000000000000000000000000000046145b1561140557507f000000000000000000000000000000000000000000000000000000000000000090565b50604080517f00000000000000000000000000000000000000000000000000000000000000006020808301919091527f0000000000000000000000000000000000000000000000000000000000000000828401527f000000000000000000000000000000000000000000000000000000000000000060608301524660808301523060a0808401919091528351808403909101815260c0909201909252805191012090565b6000807f7fffffffffffffffffffffffffffffff5d576e7357a4501ddfe92f46681b20a08311156114e0575060009050600361158d565b8460ff16601b141580156114f857508460ff16601c14155b15611509575060009050600461158d565b6040805160008082526020820180845289905260ff881692820192909252606081018690526080810185905260019060a0016020604051602081039080840390855afa15801561155d573d6000803e3d6000fd5b5050604051601f1901519150506001600160a01b0381166115865760006001925092505061158d565b9150600090505b94509492505050565b60008160048111156115aa576115aa612607565b14156115b35750565b60018160048111156115c7576115c7612607565b14156116155760405162461bcd60e51b815260206004820152601860248201527f45434453413a20696e76616c6964207369676e61747572650000000000000000604482015260640161078c565b600281600481111561162957611629612607565b14156116775760405162461bcd60e51b815260206004820152601f60248201527f45434453413a20696e76616c6964207369676e6174757265206c656e67746800604482015260640161078c565b600381600481111561168b5761168b612607565b14156116e45760405162461bcd60e51b815260206004820152602260248201527f45434453413a20696e76616c6964207369676e6174757265202773272076616c604482015261756560f01b606482015260840161078c565b60048160048111156116f8576116f8612607565b1415610a255760405162461bcd60e51b815260206004820152602260248201527f45434453413a20696e76616c6964207369676e6174757265202776272076616c604482015261756560f01b606482015260840161078c565b6000806117608686868661199d565b600087815260076020908152604091829020825191820190925281546001600160401b0316908190529192509015801561179e575061179e87611099565b156107f35760006117b76006546001600160401b031690565b6117c043611111565b6117ca9190612529565b90506117d588610d46565b816001600160401b03161115611824576040516001600160401b038216815288907f541f725fb9f7c98a30cc9c0ff32fbb14358cd7159c847a3aa20a2bdc442ba5119060200160405180910390a25b61182e828261117d565b50509050949350505050565b60008181526001602081815260408084208151928301909152909101546001600160401b031690819052610825565b6000818310156118795781610ee8565b5090919050565b6060824710156118e15760405162461bcd60e51b815260206004820152602660248201527f416464726573733a20696e73756666696369656e742062616c616e636520666f6044820152651c8818d85b1b60d21b606482015260840161078c565b843b61192f5760405162461bcd60e51b815260206004820152601d60248201527f416464726573733a2063616c6c20746f206e6f6e2d636f6e7472616374000000604482015260640161078c565b600080866001600160a01b0316858760405161194b919061228d565b60006040518083038185875af1925050503d8060008114611988576040519150601f19603f3d011682016040523d82523d6000602084013e61198d565b606091505b50915091506108bd828286611349565b60008481526001602081905260408220906119b7876108c8565b60078111156119c8576119c8612607565b14611a215760405162461bcd60e51b815260206004820152602360248201527f476f7665726e6f723a20766f7465206e6f742063757272656e746c792061637460448201526269766560e81b606482015260840161078c565b604080516020810190915281546001600160401b031690819052600090611a49908790610e43565b9050611a5787878784611aa8565b856001600160a01b03167fb8e138887d0aa13bab447e82de9d5c1777041ecd21ca36ba824ff1e6c07ddda488878488604051611a969493929190612496565b60405180910390a29695505050505050565b60008481526005602090815260408083206001600160a01b0387168452600381019092529091205460ff1615611b305760405162461bcd60e51b815260206004820152602760248201527f476f7665726e6f72566f74696e6753696d706c653a20766f746520616c726561604482015266191e4818d85cdd60ca1b606482015260840161078c565b6001600160a01b03841660009081526003820160205260408120805460ff1916600117905560ff168360ff161415611b815781816000016000828254611b769190612511565b90915550610db29050565b60ff831660011415611ba15781816001016000828254611b769190612511565b60ff831660021415611bc15781816002016000828254611b769190612511565b60405162461bcd60e51b815260206004820152603560248201527f476f7665726e6f72566f74696e6753696d706c653a20696e76616c69642076616044820152746c756520666f7220656e756d20566f74655479706560581b606482015260840161078c565b60006001600160401b03831115611c4057611c40612633565b611c53601f8401601f19166020016124be565b9050828152838383011115611c6757600080fd5b828260208301376000602084830101529392505050565b80356001600160a01b0381168114611c9557600080fd5b919050565b600082601f830112611cab57600080fd5b81356020611cc0611cbb836124ee565b6124be565b80838252828201915082860187848660051b8901011115611ce057600080fd5b60005b85811015611d0657611cf482611c7e565b84529284019290840190600101611ce3565b5090979650505050505050565b600082601f830112611d2457600080fd5b81356020611d34611cbb836124ee565b80838252828201915082860187848660051b8901011115611d5457600080fd5b60005b85811015611d065781356001600160401b03811115611d7557600080fd5b8801603f81018a13611d8657600080fd5b611d978a8783013560408401611c27565b8552509284019290840190600101611d57565b600082601f830112611dbb57600080fd5b81356020611dcb611cbb836124ee565b80838252828201915082860187848660051b8901011115611deb57600080fd5b60005b85811015611d0657813584529284019290840190600101611dee565b60008083601f840112611e1c57600080fd5b5081356001600160401b03811115611e3357600080fd5b602083019150836020828501011115611e4b57600080fd5b9250929050565b803560ff81168114611c9557600080fd5b60008060408385031215611e7657600080fd5b611e7f83611c7e565b946020939093013593505050565b60008060008060608587031215611ea357600080fd5b611eac85611c7e565b93506020850135925060408501356001600160401b03811115611ece57600080fd5b611eda87828801611e0a565b95989497509550505050565b60008060008060808587031215611efc57600080fd5b84356001600160401b0380821115611f1357600080fd5b611f1f88838901611c9a565b95506020870135915080821115611f3557600080fd5b611f4188838901611daa565b94506040870135915080821115611f5757600080fd5b50611f6487828801611d13565b949793965093946060013593505050565b60008060008060808587031215611f8b57600080fd5b84356001600160401b0380821115611fa257600080fd5b611fae88838901611c9a565b95506020870135915080821115611fc457600080fd5b611fd088838901611daa565b94506040870135915080821115611fe657600080fd5b611ff288838901611d13565b9350606087013591508082111561200857600080fd5b508501601f8101871361201a57600080fd5b61202987823560208401611c27565b91505092959194509250565b60006020828403121561204757600080fd5b81356001600160e01b031981168114610ee857600080fd5b60006020828403121561207157600080fd5b5035919050565b60006020828403121561208a57600080fd5b5051919050565b600080604083850312156120a457600080fd5b823591506120b460208401611c7e565b90509250929050565b600080604083850312156120d057600080fd5b823591506120b460208401611e52565b600080600080606085870312156120f657600080fd5b8435935061210660208601611e52565b925060408501356001600160401b03811115611ece57600080fd5b600080600080600060a0868803121561213957600080fd5b8535945061214960208701611e52565b935061215760408701611e52565b94979396509394606081013594506080013592915050565b60006020828403121561218157600080fd5b81356001600160401b0381168114610ee857600080fd5b600081518084526020808501945080840160005b838110156121d15781516001600160a01b0316875295820195908201906001016121ac565b509495945050505050565b600081518084526020808501808196508360051b8101915082860160005b85811015612224578284038952612212848351612261565b988501989350908401906001016121fa565b5091979650505050505050565b600081518084526020808501945080840160005b838110156121d157815187529582019590820190600101612245565b6000815180845261227981602086016020860161256b565b601f01601f19169290920160200192915050565b6000825161229f81846020870161256b565b9190910192915050565b6080815260006122bc6080830187612198565b82810360208401526122ce8187612231565b905082810360408401526122e281866121dc565b91505082606083015295945050505050565b602081016008831061231657634e487b7160e01b600052602160045260246000fd5b91905290565b602081526000610ee86020830184612261565b60208082526018908201527f476f7665726e6f723a206f6e6c79476f7665726e616e63650000000000000000604082015260600190565b60208082526021908201527f476f7665726e6f723a20696e76616c69642070726f706f73616c206c656e67746040820152600d60fb1b606082015260800190565b60006101208b8352602060018060a01b038c16818501528160408501526123d08285018c612198565b915083820360608501526123e4828b612231565b915083820360808501528189518084528284019150828160051b850101838c0160005b8381101561243557601f19878403018552612423838351612261565b94860194925090850190600101612407565b505086810360a0880152612449818c6121dc565b94505050505061246460c08401876001600160401b03169052565b6001600160401b03851660e08401528281036101008401526124868185612261565b9c9b505050505050505050505050565b84815260ff84166020820152826040820152608060608201526000610a706080830184612261565b604051601f8201601f191681016001600160401b03811182821017156124e6576124e6612633565b604052919050565b60006001600160401b0382111561250757612507612633565b5060051b60200190565b60008219821115612524576125246125f1565b500190565b60006001600160401b0380831681851680830382111561254b5761254b6125f1565b01949350505050565b600082821015612566576125666125f1565b500390565b60005b8381101561258657818101518382015260200161256e565b83811115612595576000848401525b50505050565b600181811c908216806125af57607f821691505b602082108114156125d057634e487b7160e01b600052602260045260246000fd5b50919050565b60006000198214156125ea576125ea6125f1565b5060010190565b634e487b7160e01b600052601160045260246000fd5b634e487b7160e01b600052602160045260246000fd5b634e487b7160e01b600052603260045260246000fd5b634e487b7160e01b600052604160045260246000fdfe476f7665726e6f723a2063616c6c20726576657274656420776974686f7574206d657373616765416464726573733a206c6f772d6c6576656c2063616c6c20776974682076616c7565206661696c6564a26469706673582212206698b44159bc4f565f88cd74ad5b56b6e0903d3958b814b859135eaea1afc1a664736f6c63430008060033",
  "bytecodeSha1": "0ce5c7743b67ac2b684dc04bf4974d1370270b1f",
  "compiler": {
    "evm_version": "istanbul",
    "optimizer": {
      "enabled": true,
      "runs": 200
    },
    "version": "0.8.6+commit.11564f7e"
  },
  "contractName": "GovernorPreventLateQuorumMock",
  "language": "Solidity",
  "natspec": {
    "kind": "dev",
    "methods": {
      "COUNTING_MODE()": {
        "details": "See {IGovernor-COUNTING_MODE}."
      },
      "castVote(uint256,uint8)": {
        "details": "See {IGovernor-castVote}."
      },
      "castVoteBySig(uint256,uint8,uint8,bytes32,bytes32)": {
        "details": "See {IGovernor-castVoteBySig}."
      },
      "castVoteWithReason(uint256,uint8,string)": {
        "details": "See {IGovernor-castVoteWithReason}."
      },
      "execute(address[],uint256[],bytes[],bytes32)": {
        "details": "See {IGovernor-execute}."
      },
      "getVotes(address,uint256)": {
        "notice": "Read the voting weight from the token's built in snapshot mechanism (see {IGovernor-getVotes})."
      },
      "hasVoted(uint256,address)": {
        "details": "See {IGovernor-hasVoted}."
      },
      "hashProposal(address[],uint256[],bytes[],bytes32)": {
        "details": "See {IGovernor-hashProposal}. The proposal id is produced by hashing the RLC encoded `targets` array, the `values` array, the `calldatas` array and the descriptionHash (bytes32 which itself is the keccak256 hash of the description string). This proposal id can be produced from the proposal data which is part of the {ProposalCreated} event. It can even be computed in advance, before the proposal is submitted. Note that the chainId and the governor address are not part of the proposal id computation. Consequently, the same proposal (with same operation and same description) will have the same id if submitted on multiple governors accross multiple networks. This also means that in order to execute the same operation twice (on the same governor) the proposer will have to change the description in order to avoid proposal id conflicts."
      },
      "lateQuorumVoteExtension()": {
        "details": "Returns the current value of the vote extension parameter: the number of blocks that are required to pass from the time a proposal reaches quorum until its voting period ends."
      },
      "name()": {
        "details": "See {IGovernor-name}."
      },
      "proposalSnapshot(uint256)": {
        "details": "See {IGovernor-proposalSnapshot}."
      },
      "proposalVotes(uint256)": {
        "details": "Accessor to the internal vote counts."
      },
      "propose(address[],uint256[],bytes[],string)": {
        "details": "See {IGovernor-propose}."
      },
      "relay(address,uint256,bytes)": {
        "details": "Relays a transaction or function call to an arbitrary target. In cases where the governance executor is some contract other than the governor itself, like when using a timelock, this function can be invoked in a governance proposal to recover tokens or Ether that was sent to the governor contract by mistake. Note that if the executor is simply the governor itself, use of `relay` is redundant."
      },
      "setLateQuorumVoteExtension(uint64)": {
        "details": "Changes the {lateQuorumVoteExtension}. This operation can only be performed by the governance executor, generally through a governance proposal. Emits a {LateQuorumVoteExtensionSet} event."
      },
      "setProposalThreshold(uint256)": {
        "details": "Update the proposal threshold. This operation can only be performed through a governance proposal. Emits a {ProposalThresholdSet} event."
      },
      "setVotingDelay(uint256)": {
        "details": "Update the voting delay. This operation can only be performed through a governance proposal. Emits a {VotingDelaySet} event."
      },
      "setVotingPeriod(uint256)": {
        "details": "Update the voting period. This operation can only be performed through a governance proposal. Emits a {VotingPeriodSet} event."
      },
      "state(uint256)": {
        "details": "See {IGovernor-state}."
      },
      "supportsInterface(bytes4)": {
        "details": "See {IERC165-supportsInterface}."
      },
      "version()": {
        "details": "See {IGovernor-version}."
      },
      "votingDelay()": {
        "details": "See {IGovernor-votingDelay}."
      },
      "votingPeriod()": {
        "details": "See {IGovernor-votingPeriod}."
      }
    },
    "version": 1
  },
  "opcodes": "PUSH1 0x80 PUSH1 0x40 MSTORE PUSH1 0x4 CALLDATASIZE LT PUSH2 0x1BB JUMPI PUSH1 0x0 CALLDATALOAD PUSH1 0xE0 SHR DUP1 PUSH4 0x7B3C71D3 GT PUSH2 0xEC JUMPI DUP1 PUSH4 0xDD4E2BA5 GT PUSH2 0x8A JUMPI DUP1 PUSH4 0xEB9019D4 GT PUSH2 0x64 JUMPI DUP1 PUSH4 0xEB9019D4 EQ PUSH2 0x574 JUMPI DUP1 PUSH4 0xECE40CC1 EQ PUSH2 0x594 JUMPI DUP1 PUSH4 0xF8CE560A EQ PUSH2 0x5B4 JUMPI DUP1 PUSH4 0xFC0C546A EQ PUSH2 0x5D6 JUMPI PUSH1 0x0 DUP1 REVERT JUMPDEST DUP1 PUSH4 0xDD4E2BA5 EQ PUSH2 0x4DA JUMPI DUP1 PUSH4 0xDEAAA7CC EQ PUSH2 0x520 JUMPI DUP1 PUSH4 0xEA0217CF EQ PUSH2 0x554 JUMPI PUSH1 0x0 DUP1 REVERT JUMPDEST DUP1 PUSH4 0xC01F9E37 GT PUSH2 0xC6 JUMPI DUP1 PUSH4 0xC01F9E37 EQ PUSH2 0x45A JUMPI DUP1 PUSH4 0xC28BC2FA EQ PUSH2 0x47A JUMPI DUP1 PUSH4 0xC59057E4 EQ PUSH2 0x49A JUMPI DUP1 PUSH4 0xD07F91E9 EQ PUSH2 0x4BA JUMPI PUSH1 0x0 DUP1 REVERT JUMPDEST DUP1 PUSH4 0x7B3C71D3 EQ PUSH2 0x405 JUMPI DUP1 PUSH4 0x7D5E81E2 EQ PUSH2 0x425 JUMPI DUP1 PUSH4 0xB58131B0 EQ PUSH2 0x445 JUMPI PUSH1 0x0 DUP1 REVERT JUMPDEST DUP1 PUSH4 0x3BCCF4FD GT PUSH2 0x159 JUMPI DUP1 PUSH4 0x544FFC9C GT PUSH2 0x133 JUMPI DUP1 PUSH4 0x544FFC9C EQ PUSH2 0x346 JUMPI DUP1 PUSH4 0x54FD4D50 EQ PUSH2 0x39B JUMPI DUP1 PUSH4 0x56781388 EQ PUSH2 0x3C5 JUMPI DUP1 PUSH4 0x70B0F660 EQ PUSH2 0x3E5 JUMPI PUSH1 0x0 DUP1 REVERT JUMPDEST DUP1 PUSH4 0x3BCCF4FD EQ PUSH2 0x2AF JUMPI DUP1 PUSH4 0x3E4F49E6 EQ PUSH2 0x2CF JUMPI DUP1 PUSH4 0x43859632 EQ PUSH2 0x2FC JUMPI PUSH1 0x0 DUP1 REVERT JUMPDEST DUP1 PUSH4 0x2656227D GT PUSH2 0x195 JUMPI DUP1 PUSH4 0x2656227D EQ PUSH2 0x23F JUMPI DUP1 PUSH4 0x2D63F693 EQ PUSH2 0x252 JUMPI DUP1 PUSH4 0x32B8113E EQ PUSH2 0x272 JUMPI DUP1 PUSH4 0x3932ABB1 EQ PUSH2 0x29A JUMPI PUSH1 0x0 DUP1 REVERT JUMPDEST DUP1 PUSH4 0x1FFC9A7 EQ PUSH2 0x1C9 JUMPI DUP1 PUSH4 0x2A251A3 EQ PUSH2 0x1FE JUMPI DUP1 PUSH4 0x6FDDE03 EQ PUSH2 0x21D JUMPI PUSH1 0x0 DUP1 REVERT JUMPDEST CALLDATASIZE PUSH2 0x1C4 JUMPI STOP JUMPDEST STOP JUMPDEST PUSH1 0x0 DUP1 REVERT JUMPDEST CALLVALUE DUP1 ISZERO PUSH2 0x1D5 JUMPI PUSH1 0x0 DUP1 REVERT JUMPDEST POP PUSH2 0x1E9 PUSH2 0x1E4 CALLDATASIZE PUSH1 0x4 PUSH2 0x2035 JUMP JUMPDEST PUSH2 0x622 JUMP JUMPDEST PUSH1 0x40 MLOAD SWAP1 ISZERO ISZERO DUP2 MSTORE PUSH1 0x20 ADD JUMPDEST PUSH1 0x40 MLOAD DUP1 SWAP2 SUB SWAP1 RETURN JUMPDEST CALLVALUE DUP1 ISZERO PUSH2 0x20A JUMPI PUSH1 0x0 DUP1 REVERT JUMPDEST POP PUSH1 0x3 SLOAD JUMPDEST PUSH1 0x40 MLOAD SWAP1 DUP2 MSTORE PUSH1 0x20 ADD PUSH2 0x1F5 JUMP JUMPDEST CALLVALUE DUP1 ISZERO PUSH2 0x229 JUMPI PUSH1 0x0 DUP1 REVERT JUMPDEST POP PUSH2 0x232 PUSH2 0x659 JUMP JUMPDEST PUSH1 0x40 MLOAD PUSH2 0x1F5 SWAP2 SWAP1 PUSH2 0x231C JUMP JUMPDEST PUSH2 0x20F PUSH2 0x24D CALLDATASIZE PUSH1 0x4 PUSH2 0x1EE6 JUMP JUMPDEST PUSH2 0x6EB JUMP JUMPDEST CALLVALUE DUP1 ISZERO PUSH2 0x25E JUMPI PUSH1 0x0 DUP1 REVERT JUMPDEST POP PUSH2 0x20F PUSH2 0x26D CALLDATASIZE PUSH1 0x4 PUSH2 0x205F JUMP JUMPDEST PUSH2 0x7FD JUMP JUMPDEST CALLVALUE DUP1 ISZERO PUSH2 0x27E JUMPI PUSH1 0x0 DUP1 REVERT JUMPDEST POP PUSH1 0x6 SLOAD PUSH1 0x40 MLOAD PUSH1 0x1 PUSH1 0x1 PUSH1 0x40 SHL SUB SWAP1 SWAP2 AND DUP2 MSTORE PUSH1 0x20 ADD PUSH2 0x1F5 JUMP JUMPDEST CALLVALUE DUP1 ISZERO PUSH2 0x2A6 JUMPI PUSH1 0x0 DUP1 REVERT JUMPDEST POP PUSH1 0x2 SLOAD PUSH2 0x20F JUMP JUMPDEST CALLVALUE DUP1 ISZERO PUSH2 0x2BB JUMPI PUSH1 0x0 DUP1 REVERT JUMPDEST POP PUSH2 0x20F PUSH2 0x2CA CALLDATASIZE PUSH1 0x4 PUSH2 0x2121 JUMP JUMPDEST PUSH2 0x834 JUMP JUMPDEST CALLVALUE DUP1 ISZERO PUSH2 0x2DB JUMPI PUSH1 0x0 DUP1 REVERT JUMPDEST POP PUSH2 0x2EF PUSH2 0x2EA CALLDATASIZE PUSH1 0x4 PUSH2 0x205F JUMP JUMPDEST PUSH2 0x8C8 JUMP JUMPDEST PUSH1 0x40 MLOAD PUSH2 0x1F5 SWAP2 SWAP1 PUSH2 0x22F4 JUMP JUMPDEST CALLVALUE DUP1 ISZERO PUSH2 0x308 JUMPI PUSH1 0x0 DUP1 REVERT JUMPDEST POP PUSH2 0x1E9 PUSH2 0x317 CALLDATASIZE PUSH1 0x4 PUSH2 0x2091 JUMP JUMPDEST PUSH1 0x0 DUP3 DUP2 MSTORE PUSH1 0x5 PUSH1 0x20 SWAP1 DUP2 MSTORE PUSH1 0x40 DUP1 DUP4 KECCAK256 PUSH1 0x1 PUSH1 0x1 PUSH1 0xA0 SHL SUB DUP6 AND DUP5 MSTORE PUSH1 0x3 ADD SWAP1 SWAP2 MSTORE SWAP1 KECCAK256 SLOAD PUSH1 0xFF AND SWAP3 SWAP2 POP POP JUMP JUMPDEST CALLVALUE DUP1 ISZERO PUSH2 0x352 JUMPI PUSH1 0x0 DUP1 REVERT JUMPDEST POP PUSH2 0x380 PUSH2 0x361 CALLDATASIZE PUSH1 0x4 PUSH2 0x205F JUMP JUMPDEST PUSH1 0x0 SWAP1 DUP2 MSTORE PUSH1 0x5 PUSH1 0x20 MSTORE PUSH1 0x40 SWAP1 KECCAK256 DUP1 SLOAD PUSH1 0x1 DUP3 ADD SLOAD PUSH1 0x2 SWAP1 SWAP3 ADD SLOAD SWAP1 SWAP3 JUMP JUMPDEST PUSH1 0x40 DUP1 MLOAD SWAP4 DUP5 MSTORE PUSH1 0x20 DUP5 ADD SWAP3 SWAP1 SWAP3 MSTORE SWAP1 DUP3 ADD MSTORE PUSH1 0x60 ADD PUSH2 0x1F5 JUMP JUMPDEST CALLVALUE DUP1 ISZERO PUSH2 0x3A7 JUMPI PUSH1 0x0 DUP1 REVERT JUMPDEST POP PUSH1 0x40 DUP1 MLOAD DUP1 DUP3 ADD SWAP1 SWAP2 MSTORE PUSH1 0x1 DUP2 MSTORE PUSH1 0x31 PUSH1 0xF8 SHL PUSH1 0x20 DUP3 ADD MSTORE PUSH2 0x232 JUMP JUMPDEST CALLVALUE DUP1 ISZERO PUSH2 0x3D1 JUMPI PUSH1 0x0 DUP1 REVERT JUMPDEST POP PUSH2 0x20F PUSH2 0x3E0 CALLDATASIZE PUSH1 0x4 PUSH2 0x20BD JUMP JUMPDEST PUSH2 0x9D4 JUMP JUMPDEST CALLVALUE DUP1 ISZERO PUSH2 0x3F1 JUMPI PUSH1 0x0 DUP1 REVERT JUMPDEST POP PUSH2 0x1C2 PUSH2 0x400 CALLDATASIZE PUSH1 0x4 PUSH2 0x205F JUMP JUMPDEST PUSH2 0x9FD JUMP JUMPDEST CALLVALUE DUP1 ISZERO PUSH2 0x411 JUMPI PUSH1 0x0 DUP1 REVERT JUMPDEST POP PUSH2 0x20F PUSH2 0x420 CALLDATASIZE PUSH1 0x4 PUSH2 0x20E0 JUMP JUMPDEST PUSH2 0xA28 JUMP JUMPDEST CALLVALUE DUP1 ISZERO PUSH2 0x431 JUMPI PUSH1 0x0 DUP1 REVERT JUMPDEST POP PUSH2 0x20F PUSH2 0x440 CALLDATASIZE PUSH1 0x4 PUSH2 0x1F75 JUMP JUMPDEST PUSH2 0xA7A JUMP JUMPDEST CALLVALUE DUP1 ISZERO PUSH2 0x451 JUMPI PUSH1 0x0 DUP1 REVERT JUMPDEST POP PUSH2 0x20F PUSH2 0xD36 JUMP JUMPDEST CALLVALUE DUP1 ISZERO PUSH2 0x466 JUMPI PUSH1 0x0 DUP1 REVERT JUMPDEST POP PUSH2 0x20F PUSH2 0x475 CALLDATASIZE PUSH1 0x4 PUSH2 0x205F JUMP JUMPDEST PUSH2 0xD46 JUMP JUMPDEST CALLVALUE DUP1 ISZERO PUSH2 0x486 JUMPI PUSH1 0x0 DUP1 REVERT JUMPDEST POP PUSH2 0x1C2 PUSH2 0x495 CALLDATASIZE PUSH1 0x4 PUSH2 0x1E8D JUMP JUMPDEST PUSH2 0xD51 JUMP JUMPDEST CALLVALUE DUP1 ISZERO PUSH2 0x4A6 JUMPI PUSH1 0x0 DUP1 REVERT JUMPDEST POP PUSH2 0x20F PUSH2 0x4B5 CALLDATASIZE PUSH1 0x4 PUSH2 0x1EE6 JUMP JUMPDEST PUSH2 0xDB9 JUMP JUMPDEST CALLVALUE DUP1 ISZERO PUSH2 0x4C6 JUMPI PUSH1 0x0 DUP1 REVERT JUMPDEST POP PUSH2 0x1C2 PUSH2 0x4D5 CALLDATASIZE PUSH1 0x4 PUSH2 0x216F JUMP JUMPDEST PUSH2 0xDF3 JUMP JUMPDEST CALLVALUE DUP1 ISZERO PUSH2 0x4E6 JUMPI PUSH1 0x0 DUP1 REVERT JUMPDEST POP PUSH1 0x40 DUP1 MLOAD DUP1 DUP3 ADD SWAP1 SWAP2 MSTORE PUSH1 0x20 DUP1 DUP3 MSTORE PUSH32 0x737570706F72743D627261766F2671756F72756D3D666F722C6162737461696E SWAP1 DUP3 ADD MSTORE PUSH2 0x232 JUMP JUMPDEST CALLVALUE DUP1 ISZERO PUSH2 0x52C JUMPI PUSH1 0x0 DUP1 REVERT JUMPDEST POP PUSH2 0x20F PUSH32 0x150214D74D59B7D1E90C73FC22EF3D991DD0A76B046543D4D80AB92D2A50328F DUP2 JUMP JUMPDEST CALLVALUE DUP1 ISZERO PUSH2 0x560 JUMPI PUSH1 0x0 DUP1 REVERT JUMPDEST POP PUSH2 0x1C2 PUSH2 0x56F CALLDATASIZE PUSH1 0x4 PUSH2 0x205F JUMP JUMPDEST PUSH2 0xE1B JUMP JUMPDEST CALLVALUE DUP1 ISZERO PUSH2 0x580 JUMPI PUSH1 0x0 DUP1 REVERT JUMPDEST POP PUSH2 0x20F PUSH2 0x58F CALLDATASIZE PUSH1 0x4 PUSH2 0x1E63 JUMP JUMPDEST PUSH2 0xE43 JUMP JUMPDEST CALLVALUE DUP1 ISZERO PUSH2 0x5A0 JUMPI PUSH1 0x0 DUP1 REVERT JUMPDEST POP PUSH2 0x1C2 PUSH2 0x5AF CALLDATASIZE PUSH1 0x4 PUSH2 0x205F JUMP JUMPDEST PUSH2 0xEEF JUMP JUMPDEST CALLVALUE DUP1 ISZERO PUSH2 0x5C0 JUMPI PUSH1 0x0 DUP1 REVERT JUMPDEST POP PUSH2 0x20F PUSH2 0x5CF CALLDATASIZE PUSH1 0x4 PUSH2 0x205F JUMP JUMPDEST POP PUSH1 0x8 SLOAD SWAP1 JUMP JUMPDEST CALLVALUE DUP1 ISZERO PUSH2 0x5E2 JUMPI PUSH1 0x0 DUP1 REVERT JUMPDEST POP PUSH2 0x60A PUSH32 0x0 DUP2 JUMP JUMPDEST PUSH1 0x40 MLOAD PUSH1 0x1 PUSH1 0x1 PUSH1 0xA0 SHL SUB SWAP1 SWAP2 AND DUP2 MSTORE PUSH1 0x20 ADD PUSH2 0x1F5 JUMP JUMPDEST PUSH1 0x0 PUSH1 0x1 PUSH1 0x1 PUSH1 0xE0 SHL SUB NOT DUP3 AND PUSH4 0xBF26D897 PUSH1 0xE0 SHL EQ DUP1 PUSH2 0x653 JUMPI POP PUSH4 0x1FFC9A7 PUSH1 0xE0 SHL PUSH1 0x1 PUSH1 0x1 PUSH1 0xE0 SHL SUB NOT DUP4 AND EQ JUMPDEST SWAP3 SWAP2 POP POP JUMP JUMPDEST PUSH1 0x60 PUSH1 0x0 DUP1 SLOAD PUSH2 0x668 SWAP1 PUSH2 0x259B JUMP JUMPDEST DUP1 PUSH1 0x1F ADD PUSH1 0x20 DUP1 SWAP2 DIV MUL PUSH1 0x20 ADD PUSH1 0x40 MLOAD SWAP1 DUP2 ADD PUSH1 0x40 MSTORE DUP1 SWAP3 SWAP2 SWAP1 DUP2 DUP2 MSTORE PUSH1 0x20 ADD DUP3 DUP1 SLOAD PUSH2 0x694 SWAP1 PUSH2 0x259B JUMP JUMPDEST DUP1 ISZERO PUSH2 0x6E1 JUMPI DUP1 PUSH1 0x1F LT PUSH2 0x6B6 JUMPI PUSH2 0x100 DUP1 DUP4 SLOAD DIV MUL DUP4 MSTORE SWAP2 PUSH1 0x20 ADD SWAP2 PUSH2 0x6E1 JUMP JUMPDEST DUP3 ADD SWAP2 SWAP1 PUSH1 0x0 MSTORE PUSH1 0x20 PUSH1 0x0 KECCAK256 SWAP1 JUMPDEST DUP2 SLOAD DUP2 MSTORE SWAP1 PUSH1 0x1 ADD SWAP1 PUSH1 0x20 ADD DUP1 DUP4 GT PUSH2 0x6C4 JUMPI DUP3 SWAP1 SUB PUSH1 0x1F AND DUP3 ADD SWAP2 JUMPDEST POP POP POP POP POP SWAP1 POP SWAP1 JUMP JUMPDEST PUSH1 0x0 DUP1 PUSH2 0x6FA DUP7 DUP7 DUP7 DUP7 PUSH2 0xDB9 JUMP JUMPDEST SWAP1 POP PUSH1 0x0 PUSH2 0x707 DUP3 PUSH2 0x8C8 JUMP JUMPDEST SWAP1 POP PUSH1 0x4 DUP2 PUSH1 0x7 DUP2 GT ISZERO PUSH2 0x71D JUMPI PUSH2 0x71D PUSH2 0x2607 JUMP JUMPDEST EQ DUP1 PUSH2 0x73A JUMPI POP PUSH1 0x5 DUP2 PUSH1 0x7 DUP2 GT ISZERO PUSH2 0x738 JUMPI PUSH2 0x738 PUSH2 0x2607 JUMP JUMPDEST EQ JUMPDEST PUSH2 0x795 JUMPI PUSH1 0x40 MLOAD PUSH3 0x461BCD PUSH1 0xE5 SHL DUP2 MSTORE PUSH1 0x20 PUSH1 0x4 DUP3 ADD MSTORE PUSH1 0x21 PUSH1 0x24 DUP3 ADD MSTORE PUSH32 0x476F7665726E6F723A2070726F706F73616C206E6F7420737563636573736675 PUSH1 0x44 DUP3 ADD MSTORE PUSH1 0x1B PUSH1 0xFA SHL PUSH1 0x64 DUP3 ADD MSTORE PUSH1 0x84 ADD JUMPDEST PUSH1 0x40 MLOAD DUP1 SWAP2 SUB SWAP1 REVERT JUMPDEST PUSH1 0x0 DUP3 DUP2 MSTORE PUSH1 0x1 PUSH1 0x20 DUP2 DUP2 MSTORE PUSH1 0x40 SWAP3 DUP4 SWAP1 KECCAK256 PUSH1 0x2 ADD DUP1 SLOAD PUSH1 0xFF NOT AND SWAP1 SWAP3 OR SWAP1 SWAP2 SSTORE SWAP1 MLOAD DUP4 DUP2 MSTORE PUSH32 0x712AE1383F79AC853F8D882153778E0260EF8F03B504E2866E0593E04D2B291F SWAP2 ADD PUSH1 0x40 MLOAD DUP1 SWAP2 SUB SWAP1 LOG1 PUSH2 0x7F3 DUP3 DUP9 DUP9 DUP9 DUP9 PUSH2 0xF17 JUMP JUMPDEST POP SWAP6 SWAP5 POP POP POP POP POP JUMP JUMPDEST PUSH1 0x0 DUP2 DUP2 MSTORE PUSH1 0x1 PUSH1 0x20 SWAP1 DUP2 MSTORE PUSH1 0x40 DUP1 DUP4 KECCAK256 DUP2 MLOAD SWAP3 DUP4 ADD SWAP1 SWAP2 MSTORE SLOAD PUSH1 0x1 PUSH1 0x1 PUSH1 0x40 SHL SUB AND SWAP1 DUP2 SWAP1 MSTORE JUMPDEST PUSH1 0x1 PUSH1 0x1 PUSH1 0x40 SHL SUB AND SWAP3 SWAP2 POP POP JUMP JUMPDEST PUSH1 0x40 DUP1 MLOAD PUSH32 0x150214D74D59B7D1E90C73FC22EF3D991DD0A76B046543D4D80AB92D2A50328F PUSH1 0x20 DUP3 ADD MSTORE SWAP1 DUP2 ADD DUP7 SWAP1 MSTORE PUSH1 0xFF DUP6 AND PUSH1 0x60 DUP3 ADD MSTORE PUSH1 0x0 SWAP1 DUP2 SWAP1 PUSH2 0x8A0 SWAP1 PUSH2 0x898 SWAP1 PUSH1 0x80 ADD PUSH1 0x40 MLOAD PUSH1 0x20 DUP2 DUP4 SUB SUB DUP2 MSTORE SWAP1 PUSH1 0x40 MSTORE DUP1 MLOAD SWAP1 PUSH1 0x20 ADD KECCAK256 PUSH2 0x1016 JUMP JUMPDEST DUP7 DUP7 DUP7 PUSH2 0x1064 JUMP JUMPDEST SWAP1 POP PUSH2 0x8BD DUP8 DUP3 DUP9 PUSH1 0x40 MLOAD DUP1 PUSH1 0x20 ADD PUSH1 0x40 MSTORE DUP1 PUSH1 0x0 DUP2 MSTORE POP PUSH2 0x1082 JUMP JUMPDEST SWAP8 SWAP7 POP POP POP POP POP POP POP JUMP JUMPDEST PUSH1 0x0 DUP2 DUP2 MSTORE PUSH1 0x1 PUSH1 0x20 MSTORE PUSH1 0x40 DUP2 KECCAK256 PUSH1 0x2 DUP2 ADD SLOAD PUSH1 0xFF AND ISZERO PUSH2 0x8EC JUMPI POP PUSH1 0x7 SWAP3 SWAP2 POP POP JUMP JUMPDEST PUSH1 0x2 DUP2 ADD SLOAD PUSH2 0x100 SWAP1 DIV PUSH1 0xFF AND ISZERO PUSH2 0x907 JUMPI POP PUSH1 0x2 SWAP3 SWAP2 POP POP JUMP JUMPDEST PUSH1 0x0 PUSH2 0x912 DUP5 PUSH2 0x7FD JUMP JUMPDEST SWAP1 POP DUP1 PUSH2 0x961 JUMPI PUSH1 0x40 MLOAD PUSH3 0x461BCD PUSH1 0xE5 SHL DUP2 MSTORE PUSH1 0x20 PUSH1 0x4 DUP3 ADD MSTORE PUSH1 0x1D PUSH1 0x24 DUP3 ADD MSTORE PUSH32 0x476F7665726E6F723A20756E6B6E6F776E2070726F706F73616C206964000000 PUSH1 0x44 DUP3 ADD MSTORE PUSH1 0x64 ADD PUSH2 0x78C JUMP JUMPDEST NUMBER DUP2 LT PUSH2 0x972 JUMPI POP PUSH1 0x0 SWAP4 SWAP3 POP POP POP JUMP JUMPDEST PUSH1 0x0 PUSH2 0x97D DUP6 PUSH2 0xD46 JUMP JUMPDEST SWAP1 POP NUMBER DUP2 LT PUSH2 0x991 JUMPI POP PUSH1 0x1 SWAP5 SWAP4 POP POP POP POP JUMP JUMPDEST PUSH2 0x99A DUP6 PUSH2 0x1099 JUMP JUMPDEST DUP1 ISZERO PUSH2 0x9B9 JUMPI POP PUSH1 0x0 DUP6 DUP2 MSTORE PUSH1 0x5 PUSH1 0x20 MSTORE PUSH1 0x40 SWAP1 KECCAK256 DUP1 SLOAD PUSH1 0x1 SWAP1 SWAP2 ADD SLOAD GT JUMPDEST ISZERO PUSH2 0x9C9 JUMPI POP PUSH1 0x4 SWAP5 SWAP4 POP POP POP POP JUMP JUMPDEST POP PUSH1 0x3 SWAP5 SWAP4 POP POP POP POP JUMP JUMPDEST PUSH1 0x0 DUP1 CALLER SWAP1 POP PUSH2 0x9F5 DUP5 DUP3 DUP6 PUSH1 0x40 MLOAD DUP1 PUSH1 0x20 ADD PUSH1 0x40 MSTORE DUP1 PUSH1 0x0 DUP2 MSTORE POP PUSH2 0x1082 JUMP JUMPDEST SWAP5 SWAP4 POP POP POP POP JUMP JUMPDEST CALLER ADDRESS EQ PUSH2 0xA1C JUMPI PUSH1 0x40 MLOAD PUSH3 0x461BCD PUSH1 0xE5 SHL DUP2 MSTORE PUSH1 0x4 ADD PUSH2 0x78C SWAP1 PUSH2 0x232F JUMP JUMPDEST PUSH2 0xA25 DUP2 PUSH2 0x10D0 JUMP JUMPDEST POP JUMP JUMPDEST PUSH1 0x0 DUP1 CALLER SWAP1 POP PUSH2 0xA70 DUP7 DUP3 DUP8 DUP8 DUP8 DUP1 DUP1 PUSH1 0x1F ADD PUSH1 0x20 DUP1 SWAP2 DIV MUL PUSH1 0x20 ADD PUSH1 0x40 MLOAD SWAP1 DUP2 ADD PUSH1 0x40 MSTORE DUP1 SWAP4 SWAP3 SWAP2 SWAP1 DUP2 DUP2 MSTORE PUSH1 0x20 ADD DUP4 DUP4 DUP1 DUP3 DUP5 CALLDATACOPY PUSH1 0x0 SWAP3 ADD SWAP2 SWAP1 SWAP2 MSTORE POP PUSH2 0x1082 SWAP3 POP POP POP JUMP JUMPDEST SWAP7 SWAP6 POP POP POP POP POP POP JUMP JUMPDEST PUSH1 0x0 PUSH2 0xA84 PUSH2 0xD36 JUMP JUMPDEST PUSH2 0xA93 CALLER PUSH2 0x58F PUSH1 0x1 NUMBER PUSH2 0x2554 JUMP JUMPDEST LT ISZERO PUSH2 0xB13 JUMPI PUSH1 0x40 MLOAD PUSH3 0x461BCD PUSH1 0xE5 SHL DUP2 MSTORE PUSH1 0x20 PUSH1 0x4 DUP3 ADD MSTORE PUSH1 0x43 PUSH1 0x24 DUP3 ADD MSTORE PUSH32 0x476F7665726E6F72436F6D7061746962696C697479427261766F3A2070726F70 PUSH1 0x44 DUP3 ADD MSTORE PUSH32 0x6F73657220766F7465732062656C6F772070726F706F73616C20746872657368 PUSH1 0x64 DUP3 ADD MSTORE PUSH3 0x1BDB19 PUSH1 0xEA SHL PUSH1 0x84 DUP3 ADD MSTORE PUSH1 0xA4 ADD PUSH2 0x78C JUMP JUMPDEST PUSH1 0x0 PUSH2 0xB28 DUP7 DUP7 DUP7 DUP7 DUP1 MLOAD SWAP1 PUSH1 0x20 ADD KECCAK256 PUSH2 0xDB9 JUMP JUMPDEST SWAP1 POP DUP5 MLOAD DUP7 MLOAD EQ PUSH2 0xB4B JUMPI PUSH1 0x40 MLOAD PUSH3 0x461BCD PUSH1 0xE5 SHL DUP2 MSTORE PUSH1 0x4 ADD PUSH2 0x78C SWAP1 PUSH2 0x2366 JUMP JUMPDEST DUP4 MLOAD DUP7 MLOAD EQ PUSH2 0xB6C JUMPI PUSH1 0x40 MLOAD PUSH3 0x461BCD PUSH1 0xE5 SHL DUP2 MSTORE PUSH1 0x4 ADD PUSH2 0x78C SWAP1 PUSH2 0x2366 JUMP JUMPDEST PUSH1 0x0 DUP7 MLOAD GT PUSH2 0xBBD JUMPI PUSH1 0x40 MLOAD PUSH3 0x461BCD PUSH1 0xE5 SHL DUP2 MSTORE PUSH1 0x20 PUSH1 0x4 DUP3 ADD MSTORE PUSH1 0x18 PUSH1 0x24 DUP3 ADD MSTORE PUSH32 0x476F7665726E6F723A20656D7074792070726F706F73616C0000000000000000 PUSH1 0x44 DUP3 ADD MSTORE PUSH1 0x64 ADD PUSH2 0x78C JUMP JUMPDEST PUSH1 0x0 DUP2 DUP2 MSTORE PUSH1 0x1 PUSH1 0x20 SWAP1 DUP2 MSTORE PUSH1 0x40 SWAP2 DUP3 SWAP1 KECCAK256 DUP3 MLOAD SWAP2 DUP3 ADD SWAP1 SWAP3 MSTORE DUP2 SLOAD PUSH1 0x1 PUSH1 0x1 PUSH1 0x40 SHL SUB AND SWAP1 DUP2 SWAP1 MSTORE ISZERO PUSH2 0xC3D JUMPI PUSH1 0x40 MLOAD PUSH3 0x461BCD PUSH1 0xE5 SHL DUP2 MSTORE PUSH1 0x20 PUSH1 0x4 DUP3 ADD MSTORE PUSH1 0x21 PUSH1 0x24 DUP3 ADD MSTORE PUSH32 0x476F7665726E6F723A2070726F706F73616C20616C7265616479206578697374 PUSH1 0x44 DUP3 ADD MSTORE PUSH1 0x73 PUSH1 0xF8 SHL PUSH1 0x64 DUP3 ADD MSTORE PUSH1 0x84 ADD PUSH2 0x78C JUMP JUMPDEST PUSH1 0x0 PUSH2 0xC50 PUSH2 0xC4B PUSH1 0x2 SLOAD SWAP1 JUMP JUMPDEST PUSH2 0x1111 JUMP JUMPDEST PUSH2 0xC59 NUMBER PUSH2 0x1111 JUMP JUMPDEST PUSH2 0xC63 SWAP2 SWAP1 PUSH2 0x2529 JUMP JUMPDEST SWAP1 POP PUSH1 0x0 PUSH2 0xC73 PUSH2 0xC4B PUSH1 0x3 SLOAD SWAP1 JUMP JUMPDEST PUSH2 0xC7D SWAP1 DUP4 PUSH2 0x2529 JUMP JUMPDEST SWAP1 POP PUSH2 0xC89 DUP4 DUP4 PUSH2 0x117D JUMP JUMPDEST PUSH2 0xC96 PUSH1 0x1 DUP5 ADD DUP3 PUSH2 0x117D JUMP JUMPDEST PUSH32 0x7D84A6263AE0D98D3329BD7B46BB4E8D6F98CD35A7ADB45C274C8B7FD5EBD5E0 DUP5 CALLER DUP12 DUP12 DUP14 MLOAD PUSH1 0x1 PUSH1 0x1 PUSH1 0x40 SHL SUB DUP2 GT ISZERO PUSH2 0xCD4 JUMPI PUSH2 0xCD4 PUSH2 0x2633 JUMP JUMPDEST PUSH1 0x40 MLOAD SWAP1 DUP1 DUP3 MSTORE DUP1 PUSH1 0x20 MUL PUSH1 0x20 ADD DUP3 ADD PUSH1 0x40 MSTORE DUP1 ISZERO PUSH2 0xD07 JUMPI DUP2 PUSH1 0x20 ADD JUMPDEST PUSH1 0x60 DUP2 MSTORE PUSH1 0x20 ADD SWAP1 PUSH1 0x1 SWAP1 SUB SWAP1 DUP2 PUSH2 0xCF2 JUMPI SWAP1 POP JUMPDEST POP DUP13 DUP9 DUP9 DUP15 PUSH1 0x40 MLOAD PUSH2 0xD21 SWAP10 SWAP9 SWAP8 SWAP7 SWAP6 SWAP5 SWAP4 SWAP3 SWAP2 SWAP1 PUSH2 0x23A7 JUMP JUMPDEST PUSH1 0x40 MLOAD DUP1 SWAP2 SUB SWAP1 LOG1 POP SWAP2 SWAP8 SWAP7 POP POP POP POP POP POP POP JUMP JUMPDEST PUSH1 0x0 PUSH2 0xD41 PUSH1 0x4 SLOAD SWAP1 JUMP JUMPDEST SWAP1 POP SWAP1 JUMP JUMPDEST PUSH1 0x0 PUSH2 0x653 DUP3 PUSH2 0x119B JUMP JUMPDEST CALLER ADDRESS EQ PUSH2 0xD70 JUMPI PUSH1 0x40 MLOAD PUSH3 0x461BCD PUSH1 0xE5 SHL DUP2 MSTORE PUSH1 0x4 ADD PUSH2 0x78C SWAP1 PUSH2 0x232F JUMP JUMPDEST PUSH2 0xDB2 DUP5 DUP4 DUP4 DUP1 DUP1 PUSH1 0x1F ADD PUSH1 0x20 DUP1 SWAP2 DIV MUL PUSH1 0x20 ADD PUSH1 0x40 MLOAD SWAP1 DUP2 ADD PUSH1 0x40 MSTORE DUP1 SWAP4 SWAP3 SWAP2 SWAP1 DUP2 DUP2 MSTORE PUSH1 0x20 ADD DUP4 DUP4 DUP1 DUP3 DUP5 CALLDATACOPY PUSH1 0x0 SWAP3 ADD SWAP2 SWAP1 SWAP2 MSTORE POP DUP9 SWAP3 POP PUSH2 0x11D7 SWAP2 POP POP JUMP JUMPDEST POP POP POP POP POP JUMP JUMPDEST PUSH1 0x0 DUP5 DUP5 DUP5 DUP5 PUSH1 0x40 MLOAD PUSH1 0x20 ADD PUSH2 0xDD2 SWAP5 SWAP4 SWAP3 SWAP2 SWAP1 PUSH2 0x22A9 JUMP JUMPDEST PUSH1 0x40 DUP1 MLOAD PUSH1 0x1F NOT DUP2 DUP5 SUB ADD DUP2 MSTORE SWAP2 SWAP1 MSTORE DUP1 MLOAD PUSH1 0x20 SWAP1 SWAP2 ADD KECCAK256 SWAP6 SWAP5 POP POP POP POP POP JUMP JUMPDEST CALLER ADDRESS EQ PUSH2 0xE12 JUMPI PUSH1 0x40 MLOAD PUSH3 0x461BCD PUSH1 0xE5 SHL DUP2 MSTORE PUSH1 0x4 ADD PUSH2 0x78C SWAP1 PUSH2 0x232F JUMP JUMPDEST PUSH2 0xA25 DUP2 PUSH2 0x11FD JUMP JUMPDEST CALLER ADDRESS EQ PUSH2 0xE3A JUMPI PUSH1 0x40 MLOAD PUSH3 0x461BCD PUSH1 0xE5 SHL DUP2 MSTORE PUSH1 0x4 ADD PUSH2 0x78C SWAP1 PUSH2 0x232F JUMP JUMPDEST PUSH2 0xA25 DUP2 PUSH2 0x1267 JUMP JUMPDEST PUSH1 0x40 MLOAD PUSH4 0x748D635 PUSH1 0xE3 SHL DUP2 MSTORE PUSH1 0x1 PUSH1 0x1 PUSH1 0xA0 SHL SUB DUP4 DUP2 AND PUSH1 0x4 DUP4 ADD MSTORE PUSH1 0x24 DUP3 ADD DUP4 SWAP1 MSTORE PUSH1 0x0 SWAP2 PUSH32 0x0 SWAP1 SWAP2 AND SWAP1 PUSH4 0x3A46B1A8 SWAP1 PUSH1 0x44 ADD PUSH1 0x20 PUSH1 0x40 MLOAD DUP1 DUP4 SUB DUP2 DUP7 DUP1 EXTCODESIZE ISZERO DUP1 ISZERO PUSH2 0xEB0 JUMPI PUSH1 0x0 DUP1 REVERT JUMPDEST POP GAS STATICCALL ISZERO DUP1 ISZERO PUSH2 0xEC4 JUMPI RETURNDATASIZE PUSH1 0x0 DUP1 RETURNDATACOPY RETURNDATASIZE PUSH1 0x0 REVERT JUMPDEST POP POP POP POP PUSH1 0x40 MLOAD RETURNDATASIZE PUSH1 0x1F NOT PUSH1 0x1F DUP3 ADD AND DUP3 ADD DUP1 PUSH1 0x40 MSTORE POP DUP2 ADD SWAP1 PUSH2 0xEE8 SWAP2 SWAP1 PUSH2 0x2078 JUMP JUMPDEST SWAP4 SWAP3 POP POP POP JUMP JUMPDEST CALLER ADDRESS EQ PUSH2 0xF0E JUMPI PUSH1 0x40 MLOAD PUSH3 0x461BCD PUSH1 0xE5 SHL DUP2 MSTORE PUSH1 0x4 ADD PUSH2 0x78C SWAP1 PUSH2 0x232F JUMP JUMPDEST PUSH2 0xA25 DUP2 PUSH2 0x1308 JUMP JUMPDEST PUSH1 0x0 PUSH1 0x40 MLOAD DUP1 PUSH1 0x60 ADD PUSH1 0x40 MSTORE DUP1 PUSH1 0x27 DUP2 MSTORE PUSH1 0x20 ADD PUSH2 0x264A PUSH1 0x27 SWAP2 CODECOPY SWAP1 POP PUSH1 0x0 JUMPDEST DUP6 MLOAD DUP2 LT ISZERO PUSH2 0x100D JUMPI PUSH1 0x0 DUP1 DUP8 DUP4 DUP2 MLOAD DUP2 LT PUSH2 0xF55 JUMPI PUSH2 0xF55 PUSH2 0x261D JUMP JUMPDEST PUSH1 0x20 MUL PUSH1 0x20 ADD ADD MLOAD PUSH1 0x1 PUSH1 0x1 PUSH1 0xA0 SHL SUB AND DUP8 DUP5 DUP2 MLOAD DUP2 LT PUSH2 0xF78 JUMPI PUSH2 0xF78 PUSH2 0x261D JUMP JUMPDEST PUSH1 0x20 MUL PUSH1 0x20 ADD ADD MLOAD DUP8 DUP6 DUP2 MLOAD DUP2 LT PUSH2 0xF92 JUMPI PUSH2 0xF92 PUSH2 0x261D JUMP JUMPDEST PUSH1 0x20 MUL PUSH1 0x20 ADD ADD MLOAD PUSH1 0x40 MLOAD PUSH2 0xFA7 SWAP2 SWAP1 PUSH2 0x228D JUMP JUMPDEST PUSH1 0x0 PUSH1 0x40 MLOAD DUP1 DUP4 SUB DUP2 DUP6 DUP8 GAS CALL SWAP3 POP POP POP RETURNDATASIZE DUP1 PUSH1 0x0 DUP2 EQ PUSH2 0xFE4 JUMPI PUSH1 0x40 MLOAD SWAP2 POP PUSH1 0x1F NOT PUSH1 0x3F RETURNDATASIZE ADD AND DUP3 ADD PUSH1 0x40 MSTORE RETURNDATASIZE DUP3 MSTORE RETURNDATASIZE PUSH1 0x0 PUSH1 0x20 DUP5 ADD RETURNDATACOPY PUSH2 0xFE9 JUMP JUMPDEST PUSH1 0x60 SWAP2 POP JUMPDEST POP SWAP2 POP SWAP2 POP PUSH2 0xFF9 DUP3 DUP3 DUP7 PUSH2 0x1349 JUMP JUMPDEST POP POP POP DUP1 PUSH2 0x1006 SWAP1 PUSH2 0x25D6 JUMP JUMPDEST SWAP1 POP PUSH2 0xF37 JUMP JUMPDEST POP POP POP POP POP POP POP JUMP JUMPDEST PUSH1 0x0 PUSH2 0x653 PUSH2 0x1023 PUSH2 0x1382 JUMP JUMPDEST DUP4 PUSH1 0x40 MLOAD PUSH2 0x1901 PUSH1 0xF0 SHL PUSH1 0x20 DUP3 ADD MSTORE PUSH1 0x22 DUP2 ADD DUP4 SWAP1 MSTORE PUSH1 0x42 DUP2 ADD DUP3 SWAP1 MSTORE PUSH1 0x0 SWAP1 PUSH1 0x62 ADD PUSH1 0x40 MLOAD PUSH1 0x20 DUP2 DUP4 SUB SUB DUP2 MSTORE SWAP1 PUSH1 0x40 MSTORE DUP1 MLOAD SWAP1 PUSH1 0x20 ADD KECCAK256 SWAP1 POP SWAP3 SWAP2 POP POP JUMP JUMPDEST PUSH1 0x0 DUP1 PUSH1 0x0 PUSH2 0x1075 DUP8 DUP8 DUP8 DUP8 PUSH2 0x14A9 JUMP JUMPDEST SWAP2 POP SWAP2 POP PUSH2 0x7F3 DUP2 PUSH2 0x1596 JUMP JUMPDEST PUSH1 0x0 PUSH2 0x1090 DUP6 DUP6 DUP6 DUP6 PUSH2 0x1751 JUMP JUMPDEST SWAP6 SWAP5 POP POP POP POP POP JUMP JUMPDEST PUSH1 0x0 DUP2 DUP2 MSTORE PUSH1 0x5 PUSH1 0x20 MSTORE PUSH1 0x40 DUP2 KECCAK256 PUSH1 0x2 DUP2 ADD SLOAD PUSH1 0x1 DUP3 ADD SLOAD PUSH2 0x10BB SWAP2 SWAP1 PUSH2 0x2511 JUMP JUMPDEST PUSH2 0x10C7 PUSH2 0x5CF DUP6 PUSH2 0x7FD JUMP JUMPDEST GT ISZERO SWAP4 SWAP3 POP POP POP JUMP JUMPDEST PUSH1 0x2 SLOAD PUSH1 0x40 DUP1 MLOAD SWAP2 DUP3 MSTORE PUSH1 0x20 DUP3 ADD DUP4 SWAP1 MSTORE PUSH32 0xC565B045403DC03C2EEA82B81A0465EDAD9E2E7FC4D97E11421C209DA93D7A93 SWAP2 ADD PUSH1 0x40 MLOAD DUP1 SWAP2 SUB SWAP1 LOG1 PUSH1 0x2 SSTORE JUMP JUMPDEST PUSH1 0x0 PUSH1 0x1 PUSH1 0x1 PUSH1 0x40 SHL SUB DUP3 GT ISZERO PUSH2 0x1179 JUMPI PUSH1 0x40 MLOAD PUSH3 0x461BCD PUSH1 0xE5 SHL DUP2 MSTORE PUSH1 0x20 PUSH1 0x4 DUP3 ADD MSTORE PUSH1 0x26 PUSH1 0x24 DUP3 ADD MSTORE PUSH32 0x53616665436173743A2076616C756520646F65736E27742066697420696E2036 PUSH1 0x44 DUP3 ADD MSTORE PUSH6 0x342062697473 PUSH1 0xD0 SHL PUSH1 0x64 DUP3 ADD MSTORE PUSH1 0x84 ADD PUSH2 0x78C JUMP JUMPDEST POP SWAP1 JUMP JUMPDEST DUP2 SLOAD PUSH8 0xFFFFFFFFFFFFFFFF NOT AND PUSH1 0x1 PUSH1 0x1 PUSH1 0x40 SHL SUB SWAP2 SWAP1 SWAP2 AND OR SWAP1 SSTORE JUMP JUMPDEST PUSH1 0x0 PUSH2 0x653 PUSH2 0x11A9 DUP4 PUSH2 0x183A JUMP JUMPDEST PUSH1 0x0 DUP5 DUP2 MSTORE PUSH1 0x7 PUSH1 0x20 SWAP1 DUP2 MSTORE PUSH1 0x40 SWAP2 DUP3 SWAP1 KECCAK256 DUP3 MLOAD SWAP2 DUP3 ADD SWAP1 SWAP3 MSTORE SWAP1 SLOAD PUSH1 0x1 PUSH1 0x1 PUSH1 0x40 SHL SUB AND SWAP1 DUP2 SWAP1 MSTORE PUSH2 0x1869 JUMP JUMPDEST PUSH1 0x60 PUSH2 0x9F5 DUP5 DUP5 DUP5 PUSH1 0x40 MLOAD DUP1 PUSH1 0x60 ADD PUSH1 0x40 MSTORE DUP1 PUSH1 0x29 DUP2 MSTORE PUSH1 0x20 ADD PUSH2 0x2671 PUSH1 0x29 SWAP2 CODECOPY PUSH2 0x1880 JUMP JUMPDEST PUSH1 0x6 SLOAD PUSH1 0x40 DUP1 MLOAD PUSH1 0x1 PUSH1 0x1 PUSH1 0x40 SHL SUB SWAP3 DUP4 AND DUP2 MSTORE SWAP2 DUP4 AND PUSH1 0x20 DUP4 ADD MSTORE PUSH32 0x7CA4AC117ED3CDCE75C1161D8207C440389B1A15D69D096831664657C07DAFC2 SWAP2 ADD PUSH1 0x40 MLOAD DUP1 SWAP2 SUB SWAP1 LOG1 PUSH1 0x6 DUP1 SLOAD PUSH8 0xFFFFFFFFFFFFFFFF NOT AND PUSH1 0x1 PUSH1 0x1 PUSH1 0x40 SHL SUB SWAP3 SWAP1 SWAP3 AND SWAP2 SWAP1 SWAP2 OR SWAP1 SSTORE JUMP JUMPDEST PUSH1 0x0 DUP2 GT PUSH2 0x12C7 JUMPI PUSH1 0x40 MLOAD PUSH3 0x461BCD PUSH1 0xE5 SHL DUP2 MSTORE PUSH1 0x20 PUSH1 0x4 DUP3 ADD MSTORE PUSH1 0x27 PUSH1 0x24 DUP3 ADD MSTORE PUSH32 0x476F7665726E6F7253657474696E67733A20766F74696E6720706572696F6420 PUSH1 0x44 DUP3 ADD MSTORE PUSH7 0x746F6F206C6F77 PUSH1 0xC8 SHL PUSH1 0x64 DUP3 ADD MSTORE PUSH1 0x84 ADD PUSH2 0x78C JUMP JUMPDEST PUSH1 0x3 SLOAD PUSH1 0x40 DUP1 MLOAD SWAP2 DUP3 MSTORE PUSH1 0x20 DUP3 ADD DUP4 SWAP1 MSTORE PUSH32 0x7E3F7F0708A84DE9203036ABAA450DCCC85AD5FF52F78C170F3EDB55CF5E8828 SWAP2 ADD PUSH1 0x40 MLOAD DUP1 SWAP2 SUB SWAP1 LOG1 PUSH1 0x3 SSTORE JUMP JUMPDEST PUSH1 0x4 SLOAD PUSH1 0x40 DUP1 MLOAD SWAP2 DUP3 MSTORE PUSH1 0x20 DUP3 ADD DUP4 SWAP1 MSTORE PUSH32 0xCCB45DA8D5717E6C4544694297C4BA5CF151D455C9BB0ED4FC7A38411BC05461 SWAP2 ADD PUSH1 0x40 MLOAD DUP1 SWAP2 SUB SWAP1 LOG1 PUSH1 0x4 SSTORE JUMP JUMPDEST PUSH1 0x60 DUP4 ISZERO PUSH2 0x1358 JUMPI POP DUP2 PUSH2 0xEE8 JUMP JUMPDEST DUP3 MLOAD ISZERO PUSH2 0x1368 JUMPI DUP3 MLOAD DUP1 DUP5 PUSH1 0x20 ADD REVERT JUMPDEST DUP2 PUSH1 0x40 MLOAD PUSH3 0x461BCD PUSH1 0xE5 SHL DUP2 MSTORE PUSH1 0x4 ADD PUSH2 0x78C SWAP2 SWAP1 PUSH2 0x231C JUMP JUMPDEST PUSH1 0x0 ADDRESS PUSH1 0x1 PUSH1 0x1 PUSH1 0xA0 SHL SUB PUSH32 0x0 AND EQ DUP1 ISZERO PUSH2 0x13DB JUMPI POP PUSH32 0x0 CHAINID EQ JUMPDEST ISZERO PUSH2 0x1405 JUMPI POP PUSH32 0x0 SWAP1 JUMP JUMPDEST POP PUSH1 0x40 DUP1 MLOAD PUSH32 0x0 PUSH1 0x20 DUP1 DUP4 ADD SWAP2 SWAP1 SWAP2 MSTORE PUSH32 0x0 DUP3 DUP5 ADD MSTORE PUSH32 0x0 PUSH1 0x60 DUP4 ADD MSTORE CHAINID PUSH1 0x80 DUP4 ADD MSTORE ADDRESS PUSH1 0xA0 DUP1 DUP5 ADD SWAP2 SWAP1 SWAP2 MSTORE DUP4 MLOAD DUP1 DUP5 SUB SWAP1 SWAP2 ADD DUP2 MSTORE PUSH1 0xC0 SWAP1 SWAP3 ADD SWAP1 SWAP3 MSTORE DUP1 MLOAD SWAP2 ADD KECCAK256 SWAP1 JUMP JUMPDEST PUSH1 0x0 DUP1 PUSH32 0x7FFFFFFFFFFFFFFFFFFFFFFFFFFFFFFF5D576E7357A4501DDFE92F46681B20A0 DUP4 GT ISZERO PUSH2 0x14E0 JUMPI POP PUSH1 0x0 SWAP1 POP PUSH1 0x3 PUSH2 0x158D JUMP JUMPDEST DUP5 PUSH1 0xFF AND PUSH1 0x1B EQ ISZERO DUP1 ISZERO PUSH2 0x14F8 JUMPI POP DUP5 PUSH1 0xFF AND PUSH1 0x1C EQ ISZERO JUMPDEST ISZERO PUSH2 0x1509 JUMPI POP PUSH1 0x0 SWAP1 POP PUSH1 0x4 PUSH2 0x158D JUMP JUMPDEST PUSH1 0x40 DUP1 MLOAD PUSH1 0x0 DUP1 DUP3 MSTORE PUSH1 0x20 DUP3 ADD DUP1 DUP5 MSTORE DUP10 SWAP1 MSTORE PUSH1 0xFF DUP9 AND SWAP3 DUP3 ADD SWAP3 SWAP1 SWAP3 MSTORE PUSH1 0x60 DUP2 ADD DUP7 SWAP1 MSTORE PUSH1 0x80 DUP2 ADD DUP6 SWAP1 MSTORE PUSH1 0x1 SWAP1 PUSH1 0xA0 ADD PUSH1 0x20 PUSH1 0x40 MLOAD PUSH1 0x20 DUP2 SUB SWAP1 DUP1 DUP5 SUB SWAP1 DUP6 GAS STATICCALL ISZERO DUP1 ISZERO PUSH2 0x155D JUMPI RETURNDATASIZE PUSH1 0x0 DUP1 RETURNDATACOPY RETURNDATASIZE PUSH1 0x0 REVERT JUMPDEST POP POP PUSH1 0x40 MLOAD PUSH1 0x1F NOT ADD MLOAD SWAP2 POP POP PUSH1 0x1 PUSH1 0x1 PUSH1 0xA0 SHL SUB DUP2 AND PUSH2 0x1586 JUMPI PUSH1 0x0 PUSH1 0x1 SWAP3 POP SWAP3 POP POP PUSH2 0x158D JUMP JUMPDEST SWAP2 POP PUSH1 0x0 SWAP1 POP JUMPDEST SWAP5 POP SWAP5 SWAP3 POP POP POP JUMP JUMPDEST PUSH1 0x0 DUP2 PUSH1 0x4 DUP2 GT ISZERO PUSH2 0x15AA JUMPI PUSH2 0x15AA PUSH2 0x2607 JUMP JUMPDEST EQ ISZERO PUSH2 0x15B3 JUMPI POP JUMP JUMPDEST PUSH1 0x1 DUP2 PUSH1 0x4 DUP2 GT ISZERO PUSH2 0x15C7 JUMPI PUSH2 0x15C7 PUSH2 0x2607 JUMP JUMPDEST EQ ISZERO PUSH2 0x1615 JUMPI PUSH1 0x40 MLOAD PUSH3 0x461BCD PUSH1 0xE5 SHL DUP2 MSTORE PUSH1 0x20 PUSH1 0x4 DUP3 ADD MSTORE PUSH1 0x18 PUSH1 0x24 DUP3 ADD MSTORE PUSH32 0x45434453413A20696E76616C6964207369676E61747572650000000000000000 PUSH1 0x44 DUP3 ADD MSTORE PUSH1 0x64 ADD PUSH2 0x78C JUMP JUMPDEST PUSH1 0x2 DUP2 PUSH1 0x4 DUP2 GT ISZERO PUSH2 0x1629 JUMPI PUSH2 0x1629 PUSH2 0x2607 JUMP JUMPDEST EQ ISZERO PUSH2 0x1677 JUMPI PUSH1 0x40 MLOAD PUSH3 0x461BCD PUSH1 0xE5 SHL DUP2 MSTORE PUSH1 0x20 PUSH1 0x4 DUP3 ADD MSTORE PUSH1 0x1F PUSH1 0x24 DUP3 ADD MSTORE PUSH32 0x45434453413A20696E76616C6964207369676E6174757265206C656E67746800 PUSH1 0x44 DUP3 ADD MSTORE PUSH1 0x64 ADD PUSH2 0x78C JUMP JUMPDEST PUSH1 0x3 DUP2 PUSH1 0x4 DUP2 GT ISZERO PUSH2 0x168B JUMPI PUSH2 0x168B PUSH2 0x2607 JUMP JUMPDEST EQ ISZERO PUSH2 0x16E4 JUMPI PUSH1 0x40 MLOAD PUSH3 0x461BCD PUSH1 0xE5 SHL DUP2 MSTORE PUSH1 0x20 PUSH1 0x4 DUP3 ADD MSTORE PUSH1 0x22 PUSH1 0x24 DUP3 ADD MSTORE PUSH32 0x45434453413A20696E76616C6964207369676E6174757265202773272076616C PUSH1 0x44 DUP3 ADD MSTORE PUSH2 0x7565 PUSH1 0xF0 SHL PUSH1 0x64 DUP3 ADD MSTORE PUSH1 0x84 ADD PUSH2 0x78C JUMP JUMPDEST PUSH1 0x4 DUP2 PUSH1 0x4 DUP2 GT ISZERO PUSH2 0x16F8 JUMPI PUSH2 0x16F8 PUSH2 0x2607 JUMP JUMPDEST EQ ISZERO PUSH2 0xA25 JUMPI PUSH1 0x40 MLOAD PUSH3 0x461BCD PUSH1 0xE5 SHL DUP2 MSTORE PUSH1 0x20 PUSH1 0x4 DUP3 ADD MSTORE PUSH1 0x22 PUSH1 0x24 DUP3 ADD MSTORE PUSH32 0x45434453413A20696E76616C6964207369676E6174757265202776272076616C PUSH1 0x44 DUP3 ADD MSTORE PUSH2 0x7565 PUSH1 0xF0 SHL PUSH1 0x64 DUP3 ADD MSTORE PUSH1 0x84 ADD PUSH2 0x78C JUMP JUMPDEST PUSH1 0x0 DUP1 PUSH2 0x1760 DUP7 DUP7 DUP7 DUP7 PUSH2 0x199D JUMP JUMPDEST PUSH1 0x0 DUP8 DUP2 MSTORE PUSH1 0x7 PUSH1 0x20 SWAP1 DUP2 MSTORE PUSH1 0x40 SWAP2 DUP3 SWAP1 KECCAK256 DUP3 MLOAD SWAP2 DUP3 ADD SWAP1 SWAP3 MSTORE DUP2 SLOAD PUSH1 0x1 PUSH1 0x1 PUSH1 0x40 SHL SUB AND SWAP1 DUP2 SWAP1 MSTORE SWAP2 SWAP3 POP SWAP1 ISZERO DUP1 ISZERO PUSH2 0x179E JUMPI POP PUSH2 0x179E DUP8 PUSH2 0x1099 JUMP JUMPDEST ISZERO PUSH2 0x7F3 JUMPI PUSH1 0x0 PUSH2 0x17B7 PUSH1 0x6 SLOAD PUSH1 0x1 PUSH1 0x1 PUSH1 0x40 SHL SUB AND SWAP1 JUMP JUMPDEST PUSH2 0x17C0 NUMBER PUSH2 0x1111 JUMP JUMPDEST PUSH2 0x17CA SWAP2 SWAP1 PUSH2 0x2529 JUMP JUMPDEST SWAP1 POP PUSH2 0x17D5 DUP9 PUSH2 0xD46 JUMP JUMPDEST DUP2 PUSH1 0x1 PUSH1 0x1 PUSH1 0x40 SHL SUB AND GT ISZERO PUSH2 0x1824 JUMPI PUSH1 0x40 MLOAD PUSH1 0x1 PUSH1 0x1 PUSH1 0x40 SHL SUB DUP3 AND DUP2 MSTORE DUP9 SWAP1 PUSH32 0x541F725FB9F7C98A30CC9C0FF32FBB14358CD7159C847A3AA20A2BDC442BA511 SWAP1 PUSH1 0x20 ADD PUSH1 0x40 MLOAD DUP1 SWAP2 SUB SWAP1 LOG2 JUMPDEST PUSH2 0x182E DUP3 DUP3 PUSH2 0x117D JUMP JUMPDEST POP POP SWAP1 POP SWAP5 SWAP4 POP POP POP POP JUMP JUMPDEST PUSH1 0x0 DUP2 DUP2 MSTORE PUSH1 0x1 PUSH1 0x20 DUP2 DUP2 MSTORE PUSH1 0x40 DUP1 DUP5 KECCAK256 DUP2 MLOAD SWAP3 DUP4 ADD SWAP1 SWAP2 MSTORE SWAP1 SWAP2 ADD SLOAD PUSH1 0x1 PUSH1 0x1 PUSH1 0x40 SHL SUB AND SWAP1 DUP2 SWAP1 MSTORE PUSH2 0x825 JUMP JUMPDEST PUSH1 0x0 DUP2 DUP4 LT ISZERO PUSH2 0x1879 JUMPI DUP2 PUSH2 0xEE8 JUMP JUMPDEST POP SWAP1 SWAP2 SWAP1 POP JUMP JUMPDEST PUSH1 0x60 DUP3 SELFBALANCE LT ISZERO PUSH2 0x18E1 JUMPI PUSH1 0x40 MLOAD PUSH3 0x461BCD PUSH1 0xE5 SHL DUP2 MSTORE PUSH1 0x20 PUSH1 0x4 DUP3 ADD MSTORE PUSH1 0x26 PUSH1 0x24 DUP3 ADD MSTORE PUSH32 0x416464726573733A20696E73756666696369656E742062616C616E636520666F PUSH1 0x44 DUP3 ADD MSTORE PUSH6 0x1C8818D85B1B PUSH1 0xD2 SHL PUSH1 0x64 DUP3 ADD MSTORE PUSH1 0x84 ADD PUSH2 0x78C JUMP JUMPDEST DUP5 EXTCODESIZE PUSH2 0x192F JUMPI PUSH1 0x40 MLOAD PUSH3 0x461BCD PUSH1 0xE5 SHL DUP2 MSTORE PUSH1 0x20 PUSH1 0x4 DUP3 ADD MSTORE PUSH1 0x1D PUSH1 0x24 DUP3 ADD MSTORE PUSH32 0x416464726573733A2063616C6C20746F206E6F6E2D636F6E7472616374000000 PUSH1 0x44 DUP3 ADD MSTORE PUSH1 0x64 ADD PUSH2 0x78C JUMP JUMPDEST PUSH1 0x0 DUP1 DUP7 PUSH1 0x1 PUSH1 0x1 PUSH1 0xA0 SHL SUB AND DUP6 DUP8 PUSH1 0x40 MLOAD PUSH2 0x194B SWAP2 SWAP1 PUSH2 0x228D JUMP JUMPDEST PUSH1 0x0 PUSH1 0x40 MLOAD DUP1 DUP4 SUB DUP2 DUP6 DUP8 GAS CALL SWAP3 POP POP POP RETURNDATASIZE DUP1 PUSH1 0x0 DUP2 EQ PUSH2 0x1988 JUMPI PUSH1 0x40 MLOAD SWAP2 POP PUSH1 0x1F NOT PUSH1 0x3F RETURNDATASIZE ADD AND DUP3 ADD PUSH1 0x40 MSTORE RETURNDATASIZE DUP3 MSTORE RETURNDATASIZE PUSH1 0x0 PUSH1 0x20 DUP5 ADD RETURNDATACOPY PUSH2 0x198D JUMP JUMPDEST PUSH1 0x60 SWAP2 POP JUMPDEST POP SWAP2 POP SWAP2 POP PUSH2 0x8BD DUP3 DUP3 DUP7 PUSH2 0x1349 JUMP JUMPDEST PUSH1 0x0 DUP5 DUP2 MSTORE PUSH1 0x1 PUSH1 0x20 DUP2 SWAP1 MSTORE PUSH1 0x40 DUP3 KECCAK256 SWAP1 PUSH2 0x19B7 DUP8 PUSH2 0x8C8 JUMP JUMPDEST PUSH1 0x7 DUP2 GT ISZERO PUSH2 0x19C8 JUMPI PUSH2 0x19C8 PUSH2 0x2607 JUMP JUMPDEST EQ PUSH2 0x1A21 JUMPI PUSH1 0x40 MLOAD PUSH3 0x461BCD PUSH1 0xE5 SHL DUP2 MSTORE PUSH1 0x20 PUSH1 0x4 DUP3 ADD MSTORE PUSH1 0x23 PUSH1 0x24 DUP3 ADD MSTORE PUSH32 0x476F7665726E6F723A20766F7465206E6F742063757272656E746C7920616374 PUSH1 0x44 DUP3 ADD MSTORE PUSH3 0x697665 PUSH1 0xE8 SHL PUSH1 0x64 DUP3 ADD MSTORE PUSH1 0x84 ADD PUSH2 0x78C JUMP JUMPDEST PUSH1 0x40 DUP1 MLOAD PUSH1 0x20 DUP2 ADD SWAP1 SWAP2 MSTORE DUP2 SLOAD PUSH1 0x1 PUSH1 0x1 PUSH1 0x40 SHL SUB AND SWAP1 DUP2 SWAP1 MSTORE PUSH1 0x0 SWAP1 PUSH2 0x1A49 SWAP1 DUP8 SWAP1 PUSH2 0xE43 JUMP JUMPDEST SWAP1 POP PUSH2 0x1A57 DUP8 DUP8 DUP8 DUP5 PUSH2 0x1AA8 JUMP JUMPDEST DUP6 PUSH1 0x1 PUSH1 0x1 PUSH1 0xA0 SHL SUB AND PUSH32 0xB8E138887D0AA13BAB447E82DE9D5C1777041ECD21CA36BA824FF1E6C07DDDA4 DUP9 DUP8 DUP5 DUP9 PUSH1 0x40 MLOAD PUSH2 0x1A96 SWAP5 SWAP4 SWAP3 SWAP2 SWAP1 PUSH2 0x2496 JUMP JUMPDEST PUSH1 0x40 MLOAD DUP1 SWAP2 SUB SWAP1 LOG2 SWAP7 SWAP6 POP POP POP POP POP POP JUMP JUMPDEST PUSH1 0x0 DUP5 DUP2 MSTORE PUSH1 0x5 PUSH1 0x20 SWAP1 DUP2 MSTORE PUSH1 0x40 DUP1 DUP4 KECCAK256 PUSH1 0x1 PUSH1 0x1 PUSH1 0xA0 SHL SUB DUP8 AND DUP5 MSTORE PUSH1 0x3 DUP2 ADD SWAP1 SWAP3 MSTORE SWAP1 SWAP2 KECCAK256 SLOAD PUSH1 0xFF AND ISZERO PUSH2 0x1B30 JUMPI PUSH1 0x40 MLOAD PUSH3 0x461BCD PUSH1 0xE5 SHL DUP2 MSTORE PUSH1 0x20 PUSH1 0x4 DUP3 ADD MSTORE PUSH1 0x27 PUSH1 0x24 DUP3 ADD MSTORE PUSH32 0x476F7665726E6F72566F74696E6753696D706C653A20766F746520616C726561 PUSH1 0x44 DUP3 ADD MSTORE PUSH7 0x191E4818D85CDD PUSH1 0xCA SHL PUSH1 0x64 DUP3 ADD MSTORE PUSH1 0x84 ADD PUSH2 0x78C JUMP JUMPDEST PUSH1 0x1 PUSH1 0x1 PUSH1 0xA0 SHL SUB DUP5 AND PUSH1 0x0 SWAP1 DUP2 MSTORE PUSH1 0x3 DUP3 ADD PUSH1 0x20 MSTORE PUSH1 0x40 DUP2 KECCAK256 DUP1 SLOAD PUSH1 0xFF NOT AND PUSH1 0x1 OR SWAP1 SSTORE PUSH1 0xFF AND DUP4 PUSH1 0xFF AND EQ ISZERO PUSH2 0x1B81 JUMPI DUP2 DUP2 PUSH1 0x0 ADD PUSH1 0x0 DUP3 DUP3 SLOAD PUSH2 0x1B76 SWAP2 SWAP1 PUSH2 0x2511 JUMP JUMPDEST SWAP1 SWAP2 SSTORE POP PUSH2 0xDB2 SWAP1 POP JUMP JUMPDEST PUSH1 0xFF DUP4 AND PUSH1 0x1 EQ ISZERO PUSH2 0x1BA1 JUMPI DUP2 DUP2 PUSH1 0x1 ADD PUSH1 0x0 DUP3 DUP3 SLOAD PUSH2 0x1B76 SWAP2 SWAP1 PUSH2 0x2511 JUMP JUMPDEST PUSH1 0xFF DUP4 AND PUSH1 0x2 EQ ISZERO PUSH2 0x1BC1 JUMPI DUP2 DUP2 PUSH1 0x2 ADD PUSH1 0x0 DUP3 DUP3 SLOAD PUSH2 0x1B76 SWAP2 SWAP1 PUSH2 0x2511 JUMP JUMPDEST PUSH1 0x40 MLOAD PUSH3 0x461BCD PUSH1 0xE5 SHL DUP2 MSTORE PUSH1 0x20 PUSH1 0x4 DUP3 ADD MSTORE PUSH1 0x35 PUSH1 0x24 DUP3 ADD MSTORE PUSH32 0x476F7665726E6F72566F74696E6753696D706C653A20696E76616C6964207661 PUSH1 0x44 DUP3 ADD MSTORE PUSH21 0x6C756520666F7220656E756D20566F746554797065 PUSH1 0x58 SHL PUSH1 0x64 DUP3 ADD MSTORE PUSH1 0x84 ADD PUSH2 0x78C JUMP JUMPDEST PUSH1 0x0 PUSH1 0x1 PUSH1 0x1 PUSH1 0x40 SHL SUB DUP4 GT ISZERO PUSH2 0x1C40 JUMPI PUSH2 0x1C40 PUSH2 0x2633 JUMP JUMPDEST PUSH2 0x1C53 PUSH1 0x1F DUP5 ADD PUSH1 0x1F NOT AND PUSH1 0x20 ADD PUSH2 0x24BE JUMP JUMPDEST SWAP1 POP DUP3 DUP2 MSTORE DUP4 DUP4 DUP4 ADD GT ISZERO PUSH2 0x1C67 JUMPI PUSH1 0x0 DUP1 REVERT JUMPDEST DUP3 DUP3 PUSH1 0x20 DUP4 ADD CALLDATACOPY PUSH1 0x0 PUSH1 0x20 DUP5 DUP4 ADD ADD MSTORE SWAP4 SWAP3 POP POP POP JUMP JUMPDEST DUP1 CALLDATALOAD PUSH1 0x1 PUSH1 0x1 PUSH1 0xA0 SHL SUB DUP2 AND DUP2 EQ PUSH2 0x1C95 JUMPI PUSH1 0x0 DUP1 REVERT JUMPDEST SWAP2 SWAP1 POP JUMP JUMPDEST PUSH1 0x0 DUP3 PUSH1 0x1F DUP4 ADD SLT PUSH2 0x1CAB JUMPI PUSH1 0x0 DUP1 REVERT JUMPDEST DUP2 CALLDATALOAD PUSH1 0x20 PUSH2 0x1CC0 PUSH2 0x1CBB DUP4 PUSH2 0x24EE JUMP JUMPDEST PUSH2 0x24BE JUMP JUMPDEST DUP1 DUP4 DUP3 MSTORE DUP3 DUP3 ADD SWAP2 POP DUP3 DUP7 ADD DUP8 DUP5 DUP7 PUSH1 0x5 SHL DUP10 ADD ADD GT ISZERO PUSH2 0x1CE0 JUMPI PUSH1 0x0 DUP1 REVERT JUMPDEST PUSH1 0x0 JUMPDEST DUP6 DUP2 LT ISZERO PUSH2 0x1D06 JUMPI PUSH2 0x1CF4 DUP3 PUSH2 0x1C7E JUMP JUMPDEST DUP5 MSTORE SWAP3 DUP5 ADD SWAP3 SWAP1 DUP5 ADD SWAP1 PUSH1 0x1 ADD PUSH2 0x1CE3 JUMP JUMPDEST POP SWAP1 SWAP8 SWAP7 POP POP POP POP POP POP POP JUMP JUMPDEST PUSH1 0x0 DUP3 PUSH1 0x1F DUP4 ADD SLT PUSH2 0x1D24 JUMPI PUSH1 0x0 DUP1 REVERT JUMPDEST DUP2 CALLDATALOAD PUSH1 0x20 PUSH2 0x1D34 PUSH2 0x1CBB DUP4 PUSH2 0x24EE JUMP JUMPDEST DUP1 DUP4 DUP3 MSTORE DUP3 DUP3 ADD SWAP2 POP DUP3 DUP7 ADD DUP8 DUP5 DUP7 PUSH1 0x5 SHL DUP10 ADD ADD GT ISZERO PUSH2 0x1D54 JUMPI PUSH1 0x0 DUP1 REVERT JUMPDEST PUSH1 0x0 JUMPDEST DUP6 DUP2 LT ISZERO PUSH2 0x1D06 JUMPI DUP2 CALLDATALOAD PUSH1 0x1 PUSH1 0x1 PUSH1 0x40 SHL SUB DUP2 GT ISZERO PUSH2 0x1D75 JUMPI PUSH1 0x0 DUP1 REVERT JUMPDEST DUP9 ADD PUSH1 0x3F DUP2 ADD DUP11 SGT PUSH2 0x1D86 JUMPI PUSH1 0x0 DUP1 REVERT JUMPDEST PUSH2 0x1D97 DUP11 DUP8 DUP4 ADD CALLDATALOAD PUSH1 0x40 DUP5 ADD PUSH2 0x1C27 JUMP JUMPDEST DUP6 MSTORE POP SWAP3 DUP5 ADD SWAP3 SWAP1 DUP5 ADD SWAP1 PUSH1 0x1 ADD PUSH2 0x1D57 JUMP JUMPDEST PUSH1 0x0 DUP3 PUSH1 0x1F DUP4 ADD SLT PUSH2 0x1DBB JUMPI PUSH1 0x0 DUP1 REVERT JUMPDEST DUP2 CALLDATALOAD PUSH1 0x20 PUSH2 0x1DCB PUSH2 0x1CBB DUP4 PUSH2 0x24EE JUMP JUMPDEST DUP1 DUP4 DUP3 MSTORE DUP3 DUP3 ADD SWAP2 POP DUP3 DUP7 ADD DUP8 DUP5 DUP7 PUSH1 0x5 SHL DUP10 ADD ADD GT ISZERO PUSH2 0x1DEB JUMPI PUSH1 0x0 DUP1 REVERT JUMPDEST PUSH1 0x0 JUMPDEST DUP6 DUP2 LT ISZERO PUSH2 0x1D06 JUMPI DUP2 CALLDATALOAD DUP5 MSTORE SWAP3 DUP5 ADD SWAP3 SWAP1 DUP5 ADD SWAP1 PUSH1 0x1 ADD PUSH2 0x1DEE JUMP JUMPDEST PUSH1 0x0 DUP1 DUP4 PUSH1 0x1F DUP5 ADD SLT PUSH2 0x1E1C JUMPI PUSH1 0x0 DUP1 REVERT JUMPDEST POP DUP2 CALLDATALOAD PUSH1 0x1 PUSH1 0x1 PUSH1 0x40 SHL SUB DUP2 GT ISZERO PUSH2 0x1E33 JUMPI PUSH1 0x0 DUP1 REVERT JUMPDEST PUSH1 0x20 DUP4 ADD SWAP2 POP DUP4 PUSH1 0x20 DUP3 DUP6 ADD ADD GT ISZERO PUSH2 0x1E4B JUMPI PUSH1 0x0 DUP1 REVERT JUMPDEST SWAP3 POP SWAP3 SWAP1 POP JUMP JUMPDEST DUP1 CALLDATALOAD PUSH1 0xFF DUP2 AND DUP2 EQ PUSH2 0x1C95 JUMPI PUSH1 0x0 DUP1 REVERT JUMPDEST PUSH1 0x0 DUP1 PUSH1 0x40 DUP4 DUP6 SUB SLT ISZERO PUSH2 0x1E76 JUMPI PUSH1 0x0 DUP1 REVERT JUMPDEST PUSH2 0x1E7F DUP4 PUSH2 0x1C7E JUMP JUMPDEST SWAP5 PUSH1 0x20 SWAP4 SWAP1 SWAP4 ADD CALLDATALOAD SWAP4 POP POP POP JUMP JUMPDEST PUSH1 0x0 DUP1 PUSH1 0x0 DUP1 PUSH1 0x60 DUP6 DUP8 SUB SLT ISZERO PUSH2 0x1EA3 JUMPI PUSH1 0x0 DUP1 REVERT JUMPDEST PUSH2 0x1EAC DUP6 PUSH2 0x1C7E JUMP JUMPDEST SWAP4 POP PUSH1 0x20 DUP6 ADD CALLDATALOAD SWAP3 POP PUSH1 0x40 DUP6 ADD CALLDATALOAD PUSH1 0x1 PUSH1 0x1 PUSH1 0x40 SHL SUB DUP2 GT ISZERO PUSH2 0x1ECE JUMPI PUSH1 0x0 DUP1 REVERT JUMPDEST PUSH2 0x1EDA DUP8 DUP3 DUP9 ADD PUSH2 0x1E0A JUMP JUMPDEST SWAP6 SWAP9 SWAP5 SWAP8 POP SWAP6 POP POP POP POP JUMP JUMPDEST PUSH1 0x0 DUP1 PUSH1 0x0 DUP1 PUSH1 0x80 DUP6 DUP8 SUB SLT ISZERO PUSH2 0x1EFC JUMPI PUSH1 0x0 DUP1 REVERT JUMPDEST DUP5 CALLDATALOAD PUSH1 0x1 PUSH1 0x1 PUSH1 0x40 SHL SUB DUP1 DUP3 GT ISZERO PUSH2 0x1F13 JUMPI PUSH1 0x0 DUP1 REVERT JUMPDEST PUSH2 0x1F1F DUP9 DUP4 DUP10 ADD PUSH2 0x1C9A JUMP JUMPDEST SWAP6 POP PUSH1 0x20 DUP8 ADD CALLDATALOAD SWAP2 POP DUP1 DUP3 GT ISZERO PUSH2 0x1F35 JUMPI PUSH1 0x0 DUP1 REVERT JUMPDEST PUSH2 0x1F41 DUP9 DUP4 DUP10 ADD PUSH2 0x1DAA JUMP JUMPDEST SWAP5 POP PUSH1 0x40 DUP8 ADD CALLDATALOAD SWAP2 POP DUP1 DUP3 GT ISZERO PUSH2 0x1F57 JUMPI PUSH1 0x0 DUP1 REVERT JUMPDEST POP PUSH2 0x1F64 DUP8 DUP3 DUP9 ADD PUSH2 0x1D13 JUMP JUMPDEST SWAP5 SWAP8 SWAP4 SWAP7 POP SWAP4 SWAP5 PUSH1 0x60 ADD CALLDATALOAD SWAP4 POP POP POP JUMP JUMPDEST PUSH1 0x0 DUP1 PUSH1 0x0 DUP1 PUSH1 0x80 DUP6 DUP8 SUB SLT ISZERO PUSH2 0x1F8B JUMPI PUSH1 0x0 DUP1 REVERT JUMPDEST DUP5 CALLDATALOAD PUSH1 0x1 PUSH1 0x1 PUSH1 0x40 SHL SUB DUP1 DUP3 GT ISZERO PUSH2 0x1FA2 JUMPI PUSH1 0x0 DUP1 REVERT JUMPDEST PUSH2 0x1FAE DUP9 DUP4 DUP10 ADD PUSH2 0x1C9A JUMP JUMPDEST SWAP6 POP PUSH1 0x20 DUP8 ADD CALLDATALOAD SWAP2 POP DUP1 DUP3 GT ISZERO PUSH2 0x1FC4 JUMPI PUSH1 0x0 DUP1 REVERT JUMPDEST PUSH2 0x1FD0 DUP9 DUP4 DUP10 ADD PUSH2 0x1DAA JUMP JUMPDEST SWAP5 POP PUSH1 0x40 DUP8 ADD CALLDATALOAD SWAP2 POP DUP1 DUP3 GT ISZERO PUSH2 0x1FE6 JUMPI PUSH1 0x0 DUP1 REVERT JUMPDEST PUSH2 0x1FF2 DUP9 DUP4 DUP10 ADD PUSH2 0x1D13 JUMP JUMPDEST SWAP4 POP PUSH1 0x60 DUP8 ADD CALLDATALOAD SWAP2 POP DUP1 DUP3 GT ISZERO PUSH2 0x2008 JUMPI PUSH1 0x0 DUP1 REVERT JUMPDEST POP DUP6 ADD PUSH1 0x1F DUP2 ADD DUP8 SGT PUSH2 0x201A JUMPI PUSH1 0x0 DUP1 REVERT JUMPDEST PUSH2 0x2029 DUP8 DUP3 CALLDATALOAD PUSH1 0x20 DUP5 ADD PUSH2 0x1C27 JUMP JUMPDEST SWAP2 POP POP SWAP3 SWAP6 SWAP2 SWAP5 POP SWAP3 POP JUMP JUMPDEST PUSH1 0x0 PUSH1 0x20 DUP3 DUP5 SUB SLT ISZERO PUSH2 0x2047 JUMPI PUSH1 0x0 DUP1 REVERT JUMPDEST DUP2 CALLDATALOAD PUSH1 0x1 PUSH1 0x1 PUSH1 0xE0 SHL SUB NOT DUP2 AND DUP2 EQ PUSH2 0xEE8 JUMPI PUSH1 0x0 DUP1 REVERT JUMPDEST PUSH1 0x0 PUSH1 0x20 DUP3 DUP5 SUB SLT ISZERO PUSH2 0x2071 JUMPI PUSH1 0x0 DUP1 REVERT JUMPDEST POP CALLDATALOAD SWAP2 SWAP1 POP JUMP JUMPDEST PUSH1 0x0 PUSH1 0x20 DUP3 DUP5 SUB SLT ISZERO PUSH2 0x208A JUMPI PUSH1 0x0 DUP1 REVERT JUMPDEST POP MLOAD SWAP2 SWAP1 POP JUMP JUMPDEST PUSH1 0x0 DUP1 PUSH1 0x40 DUP4 DUP6 SUB SLT ISZERO PUSH2 0x20A4 JUMPI PUSH1 0x0 DUP1 REVERT JUMPDEST DUP3 CALLDATALOAD SWAP2 POP PUSH2 0x20B4 PUSH1 0x20 DUP5 ADD PUSH2 0x1C7E JUMP JUMPDEST SWAP1 POP SWAP3 POP SWAP3 SWAP1 POP JUMP JUMPDEST PUSH1 0x0 DUP1 PUSH1 0x40 DUP4 DUP6 SUB SLT ISZERO PUSH2 0x20D0 JUMPI PUSH1 0x0 DUP1 REVERT JUMPDEST DUP3 CALLDATALOAD SWAP2 POP PUSH2 0x20B4 PUSH1 0x20 DUP5 ADD PUSH2 0x1E52 JUMP JUMPDEST PUSH1 0x0 DUP1 PUSH1 0x0 DUP1 PUSH1 0x60 DUP6 DUP8 SUB SLT ISZERO PUSH2 0x20F6 JUMPI PUSH1 0x0 DUP1 REVERT JUMPDEST DUP5 CALLDATALOAD SWAP4 POP PUSH2 0x2106 PUSH1 0x20 DUP7 ADD PUSH2 0x1E52 JUMP JUMPDEST SWAP3 POP PUSH1 0x40 DUP6 ADD CALLDATALOAD PUSH1 0x1 PUSH1 0x1 PUSH1 0x40 SHL SUB DUP2 GT ISZERO PUSH2 0x1ECE JUMPI PUSH1 0x0 DUP1 REVERT JUMPDEST PUSH1 0x0 DUP1 PUSH1 0x0 DUP1 PUSH1 0x0 PUSH1 0xA0 DUP7 DUP9 SUB SLT ISZERO PUSH2 0x2139 JUMPI PUSH1 0x0 DUP1 REVERT JUMPDEST DUP6 CALLDATALOAD SWAP5 POP PUSH2 0x2149 PUSH1 0x20 DUP8 ADD PUSH2 0x1E52 JUMP JUMPDEST SWAP4 POP PUSH2 0x2157 PUSH1 0x40 DUP8 ADD PUSH2 0x1E52 JUMP JUMPDEST SWAP5 SWAP8 SWAP4 SWAP7 POP SWAP4 SWAP5 PUSH1 0x60 DUP2 ADD CALLDATALOAD SWAP5 POP PUSH1 0x80 ADD CALLDATALOAD SWAP3 SWAP2 POP POP JUMP JUMPDEST PUSH1 0x0 PUSH1 0x20 DUP3 DUP5 SUB SLT ISZERO PUSH2 0x2181 JUMPI PUSH1 0x0 DUP1 REVERT JUMPDEST DUP2 CALLDATALOAD PUSH1 0x1 PUSH1 0x1 PUSH1 0x40 SHL SUB DUP2 AND DUP2 EQ PUSH2 0xEE8 JUMPI PUSH1 0x0 DUP1 REVERT JUMPDEST PUSH1 0x0 DUP2 MLOAD DUP1 DUP5 MSTORE PUSH1 0x20 DUP1 DUP6 ADD SWAP5 POP DUP1 DUP5 ADD PUSH1 0x0 JUMPDEST DUP4 DUP2 LT ISZERO PUSH2 0x21D1 JUMPI DUP2 MLOAD PUSH1 0x1 PUSH1 0x1 PUSH1 0xA0 SHL SUB AND DUP8 MSTORE SWAP6 DUP3 ADD SWAP6 SWAP1 DUP3 ADD SWAP1 PUSH1 0x1 ADD PUSH2 0x21AC JUMP JUMPDEST POP SWAP5 SWAP6 SWAP5 POP POP POP POP POP JUMP JUMPDEST PUSH1 0x0 DUP2 MLOAD DUP1 DUP5 MSTORE PUSH1 0x20 DUP1 DUP6 ADD DUP1 DUP2 SWAP7 POP DUP4 PUSH1 0x5 SHL DUP2 ADD SWAP2 POP DUP3 DUP7 ADD PUSH1 0x0 JUMPDEST DUP6 DUP2 LT ISZERO PUSH2 0x2224 JUMPI DUP3 DUP5 SUB DUP10 MSTORE PUSH2 0x2212 DUP5 DUP4 MLOAD PUSH2 0x2261 JUMP JUMPDEST SWAP9 DUP6 ADD SWAP9 SWAP4 POP SWAP1 DUP5 ADD SWAP1 PUSH1 0x1 ADD PUSH2 0x21FA JUMP JUMPDEST POP SWAP2 SWAP8 SWAP7 POP POP POP POP POP POP POP JUMP JUMPDEST PUSH1 0x0 DUP2 MLOAD DUP1 DUP5 MSTORE PUSH1 0x20 DUP1 DUP6 ADD SWAP5 POP DUP1 DUP5 ADD PUSH1 0x0 JUMPDEST DUP4 DUP2 LT ISZERO PUSH2 0x21D1 JUMPI DUP2 MLOAD DUP8 MSTORE SWAP6 DUP3 ADD SWAP6 SWAP1 DUP3 ADD SWAP1 PUSH1 0x1 ADD PUSH2 0x2245 JUMP JUMPDEST PUSH1 0x0 DUP2 MLOAD DUP1 DUP5 MSTORE PUSH2 0x2279 DUP2 PUSH1 0x20 DUP7 ADD PUSH1 0x20 DUP7 ADD PUSH2 0x256B JUMP JUMPDEST PUSH1 0x1F ADD PUSH1 0x1F NOT AND SWAP3 SWAP1 SWAP3 ADD PUSH1 0x20 ADD SWAP3 SWAP2 POP POP JUMP JUMPDEST PUSH1 0x0 DUP3 MLOAD PUSH2 0x229F DUP2 DUP5 PUSH1 0x20 DUP8 ADD PUSH2 0x256B JUMP JUMPDEST SWAP2 SWAP1 SWAP2 ADD SWAP3 SWAP2 POP POP JUMP JUMPDEST PUSH1 0x80 DUP2 MSTORE PUSH1 0x0 PUSH2 0x22BC PUSH1 0x80 DUP4 ADD DUP8 PUSH2 0x2198 JUMP JUMPDEST DUP3 DUP2 SUB PUSH1 0x20 DUP5 ADD MSTORE PUSH2 0x22CE DUP2 DUP8 PUSH2 0x2231 JUMP JUMPDEST SWAP1 POP DUP3 DUP2 SUB PUSH1 0x40 DUP5 ADD MSTORE PUSH2 0x22E2 DUP2 DUP7 PUSH2 0x21DC JUMP JUMPDEST SWAP2 POP POP DUP3 PUSH1 0x60 DUP4 ADD MSTORE SWAP6 SWAP5 POP POP POP POP POP JUMP JUMPDEST PUSH1 0x20 DUP2 ADD PUSH1 0x8 DUP4 LT PUSH2 0x2316 JUMPI PUSH4 0x4E487B71 PUSH1 0xE0 SHL PUSH1 0x0 MSTORE PUSH1 0x21 PUSH1 0x4 MSTORE PUSH1 0x24 PUSH1 0x0 REVERT JUMPDEST SWAP2 SWAP1 MSTORE SWAP1 JUMP JUMPDEST PUSH1 0x20 DUP2 MSTORE PUSH1 0x0 PUSH2 0xEE8 PUSH1 0x20 DUP4 ADD DUP5 PUSH2 0x2261 JUMP JUMPDEST PUSH1 0x20 DUP1 DUP3 MSTORE PUSH1 0x18 SWAP1 DUP3 ADD MSTORE PUSH32 0x476F7665726E6F723A206F6E6C79476F7665726E616E63650000000000000000 PUSH1 0x40 DUP3 ADD MSTORE PUSH1 0x60 ADD SWAP1 JUMP JUMPDEST PUSH1 0x20 DUP1 DUP3 MSTORE PUSH1 0x21 SWAP1 DUP3 ADD MSTORE PUSH32 0x476F7665726E6F723A20696E76616C69642070726F706F73616C206C656E6774 PUSH1 0x40 DUP3 ADD MSTORE PUSH1 0xD PUSH1 0xFB SHL PUSH1 0x60 DUP3 ADD MSTORE PUSH1 0x80 ADD SWAP1 JUMP JUMPDEST PUSH1 0x0 PUSH2 0x120 DUP12 DUP4 MSTORE PUSH1 0x20 PUSH1 0x1 DUP1 PUSH1 0xA0 SHL SUB DUP13 AND DUP2 DUP6 ADD MSTORE DUP2 PUSH1 0x40 DUP6 ADD MSTORE PUSH2 0x23D0 DUP3 DUP6 ADD DUP13 PUSH2 0x2198 JUMP JUMPDEST SWAP2 POP DUP4 DUP3 SUB PUSH1 0x60 DUP6 ADD MSTORE PUSH2 0x23E4 DUP3 DUP12 PUSH2 0x2231 JUMP JUMPDEST SWAP2 POP DUP4 DUP3 SUB PUSH1 0x80 DUP6 ADD MSTORE DUP2 DUP10 MLOAD DUP1 DUP5 MSTORE DUP3 DUP5 ADD SWAP2 POP DUP3 DUP2 PUSH1 0x5 SHL DUP6 ADD ADD DUP4 DUP13 ADD PUSH1 0x0 JUMPDEST DUP4 DUP2 LT ISZERO PUSH2 0x2435 JUMPI PUSH1 0x1F NOT DUP8 DUP5 SUB ADD DUP6 MSTORE PUSH2 0x2423 DUP4 DUP4 MLOAD PUSH2 0x2261 JUMP JUMPDEST SWAP5 DUP7 ADD SWAP5 SWAP3 POP SWAP1 DUP6 ADD SWAP1 PUSH1 0x1 ADD PUSH2 0x2407 JUMP JUMPDEST POP POP DUP7 DUP2 SUB PUSH1 0xA0 DUP9 ADD MSTORE PUSH2 0x2449 DUP2 DUP13 PUSH2 0x21DC JUMP JUMPDEST SWAP5 POP POP POP POP POP PUSH2 0x2464 PUSH1 0xC0 DUP5 ADD DUP8 PUSH1 0x1 PUSH1 0x1 PUSH1 0x40 SHL SUB AND SWAP1 MSTORE JUMP JUMPDEST PUSH1 0x1 PUSH1 0x1 PUSH1 0x40 SHL SUB DUP6 AND PUSH1 0xE0 DUP5 ADD MSTORE DUP3 DUP2 SUB PUSH2 0x100 DUP5 ADD MSTORE PUSH2 0x2486 DUP2 DUP6 PUSH2 0x2261 JUMP JUMPDEST SWAP13 SWAP12 POP POP POP POP POP POP POP POP POP POP POP POP JUMP JUMPDEST DUP5 DUP2 MSTORE PUSH1 0xFF DUP5 AND PUSH1 0x20 DUP3 ADD MSTORE DUP3 PUSH1 0x40 DUP3 ADD MSTORE PUSH1 0x80 PUSH1 0x60 DUP3 ADD MSTORE PUSH1 0x0 PUSH2 0xA70 PUSH1 0x80 DUP4 ADD DUP5 PUSH2 0x2261 JUMP JUMPDEST PUSH1 0x40 MLOAD PUSH1 0x1F DUP3 ADD PUSH1 0x1F NOT AND DUP2 ADD PUSH1 0x1 PUSH1 0x1 PUSH1 0x40 SHL SUB DUP2 GT DUP3 DUP3 LT OR ISZERO PUSH2 0x24E6 JUMPI PUSH2 0x24E6 PUSH2 0x2633 JUMP JUMPDEST PUSH1 0x40 MSTORE SWAP2 SWAP1 POP JUMP JUMPDEST PUSH1 0x0 PUSH1 0x1 PUSH1 0x1 PUSH1 0x40 SHL SUB DUP3 GT ISZERO PUSH2 0x2507 JUMPI PUSH2 0x2507 PUSH2 0x2633 JUMP JUMPDEST POP PUSH1 0x5 SHL PUSH1 0x20 ADD SWAP1 JUMP JUMPDEST PUSH1 0x0 DUP3 NOT DUP3 GT ISZERO PUSH2 0x2524 JUMPI PUSH2 0x2524 PUSH2 0x25F1 JUMP JUMPDEST POP ADD SWAP1 JUMP JUMPDEST PUSH1 0x0 PUSH1 0x1 PUSH1 0x1 PUSH1 0x40 SHL SUB DUP1 DUP4 AND DUP2 DUP6 AND DUP1 DUP4 SUB DUP3 GT ISZERO PUSH2 0x254B JUMPI PUSH2 0x254B PUSH2 0x25F1 JUMP JUMPDEST ADD SWAP5 SWAP4 POP POP POP POP JUMP JUMPDEST PUSH1 0x0 DUP3 DUP3 LT ISZERO PUSH2 0x2566 JUMPI PUSH2 0x2566 PUSH2 0x25F1 JUMP JUMPDEST POP SUB SWAP1 JUMP JUMPDEST PUSH1 0x0 JUMPDEST DUP4 DUP2 LT ISZERO PUSH2 0x2586 JUMPI DUP2 DUP2 ADD MLOAD DUP4 DUP3 ADD MSTORE PUSH1 0x20 ADD PUSH2 0x256E JUMP JUMPDEST DUP4 DUP2 GT ISZERO PUSH2 0x2595 JUMPI PUSH1 0x0 DUP5 DUP5 ADD MSTORE JUMPDEST POP POP POP POP JUMP JUMPDEST PUSH1 0x1 DUP2 DUP2 SHR SWAP1 DUP3 AND DUP1 PUSH2 0x25AF JUMPI PUSH1 0x7F DUP3 AND SWAP2 POP JUMPDEST PUSH1 0x20 DUP3 LT DUP2 EQ ISZERO PUSH2 0x25D0 JUMPI PUSH4 0x4E487B71 PUSH1 0xE0 SHL PUSH1 0x0 MSTORE PUSH1 0x22 PUSH1 0x4 MSTORE PUSH1 0x24 PUSH1 0x0 REVERT JUMPDEST POP SWAP2 SWAP1 POP JUMP JUMPDEST PUSH1 0x0 PUSH1 0x0 NOT DUP3 EQ ISZERO PUSH2 0x25EA JUMPI PUSH2 0x25EA PUSH2 0x25F1 JUMP JUMPDEST POP PUSH1 0x1 ADD SWAP1 JUMP JUMPDEST PUSH4 0x4E487B71 PUSH1 0xE0 SHL PUSH1 0x0 MSTORE PUSH1 0x11 PUSH1 0x4 MSTORE PUSH1 0x24 PUSH1 0x0 REVERT JUMPDEST PUSH4 0x4E487B71 PUSH1 0xE0 SHL PUSH1 0x0 MSTORE PUSH1 0x21 PUSH1 0x4 MSTORE PUSH1 0x24 PUSH1 0x0 REVERT JUMPDEST PUSH4 0x4E487B71 PUSH1 0xE0 SHL PUSH1 0x0 MSTORE PUSH1 0x32 PUSH1 0x4 MSTORE PUSH1 0x24 PUSH1 0x0 REVERT JUMPDEST PUSH4 0x4E487B71 PUSH1 0xE0 SHL PUSH1 0x0 MSTORE PUSH1 0x41 PUSH1 0x4 MSTORE PUSH1 0x24 PUSH1 0x0 REVERT INVALID SELFBALANCE PUSH16 0x7665726E6F723A2063616C6C20726576 PUSH6 0x727465642077 PUSH10 0x74686F7574206D657373 PUSH2 0x6765 COINBASE PUSH5 0x6472657373 GASPRICE KECCAK256 PUSH13 0x6F772D6C6576656C2063616C6C KECCAK256 PUSH24 0x6974682076616C7565206661696C6564A264697066735822 SLT KECCAK256 PUSH7 0x98B44159BC4F56 0x5F DUP9 0xCD PUSH21 0xAD5B56B6E0903D3958B814B859135EAEA1AFC1A664 PUSH20 0x6F6C634300080600330000000000000000000000 ",
  "sha1": "31ef035c81c764c8098b08d04b3396a12d0c013f",
  "source": "// SPDX-License-Identifier: MIT\n\npragma solidity ^0.8.0;\n\nimport \"../governance/extensions/GovernorPreventLateQuorum.sol\";\nimport \"../governance/extensions/GovernorSettings.sol\";\nimport \"../governance/extensions/GovernorCountingSimple.sol\";\nimport \"../governance/extensions/GovernorVotes.sol\";\n\ncontract GovernorPreventLateQuorumMock is\n    GovernorSettings,\n    GovernorVotes,\n    GovernorCountingSimple,\n    GovernorPreventLateQuorum\n{\n    uint256 private _quorum;\n\n    constructor(\n        string memory name_,\n        ERC20Votes token_,\n        uint256 votingDelay_,\n        uint256 votingPeriod_,\n        uint256 quorum_,\n        uint64 voteExtension_\n    )\n        Governor(name_)\n        GovernorSettings(votingDelay_, votingPeriod_, 0)\n        GovernorVotes(token_)\n        GovernorPreventLateQuorum(voteExtension_)\n    {\n        _quorum = quorum_;\n    }\n\n    function quorum(uint256) public view virtual override returns (uint256) {\n        return _quorum;\n    }\n\n    function proposalDeadline(uint256 proposalId)\n        public\n        view\n        virtual\n        override(Governor, GovernorPreventLateQuorum)\n        returns (uint256)\n    {\n        return super.proposalDeadline(proposalId);\n    }\n\n    function proposalThreshold() public view virtual override(Governor, GovernorSettings) returns (uint256) {\n        return super.proposalThreshold();\n    }\n\n    function _castVote(\n        uint256 proposalId,\n        address account,\n        uint8 support,\n        string memory reason\n    ) internal virtual override(Governor, GovernorPreventLateQuorum) returns (uint256) {\n        return super._castVote(proposalId, account, support, reason);\n    }\n}\n",
  "sourcePath": "contracts/OpenZepellin/contracts/mocks/GovernorPreventLateQuorumMock.sol",
  "type": "contract"
}