{
  "abi": [
    {
      "inputs": [
        {
          "internalType": "uint256",
          "name": "_number",
          "type": "uint256"
        }
      ],
      "name": "getValue",
      "outputs": [
        {
          "internalType": "uint256",
          "name": "",
          "type": "uint256"
        }
      ],
      "stateMutability": "view",
      "type": "function"
    },
    {
      "inputs": [],
      "name": "initialize",
      "outputs": [],
      "stateMutability": "nonpayable",
      "type": "function"
    },
    {
      "inputs": [
        {
          "internalType": "uint256",
          "name": "_number",
          "type": "uint256"
        }
      ],
      "name": "setValue",
      "outputs": [],
      "stateMutability": "nonpayable",
      "type": "function"
    }
  ],
  "bytecode": "608060405234801561001057600080fd5b506101ca806100206000396000f3fe608060405234801561001057600080fd5b50600436106100415760003560e01c80630ff4c91614610046578063552410771461006b5780638129fc1c14610080575b600080fd5b610059610054366004610155565b610088565b60405190815260200160405180910390f35b61007e610079366004610155565b600155565b005b61007e61009e565b600081600154610098919061016e565b92915050565b600054610100900460ff16806100b7575060005460ff16155b61011e5760405162461bcd60e51b815260206004820152602e60248201527f496e697469616c697a61626c653a20636f6e747261637420697320616c72656160448201526d191e481a5b9a5d1a585b1a5e995960921b606482015260840160405180910390fd5b600054610100900460ff16158015610140576000805461ffff19166101011790555b8015610152576000805461ff00191690555b50565b60006020828403121561016757600080fd5b5035919050565b6000821982111561018f57634e487b7160e01b600052601160045260246000fd5b50019056fea2646970667358221220a2dd0f91e8ad16e5ee4fb46b4187a914336c16868240d38dd138e27e0aee143c64736f6c63430008060033",
  "bytecodeSha1": "4ed75247c17725e65cfc02ecf7aad380ce325f57",
  "compiler": {
    "evm_version": "istanbul",
    "optimizer": {
      "enabled": true,
      "runs": 200
    },
    "version": "0.8.6+commit.11564f7e"
  },
  "contractName": "Implementation3",
  "language": "Solidity",
  "natspec": {
    "kind": "dev",
    "methods": {},
    "version": 1
  },
  "opcodes": "PUSH1 0x80 PUSH1 0x40 MSTORE CALLVALUE DUP1 ISZERO PUSH2 0x10 JUMPI PUSH1 0x0 DUP1 REVERT JUMPDEST POP PUSH1 0x4 CALLDATASIZE LT PUSH2 0x41 JUMPI PUSH1 0x0 CALLDATALOAD PUSH1 0xE0 SHR DUP1 PUSH4 0xFF4C916 EQ PUSH2 0x46 JUMPI DUP1 PUSH4 0x55241077 EQ PUSH2 0x6B JUMPI DUP1 PUSH4 0x8129FC1C EQ PUSH2 0x80 JUMPI JUMPDEST PUSH1 0x0 DUP1 REVERT JUMPDEST PUSH2 0x59 PUSH2 0x54 CALLDATASIZE PUSH1 0x4 PUSH2 0x155 JUMP JUMPDEST PUSH2 0x88 JUMP JUMPDEST PUSH1 0x40 MLOAD SWAP1 DUP2 MSTORE PUSH1 0x20 ADD PUSH1 0x40 MLOAD DUP1 SWAP2 SUB SWAP1 RETURN JUMPDEST PUSH2 0x7E PUSH2 0x79 CALLDATASIZE PUSH1 0x4 PUSH2 0x155 JUMP JUMPDEST PUSH1 0x1 SSTORE JUMP JUMPDEST STOP JUMPDEST PUSH2 0x7E PUSH2 0x9E JUMP JUMPDEST PUSH1 0x0 DUP2 PUSH1 0x1 SLOAD PUSH2 0x98 SWAP2 SWAP1 PUSH2 0x16E JUMP JUMPDEST SWAP3 SWAP2 POP POP JUMP JUMPDEST PUSH1 0x0 SLOAD PUSH2 0x100 SWAP1 DIV PUSH1 0xFF AND DUP1 PUSH2 0xB7 JUMPI POP PUSH1 0x0 SLOAD PUSH1 0xFF AND ISZERO JUMPDEST PUSH2 0x11E JUMPI PUSH1 0x40 MLOAD PUSH3 0x461BCD PUSH1 0xE5 SHL DUP2 MSTORE PUSH1 0x20 PUSH1 0x4 DUP3 ADD MSTORE PUSH1 0x2E PUSH1 0x24 DUP3 ADD MSTORE PUSH32 0x496E697469616C697A61626C653A20636F6E747261637420697320616C726561 PUSH1 0x44 DUP3 ADD MSTORE PUSH14 0x191E481A5B9A5D1A585B1A5E9959 PUSH1 0x92 SHL PUSH1 0x64 DUP3 ADD MSTORE PUSH1 0x84 ADD PUSH1 0x40 MLOAD DUP1 SWAP2 SUB SWAP1 REVERT JUMPDEST PUSH1 0x0 SLOAD PUSH2 0x100 SWAP1 DIV PUSH1 0xFF AND ISZERO DUP1 ISZERO PUSH2 0x140 JUMPI PUSH1 0x0 DUP1 SLOAD PUSH2 0xFFFF NOT AND PUSH2 0x101 OR SWAP1 SSTORE JUMPDEST DUP1 ISZERO PUSH2 0x152 JUMPI PUSH1 0x0 DUP1 SLOAD PUSH2 0xFF00 NOT AND SWAP1 SSTORE JUMPDEST POP JUMP JUMPDEST PUSH1 0x0 PUSH1 0x20 DUP3 DUP5 SUB SLT ISZERO PUSH2 0x167 JUMPI PUSH1 0x0 DUP1 REVERT JUMPDEST POP CALLDATALOAD SWAP2 SWAP1 POP JUMP JUMPDEST PUSH1 0x0 DUP3 NOT DUP3 GT ISZERO PUSH2 0x18F JUMPI PUSH4 0x4E487B71 PUSH1 0xE0 SHL PUSH1 0x0 MSTORE PUSH1 0x11 PUSH1 0x4 MSTORE PUSH1 0x24 PUSH1 0x0 REVERT JUMPDEST POP ADD SWAP1 JUMP INVALID LOG2 PUSH5 0x6970667358 0x22 SLT KECCAK256 LOG2 0xDD 0xF SWAP2 0xE8 0xAD AND 0xE5 0xEE 0x4F 0xB4 PUSH12 0x4187A914336C16868240D38D 0xD1 CODESIZE 0xE2 PUSH31 0xAEE143C64736F6C6343000806003300000000000000000000000000000000 ",
  "sha1": "f03d34b6140bedbdcf0e9429fa4e546e8d615ea7",
  "source": "// SPDX-License-Identifier: MIT\n\npragma solidity ^0.8.0;\n\nimport \"../proxy/utils/Initializable.sol\";\n\ncontract Implementation1 is Initializable {\n    uint256 internal _value;\n\n    function initialize() public initializer {}\n\n    function setValue(uint256 _number) public {\n        _value = _number;\n    }\n}\n\ncontract Implementation2 is Initializable {\n    uint256 internal _value;\n\n    function initialize() public initializer {}\n\n    function setValue(uint256 _number) public {\n        _value = _number;\n    }\n\n    function getValue() public view returns (uint256) {\n        return _value;\n    }\n}\n\ncontract Implementation3 is Initializable {\n    uint256 internal _value;\n\n    function initialize() public initializer {}\n\n    function setValue(uint256 _number) public {\n        _value = _number;\n    }\n\n    function getValue(uint256 _number) public view returns (uint256) {\n        return _value + _number;\n    }\n}\n\ncontract Implementation4 is Initializable {\n    uint256 internal _value;\n\n    function initialize() public initializer {}\n\n    function setValue(uint256 _number) public {\n        _value = _number;\n    }\n\n    function getValue() public view returns (uint256) {\n        return _value;\n    }\n\n    fallback() external {\n        _value = 1;\n    }\n}\n",
  "sourcePath": "contracts/OpenZepellin/contracts/mocks/RegressionImplementation.sol",
  "type": "contract"
}