{
  "abi": [
    {
      "inputs": [
        {
          "internalType": "int256",
          "name": "n",
          "type": "int256"
        }
      ],
      "name": "abs",
      "outputs": [
        {
          "internalType": "uint256",
          "name": "",
          "type": "uint256"
        }
      ],
      "stateMutability": "pure",
      "type": "function"
    },
    {
      "inputs": [
        {
          "internalType": "uint256",
          "name": "a",
          "type": "uint256"
        },
        {
          "internalType": "uint256",
          "name": "b",
          "type": "uint256"
        }
      ],
      "name": "average",
      "outputs": [
        {
          "internalType": "uint256",
          "name": "",
          "type": "uint256"
        }
      ],
      "stateMutability": "pure",
      "type": "function"
    },
    {
      "inputs": [
        {
          "internalType": "uint256",
          "name": "a",
          "type": "uint256"
        },
        {
          "internalType": "uint256",
          "name": "b",
          "type": "uint256"
        }
      ],
      "name": "ceilDiv",
      "outputs": [
        {
          "internalType": "uint256",
          "name": "",
          "type": "uint256"
        }
      ],
      "stateMutability": "pure",
      "type": "function"
    },
    {
      "inputs": [
        {
          "internalType": "uint256",
          "name": "a",
          "type": "uint256"
        },
        {
          "internalType": "uint256",
          "name": "b",
          "type": "uint256"
        }
      ],
      "name": "max",
      "outputs": [
        {
          "internalType": "uint256",
          "name": "",
          "type": "uint256"
        }
      ],
      "stateMutability": "pure",
      "type": "function"
    },
    {
      "inputs": [
        {
          "internalType": "uint256",
          "name": "a",
          "type": "uint256"
        },
        {
          "internalType": "uint256",
          "name": "b",
          "type": "uint256"
        }
      ],
      "name": "min",
      "outputs": [
        {
          "internalType": "uint256",
          "name": "",
          "type": "uint256"
        }
      ],
      "stateMutability": "pure",
      "type": "function"
    }
  ],
  "bytecode": "608060405234801561001057600080fd5b50610274806100206000396000f3fe608060405234801561001057600080fd5b50600436106100575760003560e01c80631b5ac4b51461005c5780632b7423ab146100815780636d5433e6146100945780637ae2b5c7146100a75780639cb35327146100ba575b600080fd5b61006f61006a36600461019f565b6100cd565b60405190815260200160405180910390f35b61006f61008f3660046101b8565b6100de565b61006f6100a23660046101b8565b6100f1565b61006f6100b53660046101b8565b6100fd565b61006f6100c83660046101b8565b610109565b60006100d882610115565b92915050565b60006100ea838361012c565b9392505050565b60006100ea8383610147565b60006100ea838361015e565b60006100ea838361016d565b60008082121561012857816000036100d8565b5090565b600061013b6002848418610200565b6100ea908484166101da565b60008183101561015757816100ea565b5090919050565b600081831061015757816100ea565b60006101798284610214565b15610185576001610188565b60005b60ff166101958385610200565b6100ea91906101da565b6000602082840312156101b157600080fd5b5035919050565b600080604083850312156101cb57600080fd5b50508035926020909101359150565b600082198211156101fb57634e487b7160e01b600052601160045260246000fd5b500190565b60008261020f5761020f610228565b500490565b60008261022357610223610228565b500690565b634e487b7160e01b600052601260045260246000fdfea26469706673582212207c7744fc318eb5487654192431eb088c2e1069cb45b1ef416261cb5b9da2e67664736f6c63430008060033",
  "bytecodeSha1": "d61bc153617adf655ceecfbcc140b44a5a78d368",
  "compiler": {
    "evm_version": "istanbul",
    "optimizer": {
      "enabled": true,
      "runs": 200
    },
    "version": "0.8.6+commit.11564f7e"
  },
  "contractName": "MathMock",
  "language": "Solidity",
  "natspec": {
    "kind": "dev",
    "methods": {},
    "version": 1
  },
  "opcodes": "PUSH1 0x80 PUSH1 0x40 MSTORE CALLVALUE DUP1 ISZERO PUSH2 0x10 JUMPI PUSH1 0x0 DUP1 REVERT JUMPDEST POP PUSH1 0x4 CALLDATASIZE LT PUSH2 0x57 JUMPI PUSH1 0x0 CALLDATALOAD PUSH1 0xE0 SHR DUP1 PUSH4 0x1B5AC4B5 EQ PUSH2 0x5C JUMPI DUP1 PUSH4 0x2B7423AB EQ PUSH2 0x81 JUMPI DUP1 PUSH4 0x6D5433E6 EQ PUSH2 0x94 JUMPI DUP1 PUSH4 0x7AE2B5C7 EQ PUSH2 0xA7 JUMPI DUP1 PUSH4 0x9CB35327 EQ PUSH2 0xBA JUMPI JUMPDEST PUSH1 0x0 DUP1 REVERT JUMPDEST PUSH2 0x6F PUSH2 0x6A CALLDATASIZE PUSH1 0x4 PUSH2 0x19F JUMP JUMPDEST PUSH2 0xCD JUMP JUMPDEST PUSH1 0x40 MLOAD SWAP1 DUP2 MSTORE PUSH1 0x20 ADD PUSH1 0x40 MLOAD DUP1 SWAP2 SUB SWAP1 RETURN JUMPDEST PUSH2 0x6F PUSH2 0x8F CALLDATASIZE PUSH1 0x4 PUSH2 0x1B8 JUMP JUMPDEST PUSH2 0xDE JUMP JUMPDEST PUSH2 0x6F PUSH2 0xA2 CALLDATASIZE PUSH1 0x4 PUSH2 0x1B8 JUMP JUMPDEST PUSH2 0xF1 JUMP JUMPDEST PUSH2 0x6F PUSH2 0xB5 CALLDATASIZE PUSH1 0x4 PUSH2 0x1B8 JUMP JUMPDEST PUSH2 0xFD JUMP JUMPDEST PUSH2 0x6F PUSH2 0xC8 CALLDATASIZE PUSH1 0x4 PUSH2 0x1B8 JUMP JUMPDEST PUSH2 0x109 JUMP JUMPDEST PUSH1 0x0 PUSH2 0xD8 DUP3 PUSH2 0x115 JUMP JUMPDEST SWAP3 SWAP2 POP POP JUMP JUMPDEST PUSH1 0x0 PUSH2 0xEA DUP4 DUP4 PUSH2 0x12C JUMP JUMPDEST SWAP4 SWAP3 POP POP POP JUMP JUMPDEST PUSH1 0x0 PUSH2 0xEA DUP4 DUP4 PUSH2 0x147 JUMP JUMPDEST PUSH1 0x0 PUSH2 0xEA DUP4 DUP4 PUSH2 0x15E JUMP JUMPDEST PUSH1 0x0 PUSH2 0xEA DUP4 DUP4 PUSH2 0x16D JUMP JUMPDEST PUSH1 0x0 DUP1 DUP3 SLT ISZERO PUSH2 0x128 JUMPI DUP2 PUSH1 0x0 SUB PUSH2 0xD8 JUMP JUMPDEST POP SWAP1 JUMP JUMPDEST PUSH1 0x0 PUSH2 0x13B PUSH1 0x2 DUP5 DUP5 XOR PUSH2 0x200 JUMP JUMPDEST PUSH2 0xEA SWAP1 DUP5 DUP5 AND PUSH2 0x1DA JUMP JUMPDEST PUSH1 0x0 DUP2 DUP4 LT ISZERO PUSH2 0x157 JUMPI DUP2 PUSH2 0xEA JUMP JUMPDEST POP SWAP1 SWAP2 SWAP1 POP JUMP JUMPDEST PUSH1 0x0 DUP2 DUP4 LT PUSH2 0x157 JUMPI DUP2 PUSH2 0xEA JUMP JUMPDEST PUSH1 0x0 PUSH2 0x179 DUP3 DUP5 PUSH2 0x214 JUMP JUMPDEST ISZERO PUSH2 0x185 JUMPI PUSH1 0x1 PUSH2 0x188 JUMP JUMPDEST PUSH1 0x0 JUMPDEST PUSH1 0xFF AND PUSH2 0x195 DUP4 DUP6 PUSH2 0x200 JUMP JUMPDEST PUSH2 0xEA SWAP2 SWAP1 PUSH2 0x1DA JUMP JUMPDEST PUSH1 0x0 PUSH1 0x20 DUP3 DUP5 SUB SLT ISZERO PUSH2 0x1B1 JUMPI PUSH1 0x0 DUP1 REVERT JUMPDEST POP CALLDATALOAD SWAP2 SWAP1 POP JUMP JUMPDEST PUSH1 0x0 DUP1 PUSH1 0x40 DUP4 DUP6 SUB SLT ISZERO PUSH2 0x1CB JUMPI PUSH1 0x0 DUP1 REVERT JUMPDEST POP POP DUP1 CALLDATALOAD SWAP3 PUSH1 0x20 SWAP1 SWAP2 ADD CALLDATALOAD SWAP2 POP JUMP JUMPDEST PUSH1 0x0 DUP3 NOT DUP3 GT ISZERO PUSH2 0x1FB JUMPI PUSH4 0x4E487B71 PUSH1 0xE0 SHL PUSH1 0x0 MSTORE PUSH1 0x11 PUSH1 0x4 MSTORE PUSH1 0x24 PUSH1 0x0 REVERT JUMPDEST POP ADD SWAP1 JUMP JUMPDEST PUSH1 0x0 DUP3 PUSH2 0x20F JUMPI PUSH2 0x20F PUSH2 0x228 JUMP JUMPDEST POP DIV SWAP1 JUMP JUMPDEST PUSH1 0x0 DUP3 PUSH2 0x223 JUMPI PUSH2 0x223 PUSH2 0x228 JUMP JUMPDEST POP MOD SWAP1 JUMP JUMPDEST PUSH4 0x4E487B71 PUSH1 0xE0 SHL PUSH1 0x0 MSTORE PUSH1 0x12 PUSH1 0x4 MSTORE PUSH1 0x24 PUSH1 0x0 REVERT INVALID LOG2 PUSH5 0x6970667358 0x22 SLT KECCAK256 PUSH29 0x7744FC318EB5487654192431EB088C2E1069CB45B1EF416261CB5B9DA2 0xE6 PUSH23 0x64736F6C63430008060033000000000000000000000000 ",
  "sha1": "50e674b892b0eca2726d8094c35e4e794692f08f",
  "source": "// SPDX-License-Identifier: MIT\n\npragma solidity ^0.8.0;\n\nimport \"../utils/math/Math.sol\";\n\ncontract MathMock {\n    function max(uint256 a, uint256 b) public pure returns (uint256) {\n        return Math.max(a, b);\n    }\n\n    function min(uint256 a, uint256 b) public pure returns (uint256) {\n        return Math.min(a, b);\n    }\n\n    function average(uint256 a, uint256 b) public pure returns (uint256) {\n        return Math.average(a, b);\n    }\n\n    function ceilDiv(uint256 a, uint256 b) public pure returns (uint256) {\n        return Math.ceilDiv(a, b);\n    }\n\n    function abs(int256 n) public pure returns (uint256) {\n        return Math.abs(n);\n    }\n}\n",
  "sourcePath": "contracts/OpenZepellin/contracts/mocks/MathMock.sol",
  "type": "contract"
}