{
  "abi": [
    {
      "inputs": [
        {
          "internalType": "uint256",
          "name": "value",
          "type": "uint256"
        }
      ],
      "name": "initialize",
      "outputs": [],
      "stateMutability": "payable",
      "type": "function"
    },
    {
      "inputs": [
        {
          "internalType": "uint256",
          "name": "value",
          "type": "uint256"
        },
        {
          "internalType": "uint256",
          "name": "anotherValue",
          "type": "uint256"
        }
      ],
      "name": "migrate",
      "outputs": [],
      "stateMutability": "payable",
      "type": "function"
    },
    {
      "inputs": [],
      "name": "migrate",
      "outputs": [],
      "stateMutability": "payable",
      "type": "function"
    },
    {
      "inputs": [],
      "name": "x",
      "outputs": [
        {
          "internalType": "uint256",
          "name": "",
          "type": "uint256"
        }
      ],
      "stateMutability": "view",
      "type": "function"
    },
    {
      "inputs": [],
      "name": "y",
      "outputs": [
        {
          "internalType": "uint256",
          "name": "",
          "type": "uint256"
        }
      ],
      "stateMutability": "view",
      "type": "function"
    }
  ],
  "bytecode": "608060405234801561001057600080fd5b5061023c806100206000396000f3fe60806040526004361061004a5760003560e01c80630c55699c1461004f5780633e54bacb146100775780638fd3ab801461008c578063a56dfe4a14610094578063fe4b84df146100aa575b600080fd5b34801561005b57600080fd5b5061006560015481565b60405190815260200160405180910390f35b61008a6100853660046101e4565b6100bd565b005b61008a6100e4565b3480156100a057600080fd5b5061006560035481565b61008a6100b83660046101cb565b61010e565b60025460ff16156100cd57600080fd5b60019182556003556002805460ff19169091179055565b60045460ff16156100f457600080fd5b60018054600380548355556004805460ff19169091179055565b600054610100900460ff1680610127575060005460ff16155b61018e5760405162461bcd60e51b815260206004820152602e60248201527f496e697469616c697a61626c653a20636f6e747261637420697320616c72656160448201526d191e481a5b9a5d1a585b1a5e995960921b606482015260840160405180910390fd5b600054610100900460ff161580156101b0576000805461ffff19166101011790555b600182905580156101c7576000805461ff00191690555b5050565b6000602082840312156101dd57600080fd5b5035919050565b600080604083850312156101f757600080fd5b5050803592602090910135915056fea2646970667358221220f4cffbceee641b1ae664671b899fb1d7dd11dd230be11fc3c52fbda65a4604fb64736f6c63430008060033",
  "bytecodeSha1": "816496f8fdf7c38b30e353a4845f89d583eb867a",
  "compiler": {
    "evm_version": "istanbul",
    "optimizer": {
      "enabled": true,
      "runs": 200
    },
    "version": "0.8.6+commit.11564f7e"
  },
  "contractName": "MigratableMockV3",
  "language": "Solidity",
  "natspec": {
    "details": "This contract is a mock to test migratable functionality without params",
    "kind": "dev",
    "methods": {},
    "title": "MigratableMockV3",
    "version": 1
  },
  "opcodes": "PUSH1 0x80 PUSH1 0x40 MSTORE PUSH1 0x4 CALLDATASIZE LT PUSH2 0x4A JUMPI PUSH1 0x0 CALLDATALOAD PUSH1 0xE0 SHR DUP1 PUSH4 0xC55699C EQ PUSH2 0x4F JUMPI DUP1 PUSH4 0x3E54BACB EQ PUSH2 0x77 JUMPI DUP1 PUSH4 0x8FD3AB80 EQ PUSH2 0x8C JUMPI DUP1 PUSH4 0xA56DFE4A EQ PUSH2 0x94 JUMPI DUP1 PUSH4 0xFE4B84DF EQ PUSH2 0xAA JUMPI JUMPDEST PUSH1 0x0 DUP1 REVERT JUMPDEST CALLVALUE DUP1 ISZERO PUSH2 0x5B JUMPI PUSH1 0x0 DUP1 REVERT JUMPDEST POP PUSH2 0x65 PUSH1 0x1 SLOAD DUP2 JUMP JUMPDEST PUSH1 0x40 MLOAD SWAP1 DUP2 MSTORE PUSH1 0x20 ADD PUSH1 0x40 MLOAD DUP1 SWAP2 SUB SWAP1 RETURN JUMPDEST PUSH2 0x8A PUSH2 0x85 CALLDATASIZE PUSH1 0x4 PUSH2 0x1E4 JUMP JUMPDEST PUSH2 0xBD JUMP JUMPDEST STOP JUMPDEST PUSH2 0x8A PUSH2 0xE4 JUMP JUMPDEST CALLVALUE DUP1 ISZERO PUSH2 0xA0 JUMPI PUSH1 0x0 DUP1 REVERT JUMPDEST POP PUSH2 0x65 PUSH1 0x3 SLOAD DUP2 JUMP JUMPDEST PUSH2 0x8A PUSH2 0xB8 CALLDATASIZE PUSH1 0x4 PUSH2 0x1CB JUMP JUMPDEST PUSH2 0x10E JUMP JUMPDEST PUSH1 0x2 SLOAD PUSH1 0xFF AND ISZERO PUSH2 0xCD JUMPI PUSH1 0x0 DUP1 REVERT JUMPDEST PUSH1 0x1 SWAP2 DUP3 SSTORE PUSH1 0x3 SSTORE PUSH1 0x2 DUP1 SLOAD PUSH1 0xFF NOT AND SWAP1 SWAP2 OR SWAP1 SSTORE JUMP JUMPDEST PUSH1 0x4 SLOAD PUSH1 0xFF AND ISZERO PUSH2 0xF4 JUMPI PUSH1 0x0 DUP1 REVERT JUMPDEST PUSH1 0x1 DUP1 SLOAD PUSH1 0x3 DUP1 SLOAD DUP4 SSTORE SSTORE PUSH1 0x4 DUP1 SLOAD PUSH1 0xFF NOT AND SWAP1 SWAP2 OR SWAP1 SSTORE JUMP JUMPDEST PUSH1 0x0 SLOAD PUSH2 0x100 SWAP1 DIV PUSH1 0xFF AND DUP1 PUSH2 0x127 JUMPI POP PUSH1 0x0 SLOAD PUSH1 0xFF AND ISZERO JUMPDEST PUSH2 0x18E JUMPI PUSH1 0x40 MLOAD PUSH3 0x461BCD PUSH1 0xE5 SHL DUP2 MSTORE PUSH1 0x20 PUSH1 0x4 DUP3 ADD MSTORE PUSH1 0x2E PUSH1 0x24 DUP3 ADD MSTORE PUSH32 0x496E697469616C697A61626C653A20636F6E747261637420697320616C726561 PUSH1 0x44 DUP3 ADD MSTORE PUSH14 0x191E481A5B9A5D1A585B1A5E9959 PUSH1 0x92 SHL PUSH1 0x64 DUP3 ADD MSTORE PUSH1 0x84 ADD PUSH1 0x40 MLOAD DUP1 SWAP2 SUB SWAP1 REVERT JUMPDEST PUSH1 0x0 SLOAD PUSH2 0x100 SWAP1 DIV PUSH1 0xFF AND ISZERO DUP1 ISZERO PUSH2 0x1B0 JUMPI PUSH1 0x0 DUP1 SLOAD PUSH2 0xFFFF NOT AND PUSH2 0x101 OR SWAP1 SSTORE JUMPDEST PUSH1 0x1 DUP3 SWAP1 SSTORE DUP1 ISZERO PUSH2 0x1C7 JUMPI PUSH1 0x0 DUP1 SLOAD PUSH2 0xFF00 NOT AND SWAP1 SSTORE JUMPDEST POP POP JUMP JUMPDEST PUSH1 0x0 PUSH1 0x20 DUP3 DUP5 SUB SLT ISZERO PUSH2 0x1DD JUMPI PUSH1 0x0 DUP1 REVERT JUMPDEST POP CALLDATALOAD SWAP2 SWAP1 POP JUMP JUMPDEST PUSH1 0x0 DUP1 PUSH1 0x40 DUP4 DUP6 SUB SLT ISZERO PUSH2 0x1F7 JUMPI PUSH1 0x0 DUP1 REVERT JUMPDEST POP POP DUP1 CALLDATALOAD SWAP3 PUSH1 0x20 SWAP1 SWAP2 ADD CALLDATALOAD SWAP2 POP JUMP INVALID LOG2 PUSH5 0x6970667358 0x22 SLT KECCAK256 DELEGATECALL 0xCF 0xFB 0xCE 0xEE PUSH5 0x1B1AE66467 SHL DUP10 SWAP16 0xB1 0xD7 0xDD GT 0xDD 0x23 SIGNEXTEND 0xE1 0x1F 0xC3 0xC5 0x2F 0xBD 0xA6 GAS CHAINID DIV 0xFB PUSH5 0x736F6C6343 STOP ADDMOD MOD STOP CALLER ",
  "sha1": "cddf6f8075a4690819e13422616a1f61eeb64b20",
  "source": "// SPDX-License-Identifier: MIT\n\npragma solidity ^0.8.0;\n\nimport \"../proxy/utils/Initializable.sol\";\n\n/**\n * @title MigratableMockV1\n * @dev This contract is a mock to test initializable functionality through migrations\n */\ncontract MigratableMockV1 is Initializable {\n    uint256 public x;\n\n    function initialize(uint256 value) public payable initializer {\n        x = value;\n    }\n}\n\n/**\n * @title MigratableMockV2\n * @dev This contract is a mock to test migratable functionality with params\n */\ncontract MigratableMockV2 is MigratableMockV1 {\n    bool internal _migratedV2;\n    uint256 public y;\n\n    function migrate(uint256 value, uint256 anotherValue) public payable {\n        require(!_migratedV2);\n        x = value;\n        y = anotherValue;\n        _migratedV2 = true;\n    }\n}\n\n/**\n * @title MigratableMockV3\n * @dev This contract is a mock to test migratable functionality without params\n */\ncontract MigratableMockV3 is MigratableMockV2 {\n    bool internal _migratedV3;\n\n    function migrate() public payable {\n        require(!_migratedV3);\n        uint256 oldX = x;\n        x = y;\n        y = oldX;\n        _migratedV3 = true;\n    }\n}\n",
  "sourcePath": "contracts/OpenZepellin/contracts/mocks/SingleInheritanceInitializableMocks.sol",
  "type": "contract"
}