{
  "abi": [
    {
      "inputs": [
        {
          "internalType": "address[]",
          "name": "payees",
          "type": "address[]"
        },
        {
          "internalType": "uint256[]",
          "name": "shares_",
          "type": "uint256[]"
        }
      ],
      "stateMutability": "payable",
      "type": "constructor"
    },
    {
      "anonymous": false,
      "inputs": [
        {
          "indexed": true,
          "internalType": "contract IERC20",
          "name": "token",
          "type": "address"
        },
        {
          "indexed": false,
          "internalType": "address",
          "name": "to",
          "type": "address"
        },
        {
          "indexed": false,
          "internalType": "uint256",
          "name": "amount",
          "type": "uint256"
        }
      ],
      "name": "ERC20PaymentReleased",
      "type": "event"
    },
    {
      "anonymous": false,
      "inputs": [
        {
          "indexed": false,
          "internalType": "address",
          "name": "account",
          "type": "address"
        },
        {
          "indexed": false,
          "internalType": "uint256",
          "name": "shares",
          "type": "uint256"
        }
      ],
      "name": "PayeeAdded",
      "type": "event"
    },
    {
      "anonymous": false,
      "inputs": [
        {
          "indexed": false,
          "internalType": "address",
          "name": "from",
          "type": "address"
        },
        {
          "indexed": false,
          "internalType": "uint256",
          "name": "amount",
          "type": "uint256"
        }
      ],
      "name": "PaymentReceived",
      "type": "event"
    },
    {
      "anonymous": false,
      "inputs": [
        {
          "indexed": false,
          "internalType": "address",
          "name": "to",
          "type": "address"
        },
        {
          "indexed": false,
          "internalType": "uint256",
          "name": "amount",
          "type": "uint256"
        }
      ],
      "name": "PaymentReleased",
      "type": "event"
    },
    {
      "inputs": [
        {
          "internalType": "uint256",
          "name": "index",
          "type": "uint256"
        }
      ],
      "name": "payee",
      "outputs": [
        {
          "internalType": "address",
          "name": "",
          "type": "address"
        }
      ],
      "stateMutability": "view",
      "type": "function"
    },
    {
      "inputs": [
        {
          "internalType": "address payable",
          "name": "account",
          "type": "address"
        }
      ],
      "name": "release",
      "outputs": [],
      "stateMutability": "nonpayable",
      "type": "function"
    },
    {
      "inputs": [
        {
          "internalType": "contract IERC20",
          "name": "token",
          "type": "address"
        },
        {
          "internalType": "address",
          "name": "account",
          "type": "address"
        }
      ],
      "name": "release",
      "outputs": [],
      "stateMutability": "nonpayable",
      "type": "function"
    },
    {
      "inputs": [
        {
          "internalType": "contract IERC20",
          "name": "token",
          "type": "address"
        },
        {
          "internalType": "address",
          "name": "account",
          "type": "address"
        }
      ],
      "name": "released",
      "outputs": [
        {
          "internalType": "uint256",
          "name": "",
          "type": "uint256"
        }
      ],
      "stateMutability": "view",
      "type": "function"
    },
    {
      "inputs": [
        {
          "internalType": "address",
          "name": "account",
          "type": "address"
        }
      ],
      "name": "released",
      "outputs": [
        {
          "internalType": "uint256",
          "name": "",
          "type": "uint256"
        }
      ],
      "stateMutability": "view",
      "type": "function"
    },
    {
      "inputs": [
        {
          "internalType": "address",
          "name": "account",
          "type": "address"
        }
      ],
      "name": "shares",
      "outputs": [
        {
          "internalType": "uint256",
          "name": "",
          "type": "uint256"
        }
      ],
      "stateMutability": "view",
      "type": "function"
    },
    {
      "inputs": [
        {
          "internalType": "contract IERC20",
          "name": "token",
          "type": "address"
        }
      ],
      "name": "totalReleased",
      "outputs": [
        {
          "internalType": "uint256",
          "name": "",
          "type": "uint256"
        }
      ],
      "stateMutability": "view",
      "type": "function"
    },
    {
      "inputs": [],
      "name": "totalReleased",
      "outputs": [
        {
          "internalType": "uint256",
          "name": "",
          "type": "uint256"
        }
      ],
      "stateMutability": "view",
      "type": "function"
    },
    {
      "inputs": [],
      "name": "totalShares",
      "outputs": [
        {
          "internalType": "uint256",
          "name": "",
          "type": "uint256"
        }
      ],
      "stateMutability": "view",
      "type": "function"
    },
    {
      "stateMutability": "payable",
      "type": "receive"
    }
  ],
  "bytecode": "60806040526040516200116f3803806200116f8339810160408190526200002691620003c6565b8051825114620000985760405162461bcd60e51b815260206004820152603260248201527f5061796d656e7453706c69747465723a2070617965657320616e6420736861726044820152710cae640d8cadccee8d040dad2e6dac2e8c6d60731b60648201526084015b60405180910390fd5b6000825111620000eb5760405162461bcd60e51b815260206004820152601a60248201527f5061796d656e7453706c69747465723a206e6f2070617965657300000000000060448201526064016200008f565b60005b825181101562000157576200014283828151811062000111576200011162000552565b60200260200101518383815181106200012e576200012e62000552565b60200260200101516200016060201b60201c565b806200014e816200051e565b915050620000ee565b5050506200057e565b6001600160a01b038216620001cd5760405162461bcd60e51b815260206004820152602c60248201527f5061796d656e7453706c69747465723a206163636f756e74206973207468652060448201526b7a65726f206164647265737360a01b60648201526084016200008f565b600081116200021f5760405162461bcd60e51b815260206004820152601d60248201527f5061796d656e7453706c69747465723a2073686172657320617265203000000060448201526064016200008f565b6001600160a01b038216600090815260026020526040902054156200029b5760405162461bcd60e51b815260206004820152602b60248201527f5061796d656e7453706c69747465723a206163636f756e7420616c726561647960448201526a206861732073686172657360a81b60648201526084016200008f565b60048054600181019091557f8a35acfbc15ff81a39ae7d344fd709f28e8600b4aa8c65c6b64bfe7fe36bd19b0180546001600160a01b0319166001600160a01b0384169081179091556000908152600260205260408120829055546200030390829062000503565b600055604080516001600160a01b0384168152602081018390527f40c340f65e17194d14ddddb073d3c9f888e3cb52b5aae0c6c7706b4fbc905fac910160405180910390a15050565b600082601f8301126200035e57600080fd5b81516020620003776200037183620004dd565b620004aa565b80838252828201915082860187848660051b89010111156200039857600080fd5b60005b85811015620003b9578151845292840192908401906001016200039b565b5090979650505050505050565b60008060408385031215620003da57600080fd5b82516001600160401b0380821115620003f257600080fd5b818501915085601f8301126200040757600080fd5b815160206200041a6200037183620004dd565b8083825282820191508286018a848660051b89010111156200043b57600080fd5b600096505b84871015620004765780516001600160a01b03811681146200046157600080fd5b83526001969096019591830191830162000440565b50918801519196509093505050808211156200049157600080fd5b50620004a0858286016200034c565b9150509250929050565b604051601f8201601f191681016001600160401b0381118282101715620004d557620004d562000568565b604052919050565b60006001600160401b03821115620004f957620004f962000568565b5060051b60200190565b600082198211156200051957620005196200053c565b500190565b60006000198214156200053557620005356200053c565b5060010190565b634e487b7160e01b600052601160045260246000fd5b634e487b7160e01b600052603260045260246000fd5b634e487b7160e01b600052604160045260246000fd5b610be1806200058e6000396000f3fe60806040526004361061008a5760003560e01c80638b83209b116100595780638b83209b146101845780639852595c146101bc578063ce7c2ac2146101f2578063d79779b214610228578063e33b7de31461025e57600080fd5b806319165587146100d85780633a98ef39146100fa578063406072a91461011e57806348b750441461016457600080fd5b366100d3577f6ef95f06320e7a25a04a175ca677b7052bdd97131872c2192525a629f51be77033604080516001600160a01b0390921682523460208301520160405180910390a1005b600080fd5b3480156100e457600080fd5b506100f86100f336600461093d565b610273565b005b34801561010657600080fd5b506000545b6040519081526020015b60405180910390f35b34801561012a57600080fd5b5061010b61013936600461097c565b6001600160a01b03918216600090815260066020908152604080832093909416825291909152205490565b34801561017057600080fd5b506100f861017f36600461097c565b6103aa565b34801561019057600080fd5b506101a461019f3660046109b5565b610592565b6040516001600160a01b039091168152602001610115565b3480156101c857600080fd5b5061010b6101d736600461093d565b6001600160a01b031660009081526003602052604090205490565b3480156101fe57600080fd5b5061010b61020d36600461093d565b6001600160a01b031660009081526002602052604090205490565b34801561023457600080fd5b5061010b61024336600461093d565b6001600160a01b031660009081526005602052604090205490565b34801561026a57600080fd5b5060015461010b565b6001600160a01b0381166000908152600260205260409020546102b15760405162461bcd60e51b81526004016102a890610a36565b60405180910390fd5b60006102bc60015490565b6102c69047610ac7565b905060006102f383836102ee866001600160a01b031660009081526003602052604090205490565b6105c2565b9050806103125760405162461bcd60e51b81526004016102a890610a7c565b6001600160a01b0383166000908152600360205260408120805483929061033a908490610ac7565b9250508190555080600160008282546103539190610ac7565b9091555061036390508382610607565b604080516001600160a01b0385168152602081018390527fdf20fd1e76bc69d672e4814fafb2c449bba3a5369d8359adf9e05e6fde87b056910160405180910390a1505050565b6001600160a01b0381166000908152600260205260409020546103df5760405162461bcd60e51b81526004016102a890610a36565b6001600160a01b0382166000908152600560205260408120546040516370a0823160e01b81523060048201526001600160a01b038516906370a082319060240160206040518083038186803b15801561043757600080fd5b505afa15801561044b573d6000803e3d6000fd5b505050506040513d601f19601f8201168201806040525081019061046f91906109ce565b6104799190610ac7565b905060006104b283836102ee87876001600160a01b03918216600090815260066020908152604080832093909416825291909152205490565b9050806104d15760405162461bcd60e51b81526004016102a890610a7c565b6001600160a01b03808516600090815260066020908152604080832093871683529290529081208054839290610508908490610ac7565b90915550506001600160a01b03841660009081526005602052604081208054839290610535908490610ac7565b909155506105469050848483610725565b604080516001600160a01b038581168252602082018490528616917f3be5b7a71e84ed12875d241991c70855ac5817d847039e17a9d895c1ceb0f18a910160405180910390a250505050565b6000600482815481106105a7576105a7610b7d565b6000918252602090912001546001600160a01b031692915050565b600080546001600160a01b0385168252600260205260408220548391906105e99086610b01565b6105f39190610adf565b6105fd9190610b20565b90505b9392505050565b804710156106575760405162461bcd60e51b815260206004820152601d60248201527f416464726573733a20696e73756666696369656e742062616c616e636500000060448201526064016102a8565b6000826001600160a01b03168260405160006040518083038185875af1925050503d80600081146106a4576040519150601f19603f3d011682016040523d82523d6000602084013e6106a9565b606091505b50509050806107205760405162461bcd60e51b815260206004820152603a60248201527f416464726573733a20756e61626c6520746f2073656e642076616c75652c207260448201527f6563697069656e74206d6179206861766520726576657274656400000000000060648201526084016102a8565b505050565b604080516001600160a01b03848116602483015260448083018590528351808403909101815260649092018352602080830180516001600160e01b031663a9059cbb60e01b17905283518085019094528084527f5361666545524332303a206c6f772d6c6576656c2063616c6c206661696c656490840152610720928692916000916107b5918516908490610832565b80519091501561072057808060200190518101906107d3919061095a565b6107205760405162461bcd60e51b815260206004820152602a60248201527f5361666545524332303a204552433230206f7065726174696f6e20646964206e6044820152691bdd081cdd58d8d9595960b21b60648201526084016102a8565b60606105fd848460008585843b61088b5760405162461bcd60e51b815260206004820152601d60248201527f416464726573733a2063616c6c20746f206e6f6e2d636f6e747261637400000060448201526064016102a8565b600080866001600160a01b031685876040516108a791906109e7565b60006040518083038185875af1925050503d80600081146108e4576040519150601f19603f3d011682016040523d82523d6000602084013e6108e9565b606091505b50915091506108f9828286610904565b979650505050505050565b60608315610913575081610600565b8251156109235782518084602001fd5b8160405162461bcd60e51b81526004016102a89190610a03565b60006020828403121561094f57600080fd5b813561060081610b93565b60006020828403121561096c57600080fd5b8151801515811461060057600080fd5b6000806040838503121561098f57600080fd5b823561099a81610b93565b915060208301356109aa81610b93565b809150509250929050565b6000602082840312156109c757600080fd5b5035919050565b6000602082840312156109e057600080fd5b5051919050565b600082516109f9818460208701610b37565b9190910192915050565b6020815260008251806020840152610a22816040850160208701610b37565b601f01601f19169190910160400192915050565b60208082526026908201527f5061796d656e7453706c69747465723a206163636f756e7420686173206e6f2060408201526573686172657360d01b606082015260800190565b6020808252602b908201527f5061796d656e7453706c69747465723a206163636f756e74206973206e6f742060408201526a191d59481c185e5b595b9d60aa1b606082015260800190565b60008219821115610ada57610ada610b67565b500190565b600082610afc57634e487b7160e01b600052601260045260246000fd5b500490565b6000816000190483118215151615610b1b57610b1b610b67565b500290565b600082821015610b3257610b32610b67565b500390565b60005b83811015610b52578181015183820152602001610b3a565b83811115610b61576000848401525b50505050565b634e487b7160e01b600052601160045260246000fd5b634e487b7160e01b600052603260045260246000fd5b6001600160a01b0381168114610ba857600080fd5b5056fea26469706673582212208a6fc5e8a1af01073c637d8d9f8597f9f32ff88bf279fe0333010c5896979bda64736f6c63430008060033",
  "bytecodeSha1": "b40584e95db9c4e8bbd0c1785079ad2506eb100e",
  "compiler": {
    "evm_version": "istanbul",
    "optimizer": {
      "enabled": true,
      "runs": 200
    },
    "version": "0.8.6+commit.11564f7e"
  },
  "contractName": "PaymentSplitter",
  "language": "Solidity",
  "natspec": {
    "details": "This contract allows to split Ether payments among a group of accounts. The sender does not need to be aware that the Ether will be split in this way, since it is handled transparently by the contract. The split can be in equal parts or in any other arbitrary proportion. The way this is specified is by assigning each account to a number of shares. Of all the Ether that this contract receives, each account will then be able to claim an amount proportional to the percentage of total shares they were assigned. `PaymentSplitter` follows a _pull payment_ model. This means that payments are not automatically forwarded to the accounts but kept in this contract, and the actual transfer is triggered as a separate step by calling the {release} function. NOTE: This contract assumes that ERC20 tokens will behave similarly to native tokens (Ether). Rebasing tokens, and tokens that apply fees during transfers, are likely to not be supported as expected. If in doubt, we encourage you to run tests before sending real value to this contract.",
    "kind": "dev",
    "methods": {
      "constructor": {
        "details": "Creates an instance of `PaymentSplitter` where each account in `payees` is assigned the number of shares at the matching position in the `shares` array. All addresses in `payees` must be non-zero. Both arrays must have the same non-zero length, and there must be no duplicates in `payees`."
      },
      "payee(uint256)": {
        "details": "Getter for the address of the payee number `index`."
      },
      "release(address)": {
        "details": "Triggers a transfer to `account` of the amount of Ether they are owed, according to their percentage of the total shares and their previous withdrawals."
      },
      "release(address,address)": {
        "details": "Triggers a transfer to `account` of the amount of `token` tokens they are owed, according to their percentage of the total shares and their previous withdrawals. `token` must be the address of an IERC20 contract."
      },
      "released(address)": {
        "details": "Getter for the amount of Ether already released to a payee."
      },
      "released(address,address)": {
        "details": "Getter for the amount of `token` tokens already released to a payee. `token` should be the address of an IERC20 contract."
      },
      "shares(address)": {
        "details": "Getter for the amount of shares held by an account."
      },
      "totalReleased()": {
        "details": "Getter for the total amount of Ether already released."
      },
      "totalReleased(address)": {
        "details": "Getter for the total amount of `token` already released. `token` should be the address of an IERC20 contract."
      },
      "totalShares()": {
        "details": "Getter for the total shares held by payees."
      }
    },
    "title": "PaymentSplitter",
    "version": 1
  },
  "opcodes": "PUSH1 0x80 PUSH1 0x40 MSTORE PUSH1 0x4 CALLDATASIZE LT PUSH2 0x8A JUMPI PUSH1 0x0 CALLDATALOAD PUSH1 0xE0 SHR DUP1 PUSH4 0x8B83209B GT PUSH2 0x59 JUMPI DUP1 PUSH4 0x8B83209B EQ PUSH2 0x184 JUMPI DUP1 PUSH4 0x9852595C EQ PUSH2 0x1BC JUMPI DUP1 PUSH4 0xCE7C2AC2 EQ PUSH2 0x1F2 JUMPI DUP1 PUSH4 0xD79779B2 EQ PUSH2 0x228 JUMPI DUP1 PUSH4 0xE33B7DE3 EQ PUSH2 0x25E JUMPI PUSH1 0x0 DUP1 REVERT JUMPDEST DUP1 PUSH4 0x19165587 EQ PUSH2 0xD8 JUMPI DUP1 PUSH4 0x3A98EF39 EQ PUSH2 0xFA JUMPI DUP1 PUSH4 0x406072A9 EQ PUSH2 0x11E JUMPI DUP1 PUSH4 0x48B75044 EQ PUSH2 0x164 JUMPI PUSH1 0x0 DUP1 REVERT JUMPDEST CALLDATASIZE PUSH2 0xD3 JUMPI PUSH32 0x6EF95F06320E7A25A04A175CA677B7052BDD97131872C2192525A629F51BE770 CALLER PUSH1 0x40 DUP1 MLOAD PUSH1 0x1 PUSH1 0x1 PUSH1 0xA0 SHL SUB SWAP1 SWAP3 AND DUP3 MSTORE CALLVALUE PUSH1 0x20 DUP4 ADD MSTORE ADD PUSH1 0x40 MLOAD DUP1 SWAP2 SUB SWAP1 LOG1 STOP JUMPDEST PUSH1 0x0 DUP1 REVERT JUMPDEST CALLVALUE DUP1 ISZERO PUSH2 0xE4 JUMPI PUSH1 0x0 DUP1 REVERT JUMPDEST POP PUSH2 0xF8 PUSH2 0xF3 CALLDATASIZE PUSH1 0x4 PUSH2 0x93D JUMP JUMPDEST PUSH2 0x273 JUMP JUMPDEST STOP JUMPDEST CALLVALUE DUP1 ISZERO PUSH2 0x106 JUMPI PUSH1 0x0 DUP1 REVERT JUMPDEST POP PUSH1 0x0 SLOAD JUMPDEST PUSH1 0x40 MLOAD SWAP1 DUP2 MSTORE PUSH1 0x20 ADD JUMPDEST PUSH1 0x40 MLOAD DUP1 SWAP2 SUB SWAP1 RETURN JUMPDEST CALLVALUE DUP1 ISZERO PUSH2 0x12A JUMPI PUSH1 0x0 DUP1 REVERT JUMPDEST POP PUSH2 0x10B PUSH2 0x139 CALLDATASIZE PUSH1 0x4 PUSH2 0x97C JUMP JUMPDEST PUSH1 0x1 PUSH1 0x1 PUSH1 0xA0 SHL SUB SWAP2 DUP3 AND PUSH1 0x0 SWAP1 DUP2 MSTORE PUSH1 0x6 PUSH1 0x20 SWAP1 DUP2 MSTORE PUSH1 0x40 DUP1 DUP4 KECCAK256 SWAP4 SWAP1 SWAP5 AND DUP3 MSTORE SWAP2 SWAP1 SWAP2 MSTORE KECCAK256 SLOAD SWAP1 JUMP JUMPDEST CALLVALUE DUP1 ISZERO PUSH2 0x170 JUMPI PUSH1 0x0 DUP1 REVERT JUMPDEST POP PUSH2 0xF8 PUSH2 0x17F CALLDATASIZE PUSH1 0x4 PUSH2 0x97C JUMP JUMPDEST PUSH2 0x3AA JUMP JUMPDEST CALLVALUE DUP1 ISZERO PUSH2 0x190 JUMPI PUSH1 0x0 DUP1 REVERT JUMPDEST POP PUSH2 0x1A4 PUSH2 0x19F CALLDATASIZE PUSH1 0x4 PUSH2 0x9B5 JUMP JUMPDEST PUSH2 0x592 JUMP JUMPDEST PUSH1 0x40 MLOAD PUSH1 0x1 PUSH1 0x1 PUSH1 0xA0 SHL SUB SWAP1 SWAP2 AND DUP2 MSTORE PUSH1 0x20 ADD PUSH2 0x115 JUMP JUMPDEST CALLVALUE DUP1 ISZERO PUSH2 0x1C8 JUMPI PUSH1 0x0 DUP1 REVERT JUMPDEST POP PUSH2 0x10B PUSH2 0x1D7 CALLDATASIZE PUSH1 0x4 PUSH2 0x93D JUMP JUMPDEST PUSH1 0x1 PUSH1 0x1 PUSH1 0xA0 SHL SUB AND PUSH1 0x0 SWAP1 DUP2 MSTORE PUSH1 0x3 PUSH1 0x20 MSTORE PUSH1 0x40 SWAP1 KECCAK256 SLOAD SWAP1 JUMP JUMPDEST CALLVALUE DUP1 ISZERO PUSH2 0x1FE JUMPI PUSH1 0x0 DUP1 REVERT JUMPDEST POP PUSH2 0x10B PUSH2 0x20D CALLDATASIZE PUSH1 0x4 PUSH2 0x93D JUMP JUMPDEST PUSH1 0x1 PUSH1 0x1 PUSH1 0xA0 SHL SUB AND PUSH1 0x0 SWAP1 DUP2 MSTORE PUSH1 0x2 PUSH1 0x20 MSTORE PUSH1 0x40 SWAP1 KECCAK256 SLOAD SWAP1 JUMP JUMPDEST CALLVALUE DUP1 ISZERO PUSH2 0x234 JUMPI PUSH1 0x0 DUP1 REVERT JUMPDEST POP PUSH2 0x10B PUSH2 0x243 CALLDATASIZE PUSH1 0x4 PUSH2 0x93D JUMP JUMPDEST PUSH1 0x1 PUSH1 0x1 PUSH1 0xA0 SHL SUB AND PUSH1 0x0 SWAP1 DUP2 MSTORE PUSH1 0x5 PUSH1 0x20 MSTORE PUSH1 0x40 SWAP1 KECCAK256 SLOAD SWAP1 JUMP JUMPDEST CALLVALUE DUP1 ISZERO PUSH2 0x26A JUMPI PUSH1 0x0 DUP1 REVERT JUMPDEST POP PUSH1 0x1 SLOAD PUSH2 0x10B JUMP JUMPDEST PUSH1 0x1 PUSH1 0x1 PUSH1 0xA0 SHL SUB DUP2 AND PUSH1 0x0 SWAP1 DUP2 MSTORE PUSH1 0x2 PUSH1 0x20 MSTORE PUSH1 0x40 SWAP1 KECCAK256 SLOAD PUSH2 0x2B1 JUMPI PUSH1 0x40 MLOAD PUSH3 0x461BCD PUSH1 0xE5 SHL DUP2 MSTORE PUSH1 0x4 ADD PUSH2 0x2A8 SWAP1 PUSH2 0xA36 JUMP JUMPDEST PUSH1 0x40 MLOAD DUP1 SWAP2 SUB SWAP1 REVERT JUMPDEST PUSH1 0x0 PUSH2 0x2BC PUSH1 0x1 SLOAD SWAP1 JUMP JUMPDEST PUSH2 0x2C6 SWAP1 SELFBALANCE PUSH2 0xAC7 JUMP JUMPDEST SWAP1 POP PUSH1 0x0 PUSH2 0x2F3 DUP4 DUP4 PUSH2 0x2EE DUP7 PUSH1 0x1 PUSH1 0x1 PUSH1 0xA0 SHL SUB AND PUSH1 0x0 SWAP1 DUP2 MSTORE PUSH1 0x3 PUSH1 0x20 MSTORE PUSH1 0x40 SWAP1 KECCAK256 SLOAD SWAP1 JUMP JUMPDEST PUSH2 0x5C2 JUMP JUMPDEST SWAP1 POP DUP1 PUSH2 0x312 JUMPI PUSH1 0x40 MLOAD PUSH3 0x461BCD PUSH1 0xE5 SHL DUP2 MSTORE PUSH1 0x4 ADD PUSH2 0x2A8 SWAP1 PUSH2 0xA7C JUMP JUMPDEST PUSH1 0x1 PUSH1 0x1 PUSH1 0xA0 SHL SUB DUP4 AND PUSH1 0x0 SWAP1 DUP2 MSTORE PUSH1 0x3 PUSH1 0x20 MSTORE PUSH1 0x40 DUP2 KECCAK256 DUP1 SLOAD DUP4 SWAP3 SWAP1 PUSH2 0x33A SWAP1 DUP5 SWAP1 PUSH2 0xAC7 JUMP JUMPDEST SWAP3 POP POP DUP2 SWAP1 SSTORE POP DUP1 PUSH1 0x1 PUSH1 0x0 DUP3 DUP3 SLOAD PUSH2 0x353 SWAP2 SWAP1 PUSH2 0xAC7 JUMP JUMPDEST SWAP1 SWAP2 SSTORE POP PUSH2 0x363 SWAP1 POP DUP4 DUP3 PUSH2 0x607 JUMP JUMPDEST PUSH1 0x40 DUP1 MLOAD PUSH1 0x1 PUSH1 0x1 PUSH1 0xA0 SHL SUB DUP6 AND DUP2 MSTORE PUSH1 0x20 DUP2 ADD DUP4 SWAP1 MSTORE PUSH32 0xDF20FD1E76BC69D672E4814FAFB2C449BBA3A5369D8359ADF9E05E6FDE87B056 SWAP2 ADD PUSH1 0x40 MLOAD DUP1 SWAP2 SUB SWAP1 LOG1 POP POP POP JUMP JUMPDEST PUSH1 0x1 PUSH1 0x1 PUSH1 0xA0 SHL SUB DUP2 AND PUSH1 0x0 SWAP1 DUP2 MSTORE PUSH1 0x2 PUSH1 0x20 MSTORE PUSH1 0x40 SWAP1 KECCAK256 SLOAD PUSH2 0x3DF JUMPI PUSH1 0x40 MLOAD PUSH3 0x461BCD PUSH1 0xE5 SHL DUP2 MSTORE PUSH1 0x4 ADD PUSH2 0x2A8 SWAP1 PUSH2 0xA36 JUMP JUMPDEST PUSH1 0x1 PUSH1 0x1 PUSH1 0xA0 SHL SUB DUP3 AND PUSH1 0x0 SWAP1 DUP2 MSTORE PUSH1 0x5 PUSH1 0x20 MSTORE PUSH1 0x40 DUP2 KECCAK256 SLOAD PUSH1 0x40 MLOAD PUSH4 0x70A08231 PUSH1 0xE0 SHL DUP2 MSTORE ADDRESS PUSH1 0x4 DUP3 ADD MSTORE PUSH1 0x1 PUSH1 0x1 PUSH1 0xA0 SHL SUB DUP6 AND SWAP1 PUSH4 0x70A08231 SWAP1 PUSH1 0x24 ADD PUSH1 0x20 PUSH1 0x40 MLOAD DUP1 DUP4 SUB DUP2 DUP7 DUP1 EXTCODESIZE ISZERO DUP1 ISZERO PUSH2 0x437 JUMPI PUSH1 0x0 DUP1 REVERT JUMPDEST POP GAS STATICCALL ISZERO DUP1 ISZERO PUSH2 0x44B JUMPI RETURNDATASIZE PUSH1 0x0 DUP1 RETURNDATACOPY RETURNDATASIZE PUSH1 0x0 REVERT JUMPDEST POP POP POP POP PUSH1 0x40 MLOAD RETURNDATASIZE PUSH1 0x1F NOT PUSH1 0x1F DUP3 ADD AND DUP3 ADD DUP1 PUSH1 0x40 MSTORE POP DUP2 ADD SWAP1 PUSH2 0x46F SWAP2 SWAP1 PUSH2 0x9CE JUMP JUMPDEST PUSH2 0x479 SWAP2 SWAP1 PUSH2 0xAC7 JUMP JUMPDEST SWAP1 POP PUSH1 0x0 PUSH2 0x4B2 DUP4 DUP4 PUSH2 0x2EE DUP8 DUP8 PUSH1 0x1 PUSH1 0x1 PUSH1 0xA0 SHL SUB SWAP2 DUP3 AND PUSH1 0x0 SWAP1 DUP2 MSTORE PUSH1 0x6 PUSH1 0x20 SWAP1 DUP2 MSTORE PUSH1 0x40 DUP1 DUP4 KECCAK256 SWAP4 SWAP1 SWAP5 AND DUP3 MSTORE SWAP2 SWAP1 SWAP2 MSTORE KECCAK256 SLOAD SWAP1 JUMP JUMPDEST SWAP1 POP DUP1 PUSH2 0x4D1 JUMPI PUSH1 0x40 MLOAD PUSH3 0x461BCD PUSH1 0xE5 SHL DUP2 MSTORE PUSH1 0x4 ADD PUSH2 0x2A8 SWAP1 PUSH2 0xA7C JUMP JUMPDEST PUSH1 0x1 PUSH1 0x1 PUSH1 0xA0 SHL SUB DUP1 DUP6 AND PUSH1 0x0 SWAP1 DUP2 MSTORE PUSH1 0x6 PUSH1 0x20 SWAP1 DUP2 MSTORE PUSH1 0x40 DUP1 DUP4 KECCAK256 SWAP4 DUP8 AND DUP4 MSTORE SWAP3 SWAP1 MSTORE SWAP1 DUP2 KECCAK256 DUP1 SLOAD DUP4 SWAP3 SWAP1 PUSH2 0x508 SWAP1 DUP5 SWAP1 PUSH2 0xAC7 JUMP JUMPDEST SWAP1 SWAP2 SSTORE POP POP PUSH1 0x1 PUSH1 0x1 PUSH1 0xA0 SHL SUB DUP5 AND PUSH1 0x0 SWAP1 DUP2 MSTORE PUSH1 0x5 PUSH1 0x20 MSTORE PUSH1 0x40 DUP2 KECCAK256 DUP1 SLOAD DUP4 SWAP3 SWAP1 PUSH2 0x535 SWAP1 DUP5 SWAP1 PUSH2 0xAC7 JUMP JUMPDEST SWAP1 SWAP2 SSTORE POP PUSH2 0x546 SWAP1 POP DUP5 DUP5 DUP4 PUSH2 0x725 JUMP JUMPDEST PUSH1 0x40 DUP1 MLOAD PUSH1 0x1 PUSH1 0x1 PUSH1 0xA0 SHL SUB DUP6 DUP2 AND DUP3 MSTORE PUSH1 0x20 DUP3 ADD DUP5 SWAP1 MSTORE DUP7 AND SWAP2 PUSH32 0x3BE5B7A71E84ED12875D241991C70855AC5817D847039E17A9D895C1CEB0F18A SWAP2 ADD PUSH1 0x40 MLOAD DUP1 SWAP2 SUB SWAP1 LOG2 POP POP POP POP JUMP JUMPDEST PUSH1 0x0 PUSH1 0x4 DUP3 DUP2 SLOAD DUP2 LT PUSH2 0x5A7 JUMPI PUSH2 0x5A7 PUSH2 0xB7D JUMP JUMPDEST PUSH1 0x0 SWAP2 DUP3 MSTORE PUSH1 0x20 SWAP1 SWAP2 KECCAK256 ADD SLOAD PUSH1 0x1 PUSH1 0x1 PUSH1 0xA0 SHL SUB AND SWAP3 SWAP2 POP POP JUMP JUMPDEST PUSH1 0x0 DUP1 SLOAD PUSH1 0x1 PUSH1 0x1 PUSH1 0xA0 SHL SUB DUP6 AND DUP3 MSTORE PUSH1 0x2 PUSH1 0x20 MSTORE PUSH1 0x40 DUP3 KECCAK256 SLOAD DUP4 SWAP2 SWAP1 PUSH2 0x5E9 SWAP1 DUP7 PUSH2 0xB01 JUMP JUMPDEST PUSH2 0x5F3 SWAP2 SWAP1 PUSH2 0xADF JUMP JUMPDEST PUSH2 0x5FD SWAP2 SWAP1 PUSH2 0xB20 JUMP JUMPDEST SWAP1 POP JUMPDEST SWAP4 SWAP3 POP POP POP JUMP JUMPDEST DUP1 SELFBALANCE LT ISZERO PUSH2 0x657 JUMPI PUSH1 0x40 MLOAD PUSH3 0x461BCD PUSH1 0xE5 SHL DUP2 MSTORE PUSH1 0x20 PUSH1 0x4 DUP3 ADD MSTORE PUSH1 0x1D PUSH1 0x24 DUP3 ADD MSTORE PUSH32 0x416464726573733A20696E73756666696369656E742062616C616E6365000000 PUSH1 0x44 DUP3 ADD MSTORE PUSH1 0x64 ADD PUSH2 0x2A8 JUMP JUMPDEST PUSH1 0x0 DUP3 PUSH1 0x1 PUSH1 0x1 PUSH1 0xA0 SHL SUB AND DUP3 PUSH1 0x40 MLOAD PUSH1 0x0 PUSH1 0x40 MLOAD DUP1 DUP4 SUB DUP2 DUP6 DUP8 GAS CALL SWAP3 POP POP POP RETURNDATASIZE DUP1 PUSH1 0x0 DUP2 EQ PUSH2 0x6A4 JUMPI PUSH1 0x40 MLOAD SWAP2 POP PUSH1 0x1F NOT PUSH1 0x3F RETURNDATASIZE ADD AND DUP3 ADD PUSH1 0x40 MSTORE RETURNDATASIZE DUP3 MSTORE RETURNDATASIZE PUSH1 0x0 PUSH1 0x20 DUP5 ADD RETURNDATACOPY PUSH2 0x6A9 JUMP JUMPDEST PUSH1 0x60 SWAP2 POP JUMPDEST POP POP SWAP1 POP DUP1 PUSH2 0x720 JUMPI PUSH1 0x40 MLOAD PUSH3 0x461BCD PUSH1 0xE5 SHL DUP2 MSTORE PUSH1 0x20 PUSH1 0x4 DUP3 ADD MSTORE PUSH1 0x3A PUSH1 0x24 DUP3 ADD MSTORE PUSH32 0x416464726573733A20756E61626C6520746F2073656E642076616C75652C2072 PUSH1 0x44 DUP3 ADD MSTORE PUSH32 0x6563697069656E74206D61792068617665207265766572746564000000000000 PUSH1 0x64 DUP3 ADD MSTORE PUSH1 0x84 ADD PUSH2 0x2A8 JUMP JUMPDEST POP POP POP JUMP JUMPDEST PUSH1 0x40 DUP1 MLOAD PUSH1 0x1 PUSH1 0x1 PUSH1 0xA0 SHL SUB DUP5 DUP2 AND PUSH1 0x24 DUP4 ADD MSTORE PUSH1 0x44 DUP1 DUP4 ADD DUP6 SWAP1 MSTORE DUP4 MLOAD DUP1 DUP5 SUB SWAP1 SWAP2 ADD DUP2 MSTORE PUSH1 0x64 SWAP1 SWAP3 ADD DUP4 MSTORE PUSH1 0x20 DUP1 DUP4 ADD DUP1 MLOAD PUSH1 0x1 PUSH1 0x1 PUSH1 0xE0 SHL SUB AND PUSH4 0xA9059CBB PUSH1 0xE0 SHL OR SWAP1 MSTORE DUP4 MLOAD DUP1 DUP6 ADD SWAP1 SWAP5 MSTORE DUP1 DUP5 MSTORE PUSH32 0x5361666545524332303A206C6F772D6C6576656C2063616C6C206661696C6564 SWAP1 DUP5 ADD MSTORE PUSH2 0x720 SWAP3 DUP7 SWAP3 SWAP2 PUSH1 0x0 SWAP2 PUSH2 0x7B5 SWAP2 DUP6 AND SWAP1 DUP5 SWAP1 PUSH2 0x832 JUMP JUMPDEST DUP1 MLOAD SWAP1 SWAP2 POP ISZERO PUSH2 0x720 JUMPI DUP1 DUP1 PUSH1 0x20 ADD SWAP1 MLOAD DUP2 ADD SWAP1 PUSH2 0x7D3 SWAP2 SWAP1 PUSH2 0x95A JUMP JUMPDEST PUSH2 0x720 JUMPI PUSH1 0x40 MLOAD PUSH3 0x461BCD PUSH1 0xE5 SHL DUP2 MSTORE PUSH1 0x20 PUSH1 0x4 DUP3 ADD MSTORE PUSH1 0x2A PUSH1 0x24 DUP3 ADD MSTORE PUSH32 0x5361666545524332303A204552433230206F7065726174696F6E20646964206E PUSH1 0x44 DUP3 ADD MSTORE PUSH10 0x1BDD081CDD58D8D95959 PUSH1 0xB2 SHL PUSH1 0x64 DUP3 ADD MSTORE PUSH1 0x84 ADD PUSH2 0x2A8 JUMP JUMPDEST PUSH1 0x60 PUSH2 0x5FD DUP5 DUP5 PUSH1 0x0 DUP6 DUP6 DUP5 EXTCODESIZE PUSH2 0x88B JUMPI PUSH1 0x40 MLOAD PUSH3 0x461BCD PUSH1 0xE5 SHL DUP2 MSTORE PUSH1 0x20 PUSH1 0x4 DUP3 ADD MSTORE PUSH1 0x1D PUSH1 0x24 DUP3 ADD MSTORE PUSH32 0x416464726573733A2063616C6C20746F206E6F6E2D636F6E7472616374000000 PUSH1 0x44 DUP3 ADD MSTORE PUSH1 0x64 ADD PUSH2 0x2A8 JUMP JUMPDEST PUSH1 0x0 DUP1 DUP7 PUSH1 0x1 PUSH1 0x1 PUSH1 0xA0 SHL SUB AND DUP6 DUP8 PUSH1 0x40 MLOAD PUSH2 0x8A7 SWAP2 SWAP1 PUSH2 0x9E7 JUMP JUMPDEST PUSH1 0x0 PUSH1 0x40 MLOAD DUP1 DUP4 SUB DUP2 DUP6 DUP8 GAS CALL SWAP3 POP POP POP RETURNDATASIZE DUP1 PUSH1 0x0 DUP2 EQ PUSH2 0x8E4 JUMPI PUSH1 0x40 MLOAD SWAP2 POP PUSH1 0x1F NOT PUSH1 0x3F RETURNDATASIZE ADD AND DUP3 ADD PUSH1 0x40 MSTORE RETURNDATASIZE DUP3 MSTORE RETURNDATASIZE PUSH1 0x0 PUSH1 0x20 DUP5 ADD RETURNDATACOPY PUSH2 0x8E9 JUMP JUMPDEST PUSH1 0x60 SWAP2 POP JUMPDEST POP SWAP2 POP SWAP2 POP PUSH2 0x8F9 DUP3 DUP3 DUP7 PUSH2 0x904 JUMP JUMPDEST SWAP8 SWAP7 POP POP POP POP POP POP POP JUMP JUMPDEST PUSH1 0x60 DUP4 ISZERO PUSH2 0x913 JUMPI POP DUP2 PUSH2 0x600 JUMP JUMPDEST DUP3 MLOAD ISZERO PUSH2 0x923 JUMPI DUP3 MLOAD DUP1 DUP5 PUSH1 0x20 ADD REVERT JUMPDEST DUP2 PUSH1 0x40 MLOAD PUSH3 0x461BCD PUSH1 0xE5 SHL DUP2 MSTORE PUSH1 0x4 ADD PUSH2 0x2A8 SWAP2 SWAP1 PUSH2 0xA03 JUMP JUMPDEST PUSH1 0x0 PUSH1 0x20 DUP3 DUP5 SUB SLT ISZERO PUSH2 0x94F JUMPI PUSH1 0x0 DUP1 REVERT JUMPDEST DUP2 CALLDATALOAD PUSH2 0x600 DUP2 PUSH2 0xB93 JUMP JUMPDEST PUSH1 0x0 PUSH1 0x20 DUP3 DUP5 SUB SLT ISZERO PUSH2 0x96C JUMPI PUSH1 0x0 DUP1 REVERT JUMPDEST DUP2 MLOAD DUP1 ISZERO ISZERO DUP2 EQ PUSH2 0x600 JUMPI PUSH1 0x0 DUP1 REVERT JUMPDEST PUSH1 0x0 DUP1 PUSH1 0x40 DUP4 DUP6 SUB SLT ISZERO PUSH2 0x98F JUMPI PUSH1 0x0 DUP1 REVERT JUMPDEST DUP3 CALLDATALOAD PUSH2 0x99A DUP2 PUSH2 0xB93 JUMP JUMPDEST SWAP2 POP PUSH1 0x20 DUP4 ADD CALLDATALOAD PUSH2 0x9AA DUP2 PUSH2 0xB93 JUMP JUMPDEST DUP1 SWAP2 POP POP SWAP3 POP SWAP3 SWAP1 POP JUMP JUMPDEST PUSH1 0x0 PUSH1 0x20 DUP3 DUP5 SUB SLT ISZERO PUSH2 0x9C7 JUMPI PUSH1 0x0 DUP1 REVERT JUMPDEST POP CALLDATALOAD SWAP2 SWAP1 POP JUMP JUMPDEST PUSH1 0x0 PUSH1 0x20 DUP3 DUP5 SUB SLT ISZERO PUSH2 0x9E0 JUMPI PUSH1 0x0 DUP1 REVERT JUMPDEST POP MLOAD SWAP2 SWAP1 POP JUMP JUMPDEST PUSH1 0x0 DUP3 MLOAD PUSH2 0x9F9 DUP2 DUP5 PUSH1 0x20 DUP8 ADD PUSH2 0xB37 JUMP JUMPDEST SWAP2 SWAP1 SWAP2 ADD SWAP3 SWAP2 POP POP JUMP JUMPDEST PUSH1 0x20 DUP2 MSTORE PUSH1 0x0 DUP3 MLOAD DUP1 PUSH1 0x20 DUP5 ADD MSTORE PUSH2 0xA22 DUP2 PUSH1 0x40 DUP6 ADD PUSH1 0x20 DUP8 ADD PUSH2 0xB37 JUMP JUMPDEST PUSH1 0x1F ADD PUSH1 0x1F NOT AND SWAP2 SWAP1 SWAP2 ADD PUSH1 0x40 ADD SWAP3 SWAP2 POP POP JUMP JUMPDEST PUSH1 0x20 DUP1 DUP3 MSTORE PUSH1 0x26 SWAP1 DUP3 ADD MSTORE PUSH32 0x5061796D656E7453706C69747465723A206163636F756E7420686173206E6F20 PUSH1 0x40 DUP3 ADD MSTORE PUSH6 0x736861726573 PUSH1 0xD0 SHL PUSH1 0x60 DUP3 ADD MSTORE PUSH1 0x80 ADD SWAP1 JUMP JUMPDEST PUSH1 0x20 DUP1 DUP3 MSTORE PUSH1 0x2B SWAP1 DUP3 ADD MSTORE PUSH32 0x5061796D656E7453706C69747465723A206163636F756E74206973206E6F7420 PUSH1 0x40 DUP3 ADD MSTORE PUSH11 0x191D59481C185E5B595B9D PUSH1 0xAA SHL PUSH1 0x60 DUP3 ADD MSTORE PUSH1 0x80 ADD SWAP1 JUMP JUMPDEST PUSH1 0x0 DUP3 NOT DUP3 GT ISZERO PUSH2 0xADA JUMPI PUSH2 0xADA PUSH2 0xB67 JUMP JUMPDEST POP ADD SWAP1 JUMP JUMPDEST PUSH1 0x0 DUP3 PUSH2 0xAFC JUMPI PUSH4 0x4E487B71 PUSH1 0xE0 SHL PUSH1 0x0 MSTORE PUSH1 0x12 PUSH1 0x4 MSTORE PUSH1 0x24 PUSH1 0x0 REVERT JUMPDEST POP DIV SWAP1 JUMP JUMPDEST PUSH1 0x0 DUP2 PUSH1 0x0 NOT DIV DUP4 GT DUP3 ISZERO ISZERO AND ISZERO PUSH2 0xB1B JUMPI PUSH2 0xB1B PUSH2 0xB67 JUMP JUMPDEST POP MUL SWAP1 JUMP JUMPDEST PUSH1 0x0 DUP3 DUP3 LT ISZERO PUSH2 0xB32 JUMPI PUSH2 0xB32 PUSH2 0xB67 JUMP JUMPDEST POP SUB SWAP1 JUMP JUMPDEST PUSH1 0x0 JUMPDEST DUP4 DUP2 LT ISZERO PUSH2 0xB52 JUMPI DUP2 DUP2 ADD MLOAD DUP4 DUP3 ADD MSTORE PUSH1 0x20 ADD PUSH2 0xB3A JUMP JUMPDEST DUP4 DUP2 GT ISZERO PUSH2 0xB61 JUMPI PUSH1 0x0 DUP5 DUP5 ADD MSTORE JUMPDEST POP POP POP POP JUMP JUMPDEST PUSH4 0x4E487B71 PUSH1 0xE0 SHL PUSH1 0x0 MSTORE PUSH1 0x11 PUSH1 0x4 MSTORE PUSH1 0x24 PUSH1 0x0 REVERT JUMPDEST PUSH4 0x4E487B71 PUSH1 0xE0 SHL PUSH1 0x0 MSTORE PUSH1 0x32 PUSH1 0x4 MSTORE PUSH1 0x24 PUSH1 0x0 REVERT JUMPDEST PUSH1 0x1 PUSH1 0x1 PUSH1 0xA0 SHL SUB DUP2 AND DUP2 EQ PUSH2 0xBA8 JUMPI PUSH1 0x0 DUP1 REVERT JUMPDEST POP JUMP INVALID LOG2 PUSH5 0x6970667358 0x22 SLT KECCAK256 DUP11 PUSH16 0xC5E8A1AF01073C637D8D9F8597F9F32F 0xF8 DUP12 CALLCODE PUSH26 0xFE0333010C5896979BDA64736F6C634300080600330000000000 ",
  "sha1": "5c59cd30a50e4bbf8574eb54f5a3bc6888da3189",
  "source": "// SPDX-License-Identifier: MIT\n// OpenZeppelin Contracts v4.4.0 (finance/PaymentSplitter.sol)\n\npragma solidity ^0.8.0;\n\nimport \"../token/ERC20/utils/SafeERC20.sol\";\nimport \"../utils/Address.sol\";\nimport \"../utils/Context.sol\";\n\n/**\n * @title PaymentSplitter\n * @dev This contract allows to split Ether payments among a group of accounts. The sender does not need to be aware\n * that the Ether will be split in this way, since it is handled transparently by the contract.\n *\n * The split can be in equal parts or in any other arbitrary proportion. The way this is specified is by assigning each\n * account to a number of shares. Of all the Ether that this contract receives, each account will then be able to claim\n * an amount proportional to the percentage of total shares they were assigned.\n *\n * `PaymentSplitter` follows a _pull payment_ model. This means that payments are not automatically forwarded to the\n * accounts but kept in this contract, and the actual transfer is triggered as a separate step by calling the {release}\n * function.\n *\n * NOTE: This contract assumes that ERC20 tokens will behave similarly to native tokens (Ether). Rebasing tokens, and\n * tokens that apply fees during transfers, are likely to not be supported as expected. If in doubt, we encourage you\n * to run tests before sending real value to this contract.\n */\ncontract PaymentSplitter is Context {\n    event PayeeAdded(address account, uint256 shares);\n    event PaymentReleased(address to, uint256 amount);\n    event ERC20PaymentReleased(IERC20 indexed token, address to, uint256 amount);\n    event PaymentReceived(address from, uint256 amount);\n\n    uint256 private _totalShares;\n    uint256 private _totalReleased;\n\n    mapping(address => uint256) private _shares;\n    mapping(address => uint256) private _released;\n    address[] private _payees;\n\n    mapping(IERC20 => uint256) private _erc20TotalReleased;\n    mapping(IERC20 => mapping(address => uint256)) private _erc20Released;\n\n    /**\n     * @dev Creates an instance of `PaymentSplitter` where each account in `payees` is assigned the number of shares at\n     * the matching position in the `shares` array.\n     *\n     * All addresses in `payees` must be non-zero. Both arrays must have the same non-zero length, and there must be no\n     * duplicates in `payees`.\n     */\n    constructor(address[] memory payees, uint256[] memory shares_) payable {\n        require(payees.length == shares_.length, \"PaymentSplitter: payees and shares length mismatch\");\n        require(payees.length > 0, \"PaymentSplitter: no payees\");\n\n        for (uint256 i = 0; i < payees.length; i++) {\n            _addPayee(payees[i], shares_[i]);\n        }\n    }\n\n    /**\n     * @dev The Ether received will be logged with {PaymentReceived} events. Note that these events are not fully\n     * reliable: it's possible for a contract to receive Ether without triggering this function. This only affects the\n     * reliability of the events, and not the actual splitting of Ether.\n     *\n     * To learn more about this see the Solidity documentation for\n     * https://solidity.readthedocs.io/en/latest/contracts.html#fallback-function[fallback\n     * functions].\n     */\n    receive() external payable virtual {\n        emit PaymentReceived(_msgSender(), msg.value);\n    }\n\n    /**\n     * @dev Getter for the total shares held by payees.\n     */\n    function totalShares() public view returns (uint256) {\n        return _totalShares;\n    }\n\n    /**\n     * @dev Getter for the total amount of Ether already released.\n     */\n    function totalReleased() public view returns (uint256) {\n        return _totalReleased;\n    }\n\n    /**\n     * @dev Getter for the total amount of `token` already released. `token` should be the address of an IERC20\n     * contract.\n     */\n    function totalReleased(IERC20 token) public view returns (uint256) {\n        return _erc20TotalReleased[token];\n    }\n\n    /**\n     * @dev Getter for the amount of shares held by an account.\n     */\n    function shares(address account) public view returns (uint256) {\n        return _shares[account];\n    }\n\n    /**\n     * @dev Getter for the amount of Ether already released to a payee.\n     */\n    function released(address account) public view returns (uint256) {\n        return _released[account];\n    }\n\n    /**\n     * @dev Getter for the amount of `token` tokens already released to a payee. `token` should be the address of an\n     * IERC20 contract.\n     */\n    function released(IERC20 token, address account) public view returns (uint256) {\n        return _erc20Released[token][account];\n    }\n\n    /**\n     * @dev Getter for the address of the payee number `index`.\n     */\n    function payee(uint256 index) public view returns (address) {\n        return _payees[index];\n    }\n\n    /**\n     * @dev Triggers a transfer to `account` of the amount of Ether they are owed, according to their percentage of the\n     * total shares and their previous withdrawals.\n     */\n    function release(address payable account) public virtual {\n        require(_shares[account] > 0, \"PaymentSplitter: account has no shares\");\n\n        uint256 totalReceived = address(this).balance + totalReleased();\n        uint256 payment = _pendingPayment(account, totalReceived, released(account));\n\n        require(payment != 0, \"PaymentSplitter: account is not due payment\");\n\n        _released[account] += payment;\n        _totalReleased += payment;\n\n        Address.sendValue(account, payment);\n        emit PaymentReleased(account, payment);\n    }\n\n    /**\n     * @dev Triggers a transfer to `account` of the amount of `token` tokens they are owed, according to their\n     * percentage of the total shares and their previous withdrawals. `token` must be the address of an IERC20\n     * contract.\n     */\n    function release(IERC20 token, address account) public virtual {\n        require(_shares[account] > 0, \"PaymentSplitter: account has no shares\");\n\n        uint256 totalReceived = token.balanceOf(address(this)) + totalReleased(token);\n        uint256 payment = _pendingPayment(account, totalReceived, released(token, account));\n\n        require(payment != 0, \"PaymentSplitter: account is not due payment\");\n\n        _erc20Released[token][account] += payment;\n        _erc20TotalReleased[token] += payment;\n\n        SafeERC20.safeTransfer(token, account, payment);\n        emit ERC20PaymentReleased(token, account, payment);\n    }\n\n    /**\n     * @dev internal logic for computing the pending payment of an `account` given the token historical balances and\n     * already released amounts.\n     */\n    function _pendingPayment(\n        address account,\n        uint256 totalReceived,\n        uint256 alreadyReleased\n    ) private view returns (uint256) {\n        return (totalReceived * _shares[account]) / _totalShares - alreadyReleased;\n    }\n\n    /**\n     * @dev Add a new payee to the contract.\n     * @param account The address of the payee to add.\n     * @param shares_ The number of shares owned by the payee.\n     */\n    function _addPayee(address account, uint256 shares_) private {\n        require(account != address(0), \"PaymentSplitter: account is the zero address\");\n        require(shares_ > 0, \"PaymentSplitter: shares are 0\");\n        require(_shares[account] == 0, \"PaymentSplitter: account already has shares\");\n\n        _payees.push(account);\n        _shares[account] = shares_;\n        _totalShares = _totalShares + shares_;\n        emit PayeeAdded(account, shares_);\n    }\n}\n",
  "sourcePath": "contracts/OpenZepellin/contracts/finance/PaymentSplitter.sol",
  "type": "contract"
}