{
  "abi": [
    {
      "inputs": [],
      "stateMutability": "payable",
      "type": "constructor"
    },
    {
      "inputs": [
        {
          "internalType": "address",
          "name": "dest",
          "type": "address"
        },
        {
          "internalType": "uint256",
          "name": "amount",
          "type": "uint256"
        }
      ],
      "name": "callTransfer",
      "outputs": [],
      "stateMutability": "nonpayable",
      "type": "function"
    },
    {
      "inputs": [
        {
          "internalType": "address",
          "name": "dest",
          "type": "address"
        }
      ],
      "name": "payments",
      "outputs": [
        {
          "internalType": "uint256",
          "name": "",
          "type": "uint256"
        }
      ],
      "stateMutability": "view",
      "type": "function"
    },
    {
      "inputs": [
        {
          "internalType": "address payable",
          "name": "payee",
          "type": "address"
        }
      ],
      "name": "withdrawPayments",
      "outputs": [],
      "stateMutability": "nonpayable",
      "type": "function"
    }
  ],
  "bytecode": "60a060405260405161001090610042565b604051809103906000f08015801561002c573d6000803e3d6000fd5b5060601b6001600160601b03191660805261004f565b6105f28061037583390190565b60805160601c6102fb61007a6000396000818160b20152818161014101526101e201526102fb6000f3fe608060405234801561001057600080fd5b50600436106100415760003560e01c806331b3eb9414610046578063d44409911461005b578063e2982c211461006e575b600080fd5b610059610054366004610244565b610093565b005b610059610069366004610268565b610111565b61008161007c366004610244565b61011f565b60405190815260200160405180910390f35b6040516351cff8d960e01b81526001600160a01b0382811660048301527f000000000000000000000000000000000000000000000000000000000000000016906351cff8d990602401600060405180830381600087803b1580156100f657600080fd5b505af115801561010a573d6000803e3d6000fd5b5050505050565b61011b82826101c3565b5050565b6040516371d4ed8d60e11b81526001600160a01b0382811660048301526000917f00000000000000000000000000000000000000000000000000000000000000009091169063e3a9db1a9060240160206040518083038186803b15801561018557600080fd5b505afa158015610199573d6000803e3d6000fd5b505050506040513d601f19601f820116820180604052508101906101bd9190610294565b92915050565b60405163f340fa0160e01b81526001600160a01b0383811660048301527f0000000000000000000000000000000000000000000000000000000000000000169063f340fa019083906024016000604051808303818588803b15801561022757600080fd5b505af115801561023b573d6000803e3d6000fd5b50505050505050565b60006020828403121561025657600080fd5b8135610261816102ad565b9392505050565b6000806040838503121561027b57600080fd5b8235610286816102ad565b946020939093013593505050565b6000602082840312156102a657600080fd5b5051919050565b6001600160a01b03811681146102c257600080fd5b5056fea2646970667358221220f6eea3ddc36c33f1ce1c593f8db6cccd17d630b3bc1edd857b186d3d0a3b02e564736f6c63430008060033608060405234801561001057600080fd5b5061001a3361001f565b61006f565b600080546001600160a01b038381166001600160a01b0319831681178455604051919092169283917f8be0079c531659141344cd1fd0a4f28419497f9722a3daafe3b4186f6b6457e09190a35050565b6105748061007e6000396000f3fe6080604052600436106100555760003560e01c806351cff8d91461005a578063715018a61461007c5780638da5cb5b14610091578063e3a9db1a146100be578063f2fde38b14610102578063f340fa0114610122575b600080fd5b34801561006657600080fd5b5061007a6100753660046104aa565b610135565b005b34801561008857600080fd5b5061007a6101d7565b34801561009d57600080fd5b506000546040516001600160a01b0390911681526020015b60405180910390f35b3480156100ca57600080fd5b506100f46100d93660046104aa565b6001600160a01b031660009081526001602052604090205490565b6040519081526020016100b5565b34801561010e57600080fd5b5061007a61011d3660046104aa565b61020d565b61007a6101303660046104aa565b6102a8565b6000546001600160a01b031633146101685760405162461bcd60e51b815260040161015f906104ce565b60405180910390fd5b6001600160a01b0381166000818152600160205260408120805491905590610190908261033c565b816001600160a01b03167f7084f5476618d8e60b11ef0d7d3f06914655adb8793e28ff7f018d4c76d505d5826040516101cb91815260200190565b60405180910390a25050565b6000546001600160a01b031633146102015760405162461bcd60e51b815260040161015f906104ce565b61020b600061045a565b565b6000546001600160a01b031633146102375760405162461bcd60e51b815260040161015f906104ce565b6001600160a01b03811661029c5760405162461bcd60e51b815260206004820152602660248201527f4f776e61626c653a206e6577206f776e657220697320746865207a65726f206160448201526564647265737360d01b606482015260840161015f565b6102a58161045a565b50565b6000546001600160a01b031633146102d25760405162461bcd60e51b815260040161015f906104ce565b6001600160a01b0381166000908152600160205260408120805434928392916102fc908490610503565b90915550506040518181526001600160a01b038316907f2da466a7b24304f47e87fa2e1e5a81b9831ce54fec19055ce277ca2f39ba42c4906020016101cb565b8047101561038c5760405162461bcd60e51b815260206004820152601d60248201527f416464726573733a20696e73756666696369656e742062616c616e6365000000604482015260640161015f565b6000826001600160a01b03168260405160006040518083038185875af1925050503d80600081146103d9576040519150601f19603f3d011682016040523d82523d6000602084013e6103de565b606091505b50509050806104555760405162461bcd60e51b815260206004820152603a60248201527f416464726573733a20756e61626c6520746f2073656e642076616c75652c207260448201527f6563697069656e74206d61792068617665207265766572746564000000000000606482015260840161015f565b505050565b600080546001600160a01b038381166001600160a01b0319831681178455604051919092169283917f8be0079c531659141344cd1fd0a4f28419497f9722a3daafe3b4186f6b6457e09190a35050565b6000602082840312156104bc57600080fd5b81356104c781610529565b9392505050565b6020808252818101527f4f776e61626c653a2063616c6c6572206973206e6f7420746865206f776e6572604082015260600190565b6000821982111561052457634e487b7160e01b600052601160045260246000fd5b500190565b6001600160a01b03811681146102a557600080fdfea26469706673582212205f3afd68fbb794fc9ad97e54888e38ce4350773d15a9ee55e4a0701ec2d589b764736f6c63430008060033",
  "bytecodeSha1": "5dbc07573102f45e8a4b565993aa1e99f7856e73",
  "compiler": {
    "evm_version": "istanbul",
    "optimizer": {
      "enabled": true,
      "runs": 200
    },
    "version": "0.8.6+commit.11564f7e"
  },
  "contractName": "PullPaymentMock",
  "language": "Solidity",
  "natspec": {
    "kind": "dev",
    "methods": {
      "payments(address)": {
        "details": "Returns the payments owed to an address.",
        "params": {
          "dest": "The creditor's address."
        }
      },
      "withdrawPayments(address)": {
        "details": "Withdraw accumulated payments, forwarding all gas to the recipient. Note that _any_ account can call this function, not just the `payee`. This means that contracts unaware of the `PullPayment` protocol can still receive funds this way, by having a separate account call {withdrawPayments}. WARNING: Forwarding all gas opens the door to reentrancy vulnerabilities. Make sure you trust the recipient, or are either following the checks-effects-interactions pattern or using {ReentrancyGuard}.",
        "params": {
          "payee": "Whose payments will be withdrawn."
        }
      }
    },
    "version": 1
  },
  "opcodes": "PUSH1 0x80 PUSH1 0x40 MSTORE CALLVALUE DUP1 ISZERO PUSH2 0x10 JUMPI PUSH1 0x0 DUP1 REVERT JUMPDEST POP PUSH1 0x4 CALLDATASIZE LT PUSH2 0x41 JUMPI PUSH1 0x0 CALLDATALOAD PUSH1 0xE0 SHR DUP1 PUSH4 0x31B3EB94 EQ PUSH2 0x46 JUMPI DUP1 PUSH4 0xD4440991 EQ PUSH2 0x5B JUMPI DUP1 PUSH4 0xE2982C21 EQ PUSH2 0x6E JUMPI JUMPDEST PUSH1 0x0 DUP1 REVERT JUMPDEST PUSH2 0x59 PUSH2 0x54 CALLDATASIZE PUSH1 0x4 PUSH2 0x244 JUMP JUMPDEST PUSH2 0x93 JUMP JUMPDEST STOP JUMPDEST PUSH2 0x59 PUSH2 0x69 CALLDATASIZE PUSH1 0x4 PUSH2 0x268 JUMP JUMPDEST PUSH2 0x111 JUMP JUMPDEST PUSH2 0x81 PUSH2 0x7C CALLDATASIZE PUSH1 0x4 PUSH2 0x244 JUMP JUMPDEST PUSH2 0x11F JUMP JUMPDEST PUSH1 0x40 MLOAD SWAP1 DUP2 MSTORE PUSH1 0x20 ADD PUSH1 0x40 MLOAD DUP1 SWAP2 SUB SWAP1 RETURN JUMPDEST PUSH1 0x40 MLOAD PUSH4 0x51CFF8D9 PUSH1 0xE0 SHL DUP2 MSTORE PUSH1 0x1 PUSH1 0x1 PUSH1 0xA0 SHL SUB DUP3 DUP2 AND PUSH1 0x4 DUP4 ADD MSTORE PUSH32 0x0 AND SWAP1 PUSH4 0x51CFF8D9 SWAP1 PUSH1 0x24 ADD PUSH1 0x0 PUSH1 0x40 MLOAD DUP1 DUP4 SUB DUP2 PUSH1 0x0 DUP8 DUP1 EXTCODESIZE ISZERO DUP1 ISZERO PUSH2 0xF6 JUMPI PUSH1 0x0 DUP1 REVERT JUMPDEST POP GAS CALL ISZERO DUP1 ISZERO PUSH2 0x10A JUMPI RETURNDATASIZE PUSH1 0x0 DUP1 RETURNDATACOPY RETURNDATASIZE PUSH1 0x0 REVERT JUMPDEST POP POP POP POP POP JUMP JUMPDEST PUSH2 0x11B DUP3 DUP3 PUSH2 0x1C3 JUMP JUMPDEST POP POP JUMP JUMPDEST PUSH1 0x40 MLOAD PUSH4 0x71D4ED8D PUSH1 0xE1 SHL DUP2 MSTORE PUSH1 0x1 PUSH1 0x1 PUSH1 0xA0 SHL SUB DUP3 DUP2 AND PUSH1 0x4 DUP4 ADD MSTORE PUSH1 0x0 SWAP2 PUSH32 0x0 SWAP1 SWAP2 AND SWAP1 PUSH4 0xE3A9DB1A SWAP1 PUSH1 0x24 ADD PUSH1 0x20 PUSH1 0x40 MLOAD DUP1 DUP4 SUB DUP2 DUP7 DUP1 EXTCODESIZE ISZERO DUP1 ISZERO PUSH2 0x185 JUMPI PUSH1 0x0 DUP1 REVERT JUMPDEST POP GAS STATICCALL ISZERO DUP1 ISZERO PUSH2 0x199 JUMPI RETURNDATASIZE PUSH1 0x0 DUP1 RETURNDATACOPY RETURNDATASIZE PUSH1 0x0 REVERT JUMPDEST POP POP POP POP PUSH1 0x40 MLOAD RETURNDATASIZE PUSH1 0x1F NOT PUSH1 0x1F DUP3 ADD AND DUP3 ADD DUP1 PUSH1 0x40 MSTORE POP DUP2 ADD SWAP1 PUSH2 0x1BD SWAP2 SWAP1 PUSH2 0x294 JUMP JUMPDEST SWAP3 SWAP2 POP POP JUMP JUMPDEST PUSH1 0x40 MLOAD PUSH4 0xF340FA01 PUSH1 0xE0 SHL DUP2 MSTORE PUSH1 0x1 PUSH1 0x1 PUSH1 0xA0 SHL SUB DUP4 DUP2 AND PUSH1 0x4 DUP4 ADD MSTORE PUSH32 0x0 AND SWAP1 PUSH4 0xF340FA01 SWAP1 DUP4 SWAP1 PUSH1 0x24 ADD PUSH1 0x0 PUSH1 0x40 MLOAD DUP1 DUP4 SUB DUP2 DUP6 DUP9 DUP1 EXTCODESIZE ISZERO DUP1 ISZERO PUSH2 0x227 JUMPI PUSH1 0x0 DUP1 REVERT JUMPDEST POP GAS CALL ISZERO DUP1 ISZERO PUSH2 0x23B JUMPI RETURNDATASIZE PUSH1 0x0 DUP1 RETURNDATACOPY RETURNDATASIZE PUSH1 0x0 REVERT JUMPDEST POP POP POP POP POP POP POP JUMP JUMPDEST PUSH1 0x0 PUSH1 0x20 DUP3 DUP5 SUB SLT ISZERO PUSH2 0x256 JUMPI PUSH1 0x0 DUP1 REVERT JUMPDEST DUP2 CALLDATALOAD PUSH2 0x261 DUP2 PUSH2 0x2AD JUMP JUMPDEST SWAP4 SWAP3 POP POP POP JUMP JUMPDEST PUSH1 0x0 DUP1 PUSH1 0x40 DUP4 DUP6 SUB SLT ISZERO PUSH2 0x27B JUMPI PUSH1 0x0 DUP1 REVERT JUMPDEST DUP3 CALLDATALOAD PUSH2 0x286 DUP2 PUSH2 0x2AD JUMP JUMPDEST SWAP5 PUSH1 0x20 SWAP4 SWAP1 SWAP4 ADD CALLDATALOAD SWAP4 POP POP POP JUMP JUMPDEST PUSH1 0x0 PUSH1 0x20 DUP3 DUP5 SUB SLT ISZERO PUSH2 0x2A6 JUMPI PUSH1 0x0 DUP1 REVERT JUMPDEST POP MLOAD SWAP2 SWAP1 POP JUMP JUMPDEST PUSH1 0x1 PUSH1 0x1 PUSH1 0xA0 SHL SUB DUP2 AND DUP2 EQ PUSH2 0x2C2 JUMPI PUSH1 0x0 DUP1 REVERT JUMPDEST POP JUMP INVALID LOG2 PUSH5 0x6970667358 0x22 SLT KECCAK256 0xF6 0xEE LOG3 0xDD 0xC3 PUSH13 0x33F1CE1C593F8DB6CCCD17D630 0xB3 0xBC 0x1E 0xDD DUP6 PUSH28 0x186D3D0A3B02E564736F6C6343000806003300000000000000000000 ",
  "sha1": "0510bf2313b3e8e9245f9543618fcd78dd01ead7",
  "source": "// SPDX-License-Identifier: MIT\n\npragma solidity ^0.8.0;\n\nimport \"../security/PullPayment.sol\";\n\n// mock class using PullPayment\ncontract PullPaymentMock is PullPayment {\n    constructor() payable {}\n\n    // test helper function to call asyncTransfer\n    function callTransfer(address dest, uint256 amount) public {\n        _asyncTransfer(dest, amount);\n    }\n}\n",
  "sourcePath": "contracts/OpenZepellin/contracts/mocks/PullPaymentMock.sol",
  "type": "contract"
}