{
  "abi": [
    {
      "inputs": [
        {
          "internalType": "int256",
          "name": "a",
          "type": "int256"
        },
        {
          "internalType": "int256",
          "name": "b",
          "type": "int256"
        }
      ],
      "name": "add",
      "outputs": [
        {
          "internalType": "int256",
          "name": "",
          "type": "int256"
        }
      ],
      "stateMutability": "pure",
      "type": "function"
    },
    {
      "inputs": [
        {
          "internalType": "int256",
          "name": "a",
          "type": "int256"
        },
        {
          "internalType": "int256",
          "name": "b",
          "type": "int256"
        }
      ],
      "name": "div",
      "outputs": [
        {
          "internalType": "int256",
          "name": "",
          "type": "int256"
        }
      ],
      "stateMutability": "pure",
      "type": "function"
    },
    {
      "inputs": [
        {
          "internalType": "int256",
          "name": "a",
          "type": "int256"
        },
        {
          "internalType": "int256",
          "name": "b",
          "type": "int256"
        }
      ],
      "name": "mul",
      "outputs": [
        {
          "internalType": "int256",
          "name": "",
          "type": "int256"
        }
      ],
      "stateMutability": "pure",
      "type": "function"
    },
    {
      "inputs": [
        {
          "internalType": "int256",
          "name": "a",
          "type": "int256"
        },
        {
          "internalType": "int256",
          "name": "b",
          "type": "int256"
        }
      ],
      "name": "sub",
      "outputs": [
        {
          "internalType": "int256",
          "name": "",
          "type": "int256"
        }
      ],
      "stateMutability": "pure",
      "type": "function"
    }
  ],
  "bytecode": "608060405234801561001057600080fd5b506102c5806100206000396000f3fe608060405234801561001057600080fd5b506004361061004c5760003560e01c80634350913814610051578063a5f3c23b14610076578063adefc37b14610089578063bbe93d911461009c575b600080fd5b61006461005f366004610116565b6100af565b60405190815260200160405180910390f35b610064610084366004610116565b6100c2565b610064610097366004610116565b6100ce565b6100646100aa366004610116565b6100da565b60006100bb83836100e6565b9392505050565b60006100bb83836100f2565b60006100bb83836100fe565b60006100bb838361010a565b60006100bb8284610179565b60006100bb8284610138565b60006100bb828461023a565b60006100bb82846101b5565b6000806040838503121561012957600080fd5b50508035926020909101359150565b600080821280156001600160ff1b038490038513161561015a5761015a610279565b600160ff1b839003841281161561017357610173610279565b50500190565b60008261019657634e487b7160e01b600052601260045260246000fd5b600160ff1b8214600019841416156101b0576101b0610279565b500590565b60006001600160ff1b03818413828413808216868404861116156101db576101db610279565b600160ff1b60008712828116878305891216156101fa576101fa610279565b6000871292508782058712848416161561021657610216610279565b8785058712818416161561022c5761022c610279565b505050929093029392505050565b60008083128015600160ff1b85018412161561025857610258610279565b6001600160ff1b038401831381161561027357610273610279565b50500390565b634e487b7160e01b600052601160045260246000fdfea26469706673582212202def33a99c589ad290a42c6def2011ec8e618e4138cadba06d7a0539aec8e2f364736f6c63430008060033",
  "bytecodeSha1": "efeb62fb0c1d6ed1fca16e67c81c6ad796b14caa",
  "compiler": {
    "evm_version": "istanbul",
    "optimizer": {
      "enabled": true,
      "runs": 200
    },
    "version": "0.8.6+commit.11564f7e"
  },
  "contractName": "SignedSafeMathMock",
  "language": "Solidity",
  "natspec": {
    "kind": "dev",
    "methods": {},
    "version": 1
  },
  "opcodes": "PUSH1 0x80 PUSH1 0x40 MSTORE CALLVALUE DUP1 ISZERO PUSH2 0x10 JUMPI PUSH1 0x0 DUP1 REVERT JUMPDEST POP PUSH1 0x4 CALLDATASIZE LT PUSH2 0x4C JUMPI PUSH1 0x0 CALLDATALOAD PUSH1 0xE0 SHR DUP1 PUSH4 0x43509138 EQ PUSH2 0x51 JUMPI DUP1 PUSH4 0xA5F3C23B EQ PUSH2 0x76 JUMPI DUP1 PUSH4 0xADEFC37B EQ PUSH2 0x89 JUMPI DUP1 PUSH4 0xBBE93D91 EQ PUSH2 0x9C JUMPI JUMPDEST PUSH1 0x0 DUP1 REVERT JUMPDEST PUSH2 0x64 PUSH2 0x5F CALLDATASIZE PUSH1 0x4 PUSH2 0x116 JUMP JUMPDEST PUSH2 0xAF JUMP JUMPDEST PUSH1 0x40 MLOAD SWAP1 DUP2 MSTORE PUSH1 0x20 ADD PUSH1 0x40 MLOAD DUP1 SWAP2 SUB SWAP1 RETURN JUMPDEST PUSH2 0x64 PUSH2 0x84 CALLDATASIZE PUSH1 0x4 PUSH2 0x116 JUMP JUMPDEST PUSH2 0xC2 JUMP JUMPDEST PUSH2 0x64 PUSH2 0x97 CALLDATASIZE PUSH1 0x4 PUSH2 0x116 JUMP JUMPDEST PUSH2 0xCE JUMP JUMPDEST PUSH2 0x64 PUSH2 0xAA CALLDATASIZE PUSH1 0x4 PUSH2 0x116 JUMP JUMPDEST PUSH2 0xDA JUMP JUMPDEST PUSH1 0x0 PUSH2 0xBB DUP4 DUP4 PUSH2 0xE6 JUMP JUMPDEST SWAP4 SWAP3 POP POP POP JUMP JUMPDEST PUSH1 0x0 PUSH2 0xBB DUP4 DUP4 PUSH2 0xF2 JUMP JUMPDEST PUSH1 0x0 PUSH2 0xBB DUP4 DUP4 PUSH2 0xFE JUMP JUMPDEST PUSH1 0x0 PUSH2 0xBB DUP4 DUP4 PUSH2 0x10A JUMP JUMPDEST PUSH1 0x0 PUSH2 0xBB DUP3 DUP5 PUSH2 0x179 JUMP JUMPDEST PUSH1 0x0 PUSH2 0xBB DUP3 DUP5 PUSH2 0x138 JUMP JUMPDEST PUSH1 0x0 PUSH2 0xBB DUP3 DUP5 PUSH2 0x23A JUMP JUMPDEST PUSH1 0x0 PUSH2 0xBB DUP3 DUP5 PUSH2 0x1B5 JUMP JUMPDEST PUSH1 0x0 DUP1 PUSH1 0x40 DUP4 DUP6 SUB SLT ISZERO PUSH2 0x129 JUMPI PUSH1 0x0 DUP1 REVERT JUMPDEST POP POP DUP1 CALLDATALOAD SWAP3 PUSH1 0x20 SWAP1 SWAP2 ADD CALLDATALOAD SWAP2 POP JUMP JUMPDEST PUSH1 0x0 DUP1 DUP3 SLT DUP1 ISZERO PUSH1 0x1 PUSH1 0x1 PUSH1 0xFF SHL SUB DUP5 SWAP1 SUB DUP6 SGT AND ISZERO PUSH2 0x15A JUMPI PUSH2 0x15A PUSH2 0x279 JUMP JUMPDEST PUSH1 0x1 PUSH1 0xFF SHL DUP4 SWAP1 SUB DUP5 SLT DUP2 AND ISZERO PUSH2 0x173 JUMPI PUSH2 0x173 PUSH2 0x279 JUMP JUMPDEST POP POP ADD SWAP1 JUMP JUMPDEST PUSH1 0x0 DUP3 PUSH2 0x196 JUMPI PUSH4 0x4E487B71 PUSH1 0xE0 SHL PUSH1 0x0 MSTORE PUSH1 0x12 PUSH1 0x4 MSTORE PUSH1 0x24 PUSH1 0x0 REVERT JUMPDEST PUSH1 0x1 PUSH1 0xFF SHL DUP3 EQ PUSH1 0x0 NOT DUP5 EQ AND ISZERO PUSH2 0x1B0 JUMPI PUSH2 0x1B0 PUSH2 0x279 JUMP JUMPDEST POP SDIV SWAP1 JUMP JUMPDEST PUSH1 0x0 PUSH1 0x1 PUSH1 0x1 PUSH1 0xFF SHL SUB DUP2 DUP5 SGT DUP3 DUP5 SGT DUP1 DUP3 AND DUP7 DUP5 DIV DUP7 GT AND ISZERO PUSH2 0x1DB JUMPI PUSH2 0x1DB PUSH2 0x279 JUMP JUMPDEST PUSH1 0x1 PUSH1 0xFF SHL PUSH1 0x0 DUP8 SLT DUP3 DUP2 AND DUP8 DUP4 SDIV DUP10 SLT AND ISZERO PUSH2 0x1FA JUMPI PUSH2 0x1FA PUSH2 0x279 JUMP JUMPDEST PUSH1 0x0 DUP8 SLT SWAP3 POP DUP8 DUP3 SDIV DUP8 SLT DUP5 DUP5 AND AND ISZERO PUSH2 0x216 JUMPI PUSH2 0x216 PUSH2 0x279 JUMP JUMPDEST DUP8 DUP6 SDIV DUP8 SLT DUP2 DUP5 AND AND ISZERO PUSH2 0x22C JUMPI PUSH2 0x22C PUSH2 0x279 JUMP JUMPDEST POP POP POP SWAP3 SWAP1 SWAP4 MUL SWAP4 SWAP3 POP POP POP JUMP JUMPDEST PUSH1 0x0 DUP1 DUP4 SLT DUP1 ISZERO PUSH1 0x1 PUSH1 0xFF SHL DUP6 ADD DUP5 SLT AND ISZERO PUSH2 0x258 JUMPI PUSH2 0x258 PUSH2 0x279 JUMP JUMPDEST PUSH1 0x1 PUSH1 0x1 PUSH1 0xFF SHL SUB DUP5 ADD DUP4 SGT DUP2 AND ISZERO PUSH2 0x273 JUMPI PUSH2 0x273 PUSH2 0x279 JUMP JUMPDEST POP POP SUB SWAP1 JUMP JUMPDEST PUSH4 0x4E487B71 PUSH1 0xE0 SHL PUSH1 0x0 MSTORE PUSH1 0x11 PUSH1 0x4 MSTORE PUSH1 0x24 PUSH1 0x0 REVERT INVALID LOG2 PUSH5 0x6970667358 0x22 SLT KECCAK256 0x2D 0xEF CALLER 0xA9 SWAP13 PC SWAP11 0xD2 SWAP1 LOG4 0x2C PUSH14 0xEF2011EC8E618E4138CADBA06D7A SDIV CODECOPY 0xAE 0xC8 0xE2 RETURN PUSH5 0x736F6C6343 STOP ADDMOD MOD STOP CALLER ",
  "sha1": "3a20d6313b2ca73add13fe1d8d3516b80b318868",
  "source": "// SPDX-License-Identifier: MIT\n\npragma solidity ^0.8.0;\n\nimport \"../utils/math/SignedSafeMath.sol\";\n\ncontract SignedSafeMathMock {\n    function mul(int256 a, int256 b) public pure returns (int256) {\n        return SignedSafeMath.mul(a, b);\n    }\n\n    function div(int256 a, int256 b) public pure returns (int256) {\n        return SignedSafeMath.div(a, b);\n    }\n\n    function sub(int256 a, int256 b) public pure returns (int256) {\n        return SignedSafeMath.sub(a, b);\n    }\n\n    function add(int256 a, int256 b) public pure returns (int256) {\n        return SignedSafeMath.add(a, b);\n    }\n}\n",
  "sourcePath": "contracts/OpenZepellin/contracts/mocks/SignedSafeMathMock.sol",
  "type": "contract"
}