{
  "abi": [
    {
      "inputs": [
        {
          "internalType": "uint256",
          "name": "value",
          "type": "uint256"
        }
      ],
      "name": "fromUint256",
      "outputs": [
        {
          "internalType": "string",
          "name": "",
          "type": "string"
        }
      ],
      "stateMutability": "pure",
      "type": "function"
    },
    {
      "inputs": [
        {
          "internalType": "uint256",
          "name": "value",
          "type": "uint256"
        }
      ],
      "name": "fromUint256Hex",
      "outputs": [
        {
          "internalType": "string",
          "name": "",
          "type": "string"
        }
      ],
      "stateMutability": "pure",
      "type": "function"
    },
    {
      "inputs": [
        {
          "internalType": "uint256",
          "name": "value",
          "type": "uint256"
        },
        {
          "internalType": "uint256",
          "name": "length",
          "type": "uint256"
        }
      ],
      "name": "fromUint256HexFixed",
      "outputs": [
        {
          "internalType": "string",
          "name": "",
          "type": "string"
        }
      ],
      "stateMutability": "pure",
      "type": "function"
    }
  ],
  "bytecode": "608060405234801561001057600080fd5b50610584806100206000396000f3fe608060405234801561001057600080fd5b50600436106100415760003560e01c806302c5b75f1461004657806392b0ed1a1461006f578063a2bd364414610082575b600080fd5b6100596100543660046103be565b610095565b60405161006691906103f9565b60405180910390f35b61005961007d3660046103d7565b6100a6565b6100596100903660046103be565b6100b9565b60606100a0826100c4565b92915050565b60606100b28383610120565b9392505050565b60606100a0826102c0565b6060816100eb5750506040805180820190915260048152630307830360e41b602082015290565b8160005b811561010e57806100ff816104c7565b915050600882901c91506100ef565b6101188482610120565b949350505050565b6060600061012f83600261047a565b61013a90600261044e565b67ffffffffffffffff81111561015257610152610538565b6040519080825280601f01601f19166020018201604052801561017c576020820181803683370190505b509050600360fc1b8160008151811061019757610197610522565b60200101906001600160f81b031916908160001a905350600f60fb1b816001815181106101c6576101c6610522565b60200101906001600160f81b031916908160001a90535060006101ea84600261047a565b6101f590600161044e565b90505b600181111561026d576f181899199a1a9b1b9c1cb0b131b232b360811b85600f166010811061022957610229610522565b1a60f81b82828151811061023f5761023f610522565b60200101906001600160f81b031916908160001a90535060049490941c93610266816104b0565b90506101f8565b5083156100b25760405162461bcd60e51b815260206004820181905260248201527f537472696e67733a20686578206c656e67746820696e73756666696369656e74604482015260640160405180910390fd5b6060816102e45750506040805180820190915260018152600360fc1b602082015290565b8160005b811561030e57806102f8816104c7565b91506103079050600a83610466565b91506102e8565b60008167ffffffffffffffff81111561032957610329610538565b6040519080825280601f01601f191660200182016040528015610353576020820181803683370190505b5090505b841561011857610368600183610499565b9150610375600a866104e2565b61038090603061044e565b60f81b81838151811061039557610395610522565b60200101906001600160f81b031916908160001a9053506103b7600a86610466565b9450610357565b6000602082840312156103d057600080fd5b5035919050565b600080604083850312156103ea57600080fd5b50508035926020909101359150565b600060208083528351808285015260005b818110156104265785810183015185820160400152820161040a565b81811115610438576000604083870101525b50601f01601f1916929092016040019392505050565b60008219821115610461576104616104f6565b500190565b6000826104755761047561050c565b500490565b6000816000190483118215151615610494576104946104f6565b500290565b6000828210156104ab576104ab6104f6565b500390565b6000816104bf576104bf6104f6565b506000190190565b60006000198214156104db576104db6104f6565b5060010190565b6000826104f1576104f161050c565b500690565b634e487b7160e01b600052601160045260246000fd5b634e487b7160e01b600052601260045260246000fd5b634e487b7160e01b600052603260045260246000fd5b634e487b7160e01b600052604160045260246000fdfea264697066735822122075f2eee0ef6f84388514af68ccdacc4341c4bbbaed2760a053522eafee00929b64736f6c63430008060033",
  "bytecodeSha1": "d46e6ccdd188e8963d40106597f9a7c7cddd453a",
  "compiler": {
    "evm_version": "istanbul",
    "optimizer": {
      "enabled": true,
      "runs": 200
    },
    "version": "0.8.6+commit.11564f7e"
  },
  "contractName": "StringsMock",
  "language": "Solidity",
  "natspec": {
    "kind": "dev",
    "methods": {},
    "version": 1
  },
  "opcodes": "PUSH1 0x80 PUSH1 0x40 MSTORE CALLVALUE DUP1 ISZERO PUSH2 0x10 JUMPI PUSH1 0x0 DUP1 REVERT JUMPDEST POP PUSH1 0x4 CALLDATASIZE LT PUSH2 0x41 JUMPI PUSH1 0x0 CALLDATALOAD PUSH1 0xE0 SHR DUP1 PUSH4 0x2C5B75F EQ PUSH2 0x46 JUMPI DUP1 PUSH4 0x92B0ED1A EQ PUSH2 0x6F JUMPI DUP1 PUSH4 0xA2BD3644 EQ PUSH2 0x82 JUMPI JUMPDEST PUSH1 0x0 DUP1 REVERT JUMPDEST PUSH2 0x59 PUSH2 0x54 CALLDATASIZE PUSH1 0x4 PUSH2 0x3BE JUMP JUMPDEST PUSH2 0x95 JUMP JUMPDEST PUSH1 0x40 MLOAD PUSH2 0x66 SWAP2 SWAP1 PUSH2 0x3F9 JUMP JUMPDEST PUSH1 0x40 MLOAD DUP1 SWAP2 SUB SWAP1 RETURN JUMPDEST PUSH2 0x59 PUSH2 0x7D CALLDATASIZE PUSH1 0x4 PUSH2 0x3D7 JUMP JUMPDEST PUSH2 0xA6 JUMP JUMPDEST PUSH2 0x59 PUSH2 0x90 CALLDATASIZE PUSH1 0x4 PUSH2 0x3BE JUMP JUMPDEST PUSH2 0xB9 JUMP JUMPDEST PUSH1 0x60 PUSH2 0xA0 DUP3 PUSH2 0xC4 JUMP JUMPDEST SWAP3 SWAP2 POP POP JUMP JUMPDEST PUSH1 0x60 PUSH2 0xB2 DUP4 DUP4 PUSH2 0x120 JUMP JUMPDEST SWAP4 SWAP3 POP POP POP JUMP JUMPDEST PUSH1 0x60 PUSH2 0xA0 DUP3 PUSH2 0x2C0 JUMP JUMPDEST PUSH1 0x60 DUP2 PUSH2 0xEB JUMPI POP POP PUSH1 0x40 DUP1 MLOAD DUP1 DUP3 ADD SWAP1 SWAP2 MSTORE PUSH1 0x4 DUP2 MSTORE PUSH4 0x3078303 PUSH1 0xE4 SHL PUSH1 0x20 DUP3 ADD MSTORE SWAP1 JUMP JUMPDEST DUP2 PUSH1 0x0 JUMPDEST DUP2 ISZERO PUSH2 0x10E JUMPI DUP1 PUSH2 0xFF DUP2 PUSH2 0x4C7 JUMP JUMPDEST SWAP2 POP POP PUSH1 0x8 DUP3 SWAP1 SHR SWAP2 POP PUSH2 0xEF JUMP JUMPDEST PUSH2 0x118 DUP5 DUP3 PUSH2 0x120 JUMP JUMPDEST SWAP5 SWAP4 POP POP POP POP JUMP JUMPDEST PUSH1 0x60 PUSH1 0x0 PUSH2 0x12F DUP4 PUSH1 0x2 PUSH2 0x47A JUMP JUMPDEST PUSH2 0x13A SWAP1 PUSH1 0x2 PUSH2 0x44E JUMP JUMPDEST PUSH8 0xFFFFFFFFFFFFFFFF DUP2 GT ISZERO PUSH2 0x152 JUMPI PUSH2 0x152 PUSH2 0x538 JUMP JUMPDEST PUSH1 0x40 MLOAD SWAP1 DUP1 DUP3 MSTORE DUP1 PUSH1 0x1F ADD PUSH1 0x1F NOT AND PUSH1 0x20 ADD DUP3 ADD PUSH1 0x40 MSTORE DUP1 ISZERO PUSH2 0x17C JUMPI PUSH1 0x20 DUP3 ADD DUP2 DUP1 CALLDATASIZE DUP4 CALLDATACOPY ADD SWAP1 POP JUMPDEST POP SWAP1 POP PUSH1 0x3 PUSH1 0xFC SHL DUP2 PUSH1 0x0 DUP2 MLOAD DUP2 LT PUSH2 0x197 JUMPI PUSH2 0x197 PUSH2 0x522 JUMP JUMPDEST PUSH1 0x20 ADD ADD SWAP1 PUSH1 0x1 PUSH1 0x1 PUSH1 0xF8 SHL SUB NOT AND SWAP1 DUP2 PUSH1 0x0 BYTE SWAP1 MSTORE8 POP PUSH1 0xF PUSH1 0xFB SHL DUP2 PUSH1 0x1 DUP2 MLOAD DUP2 LT PUSH2 0x1C6 JUMPI PUSH2 0x1C6 PUSH2 0x522 JUMP JUMPDEST PUSH1 0x20 ADD ADD SWAP1 PUSH1 0x1 PUSH1 0x1 PUSH1 0xF8 SHL SUB NOT AND SWAP1 DUP2 PUSH1 0x0 BYTE SWAP1 MSTORE8 POP PUSH1 0x0 PUSH2 0x1EA DUP5 PUSH1 0x2 PUSH2 0x47A JUMP JUMPDEST PUSH2 0x1F5 SWAP1 PUSH1 0x1 PUSH2 0x44E JUMP JUMPDEST SWAP1 POP JUMPDEST PUSH1 0x1 DUP2 GT ISZERO PUSH2 0x26D JUMPI PUSH16 0x181899199A1A9B1B9C1CB0B131B232B3 PUSH1 0x81 SHL DUP6 PUSH1 0xF AND PUSH1 0x10 DUP2 LT PUSH2 0x229 JUMPI PUSH2 0x229 PUSH2 0x522 JUMP JUMPDEST BYTE PUSH1 0xF8 SHL DUP3 DUP3 DUP2 MLOAD DUP2 LT PUSH2 0x23F JUMPI PUSH2 0x23F PUSH2 0x522 JUMP JUMPDEST PUSH1 0x20 ADD ADD SWAP1 PUSH1 0x1 PUSH1 0x1 PUSH1 0xF8 SHL SUB NOT AND SWAP1 DUP2 PUSH1 0x0 BYTE SWAP1 MSTORE8 POP PUSH1 0x4 SWAP5 SWAP1 SWAP5 SHR SWAP4 PUSH2 0x266 DUP2 PUSH2 0x4B0 JUMP JUMPDEST SWAP1 POP PUSH2 0x1F8 JUMP JUMPDEST POP DUP4 ISZERO PUSH2 0xB2 JUMPI PUSH1 0x40 MLOAD PUSH3 0x461BCD PUSH1 0xE5 SHL DUP2 MSTORE PUSH1 0x20 PUSH1 0x4 DUP3 ADD DUP2 SWAP1 MSTORE PUSH1 0x24 DUP3 ADD MSTORE PUSH32 0x537472696E67733A20686578206C656E67746820696E73756666696369656E74 PUSH1 0x44 DUP3 ADD MSTORE PUSH1 0x64 ADD PUSH1 0x40 MLOAD DUP1 SWAP2 SUB SWAP1 REVERT JUMPDEST PUSH1 0x60 DUP2 PUSH2 0x2E4 JUMPI POP POP PUSH1 0x40 DUP1 MLOAD DUP1 DUP3 ADD SWAP1 SWAP2 MSTORE PUSH1 0x1 DUP2 MSTORE PUSH1 0x3 PUSH1 0xFC SHL PUSH1 0x20 DUP3 ADD MSTORE SWAP1 JUMP JUMPDEST DUP2 PUSH1 0x0 JUMPDEST DUP2 ISZERO PUSH2 0x30E JUMPI DUP1 PUSH2 0x2F8 DUP2 PUSH2 0x4C7 JUMP JUMPDEST SWAP2 POP PUSH2 0x307 SWAP1 POP PUSH1 0xA DUP4 PUSH2 0x466 JUMP JUMPDEST SWAP2 POP PUSH2 0x2E8 JUMP JUMPDEST PUSH1 0x0 DUP2 PUSH8 0xFFFFFFFFFFFFFFFF DUP2 GT ISZERO PUSH2 0x329 JUMPI PUSH2 0x329 PUSH2 0x538 JUMP JUMPDEST PUSH1 0x40 MLOAD SWAP1 DUP1 DUP3 MSTORE DUP1 PUSH1 0x1F ADD PUSH1 0x1F NOT AND PUSH1 0x20 ADD DUP3 ADD PUSH1 0x40 MSTORE DUP1 ISZERO PUSH2 0x353 JUMPI PUSH1 0x20 DUP3 ADD DUP2 DUP1 CALLDATASIZE DUP4 CALLDATACOPY ADD SWAP1 POP JUMPDEST POP SWAP1 POP JUMPDEST DUP5 ISZERO PUSH2 0x118 JUMPI PUSH2 0x368 PUSH1 0x1 DUP4 PUSH2 0x499 JUMP JUMPDEST SWAP2 POP PUSH2 0x375 PUSH1 0xA DUP7 PUSH2 0x4E2 JUMP JUMPDEST PUSH2 0x380 SWAP1 PUSH1 0x30 PUSH2 0x44E JUMP JUMPDEST PUSH1 0xF8 SHL DUP2 DUP4 DUP2 MLOAD DUP2 LT PUSH2 0x395 JUMPI PUSH2 0x395 PUSH2 0x522 JUMP JUMPDEST PUSH1 0x20 ADD ADD SWAP1 PUSH1 0x1 PUSH1 0x1 PUSH1 0xF8 SHL SUB NOT AND SWAP1 DUP2 PUSH1 0x0 BYTE SWAP1 MSTORE8 POP PUSH2 0x3B7 PUSH1 0xA DUP7 PUSH2 0x466 JUMP JUMPDEST SWAP5 POP PUSH2 0x357 JUMP JUMPDEST PUSH1 0x0 PUSH1 0x20 DUP3 DUP5 SUB SLT ISZERO PUSH2 0x3D0 JUMPI PUSH1 0x0 DUP1 REVERT JUMPDEST POP CALLDATALOAD SWAP2 SWAP1 POP JUMP JUMPDEST PUSH1 0x0 DUP1 PUSH1 0x40 DUP4 DUP6 SUB SLT ISZERO PUSH2 0x3EA JUMPI PUSH1 0x0 DUP1 REVERT JUMPDEST POP POP DUP1 CALLDATALOAD SWAP3 PUSH1 0x20 SWAP1 SWAP2 ADD CALLDATALOAD SWAP2 POP JUMP JUMPDEST PUSH1 0x0 PUSH1 0x20 DUP1 DUP4 MSTORE DUP4 MLOAD DUP1 DUP3 DUP6 ADD MSTORE PUSH1 0x0 JUMPDEST DUP2 DUP2 LT ISZERO PUSH2 0x426 JUMPI DUP6 DUP2 ADD DUP4 ADD MLOAD DUP6 DUP3 ADD PUSH1 0x40 ADD MSTORE DUP3 ADD PUSH2 0x40A JUMP JUMPDEST DUP2 DUP2 GT ISZERO PUSH2 0x438 JUMPI PUSH1 0x0 PUSH1 0x40 DUP4 DUP8 ADD ADD MSTORE JUMPDEST POP PUSH1 0x1F ADD PUSH1 0x1F NOT AND SWAP3 SWAP1 SWAP3 ADD PUSH1 0x40 ADD SWAP4 SWAP3 POP POP POP JUMP JUMPDEST PUSH1 0x0 DUP3 NOT DUP3 GT ISZERO PUSH2 0x461 JUMPI PUSH2 0x461 PUSH2 0x4F6 JUMP JUMPDEST POP ADD SWAP1 JUMP JUMPDEST PUSH1 0x0 DUP3 PUSH2 0x475 JUMPI PUSH2 0x475 PUSH2 0x50C JUMP JUMPDEST POP DIV SWAP1 JUMP JUMPDEST PUSH1 0x0 DUP2 PUSH1 0x0 NOT DIV DUP4 GT DUP3 ISZERO ISZERO AND ISZERO PUSH2 0x494 JUMPI PUSH2 0x494 PUSH2 0x4F6 JUMP JUMPDEST POP MUL SWAP1 JUMP JUMPDEST PUSH1 0x0 DUP3 DUP3 LT ISZERO PUSH2 0x4AB JUMPI PUSH2 0x4AB PUSH2 0x4F6 JUMP JUMPDEST POP SUB SWAP1 JUMP JUMPDEST PUSH1 0x0 DUP2 PUSH2 0x4BF JUMPI PUSH2 0x4BF PUSH2 0x4F6 JUMP JUMPDEST POP PUSH1 0x0 NOT ADD SWAP1 JUMP JUMPDEST PUSH1 0x0 PUSH1 0x0 NOT DUP3 EQ ISZERO PUSH2 0x4DB JUMPI PUSH2 0x4DB PUSH2 0x4F6 JUMP JUMPDEST POP PUSH1 0x1 ADD SWAP1 JUMP JUMPDEST PUSH1 0x0 DUP3 PUSH2 0x4F1 JUMPI PUSH2 0x4F1 PUSH2 0x50C JUMP JUMPDEST POP MOD SWAP1 JUMP JUMPDEST PUSH4 0x4E487B71 PUSH1 0xE0 SHL PUSH1 0x0 MSTORE PUSH1 0x11 PUSH1 0x4 MSTORE PUSH1 0x24 PUSH1 0x0 REVERT JUMPDEST PUSH4 0x4E487B71 PUSH1 0xE0 SHL PUSH1 0x0 MSTORE PUSH1 0x12 PUSH1 0x4 MSTORE PUSH1 0x24 PUSH1 0x0 REVERT JUMPDEST PUSH4 0x4E487B71 PUSH1 0xE0 SHL PUSH1 0x0 MSTORE PUSH1 0x32 PUSH1 0x4 MSTORE PUSH1 0x24 PUSH1 0x0 REVERT JUMPDEST PUSH4 0x4E487B71 PUSH1 0xE0 SHL PUSH1 0x0 MSTORE PUSH1 0x41 PUSH1 0x4 MSTORE PUSH1 0x24 PUSH1 0x0 REVERT INVALID LOG2 PUSH5 0x6970667358 0x22 SLT KECCAK256 PUSH22 0xF2EEE0EF6F84388514AF68CCDACC4341C4BBBAED2760 LOG0 MSTORE8 MSTORE 0x2E 0xAF 0xEE STOP SWAP3 SWAP12 PUSH5 0x736F6C6343 STOP ADDMOD MOD STOP CALLER ",
  "sha1": "56932706281832cf8886fdca511e3938dec2c29c",
  "source": "// SPDX-License-Identifier: MIT\n\npragma solidity ^0.8.0;\n\nimport \"../utils/Strings.sol\";\n\ncontract StringsMock {\n    function fromUint256(uint256 value) public pure returns (string memory) {\n        return Strings.toString(value);\n    }\n\n    function fromUint256Hex(uint256 value) public pure returns (string memory) {\n        return Strings.toHexString(value);\n    }\n\n    function fromUint256HexFixed(uint256 value, uint256 length) public pure returns (string memory) {\n        return Strings.toHexString(value, length);\n    }\n}\n",
  "sourcePath": "contracts/OpenZepellin/contracts/mocks/StringsMock.sol",
  "type": "contract"
}