{
  "abi": [
    {
      "inputs": [
        {
          "internalType": "address",
          "name": "beneficiaryAddress",
          "type": "address"
        },
        {
          "internalType": "uint64",
          "name": "startTimestamp",
          "type": "uint64"
        },
        {
          "internalType": "uint64",
          "name": "durationSeconds",
          "type": "uint64"
        }
      ],
      "stateMutability": "nonpayable",
      "type": "constructor"
    },
    {
      "anonymous": false,
      "inputs": [
        {
          "indexed": true,
          "internalType": "address",
          "name": "token",
          "type": "address"
        },
        {
          "indexed": false,
          "internalType": "uint256",
          "name": "amount",
          "type": "uint256"
        }
      ],
      "name": "ERC20Released",
      "type": "event"
    },
    {
      "anonymous": false,
      "inputs": [
        {
          "indexed": false,
          "internalType": "uint256",
          "name": "amount",
          "type": "uint256"
        }
      ],
      "name": "EtherReleased",
      "type": "event"
    },
    {
      "inputs": [],
      "name": "beneficiary",
      "outputs": [
        {
          "internalType": "address",
          "name": "",
          "type": "address"
        }
      ],
      "stateMutability": "view",
      "type": "function"
    },
    {
      "inputs": [],
      "name": "duration",
      "outputs": [
        {
          "internalType": "uint256",
          "name": "",
          "type": "uint256"
        }
      ],
      "stateMutability": "view",
      "type": "function"
    },
    {
      "inputs": [
        {
          "internalType": "address",
          "name": "token",
          "type": "address"
        }
      ],
      "name": "release",
      "outputs": [],
      "stateMutability": "nonpayable",
      "type": "function"
    },
    {
      "inputs": [],
      "name": "release",
      "outputs": [],
      "stateMutability": "nonpayable",
      "type": "function"
    },
    {
      "inputs": [],
      "name": "released",
      "outputs": [
        {
          "internalType": "uint256",
          "name": "",
          "type": "uint256"
        }
      ],
      "stateMutability": "view",
      "type": "function"
    },
    {
      "inputs": [
        {
          "internalType": "address",
          "name": "token",
          "type": "address"
        }
      ],
      "name": "released",
      "outputs": [
        {
          "internalType": "uint256",
          "name": "",
          "type": "uint256"
        }
      ],
      "stateMutability": "view",
      "type": "function"
    },
    {
      "inputs": [],
      "name": "start",
      "outputs": [
        {
          "internalType": "uint256",
          "name": "",
          "type": "uint256"
        }
      ],
      "stateMutability": "view",
      "type": "function"
    },
    {
      "inputs": [
        {
          "internalType": "uint64",
          "name": "timestamp",
          "type": "uint64"
        }
      ],
      "name": "vestedAmount",
      "outputs": [
        {
          "internalType": "uint256",
          "name": "",
          "type": "uint256"
        }
      ],
      "stateMutability": "view",
      "type": "function"
    },
    {
      "inputs": [
        {
          "internalType": "address",
          "name": "token",
          "type": "address"
        },
        {
          "internalType": "uint64",
          "name": "timestamp",
          "type": "uint64"
        }
      ],
      "name": "vestedAmount",
      "outputs": [
        {
          "internalType": "uint256",
          "name": "",
          "type": "uint256"
        }
      ],
      "stateMutability": "view",
      "type": "function"
    },
    {
      "stateMutability": "payable",
      "type": "receive"
    }
  ],
  "bytecode": "60e060405234801561001057600080fd5b50604051610c8f380380610c8f83398101604081905261002f916100ec565b6001600160a01b03831661009c5760405162461bcd60e51b815260206004820152602a60248201527f56657374696e6757616c6c65743a2062656e6566696369617279206973207a65604482015269726f206164647265737360b01b606482015260840160405180910390fd5b60609290921b6001600160601b03191660805260c090811b6001600160c01b031990811660a05291811b909116905261013d565b80516001600160401b03811681146100e757600080fd5b919050565b60008060006060848603121561010157600080fd5b83516001600160a01b038116811461011857600080fd5b9250610126602085016100d0565b9150610134604085016100d0565b90509250925092565b60805160601c60a05160c01c60c05160c01c610aff6101906000396000818160d80152818161047801526104cd01526000610430015260008181610142015281816102c801526103fd0152610aff6000f3fe60806040526004361061008a5760003560e01c8063810ec23b11610059578063810ec23b1461016c57806386d1a69f1461018c57806396132521146101a15780639852595c146101b6578063be9a6555146101ec57600080fd5b80630a17b06b146100965780630fb5a6b4146100c9578063191655871461010657806338af3eed1461012857600080fd5b3661009157005b600080fd5b3480156100a257600080fd5b506100b66100b13660046109a9565b610201565b6040519081526020015b60405180910390f35b3480156100d557600080fd5b507f000000000000000000000000000000000000000000000000000000000000000067ffffffffffffffff166100b6565b34801561011257600080fd5b50610126610121366004610920565b610225565b005b34801561013457600080fd5b506040516001600160a01b037f00000000000000000000000000000000000000000000000000000000000000001681526020016100c0565b34801561017857600080fd5b506100b661018736600461093b565b6102f1565b34801561019857600080fd5b50610126610396565b3480156101ad57600080fd5b506000546100b6565b3480156101c257600080fd5b506100b66101d1366004610920565b6001600160a01b031660009081526001602052604090205490565b3480156101f857600080fd5b506100b6610425565b600061021f61020f60005490565b6102199047610a13565b83610453565b92915050565b6001600160a01b03811660009081526001602052604081205461024883426102f1565b6102529190610a6c565b6001600160a01b03831660009081526001602052604081208054929350839290919061027f908490610a13565b90915550506040518181526001600160a01b038316907fc0e523490dd523c33b1878c9eb14ff46991e3f5b2cd33710918618f2a39cba1b9060200160405180910390a26102ed827f00000000000000000000000000000000000000000000000000000000000000008361052d565b5050565b6001600160a01b03821660009081526001602052604081205461038f906040516370a0823160e01b81523060048201526001600160a01b038616906370a082319060240160206040518083038186803b15801561034d57600080fd5b505afa158015610361573d6000803e3d6000fd5b505050506040513d601f19601f820116820180604052508101906103859190610990565b6102199190610a13565b9392505050565b600080546103a342610201565b6103ad9190610a6c565b9050806000808282546103c09190610a13565b90915550506040518181527fda9d4e5f101b8b9b1c5b76d0c5a9f7923571acfc02376aa076b75a8c080c956b9060200160405180910390a16104227f000000000000000000000000000000000000000000000000000000000000000082610584565b50565b67ffffffffffffffff7f00000000000000000000000000000000000000000000000000000000000000001690565b600061045d610425565b8267ffffffffffffffff1610156104765750600061021f565b7f000000000000000000000000000000000000000000000000000000000000000067ffffffffffffffff166104a9610425565b6104b39190610a13565b8267ffffffffffffffff1611156104cb57508161021f565b7f000000000000000000000000000000000000000000000000000000000000000067ffffffffffffffff166104fe610425565b6105129067ffffffffffffffff8516610a6c565b61051c9085610a4d565b6105269190610a2b565b905061021f565b604080516001600160a01b038416602482015260448082018490528251808303909101815260649091019091526020810180516001600160e01b031663a9059cbb60e01b17905261057f9084906106a2565b505050565b804710156105d95760405162461bcd60e51b815260206004820152601d60248201527f416464726573733a20696e73756666696369656e742062616c616e636500000060448201526064015b60405180910390fd5b6000826001600160a01b03168260405160006040518083038185875af1925050503d8060008114610626576040519150601f19603f3d011682016040523d82523d6000602084013e61062b565b606091505b505090508061057f5760405162461bcd60e51b815260206004820152603a60248201527f416464726573733a20756e61626c6520746f2073656e642076616c75652c207260448201527f6563697069656e74206d6179206861766520726576657274656400000000000060648201526084016105d0565b60006106f7826040518060400160405280602081526020017f5361666545524332303a206c6f772d6c6576656c2063616c6c206661696c6564815250856001600160a01b03166107749092919063ffffffff16565b80519091501561057f5780806020019051810190610715919061096e565b61057f5760405162461bcd60e51b815260206004820152602a60248201527f5361666545524332303a204552433230206f7065726174696f6e20646964206e6044820152691bdd081cdd58d8d9595960b21b60648201526084016105d0565b6060610783848460008561078b565b949350505050565b6060824710156107ec5760405162461bcd60e51b815260206004820152602660248201527f416464726573733a20696e73756666696369656e742062616c616e636520666f6044820152651c8818d85b1b60d21b60648201526084016105d0565b843b61083a5760405162461bcd60e51b815260206004820152601d60248201527f416464726573733a2063616c6c20746f206e6f6e2d636f6e747261637400000060448201526064016105d0565b600080866001600160a01b0316858760405161085691906109c4565b60006040518083038185875af1925050503d8060008114610893576040519150601f19603f3d011682016040523d82523d6000602084013e610898565b606091505b50915091506108a88282866108b3565b979650505050505050565b606083156108c257508161038f565b8251156108d25782518084602001fd5b8160405162461bcd60e51b81526004016105d091906109e0565b80356001600160a01b038116811461090357600080fd5b919050565b803567ffffffffffffffff8116811461090357600080fd5b60006020828403121561093257600080fd5b61038f826108ec565b6000806040838503121561094e57600080fd5b610957836108ec565b915061096560208401610908565b90509250929050565b60006020828403121561098057600080fd5b8151801515811461038f57600080fd5b6000602082840312156109a257600080fd5b5051919050565b6000602082840312156109bb57600080fd5b61038f82610908565b600082516109d6818460208701610a83565b9190910192915050565b60208152600082518060208401526109ff816040850160208701610a83565b601f01601f19169190910160400192915050565b60008219821115610a2657610a26610ab3565b500190565b600082610a4857634e487b7160e01b600052601260045260246000fd5b500490565b6000816000190483118215151615610a6757610a67610ab3565b500290565b600082821015610a7e57610a7e610ab3565b500390565b60005b83811015610a9e578181015183820152602001610a86565b83811115610aad576000848401525b50505050565b634e487b7160e01b600052601160045260246000fdfea2646970667358221220a0f3f383c7a1c239ac494b3be7cf26817cd9a0bf0b8186fa97e679e9a799e0ad64736f6c63430008060033",
  "bytecodeSha1": "ee594c56462c24fe8a7973dd500d33b797e2acb5",
  "compiler": {
    "evm_version": "istanbul",
    "optimizer": {
      "enabled": true,
      "runs": 200
    },
    "version": "0.8.6+commit.11564f7e"
  },
  "contractName": "VestingWallet",
  "language": "Solidity",
  "natspec": {
    "details": "This contract handles the vesting of Eth and ERC20 tokens for a given beneficiary. Custody of multiple tokens can be given to this contract, which will release the token to the beneficiary following a given vesting schedule. The vesting schedule is customizable through the {vestedAmount} function. Any token transferred to this contract will follow the vesting schedule as if they were locked from the beginning. Consequently, if the vesting has already started, any amount of tokens sent to this contract will (at least partly) be immediately releasable.",
    "kind": "dev",
    "methods": {
      "beneficiary()": {
        "details": "Getter for the beneficiary address."
      },
      "constructor": {
        "details": "Set the beneficiary, start timestamp and vesting duration of the vesting wallet."
      },
      "duration()": {
        "details": "Getter for the vesting duration."
      },
      "release()": {
        "details": "Release the native token (ether) that have already vested. Emits a {TokensReleased} event."
      },
      "release(address)": {
        "details": "Release the tokens that have already vested. Emits a {TokensReleased} event."
      },
      "released()": {
        "details": "Amount of eth already released"
      },
      "released(address)": {
        "details": "Amount of token already released"
      },
      "start()": {
        "details": "Getter for the start timestamp."
      },
      "vestedAmount(address,uint64)": {
        "details": "Calculates the amount of tokens that has already vested. Default implementation is a linear vesting curve."
      },
      "vestedAmount(uint64)": {
        "details": "Calculates the amount of ether that has already vested. Default implementation is a linear vesting curve."
      }
    },
    "title": "VestingWallet",
    "version": 1
  },
  "opcodes": "PUSH1 0x80 PUSH1 0x40 MSTORE PUSH1 0x4 CALLDATASIZE LT PUSH2 0x8A JUMPI PUSH1 0x0 CALLDATALOAD PUSH1 0xE0 SHR DUP1 PUSH4 0x810EC23B GT PUSH2 0x59 JUMPI DUP1 PUSH4 0x810EC23B EQ PUSH2 0x16C JUMPI DUP1 PUSH4 0x86D1A69F EQ PUSH2 0x18C JUMPI DUP1 PUSH4 0x96132521 EQ PUSH2 0x1A1 JUMPI DUP1 PUSH4 0x9852595C EQ PUSH2 0x1B6 JUMPI DUP1 PUSH4 0xBE9A6555 EQ PUSH2 0x1EC JUMPI PUSH1 0x0 DUP1 REVERT JUMPDEST DUP1 PUSH4 0xA17B06B EQ PUSH2 0x96 JUMPI DUP1 PUSH4 0xFB5A6B4 EQ PUSH2 0xC9 JUMPI DUP1 PUSH4 0x19165587 EQ PUSH2 0x106 JUMPI DUP1 PUSH4 0x38AF3EED EQ PUSH2 0x128 JUMPI PUSH1 0x0 DUP1 REVERT JUMPDEST CALLDATASIZE PUSH2 0x91 JUMPI STOP JUMPDEST PUSH1 0x0 DUP1 REVERT JUMPDEST CALLVALUE DUP1 ISZERO PUSH2 0xA2 JUMPI PUSH1 0x0 DUP1 REVERT JUMPDEST POP PUSH2 0xB6 PUSH2 0xB1 CALLDATASIZE PUSH1 0x4 PUSH2 0x9A9 JUMP JUMPDEST PUSH2 0x201 JUMP JUMPDEST PUSH1 0x40 MLOAD SWAP1 DUP2 MSTORE PUSH1 0x20 ADD JUMPDEST PUSH1 0x40 MLOAD DUP1 SWAP2 SUB SWAP1 RETURN JUMPDEST CALLVALUE DUP1 ISZERO PUSH2 0xD5 JUMPI PUSH1 0x0 DUP1 REVERT JUMPDEST POP PUSH32 0x0 PUSH8 0xFFFFFFFFFFFFFFFF AND PUSH2 0xB6 JUMP JUMPDEST CALLVALUE DUP1 ISZERO PUSH2 0x112 JUMPI PUSH1 0x0 DUP1 REVERT JUMPDEST POP PUSH2 0x126 PUSH2 0x121 CALLDATASIZE PUSH1 0x4 PUSH2 0x920 JUMP JUMPDEST PUSH2 0x225 JUMP JUMPDEST STOP JUMPDEST CALLVALUE DUP1 ISZERO PUSH2 0x134 JUMPI PUSH1 0x0 DUP1 REVERT JUMPDEST POP PUSH1 0x40 MLOAD PUSH1 0x1 PUSH1 0x1 PUSH1 0xA0 SHL SUB PUSH32 0x0 AND DUP2 MSTORE PUSH1 0x20 ADD PUSH2 0xC0 JUMP JUMPDEST CALLVALUE DUP1 ISZERO PUSH2 0x178 JUMPI PUSH1 0x0 DUP1 REVERT JUMPDEST POP PUSH2 0xB6 PUSH2 0x187 CALLDATASIZE PUSH1 0x4 PUSH2 0x93B JUMP JUMPDEST PUSH2 0x2F1 JUMP JUMPDEST CALLVALUE DUP1 ISZERO PUSH2 0x198 JUMPI PUSH1 0x0 DUP1 REVERT JUMPDEST POP PUSH2 0x126 PUSH2 0x396 JUMP JUMPDEST CALLVALUE DUP1 ISZERO PUSH2 0x1AD JUMPI PUSH1 0x0 DUP1 REVERT JUMPDEST POP PUSH1 0x0 SLOAD PUSH2 0xB6 JUMP JUMPDEST CALLVALUE DUP1 ISZERO PUSH2 0x1C2 JUMPI PUSH1 0x0 DUP1 REVERT JUMPDEST POP PUSH2 0xB6 PUSH2 0x1D1 CALLDATASIZE PUSH1 0x4 PUSH2 0x920 JUMP JUMPDEST PUSH1 0x1 PUSH1 0x1 PUSH1 0xA0 SHL SUB AND PUSH1 0x0 SWAP1 DUP2 MSTORE PUSH1 0x1 PUSH1 0x20 MSTORE PUSH1 0x40 SWAP1 KECCAK256 SLOAD SWAP1 JUMP JUMPDEST CALLVALUE DUP1 ISZERO PUSH2 0x1F8 JUMPI PUSH1 0x0 DUP1 REVERT JUMPDEST POP PUSH2 0xB6 PUSH2 0x425 JUMP JUMPDEST PUSH1 0x0 PUSH2 0x21F PUSH2 0x20F PUSH1 0x0 SLOAD SWAP1 JUMP JUMPDEST PUSH2 0x219 SWAP1 SELFBALANCE PUSH2 0xA13 JUMP JUMPDEST DUP4 PUSH2 0x453 JUMP JUMPDEST SWAP3 SWAP2 POP POP JUMP JUMPDEST PUSH1 0x1 PUSH1 0x1 PUSH1 0xA0 SHL SUB DUP2 AND PUSH1 0x0 SWAP1 DUP2 MSTORE PUSH1 0x1 PUSH1 0x20 MSTORE PUSH1 0x40 DUP2 KECCAK256 SLOAD PUSH2 0x248 DUP4 TIMESTAMP PUSH2 0x2F1 JUMP JUMPDEST PUSH2 0x252 SWAP2 SWAP1 PUSH2 0xA6C JUMP JUMPDEST PUSH1 0x1 PUSH1 0x1 PUSH1 0xA0 SHL SUB DUP4 AND PUSH1 0x0 SWAP1 DUP2 MSTORE PUSH1 0x1 PUSH1 0x20 MSTORE PUSH1 0x40 DUP2 KECCAK256 DUP1 SLOAD SWAP3 SWAP4 POP DUP4 SWAP3 SWAP1 SWAP2 SWAP1 PUSH2 0x27F SWAP1 DUP5 SWAP1 PUSH2 0xA13 JUMP JUMPDEST SWAP1 SWAP2 SSTORE POP POP PUSH1 0x40 MLOAD DUP2 DUP2 MSTORE PUSH1 0x1 PUSH1 0x1 PUSH1 0xA0 SHL SUB DUP4 AND SWAP1 PUSH32 0xC0E523490DD523C33B1878C9EB14FF46991E3F5B2CD33710918618F2A39CBA1B SWAP1 PUSH1 0x20 ADD PUSH1 0x40 MLOAD DUP1 SWAP2 SUB SWAP1 LOG2 PUSH2 0x2ED DUP3 PUSH32 0x0 DUP4 PUSH2 0x52D JUMP JUMPDEST POP POP JUMP JUMPDEST PUSH1 0x1 PUSH1 0x1 PUSH1 0xA0 SHL SUB DUP3 AND PUSH1 0x0 SWAP1 DUP2 MSTORE PUSH1 0x1 PUSH1 0x20 MSTORE PUSH1 0x40 DUP2 KECCAK256 SLOAD PUSH2 0x38F SWAP1 PUSH1 0x40 MLOAD PUSH4 0x70A08231 PUSH1 0xE0 SHL DUP2 MSTORE ADDRESS PUSH1 0x4 DUP3 ADD MSTORE PUSH1 0x1 PUSH1 0x1 PUSH1 0xA0 SHL SUB DUP7 AND SWAP1 PUSH4 0x70A08231 SWAP1 PUSH1 0x24 ADD PUSH1 0x20 PUSH1 0x40 MLOAD DUP1 DUP4 SUB DUP2 DUP7 DUP1 EXTCODESIZE ISZERO DUP1 ISZERO PUSH2 0x34D JUMPI PUSH1 0x0 DUP1 REVERT JUMPDEST POP GAS STATICCALL ISZERO DUP1 ISZERO PUSH2 0x361 JUMPI RETURNDATASIZE PUSH1 0x0 DUP1 RETURNDATACOPY RETURNDATASIZE PUSH1 0x0 REVERT JUMPDEST POP POP POP POP PUSH1 0x40 MLOAD RETURNDATASIZE PUSH1 0x1F NOT PUSH1 0x1F DUP3 ADD AND DUP3 ADD DUP1 PUSH1 0x40 MSTORE POP DUP2 ADD SWAP1 PUSH2 0x385 SWAP2 SWAP1 PUSH2 0x990 JUMP JUMPDEST PUSH2 0x219 SWAP2 SWAP1 PUSH2 0xA13 JUMP JUMPDEST SWAP4 SWAP3 POP POP POP JUMP JUMPDEST PUSH1 0x0 DUP1 SLOAD PUSH2 0x3A3 TIMESTAMP PUSH2 0x201 JUMP JUMPDEST PUSH2 0x3AD SWAP2 SWAP1 PUSH2 0xA6C JUMP JUMPDEST SWAP1 POP DUP1 PUSH1 0x0 DUP1 DUP3 DUP3 SLOAD PUSH2 0x3C0 SWAP2 SWAP1 PUSH2 0xA13 JUMP JUMPDEST SWAP1 SWAP2 SSTORE POP POP PUSH1 0x40 MLOAD DUP2 DUP2 MSTORE PUSH32 0xDA9D4E5F101B8B9B1C5B76D0C5A9F7923571ACFC02376AA076B75A8C080C956B SWAP1 PUSH1 0x20 ADD PUSH1 0x40 MLOAD DUP1 SWAP2 SUB SWAP1 LOG1 PUSH2 0x422 PUSH32 0x0 DUP3 PUSH2 0x584 JUMP JUMPDEST POP JUMP JUMPDEST PUSH8 0xFFFFFFFFFFFFFFFF PUSH32 0x0 AND SWAP1 JUMP JUMPDEST PUSH1 0x0 PUSH2 0x45D PUSH2 0x425 JUMP JUMPDEST DUP3 PUSH8 0xFFFFFFFFFFFFFFFF AND LT ISZERO PUSH2 0x476 JUMPI POP PUSH1 0x0 PUSH2 0x21F JUMP JUMPDEST PUSH32 0x0 PUSH8 0xFFFFFFFFFFFFFFFF AND PUSH2 0x4A9 PUSH2 0x425 JUMP JUMPDEST PUSH2 0x4B3 SWAP2 SWAP1 PUSH2 0xA13 JUMP JUMPDEST DUP3 PUSH8 0xFFFFFFFFFFFFFFFF AND GT ISZERO PUSH2 0x4CB JUMPI POP DUP2 PUSH2 0x21F JUMP JUMPDEST PUSH32 0x0 PUSH8 0xFFFFFFFFFFFFFFFF AND PUSH2 0x4FE PUSH2 0x425 JUMP JUMPDEST PUSH2 0x512 SWAP1 PUSH8 0xFFFFFFFFFFFFFFFF DUP6 AND PUSH2 0xA6C JUMP JUMPDEST PUSH2 0x51C SWAP1 DUP6 PUSH2 0xA4D JUMP JUMPDEST PUSH2 0x526 SWAP2 SWAP1 PUSH2 0xA2B JUMP JUMPDEST SWAP1 POP PUSH2 0x21F JUMP JUMPDEST PUSH1 0x40 DUP1 MLOAD PUSH1 0x1 PUSH1 0x1 PUSH1 0xA0 SHL SUB DUP5 AND PUSH1 0x24 DUP3 ADD MSTORE PUSH1 0x44 DUP1 DUP3 ADD DUP5 SWAP1 MSTORE DUP3 MLOAD DUP1 DUP4 SUB SWAP1 SWAP2 ADD DUP2 MSTORE PUSH1 0x64 SWAP1 SWAP2 ADD SWAP1 SWAP2 MSTORE PUSH1 0x20 DUP2 ADD DUP1 MLOAD PUSH1 0x1 PUSH1 0x1 PUSH1 0xE0 SHL SUB AND PUSH4 0xA9059CBB PUSH1 0xE0 SHL OR SWAP1 MSTORE PUSH2 0x57F SWAP1 DUP5 SWAP1 PUSH2 0x6A2 JUMP JUMPDEST POP POP POP JUMP JUMPDEST DUP1 SELFBALANCE LT ISZERO PUSH2 0x5D9 JUMPI PUSH1 0x40 MLOAD PUSH3 0x461BCD PUSH1 0xE5 SHL DUP2 MSTORE PUSH1 0x20 PUSH1 0x4 DUP3 ADD MSTORE PUSH1 0x1D PUSH1 0x24 DUP3 ADD MSTORE PUSH32 0x416464726573733A20696E73756666696369656E742062616C616E6365000000 PUSH1 0x44 DUP3 ADD MSTORE PUSH1 0x64 ADD JUMPDEST PUSH1 0x40 MLOAD DUP1 SWAP2 SUB SWAP1 REVERT JUMPDEST PUSH1 0x0 DUP3 PUSH1 0x1 PUSH1 0x1 PUSH1 0xA0 SHL SUB AND DUP3 PUSH1 0x40 MLOAD PUSH1 0x0 PUSH1 0x40 MLOAD DUP1 DUP4 SUB DUP2 DUP6 DUP8 GAS CALL SWAP3 POP POP POP RETURNDATASIZE DUP1 PUSH1 0x0 DUP2 EQ PUSH2 0x626 JUMPI PUSH1 0x40 MLOAD SWAP2 POP PUSH1 0x1F NOT PUSH1 0x3F RETURNDATASIZE ADD AND DUP3 ADD PUSH1 0x40 MSTORE RETURNDATASIZE DUP3 MSTORE RETURNDATASIZE PUSH1 0x0 PUSH1 0x20 DUP5 ADD RETURNDATACOPY PUSH2 0x62B JUMP JUMPDEST PUSH1 0x60 SWAP2 POP JUMPDEST POP POP SWAP1 POP DUP1 PUSH2 0x57F JUMPI PUSH1 0x40 MLOAD PUSH3 0x461BCD PUSH1 0xE5 SHL DUP2 MSTORE PUSH1 0x20 PUSH1 0x4 DUP3 ADD MSTORE PUSH1 0x3A PUSH1 0x24 DUP3 ADD MSTORE PUSH32 0x416464726573733A20756E61626C6520746F2073656E642076616C75652C2072 PUSH1 0x44 DUP3 ADD MSTORE PUSH32 0x6563697069656E74206D61792068617665207265766572746564000000000000 PUSH1 0x64 DUP3 ADD MSTORE PUSH1 0x84 ADD PUSH2 0x5D0 JUMP JUMPDEST PUSH1 0x0 PUSH2 0x6F7 DUP3 PUSH1 0x40 MLOAD DUP1 PUSH1 0x40 ADD PUSH1 0x40 MSTORE DUP1 PUSH1 0x20 DUP2 MSTORE PUSH1 0x20 ADD PUSH32 0x5361666545524332303A206C6F772D6C6576656C2063616C6C206661696C6564 DUP2 MSTORE POP DUP6 PUSH1 0x1 PUSH1 0x1 PUSH1 0xA0 SHL SUB AND PUSH2 0x774 SWAP1 SWAP3 SWAP2 SWAP1 PUSH4 0xFFFFFFFF AND JUMP JUMPDEST DUP1 MLOAD SWAP1 SWAP2 POP ISZERO PUSH2 0x57F JUMPI DUP1 DUP1 PUSH1 0x20 ADD SWAP1 MLOAD DUP2 ADD SWAP1 PUSH2 0x715 SWAP2 SWAP1 PUSH2 0x96E JUMP JUMPDEST PUSH2 0x57F JUMPI PUSH1 0x40 MLOAD PUSH3 0x461BCD PUSH1 0xE5 SHL DUP2 MSTORE PUSH1 0x20 PUSH1 0x4 DUP3 ADD MSTORE PUSH1 0x2A PUSH1 0x24 DUP3 ADD MSTORE PUSH32 0x5361666545524332303A204552433230206F7065726174696F6E20646964206E PUSH1 0x44 DUP3 ADD MSTORE PUSH10 0x1BDD081CDD58D8D95959 PUSH1 0xB2 SHL PUSH1 0x64 DUP3 ADD MSTORE PUSH1 0x84 ADD PUSH2 0x5D0 JUMP JUMPDEST PUSH1 0x60 PUSH2 0x783 DUP5 DUP5 PUSH1 0x0 DUP6 PUSH2 0x78B JUMP JUMPDEST SWAP5 SWAP4 POP POP POP POP JUMP JUMPDEST PUSH1 0x60 DUP3 SELFBALANCE LT ISZERO PUSH2 0x7EC JUMPI PUSH1 0x40 MLOAD PUSH3 0x461BCD PUSH1 0xE5 SHL DUP2 MSTORE PUSH1 0x20 PUSH1 0x4 DUP3 ADD MSTORE PUSH1 0x26 PUSH1 0x24 DUP3 ADD MSTORE PUSH32 0x416464726573733A20696E73756666696369656E742062616C616E636520666F PUSH1 0x44 DUP3 ADD MSTORE PUSH6 0x1C8818D85B1B PUSH1 0xD2 SHL PUSH1 0x64 DUP3 ADD MSTORE PUSH1 0x84 ADD PUSH2 0x5D0 JUMP JUMPDEST DUP5 EXTCODESIZE PUSH2 0x83A JUMPI PUSH1 0x40 MLOAD PUSH3 0x461BCD PUSH1 0xE5 SHL DUP2 MSTORE PUSH1 0x20 PUSH1 0x4 DUP3 ADD MSTORE PUSH1 0x1D PUSH1 0x24 DUP3 ADD MSTORE PUSH32 0x416464726573733A2063616C6C20746F206E6F6E2D636F6E7472616374000000 PUSH1 0x44 DUP3 ADD MSTORE PUSH1 0x64 ADD PUSH2 0x5D0 JUMP JUMPDEST PUSH1 0x0 DUP1 DUP7 PUSH1 0x1 PUSH1 0x1 PUSH1 0xA0 SHL SUB AND DUP6 DUP8 PUSH1 0x40 MLOAD PUSH2 0x856 SWAP2 SWAP1 PUSH2 0x9C4 JUMP JUMPDEST PUSH1 0x0 PUSH1 0x40 MLOAD DUP1 DUP4 SUB DUP2 DUP6 DUP8 GAS CALL SWAP3 POP POP POP RETURNDATASIZE DUP1 PUSH1 0x0 DUP2 EQ PUSH2 0x893 JUMPI PUSH1 0x40 MLOAD SWAP2 POP PUSH1 0x1F NOT PUSH1 0x3F RETURNDATASIZE ADD AND DUP3 ADD PUSH1 0x40 MSTORE RETURNDATASIZE DUP3 MSTORE RETURNDATASIZE PUSH1 0x0 PUSH1 0x20 DUP5 ADD RETURNDATACOPY PUSH2 0x898 JUMP JUMPDEST PUSH1 0x60 SWAP2 POP JUMPDEST POP SWAP2 POP SWAP2 POP PUSH2 0x8A8 DUP3 DUP3 DUP7 PUSH2 0x8B3 JUMP JUMPDEST SWAP8 SWAP7 POP POP POP POP POP POP POP JUMP JUMPDEST PUSH1 0x60 DUP4 ISZERO PUSH2 0x8C2 JUMPI POP DUP2 PUSH2 0x38F JUMP JUMPDEST DUP3 MLOAD ISZERO PUSH2 0x8D2 JUMPI DUP3 MLOAD DUP1 DUP5 PUSH1 0x20 ADD REVERT JUMPDEST DUP2 PUSH1 0x40 MLOAD PUSH3 0x461BCD PUSH1 0xE5 SHL DUP2 MSTORE PUSH1 0x4 ADD PUSH2 0x5D0 SWAP2 SWAP1 PUSH2 0x9E0 JUMP JUMPDEST DUP1 CALLDATALOAD PUSH1 0x1 PUSH1 0x1 PUSH1 0xA0 SHL SUB DUP2 AND DUP2 EQ PUSH2 0x903 JUMPI PUSH1 0x0 DUP1 REVERT JUMPDEST SWAP2 SWAP1 POP JUMP JUMPDEST DUP1 CALLDATALOAD PUSH8 0xFFFFFFFFFFFFFFFF DUP2 AND DUP2 EQ PUSH2 0x903 JUMPI PUSH1 0x0 DUP1 REVERT JUMPDEST PUSH1 0x0 PUSH1 0x20 DUP3 DUP5 SUB SLT ISZERO PUSH2 0x932 JUMPI PUSH1 0x0 DUP1 REVERT JUMPDEST PUSH2 0x38F DUP3 PUSH2 0x8EC JUMP JUMPDEST PUSH1 0x0 DUP1 PUSH1 0x40 DUP4 DUP6 SUB SLT ISZERO PUSH2 0x94E JUMPI PUSH1 0x0 DUP1 REVERT JUMPDEST PUSH2 0x957 DUP4 PUSH2 0x8EC JUMP JUMPDEST SWAP2 POP PUSH2 0x965 PUSH1 0x20 DUP5 ADD PUSH2 0x908 JUMP JUMPDEST SWAP1 POP SWAP3 POP SWAP3 SWAP1 POP JUMP JUMPDEST PUSH1 0x0 PUSH1 0x20 DUP3 DUP5 SUB SLT ISZERO PUSH2 0x980 JUMPI PUSH1 0x0 DUP1 REVERT JUMPDEST DUP2 MLOAD DUP1 ISZERO ISZERO DUP2 EQ PUSH2 0x38F JUMPI PUSH1 0x0 DUP1 REVERT JUMPDEST PUSH1 0x0 PUSH1 0x20 DUP3 DUP5 SUB SLT ISZERO PUSH2 0x9A2 JUMPI PUSH1 0x0 DUP1 REVERT JUMPDEST POP MLOAD SWAP2 SWAP1 POP JUMP JUMPDEST PUSH1 0x0 PUSH1 0x20 DUP3 DUP5 SUB SLT ISZERO PUSH2 0x9BB JUMPI PUSH1 0x0 DUP1 REVERT JUMPDEST PUSH2 0x38F DUP3 PUSH2 0x908 JUMP JUMPDEST PUSH1 0x0 DUP3 MLOAD PUSH2 0x9D6 DUP2 DUP5 PUSH1 0x20 DUP8 ADD PUSH2 0xA83 JUMP JUMPDEST SWAP2 SWAP1 SWAP2 ADD SWAP3 SWAP2 POP POP JUMP JUMPDEST PUSH1 0x20 DUP2 MSTORE PUSH1 0x0 DUP3 MLOAD DUP1 PUSH1 0x20 DUP5 ADD MSTORE PUSH2 0x9FF DUP2 PUSH1 0x40 DUP6 ADD PUSH1 0x20 DUP8 ADD PUSH2 0xA83 JUMP JUMPDEST PUSH1 0x1F ADD PUSH1 0x1F NOT AND SWAP2 SWAP1 SWAP2 ADD PUSH1 0x40 ADD SWAP3 SWAP2 POP POP JUMP JUMPDEST PUSH1 0x0 DUP3 NOT DUP3 GT ISZERO PUSH2 0xA26 JUMPI PUSH2 0xA26 PUSH2 0xAB3 JUMP JUMPDEST POP ADD SWAP1 JUMP JUMPDEST PUSH1 0x0 DUP3 PUSH2 0xA48 JUMPI PUSH4 0x4E487B71 PUSH1 0xE0 SHL PUSH1 0x0 MSTORE PUSH1 0x12 PUSH1 0x4 MSTORE PUSH1 0x24 PUSH1 0x0 REVERT JUMPDEST POP DIV SWAP1 JUMP JUMPDEST PUSH1 0x0 DUP2 PUSH1 0x0 NOT DIV DUP4 GT DUP3 ISZERO ISZERO AND ISZERO PUSH2 0xA67 JUMPI PUSH2 0xA67 PUSH2 0xAB3 JUMP JUMPDEST POP MUL SWAP1 JUMP JUMPDEST PUSH1 0x0 DUP3 DUP3 LT ISZERO PUSH2 0xA7E JUMPI PUSH2 0xA7E PUSH2 0xAB3 JUMP JUMPDEST POP SUB SWAP1 JUMP JUMPDEST PUSH1 0x0 JUMPDEST DUP4 DUP2 LT ISZERO PUSH2 0xA9E JUMPI DUP2 DUP2 ADD MLOAD DUP4 DUP3 ADD MSTORE PUSH1 0x20 ADD PUSH2 0xA86 JUMP JUMPDEST DUP4 DUP2 GT ISZERO PUSH2 0xAAD JUMPI PUSH1 0x0 DUP5 DUP5 ADD MSTORE JUMPDEST POP POP POP POP JUMP JUMPDEST PUSH4 0x4E487B71 PUSH1 0xE0 SHL PUSH1 0x0 MSTORE PUSH1 0x11 PUSH1 0x4 MSTORE PUSH1 0x24 PUSH1 0x0 REVERT INVALID LOG2 PUSH5 0x6970667358 0x22 SLT KECCAK256 LOG0 RETURN RETURN DUP4 0xC7 LOG1 0xC2 CODECOPY 0xAC 0x49 0x4B EXTCODESIZE 0xE7 0xCF 0x26 DUP2 PUSH29 0xD9A0BF0B8186FA97E679E9A799E0AD64736F6C63430008060033000000 ",
  "sha1": "a31760c48d8ec325675d2fd2bbbb496a7df64e92",
  "source": "// SPDX-License-Identifier: MIT\n// OpenZeppelin Contracts v4.4.0 (finance/VestingWallet.sol)\npragma solidity ^0.8.0;\n\nimport \"../token/ERC20/utils/SafeERC20.sol\";\nimport \"../utils/Address.sol\";\nimport \"../utils/Context.sol\";\nimport \"../utils/math/Math.sol\";\n\n/**\n * @title VestingWallet\n * @dev This contract handles the vesting of Eth and ERC20 tokens for a given beneficiary. Custody of multiple tokens\n * can be given to this contract, which will release the token to the beneficiary following a given vesting schedule.\n * The vesting schedule is customizable through the {vestedAmount} function.\n *\n * Any token transferred to this contract will follow the vesting schedule as if they were locked from the beginning.\n * Consequently, if the vesting has already started, any amount of tokens sent to this contract will (at least partly)\n * be immediately releasable.\n */\ncontract VestingWallet is Context {\n    event EtherReleased(uint256 amount);\n    event ERC20Released(address indexed token, uint256 amount);\n\n    uint256 private _released;\n    mapping(address => uint256) private _erc20Released;\n    address private immutable _beneficiary;\n    uint64 private immutable _start;\n    uint64 private immutable _duration;\n\n    /**\n     * @dev Set the beneficiary, start timestamp and vesting duration of the vesting wallet.\n     */\n    constructor(\n        address beneficiaryAddress,\n        uint64 startTimestamp,\n        uint64 durationSeconds\n    ) {\n        require(beneficiaryAddress != address(0), \"VestingWallet: beneficiary is zero address\");\n        _beneficiary = beneficiaryAddress;\n        _start = startTimestamp;\n        _duration = durationSeconds;\n    }\n\n    /**\n     * @dev The contract should be able to receive Eth.\n     */\n    receive() external payable virtual {}\n\n    /**\n     * @dev Getter for the beneficiary address.\n     */\n    function beneficiary() public view virtual returns (address) {\n        return _beneficiary;\n    }\n\n    /**\n     * @dev Getter for the start timestamp.\n     */\n    function start() public view virtual returns (uint256) {\n        return _start;\n    }\n\n    /**\n     * @dev Getter for the vesting duration.\n     */\n    function duration() public view virtual returns (uint256) {\n        return _duration;\n    }\n\n    /**\n     * @dev Amount of eth already released\n     */\n    function released() public view virtual returns (uint256) {\n        return _released;\n    }\n\n    /**\n     * @dev Amount of token already released\n     */\n    function released(address token) public view virtual returns (uint256) {\n        return _erc20Released[token];\n    }\n\n    /**\n     * @dev Release the native token (ether) that have already vested.\n     *\n     * Emits a {TokensReleased} event.\n     */\n    function release() public virtual {\n        uint256 releasable = vestedAmount(uint64(block.timestamp)) - released();\n        _released += releasable;\n        emit EtherReleased(releasable);\n        Address.sendValue(payable(beneficiary()), releasable);\n    }\n\n    /**\n     * @dev Release the tokens that have already vested.\n     *\n     * Emits a {TokensReleased} event.\n     */\n    function release(address token) public virtual {\n        uint256 releasable = vestedAmount(token, uint64(block.timestamp)) - released(token);\n        _erc20Released[token] += releasable;\n        emit ERC20Released(token, releasable);\n        SafeERC20.safeTransfer(IERC20(token), beneficiary(), releasable);\n    }\n\n    /**\n     * @dev Calculates the amount of ether that has already vested. Default implementation is a linear vesting curve.\n     */\n    function vestedAmount(uint64 timestamp) public view virtual returns (uint256) {\n        return _vestingSchedule(address(this).balance + released(), timestamp);\n    }\n\n    /**\n     * @dev Calculates the amount of tokens that has already vested. Default implementation is a linear vesting curve.\n     */\n    function vestedAmount(address token, uint64 timestamp) public view virtual returns (uint256) {\n        return _vestingSchedule(IERC20(token).balanceOf(address(this)) + released(token), timestamp);\n    }\n\n    /**\n     * @dev Virtual implementation of the vesting formula. This returns the amout vested, as a function of time, for\n     * an asset given its total historical allocation.\n     */\n    function _vestingSchedule(uint256 totalAllocation, uint64 timestamp) internal view virtual returns (uint256) {\n        if (timestamp < start()) {\n            return 0;\n        } else if (timestamp > start() + duration()) {\n            return totalAllocation;\n        } else {\n            return (totalAllocation * (timestamp - start())) / duration();\n        }\n    }\n}\n",
  "sourcePath": "contracts/OpenZepellin/contracts/finance/VestingWallet.sol",
  "type": "contract"
}