{
  "abi": [
    {
      "inputs": [
        {
          "internalType": "string",
          "name": "_electionName",
          "type": "string"
        },
        {
          "internalType": "address",
          "name": "_wakandaTokenAddress",
          "type": "address"
        },
        {
          "internalType": "string[]",
          "name": "_candidateNames",
          "type": "string[]"
        },
        {
          "internalType": "uint8[]",
          "name": "_candidateAges",
          "type": "uint8[]"
        },
        {
          "internalType": "string[]",
          "name": "_candidateCults",
          "type": "string[]"
        }
      ],
      "stateMutability": "nonpayable",
      "type": "constructor"
    },
    {
      "anonymous": false,
      "inputs": [
        {
          "components": [
            {
              "internalType": "string",
              "name": "name",
              "type": "string"
            },
            {
              "internalType": "uint8",
              "name": "age",
              "type": "uint8"
            },
            {
              "internalType": "string",
              "name": "cult",
              "type": "string"
            },
            {
              "internalType": "uint256",
              "name": "votes",
              "type": "uint256"
            }
          ],
          "indexed": false,
          "internalType": "struct Voting.Candidate",
          "name": "challenger",
          "type": "tuple"
        }
      ],
      "name": "NewChallenger",
      "type": "event"
    },
    {
      "inputs": [
        {
          "internalType": "address",
          "name": "_citizenAddress",
          "type": "address"
        }
      ],
      "name": "citizenHasVoted",
      "outputs": [
        {
          "components": [
            {
              "internalType": "uint256",
              "name": "candidateId",
              "type": "uint256"
            },
            {
              "internalType": "uint256",
              "name": "amount",
              "type": "uint256"
            },
            {
              "internalType": "bool",
              "name": "hasVoted",
              "type": "bool"
            }
          ],
          "internalType": "struct Voting.Vote",
          "name": "",
          "type": "tuple"
        }
      ],
      "stateMutability": "view",
      "type": "function"
    },
    {
      "inputs": [
        {
          "internalType": "address",
          "name": "_citizenAddress",
          "type": "address"
        }
      ],
      "name": "citizenIsRegistered",
      "outputs": [
        {
          "internalType": "bool",
          "name": "",
          "type": "bool"
        }
      ],
      "stateMutability": "view",
      "type": "function"
    },
    {
      "inputs": [
        {
          "internalType": "bytes",
          "name": "signature",
          "type": "bytes"
        },
        {
          "internalType": "address",
          "name": "citizenAddress",
          "type": "address"
        },
        {
          "internalType": "uint256",
          "name": "candidateId",
          "type": "uint256"
        },
        {
          "internalType": "uint256",
          "name": "amount",
          "type": "uint256"
        }
      ],
      "name": "delegatedVote",
      "outputs": [],
      "stateMutability": "nonpayable",
      "type": "function"
    },
    {
      "inputs": [],
      "name": "endTheElection",
      "outputs": [
        {
          "internalType": "bool",
          "name": "",
          "type": "bool"
        }
      ],
      "stateMutability": "nonpayable",
      "type": "function"
    },
    {
      "inputs": [
        {
          "internalType": "address",
          "name": "citizenAddress",
          "type": "address"
        },
        {
          "internalType": "uint256",
          "name": "candidateId",
          "type": "uint256"
        },
        {
          "internalType": "uint256",
          "name": "amount",
          "type": "uint256"
        }
      ],
      "name": "getDigest",
      "outputs": [
        {
          "internalType": "bytes32",
          "name": "",
          "type": "bytes32"
        }
      ],
      "stateMutability": "view",
      "type": "function"
    },
    {
      "inputs": [
        {
          "internalType": "address",
          "name": "citizenAddress",
          "type": "address"
        }
      ],
      "name": "getNonce",
      "outputs": [
        {
          "internalType": "uint256",
          "name": "",
          "type": "uint256"
        }
      ],
      "stateMutability": "view",
      "type": "function"
    },
    {
      "inputs": [
        {
          "internalType": "bytes32",
          "name": "digest",
          "type": "bytes32"
        },
        {
          "internalType": "bytes",
          "name": "signature",
          "type": "bytes"
        }
      ],
      "name": "getSigner",
      "outputs": [
        {
          "internalType": "address",
          "name": "",
          "type": "address"
        }
      ],
      "stateMutability": "pure",
      "type": "function"
    },
    {
      "inputs": [
        {
          "internalType": "address",
          "name": "_citizen",
          "type": "address"
        }
      ],
      "name": "register",
      "outputs": [
        {
          "internalType": "bool",
          "name": "",
          "type": "bool"
        }
      ],
      "stateMutability": "nonpayable",
      "type": "function"
    },
    {
      "inputs": [],
      "name": "seeAllCandidates",
      "outputs": [
        {
          "components": [
            {
              "internalType": "string",
              "name": "name",
              "type": "string"
            },
            {
              "internalType": "uint8",
              "name": "age",
              "type": "uint8"
            },
            {
              "internalType": "string",
              "name": "cult",
              "type": "string"
            },
            {
              "internalType": "uint256",
              "name": "votes",
              "type": "uint256"
            }
          ],
          "internalType": "struct Voting.Candidate[]",
          "name": "",
          "type": "tuple[]"
        }
      ],
      "stateMutability": "view",
      "type": "function"
    },
    {
      "inputs": [
        {
          "internalType": "uint256",
          "name": "_candidateId",
          "type": "uint256"
        },
        {
          "internalType": "uint256",
          "name": "_amount",
          "type": "uint256"
        }
      ],
      "name": "vote",
      "outputs": [],
      "stateMutability": "nonpayable",
      "type": "function"
    },
    {
      "inputs": [],
      "name": "winningCandidates",
      "outputs": [
        {
          "components": [
            {
              "internalType": "string",
              "name": "name",
              "type": "string"
            },
            {
              "internalType": "uint8",
              "name": "age",
              "type": "uint8"
            },
            {
              "internalType": "string",
              "name": "cult",
              "type": "string"
            },
            {
              "internalType": "uint256",
              "name": "votes",
              "type": "uint256"
            }
          ],
          "internalType": "struct Voting.Candidate[]",
          "name": "",
          "type": "tuple[]"
        }
      ],
      "stateMutability": "view",
      "type": "function"
    }
  ],
  "bytecode": "6101406040523480156200001257600080fd5b506040516200225f3803806200225f8339810160408190526200003591620005c2565b60408051808201825260058152640312e302e360dc1b60209182015286518782012060e08190527f06c015bd22b4c69690933c1058878ebdfef31f9aaae40bbe86d8a09fe1b2972c6101008190524660a081815285517f8b73c3c69bb8fe3d512ecc4cf759cc79239f7b179b0ffacaa9a75d522b39400f81870181905281880195909552606081810194909452608080820193909352308183018190528751808303909301835260c09182019097528151919095012090529290921b905261012052600080546001600160a01b031916331790556200011683838362000142565b5050600180546001600160a01b0319166001600160a01b03939093169290921790915550620007899050565b6000546001600160a01b03163314620001ae5760405162461bcd60e51b8152602060048201526024808201527f4f6e6c79204b494e472063616e2073746172742061206e657720656c656374696044820152636f6e202160e01b60648201526084015b60405180910390fd5b8151835114620002055760405162461bcd60e51b815260206004820152602c60248201526000805160206200223f83398151915260448201526b7320616e642061676573202160a01b6064820152608401620001a5565b80518351146200025c5760405162461bcd60e51b815260206004820152602c60248201526000805160206200223f83398151915260448201526b7320616e642061676573202160a01b6064820152608401620001a5565b60005b83518110156200036957600560405180608001604052808684815181106200028b576200028b6200075d565b60200260200101518152602001858481518110620002ad57620002ad6200075d565b602002602001015160ff168152602001848481518110620002d257620002d26200075d565b60209081029190910181015182526000918101829052835460018101855593825290819020825180519394600402909101926200031392849201906200036f565b5060208281015160018301805460ff191660ff909216919091179055604083015180516200034892600285019201906200036f565b5060608201518160030155505080620003619062000733565b90506200025f565b50505050565b8280546200037d90620006f6565b90600052602060002090601f016020900481019282620003a15760008555620003ec565b82601f10620003bc57805160ff1916838001178555620003ec565b82800160010185558215620003ec579182015b82811115620003ec578251825591602001919060010190620003cf565b50620003fa929150620003fe565b5090565b5b80821115620003fa5760008155600101620003ff565b600082601f8301126200042757600080fd5b81516020620004406200043a83620006d0565b6200069d565b80838252828201915082860187848660051b89010111156200046157600080fd5b6000805b86811015620004a85782516001600160401b0381111562000484578283fd5b620004948b88838d01016200052d565b865250938501939185019160010162000465565b509198975050505050505050565b600082601f830112620004c857600080fd5b81516020620004db6200043a83620006d0565b80838252828201915082860187848660051b8901011115620004fc57600080fd5b6000805b86811015620004a857825160ff811681146200051a578283fd5b8552938501939185019160010162000500565b600082601f8301126200053f57600080fd5b81516001600160401b038111156200055b576200055b62000773565b602062000571601f8301601f191682016200069d565b82815285828487010111156200058657600080fd5b60005b83811015620005a657858101830151828201840152820162000589565b83811115620005b85760008385840101525b5095945050505050565b600080600080600060a08688031215620005db57600080fd5b85516001600160401b0380821115620005f357600080fd5b6200060189838a016200052d565b602089015190975091506001600160a01b03821682146200062157600080fd5b6040880151919550808211156200063757600080fd5b6200064589838a0162000415565b945060608801519150808211156200065c57600080fd5b6200066a89838a01620004b6565b935060808801519150808211156200068157600080fd5b50620006908882890162000415565b9150509295509295909350565b604051601f8201601f191681016001600160401b0381118282101715620006c857620006c862000773565b604052919050565b60006001600160401b03821115620006ec57620006ec62000773565b5060051b60200190565b600181811c908216806200070b57607f821691505b602082108114156200072d57634e487b7160e01b600052602260045260246000fd5b50919050565b60006000198214156200075657634e487b7160e01b600052601160045260246000fd5b5060010190565b634e487b7160e01b600052603260045260246000fd5b634e487b7160e01b600052604160045260246000fd5b60805160a05160c05160601c60e0516101005161012051611a63620007dc60003960006111ae015260006111fd015260006111d8015260006111310152600061115b015260006111850152611a636000f3fe608060405234801561001057600080fd5b50600436106100a95760003560e01c80634420e486116100715780634420e486146101875780637107852a1461019a578063b384abef146101a2578063b8d06bc4146101b5578063de90bb6f146101c8578063f7b2ec0d146101d057600080fd5b80630cf2ee64146100ae5780631565507e146100ef5780632d0335ab1461010457806330226efe1461013b578063377968d414610172575b600080fd5b6100da6100bc3660046115eb565b6001600160a01b031660009081526002602052604090205460ff1690565b60405190151581526020015b60405180910390f35b6101026100fd3660046116a7565b6101fb565b005b61012d6101123660046115eb565b6001600160a01b031660009081526003602052604090205490565b6040519081526020016100e6565b61014e6101493660046115eb565b610319565b604080518251815260208084015190820152918101511515908201526060016100e6565b61017a610386565b6040516100e6919061181c565b6100da6101953660046115eb565b6105db565b6100da61072f565b6101026101b036600461170d565b61079e565b61012d6101c3366004611606565b6107ad565b61017a61083d565b6101e36101de36600461165b565b6109db565b6040516001600160a01b0390911681526020016100e6565b60006102088484846107ad565b905060006102178288886109db565b9050846001600160a01b0316816001600160a01b03161461028b5760405162461bcd60e51b815260206004820152602360248201527f46756e6374696f6e2060766f746560203a20696e76616c6964207369676e617460448201526275726560e81b60648201526084015b60405180910390fd5b6001600160a01b0381166102dc5760405162461bcd60e51b815260206004820152601860248201527745434453413a20696e76616c6964207369676e617475726560401b6044820152606401610282565b6102e7858585610a25565b6001600160a01b038516600090815260036020526040812080549161030b8361199a565b919050555050505050505050565b61033f604051806060016040528060008152602001600081526020016000151581525090565b506001600160a01b03166000908152600460209081526040918290208251606081018452815481526001820154928101929092526002015460ff1615159181019190915290565b60065460609060009067ffffffffffffffff8111156103a7576103a7611a17565b60405190808252806020026020018201604052801561040657816020015b6103f3604051806080016040528060608152602001600060ff16815260200160608152602001600081525090565b8152602001906001900390816103c55790505b50905060005b60065460ff821610156105d557600560068260ff168154811061043157610431611a01565b90600052602060002001548154811061044c5761044c611a01565b906000526020600020906004020160405180608001604052908160008201805461047590611965565b80601f01602080910402602001604051908101604052809291908181526020018280546104a190611965565b80156104ee5780601f106104c3576101008083540402835291602001916104ee565b820191906000526020600020905b8154815290600101906020018083116104d157829003601f168201915b5050509183525050600182015460ff16602082015260028201805460409092019161051890611965565b80601f016020809104026020016040519081016040528092919081815260200182805461054490611965565b80156105915780601f1061056657610100808354040283529160200191610591565b820191906000526020600020905b81548152906001019060200180831161057457829003601f168201915b50505050508152602001600382015481525050828260ff16815181106105b9576105b9611a01565b6020026020010181905250806105ce906119b5565b905061040c565b50919050565b6001600160a01b03811660009081526002602052604081205460ff1615156001141561067e5760405162461bcd60e51b815260206004820152604660248201527f54686520636974697a656e20686173206265656e20726567697374657265642060448201527f2d20746865726520617265206e6f206d756c7469706c652072656769737472616064820152653a34b7b7399760d11b608482015260a401610282565b6001805460405163bc0e60e160e01b81526001600160a01b038581166004830152602482019390935291169063bc0e60e190604401602060405180830381600087803b1580156106cd57600080fd5b505af11580156106e1573d6000803e3d6000fd5b505050506040513d601f19601f820116820180604052508101906107059190611639565b50506001600160a01b03166000908152600260205260409020805460ff1916600190811790915590565b600080546001600160a01b0316331461078a5760405162461bcd60e51b815260206004820152601f60248201527f4f6e6c79204b494e472063616e20656e642074686520656c656374696f6e2e006044820152606401610282565b506007805460ff1916600190811790915590565b6107a9338383610a25565b5050565b6001600160a01b03831660008181526003602090815260408083205481517fa56f781f7251d29fca13933d69c34316ea277f967c4a968f77db62d983fe11209381019390935290820193909352606081018590526080810184905260a081018390529091906108349060c00160405160208183030381529060405280519060200120610dd6565b95945050505050565b60606005805480602002602001604051908101604052809291908181526020016000905b828210156109d2578382906000526020600020906004020160405180608001604052908160008201805461089490611965565b80601f01602080910402602001604051908101604052809291908181526020018280546108c090611965565b801561090d5780601f106108e25761010080835404028352916020019161090d565b820191906000526020600020905b8154815290600101906020018083116108f057829003601f168201915b5050509183525050600182015460ff16602082015260028201805460409092019161093790611965565b80601f016020809104026020016040519081016040528092919081815260200182805461096390611965565b80156109b05780601f10610985576101008083540402835291602001916109b0565b820191906000526020600020905b81548152906001019060200180831161099357829003601f168201915b5050505050815260200160038201548152505081526020019060010190610861565b50505050905090565b6000610a1d8484848080601f016020809104026020016040519081016040528093929190818152602001838380828437600092019190915250610e2a92505050565b949350505050565b60075460ff16151560011415610a915760405162461bcd60e51b815260206004820152602b60248201527f566f74696e6720666f72207468652063757272656e7420656c656374696f6e2060448201526a3430b99032b73232b2101760a91b6064820152608401610282565b6001600160a01b03831660009081526004602052604090206002015460ff16151560011415610b165760405162461bcd60e51b815260206004820152602b60248201527f54686520636974697a656e20616c726561647920766f74656420696e2074686560448201526a1032b632b1ba34b7b7101760a91b6064820152608401610282565b6001811015610b825760405162461bcd60e51b815260206004820152603260248201527f54686520616d6f756e74206973206c6573736572207468616e2074686520524560448201527123a4a9aa2920aa24a7a71020a6a7aaa72a1760711b6064820152608401610282565b6005548210610bf95760405162461bcd60e51b815260206004820152603860248201527f5468652063616e6469646174652049442067726561746572207468616e20746860448201527f65206e756d626572206f662063616e64696461746573202100000000000000006064820152608401610282565b600154604051631429461760e11b81526001600160a01b03858116600483015260248201849052909116906328528c2e90604401602060405180830381600087803b158015610c4757600080fd5b505af1158015610c5b573d6000803e3d6000fd5b505050506040513d601f19601f82011682018060405250810190610c7f9190611639565b50610cb78160058481548110610c9757610c97611a01565b906000526020600020906004020160030154610e4e90919063ffffffff16565b60058381548110610cca57610cca611a01565b60009182526020808320600492830201600301939093556001600160a01b03861682529091526040902082815560018082018390556002909101805460ff19169091179055610d1882610e61565b610dce57610d24610ebc565b60058381548110610d3757610d37611a01565b9060005260206000209060040201600301541180610d5757506006546003115b15610dc957610d6582610f21565b610d6d610f92565b7f06feb6d2e3b854b96ff5a9f8e857f483fbff471f03c8f8451fdedffe83cc605b60058381548110610da157610da1611a01565b9060005260206000209060040201604051610dbc91906118bb565b60405180910390a1505050565b505050565b610dc9610f92565b6000610e24610de3611124565b8360405161190160f01b6020820152602281018390526042810182905260009060620160405160208183030381529060405280519060200120905092915050565b92915050565b6000806000610e39858561124b565b91509150610e46816112bb565b509392505050565b6000610e5a8284611911565b9392505050565b6000805b60065460ff82161015610eb35760068160ff1681548110610e8857610e88611a01565b9060005260206000200154831415610ea35750600192915050565b610eac816119b5565b9050610e65565b50600092915050565b60065460009080610ece576000610f1b565b60056006610edd60018461194e565b81548110610eed57610eed611a01565b906000526020600020015481548110610f0857610f08611a01565b9060005260206000209060040201600301545b91505090565b6006546003811015610f635750600680546001810182556000919091527ff652222313e28459528d920b65115c16c04f3efc82aaedc97be59f3f377c0d3f0155565b816006610f726001600361194e565b81548110610f8257610f82611a01565b6000918252602090912001555050565b600654610f9b57565b60005b600654610fad9060019061194e565b8160ff161015611121576000610fc4826001611929565b90505b60065460ff8216101561111057600060068360ff1681548110610fec57610fec611a01565b90600052602060002001549050600060068360ff168154811061101157611011611a01565b906000526020600020015490506005818154811061103157611031611a01565b9060005260206000209060040201600301546005838154811061105657611056611a01565b90600052602060002090600402016003015410156110fd57600060068560ff168154811061108657611086611a01565b9060005260206000200154905060068460ff16815481106110a9576110a9611a01565b906000526020600020015460068660ff16815481106110ca576110ca611a01565b90600052602060002001819055508060068560ff16815481106110ef576110ef611a01565b600091825260209091200155505b505080611109906119b5565b9050610fc7565b5061111a816119b5565b9050610f9e565b50565b6000306001600160a01b037f00000000000000000000000000000000000000000000000000000000000000001614801561117d57507f000000000000000000000000000000000000000000000000000000000000000046145b156111a757507f000000000000000000000000000000000000000000000000000000000000000090565b50604080517f00000000000000000000000000000000000000000000000000000000000000006020808301919091527f0000000000000000000000000000000000000000000000000000000000000000828401527f000000000000000000000000000000000000000000000000000000000000000060608301524660808301523060a0808401919091528351808403909101815260c0909201909252805191012090565b6000808251604114156112825760208301516040840151606085015160001a61127687828585611471565b945094505050506112b4565b8251604014156112ac57602083015160408401516112a186838361155e565b9350935050506112b4565b506000905060025b9250929050565b60008160048111156112cf576112cf6119eb565b14156112d85750565b60018160048111156112ec576112ec6119eb565b14156113355760405162461bcd60e51b815260206004820152601860248201527745434453413a20696e76616c6964207369676e617475726560401b6044820152606401610282565b6002816004811115611349576113496119eb565b14156113975760405162461bcd60e51b815260206004820152601f60248201527f45434453413a20696e76616c6964207369676e6174757265206c656e677468006044820152606401610282565b60038160048111156113ab576113ab6119eb565b14156114045760405162461bcd60e51b815260206004820152602260248201527f45434453413a20696e76616c6964207369676e6174757265202773272076616c604482015261756560f01b6064820152608401610282565b6004816004811115611418576114186119eb565b14156111215760405162461bcd60e51b815260206004820152602260248201527f45434453413a20696e76616c6964207369676e6174757265202776272076616c604482015261756560f01b6064820152608401610282565b6000807f7fffffffffffffffffffffffffffffff5d576e7357a4501ddfe92f46681b20a08311156114a85750600090506003611555565b8460ff16601b141580156114c057508460ff16601c14155b156114d15750600090506004611555565b6040805160008082526020820180845289905260ff881692820192909252606081018690526080810185905260019060a0016020604051602081039080840390855afa158015611525573d6000803e3d6000fd5b5050604051601f1901519150506001600160a01b03811661154e57600060019250925050611555565b9150600090505b94509492505050565b6000806001600160ff1b03831660ff84901c601b0161157f87828885611471565b935093505050935093915050565b80356001600160a01b03811681146115a457600080fd5b919050565b60008083601f8401126115bb57600080fd5b50813567ffffffffffffffff8111156115d357600080fd5b6020830191508360208285010111156112b457600080fd5b6000602082840312156115fd57600080fd5b610e5a8261158d565b60008060006060848603121561161b57600080fd5b6116248461158d565b95602085013595506040909401359392505050565b60006020828403121561164b57600080fd5b81518015158114610e5a57600080fd5b60008060006040848603121561167057600080fd5b83359250602084013567ffffffffffffffff81111561168e57600080fd5b61169a868287016115a9565b9497909650939450505050565b6000806000806000608086880312156116bf57600080fd5b853567ffffffffffffffff8111156116d657600080fd5b6116e2888289016115a9565b90965094506116f590506020870161158d565b94979396509394604081013594506060013592915050565b6000806040838503121561172057600080fd5b50508035926020909101359150565b6000815180845260005b8181101561175557602081850181015186830182015201611739565b81811115611767576000602083870101525b50601f01601f19169290920160200192915050565b8054600090600181811c908083168061179657607f831692505b60208084108214156117b857634e487b7160e01b600052602260045260246000fd5b838852602088018280156117d357600181146117e45761180f565b60ff1987168252828201975061180f565b60008981526020902060005b87811015611809578154848201529086019084016117f0565b83019850505b5050505050505092915050565b60006020808301818452808551808352604092508286019150828160051b87010184880160005b838110156118ad57603f198984030185528151608081518186526118698287018261172f565b91505060ff898301511689860152878201518582038987015261188c828261172f565b60609384015196909301959095525094870194925090860190600101611843565b509098975050505050505050565b602081526080602082015260006118d560a083018461177c565b600184015460ff166040840152828103601f190160608401526118fb816002860161177c565b9050600384015460808401528091505092915050565b60008219821115611924576119246119d5565b500190565b600060ff821660ff84168060ff03821115611946576119466119d5565b019392505050565b600082821015611960576119606119d5565b500390565b600181811c9082168061197957607f821691505b602082108114156105d557634e487b7160e01b600052602260045260246000fd5b60006000198214156119ae576119ae6119d5565b5060010190565b600060ff821660ff8114156119cc576119cc6119d5565b60010192915050565b634e487b7160e01b600052601160045260246000fd5b634e487b7160e01b600052602160045260246000fd5b634e487b7160e01b600052603260045260246000fd5b634e487b7160e01b600052604160045260246000fdfea264697066735822122012c76e96027e622e6adeccd518a7f3c9c5cd4ed4c0cd5bf0580569a669f92c4864736f6c634300080600334c656e677468206d69736d61746368202d2063616e646964617465206e616d65",
  "bytecodeSha1": "da39a3ee5e6b4b0d3255bfef95601890afd80709",
  "compiler": {
    "evm_version": "istanbul",
    "optimizer": {
      "enabled": true,
      "runs": 200
    },
    "version": "0.8.6+commit.11564f7e"
  },
  "contractName": "Voting",
  "language": "Solidity",
  "natspec": {
    "kind": "dev",
    "methods": {
      "citizenHasVoted(address)": {
        "notice": "Returns the voting status of _citizenAddress",
        "params": {
          "_citizenAddress": "Citizen's address"
        },
        "returns": {
          "_0": "The Vote struct"
        }
      },
      "citizenIsRegistered(address)": {
        "notice": "Returns the registration status of _citizenAddress",
        "params": {
          "_citizenAddress": "Citizen's address"
        },
        "returns": {
          "_0": "Boolean : True if citizen is registered"
        }
      },
      "delegatedVote(bytes,address,uint256,uint256)": {
        "notice": "Used for delegating a vote - can be called by anyone having a signature and rest of the information",
        "params": {
          "amount": "Amount of WKND tokens to be used in voting",
          "candidateId": "Candidate's ID",
          "citizenAddress": "Citizen's address"
        }
      },
      "endTheElection()": {
        "notice": "Ends the election - there is no voting after",
        "returns": {
          "_0": "Boolean : True if successful"
        }
      },
      "getDigest(address,uint256,uint256)": {
        "notice": "Returns a digest that will be used in verification of a signature",
        "params": {
          "amount": "Amount of WKND tokens to be used in voting",
          "candidateId": "Candidate's ID",
          "citizenAddress": "Citizen's address"
        },
        "returns": {
          "_0": "Digest"
        }
      },
      "getNonce(address)": {
        "notice": "Returns a nonce fo the specified citizenAddress",
        "params": {
          "citizenAddress": "Citizen's address"
        },
        "returns": {
          "_0": "Nonce"
        }
      },
      "getSigner(bytes32,bytes)": {
        "notice": "Return the signer of a message",
        "params": {
          "digest": "Digested message",
          "signature": "Singature"
        },
        "returns": {
          "_0": "Signer of a message"
        }
      },
      "register(address)": {
        "notice": "Registers the _citizen to be able to participate in the elections",
        "params": {
          "_citizen": "Citizen's address"
        },
        "returns": {
          "_0": "Boolean : True if successful"
        }
      },
      "seeAllCandidates()": {
        "notice": "Returns an array of all candidates involved in the election",
        "returns": {
          "_0": "Array"
        }
      },
      "vote(uint256,uint256)": {
        "notice": "Voting function - casts a vote from msg.sender",
        "params": {
          "_amount": "Amount of WKND tokens to be used for voting",
          "_candidateId": "Candidate ID"
        }
      },
      "winningCandidates()": {
        "notice": "Returns the Election's top 3 candidates (winning candidates)",
        "returns": {
          "_0": "An array of top candidates"
        }
      }
    },
    "notice": "Voters Register (receive 1 WKND) token after which, they can particapate in the elections",
    "title": "Voting Contract",
    "version": 1
  },
  "opcodes": "PUSH1 0x80 PUSH1 0x40 MSTORE CALLVALUE DUP1 ISZERO PUSH2 0x10 JUMPI PUSH1 0x0 DUP1 REVERT JUMPDEST POP PUSH1 0x4 CALLDATASIZE LT PUSH2 0xA9 JUMPI PUSH1 0x0 CALLDATALOAD PUSH1 0xE0 SHR DUP1 PUSH4 0x4420E486 GT PUSH2 0x71 JUMPI DUP1 PUSH4 0x4420E486 EQ PUSH2 0x187 JUMPI DUP1 PUSH4 0x7107852A EQ PUSH2 0x19A JUMPI DUP1 PUSH4 0xB384ABEF EQ PUSH2 0x1A2 JUMPI DUP1 PUSH4 0xB8D06BC4 EQ PUSH2 0x1B5 JUMPI DUP1 PUSH4 0xDE90BB6F EQ PUSH2 0x1C8 JUMPI DUP1 PUSH4 0xF7B2EC0D EQ PUSH2 0x1D0 JUMPI PUSH1 0x0 DUP1 REVERT JUMPDEST DUP1 PUSH4 0xCF2EE64 EQ PUSH2 0xAE JUMPI DUP1 PUSH4 0x1565507E EQ PUSH2 0xEF JUMPI DUP1 PUSH4 0x2D0335AB EQ PUSH2 0x104 JUMPI DUP1 PUSH4 0x30226EFE EQ PUSH2 0x13B JUMPI DUP1 PUSH4 0x377968D4 EQ PUSH2 0x172 JUMPI JUMPDEST PUSH1 0x0 DUP1 REVERT JUMPDEST PUSH2 0xDA PUSH2 0xBC CALLDATASIZE PUSH1 0x4 PUSH2 0x15EB JUMP JUMPDEST PUSH1 0x1 PUSH1 0x1 PUSH1 0xA0 SHL SUB AND PUSH1 0x0 SWAP1 DUP2 MSTORE PUSH1 0x2 PUSH1 0x20 MSTORE PUSH1 0x40 SWAP1 KECCAK256 SLOAD PUSH1 0xFF AND SWAP1 JUMP JUMPDEST PUSH1 0x40 MLOAD SWAP1 ISZERO ISZERO DUP2 MSTORE PUSH1 0x20 ADD JUMPDEST PUSH1 0x40 MLOAD DUP1 SWAP2 SUB SWAP1 RETURN JUMPDEST PUSH2 0x102 PUSH2 0xFD CALLDATASIZE PUSH1 0x4 PUSH2 0x16A7 JUMP JUMPDEST PUSH2 0x1FB JUMP JUMPDEST STOP JUMPDEST PUSH2 0x12D PUSH2 0x112 CALLDATASIZE PUSH1 0x4 PUSH2 0x15EB JUMP JUMPDEST PUSH1 0x1 PUSH1 0x1 PUSH1 0xA0 SHL SUB AND PUSH1 0x0 SWAP1 DUP2 MSTORE PUSH1 0x3 PUSH1 0x20 MSTORE PUSH1 0x40 SWAP1 KECCAK256 SLOAD SWAP1 JUMP JUMPDEST PUSH1 0x40 MLOAD SWAP1 DUP2 MSTORE PUSH1 0x20 ADD PUSH2 0xE6 JUMP JUMPDEST PUSH2 0x14E PUSH2 0x149 CALLDATASIZE PUSH1 0x4 PUSH2 0x15EB JUMP JUMPDEST PUSH2 0x319 JUMP JUMPDEST PUSH1 0x40 DUP1 MLOAD DUP3 MLOAD DUP2 MSTORE PUSH1 0x20 DUP1 DUP5 ADD MLOAD SWAP1 DUP3 ADD MSTORE SWAP2 DUP2 ADD MLOAD ISZERO ISZERO SWAP1 DUP3 ADD MSTORE PUSH1 0x60 ADD PUSH2 0xE6 JUMP JUMPDEST PUSH2 0x17A PUSH2 0x386 JUMP JUMPDEST PUSH1 0x40 MLOAD PUSH2 0xE6 SWAP2 SWAP1 PUSH2 0x181C JUMP JUMPDEST PUSH2 0xDA PUSH2 0x195 CALLDATASIZE PUSH1 0x4 PUSH2 0x15EB JUMP JUMPDEST PUSH2 0x5DB JUMP JUMPDEST PUSH2 0xDA PUSH2 0x72F JUMP JUMPDEST PUSH2 0x102 PUSH2 0x1B0 CALLDATASIZE PUSH1 0x4 PUSH2 0x170D JUMP JUMPDEST PUSH2 0x79E JUMP JUMPDEST PUSH2 0x12D PUSH2 0x1C3 CALLDATASIZE PUSH1 0x4 PUSH2 0x1606 JUMP JUMPDEST PUSH2 0x7AD JUMP JUMPDEST PUSH2 0x17A PUSH2 0x83D JUMP JUMPDEST PUSH2 0x1E3 PUSH2 0x1DE CALLDATASIZE PUSH1 0x4 PUSH2 0x165B JUMP JUMPDEST PUSH2 0x9DB JUMP JUMPDEST PUSH1 0x40 MLOAD PUSH1 0x1 PUSH1 0x1 PUSH1 0xA0 SHL SUB SWAP1 SWAP2 AND DUP2 MSTORE PUSH1 0x20 ADD PUSH2 0xE6 JUMP JUMPDEST PUSH1 0x0 PUSH2 0x208 DUP5 DUP5 DUP5 PUSH2 0x7AD JUMP JUMPDEST SWAP1 POP PUSH1 0x0 PUSH2 0x217 DUP3 DUP9 DUP9 PUSH2 0x9DB JUMP JUMPDEST SWAP1 POP DUP5 PUSH1 0x1 PUSH1 0x1 PUSH1 0xA0 SHL SUB AND DUP2 PUSH1 0x1 PUSH1 0x1 PUSH1 0xA0 SHL SUB AND EQ PUSH2 0x28B JUMPI PUSH1 0x40 MLOAD PUSH3 0x461BCD PUSH1 0xE5 SHL DUP2 MSTORE PUSH1 0x20 PUSH1 0x4 DUP3 ADD MSTORE PUSH1 0x23 PUSH1 0x24 DUP3 ADD MSTORE PUSH32 0x46756E6374696F6E2060766F746560203A20696E76616C6964207369676E6174 PUSH1 0x44 DUP3 ADD MSTORE PUSH3 0x757265 PUSH1 0xE8 SHL PUSH1 0x64 DUP3 ADD MSTORE PUSH1 0x84 ADD JUMPDEST PUSH1 0x40 MLOAD DUP1 SWAP2 SUB SWAP1 REVERT JUMPDEST PUSH1 0x1 PUSH1 0x1 PUSH1 0xA0 SHL SUB DUP2 AND PUSH2 0x2DC JUMPI PUSH1 0x40 MLOAD PUSH3 0x461BCD PUSH1 0xE5 SHL DUP2 MSTORE PUSH1 0x20 PUSH1 0x4 DUP3 ADD MSTORE PUSH1 0x18 PUSH1 0x24 DUP3 ADD MSTORE PUSH24 0x45434453413A20696E76616C6964207369676E6174757265 PUSH1 0x40 SHL PUSH1 0x44 DUP3 ADD MSTORE PUSH1 0x64 ADD PUSH2 0x282 JUMP JUMPDEST PUSH2 0x2E7 DUP6 DUP6 DUP6 PUSH2 0xA25 JUMP JUMPDEST PUSH1 0x1 PUSH1 0x1 PUSH1 0xA0 SHL SUB DUP6 AND PUSH1 0x0 SWAP1 DUP2 MSTORE PUSH1 0x3 PUSH1 0x20 MSTORE PUSH1 0x40 DUP2 KECCAK256 DUP1 SLOAD SWAP2 PUSH2 0x30B DUP4 PUSH2 0x199A JUMP JUMPDEST SWAP2 SWAP1 POP SSTORE POP POP POP POP POP POP POP POP JUMP JUMPDEST PUSH2 0x33F PUSH1 0x40 MLOAD DUP1 PUSH1 0x60 ADD PUSH1 0x40 MSTORE DUP1 PUSH1 0x0 DUP2 MSTORE PUSH1 0x20 ADD PUSH1 0x0 DUP2 MSTORE PUSH1 0x20 ADD PUSH1 0x0 ISZERO ISZERO DUP2 MSTORE POP SWAP1 JUMP JUMPDEST POP PUSH1 0x1 PUSH1 0x1 PUSH1 0xA0 SHL SUB AND PUSH1 0x0 SWAP1 DUP2 MSTORE PUSH1 0x4 PUSH1 0x20 SWAP1 DUP2 MSTORE PUSH1 0x40 SWAP2 DUP3 SWAP1 KECCAK256 DUP3 MLOAD PUSH1 0x60 DUP2 ADD DUP5 MSTORE DUP2 SLOAD DUP2 MSTORE PUSH1 0x1 DUP3 ADD SLOAD SWAP3 DUP2 ADD SWAP3 SWAP1 SWAP3 MSTORE PUSH1 0x2 ADD SLOAD PUSH1 0xFF AND ISZERO ISZERO SWAP2 DUP2 ADD SWAP2 SWAP1 SWAP2 MSTORE SWAP1 JUMP JUMPDEST PUSH1 0x6 SLOAD PUSH1 0x60 SWAP1 PUSH1 0x0 SWAP1 PUSH8 0xFFFFFFFFFFFFFFFF DUP2 GT ISZERO PUSH2 0x3A7 JUMPI PUSH2 0x3A7 PUSH2 0x1A17 JUMP JUMPDEST PUSH1 0x40 MLOAD SWAP1 DUP1 DUP3 MSTORE DUP1 PUSH1 0x20 MUL PUSH1 0x20 ADD DUP3 ADD PUSH1 0x40 MSTORE DUP1 ISZERO PUSH2 0x406 JUMPI DUP2 PUSH1 0x20 ADD JUMPDEST PUSH2 0x3F3 PUSH1 0x40 MLOAD DUP1 PUSH1 0x80 ADD PUSH1 0x40 MSTORE DUP1 PUSH1 0x60 DUP2 MSTORE PUSH1 0x20 ADD PUSH1 0x0 PUSH1 0xFF AND DUP2 MSTORE PUSH1 0x20 ADD PUSH1 0x60 DUP2 MSTORE PUSH1 0x20 ADD PUSH1 0x0 DUP2 MSTORE POP SWAP1 JUMP JUMPDEST DUP2 MSTORE PUSH1 0x20 ADD SWAP1 PUSH1 0x1 SWAP1 SUB SWAP1 DUP2 PUSH2 0x3C5 JUMPI SWAP1 POP JUMPDEST POP SWAP1 POP PUSH1 0x0 JUMPDEST PUSH1 0x6 SLOAD PUSH1 0xFF DUP3 AND LT ISZERO PUSH2 0x5D5 JUMPI PUSH1 0x5 PUSH1 0x6 DUP3 PUSH1 0xFF AND DUP2 SLOAD DUP2 LT PUSH2 0x431 JUMPI PUSH2 0x431 PUSH2 0x1A01 JUMP JUMPDEST SWAP1 PUSH1 0x0 MSTORE PUSH1 0x20 PUSH1 0x0 KECCAK256 ADD SLOAD DUP2 SLOAD DUP2 LT PUSH2 0x44C JUMPI PUSH2 0x44C PUSH2 0x1A01 JUMP JUMPDEST SWAP1 PUSH1 0x0 MSTORE PUSH1 0x20 PUSH1 0x0 KECCAK256 SWAP1 PUSH1 0x4 MUL ADD PUSH1 0x40 MLOAD DUP1 PUSH1 0x80 ADD PUSH1 0x40 MSTORE SWAP1 DUP2 PUSH1 0x0 DUP3 ADD DUP1 SLOAD PUSH2 0x475 SWAP1 PUSH2 0x1965 JUMP JUMPDEST DUP1 PUSH1 0x1F ADD PUSH1 0x20 DUP1 SWAP2 DIV MUL PUSH1 0x20 ADD PUSH1 0x40 MLOAD SWAP1 DUP2 ADD PUSH1 0x40 MSTORE DUP1 SWAP3 SWAP2 SWAP1 DUP2 DUP2 MSTORE PUSH1 0x20 ADD DUP3 DUP1 SLOAD PUSH2 0x4A1 SWAP1 PUSH2 0x1965 JUMP JUMPDEST DUP1 ISZERO PUSH2 0x4EE JUMPI DUP1 PUSH1 0x1F LT PUSH2 0x4C3 JUMPI PUSH2 0x100 DUP1 DUP4 SLOAD DIV MUL DUP4 MSTORE SWAP2 PUSH1 0x20 ADD SWAP2 PUSH2 0x4EE JUMP JUMPDEST DUP3 ADD SWAP2 SWAP1 PUSH1 0x0 MSTORE PUSH1 0x20 PUSH1 0x0 KECCAK256 SWAP1 JUMPDEST DUP2 SLOAD DUP2 MSTORE SWAP1 PUSH1 0x1 ADD SWAP1 PUSH1 0x20 ADD DUP1 DUP4 GT PUSH2 0x4D1 JUMPI DUP3 SWAP1 SUB PUSH1 0x1F AND DUP3 ADD SWAP2 JUMPDEST POP POP POP SWAP2 DUP4 MSTORE POP POP PUSH1 0x1 DUP3 ADD SLOAD PUSH1 0xFF AND PUSH1 0x20 DUP3 ADD MSTORE PUSH1 0x2 DUP3 ADD DUP1 SLOAD PUSH1 0x40 SWAP1 SWAP3 ADD SWAP2 PUSH2 0x518 SWAP1 PUSH2 0x1965 JUMP JUMPDEST DUP1 PUSH1 0x1F ADD PUSH1 0x20 DUP1 SWAP2 DIV MUL PUSH1 0x20 ADD PUSH1 0x40 MLOAD SWAP1 DUP2 ADD PUSH1 0x40 MSTORE DUP1 SWAP3 SWAP2 SWAP1 DUP2 DUP2 MSTORE PUSH1 0x20 ADD DUP3 DUP1 SLOAD PUSH2 0x544 SWAP1 PUSH2 0x1965 JUMP JUMPDEST DUP1 ISZERO PUSH2 0x591 JUMPI DUP1 PUSH1 0x1F LT PUSH2 0x566 JUMPI PUSH2 0x100 DUP1 DUP4 SLOAD DIV MUL DUP4 MSTORE SWAP2 PUSH1 0x20 ADD SWAP2 PUSH2 0x591 JUMP JUMPDEST DUP3 ADD SWAP2 SWAP1 PUSH1 0x0 MSTORE PUSH1 0x20 PUSH1 0x0 KECCAK256 SWAP1 JUMPDEST DUP2 SLOAD DUP2 MSTORE SWAP1 PUSH1 0x1 ADD SWAP1 PUSH1 0x20 ADD DUP1 DUP4 GT PUSH2 0x574 JUMPI DUP3 SWAP1 SUB PUSH1 0x1F AND DUP3 ADD SWAP2 JUMPDEST POP POP POP POP POP DUP2 MSTORE PUSH1 0x20 ADD PUSH1 0x3 DUP3 ADD SLOAD DUP2 MSTORE POP POP DUP3 DUP3 PUSH1 0xFF AND DUP2 MLOAD DUP2 LT PUSH2 0x5B9 JUMPI PUSH2 0x5B9 PUSH2 0x1A01 JUMP JUMPDEST PUSH1 0x20 MUL PUSH1 0x20 ADD ADD DUP2 SWAP1 MSTORE POP DUP1 PUSH2 0x5CE SWAP1 PUSH2 0x19B5 JUMP JUMPDEST SWAP1 POP PUSH2 0x40C JUMP JUMPDEST POP SWAP2 SWAP1 POP JUMP JUMPDEST PUSH1 0x1 PUSH1 0x1 PUSH1 0xA0 SHL SUB DUP2 AND PUSH1 0x0 SWAP1 DUP2 MSTORE PUSH1 0x2 PUSH1 0x20 MSTORE PUSH1 0x40 DUP2 KECCAK256 SLOAD PUSH1 0xFF AND ISZERO ISZERO PUSH1 0x1 EQ ISZERO PUSH2 0x67E JUMPI PUSH1 0x40 MLOAD PUSH3 0x461BCD PUSH1 0xE5 SHL DUP2 MSTORE PUSH1 0x20 PUSH1 0x4 DUP3 ADD MSTORE PUSH1 0x46 PUSH1 0x24 DUP3 ADD MSTORE PUSH32 0x54686520636974697A656E20686173206265656E207265676973746572656420 PUSH1 0x44 DUP3 ADD MSTORE PUSH32 0x2D20746865726520617265206E6F206D756C7469706C65207265676973747261 PUSH1 0x64 DUP3 ADD MSTORE PUSH6 0x3A34B7B73997 PUSH1 0xD1 SHL PUSH1 0x84 DUP3 ADD MSTORE PUSH1 0xA4 ADD PUSH2 0x282 JUMP JUMPDEST PUSH1 0x1 DUP1 SLOAD PUSH1 0x40 MLOAD PUSH4 0xBC0E60E1 PUSH1 0xE0 SHL DUP2 MSTORE PUSH1 0x1 PUSH1 0x1 PUSH1 0xA0 SHL SUB DUP6 DUP2 AND PUSH1 0x4 DUP4 ADD MSTORE PUSH1 0x24 DUP3 ADD SWAP4 SWAP1 SWAP4 MSTORE SWAP2 AND SWAP1 PUSH4 0xBC0E60E1 SWAP1 PUSH1 0x44 ADD PUSH1 0x20 PUSH1 0x40 MLOAD DUP1 DUP4 SUB DUP2 PUSH1 0x0 DUP8 DUP1 EXTCODESIZE ISZERO DUP1 ISZERO PUSH2 0x6CD JUMPI PUSH1 0x0 DUP1 REVERT JUMPDEST POP GAS CALL ISZERO DUP1 ISZERO PUSH2 0x6E1 JUMPI RETURNDATASIZE PUSH1 0x0 DUP1 RETURNDATACOPY RETURNDATASIZE PUSH1 0x0 REVERT JUMPDEST POP POP POP POP PUSH1 0x40 MLOAD RETURNDATASIZE PUSH1 0x1F NOT PUSH1 0x1F DUP3 ADD AND DUP3 ADD DUP1 PUSH1 0x40 MSTORE POP DUP2 ADD SWAP1 PUSH2 0x705 SWAP2 SWAP1 PUSH2 0x1639 JUMP JUMPDEST POP POP PUSH1 0x1 PUSH1 0x1 PUSH1 0xA0 SHL SUB AND PUSH1 0x0 SWAP1 DUP2 MSTORE PUSH1 0x2 PUSH1 0x20 MSTORE PUSH1 0x40 SWAP1 KECCAK256 DUP1 SLOAD PUSH1 0xFF NOT AND PUSH1 0x1 SWAP1 DUP2 OR SWAP1 SWAP2 SSTORE SWAP1 JUMP JUMPDEST PUSH1 0x0 DUP1 SLOAD PUSH1 0x1 PUSH1 0x1 PUSH1 0xA0 SHL SUB AND CALLER EQ PUSH2 0x78A JUMPI PUSH1 0x40 MLOAD PUSH3 0x461BCD PUSH1 0xE5 SHL DUP2 MSTORE PUSH1 0x20 PUSH1 0x4 DUP3 ADD MSTORE PUSH1 0x1F PUSH1 0x24 DUP3 ADD MSTORE PUSH32 0x4F6E6C79204B494E472063616E20656E642074686520656C656374696F6E2E00 PUSH1 0x44 DUP3 ADD MSTORE PUSH1 0x64 ADD PUSH2 0x282 JUMP JUMPDEST POP PUSH1 0x7 DUP1 SLOAD PUSH1 0xFF NOT AND PUSH1 0x1 SWAP1 DUP2 OR SWAP1 SWAP2 SSTORE SWAP1 JUMP JUMPDEST PUSH2 0x7A9 CALLER DUP4 DUP4 PUSH2 0xA25 JUMP JUMPDEST POP POP JUMP JUMPDEST PUSH1 0x1 PUSH1 0x1 PUSH1 0xA0 SHL SUB DUP4 AND PUSH1 0x0 DUP2 DUP2 MSTORE PUSH1 0x3 PUSH1 0x20 SWAP1 DUP2 MSTORE PUSH1 0x40 DUP1 DUP4 KECCAK256 SLOAD DUP2 MLOAD PUSH32 0xA56F781F7251D29FCA13933D69C34316EA277F967C4A968F77DB62D983FE1120 SWAP4 DUP2 ADD SWAP4 SWAP1 SWAP4 MSTORE SWAP1 DUP3 ADD SWAP4 SWAP1 SWAP4 MSTORE PUSH1 0x60 DUP2 ADD DUP6 SWAP1 MSTORE PUSH1 0x80 DUP2 ADD DUP5 SWAP1 MSTORE PUSH1 0xA0 DUP2 ADD DUP4 SWAP1 MSTORE SWAP1 SWAP2 SWAP1 PUSH2 0x834 SWAP1 PUSH1 0xC0 ADD PUSH1 0x40 MLOAD PUSH1 0x20 DUP2 DUP4 SUB SUB DUP2 MSTORE SWAP1 PUSH1 0x40 MSTORE DUP1 MLOAD SWAP1 PUSH1 0x20 ADD KECCAK256 PUSH2 0xDD6 JUMP JUMPDEST SWAP6 SWAP5 POP POP POP POP POP JUMP JUMPDEST PUSH1 0x60 PUSH1 0x5 DUP1 SLOAD DUP1 PUSH1 0x20 MUL PUSH1 0x20 ADD PUSH1 0x40 MLOAD SWAP1 DUP2 ADD PUSH1 0x40 MSTORE DUP1 SWAP3 SWAP2 SWAP1 DUP2 DUP2 MSTORE PUSH1 0x20 ADD PUSH1 0x0 SWAP1 JUMPDEST DUP3 DUP3 LT ISZERO PUSH2 0x9D2 JUMPI DUP4 DUP3 SWAP1 PUSH1 0x0 MSTORE PUSH1 0x20 PUSH1 0x0 KECCAK256 SWAP1 PUSH1 0x4 MUL ADD PUSH1 0x40 MLOAD DUP1 PUSH1 0x80 ADD PUSH1 0x40 MSTORE SWAP1 DUP2 PUSH1 0x0 DUP3 ADD DUP1 SLOAD PUSH2 0x894 SWAP1 PUSH2 0x1965 JUMP JUMPDEST DUP1 PUSH1 0x1F ADD PUSH1 0x20 DUP1 SWAP2 DIV MUL PUSH1 0x20 ADD PUSH1 0x40 MLOAD SWAP1 DUP2 ADD PUSH1 0x40 MSTORE DUP1 SWAP3 SWAP2 SWAP1 DUP2 DUP2 MSTORE PUSH1 0x20 ADD DUP3 DUP1 SLOAD PUSH2 0x8C0 SWAP1 PUSH2 0x1965 JUMP JUMPDEST DUP1 ISZERO PUSH2 0x90D JUMPI DUP1 PUSH1 0x1F LT PUSH2 0x8E2 JUMPI PUSH2 0x100 DUP1 DUP4 SLOAD DIV MUL DUP4 MSTORE SWAP2 PUSH1 0x20 ADD SWAP2 PUSH2 0x90D JUMP JUMPDEST DUP3 ADD SWAP2 SWAP1 PUSH1 0x0 MSTORE PUSH1 0x20 PUSH1 0x0 KECCAK256 SWAP1 JUMPDEST DUP2 SLOAD DUP2 MSTORE SWAP1 PUSH1 0x1 ADD SWAP1 PUSH1 0x20 ADD DUP1 DUP4 GT PUSH2 0x8F0 JUMPI DUP3 SWAP1 SUB PUSH1 0x1F AND DUP3 ADD SWAP2 JUMPDEST POP POP POP SWAP2 DUP4 MSTORE POP POP PUSH1 0x1 DUP3 ADD SLOAD PUSH1 0xFF AND PUSH1 0x20 DUP3 ADD MSTORE PUSH1 0x2 DUP3 ADD DUP1 SLOAD PUSH1 0x40 SWAP1 SWAP3 ADD SWAP2 PUSH2 0x937 SWAP1 PUSH2 0x1965 JUMP JUMPDEST DUP1 PUSH1 0x1F ADD PUSH1 0x20 DUP1 SWAP2 DIV MUL PUSH1 0x20 ADD PUSH1 0x40 MLOAD SWAP1 DUP2 ADD PUSH1 0x40 MSTORE DUP1 SWAP3 SWAP2 SWAP1 DUP2 DUP2 MSTORE PUSH1 0x20 ADD DUP3 DUP1 SLOAD PUSH2 0x963 SWAP1 PUSH2 0x1965 JUMP JUMPDEST DUP1 ISZERO PUSH2 0x9B0 JUMPI DUP1 PUSH1 0x1F LT PUSH2 0x985 JUMPI PUSH2 0x100 DUP1 DUP4 SLOAD DIV MUL DUP4 MSTORE SWAP2 PUSH1 0x20 ADD SWAP2 PUSH2 0x9B0 JUMP JUMPDEST DUP3 ADD SWAP2 SWAP1 PUSH1 0x0 MSTORE PUSH1 0x20 PUSH1 0x0 KECCAK256 SWAP1 JUMPDEST DUP2 SLOAD DUP2 MSTORE SWAP1 PUSH1 0x1 ADD SWAP1 PUSH1 0x20 ADD DUP1 DUP4 GT PUSH2 0x993 JUMPI DUP3 SWAP1 SUB PUSH1 0x1F AND DUP3 ADD SWAP2 JUMPDEST POP POP POP POP POP DUP2 MSTORE PUSH1 0x20 ADD PUSH1 0x3 DUP3 ADD SLOAD DUP2 MSTORE POP POP DUP2 MSTORE PUSH1 0x20 ADD SWAP1 PUSH1 0x1 ADD SWAP1 PUSH2 0x861 JUMP JUMPDEST POP POP POP POP SWAP1 POP SWAP1 JUMP JUMPDEST PUSH1 0x0 PUSH2 0xA1D DUP5 DUP5 DUP5 DUP1 DUP1 PUSH1 0x1F ADD PUSH1 0x20 DUP1 SWAP2 DIV MUL PUSH1 0x20 ADD PUSH1 0x40 MLOAD SWAP1 DUP2 ADD PUSH1 0x40 MSTORE DUP1 SWAP4 SWAP3 SWAP2 SWAP1 DUP2 DUP2 MSTORE PUSH1 0x20 ADD DUP4 DUP4 DUP1 DUP3 DUP5 CALLDATACOPY PUSH1 0x0 SWAP3 ADD SWAP2 SWAP1 SWAP2 MSTORE POP PUSH2 0xE2A SWAP3 POP POP POP JUMP JUMPDEST SWAP5 SWAP4 POP POP POP POP JUMP JUMPDEST PUSH1 0x7 SLOAD PUSH1 0xFF AND ISZERO ISZERO PUSH1 0x1 EQ ISZERO PUSH2 0xA91 JUMPI PUSH1 0x40 MLOAD PUSH3 0x461BCD PUSH1 0xE5 SHL DUP2 MSTORE PUSH1 0x20 PUSH1 0x4 DUP3 ADD MSTORE PUSH1 0x2B PUSH1 0x24 DUP3 ADD MSTORE PUSH32 0x566F74696E6720666F72207468652063757272656E7420656C656374696F6E20 PUSH1 0x44 DUP3 ADD MSTORE PUSH11 0x3430B99032B73232B21017 PUSH1 0xA9 SHL PUSH1 0x64 DUP3 ADD MSTORE PUSH1 0x84 ADD PUSH2 0x282 JUMP JUMPDEST PUSH1 0x1 PUSH1 0x1 PUSH1 0xA0 SHL SUB DUP4 AND PUSH1 0x0 SWAP1 DUP2 MSTORE PUSH1 0x4 PUSH1 0x20 MSTORE PUSH1 0x40 SWAP1 KECCAK256 PUSH1 0x2 ADD SLOAD PUSH1 0xFF AND ISZERO ISZERO PUSH1 0x1 EQ ISZERO PUSH2 0xB16 JUMPI PUSH1 0x40 MLOAD PUSH3 0x461BCD PUSH1 0xE5 SHL DUP2 MSTORE PUSH1 0x20 PUSH1 0x4 DUP3 ADD MSTORE PUSH1 0x2B PUSH1 0x24 DUP3 ADD MSTORE PUSH32 0x54686520636974697A656E20616C726561647920766F74656420696E20746865 PUSH1 0x44 DUP3 ADD MSTORE PUSH11 0x1032B632B1BA34B7B71017 PUSH1 0xA9 SHL PUSH1 0x64 DUP3 ADD MSTORE PUSH1 0x84 ADD PUSH2 0x282 JUMP JUMPDEST PUSH1 0x1 DUP2 LT ISZERO PUSH2 0xB82 JUMPI PUSH1 0x40 MLOAD PUSH3 0x461BCD PUSH1 0xE5 SHL DUP2 MSTORE PUSH1 0x20 PUSH1 0x4 DUP3 ADD MSTORE PUSH1 0x32 PUSH1 0x24 DUP3 ADD MSTORE PUSH32 0x54686520616D6F756E74206973206C6573736572207468616E20746865205245 PUSH1 0x44 DUP3 ADD MSTORE PUSH18 0x23A4A9AA2920AA24A7A71020A6A7AAA72A17 PUSH1 0x71 SHL PUSH1 0x64 DUP3 ADD MSTORE PUSH1 0x84 ADD PUSH2 0x282 JUMP JUMPDEST PUSH1 0x5 SLOAD DUP3 LT PUSH2 0xBF9 JUMPI PUSH1 0x40 MLOAD PUSH3 0x461BCD PUSH1 0xE5 SHL DUP2 MSTORE PUSH1 0x20 PUSH1 0x4 DUP3 ADD MSTORE PUSH1 0x38 PUSH1 0x24 DUP3 ADD MSTORE PUSH32 0x5468652063616E6469646174652049442067726561746572207468616E207468 PUSH1 0x44 DUP3 ADD MSTORE PUSH32 0x65206E756D626572206F662063616E6469646174657320210000000000000000 PUSH1 0x64 DUP3 ADD MSTORE PUSH1 0x84 ADD PUSH2 0x282 JUMP JUMPDEST PUSH1 0x1 SLOAD PUSH1 0x40 MLOAD PUSH4 0x14294617 PUSH1 0xE1 SHL DUP2 MSTORE PUSH1 0x1 PUSH1 0x1 PUSH1 0xA0 SHL SUB DUP6 DUP2 AND PUSH1 0x4 DUP4 ADD MSTORE PUSH1 0x24 DUP3 ADD DUP5 SWAP1 MSTORE SWAP1 SWAP2 AND SWAP1 PUSH4 0x28528C2E SWAP1 PUSH1 0x44 ADD PUSH1 0x20 PUSH1 0x40 MLOAD DUP1 DUP4 SUB DUP2 PUSH1 0x0 DUP8 DUP1 EXTCODESIZE ISZERO DUP1 ISZERO PUSH2 0xC47 JUMPI PUSH1 0x0 DUP1 REVERT JUMPDEST POP GAS CALL ISZERO DUP1 ISZERO PUSH2 0xC5B JUMPI RETURNDATASIZE PUSH1 0x0 DUP1 RETURNDATACOPY RETURNDATASIZE PUSH1 0x0 REVERT JUMPDEST POP POP POP POP PUSH1 0x40 MLOAD RETURNDATASIZE PUSH1 0x1F NOT PUSH1 0x1F DUP3 ADD AND DUP3 ADD DUP1 PUSH1 0x40 MSTORE POP DUP2 ADD SWAP1 PUSH2 0xC7F SWAP2 SWAP1 PUSH2 0x1639 JUMP JUMPDEST POP PUSH2 0xCB7 DUP2 PUSH1 0x5 DUP5 DUP2 SLOAD DUP2 LT PUSH2 0xC97 JUMPI PUSH2 0xC97 PUSH2 0x1A01 JUMP JUMPDEST SWAP1 PUSH1 0x0 MSTORE PUSH1 0x20 PUSH1 0x0 KECCAK256 SWAP1 PUSH1 0x4 MUL ADD PUSH1 0x3 ADD SLOAD PUSH2 0xE4E SWAP1 SWAP2 SWAP1 PUSH4 0xFFFFFFFF AND JUMP JUMPDEST PUSH1 0x5 DUP4 DUP2 SLOAD DUP2 LT PUSH2 0xCCA JUMPI PUSH2 0xCCA PUSH2 0x1A01 JUMP JUMPDEST PUSH1 0x0 SWAP2 DUP3 MSTORE PUSH1 0x20 DUP1 DUP4 KECCAK256 PUSH1 0x4 SWAP3 DUP4 MUL ADD PUSH1 0x3 ADD SWAP4 SWAP1 SWAP4 SSTORE PUSH1 0x1 PUSH1 0x1 PUSH1 0xA0 SHL SUB DUP7 AND DUP3 MSTORE SWAP1 SWAP2 MSTORE PUSH1 0x40 SWAP1 KECCAK256 DUP3 DUP2 SSTORE PUSH1 0x1 DUP1 DUP3 ADD DUP4 SWAP1 SSTORE PUSH1 0x2 SWAP1 SWAP2 ADD DUP1 SLOAD PUSH1 0xFF NOT AND SWAP1 SWAP2 OR SWAP1 SSTORE PUSH2 0xD18 DUP3 PUSH2 0xE61 JUMP JUMPDEST PUSH2 0xDCE JUMPI PUSH2 0xD24 PUSH2 0xEBC JUMP JUMPDEST PUSH1 0x5 DUP4 DUP2 SLOAD DUP2 LT PUSH2 0xD37 JUMPI PUSH2 0xD37 PUSH2 0x1A01 JUMP JUMPDEST SWAP1 PUSH1 0x0 MSTORE PUSH1 0x20 PUSH1 0x0 KECCAK256 SWAP1 PUSH1 0x4 MUL ADD PUSH1 0x3 ADD SLOAD GT DUP1 PUSH2 0xD57 JUMPI POP PUSH1 0x6 SLOAD PUSH1 0x3 GT JUMPDEST ISZERO PUSH2 0xDC9 JUMPI PUSH2 0xD65 DUP3 PUSH2 0xF21 JUMP JUMPDEST PUSH2 0xD6D PUSH2 0xF92 JUMP JUMPDEST PUSH32 0x6FEB6D2E3B854B96FF5A9F8E857F483FBFF471F03C8F8451FDEDFFE83CC605B PUSH1 0x5 DUP4 DUP2 SLOAD DUP2 LT PUSH2 0xDA1 JUMPI PUSH2 0xDA1 PUSH2 0x1A01 JUMP JUMPDEST SWAP1 PUSH1 0x0 MSTORE PUSH1 0x20 PUSH1 0x0 KECCAK256 SWAP1 PUSH1 0x4 MUL ADD PUSH1 0x40 MLOAD PUSH2 0xDBC SWAP2 SWAP1 PUSH2 0x18BB JUMP JUMPDEST PUSH1 0x40 MLOAD DUP1 SWAP2 SUB SWAP1 LOG1 POP POP POP JUMP JUMPDEST POP POP POP JUMP JUMPDEST PUSH2 0xDC9 PUSH2 0xF92 JUMP JUMPDEST PUSH1 0x0 PUSH2 0xE24 PUSH2 0xDE3 PUSH2 0x1124 JUMP JUMPDEST DUP4 PUSH1 0x40 MLOAD PUSH2 0x1901 PUSH1 0xF0 SHL PUSH1 0x20 DUP3 ADD MSTORE PUSH1 0x22 DUP2 ADD DUP4 SWAP1 MSTORE PUSH1 0x42 DUP2 ADD DUP3 SWAP1 MSTORE PUSH1 0x0 SWAP1 PUSH1 0x62 ADD PUSH1 0x40 MLOAD PUSH1 0x20 DUP2 DUP4 SUB SUB DUP2 MSTORE SWAP1 PUSH1 0x40 MSTORE DUP1 MLOAD SWAP1 PUSH1 0x20 ADD KECCAK256 SWAP1 POP SWAP3 SWAP2 POP POP JUMP JUMPDEST SWAP3 SWAP2 POP POP JUMP JUMPDEST PUSH1 0x0 DUP1 PUSH1 0x0 PUSH2 0xE39 DUP6 DUP6 PUSH2 0x124B JUMP JUMPDEST SWAP2 POP SWAP2 POP PUSH2 0xE46 DUP2 PUSH2 0x12BB JUMP JUMPDEST POP SWAP4 SWAP3 POP POP POP JUMP JUMPDEST PUSH1 0x0 PUSH2 0xE5A DUP3 DUP5 PUSH2 0x1911 JUMP JUMPDEST SWAP4 SWAP3 POP POP POP JUMP JUMPDEST PUSH1 0x0 DUP1 JUMPDEST PUSH1 0x6 SLOAD PUSH1 0xFF DUP3 AND LT ISZERO PUSH2 0xEB3 JUMPI PUSH1 0x6 DUP2 PUSH1 0xFF AND DUP2 SLOAD DUP2 LT PUSH2 0xE88 JUMPI PUSH2 0xE88 PUSH2 0x1A01 JUMP JUMPDEST SWAP1 PUSH1 0x0 MSTORE PUSH1 0x20 PUSH1 0x0 KECCAK256 ADD SLOAD DUP4 EQ ISZERO PUSH2 0xEA3 JUMPI POP PUSH1 0x1 SWAP3 SWAP2 POP POP JUMP JUMPDEST PUSH2 0xEAC DUP2 PUSH2 0x19B5 JUMP JUMPDEST SWAP1 POP PUSH2 0xE65 JUMP JUMPDEST POP PUSH1 0x0 SWAP3 SWAP2 POP POP JUMP JUMPDEST PUSH1 0x6 SLOAD PUSH1 0x0 SWAP1 DUP1 PUSH2 0xECE JUMPI PUSH1 0x0 PUSH2 0xF1B JUMP JUMPDEST PUSH1 0x5 PUSH1 0x6 PUSH2 0xEDD PUSH1 0x1 DUP5 PUSH2 0x194E JUMP JUMPDEST DUP2 SLOAD DUP2 LT PUSH2 0xEED JUMPI PUSH2 0xEED PUSH2 0x1A01 JUMP JUMPDEST SWAP1 PUSH1 0x0 MSTORE PUSH1 0x20 PUSH1 0x0 KECCAK256 ADD SLOAD DUP2 SLOAD DUP2 LT PUSH2 0xF08 JUMPI PUSH2 0xF08 PUSH2 0x1A01 JUMP JUMPDEST SWAP1 PUSH1 0x0 MSTORE PUSH1 0x20 PUSH1 0x0 KECCAK256 SWAP1 PUSH1 0x4 MUL ADD PUSH1 0x3 ADD SLOAD JUMPDEST SWAP2 POP POP SWAP1 JUMP JUMPDEST PUSH1 0x6 SLOAD PUSH1 0x3 DUP2 LT ISZERO PUSH2 0xF63 JUMPI POP PUSH1 0x6 DUP1 SLOAD PUSH1 0x1 DUP2 ADD DUP3 SSTORE PUSH1 0x0 SWAP2 SWAP1 SWAP2 MSTORE PUSH32 0xF652222313E28459528D920B65115C16C04F3EFC82AAEDC97BE59F3F377C0D3F ADD SSTORE JUMP JUMPDEST DUP2 PUSH1 0x6 PUSH2 0xF72 PUSH1 0x1 PUSH1 0x3 PUSH2 0x194E JUMP JUMPDEST DUP2 SLOAD DUP2 LT PUSH2 0xF82 JUMPI PUSH2 0xF82 PUSH2 0x1A01 JUMP JUMPDEST PUSH1 0x0 SWAP2 DUP3 MSTORE PUSH1 0x20 SWAP1 SWAP2 KECCAK256 ADD SSTORE POP POP JUMP JUMPDEST PUSH1 0x6 SLOAD PUSH2 0xF9B JUMPI JUMP JUMPDEST PUSH1 0x0 JUMPDEST PUSH1 0x6 SLOAD PUSH2 0xFAD SWAP1 PUSH1 0x1 SWAP1 PUSH2 0x194E JUMP JUMPDEST DUP2 PUSH1 0xFF AND LT ISZERO PUSH2 0x1121 JUMPI PUSH1 0x0 PUSH2 0xFC4 DUP3 PUSH1 0x1 PUSH2 0x1929 JUMP JUMPDEST SWAP1 POP JUMPDEST PUSH1 0x6 SLOAD PUSH1 0xFF DUP3 AND LT ISZERO PUSH2 0x1110 JUMPI PUSH1 0x0 PUSH1 0x6 DUP4 PUSH1 0xFF AND DUP2 SLOAD DUP2 LT PUSH2 0xFEC JUMPI PUSH2 0xFEC PUSH2 0x1A01 JUMP JUMPDEST SWAP1 PUSH1 0x0 MSTORE PUSH1 0x20 PUSH1 0x0 KECCAK256 ADD SLOAD SWAP1 POP PUSH1 0x0 PUSH1 0x6 DUP4 PUSH1 0xFF AND DUP2 SLOAD DUP2 LT PUSH2 0x1011 JUMPI PUSH2 0x1011 PUSH2 0x1A01 JUMP JUMPDEST SWAP1 PUSH1 0x0 MSTORE PUSH1 0x20 PUSH1 0x0 KECCAK256 ADD SLOAD SWAP1 POP PUSH1 0x5 DUP2 DUP2 SLOAD DUP2 LT PUSH2 0x1031 JUMPI PUSH2 0x1031 PUSH2 0x1A01 JUMP JUMPDEST SWAP1 PUSH1 0x0 MSTORE PUSH1 0x20 PUSH1 0x0 KECCAK256 SWAP1 PUSH1 0x4 MUL ADD PUSH1 0x3 ADD SLOAD PUSH1 0x5 DUP4 DUP2 SLOAD DUP2 LT PUSH2 0x1056 JUMPI PUSH2 0x1056 PUSH2 0x1A01 JUMP JUMPDEST SWAP1 PUSH1 0x0 MSTORE PUSH1 0x20 PUSH1 0x0 KECCAK256 SWAP1 PUSH1 0x4 MUL ADD PUSH1 0x3 ADD SLOAD LT ISZERO PUSH2 0x10FD JUMPI PUSH1 0x0 PUSH1 0x6 DUP6 PUSH1 0xFF AND DUP2 SLOAD DUP2 LT PUSH2 0x1086 JUMPI PUSH2 0x1086 PUSH2 0x1A01 JUMP JUMPDEST SWAP1 PUSH1 0x0 MSTORE PUSH1 0x20 PUSH1 0x0 KECCAK256 ADD SLOAD SWAP1 POP PUSH1 0x6 DUP5 PUSH1 0xFF AND DUP2 SLOAD DUP2 LT PUSH2 0x10A9 JUMPI PUSH2 0x10A9 PUSH2 0x1A01 JUMP JUMPDEST SWAP1 PUSH1 0x0 MSTORE PUSH1 0x20 PUSH1 0x0 KECCAK256 ADD SLOAD PUSH1 0x6 DUP7 PUSH1 0xFF AND DUP2 SLOAD DUP2 LT PUSH2 0x10CA JUMPI PUSH2 0x10CA PUSH2 0x1A01 JUMP JUMPDEST SWAP1 PUSH1 0x0 MSTORE PUSH1 0x20 PUSH1 0x0 KECCAK256 ADD DUP2 SWAP1 SSTORE POP DUP1 PUSH1 0x6 DUP6 PUSH1 0xFF AND DUP2 SLOAD DUP2 LT PUSH2 0x10EF JUMPI PUSH2 0x10EF PUSH2 0x1A01 JUMP JUMPDEST PUSH1 0x0 SWAP2 DUP3 MSTORE PUSH1 0x20 SWAP1 SWAP2 KECCAK256 ADD SSTORE POP JUMPDEST POP POP DUP1 PUSH2 0x1109 SWAP1 PUSH2 0x19B5 JUMP JUMPDEST SWAP1 POP PUSH2 0xFC7 JUMP JUMPDEST POP PUSH2 0x111A DUP2 PUSH2 0x19B5 JUMP JUMPDEST SWAP1 POP PUSH2 0xF9E JUMP JUMPDEST POP JUMP JUMPDEST PUSH1 0x0 ADDRESS PUSH1 0x1 PUSH1 0x1 PUSH1 0xA0 SHL SUB PUSH32 0x0 AND EQ DUP1 ISZERO PUSH2 0x117D JUMPI POP PUSH32 0x0 CHAINID EQ JUMPDEST ISZERO PUSH2 0x11A7 JUMPI POP PUSH32 0x0 SWAP1 JUMP JUMPDEST POP PUSH1 0x40 DUP1 MLOAD PUSH32 0x0 PUSH1 0x20 DUP1 DUP4 ADD SWAP2 SWAP1 SWAP2 MSTORE PUSH32 0x0 DUP3 DUP5 ADD MSTORE PUSH32 0x0 PUSH1 0x60 DUP4 ADD MSTORE CHAINID PUSH1 0x80 DUP4 ADD MSTORE ADDRESS PUSH1 0xA0 DUP1 DUP5 ADD SWAP2 SWAP1 SWAP2 MSTORE DUP4 MLOAD DUP1 DUP5 SUB SWAP1 SWAP2 ADD DUP2 MSTORE PUSH1 0xC0 SWAP1 SWAP3 ADD SWAP1 SWAP3 MSTORE DUP1 MLOAD SWAP2 ADD KECCAK256 SWAP1 JUMP JUMPDEST PUSH1 0x0 DUP1 DUP3 MLOAD PUSH1 0x41 EQ ISZERO PUSH2 0x1282 JUMPI PUSH1 0x20 DUP4 ADD MLOAD PUSH1 0x40 DUP5 ADD MLOAD PUSH1 0x60 DUP6 ADD MLOAD PUSH1 0x0 BYTE PUSH2 0x1276 DUP8 DUP3 DUP6 DUP6 PUSH2 0x1471 JUMP JUMPDEST SWAP5 POP SWAP5 POP POP POP POP PUSH2 0x12B4 JUMP JUMPDEST DUP3 MLOAD PUSH1 0x40 EQ ISZERO PUSH2 0x12AC JUMPI PUSH1 0x20 DUP4 ADD MLOAD PUSH1 0x40 DUP5 ADD MLOAD PUSH2 0x12A1 DUP7 DUP4 DUP4 PUSH2 0x155E JUMP JUMPDEST SWAP4 POP SWAP4 POP POP POP PUSH2 0x12B4 JUMP JUMPDEST POP PUSH1 0x0 SWAP1 POP PUSH1 0x2 JUMPDEST SWAP3 POP SWAP3 SWAP1 POP JUMP JUMPDEST PUSH1 0x0 DUP2 PUSH1 0x4 DUP2 GT ISZERO PUSH2 0x12CF JUMPI PUSH2 0x12CF PUSH2 0x19EB JUMP JUMPDEST EQ ISZERO PUSH2 0x12D8 JUMPI POP JUMP JUMPDEST PUSH1 0x1 DUP2 PUSH1 0x4 DUP2 GT ISZERO PUSH2 0x12EC JUMPI PUSH2 0x12EC PUSH2 0x19EB JUMP JUMPDEST EQ ISZERO PUSH2 0x1335 JUMPI PUSH1 0x40 MLOAD PUSH3 0x461BCD PUSH1 0xE5 SHL DUP2 MSTORE PUSH1 0x20 PUSH1 0x4 DUP3 ADD MSTORE PUSH1 0x18 PUSH1 0x24 DUP3 ADD MSTORE PUSH24 0x45434453413A20696E76616C6964207369676E6174757265 PUSH1 0x40 SHL PUSH1 0x44 DUP3 ADD MSTORE PUSH1 0x64 ADD PUSH2 0x282 JUMP JUMPDEST PUSH1 0x2 DUP2 PUSH1 0x4 DUP2 GT ISZERO PUSH2 0x1349 JUMPI PUSH2 0x1349 PUSH2 0x19EB JUMP JUMPDEST EQ ISZERO PUSH2 0x1397 JUMPI PUSH1 0x40 MLOAD PUSH3 0x461BCD PUSH1 0xE5 SHL DUP2 MSTORE PUSH1 0x20 PUSH1 0x4 DUP3 ADD MSTORE PUSH1 0x1F PUSH1 0x24 DUP3 ADD MSTORE PUSH32 0x45434453413A20696E76616C6964207369676E6174757265206C656E67746800 PUSH1 0x44 DUP3 ADD MSTORE PUSH1 0x64 ADD PUSH2 0x282 JUMP JUMPDEST PUSH1 0x3 DUP2 PUSH1 0x4 DUP2 GT ISZERO PUSH2 0x13AB JUMPI PUSH2 0x13AB PUSH2 0x19EB JUMP JUMPDEST EQ ISZERO PUSH2 0x1404 JUMPI PUSH1 0x40 MLOAD PUSH3 0x461BCD PUSH1 0xE5 SHL DUP2 MSTORE PUSH1 0x20 PUSH1 0x4 DUP3 ADD MSTORE PUSH1 0x22 PUSH1 0x24 DUP3 ADD MSTORE PUSH32 0x45434453413A20696E76616C6964207369676E6174757265202773272076616C PUSH1 0x44 DUP3 ADD MSTORE PUSH2 0x7565 PUSH1 0xF0 SHL PUSH1 0x64 DUP3 ADD MSTORE PUSH1 0x84 ADD PUSH2 0x282 JUMP JUMPDEST PUSH1 0x4 DUP2 PUSH1 0x4 DUP2 GT ISZERO PUSH2 0x1418 JUMPI PUSH2 0x1418 PUSH2 0x19EB JUMP JUMPDEST EQ ISZERO PUSH2 0x1121 JUMPI PUSH1 0x40 MLOAD PUSH3 0x461BCD PUSH1 0xE5 SHL DUP2 MSTORE PUSH1 0x20 PUSH1 0x4 DUP3 ADD MSTORE PUSH1 0x22 PUSH1 0x24 DUP3 ADD MSTORE PUSH32 0x45434453413A20696E76616C6964207369676E6174757265202776272076616C PUSH1 0x44 DUP3 ADD MSTORE PUSH2 0x7565 PUSH1 0xF0 SHL PUSH1 0x64 DUP3 ADD MSTORE PUSH1 0x84 ADD PUSH2 0x282 JUMP JUMPDEST PUSH1 0x0 DUP1 PUSH32 0x7FFFFFFFFFFFFFFFFFFFFFFFFFFFFFFF5D576E7357A4501DDFE92F46681B20A0 DUP4 GT ISZERO PUSH2 0x14A8 JUMPI POP PUSH1 0x0 SWAP1 POP PUSH1 0x3 PUSH2 0x1555 JUMP JUMPDEST DUP5 PUSH1 0xFF AND PUSH1 0x1B EQ ISZERO DUP1 ISZERO PUSH2 0x14C0 JUMPI POP DUP5 PUSH1 0xFF AND PUSH1 0x1C EQ ISZERO JUMPDEST ISZERO PUSH2 0x14D1 JUMPI POP PUSH1 0x0 SWAP1 POP PUSH1 0x4 PUSH2 0x1555 JUMP JUMPDEST PUSH1 0x40 DUP1 MLOAD PUSH1 0x0 DUP1 DUP3 MSTORE PUSH1 0x20 DUP3 ADD DUP1 DUP5 MSTORE DUP10 SWAP1 MSTORE PUSH1 0xFF DUP9 AND SWAP3 DUP3 ADD SWAP3 SWAP1 SWAP3 MSTORE PUSH1 0x60 DUP2 ADD DUP7 SWAP1 MSTORE PUSH1 0x80 DUP2 ADD DUP6 SWAP1 MSTORE PUSH1 0x1 SWAP1 PUSH1 0xA0 ADD PUSH1 0x20 PUSH1 0x40 MLOAD PUSH1 0x20 DUP2 SUB SWAP1 DUP1 DUP5 SUB SWAP1 DUP6 GAS STATICCALL ISZERO DUP1 ISZERO PUSH2 0x1525 JUMPI RETURNDATASIZE PUSH1 0x0 DUP1 RETURNDATACOPY RETURNDATASIZE PUSH1 0x0 REVERT JUMPDEST POP POP PUSH1 0x40 MLOAD PUSH1 0x1F NOT ADD MLOAD SWAP2 POP POP PUSH1 0x1 PUSH1 0x1 PUSH1 0xA0 SHL SUB DUP2 AND PUSH2 0x154E JUMPI PUSH1 0x0 PUSH1 0x1 SWAP3 POP SWAP3 POP POP PUSH2 0x1555 JUMP JUMPDEST SWAP2 POP PUSH1 0x0 SWAP1 POP JUMPDEST SWAP5 POP SWAP5 SWAP3 POP POP POP JUMP JUMPDEST PUSH1 0x0 DUP1 PUSH1 0x1 PUSH1 0x1 PUSH1 0xFF SHL SUB DUP4 AND PUSH1 0xFF DUP5 SWAP1 SHR PUSH1 0x1B ADD PUSH2 0x157F DUP8 DUP3 DUP9 DUP6 PUSH2 0x1471 JUMP JUMPDEST SWAP4 POP SWAP4 POP POP POP SWAP4 POP SWAP4 SWAP2 POP POP JUMP JUMPDEST DUP1 CALLDATALOAD PUSH1 0x1 PUSH1 0x1 PUSH1 0xA0 SHL SUB DUP2 AND DUP2 EQ PUSH2 0x15A4 JUMPI PUSH1 0x0 DUP1 REVERT JUMPDEST SWAP2 SWAP1 POP JUMP JUMPDEST PUSH1 0x0 DUP1 DUP4 PUSH1 0x1F DUP5 ADD SLT PUSH2 0x15BB JUMPI PUSH1 0x0 DUP1 REVERT JUMPDEST POP DUP2 CALLDATALOAD PUSH8 0xFFFFFFFFFFFFFFFF DUP2 GT ISZERO PUSH2 0x15D3 JUMPI PUSH1 0x0 DUP1 REVERT JUMPDEST PUSH1 0x20 DUP4 ADD SWAP2 POP DUP4 PUSH1 0x20 DUP3 DUP6 ADD ADD GT ISZERO PUSH2 0x12B4 JUMPI PUSH1 0x0 DUP1 REVERT JUMPDEST PUSH1 0x0 PUSH1 0x20 DUP3 DUP5 SUB SLT ISZERO PUSH2 0x15FD JUMPI PUSH1 0x0 DUP1 REVERT JUMPDEST PUSH2 0xE5A DUP3 PUSH2 0x158D JUMP JUMPDEST PUSH1 0x0 DUP1 PUSH1 0x0 PUSH1 0x60 DUP5 DUP7 SUB SLT ISZERO PUSH2 0x161B JUMPI PUSH1 0x0 DUP1 REVERT JUMPDEST PUSH2 0x1624 DUP5 PUSH2 0x158D JUMP JUMPDEST SWAP6 PUSH1 0x20 DUP6 ADD CALLDATALOAD SWAP6 POP PUSH1 0x40 SWAP1 SWAP5 ADD CALLDATALOAD SWAP4 SWAP3 POP POP POP JUMP JUMPDEST PUSH1 0x0 PUSH1 0x20 DUP3 DUP5 SUB SLT ISZERO PUSH2 0x164B JUMPI PUSH1 0x0 DUP1 REVERT JUMPDEST DUP2 MLOAD DUP1 ISZERO ISZERO DUP2 EQ PUSH2 0xE5A JUMPI PUSH1 0x0 DUP1 REVERT JUMPDEST PUSH1 0x0 DUP1 PUSH1 0x0 PUSH1 0x40 DUP5 DUP7 SUB SLT ISZERO PUSH2 0x1670 JUMPI PUSH1 0x0 DUP1 REVERT JUMPDEST DUP4 CALLDATALOAD SWAP3 POP PUSH1 0x20 DUP5 ADD CALLDATALOAD PUSH8 0xFFFFFFFFFFFFFFFF DUP2 GT ISZERO PUSH2 0x168E JUMPI PUSH1 0x0 DUP1 REVERT JUMPDEST PUSH2 0x169A DUP7 DUP3 DUP8 ADD PUSH2 0x15A9 JUMP JUMPDEST SWAP5 SWAP8 SWAP1 SWAP7 POP SWAP4 SWAP5 POP POP POP POP JUMP JUMPDEST PUSH1 0x0 DUP1 PUSH1 0x0 DUP1 PUSH1 0x0 PUSH1 0x80 DUP7 DUP9 SUB SLT ISZERO PUSH2 0x16BF JUMPI PUSH1 0x0 DUP1 REVERT JUMPDEST DUP6 CALLDATALOAD PUSH8 0xFFFFFFFFFFFFFFFF DUP2 GT ISZERO PUSH2 0x16D6 JUMPI PUSH1 0x0 DUP1 REVERT JUMPDEST PUSH2 0x16E2 DUP9 DUP3 DUP10 ADD PUSH2 0x15A9 JUMP JUMPDEST SWAP1 SWAP7 POP SWAP5 POP PUSH2 0x16F5 SWAP1 POP PUSH1 0x20 DUP8 ADD PUSH2 0x158D JUMP JUMPDEST SWAP5 SWAP8 SWAP4 SWAP7 POP SWAP4 SWAP5 PUSH1 0x40 DUP2 ADD CALLDATALOAD SWAP5 POP PUSH1 0x60 ADD CALLDATALOAD SWAP3 SWAP2 POP POP JUMP JUMPDEST PUSH1 0x0 DUP1 PUSH1 0x40 DUP4 DUP6 SUB SLT ISZERO PUSH2 0x1720 JUMPI PUSH1 0x0 DUP1 REVERT JUMPDEST POP POP DUP1 CALLDATALOAD SWAP3 PUSH1 0x20 SWAP1 SWAP2 ADD CALLDATALOAD SWAP2 POP JUMP JUMPDEST PUSH1 0x0 DUP2 MLOAD DUP1 DUP5 MSTORE PUSH1 0x0 JUMPDEST DUP2 DUP2 LT ISZERO PUSH2 0x1755 JUMPI PUSH1 0x20 DUP2 DUP6 ADD DUP2 ADD MLOAD DUP7 DUP4 ADD DUP3 ADD MSTORE ADD PUSH2 0x1739 JUMP JUMPDEST DUP2 DUP2 GT ISZERO PUSH2 0x1767 JUMPI PUSH1 0x0 PUSH1 0x20 DUP4 DUP8 ADD ADD MSTORE JUMPDEST POP PUSH1 0x1F ADD PUSH1 0x1F NOT AND SWAP3 SWAP1 SWAP3 ADD PUSH1 0x20 ADD SWAP3 SWAP2 POP POP JUMP JUMPDEST DUP1 SLOAD PUSH1 0x0 SWAP1 PUSH1 0x1 DUP2 DUP2 SHR SWAP1 DUP1 DUP4 AND DUP1 PUSH2 0x1796 JUMPI PUSH1 0x7F DUP4 AND SWAP3 POP JUMPDEST PUSH1 0x20 DUP1 DUP5 LT DUP3 EQ ISZERO PUSH2 0x17B8 JUMPI PUSH4 0x4E487B71 PUSH1 0xE0 SHL PUSH1 0x0 MSTORE PUSH1 0x22 PUSH1 0x4 MSTORE PUSH1 0x24 PUSH1 0x0 REVERT JUMPDEST DUP4 DUP9 MSTORE PUSH1 0x20 DUP9 ADD DUP3 DUP1 ISZERO PUSH2 0x17D3 JUMPI PUSH1 0x1 DUP2 EQ PUSH2 0x17E4 JUMPI PUSH2 0x180F JUMP JUMPDEST PUSH1 0xFF NOT DUP8 AND DUP3 MSTORE DUP3 DUP3 ADD SWAP8 POP PUSH2 0x180F JUMP JUMPDEST PUSH1 0x0 DUP10 DUP2 MSTORE PUSH1 0x20 SWAP1 KECCAK256 PUSH1 0x0 JUMPDEST DUP8 DUP2 LT ISZERO PUSH2 0x1809 JUMPI DUP2 SLOAD DUP5 DUP3 ADD MSTORE SWAP1 DUP7 ADD SWAP1 DUP5 ADD PUSH2 0x17F0 JUMP JUMPDEST DUP4 ADD SWAP9 POP POP JUMPDEST POP POP POP POP POP POP POP SWAP3 SWAP2 POP POP JUMP JUMPDEST PUSH1 0x0 PUSH1 0x20 DUP1 DUP4 ADD DUP2 DUP5 MSTORE DUP1 DUP6 MLOAD DUP1 DUP4 MSTORE PUSH1 0x40 SWAP3 POP DUP3 DUP7 ADD SWAP2 POP DUP3 DUP2 PUSH1 0x5 SHL DUP8 ADD ADD DUP5 DUP9 ADD PUSH1 0x0 JUMPDEST DUP4 DUP2 LT ISZERO PUSH2 0x18AD JUMPI PUSH1 0x3F NOT DUP10 DUP5 SUB ADD DUP6 MSTORE DUP2 MLOAD PUSH1 0x80 DUP2 MLOAD DUP2 DUP7 MSTORE PUSH2 0x1869 DUP3 DUP8 ADD DUP3 PUSH2 0x172F JUMP JUMPDEST SWAP2 POP POP PUSH1 0xFF DUP10 DUP4 ADD MLOAD AND DUP10 DUP7 ADD MSTORE DUP8 DUP3 ADD MLOAD DUP6 DUP3 SUB DUP10 DUP8 ADD MSTORE PUSH2 0x188C DUP3 DUP3 PUSH2 0x172F JUMP JUMPDEST PUSH1 0x60 SWAP4 DUP5 ADD MLOAD SWAP7 SWAP1 SWAP4 ADD SWAP6 SWAP1 SWAP6 MSTORE POP SWAP5 DUP8 ADD SWAP5 SWAP3 POP SWAP1 DUP7 ADD SWAP1 PUSH1 0x1 ADD PUSH2 0x1843 JUMP JUMPDEST POP SWAP1 SWAP9 SWAP8 POP POP POP POP POP POP POP POP JUMP JUMPDEST PUSH1 0x20 DUP2 MSTORE PUSH1 0x80 PUSH1 0x20 DUP3 ADD MSTORE PUSH1 0x0 PUSH2 0x18D5 PUSH1 0xA0 DUP4 ADD DUP5 PUSH2 0x177C JUMP JUMPDEST PUSH1 0x1 DUP5 ADD SLOAD PUSH1 0xFF AND PUSH1 0x40 DUP5 ADD MSTORE DUP3 DUP2 SUB PUSH1 0x1F NOT ADD PUSH1 0x60 DUP5 ADD MSTORE PUSH2 0x18FB DUP2 PUSH1 0x2 DUP7 ADD PUSH2 0x177C JUMP JUMPDEST SWAP1 POP PUSH1 0x3 DUP5 ADD SLOAD PUSH1 0x80 DUP5 ADD MSTORE DUP1 SWAP2 POP POP SWAP3 SWAP2 POP POP JUMP JUMPDEST PUSH1 0x0 DUP3 NOT DUP3 GT ISZERO PUSH2 0x1924 JUMPI PUSH2 0x1924 PUSH2 0x19D5 JUMP JUMPDEST POP ADD SWAP1 JUMP JUMPDEST PUSH1 0x0 PUSH1 0xFF DUP3 AND PUSH1 0xFF DUP5 AND DUP1 PUSH1 0xFF SUB DUP3 GT ISZERO PUSH2 0x1946 JUMPI PUSH2 0x1946 PUSH2 0x19D5 JUMP JUMPDEST ADD SWAP4 SWAP3 POP POP POP JUMP JUMPDEST PUSH1 0x0 DUP3 DUP3 LT ISZERO PUSH2 0x1960 JUMPI PUSH2 0x1960 PUSH2 0x19D5 JUMP JUMPDEST POP SUB SWAP1 JUMP JUMPDEST PUSH1 0x1 DUP2 DUP2 SHR SWAP1 DUP3 AND DUP1 PUSH2 0x1979 JUMPI PUSH1 0x7F DUP3 AND SWAP2 POP JUMPDEST PUSH1 0x20 DUP3 LT DUP2 EQ ISZERO PUSH2 0x5D5 JUMPI PUSH4 0x4E487B71 PUSH1 0xE0 SHL PUSH1 0x0 MSTORE PUSH1 0x22 PUSH1 0x4 MSTORE PUSH1 0x24 PUSH1 0x0 REVERT JUMPDEST PUSH1 0x0 PUSH1 0x0 NOT DUP3 EQ ISZERO PUSH2 0x19AE JUMPI PUSH2 0x19AE PUSH2 0x19D5 JUMP JUMPDEST POP PUSH1 0x1 ADD SWAP1 JUMP JUMPDEST PUSH1 0x0 PUSH1 0xFF DUP3 AND PUSH1 0xFF DUP2 EQ ISZERO PUSH2 0x19CC JUMPI PUSH2 0x19CC PUSH2 0x19D5 JUMP JUMPDEST PUSH1 0x1 ADD SWAP3 SWAP2 POP POP JUMP JUMPDEST PUSH4 0x4E487B71 PUSH1 0xE0 SHL PUSH1 0x0 MSTORE PUSH1 0x11 PUSH1 0x4 MSTORE PUSH1 0x24 PUSH1 0x0 REVERT JUMPDEST PUSH4 0x4E487B71 PUSH1 0xE0 SHL PUSH1 0x0 MSTORE PUSH1 0x21 PUSH1 0x4 MSTORE PUSH1 0x24 PUSH1 0x0 REVERT JUMPDEST PUSH4 0x4E487B71 PUSH1 0xE0 SHL PUSH1 0x0 MSTORE PUSH1 0x32 PUSH1 0x4 MSTORE PUSH1 0x24 PUSH1 0x0 REVERT JUMPDEST PUSH4 0x4E487B71 PUSH1 0xE0 SHL PUSH1 0x0 MSTORE PUSH1 0x41 PUSH1 0x4 MSTORE PUSH1 0x24 PUSH1 0x0 REVERT INVALID LOG2 PUSH5 0x6970667358 0x22 SLT KECCAK256 SLT 0xC7 PUSH15 0x96027E622E6ADECCD518A7F3C9C5CD 0x4E 0xD4 0xC0 0xCD JUMPDEST CREATE PC SDIV PUSH10 0xA669F92C4864736F6C63 NUMBER STOP ADDMOD MOD STOP CALLER ",
  "sha1": "2447ee8141be376cf3a073e09205e021a7f28d04",
  "source": "pragma solidity ^0.8.0;\npragma experimental ABIEncoderV2;\n// SPDX-License-Identifier: MIT\n\nimport \"./OpenZepellin/contracts/utils/math/SafeMath.sol\";\nimport \"./Token.sol\";\n\nimport \"./OpenZepellin/contracts/utils/cryptography/ECDSA.sol\";\nimport \"./OpenZepellin/contracts/utils/cryptography/draft-EIP712.sol\";\n\n/**\n    @title Voting Contract\n    @notice Voters Register (receive 1 WKND) token after which, they can particapate in the elections\n\n */\ncontract Voting is EIP712{\n\n    uint256 constant ELECTION_WINNERS_LENGTH = 3;\n    uint256 constant REGISTRATION_AMOUNT = 1;\n\n    using SafeMath for uint256;\n\n    struct Candidate {\n        string name;\n        uint8 age;\n        string cult;\n        uint256 votes;\n    }\n\n    struct Vote {\n        uint256 candidateId;\n        uint256 amount;\n        bool hasVoted;\n    }\n\n    address king;\n\n    Token wakandaToken;\n\n    mapping (address => bool) isRegistered;\n    mapping (address => uint256) nonces;\n    mapping (address => Vote) votes;\n\n    Candidate[] candidates;\n\n    uint256[] electionWinners;\n    event NewChallenger(Candidate challenger);\n\n    bool hasEnded;\n\n    constructor(string memory _electionName, address _wakandaTokenAddress, string[] memory _candidateNames, uint8[] memory _candidateAges, string[] memory _candidateCults) EIP712(_electionName, \"1.0.0\") {\n\n        king = msg.sender;\n\n        _addCandidates(_candidateNames, _candidateAges, _candidateCults);\n\n        wakandaToken = Token(_wakandaTokenAddress);\n\n    }\n\n    /**\n        @notice Ends the election - there is no voting after\n        @return Boolean : True if successful\n     */\n    function endTheElection() public returns (bool) {\n        \n        require(msg.sender == king, \"Only KING can end the election.\");\n\n        hasEnded = true;\n\n        return true;\n\n    }\n\n    /**\n        @notice Registers the _citizen to be able to participate in the elections\n        @param _citizen Citizen's address\n        @return Boolean : True if successful\n     */\n    function register(address _citizen) public returns (bool) {\n        \n        require(isRegistered[_citizen] != true, \"The citizen has been registered - there are no multiple registrations.\");\n\n        wakandaToken.usingRegistrationRight(_citizen, REGISTRATION_AMOUNT);\n        isRegistered[_citizen] = true;\n\n        return true;\n\n    }\n\n    /**\n        @notice Returns the registration status of _citizenAddress\n        @param _citizenAddress Citizen's address\n        @return Boolean : True if citizen is registered\n     */\n    function citizenIsRegistered(address _citizenAddress) public view returns (bool) {\n\n        return isRegistered[_citizenAddress];\n\n    }\n\n    /**\n        @notice Voting function - casts a vote from msg.sender\n        @param _candidateId Candidate ID\n        @param _amount Amount of WKND tokens to be used for voting\n     */\n    function vote(uint256 _candidateId, uint256 _amount) public {\n\n        _vote(msg.sender, _candidateId, _amount);\n\n    }\n\n    /**\n        @notice Returns the voting status of _citizenAddress\n        @param _citizenAddress Citizen's address\n        @return The Vote struct\n     */\n    function citizenHasVoted(address _citizenAddress) public view returns (Vote memory) {\n\n        return votes[_citizenAddress];\n        \n    }\n\n    /**\n        @notice Returns the Election's top 3 candidates (winning candidates)\n        @return An array of top candidates\n     */\n    function winningCandidates() public view returns (Candidate[] memory){\n    \n        Candidate[] memory winners = new Candidate[](electionWinners.length);\n        for (uint8 i = 0; i < electionWinners.length; ++i) winners[i] = candidates[electionWinners[i]];\n        return winners;\n        \n    }\n\n    /**\n        @notice Returns an array of all candidates involved in the election\n        @return Array\n     */\n    function seeAllCandidates() public view returns (Candidate[] memory) {\n\n        return candidates;\n\n    }\n\n    /**\n        @notice Returns a nonce fo the specified citizenAddress\n        @param citizenAddress Citizen's address\n        @return Nonce\n     */\n    function getNonce(address citizenAddress) public view returns (uint256){\n\n        return nonces[citizenAddress];\n        \n    }\n\n    /**\n        @notice Returns a digest that will be used in verification of a signature\n        @param citizenAddress Citizen's address\n        @param candidateId Candidate's ID\n        @param amount Amount of WKND tokens to be used in voting\n        @return Digest\n     */\n    function getDigest(address citizenAddress, uint256 candidateId, uint256 amount) public view returns (bytes32){\n\n        uint256 nonce = nonces[citizenAddress];\n\n        return _hashTypedDataV4(\n            keccak256(\n                abi.encode(    \n                    keccak256(\"vote(address citizenAddress,uint256 candidateId,uint256 amount,uint256 nonce)\"),\n                    citizenAddress,\n                    candidateId,\n                    amount,\n                    nonce\n                )\n            )\n        );\n    }\n    \n    /**\n        @notice Return the signer of a message\n        @param digest Digested message\n        @param signature Singature\n        @return Signer of a message\n     */\n    function getSigner(bytes32 digest, bytes calldata signature) public pure returns (address){\n        return  ECDSA.recover(digest, signature);\n    }\n\n    /**\n        @notice Used for delegating a vote - can be called by anyone having a signature and rest of the information\n        @param citizenAddress Citizen's address\n        @param candidateId Candidate's ID\n        @param amount Amount of WKND tokens to be used in voting\n     */\n    function delegatedVote(bytes calldata signature, address citizenAddress, uint256 candidateId, uint256 amount) public {\n\n        bytes32 digest = getDigest(citizenAddress, candidateId, amount);\n        address signer = getSigner(digest, signature);\n        require(signer == citizenAddress, \"Function `vote` : invalid signature\");\n        require(signer != address(0), \"ECDSA: invalid signature\");\n\n        _vote(citizenAddress, candidateId, amount);\n\n        nonces[citizenAddress]++;\n    }\n    /**\n        @notice When deployed, instantiates the candidate array\n        @param _candidateNames Candidate's Names\n        @param _candidateAges Candidate's Ages\n        @param _candidateCults Candidate's Cults\n     */\n    function _addCandidates(string[] memory _candidateNames, uint8[] memory _candidateAges, string[] memory _candidateCults) internal {\n\n        require(msg.sender == king, \"Only KING can start a new election !\");\n        require(_candidateNames.length == _candidateAges.length, \"Length mismatch - candidate names and ages !\");\n        require(_candidateNames.length == _candidateCults.length, \"Length mismatch - candidate names and ages !\");\n\n        for(uint256 i = 0; i < _candidateNames.length; ++i) {\n            candidates.push(Candidate({name: _candidateNames[i], age: _candidateAges[i], cult: _candidateCults[i], votes: 0}));\n        }\n\n    }\n\n    /**\n        @notice Internal function which handles the voting\n        @param _citizen Citizen's address\n        @param _candidateId Candidate's ID\n        @param _amount Amount of WKND tokens to be used in the voting process\n     */\n    function _vote(address _citizen, uint256 _candidateId, uint256 _amount) internal {\n\n        require(hasEnded != true, \"Voting for the current election has ended .\");\n        require(votes[_citizen].hasVoted != true, \"The citizen already voted in the election .\");\n        require(_amount >= REGISTRATION_AMOUNT, \"The amount is lesser than the REGISTRATION AMOUNT.\");\n        require(_candidateId < candidates.length, \"The candidate ID greater than the number of candidates !\");\n\n        wakandaToken.usingVotingRight(_citizen, _amount);\n\n        candidates[_candidateId].votes = candidates[_candidateId].votes.add(_amount);\n        votes[_citizen].candidateId = _candidateId;\n        votes[_citizen].amount = _amount;\n        votes[_citizen].hasVoted = true;\n\n        if(_isInElectionWinners(_candidateId) == false){ // potentially a new challenger \n         \n            if (candidates[_candidateId].votes > _getLastPlaceVotes() || electionWinners.length < ELECTION_WINNERS_LENGTH) { // entering the first N places\n   \n                _insertIntoElectionWinners(_candidateId);\n                _sortElectionWinners();\n                emit NewChallenger(candidates[_candidateId]);\n\n            } else {\n\n                // do nothing - current candidate didn't enter the first three places\n            }\n            \n        } else { // it is not a new challenger\n        \n            _sortElectionWinners(); // the order can be different now\n\n        }\n    }\n\n    /**\n        @notice Internal function which sorts the electionWinners Array\n     */\n    function _sortElectionWinners() internal {\n\n        if(electionWinners.length == 0) return;\n\n        for(uint8 i = 0; i < electionWinners.length - 1; ++i){\n            for(uint8 j = i+1; j < electionWinners.length; ++j){\n                uint256 currPlaceId = electionWinners[i];\n                uint256 nextPlaceId = electionWinners[j];\n                if(candidates[currPlaceId].votes < candidates[nextPlaceId].votes){\n                    uint256 temp = electionWinners[i];\n                    electionWinners[i] = electionWinners[j];\n                    electionWinners[j] = temp;\n                }\n            }\n        }\n    }\n\n    /**\n        @notice Internal function which returns if the _candidateId is in the electionWinners Array\n        @param _candidateId Candidate's ID to be checked\n        @return Bool : True if found in the electionWinners\n     */\n    function _isInElectionWinners(uint256 _candidateId) internal view returns (bool){\n\n        for(uint8 i = 0; i < electionWinners.length; ++i){\n            if(_candidateId == electionWinners[i]) return true;\n        }\n        return false;\n    }\n\n    /**\n        @notice Internal function which returns the number of votes of the last candidate in the electionWinners\n        @return Votes of candidate that is in last place\n     */\n    function _getLastPlaceVotes() internal view returns (uint256){\n\n        uint256 length = electionWinners.length;\n        return length > 0 ? candidates[electionWinners[length-1]].votes : 0;\n    }\n\n    /**\n        @notice Internal function which inserts a candidate in the electionWinners\n        @param _candidateId ID of the Candidate to be inserted\n     */\n    function _insertIntoElectionWinners(uint256 _candidateId) internal {\n\n        uint256 length = electionWinners.length;\n        if(length < ELECTION_WINNERS_LENGTH){\n             electionWinners.push(_candidateId);\n        } else {\n            electionWinners[ELECTION_WINNERS_LENGTH-1] = _candidateId;\n        }\n    }\n}\n",
  "sourcePath": "contracts/Voting.sol",
  "type": "contract"
}